{
	"Projects/horizon/contracts/SwapContract.sol": {
		"SwapContract": {
			"abi": [
				{
					"inputs": [
						{
							"internalType": "address",
							"name": "_token1",
							"type": "address"
						},
						{
							"internalType": "address",
							"name": "_token2",
							"type": "address"
						}
					],
					"stateMutability": "nonpayable",
					"type": "constructor"
				},
				{
					"anonymous": false,
					"inputs": [
						{
							"indexed": false,
							"internalType": "address",
							"name": "account",
							"type": "address"
						},
						{
							"indexed": false,
							"internalType": "address",
							"name": "token",
							"type": "address"
						},
						{
							"indexed": false,
							"internalType": "uint256",
							"name": "amount",
							"type": "uint256"
						}
					],
					"name": "TokensPurchased",
					"type": "event"
				},
				{
					"anonymous": false,
					"inputs": [
						{
							"indexed": false,
							"internalType": "address",
							"name": "account",
							"type": "address"
						},
						{
							"indexed": false,
							"internalType": "address",
							"name": "token",
							"type": "address"
						},
						{
							"indexed": false,
							"internalType": "uint256",
							"name": "amount",
							"type": "uint256"
						}
					],
					"name": "TokensSold",
					"type": "event"
				},
				{
					"anonymous": false,
					"inputs": [
						{
							"indexed": false,
							"internalType": "address",
							"name": "account",
							"type": "address"
						},
						{
							"indexed": false,
							"internalType": "address",
							"name": "tokenToBuy",
							"type": "address"
						},
						{
							"indexed": false,
							"internalType": "address",
							"name": "tokenToSell",
							"type": "address"
						},
						{
							"indexed": false,
							"internalType": "uint256",
							"name": "tokenToBuyAmount",
							"type": "uint256"
						},
						{
							"indexed": false,
							"internalType": "uint256",
							"name": "tokenToSellAmount",
							"type": "uint256"
						}
					],
					"name": "TokensSwapped",
					"type": "event"
				},
				{
					"anonymous": false,
					"inputs": [
						{
							"indexed": false,
							"internalType": "address",
							"name": "_from",
							"type": "address"
						},
						{
							"indexed": false,
							"internalType": "uint256",
							"name": "_amount",
							"type": "uint256"
						}
					],
					"name": "TransferReceived",
					"type": "event"
				},
				{
					"anonymous": false,
					"inputs": [
						{
							"indexed": false,
							"internalType": "address",
							"name": "_from",
							"type": "address"
						},
						{
							"indexed": false,
							"internalType": "address",
							"name": "_destAddr",
							"type": "address"
						},
						{
							"indexed": false,
							"internalType": "uint256",
							"name": "_amount",
							"type": "uint256"
						}
					],
					"name": "TransferSent",
					"type": "event"
				},
				{
					"inputs": [],
					"name": "balance",
					"outputs": [
						{
							"internalType": "uint256",
							"name": "",
							"type": "uint256"
						}
					],
					"stateMutability": "view",
					"type": "function"
				},
				{
					"inputs": [
						{
							"internalType": "contract IERC20",
							"name": "token",
							"type": "address"
						}
					],
					"name": "buyTokens",
					"outputs": [],
					"stateMutability": "payable",
					"type": "function"
				},
				{
					"inputs": [],
					"name": "owner",
					"outputs": [
						{
							"internalType": "address",
							"name": "",
							"type": "address"
						}
					],
					"stateMutability": "view",
					"type": "function"
				},
				{
					"inputs": [
						{
							"internalType": "contract IERC20",
							"name": "token",
							"type": "address"
						},
						{
							"internalType": "uint256",
							"name": "_amount",
							"type": "uint256"
						}
					],
					"name": "sellTokens",
					"outputs": [],
					"stateMutability": "payable",
					"type": "function"
				},
				{
					"inputs": [
						{
							"internalType": "contract IERC20",
							"name": "tokenToBuy",
							"type": "address"
						},
						{
							"internalType": "contract IERC20",
							"name": "tokenToSell",
							"type": "address"
						},
						{
							"internalType": "uint256",
							"name": "_amountToSell",
							"type": "uint256"
						}
					],
					"name": "swapTokens",
					"outputs": [],
					"stateMutability": "payable",
					"type": "function"
				},
				{
					"inputs": [
						{
							"internalType": "address",
							"name": "",
							"type": "address"
						}
					],
					"name": "tokenAvailableBalances",
					"outputs": [
						{
							"internalType": "uint256",
							"name": "",
							"type": "uint256"
						}
					],
					"stateMutability": "view",
					"type": "function"
				},
				{
					"inputs": [
						{
							"internalType": "address",
							"name": "",
							"type": "address"
						}
					],
					"name": "tokenConversionRates",
					"outputs": [
						{
							"internalType": "uint256",
							"name": "",
							"type": "uint256"
						}
					],
					"stateMutability": "view",
					"type": "function"
				},
				{
					"inputs": [
						{
							"internalType": "contract IERC20",
							"name": "token",
							"type": "address"
						},
						{
							"internalType": "address",
							"name": "to",
							"type": "address"
						},
						{
							"internalType": "uint256",
							"name": "amount",
							"type": "uint256"
						}
					],
					"name": "transferERC20",
					"outputs": [],
					"stateMutability": "nonpayable",
					"type": "function"
				},
				{
					"inputs": [
						{
							"internalType": "address",
							"name": "token",
							"type": "address"
						},
						{
							"internalType": "uint256",
							"name": "tokenValueComparedToEth",
							"type": "uint256"
						}
					],
					"name": "updateTokenConversionRate",
					"outputs": [],
					"stateMutability": "nonpayable",
					"type": "function"
				},
				{
					"inputs": [
						{
							"internalType": "uint256",
							"name": "amount",
							"type": "uint256"
						},
						{
							"internalType": "address payable",
							"name": "destAddr",
							"type": "address"
						}
					],
					"name": "withdraw",
					"outputs": [],
					"stateMutability": "nonpayable",
					"type": "function"
				},
				{
					"stateMutability": "payable",
					"type": "receive"
				}
			],
			"devdoc": {
				"kind": "dev",
				"methods": {},
				"version": 1
			},
			"evm": {
				"assembly": "    /* \"Projects/horizon/contracts/SwapContract.sol\":115:5272  contract SwapContract {... */\n  mstore(0x40, 0x80)\n    /* \"Projects/horizon/contracts/SwapContract.sol\":774:1200  constructor(address _token1, address _token2) {... */\n  callvalue\n  dup1\n  iszero\n  tag_1\n  jumpi\n  0x00\n  dup1\n  revert\ntag_1:\n  pop\n  mload(0x40)\n  sub(codesize, bytecodeSize)\n  dup1\n  bytecodeSize\n  dup4\n  codecopy\n  dup2\n  dup2\n  add\n  0x40\n  mstore\n  dup2\n  add\n  swap1\n  tag_2\n  swap2\n  swap1\n  tag_3\n  jump\t// in\ntag_2:\n    /* \"Projects/horizon/contracts/SwapContract.sol\":838:848  msg.sender */\n  caller\n    /* \"Projects/horizon/contracts/SwapContract.sol\":830:835  owner */\n  0x00\n  dup1\n    /* \"Projects/horizon/contracts/SwapContract.sol\":830:848  owner = msg.sender */\n  0x0100\n  exp\n  dup2\n  sload\n  dup2\n  0xffffffffffffffffffffffffffffffffffffffff\n  mul\n  not\n  and\n  swap1\n  dup4\n  0xffffffffffffffffffffffffffffffffffffffff\n  and\n  mul\n  or\n  swap1\n  sstore\n  pop\n    /* \"Projects/horizon/contracts/SwapContract.sol\":858:876  uint token1Balance */\n  0x00\n    /* \"Projects/horizon/contracts/SwapContract.sol\":886:893  _token1 */\n  dup3\n    /* \"Projects/horizon/contracts/SwapContract.sol\":879:904  IERC20(_token1).balanceOf */\n  0xffffffffffffffffffffffffffffffffffffffff\n  and\n  0x70a08231\n    /* \"Projects/horizon/contracts/SwapContract.sol\":913:917  this */\n  address\n    /* \"Projects/horizon/contracts/SwapContract.sol\":879:919  IERC20(_token1).balanceOf(address(this)) */\n  mload(0x40)\n  dup3\n  0xffffffff\n  and\n  0xe0\n  shl\n  dup2\n  mstore\n  0x04\n  add\n  tag_6\n  swap2\n  swap1\n  tag_7\n  jump\t// in\ntag_6:\n  0x20\n  mload(0x40)\n  dup1\n  dup4\n  sub\n  dup2\n  dup7\n  dup1\n  extcodesize\n  iszero\n  dup1\n  iszero\n  tag_8\n  jumpi\n  0x00\n  dup1\n  revert\ntag_8:\n  pop\n  gas\n  staticcall\n  iszero\n  dup1\n  iszero\n  tag_10\n  jumpi\n  returndatasize\n  0x00\n  dup1\n  returndatacopy\n  revert(0x00, returndatasize)\ntag_10:\n  pop\n  pop\n  pop\n  pop\n  mload(0x40)\n  returndatasize\n  not(0x1f)\n  0x1f\n  dup3\n  add\n  and\n  dup3\n  add\n  dup1\n  0x40\n  mstore\n  pop\n  dup2\n  add\n  swap1\n  tag_11\n  swap2\n  swap1\n  tag_12\n  jump\t// in\ntag_11:\n    /* \"Projects/horizon/contracts/SwapContract.sol\":858:919  uint token1Balance = IERC20(_token1).balanceOf(address(this)) */\n  swap1\n  pop\n    /* \"Projects/horizon/contracts/SwapContract.sol\":929:947  uint token2Balance */\n  0x00\n    /* \"Projects/horizon/contracts/SwapContract.sol\":957:964  _token2 */\n  dup3\n    /* \"Projects/horizon/contracts/SwapContract.sol\":950:975  IERC20(_token2).balanceOf */\n  0xffffffffffffffffffffffffffffffffffffffff\n  and\n  0x70a08231\n    /* \"Projects/horizon/contracts/SwapContract.sol\":984:988  this */\n  address\n    /* \"Projects/horizon/contracts/SwapContract.sol\":950:990  IERC20(_token2).balanceOf(address(this)) */\n  mload(0x40)\n  dup3\n  0xffffffff\n  and\n  0xe0\n  shl\n  dup2\n  mstore\n  0x04\n  add\n  tag_13\n  swap2\n  swap1\n  tag_7\n  jump\t// in\ntag_13:\n  0x20\n  mload(0x40)\n  dup1\n  dup4\n  sub\n  dup2\n  dup7\n  dup1\n  extcodesize\n  iszero\n  dup1\n  iszero\n  tag_14\n  jumpi\n  0x00\n  dup1\n  revert\ntag_14:\n  pop\n  gas\n  staticcall\n  iszero\n  dup1\n  iszero\n  tag_16\n  jumpi\n  returndatasize\n  0x00\n  dup1\n  returndatacopy\n  revert(0x00, returndatasize)\ntag_16:\n  pop\n  pop\n  pop\n  pop\n  mload(0x40)\n  returndatasize\n  not(0x1f)\n  0x1f\n  dup3\n  add\n  and\n  dup3\n  add\n  dup1\n  0x40\n  mstore\n  pop\n  dup2\n  add\n  swap1\n  tag_17\n  swap2\n  swap1\n  tag_12\n  jump\t// in\ntag_17:\n    /* \"Projects/horizon/contracts/SwapContract.sol\":929:990  uint token2Balance = IERC20(_token2).balanceOf(address(this)) */\n  swap1\n  pop\n    /* \"Projects/horizon/contracts/SwapContract.sol\":1034:1047  token1Balance */\n  dup2\n    /* \"Projects/horizon/contracts/SwapContract.sol\":1000:1022  tokenAvailableBalances */\n  0x03\n    /* \"Projects/horizon/contracts/SwapContract.sol\":1000:1031  tokenAvailableBalances[_token1] */\n  0x00\n    /* \"Projects/horizon/contracts/SwapContract.sol\":1023:1030  _token1 */\n  dup7\n    /* \"Projects/horizon/contracts/SwapContract.sol\":1000:1031  tokenAvailableBalances[_token1] */\n  0xffffffffffffffffffffffffffffffffffffffff\n  and\n  0xffffffffffffffffffffffffffffffffffffffff\n  and\n  dup2\n  mstore\n  0x20\n  add\n  swap1\n  dup2\n  mstore\n  0x20\n  add\n  0x00\n  keccak256\n    /* \"Projects/horizon/contracts/SwapContract.sol\":1000:1047  tokenAvailableBalances[_token1] = token1Balance */\n  dup2\n  swap1\n  sstore\n  pop\n    /* \"Projects/horizon/contracts/SwapContract.sol\":1091:1104  token2Balance */\n  dup1\n    /* \"Projects/horizon/contracts/SwapContract.sol\":1057:1079  tokenAvailableBalances */\n  0x03\n    /* \"Projects/horizon/contracts/SwapContract.sol\":1057:1088  tokenAvailableBalances[_token2] */\n  0x00\n    /* \"Projects/horizon/contracts/SwapContract.sol\":1080:1087  _token2 */\n  dup6\n    /* \"Projects/horizon/contracts/SwapContract.sol\":1057:1088  tokenAvailableBalances[_token2] */\n  0xffffffffffffffffffffffffffffffffffffffff\n  and\n  0xffffffffffffffffffffffffffffffffffffffff\n  and\n  dup2\n  mstore\n  0x20\n  add\n  swap1\n  dup2\n  mstore\n  0x20\n  add\n  0x00\n  keccak256\n    /* \"Projects/horizon/contracts/SwapContract.sol\":1057:1104  tokenAvailableBalances[_token2] = token2Balance */\n  dup2\n  swap1\n  sstore\n  pop\n    /* \"Projects/horizon/contracts/SwapContract.sol\":1146:1149  100 */\n  0x64\n    /* \"Projects/horizon/contracts/SwapContract.sol\":1114:1134  tokenConversionRates */\n  0x02\n    /* \"Projects/horizon/contracts/SwapContract.sol\":1114:1143  tokenConversionRates[_token1] */\n  0x00\n    /* \"Projects/horizon/contracts/SwapContract.sol\":1135:1142  _token1 */\n  dup7\n    /* \"Projects/horizon/contracts/SwapContract.sol\":1114:1143  tokenConversionRates[_token1] */\n  0xffffffffffffffffffffffffffffffffffffffff\n  and\n  0xffffffffffffffffffffffffffffffffffffffff\n  and\n  dup2\n  mstore\n  0x20\n  add\n  swap1\n  dup2\n  mstore\n  0x20\n  add\n  0x00\n  keccak256\n    /* \"Projects/horizon/contracts/SwapContract.sol\":1114:1149  tokenConversionRates[_token1] = 100 */\n  dup2\n  swap1\n  sstore\n  pop\n    /* \"Projects/horizon/contracts/SwapContract.sol\":1191:1193  10 */\n  0x0a\n    /* \"Projects/horizon/contracts/SwapContract.sol\":1159:1179  tokenConversionRates */\n  0x02\n    /* \"Projects/horizon/contracts/SwapContract.sol\":1159:1188  tokenConversionRates[_token2] */\n  0x00\n    /* \"Projects/horizon/contracts/SwapContract.sol\":1180:1187  _token2 */\n  dup6\n    /* \"Projects/horizon/contracts/SwapContract.sol\":1159:1188  tokenConversionRates[_token2] */\n  0xffffffffffffffffffffffffffffffffffffffff\n  and\n  0xffffffffffffffffffffffffffffffffffffffff\n  and\n  dup2\n  mstore\n  0x20\n  add\n  swap1\n  dup2\n  mstore\n  0x20\n  add\n  0x00\n  keccak256\n    /* \"Projects/horizon/contracts/SwapContract.sol\":1159:1193  tokenConversionRates[_token2] = 10 */\n  dup2\n  swap1\n  sstore\n  pop\n    /* \"Projects/horizon/contracts/SwapContract.sol\":820:1200  {... */\n  pop\n  pop\n    /* \"Projects/horizon/contracts/SwapContract.sol\":774:1200  constructor(address _token1, address _token2) {... */\n  pop\n  pop\n    /* \"Projects/horizon/contracts/SwapContract.sol\":115:5272  contract SwapContract {... */\n  jump(tag_18)\n    /* \"#utility.yul\":7:150   */\ntag_20:\n    /* \"#utility.yul\":64:69   */\n  0x00\n    /* \"#utility.yul\":95:101   */\n  dup2\n    /* \"#utility.yul\":89:102   */\n  mload\n    /* \"#utility.yul\":80:102   */\n  swap1\n  pop\n    /* \"#utility.yul\":111:144   */\n  tag_22\n    /* \"#utility.yul\":138:143   */\n  dup2\n    /* \"#utility.yul\":111:144   */\n  tag_23\n  jump\t// in\ntag_22:\n    /* \"#utility.yul\":7:150   */\n  swap3\n  swap2\n  pop\n  pop\n  jump\t// out\n    /* \"#utility.yul\":156:299   */\ntag_24:\n    /* \"#utility.yul\":213:218   */\n  0x00\n    /* \"#utility.yul\":244:250   */\n  dup2\n    /* \"#utility.yul\":238:251   */\n  mload\n    /* \"#utility.yul\":229:251   */\n  swap1\n  pop\n    /* \"#utility.yul\":260:293   */\n  tag_26\n    /* \"#utility.yul\":287:292   */\n  dup2\n    /* \"#utility.yul\":260:293   */\n  tag_27\n  jump\t// in\ntag_26:\n    /* \"#utility.yul\":156:299   */\n  swap3\n  swap2\n  pop\n  pop\n  jump\t// out\n    /* \"#utility.yul\":305:812   */\ntag_3:\n    /* \"#utility.yul\":384:390   */\n  0x00\n    /* \"#utility.yul\":392:398   */\n  dup1\n    /* \"#utility.yul\":441:443   */\n  0x40\n    /* \"#utility.yul\":429:438   */\n  dup4\n    /* \"#utility.yul\":420:427   */\n  dup6\n    /* \"#utility.yul\":416:439   */\n  sub\n    /* \"#utility.yul\":412:444   */\n  slt\n    /* \"#utility.yul\":409:528   */\n  iszero\n  tag_29\n  jumpi\n    /* \"#utility.yul\":447:526   */\n  tag_30\n  tag_31\n  jump\t// in\ntag_30:\n    /* \"#utility.yul\":409:528   */\ntag_29:\n    /* \"#utility.yul\":567:568   */\n  0x00\n    /* \"#utility.yul\":592:656   */\n  tag_32\n    /* \"#utility.yul\":648:655   */\n  dup6\n    /* \"#utility.yul\":639:645   */\n  dup3\n    /* \"#utility.yul\":628:637   */\n  dup7\n    /* \"#utility.yul\":624:646   */\n  add\n    /* \"#utility.yul\":592:656   */\n  tag_20\n  jump\t// in\ntag_32:\n    /* \"#utility.yul\":582:656   */\n  swap3\n  pop\n    /* \"#utility.yul\":538:666   */\n  pop\n    /* \"#utility.yul\":705:707   */\n  0x20\n    /* \"#utility.yul\":731:795   */\n  tag_33\n    /* \"#utility.yul\":787:794   */\n  dup6\n    /* \"#utility.yul\":778:784   */\n  dup3\n    /* \"#utility.yul\":767:776   */\n  dup7\n    /* \"#utility.yul\":763:785   */\n  add\n    /* \"#utility.yul\":731:795   */\n  tag_20\n  jump\t// in\ntag_33:\n    /* \"#utility.yul\":721:795   */\n  swap2\n  pop\n    /* \"#utility.yul\":676:805   */\n  pop\n    /* \"#utility.yul\":305:812   */\n  swap3\n  pop\n  swap3\n  swap1\n  pop\n  jump\t// out\n    /* \"#utility.yul\":818:1169   */\ntag_12:\n    /* \"#utility.yul\":888:894   */\n  0x00\n    /* \"#utility.yul\":937:939   */\n  0x20\n    /* \"#utility.yul\":925:934   */\n  dup3\n    /* \"#utility.yul\":916:923   */\n  dup5\n    /* \"#utility.yul\":912:935   */\n  sub\n    /* \"#utility.yul\":908:940   */\n  slt\n    /* \"#utility.yul\":905:1024   */\n  iszero\n  tag_35\n  jumpi\n    /* \"#utility.yul\":943:1022   */\n  tag_36\n  tag_31\n  jump\t// in\ntag_36:\n    /* \"#utility.yul\":905:1024   */\ntag_35:\n    /* \"#utility.yul\":1063:1064   */\n  0x00\n    /* \"#utility.yul\":1088:1152   */\n  tag_37\n    /* \"#utility.yul\":1144:1151   */\n  dup5\n    /* \"#utility.yul\":1135:1141   */\n  dup3\n    /* \"#utility.yul\":1124:1133   */\n  dup6\n    /* \"#utility.yul\":1120:1142   */\n  add\n    /* \"#utility.yul\":1088:1152   */\n  tag_24\n  jump\t// in\ntag_37:\n    /* \"#utility.yul\":1078:1152   */\n  swap2\n  pop\n    /* \"#utility.yul\":1034:1162   */\n  pop\n    /* \"#utility.yul\":818:1169   */\n  swap3\n  swap2\n  pop\n  pop\n  jump\t// out\n    /* \"#utility.yul\":1175:1293   */\ntag_38:\n    /* \"#utility.yul\":1262:1286   */\n  tag_40\n    /* \"#utility.yul\":1280:1285   */\n  dup2\n    /* \"#utility.yul\":1262:1286   */\n  tag_41\n  jump\t// in\ntag_40:\n    /* \"#utility.yul\":1257:1260   */\n  dup3\n    /* \"#utility.yul\":1250:1287   */\n  mstore\n    /* \"#utility.yul\":1175:1293   */\n  pop\n  pop\n  jump\t// out\n    /* \"#utility.yul\":1299:1521   */\ntag_7:\n    /* \"#utility.yul\":1392:1396   */\n  0x00\n    /* \"#utility.yul\":1430:1432   */\n  0x20\n    /* \"#utility.yul\":1419:1428   */\n  dup3\n    /* \"#utility.yul\":1415:1433   */\n  add\n    /* \"#utility.yul\":1407:1433   */\n  swap1\n  pop\n    /* \"#utility.yul\":1443:1514   */\n  tag_43\n    /* \"#utility.yul\":1511:1512   */\n  0x00\n    /* \"#utility.yul\":1500:1509   */\n  dup4\n    /* \"#utility.yul\":1496:1513   */\n  add\n    /* \"#utility.yul\":1487:1493   */\n  dup5\n    /* \"#utility.yul\":1443:1514   */\n  tag_38\n  jump\t// in\ntag_43:\n    /* \"#utility.yul\":1299:1521   */\n  swap3\n  swap2\n  pop\n  pop\n  jump\t// out\n    /* \"#utility.yul\":1608:1704   */\ntag_41:\n    /* \"#utility.yul\":1645:1652   */\n  0x00\n    /* \"#utility.yul\":1674:1698   */\n  tag_47\n    /* \"#utility.yul\":1692:1697   */\n  dup3\n    /* \"#utility.yul\":1674:1698   */\n  tag_48\n  jump\t// in\ntag_47:\n    /* \"#utility.yul\":1663:1698   */\n  swap1\n  pop\n    /* \"#utility.yul\":1608:1704   */\n  swap2\n  swap1\n  pop\n  jump\t// out\n    /* \"#utility.yul\":1710:1836   */\ntag_48:\n    /* \"#utility.yul\":1747:1754   */\n  0x00\n    /* \"#utility.yul\":1787:1829   */\n  0xffffffffffffffffffffffffffffffffffffffff\n    /* \"#utility.yul\":1780:1785   */\n  dup3\n    /* \"#utility.yul\":1776:1830   */\n  and\n    /* \"#utility.yul\":1765:1830   */\n  swap1\n  pop\n    /* \"#utility.yul\":1710:1836   */\n  swap2\n  swap1\n  pop\n  jump\t// out\n    /* \"#utility.yul\":1842:1919   */\ntag_50:\n    /* \"#utility.yul\":1879:1886   */\n  0x00\n    /* \"#utility.yul\":1908:1913   */\n  dup2\n    /* \"#utility.yul\":1897:1913   */\n  swap1\n  pop\n    /* \"#utility.yul\":1842:1919   */\n  swap2\n  swap1\n  pop\n  jump\t// out\n    /* \"#utility.yul\":2048:2165   */\ntag_31:\n    /* \"#utility.yul\":2157:2158   */\n  0x00\n    /* \"#utility.yul\":2154:2155   */\n  dup1\n    /* \"#utility.yul\":2147:2159   */\n  revert\n    /* \"#utility.yul\":2171:2293   */\ntag_23:\n    /* \"#utility.yul\":2244:2268   */\n  tag_56\n    /* \"#utility.yul\":2262:2267   */\n  dup2\n    /* \"#utility.yul\":2244:2268   */\n  tag_41\n  jump\t// in\ntag_56:\n    /* \"#utility.yul\":2237:2242   */\n  dup2\n    /* \"#utility.yul\":2234:2269   */\n  eq\n    /* \"#utility.yul\":2224:2287   */\n  tag_57\n  jumpi\n    /* \"#utility.yul\":2283:2284   */\n  0x00\n    /* \"#utility.yul\":2280:2281   */\n  dup1\n    /* \"#utility.yul\":2273:2285   */\n  revert\n    /* \"#utility.yul\":2224:2287   */\ntag_57:\n    /* \"#utility.yul\":2171:2293   */\n  pop\n  jump\t// out\n    /* \"#utility.yul\":2299:2421   */\ntag_27:\n    /* \"#utility.yul\":2372:2396   */\n  tag_59\n    /* \"#utility.yul\":2390:2395   */\n  dup2\n    /* \"#utility.yul\":2372:2396   */\n  tag_50\n  jump\t// in\ntag_59:\n    /* \"#utility.yul\":2365:2370   */\n  dup2\n    /* \"#utility.yul\":2362:2397   */\n  eq\n    /* \"#utility.yul\":2352:2415   */\n  tag_60\n  jumpi\n    /* \"#utility.yul\":2411:2412   */\n  0x00\n    /* \"#utility.yul\":2408:2409   */\n  dup1\n    /* \"#utility.yul\":2401:2413   */\n  revert\n    /* \"#utility.yul\":2352:2415   */\ntag_60:\n    /* \"#utility.yul\":2299:2421   */\n  pop\n  jump\t// out\n    /* \"Projects/horizon/contracts/SwapContract.sol\":115:5272  contract SwapContract {... */\ntag_18:\n  dataSize(sub_0)\n  dup1\n  dataOffset(sub_0)\n  0x00\n  codecopy\n  0x00\n  return\nstop\n\nsub_0: assembly {\n        /* \"Projects/horizon/contracts/SwapContract.sol\":115:5272  contract SwapContract {... */\n      mstore(0x40, 0x80)\n      jumpi(tag_1, lt(calldatasize, 0x04))\n      shr(0xe0, calldataload(0x00))\n      dup1\n      0xc464fe65\n      gt\n      tag_13\n      jumpi\n      dup1\n      0xc464fe65\n      eq\n      tag_8\n      jumpi\n      dup1\n      0xdba243d3\n      eq\n      tag_9\n      jumpi\n      dup1\n      0xdf680b4f\n      eq\n      tag_10\n      jumpi\n      dup1\n      0xec6cc0cc\n      eq\n      tag_11\n      jumpi\n      dup1\n      0xec8ac4d8\n      eq\n      tag_12\n      jumpi\n      jump(tag_2)\n    tag_13:\n      dup1\n      0xf714ce\n      eq\n      tag_3\n      jumpi\n      dup1\n      0x8da5cb5b\n      eq\n      tag_4\n      jumpi\n      dup1\n      0x9db5dbe4\n      eq\n      tag_5\n      jumpi\n      dup1\n      0xb69ef8a8\n      eq\n      tag_6\n      jumpi\n      dup1\n      0xc1458c09\n      eq\n      tag_7\n      jumpi\n      jump(tag_2)\n    tag_1:\n      jumpi(tag_2, calldatasize)\n        /* \"Projects/horizon/contracts/SwapContract.sol\":1258:1267  msg.value */\n      callvalue\n        /* \"Projects/horizon/contracts/SwapContract.sol\":1247:1254  balance */\n      0x01\n      0x00\n        /* \"Projects/horizon/contracts/SwapContract.sol\":1247:1267  balance += msg.value */\n      dup3\n      dup3\n      sload\n      tag_16\n      swap2\n      swap1\n      tag_17\n      jump\t// in\n    tag_16:\n      swap3\n      pop\n      pop\n      dup2\n      swap1\n      sstore\n      pop\n        /* \"Projects/horizon/contracts/SwapContract.sol\":1282:1321  TransferReceived(msg.sender, msg.value) */\n      0xf1b03f708b9c39f453fe3f0cef84164c7d6f7df836df0796e1e9c2bce6ee397e\n        /* \"Projects/horizon/contracts/SwapContract.sol\":1299:1309  msg.sender */\n      caller\n        /* \"Projects/horizon/contracts/SwapContract.sol\":1311:1320  msg.value */\n      callvalue\n        /* \"Projects/horizon/contracts/SwapContract.sol\":1282:1321  TransferReceived(msg.sender, msg.value) */\n      mload(0x40)\n      tag_18\n      swap3\n      swap2\n      swap1\n      tag_19\n      jump\t// in\n    tag_18:\n      mload(0x40)\n      dup1\n      swap2\n      sub\n      swap1\n      log1\n        /* \"Projects/horizon/contracts/SwapContract.sol\":115:5272  contract SwapContract {... */\n      stop\n    tag_2:\n      0x00\n      dup1\n      revert\n        /* \"Projects/horizon/contracts/SwapContract.sol\":1578:1907  function withdraw(uint amount, address payable destAddr) public {... */\n    tag_3:\n      callvalue\n      dup1\n      iszero\n      tag_20\n      jumpi\n      0x00\n      dup1\n      revert\n    tag_20:\n      pop\n      tag_21\n      0x04\n      dup1\n      calldatasize\n      sub\n      dup2\n      add\n      swap1\n      tag_22\n      swap2\n      swap1\n      tag_23\n      jump\t// in\n    tag_22:\n      tag_24\n      jump\t// in\n    tag_21:\n      stop\n        /* \"Projects/horizon/contracts/SwapContract.sol\":143:163  address public owner */\n    tag_4:\n      callvalue\n      dup1\n      iszero\n      tag_25\n      jumpi\n      0x00\n      dup1\n      revert\n    tag_25:\n      pop\n      tag_26\n      tag_27\n      jump\t// in\n    tag_26:\n      mload(0x40)\n      tag_28\n      swap2\n      swap1\n      tag_29\n      jump\t// in\n    tag_28:\n      mload(0x40)\n      dup1\n      swap2\n      sub\n      swap1\n      return\n        /* \"Projects/horizon/contracts/SwapContract.sol\":1917:2277  function transferERC20(IERC20 token, address to, uint256 amount) public {... */\n    tag_5:\n      callvalue\n      dup1\n      iszero\n      tag_30\n      jumpi\n      0x00\n      dup1\n      revert\n    tag_30:\n      pop\n      tag_31\n      0x04\n      dup1\n      calldatasize\n      sub\n      dup2\n      add\n      swap1\n      tag_32\n      swap2\n      swap1\n      tag_33\n      jump\t// in\n    tag_32:\n      tag_34\n      jump\t// in\n    tag_31:\n      stop\n        /* \"Projects/horizon/contracts/SwapContract.sol\":169:191  uint256 public balance */\n    tag_6:\n      callvalue\n      dup1\n      iszero\n      tag_35\n      jumpi\n      0x00\n      dup1\n      revert\n    tag_35:\n      pop\n      tag_36\n      tag_37\n      jump\t// in\n    tag_36:\n      mload(0x40)\n      tag_38\n      swap2\n      swap1\n      tag_39\n      jump\t// in\n    tag_38:\n      mload(0x40)\n      dup1\n      swap2\n      sub\n      swap1\n      return\n        /* \"Projects/horizon/contracts/SwapContract.sol\":1334:1568  function updateTokenConversionRate(address token, uint tokenValueComparedToEth) public {... */\n    tag_7:\n      callvalue\n      dup1\n      iszero\n      tag_40\n      jumpi\n      0x00\n      dup1\n      revert\n    tag_40:\n      pop\n      tag_41\n      0x04\n      dup1\n      calldatasize\n      sub\n      dup2\n      add\n      swap1\n      tag_42\n      swap2\n      swap1\n      tag_43\n      jump\t// in\n    tag_42:\n      tag_44\n      jump\t// in\n    tag_41:\n      stop\n        /* \"Projects/horizon/contracts/SwapContract.sol\":3025:3737  function sellTokens(IERC20 token, uint _amount) public payable {... */\n    tag_8:\n      tag_45\n      0x04\n      dup1\n      calldatasize\n      sub\n      dup2\n      add\n      swap1\n      tag_46\n      swap2\n      swap1\n      tag_47\n      jump\t// in\n    tag_46:\n      tag_48\n      jump\t// in\n    tag_45:\n      stop\n        /* \"Projects/horizon/contracts/SwapContract.sol\":198:251  mapping (address => uint) public tokenConversionRates */\n    tag_9:\n      callvalue\n      dup1\n      iszero\n      tag_49\n      jumpi\n      0x00\n      dup1\n      revert\n    tag_49:\n      pop\n      tag_50\n      0x04\n      dup1\n      calldatasize\n      sub\n      dup2\n      add\n      swap1\n      tag_51\n      swap2\n      swap1\n      tag_52\n      jump\t// in\n    tag_51:\n      tag_53\n      jump\t// in\n    tag_50:\n      mload(0x40)\n      tag_54\n      swap2\n      swap1\n      tag_39\n      jump\t// in\n    tag_54:\n      mload(0x40)\n      dup1\n      swap2\n      sub\n      swap1\n      return\n        /* \"Projects/horizon/contracts/SwapContract.sol\":257:312  mapping (address => uint) public tokenAvailableBalances */\n    tag_10:\n      callvalue\n      dup1\n      iszero\n      tag_55\n      jumpi\n      0x00\n      dup1\n      revert\n    tag_55:\n      pop\n      tag_56\n      0x04\n      dup1\n      calldatasize\n      sub\n      dup2\n      add\n      swap1\n      tag_57\n      swap2\n      swap1\n      tag_52\n      jump\t// in\n    tag_57:\n      tag_58\n      jump\t// in\n    tag_56:\n      mload(0x40)\n      tag_59\n      swap2\n      swap1\n      tag_39\n      jump\t// in\n    tag_59:\n      mload(0x40)\n      dup1\n      swap2\n      sub\n      swap1\n      return\n        /* \"Projects/horizon/contracts/SwapContract.sol\":3743:5270  function swapTokens(IERC20 tokenToBuy, IERC20 tokenToSell, uint _amountToSell) public payable {... */\n    tag_11:\n      tag_60\n      0x04\n      dup1\n      calldatasize\n      sub\n      dup2\n      add\n      swap1\n      tag_61\n      swap2\n      swap1\n      tag_62\n      jump\t// in\n    tag_61:\n      tag_63\n      jump\t// in\n    tag_60:\n      stop\n        /* \"Projects/horizon/contracts/SwapContract.sol\":2287:3019  function buyTokens(IERC20 token) public payable {... */\n    tag_12:\n      tag_64\n      0x04\n      dup1\n      calldatasize\n      sub\n      dup2\n      add\n      swap1\n      tag_65\n      swap2\n      swap1\n      tag_66\n      jump\t// in\n    tag_65:\n      tag_67\n      jump\t// in\n    tag_64:\n      stop\n        /* \"Projects/horizon/contracts/SwapContract.sol\":1578:1907  function withdraw(uint amount, address payable destAddr) public {... */\n    tag_24:\n        /* \"Projects/horizon/contracts/SwapContract.sol\":1674:1679  owner */\n      0x00\n      dup1\n      sload\n      swap1\n      0x0100\n      exp\n      swap1\n      div\n      0xffffffffffffffffffffffffffffffffffffffff\n      and\n        /* \"Projects/horizon/contracts/SwapContract.sol\":1660:1679  msg.sender == owner */\n      0xffffffffffffffffffffffffffffffffffffffff\n      and\n        /* \"Projects/horizon/contracts/SwapContract.sol\":1660:1670  msg.sender */\n      caller\n        /* \"Projects/horizon/contracts/SwapContract.sol\":1660:1679  msg.sender == owner */\n      0xffffffffffffffffffffffffffffffffffffffff\n      and\n      eq\n        /* \"Projects/horizon/contracts/SwapContract.sol\":1652:1713  require(msg.sender == owner, \"Only owner can withdraw funds\") */\n      tag_69\n      jumpi\n      mload(0x40)\n      0x08c379a000000000000000000000000000000000000000000000000000000000\n      dup2\n      mstore\n      0x04\n      add\n      tag_70\n      swap1\n      tag_71\n      jump\t// in\n    tag_70:\n      mload(0x40)\n      dup1\n      swap2\n      sub\n      swap1\n      revert\n    tag_69:\n        /* \"Projects/horizon/contracts/SwapContract.sol\":1742:1749  balance */\n      sload(0x01)\n        /* \"Projects/horizon/contracts/SwapContract.sol\":1732:1738  amount */\n      dup3\n        /* \"Projects/horizon/contracts/SwapContract.sol\":1732:1749  amount <= balance */\n      gt\n      iszero\n        /* \"Projects/horizon/contracts/SwapContract.sol\":1724:1772  require(amount <= balance, \"Insufficient funds\") */\n      tag_72\n      jumpi\n      mload(0x40)\n      0x08c379a000000000000000000000000000000000000000000000000000000000\n      dup2\n      mstore\n      0x04\n      add\n      tag_73\n      swap1\n      tag_74\n      jump\t// in\n    tag_73:\n      mload(0x40)\n      dup1\n      swap2\n      sub\n      swap1\n      revert\n    tag_72:\n        /* \"Projects/horizon/contracts/SwapContract.sol\":1791:1799  destAddr */\n      dup1\n        /* \"Projects/horizon/contracts/SwapContract.sol\":1791:1808  destAddr.transfer */\n      0xffffffffffffffffffffffffffffffffffffffff\n      and\n        /* \"Projects/horizon/contracts/SwapContract.sol\":1791:1816  destAddr.transfer(amount) */\n      0x08fc\n        /* \"Projects/horizon/contracts/SwapContract.sol\":1809:1815  amount */\n      dup4\n        /* \"Projects/horizon/contracts/SwapContract.sol\":1791:1816  destAddr.transfer(amount) */\n      swap1\n      dup2\n      iszero\n      mul\n      swap1\n      mload(0x40)\n      0x00\n      mload(0x40)\n      dup1\n      dup4\n      sub\n      dup2\n      dup6\n      dup9\n      dup9\n      call\n      swap4\n      pop\n      pop\n      pop\n      pop\n      iszero\n      dup1\n      iszero\n      tag_76\n      jumpi\n      returndatasize\n      0x00\n      dup1\n      returndatacopy\n      revert(0x00, returndatasize)\n    tag_76:\n      pop\n        /* \"Projects/horizon/contracts/SwapContract.sol\":1837:1843  amount */\n      dup2\n        /* \"Projects/horizon/contracts/SwapContract.sol\":1826:1833  balance */\n      0x01\n      0x00\n        /* \"Projects/horizon/contracts/SwapContract.sol\":1826:1843  balance -= amount */\n      dup3\n      dup3\n      sload\n      tag_77\n      swap2\n      swap1\n      tag_78\n      jump\t// in\n    tag_77:\n      swap3\n      pop\n      pop\n      dup2\n      swap1\n      sstore\n      pop\n        /* \"Projects/horizon/contracts/SwapContract.sol\":1858:1900  TransferSent(msg.sender, destAddr, amount) */\n      0xfda3a3e0e1479b43cb1c701f7576187f4c4ad80768d627387e00184302f7d88e\n        /* \"Projects/horizon/contracts/SwapContract.sol\":1871:1881  msg.sender */\n      caller\n        /* \"Projects/horizon/contracts/SwapContract.sol\":1883:1891  destAddr */\n      dup3\n        /* \"Projects/horizon/contracts/SwapContract.sol\":1893:1899  amount */\n      dup5\n        /* \"Projects/horizon/contracts/SwapContract.sol\":1858:1900  TransferSent(msg.sender, destAddr, amount) */\n      mload(0x40)\n      tag_79\n      swap4\n      swap3\n      swap2\n      swap1\n      tag_80\n      jump\t// in\n    tag_79:\n      mload(0x40)\n      dup1\n      swap2\n      sub\n      swap1\n      log1\n        /* \"Projects/horizon/contracts/SwapContract.sol\":1578:1907  function withdraw(uint amount, address payable destAddr) public {... */\n      pop\n      pop\n      jump\t// out\n        /* \"Projects/horizon/contracts/SwapContract.sol\":143:163  address public owner */\n    tag_27:\n      0x00\n      dup1\n      sload\n      swap1\n      0x0100\n      exp\n      swap1\n      div\n      0xffffffffffffffffffffffffffffffffffffffff\n      and\n      dup2\n      jump\t// out\n        /* \"Projects/horizon/contracts/SwapContract.sol\":1917:2277  function transferERC20(IERC20 token, address to, uint256 amount) public {... */\n    tag_34:\n        /* \"Projects/horizon/contracts/SwapContract.sol\":2021:2026  owner */\n      0x00\n      dup1\n      sload\n      swap1\n      0x0100\n      exp\n      swap1\n      div\n      0xffffffffffffffffffffffffffffffffffffffff\n      and\n        /* \"Projects/horizon/contracts/SwapContract.sol\":2007:2026  msg.sender == owner */\n      0xffffffffffffffffffffffffffffffffffffffff\n      and\n        /* \"Projects/horizon/contracts/SwapContract.sol\":2007:2017  msg.sender */\n      caller\n        /* \"Projects/horizon/contracts/SwapContract.sol\":2007:2026  msg.sender == owner */\n      0xffffffffffffffffffffffffffffffffffffffff\n      and\n      eq\n        /* \"Projects/horizon/contracts/SwapContract.sol\":1999:2060  require(msg.sender == owner, \"Only owner can withdraw funds\") */\n      tag_82\n      jumpi\n      mload(0x40)\n      0x08c379a000000000000000000000000000000000000000000000000000000000\n      dup2\n      mstore\n      0x04\n      add\n      tag_83\n      swap1\n      tag_71\n      jump\t// in\n    tag_83:\n      mload(0x40)\n      dup1\n      swap2\n      sub\n      swap1\n      revert\n    tag_82:\n        /* \"Projects/horizon/contracts/SwapContract.sol\":2071:2091  uint256 erc20balance */\n      0x00\n        /* \"Projects/horizon/contracts/SwapContract.sol\":2094:2099  token */\n      dup4\n        /* \"Projects/horizon/contracts/SwapContract.sol\":2094:2109  token.balanceOf */\n      0xffffffffffffffffffffffffffffffffffffffff\n      and\n      0x70a08231\n        /* \"Projects/horizon/contracts/SwapContract.sol\":2118:2122  this */\n      address\n        /* \"Projects/horizon/contracts/SwapContract.sol\":2094:2124  token.balanceOf(address(this)) */\n      mload(0x40)\n      dup3\n      0xffffffff\n      and\n      0xe0\n      shl\n      dup2\n      mstore\n      0x04\n      add\n      tag_84\n      swap2\n      swap1\n      tag_29\n      jump\t// in\n    tag_84:\n      0x20\n      mload(0x40)\n      dup1\n      dup4\n      sub\n      dup2\n      dup7\n      dup1\n      extcodesize\n      iszero\n      dup1\n      iszero\n      tag_85\n      jumpi\n      0x00\n      dup1\n      revert\n    tag_85:\n      pop\n      gas\n      staticcall\n      iszero\n      dup1\n      iszero\n      tag_87\n      jumpi\n      returndatasize\n      0x00\n      dup1\n      returndatacopy\n      revert(0x00, returndatasize)\n    tag_87:\n      pop\n      pop\n      pop\n      pop\n      mload(0x40)\n      returndatasize\n      not(0x1f)\n      0x1f\n      dup3\n      add\n      and\n      dup3\n      add\n      dup1\n      0x40\n      mstore\n      pop\n      dup2\n      add\n      swap1\n      tag_88\n      swap2\n      swap1\n      tag_89\n      jump\t// in\n    tag_88:\n        /* \"Projects/horizon/contracts/SwapContract.sol\":2071:2124  uint256 erc20balance = token.balanceOf(address(this)) */\n      swap1\n      pop\n        /* \"Projects/horizon/contracts/SwapContract.sol\":2152:2164  erc20balance */\n      dup1\n        /* \"Projects/horizon/contracts/SwapContract.sol\":2142:2148  amount */\n      dup3\n        /* \"Projects/horizon/contracts/SwapContract.sol\":2142:2164  amount <= erc20balance */\n      gt\n      iszero\n        /* \"Projects/horizon/contracts/SwapContract.sol\":2134:2183  require(amount <= erc20balance, \"balance is low\") */\n      tag_90\n      jumpi\n      mload(0x40)\n      0x08c379a000000000000000000000000000000000000000000000000000000000\n      dup2\n      mstore\n      0x04\n      add\n      tag_91\n      swap1\n      tag_92\n      jump\t// in\n    tag_91:\n      mload(0x40)\n      dup1\n      swap2\n      sub\n      swap1\n      revert\n    tag_90:\n        /* \"Projects/horizon/contracts/SwapContract.sol\":2193:2198  token */\n      dup4\n        /* \"Projects/horizon/contracts/SwapContract.sol\":2193:2207  token.transfer */\n      0xffffffffffffffffffffffffffffffffffffffff\n      and\n      0xa9059cbb\n        /* \"Projects/horizon/contracts/SwapContract.sol\":2208:2210  to */\n      dup5\n        /* \"Projects/horizon/contracts/SwapContract.sol\":2212:2218  amount */\n      dup5\n        /* \"Projects/horizon/contracts/SwapContract.sol\":2193:2219  token.transfer(to, amount) */\n      mload(0x40)\n      dup4\n      0xffffffff\n      and\n      0xe0\n      shl\n      dup2\n      mstore\n      0x04\n      add\n      tag_93\n      swap3\n      swap2\n      swap1\n      tag_19\n      jump\t// in\n    tag_93:\n      0x20\n      mload(0x40)\n      dup1\n      dup4\n      sub\n      dup2\n      0x00\n      dup8\n      dup1\n      extcodesize\n      iszero\n      dup1\n      iszero\n      tag_94\n      jumpi\n      0x00\n      dup1\n      revert\n    tag_94:\n      pop\n      gas\n      call\n      iszero\n      dup1\n      iszero\n      tag_96\n      jumpi\n      returndatasize\n      0x00\n      dup1\n      returndatacopy\n      revert(0x00, returndatasize)\n    tag_96:\n      pop\n      pop\n      pop\n      pop\n      mload(0x40)\n      returndatasize\n      not(0x1f)\n      0x1f\n      dup3\n      add\n      and\n      dup3\n      add\n      dup1\n      0x40\n      mstore\n      pop\n      dup2\n      add\n      swap1\n      tag_97\n      swap2\n      swap1\n      tag_98\n      jump\t// in\n    tag_97:\n      pop\n        /* \"Projects/horizon/contracts/SwapContract.sol\":2234:2270  TransferSent(msg.sender, to, amount) */\n      0xfda3a3e0e1479b43cb1c701f7576187f4c4ad80768d627387e00184302f7d88e\n        /* \"Projects/horizon/contracts/SwapContract.sol\":2247:2257  msg.sender */\n      caller\n        /* \"Projects/horizon/contracts/SwapContract.sol\":2259:2261  to */\n      dup5\n        /* \"Projects/horizon/contracts/SwapContract.sol\":2263:2269  amount */\n      dup5\n        /* \"Projects/horizon/contracts/SwapContract.sol\":2234:2270  TransferSent(msg.sender, to, amount) */\n      mload(0x40)\n      tag_99\n      swap4\n      swap3\n      swap2\n      swap1\n      tag_100\n      jump\t// in\n    tag_99:\n      mload(0x40)\n      dup1\n      swap2\n      sub\n      swap1\n      log1\n        /* \"Projects/horizon/contracts/SwapContract.sol\":1989:2277  {... */\n      pop\n        /* \"Projects/horizon/contracts/SwapContract.sol\":1917:2277  function transferERC20(IERC20 token, address to, uint256 amount) public {... */\n      pop\n      pop\n      pop\n      jump\t// out\n        /* \"Projects/horizon/contracts/SwapContract.sol\":169:191  uint256 public balance */\n    tag_37:\n      sload(0x01)\n      dup2\n      jump\t// out\n        /* \"Projects/horizon/contracts/SwapContract.sol\":1334:1568  function updateTokenConversionRate(address token, uint tokenValueComparedToEth) public {... */\n    tag_44:\n        /* \"Projects/horizon/contracts/SwapContract.sol\":1453:1458  owner */\n      0x00\n      dup1\n      sload\n      swap1\n      0x0100\n      exp\n      swap1\n      div\n      0xffffffffffffffffffffffffffffffffffffffff\n      and\n        /* \"Projects/horizon/contracts/SwapContract.sol\":1439:1458  msg.sender == owner */\n      0xffffffffffffffffffffffffffffffffffffffff\n      and\n        /* \"Projects/horizon/contracts/SwapContract.sol\":1439:1449  msg.sender */\n      caller\n        /* \"Projects/horizon/contracts/SwapContract.sol\":1439:1458  msg.sender == owner */\n      0xffffffffffffffffffffffffffffffffffffffff\n      and\n      eq\n        /* \"Projects/horizon/contracts/SwapContract.sol\":1431:1497  require(msg.sender == owner, \"Only owner can set conversion rate\") */\n      tag_102\n      jumpi\n      mload(0x40)\n      0x08c379a000000000000000000000000000000000000000000000000000000000\n      dup2\n      mstore\n      0x04\n      add\n      tag_103\n      swap1\n      tag_104\n      jump\t// in\n    tag_103:\n      mload(0x40)\n      dup1\n      swap2\n      sub\n      swap1\n      revert\n    tag_102:\n        /* \"Projects/horizon/contracts/SwapContract.sol\":1538:1561  tokenValueComparedToEth */\n      dup1\n        /* \"Projects/horizon/contracts/SwapContract.sol\":1508:1528  tokenConversionRates */\n      0x02\n        /* \"Projects/horizon/contracts/SwapContract.sol\":1508:1535  tokenConversionRates[token] */\n      0x00\n        /* \"Projects/horizon/contracts/SwapContract.sol\":1529:1534  token */\n      dup5\n        /* \"Projects/horizon/contracts/SwapContract.sol\":1508:1535  tokenConversionRates[token] */\n      0xffffffffffffffffffffffffffffffffffffffff\n      and\n      0xffffffffffffffffffffffffffffffffffffffff\n      and\n      dup2\n      mstore\n      0x20\n      add\n      swap1\n      dup2\n      mstore\n      0x20\n      add\n      0x00\n      keccak256\n        /* \"Projects/horizon/contracts/SwapContract.sol\":1508:1561  tokenConversionRates[token] = tokenValueComparedToEth */\n      dup2\n      swap1\n      sstore\n      pop\n        /* \"Projects/horizon/contracts/SwapContract.sol\":1334:1568  function updateTokenConversionRate(address token, uint tokenValueComparedToEth) public {... */\n      pop\n      pop\n      jump\t// out\n        /* \"Projects/horizon/contracts/SwapContract.sol\":3025:3737  function sellTokens(IERC20 token, uint _amount) public payable {... */\n    tag_48:\n        /* \"Projects/horizon/contracts/SwapContract.sol\":3137:3144  _amount */\n      dup1\n        /* \"Projects/horizon/contracts/SwapContract.sol\":3106:3111  token */\n      dup3\n        /* \"Projects/horizon/contracts/SwapContract.sol\":3106:3121  token.balanceOf */\n      0xffffffffffffffffffffffffffffffffffffffff\n      and\n      0x70a08231\n        /* \"Projects/horizon/contracts/SwapContract.sol\":3122:3132  msg.sender */\n      caller\n        /* \"Projects/horizon/contracts/SwapContract.sol\":3106:3133  token.balanceOf(msg.sender) */\n      mload(0x40)\n      dup3\n      0xffffffff\n      and\n      0xe0\n      shl\n      dup2\n      mstore\n      0x04\n      add\n      tag_106\n      swap2\n      swap1\n      tag_29\n      jump\t// in\n    tag_106:\n      0x20\n      mload(0x40)\n      dup1\n      dup4\n      sub\n      dup2\n      dup7\n      dup1\n      extcodesize\n      iszero\n      dup1\n      iszero\n      tag_107\n      jumpi\n      0x00\n      dup1\n      revert\n    tag_107:\n      pop\n      gas\n      staticcall\n      iszero\n      dup1\n      iszero\n      tag_109\n      jumpi\n      returndatasize\n      0x00\n      dup1\n      returndatacopy\n      revert(0x00, returndatasize)\n    tag_109:\n      pop\n      pop\n      pop\n      pop\n      mload(0x40)\n      returndatasize\n      not(0x1f)\n      0x1f\n      dup3\n      add\n      and\n      dup3\n      add\n      dup1\n      0x40\n      mstore\n      pop\n      dup2\n      add\n      swap1\n      tag_110\n      swap2\n      swap1\n      tag_89\n      jump\t// in\n    tag_110:\n        /* \"Projects/horizon/contracts/SwapContract.sol\":3106:3144  token.balanceOf(msg.sender) >= _amount */\n      lt\n      iszero\n        /* \"Projects/horizon/contracts/SwapContract.sol\":3098:3201  require(token.balanceOf(msg.sender) >= _amount, \"You can not sell more tokens than you currently hold\") */\n      tag_111\n      jumpi\n      mload(0x40)\n      0x08c379a000000000000000000000000000000000000000000000000000000000\n      dup2\n      mstore\n      0x04\n      add\n      tag_112\n      swap1\n      tag_113\n      jump\t// in\n    tag_112:\n      mload(0x40)\n      dup1\n      swap2\n      sub\n      swap1\n      revert\n    tag_111:\n        /* \"Projects/horizon/contracts/SwapContract.sol\":3260:3261  0 */\n      0x00\n        /* \"Projects/horizon/contracts/SwapContract.sol\":3220:3240  tokenConversionRates */\n      0x02\n        /* \"Projects/horizon/contracts/SwapContract.sol\":3220:3256  tokenConversionRates[address(token)] */\n      0x00\n        /* \"Projects/horizon/contracts/SwapContract.sol\":3249:3254  token */\n      dup5\n        /* \"Projects/horizon/contracts/SwapContract.sol\":3220:3256  tokenConversionRates[address(token)] */\n      0xffffffffffffffffffffffffffffffffffffffff\n      and\n      0xffffffffffffffffffffffffffffffffffffffff\n      and\n      dup2\n      mstore\n      0x20\n      add\n      swap1\n      dup2\n      mstore\n      0x20\n      add\n      0x00\n      keccak256\n      sload\n        /* \"Projects/horizon/contracts/SwapContract.sol\":3220:3261  tokenConversionRates[address(token)] != 0 */\n      eq\n      iszero\n        /* \"Projects/horizon/contracts/SwapContract.sol\":3212:3306  require(tokenConversionRates[address(token)] != 0, \"Token conversion rate is not defined yet\") */\n      tag_114\n      jumpi\n      mload(0x40)\n      0x08c379a000000000000000000000000000000000000000000000000000000000\n      dup2\n      mstore\n      0x04\n      add\n      tag_115\n      swap1\n      tag_116\n      jump\t// in\n    tag_115:\n      mload(0x40)\n      dup1\n      swap2\n      sub\n      swap1\n      revert\n    tag_114:\n        /* \"Projects/horizon/contracts/SwapContract.sol\":3316:3340  uint tokenConversionRate */\n      0x00\n        /* \"Projects/horizon/contracts/SwapContract.sol\":3343:3363  tokenConversionRates */\n      0x02\n        /* \"Projects/horizon/contracts/SwapContract.sol\":3343:3379  tokenConversionRates[address(token)] */\n      0x00\n        /* \"Projects/horizon/contracts/SwapContract.sol\":3372:3377  token */\n      dup5\n        /* \"Projects/horizon/contracts/SwapContract.sol\":3343:3379  tokenConversionRates[address(token)] */\n      0xffffffffffffffffffffffffffffffffffffffff\n      and\n      0xffffffffffffffffffffffffffffffffffffffff\n      and\n      dup2\n      mstore\n      0x20\n      add\n      swap1\n      dup2\n      mstore\n      0x20\n      add\n      0x00\n      keccak256\n      sload\n        /* \"Projects/horizon/contracts/SwapContract.sol\":3316:3379  uint tokenConversionRate = tokenConversionRates[address(token)] */\n      swap1\n      pop\n        /* \"Projects/horizon/contracts/SwapContract.sol\":3389:3405  uint etherAmount */\n      0x00\n        /* \"Projects/horizon/contracts/SwapContract.sol\":3418:3437  tokenConversionRate */\n      dup2\n        /* \"Projects/horizon/contracts/SwapContract.sol\":3408:3415  _amount */\n      dup4\n        /* \"Projects/horizon/contracts/SwapContract.sol\":3408:3437  _amount / tokenConversionRate */\n      tag_117\n      swap2\n      swap1\n      tag_118\n      jump\t// in\n    tag_117:\n        /* \"Projects/horizon/contracts/SwapContract.sol\":3389:3437  uint etherAmount = _amount / tokenConversionRate */\n      swap1\n      pop\n        /* \"Projects/horizon/contracts/SwapContract.sol\":3481:3492  etherAmount */\n      dup1\n        /* \"Projects/horizon/contracts/SwapContract.sol\":3456:3477  address(this).balance */\n      selfbalance\n        /* \"Projects/horizon/contracts/SwapContract.sol\":3456:3492  address(this).balance >= etherAmount */\n      lt\n      iszero\n        /* \"Projects/horizon/contracts/SwapContract.sol\":3448:3552  require(address(this).balance >= etherAmount, \"Swap contract does not have enough available ETH amount\") */\n      tag_119\n      jumpi\n      mload(0x40)\n      0x08c379a000000000000000000000000000000000000000000000000000000000\n      dup2\n      mstore\n      0x04\n      add\n      tag_120\n      swap1\n      tag_121\n      jump\t// in\n    tag_120:\n      mload(0x40)\n      dup1\n      swap2\n      sub\n      swap1\n      revert\n    tag_119:\n        /* \"Projects/horizon/contracts/SwapContract.sol\":3563:3568  token */\n      dup4\n        /* \"Projects/horizon/contracts/SwapContract.sol\":3563:3581  token.transferFrom */\n      0xffffffffffffffffffffffffffffffffffffffff\n      and\n      0x23b872dd\n        /* \"Projects/horizon/contracts/SwapContract.sol\":3582:3592  msg.sender */\n      caller\n        /* \"Projects/horizon/contracts/SwapContract.sol\":3602:3606  this */\n      address\n        /* \"Projects/horizon/contracts/SwapContract.sol\":3609:3616  _amount */\n      dup7\n        /* \"Projects/horizon/contracts/SwapContract.sol\":3563:3617  token.transferFrom(msg.sender, address(this), _amount) */\n      mload(0x40)\n      dup5\n      0xffffffff\n      and\n      0xe0\n      shl\n      dup2\n      mstore\n      0x04\n      add\n      tag_122\n      swap4\n      swap3\n      swap2\n      swap1\n      tag_100\n      jump\t// in\n    tag_122:\n      0x20\n      mload(0x40)\n      dup1\n      dup4\n      sub\n      dup2\n      0x00\n      dup8\n      dup1\n      extcodesize\n      iszero\n      dup1\n      iszero\n      tag_123\n      jumpi\n      0x00\n      dup1\n      revert\n    tag_123:\n      pop\n      gas\n      call\n      iszero\n      dup1\n      iszero\n      tag_125\n      jumpi\n      returndatasize\n      0x00\n      dup1\n      returndatacopy\n      revert(0x00, returndatasize)\n    tag_125:\n      pop\n      pop\n      pop\n      pop\n      mload(0x40)\n      returndatasize\n      not(0x1f)\n      0x1f\n      dup3\n      add\n      and\n      dup3\n      add\n      dup1\n      0x40\n      mstore\n      pop\n      dup2\n      add\n      swap1\n      tag_126\n      swap2\n      swap1\n      tag_98\n      jump\t// in\n    tag_126:\n      pop\n        /* \"Projects/horizon/contracts/SwapContract.sol\":3635:3645  msg.sender */\n      caller\n        /* \"Projects/horizon/contracts/SwapContract.sol\":3627:3655  payable(msg.sender).transfer */\n      0xffffffffffffffffffffffffffffffffffffffff\n      and\n        /* \"Projects/horizon/contracts/SwapContract.sol\":3627:3668  payable(msg.sender).transfer(etherAmount) */\n      0x08fc\n        /* \"Projects/horizon/contracts/SwapContract.sol\":3656:3667  etherAmount */\n      dup3\n        /* \"Projects/horizon/contracts/SwapContract.sol\":3627:3668  payable(msg.sender).transfer(etherAmount) */\n      swap1\n      dup2\n      iszero\n      mul\n      swap1\n      mload(0x40)\n      0x00\n      mload(0x40)\n      dup1\n      dup4\n      sub\n      dup2\n      dup6\n      dup9\n      dup9\n      call\n      swap4\n      pop\n      pop\n      pop\n      pop\n      iszero\n      dup1\n      iszero\n      tag_128\n      jumpi\n      returndatasize\n      0x00\n      dup1\n      returndatacopy\n      revert(0x00, returndatasize)\n    tag_128:\n      pop\n        /* \"Projects/horizon/contracts/SwapContract.sol\":3683:3730  TokensSold(msg.sender, address(token), _amount) */\n      0x481809cba951bfbd752234d0504d4719277804f87f6e0da1b5b486c80d808fe4\n        /* \"Projects/horizon/contracts/SwapContract.sol\":3694:3704  msg.sender */\n      caller\n        /* \"Projects/horizon/contracts/SwapContract.sol\":3714:3719  token */\n      dup6\n        /* \"Projects/horizon/contracts/SwapContract.sol\":3722:3729  _amount */\n      dup6\n        /* \"Projects/horizon/contracts/SwapContract.sol\":3683:3730  TokensSold(msg.sender, address(token), _amount) */\n      mload(0x40)\n      tag_129\n      swap4\n      swap3\n      swap2\n      swap1\n      tag_100\n      jump\t// in\n    tag_129:\n      mload(0x40)\n      dup1\n      swap2\n      sub\n      swap1\n      log1\n        /* \"Projects/horizon/contracts/SwapContract.sol\":3088:3737  {... */\n      pop\n      pop\n        /* \"Projects/horizon/contracts/SwapContract.sol\":3025:3737  function sellTokens(IERC20 token, uint _amount) public payable {... */\n      pop\n      pop\n      jump\t// out\n        /* \"Projects/horizon/contracts/SwapContract.sol\":198:251  mapping (address => uint) public tokenConversionRates */\n    tag_53:\n      mstore(0x20, 0x02)\n      dup1\n      0x00\n      mstore\n      keccak256(0x00, 0x40)\n      0x00\n      swap2\n      pop\n      swap1\n      pop\n      sload\n      dup2\n      jump\t// out\n        /* \"Projects/horizon/contracts/SwapContract.sol\":257:312  mapping (address => uint) public tokenAvailableBalances */\n    tag_58:\n      mstore(0x20, 0x03)\n      dup1\n      0x00\n      mstore\n      keccak256(0x00, 0x40)\n      0x00\n      swap2\n      pop\n      swap1\n      pop\n      sload\n      dup2\n      jump\t// out\n        /* \"Projects/horizon/contracts/SwapContract.sol\":3743:5270  function swapTokens(IERC20 tokenToBuy, IERC20 tokenToSell, uint _amountToSell) public payable {... */\n    tag_63:\n        /* \"Projects/horizon/contracts/SwapContract.sol\":4072:4085  _amountToSell */\n      dup1\n        /* \"Projects/horizon/contracts/SwapContract.sol\":4026:4037  tokenToSell */\n      dup3\n        /* \"Projects/horizon/contracts/SwapContract.sol\":4026:4047  tokenToSell.balanceOf */\n      0xffffffffffffffffffffffffffffffffffffffff\n      and\n      0x70a08231\n        /* \"Projects/horizon/contracts/SwapContract.sol\":4056:4066  msg.sender */\n      caller\n        /* \"Projects/horizon/contracts/SwapContract.sol\":4026:4068  tokenToSell.balanceOf(address(msg.sender)) */\n      mload(0x40)\n      dup3\n      0xffffffff\n      and\n      0xe0\n      shl\n      dup2\n      mstore\n      0x04\n      add\n      tag_131\n      swap2\n      swap1\n      tag_29\n      jump\t// in\n    tag_131:\n      0x20\n      mload(0x40)\n      dup1\n      dup4\n      sub\n      dup2\n      dup7\n      dup1\n      extcodesize\n      iszero\n      dup1\n      iszero\n      tag_132\n      jumpi\n      0x00\n      dup1\n      revert\n    tag_132:\n      pop\n      gas\n      staticcall\n      iszero\n      dup1\n      iszero\n      tag_134\n      jumpi\n      returndatasize\n      0x00\n      dup1\n      returndatacopy\n      revert(0x00, returndatasize)\n    tag_134:\n      pop\n      pop\n      pop\n      pop\n      mload(0x40)\n      returndatasize\n      not(0x1f)\n      0x1f\n      dup3\n      add\n      and\n      dup3\n      add\n      dup1\n      0x40\n      mstore\n      pop\n      dup2\n      add\n      swap1\n      tag_135\n      swap2\n      swap1\n      tag_89\n      jump\t// in\n    tag_135:\n        /* \"Projects/horizon/contracts/SwapContract.sol\":4026:4085  tokenToSell.balanceOf(address(msg.sender)) <= _amountToSell */\n      gt\n      iszero\n        /* \"Projects/horizon/contracts/SwapContract.sol\":4018:4129  require(tokenToSell.balanceOf(address(msg.sender)) <= _amountToSell, \"Not enough funds to swap on user wallet\") */\n      tag_136\n      jumpi\n      mload(0x40)\n      0x08c379a000000000000000000000000000000000000000000000000000000000\n      dup2\n      mstore\n      0x04\n      add\n      tag_137\n      swap1\n      tag_138\n      jump\t// in\n    tag_137:\n      mload(0x40)\n      dup1\n      swap2\n      sub\n      swap1\n      revert\n    tag_136:\n        /* \"Projects/horizon/contracts/SwapContract.sol\":4468:4469  0 */\n      0x00\n        /* \"Projects/horizon/contracts/SwapContract.sol\":4423:4443  tokenConversionRates */\n      0x02\n        /* \"Projects/horizon/contracts/SwapContract.sol\":4423:4464  tokenConversionRates[address(tokenToBuy)] */\n      0x00\n        /* \"Projects/horizon/contracts/SwapContract.sol\":4452:4462  tokenToBuy */\n      dup6\n        /* \"Projects/horizon/contracts/SwapContract.sol\":4423:4464  tokenConversionRates[address(tokenToBuy)] */\n      0xffffffffffffffffffffffffffffffffffffffff\n      and\n      0xffffffffffffffffffffffffffffffffffffffff\n      and\n      dup2\n      mstore\n      0x20\n      add\n      swap1\n      dup2\n      mstore\n      0x20\n      add\n      0x00\n      keccak256\n      sload\n        /* \"Projects/horizon/contracts/SwapContract.sol\":4423:4469  tokenConversionRates[address(tokenToBuy)] != 0 */\n      eq\n      iszero\n        /* \"Projects/horizon/contracts/SwapContract.sol\":4415:4528  require(tokenConversionRates[address(tokenToBuy)] != 0, \"Token which you buy conversion rate is not defined yet\") */\n      tag_139\n      jumpi\n      mload(0x40)\n      0x08c379a000000000000000000000000000000000000000000000000000000000\n      dup2\n      mstore\n      0x04\n      add\n      tag_140\n      swap1\n      tag_141\n      jump\t// in\n    tag_140:\n      mload(0x40)\n      dup1\n      swap2\n      sub\n      swap1\n      revert\n    tag_139:\n        /* \"Projects/horizon/contracts/SwapContract.sol\":4592:4593  0 */\n      0x00\n        /* \"Projects/horizon/contracts/SwapContract.sol\":4546:4566  tokenConversionRates */\n      0x02\n        /* \"Projects/horizon/contracts/SwapContract.sol\":4546:4588  tokenConversionRates[address(tokenToSell)] */\n      0x00\n        /* \"Projects/horizon/contracts/SwapContract.sol\":4575:4586  tokenToSell */\n      dup5\n        /* \"Projects/horizon/contracts/SwapContract.sol\":4546:4588  tokenConversionRates[address(tokenToSell)] */\n      0xffffffffffffffffffffffffffffffffffffffff\n      and\n      0xffffffffffffffffffffffffffffffffffffffff\n      and\n      dup2\n      mstore\n      0x20\n      add\n      swap1\n      dup2\n      mstore\n      0x20\n      add\n      0x00\n      keccak256\n      sload\n        /* \"Projects/horizon/contracts/SwapContract.sol\":4546:4593  tokenConversionRates[address(tokenToSell)] != 0 */\n      eq\n      iszero\n        /* \"Projects/horizon/contracts/SwapContract.sol\":4538:4653  require(tokenConversionRates[address(tokenToSell)] != 0, \"Token which you sell conversion rate is not defined yet\") */\n      tag_142\n      jumpi\n      mload(0x40)\n      0x08c379a000000000000000000000000000000000000000000000000000000000\n      dup2\n      mstore\n      0x04\n      add\n      tag_143\n      swap1\n      tag_144\n      jump\t// in\n    tag_143:\n      mload(0x40)\n      dup1\n      swap2\n      sub\n      swap1\n      revert\n    tag_142:\n        /* \"Projects/horizon/contracts/SwapContract.sol\":4663:4684  uint tokenToBuyAmount */\n      0x00\n        /* \"Projects/horizon/contracts/SwapContract.sol\":4748:4768  tokenConversionRates */\n      0x02\n        /* \"Projects/horizon/contracts/SwapContract.sol\":4748:4789  tokenConversionRates[address(tokenToBuy)] */\n      0x00\n        /* \"Projects/horizon/contracts/SwapContract.sol\":4777:4787  tokenToBuy */\n      dup6\n        /* \"Projects/horizon/contracts/SwapContract.sol\":4748:4789  tokenConversionRates[address(tokenToBuy)] */\n      0xffffffffffffffffffffffffffffffffffffffff\n      and\n      0xffffffffffffffffffffffffffffffffffffffff\n      and\n      dup2\n      mstore\n      0x20\n      add\n      swap1\n      dup2\n      mstore\n      0x20\n      add\n      0x00\n      keccak256\n      sload\n        /* \"Projects/horizon/contracts/SwapContract.sol\":4703:4723  tokenConversionRates */\n      0x02\n        /* \"Projects/horizon/contracts/SwapContract.sol\":4703:4745  tokenConversionRates[address(tokenToSell)] */\n      0x00\n        /* \"Projects/horizon/contracts/SwapContract.sol\":4732:4743  tokenToSell */\n      dup6\n        /* \"Projects/horizon/contracts/SwapContract.sol\":4703:4745  tokenConversionRates[address(tokenToSell)] */\n      0xffffffffffffffffffffffffffffffffffffffff\n      and\n      0xffffffffffffffffffffffffffffffffffffffff\n      and\n      dup2\n      mstore\n      0x20\n      add\n      swap1\n      dup2\n      mstore\n      0x20\n      add\n      0x00\n      keccak256\n      sload\n        /* \"Projects/horizon/contracts/SwapContract.sol\":4687:4700  _amountToSell */\n      dup4\n        /* \"Projects/horizon/contracts/SwapContract.sol\":4687:4745  _amountToSell / tokenConversionRates[address(tokenToSell)] */\n      tag_145\n      swap2\n      swap1\n      tag_118\n      jump\t// in\n    tag_145:\n        /* \"Projects/horizon/contracts/SwapContract.sol\":4687:4789  _amountToSell / tokenConversionRates[address(tokenToSell)] * tokenConversionRates[address(tokenToBuy)] */\n      tag_146\n      swap2\n      swap1\n      tag_147\n      jump\t// in\n    tag_146:\n        /* \"Projects/horizon/contracts/SwapContract.sol\":4663:4789  uint tokenToBuyAmount = _amountToSell / tokenConversionRates[address(tokenToSell)] * tokenConversionRates[address(tokenToBuy)] */\n      swap1\n      pop\n        /* \"Projects/horizon/contracts/SwapContract.sol\":4846:4862  tokenToBuyAmount */\n      dup1\n        /* \"Projects/horizon/contracts/SwapContract.sol\":4807:4817  tokenToBuy */\n      dup5\n        /* \"Projects/horizon/contracts/SwapContract.sol\":4807:4827  tokenToBuy.balanceOf */\n      0xffffffffffffffffffffffffffffffffffffffff\n      and\n      0x70a08231\n        /* \"Projects/horizon/contracts/SwapContract.sol\":4836:4840  this */\n      address\n        /* \"Projects/horizon/contracts/SwapContract.sol\":4807:4842  tokenToBuy.balanceOf(address(this)) */\n      mload(0x40)\n      dup3\n      0xffffffff\n      and\n      0xe0\n      shl\n      dup2\n      mstore\n      0x04\n      add\n      tag_148\n      swap2\n      swap1\n      tag_29\n      jump\t// in\n    tag_148:\n      0x20\n      mload(0x40)\n      dup1\n      dup4\n      sub\n      dup2\n      dup7\n      dup1\n      extcodesize\n      iszero\n      dup1\n      iszero\n      tag_149\n      jumpi\n      0x00\n      dup1\n      revert\n    tag_149:\n      pop\n      gas\n      staticcall\n      iszero\n      dup1\n      iszero\n      tag_151\n      jumpi\n      returndatasize\n      0x00\n      dup1\n      returndatacopy\n      revert(0x00, returndatasize)\n    tag_151:\n      pop\n      pop\n      pop\n      pop\n      mload(0x40)\n      returndatasize\n      not(0x1f)\n      0x1f\n      dup3\n      add\n      and\n      dup3\n      add\n      dup1\n      0x40\n      mstore\n      pop\n      dup2\n      add\n      swap1\n      tag_152\n      swap2\n      swap1\n      tag_89\n      jump\t// in\n    tag_152:\n        /* \"Projects/horizon/contracts/SwapContract.sol\":4807:4862  tokenToBuy.balanceOf(address(this)) <= tokenToBuyAmount */\n      gt\n      iszero\n        /* \"Projects/horizon/contracts/SwapContract.sol\":4799:4894  require(tokenToBuy.balanceOf(address(this)) <= tokenToBuyAmount, \"Not enough funds on EthSwap\") */\n      tag_153\n      jumpi\n      mload(0x40)\n      0x08c379a000000000000000000000000000000000000000000000000000000000\n      dup2\n      mstore\n      0x04\n      add\n      tag_154\n      swap1\n      tag_155\n      jump\t// in\n    tag_154:\n      mload(0x40)\n      dup1\n      swap2\n      sub\n      swap1\n      revert\n    tag_153:\n        /* \"Projects/horizon/contracts/SwapContract.sol\":4994:5004  tokenToBuy */\n      dup4\n        /* \"Projects/horizon/contracts/SwapContract.sol\":4994:5017  tokenToBuy.transferFrom */\n      0xffffffffffffffffffffffffffffffffffffffff\n      and\n      0x23b872dd\n        /* \"Projects/horizon/contracts/SwapContract.sol\":5026:5030  this */\n      address\n        /* \"Projects/horizon/contracts/SwapContract.sol\":5033:5043  msg.sender */\n      caller\n        /* \"Projects/horizon/contracts/SwapContract.sol\":5045:5061  tokenToBuyAmount */\n      dup5\n        /* \"Projects/horizon/contracts/SwapContract.sol\":4994:5062  tokenToBuy.transferFrom(address(this), msg.sender, tokenToBuyAmount) */\n      mload(0x40)\n      dup5\n      0xffffffff\n      and\n      0xe0\n      shl\n      dup2\n      mstore\n      0x04\n      add\n      tag_156\n      swap4\n      swap3\n      swap2\n      swap1\n      tag_100\n      jump\t// in\n    tag_156:\n      0x20\n      mload(0x40)\n      dup1\n      dup4\n      sub\n      dup2\n      0x00\n      dup8\n      dup1\n      extcodesize\n      iszero\n      dup1\n      iszero\n      tag_157\n      jumpi\n      0x00\n      dup1\n      revert\n    tag_157:\n      pop\n      gas\n      call\n      iszero\n      dup1\n      iszero\n      tag_159\n      jumpi\n      returndatasize\n      0x00\n      dup1\n      returndatacopy\n      revert(0x00, returndatasize)\n    tag_159:\n      pop\n      pop\n      pop\n      pop\n      mload(0x40)\n      returndatasize\n      not(0x1f)\n      0x1f\n      dup3\n      add\n      and\n      dup3\n      add\n      dup1\n      0x40\n      mstore\n      pop\n      dup2\n      add\n      swap1\n      tag_160\n      swap2\n      swap1\n      tag_98\n      jump\t// in\n    tag_160:\n      pop\n        /* \"Projects/horizon/contracts/SwapContract.sol\":5072:5083  tokenToSell */\n      dup3\n        /* \"Projects/horizon/contracts/SwapContract.sol\":5072:5096  tokenToSell.transferFrom */\n      0xffffffffffffffffffffffffffffffffffffffff\n      and\n      0x23b872dd\n        /* \"Projects/horizon/contracts/SwapContract.sol\":5097:5107  msg.sender */\n      caller\n        /* \"Projects/horizon/contracts/SwapContract.sol\":5117:5121  this */\n      address\n        /* \"Projects/horizon/contracts/SwapContract.sol\":5124:5137  _amountToSell */\n      dup6\n        /* \"Projects/horizon/contracts/SwapContract.sol\":5072:5138  tokenToSell.transferFrom(msg.sender, address(this), _amountToSell) */\n      mload(0x40)\n      dup5\n      0xffffffff\n      and\n      0xe0\n      shl\n      dup2\n      mstore\n      0x04\n      add\n      tag_161\n      swap4\n      swap3\n      swap2\n      swap1\n      tag_100\n      jump\t// in\n    tag_161:\n      0x20\n      mload(0x40)\n      dup1\n      dup4\n      sub\n      dup2\n      0x00\n      dup8\n      dup1\n      extcodesize\n      iszero\n      dup1\n      iszero\n      tag_162\n      jumpi\n      0x00\n      dup1\n      revert\n    tag_162:\n      pop\n      gas\n      call\n      iszero\n      dup1\n      iszero\n      tag_164\n      jumpi\n      returndatasize\n      0x00\n      dup1\n      returndatacopy\n      revert(0x00, returndatasize)\n    tag_164:\n      pop\n      pop\n      pop\n      pop\n      mload(0x40)\n      returndatasize\n      not(0x1f)\n      0x1f\n      dup3\n      add\n      and\n      dup3\n      add\n      dup1\n      0x40\n      mstore\n      pop\n      dup2\n      add\n      swap1\n      tag_165\n      swap2\n      swap1\n      tag_98\n      jump\t// in\n    tag_165:\n      pop\n        /* \"Projects/horizon/contracts/SwapContract.sol\":5162:5263  TokensSwapped(msg.sender, address(tokenToBuy), address(tokenToSell), tokenToBuyAmount, _amountToSell) */\n      0xad56699d0f375866eb895ed27203058a36a713382aaded78eb6b67da266d4332\n        /* \"Projects/horizon/contracts/SwapContract.sol\":5176:5186  msg.sender */\n      caller\n        /* \"Projects/horizon/contracts/SwapContract.sol\":5196:5206  tokenToBuy */\n      dup6\n        /* \"Projects/horizon/contracts/SwapContract.sol\":5217:5228  tokenToSell */\n      dup6\n        /* \"Projects/horizon/contracts/SwapContract.sol\":5231:5247  tokenToBuyAmount */\n      dup5\n        /* \"Projects/horizon/contracts/SwapContract.sol\":5249:5262  _amountToSell */\n      dup7\n        /* \"Projects/horizon/contracts/SwapContract.sol\":5162:5263  TokensSwapped(msg.sender, address(tokenToBuy), address(tokenToSell), tokenToBuyAmount, _amountToSell) */\n      mload(0x40)\n      tag_166\n      swap6\n      swap5\n      swap4\n      swap3\n      swap2\n      swap1\n      tag_167\n      jump\t// in\n    tag_166:\n      mload(0x40)\n      dup1\n      swap2\n      sub\n      swap1\n      log1\n        /* \"Projects/horizon/contracts/SwapContract.sol\":3837:5270  {... */\n      pop\n        /* \"Projects/horizon/contracts/SwapContract.sol\":3743:5270  function swapTokens(IERC20 tokenToBuy, IERC20 tokenToSell, uint _amountToSell) public payable {... */\n      pop\n      pop\n      pop\n      jump\t// out\n        /* \"Projects/horizon/contracts/SwapContract.sol\":2287:3019  function buyTokens(IERC20 token) public payable {... */\n    tag_67:\n        /* \"Projects/horizon/contracts/SwapContract.sol\":2505:2506  0 */\n      0x00\n        /* \"Projects/horizon/contracts/SwapContract.sol\":2465:2485  tokenConversionRates */\n      0x02\n        /* \"Projects/horizon/contracts/SwapContract.sol\":2465:2501  tokenConversionRates[address(token)] */\n      0x00\n        /* \"Projects/horizon/contracts/SwapContract.sol\":2494:2499  token */\n      dup4\n        /* \"Projects/horizon/contracts/SwapContract.sol\":2465:2501  tokenConversionRates[address(token)] */\n      0xffffffffffffffffffffffffffffffffffffffff\n      and\n      0xffffffffffffffffffffffffffffffffffffffff\n      and\n      dup2\n      mstore\n      0x20\n      add\n      swap1\n      dup2\n      mstore\n      0x20\n      add\n      0x00\n      keccak256\n      sload\n        /* \"Projects/horizon/contracts/SwapContract.sol\":2465:2506  tokenConversionRates[address(token)] != 0 */\n      eq\n      iszero\n        /* \"Projects/horizon/contracts/SwapContract.sol\":2457:2551  require(tokenConversionRates[address(token)] != 0, \"Token conversion rate is not defined yet\") */\n      tag_169\n      jumpi\n      mload(0x40)\n      0x08c379a000000000000000000000000000000000000000000000000000000000\n      dup2\n      mstore\n      0x04\n      add\n      tag_170\n      swap1\n      tag_116\n      jump\t// in\n    tag_170:\n      mload(0x40)\n      dup1\n      swap2\n      sub\n      swap1\n      revert\n    tag_169:\n        /* \"Projects/horizon/contracts/SwapContract.sol\":2561:2585  uint tokenConversionRate */\n      0x00\n        /* \"Projects/horizon/contracts/SwapContract.sol\":2588:2608  tokenConversionRates */\n      0x02\n        /* \"Projects/horizon/contracts/SwapContract.sol\":2588:2624  tokenConversionRates[address(token)] */\n      0x00\n        /* \"Projects/horizon/contracts/SwapContract.sol\":2617:2622  token */\n      dup4\n        /* \"Projects/horizon/contracts/SwapContract.sol\":2588:2624  tokenConversionRates[address(token)] */\n      0xffffffffffffffffffffffffffffffffffffffff\n      and\n      0xffffffffffffffffffffffffffffffffffffffff\n      and\n      dup2\n      mstore\n      0x20\n      add\n      swap1\n      dup2\n      mstore\n      0x20\n      add\n      0x00\n      keccak256\n      sload\n        /* \"Projects/horizon/contracts/SwapContract.sol\":2561:2624  uint tokenConversionRate = tokenConversionRates[address(token)] */\n      swap1\n      pop\n        /* \"Projects/horizon/contracts/SwapContract.sol\":2634:2650  uint tokenAmount */\n      0x00\n        /* \"Projects/horizon/contracts/SwapContract.sol\":2665:2684  tokenConversionRate */\n      dup2\n        /* \"Projects/horizon/contracts/SwapContract.sol\":2653:2662  msg.value */\n      callvalue\n        /* \"Projects/horizon/contracts/SwapContract.sol\":2653:2684  msg.value * tokenConversionRate */\n      tag_171\n      swap2\n      swap1\n      tag_147\n      jump\t// in\n    tag_171:\n        /* \"Projects/horizon/contracts/SwapContract.sol\":2634:2684  uint tokenAmount = msg.value * tokenConversionRate */\n      swap1\n      pop\n        /* \"Projects/horizon/contracts/SwapContract.sol\":2786:2797  tokenAmount */\n      dup1\n        /* \"Projects/horizon/contracts/SwapContract.sol\":2752:2757  token */\n      dup4\n        /* \"Projects/horizon/contracts/SwapContract.sol\":2752:2767  token.balanceOf */\n      0xffffffffffffffffffffffffffffffffffffffff\n      and\n      0x70a08231\n        /* \"Projects/horizon/contracts/SwapContract.sol\":2776:2780  this */\n      address\n        /* \"Projects/horizon/contracts/SwapContract.sol\":2752:2782  token.balanceOf(address(this)) */\n      mload(0x40)\n      dup3\n      0xffffffff\n      and\n      0xe0\n      shl\n      dup2\n      mstore\n      0x04\n      add\n      tag_172\n      swap2\n      swap1\n      tag_29\n      jump\t// in\n    tag_172:\n      0x20\n      mload(0x40)\n      dup1\n      dup4\n      sub\n      dup2\n      dup7\n      dup1\n      extcodesize\n      iszero\n      dup1\n      iszero\n      tag_173\n      jumpi\n      0x00\n      dup1\n      revert\n    tag_173:\n      pop\n      gas\n      staticcall\n      iszero\n      dup1\n      iszero\n      tag_175\n      jumpi\n      returndatasize\n      0x00\n      dup1\n      returndatacopy\n      revert(0x00, returndatasize)\n    tag_175:\n      pop\n      pop\n      pop\n      pop\n      mload(0x40)\n      returndatasize\n      not(0x1f)\n      0x1f\n      dup3\n      add\n      and\n      dup3\n      add\n      dup1\n      0x40\n      mstore\n      pop\n      dup2\n      add\n      swap1\n      tag_176\n      swap2\n      swap1\n      tag_89\n      jump\t// in\n    tag_176:\n        /* \"Projects/horizon/contracts/SwapContract.sol\":2752:2797  token.balanceOf(address(this)) >= tokenAmount */\n      lt\n      iszero\n        /* \"Projects/horizon/contracts/SwapContract.sol\":2744:2853  require(token.balanceOf(address(this)) >= tokenAmount, \"Not enough tokens on swap contract available to buy\") */\n      tag_177\n      jumpi\n      mload(0x40)\n      0x08c379a000000000000000000000000000000000000000000000000000000000\n      dup2\n      mstore\n      0x04\n      add\n      tag_178\n      swap1\n      tag_179\n      jump\t// in\n    tag_178:\n      mload(0x40)\n      dup1\n      swap2\n      sub\n      swap1\n      revert\n    tag_177:\n        /* \"Projects/horizon/contracts/SwapContract.sol\":2902:2907  token */\n      dup3\n        /* \"Projects/horizon/contracts/SwapContract.sol\":2902:2916  token.transfer */\n      0xffffffffffffffffffffffffffffffffffffffff\n      and\n      0xa9059cbb\n        /* \"Projects/horizon/contracts/SwapContract.sol\":2917:2927  msg.sender */\n      caller\n        /* \"Projects/horizon/contracts/SwapContract.sol\":2929:2940  tokenAmount */\n      dup4\n        /* \"Projects/horizon/contracts/SwapContract.sol\":2902:2941  token.transfer(msg.sender, tokenAmount) */\n      mload(0x40)\n      dup4\n      0xffffffff\n      and\n      0xe0\n      shl\n      dup2\n      mstore\n      0x04\n      add\n      tag_180\n      swap3\n      swap2\n      swap1\n      tag_19\n      jump\t// in\n    tag_180:\n      0x20\n      mload(0x40)\n      dup1\n      dup4\n      sub\n      dup2\n      0x00\n      dup8\n      dup1\n      extcodesize\n      iszero\n      dup1\n      iszero\n      tag_181\n      jumpi\n      0x00\n      dup1\n      revert\n    tag_181:\n      pop\n      gas\n      call\n      iszero\n      dup1\n      iszero\n      tag_183\n      jumpi\n      returndatasize\n      0x00\n      dup1\n      returndatacopy\n      revert(0x00, returndatasize)\n    tag_183:\n      pop\n      pop\n      pop\n      pop\n      mload(0x40)\n      returndatasize\n      not(0x1f)\n      0x1f\n      dup3\n      add\n      and\n      dup3\n      add\n      dup1\n      0x40\n      mstore\n      pop\n      dup2\n      add\n      swap1\n      tag_184\n      swap2\n      swap1\n      tag_98\n      jump\t// in\n    tag_184:\n      pop\n        /* \"Projects/horizon/contracts/SwapContract.sol\":2956:3012  TokensPurchased(msg.sender, address(token), tokenAmount) */\n      0xf9b4eb3e43eebbf559e9b96ceff1c786a7edab2938c7f5f80678197c2e0edba5\n        /* \"Projects/horizon/contracts/SwapContract.sol\":2972:2982  msg.sender */\n      caller\n        /* \"Projects/horizon/contracts/SwapContract.sol\":2992:2997  token */\n      dup5\n        /* \"Projects/horizon/contracts/SwapContract.sol\":3000:3011  tokenAmount */\n      dup4\n        /* \"Projects/horizon/contracts/SwapContract.sol\":2956:3012  TokensPurchased(msg.sender, address(token), tokenAmount) */\n      mload(0x40)\n      tag_185\n      swap4\n      swap3\n      swap2\n      swap1\n      tag_100\n      jump\t// in\n    tag_185:\n      mload(0x40)\n      dup1\n      swap2\n      sub\n      swap1\n      log1\n        /* \"Projects/horizon/contracts/SwapContract.sol\":2335:3019  {... */\n      pop\n      pop\n        /* \"Projects/horizon/contracts/SwapContract.sol\":2287:3019  function buyTokens(IERC20 token) public payable {... */\n      pop\n      jump\t// out\n        /* \"#utility.yul\":7:146   */\n    tag_187:\n        /* \"#utility.yul\":53:58   */\n      0x00\n        /* \"#utility.yul\":91:97   */\n      dup2\n        /* \"#utility.yul\":78:98   */\n      calldataload\n        /* \"#utility.yul\":69:98   */\n      swap1\n      pop\n        /* \"#utility.yul\":107:140   */\n      tag_189\n        /* \"#utility.yul\":134:139   */\n      dup2\n        /* \"#utility.yul\":107:140   */\n      tag_190\n      jump\t// in\n    tag_189:\n        /* \"#utility.yul\":7:146   */\n      swap3\n      swap2\n      pop\n      pop\n      jump\t// out\n        /* \"#utility.yul\":152:307   */\n    tag_191:\n        /* \"#utility.yul\":206:211   */\n      0x00\n        /* \"#utility.yul\":244:250   */\n      dup2\n        /* \"#utility.yul\":231:251   */\n      calldataload\n        /* \"#utility.yul\":222:251   */\n      swap1\n      pop\n        /* \"#utility.yul\":260:301   */\n      tag_193\n        /* \"#utility.yul\":295:300   */\n      dup2\n        /* \"#utility.yul\":260:301   */\n      tag_194\n      jump\t// in\n    tag_193:\n        /* \"#utility.yul\":152:307   */\n      swap3\n      swap2\n      pop\n      pop\n      jump\t// out\n        /* \"#utility.yul\":313:450   */\n    tag_195:\n        /* \"#utility.yul\":367:372   */\n      0x00\n        /* \"#utility.yul\":398:404   */\n      dup2\n        /* \"#utility.yul\":392:405   */\n      mload\n        /* \"#utility.yul\":383:405   */\n      swap1\n      pop\n        /* \"#utility.yul\":414:444   */\n      tag_197\n        /* \"#utility.yul\":438:443   */\n      dup2\n        /* \"#utility.yul\":414:444   */\n      tag_198\n      jump\t// in\n    tag_197:\n        /* \"#utility.yul\":313:450   */\n      swap3\n      swap2\n      pop\n      pop\n      jump\t// out\n        /* \"#utility.yul\":456:621   */\n    tag_199:\n        /* \"#utility.yul\":515:520   */\n      0x00\n        /* \"#utility.yul\":553:559   */\n      dup2\n        /* \"#utility.yul\":540:560   */\n      calldataload\n        /* \"#utility.yul\":531:560   */\n      swap1\n      pop\n        /* \"#utility.yul\":569:615   */\n      tag_201\n        /* \"#utility.yul\":609:614   */\n      dup2\n        /* \"#utility.yul\":569:615   */\n      tag_202\n      jump\t// in\n    tag_201:\n        /* \"#utility.yul\":456:621   */\n      swap3\n      swap2\n      pop\n      pop\n      jump\t// out\n        /* \"#utility.yul\":627:766   */\n    tag_203:\n        /* \"#utility.yul\":673:678   */\n      0x00\n        /* \"#utility.yul\":711:717   */\n      dup2\n        /* \"#utility.yul\":698:718   */\n      calldataload\n        /* \"#utility.yul\":689:718   */\n      swap1\n      pop\n        /* \"#utility.yul\":727:760   */\n      tag_205\n        /* \"#utility.yul\":754:759   */\n      dup2\n        /* \"#utility.yul\":727:760   */\n      tag_206\n      jump\t// in\n    tag_205:\n        /* \"#utility.yul\":627:766   */\n      swap3\n      swap2\n      pop\n      pop\n      jump\t// out\n        /* \"#utility.yul\":772:915   */\n    tag_207:\n        /* \"#utility.yul\":829:834   */\n      0x00\n        /* \"#utility.yul\":860:866   */\n      dup2\n        /* \"#utility.yul\":854:867   */\n      mload\n        /* \"#utility.yul\":845:867   */\n      swap1\n      pop\n        /* \"#utility.yul\":876:909   */\n      tag_209\n        /* \"#utility.yul\":903:908   */\n      dup2\n        /* \"#utility.yul\":876:909   */\n      tag_206\n      jump\t// in\n    tag_209:\n        /* \"#utility.yul\":772:915   */\n      swap3\n      swap2\n      pop\n      pop\n      jump\t// out\n        /* \"#utility.yul\":921:1250   */\n    tag_52:\n        /* \"#utility.yul\":980:986   */\n      0x00\n        /* \"#utility.yul\":1029:1031   */\n      0x20\n        /* \"#utility.yul\":1017:1026   */\n      dup3\n        /* \"#utility.yul\":1008:1015   */\n      dup5\n        /* \"#utility.yul\":1004:1027   */\n      sub\n        /* \"#utility.yul\":1000:1032   */\n      slt\n        /* \"#utility.yul\":997:1116   */\n      iszero\n      tag_211\n      jumpi\n        /* \"#utility.yul\":1035:1114   */\n      tag_212\n      tag_213\n      jump\t// in\n    tag_212:\n        /* \"#utility.yul\":997:1116   */\n    tag_211:\n        /* \"#utility.yul\":1155:1156   */\n      0x00\n        /* \"#utility.yul\":1180:1233   */\n      tag_214\n        /* \"#utility.yul\":1225:1232   */\n      dup5\n        /* \"#utility.yul\":1216:1222   */\n      dup3\n        /* \"#utility.yul\":1205:1214   */\n      dup6\n        /* \"#utility.yul\":1201:1223   */\n      add\n        /* \"#utility.yul\":1180:1233   */\n      tag_187\n      jump\t// in\n    tag_214:\n        /* \"#utility.yul\":1170:1233   */\n      swap2\n      pop\n        /* \"#utility.yul\":1126:1243   */\n      pop\n        /* \"#utility.yul\":921:1250   */\n      swap3\n      swap2\n      pop\n      pop\n      jump\t// out\n        /* \"#utility.yul\":1256:1730   */\n    tag_43:\n        /* \"#utility.yul\":1324:1330   */\n      0x00\n        /* \"#utility.yul\":1332:1338   */\n      dup1\n        /* \"#utility.yul\":1381:1383   */\n      0x40\n        /* \"#utility.yul\":1369:1378   */\n      dup4\n        /* \"#utility.yul\":1360:1367   */\n      dup6\n        /* \"#utility.yul\":1356:1379   */\n      sub\n        /* \"#utility.yul\":1352:1384   */\n      slt\n        /* \"#utility.yul\":1349:1468   */\n      iszero\n      tag_216\n      jumpi\n        /* \"#utility.yul\":1387:1466   */\n      tag_217\n      tag_213\n      jump\t// in\n    tag_217:\n        /* \"#utility.yul\":1349:1468   */\n    tag_216:\n        /* \"#utility.yul\":1507:1508   */\n      0x00\n        /* \"#utility.yul\":1532:1585   */\n      tag_218\n        /* \"#utility.yul\":1577:1584   */\n      dup6\n        /* \"#utility.yul\":1568:1574   */\n      dup3\n        /* \"#utility.yul\":1557:1566   */\n      dup7\n        /* \"#utility.yul\":1553:1575   */\n      add\n        /* \"#utility.yul\":1532:1585   */\n      tag_187\n      jump\t// in\n    tag_218:\n        /* \"#utility.yul\":1522:1585   */\n      swap3\n      pop\n        /* \"#utility.yul\":1478:1595   */\n      pop\n        /* \"#utility.yul\":1634:1636   */\n      0x20\n        /* \"#utility.yul\":1660:1713   */\n      tag_219\n        /* \"#utility.yul\":1705:1712   */\n      dup6\n        /* \"#utility.yul\":1696:1702   */\n      dup3\n        /* \"#utility.yul\":1685:1694   */\n      dup7\n        /* \"#utility.yul\":1681:1703   */\n      add\n        /* \"#utility.yul\":1660:1713   */\n      tag_203\n      jump\t// in\n    tag_219:\n        /* \"#utility.yul\":1650:1713   */\n      swap2\n      pop\n        /* \"#utility.yul\":1605:1723   */\n      pop\n        /* \"#utility.yul\":1256:1730   */\n      swap3\n      pop\n      swap3\n      swap1\n      pop\n      jump\t// out\n        /* \"#utility.yul\":1736:2081   */\n    tag_98:\n        /* \"#utility.yul\":1803:1809   */\n      0x00\n        /* \"#utility.yul\":1852:1854   */\n      0x20\n        /* \"#utility.yul\":1840:1849   */\n      dup3\n        /* \"#utility.yul\":1831:1838   */\n      dup5\n        /* \"#utility.yul\":1827:1850   */\n      sub\n        /* \"#utility.yul\":1823:1855   */\n      slt\n        /* \"#utility.yul\":1820:1939   */\n      iszero\n      tag_221\n      jumpi\n        /* \"#utility.yul\":1858:1937   */\n      tag_222\n      tag_213\n      jump\t// in\n    tag_222:\n        /* \"#utility.yul\":1820:1939   */\n    tag_221:\n        /* \"#utility.yul\":1978:1979   */\n      0x00\n        /* \"#utility.yul\":2003:2064   */\n      tag_223\n        /* \"#utility.yul\":2056:2063   */\n      dup5\n        /* \"#utility.yul\":2047:2053   */\n      dup3\n        /* \"#utility.yul\":2036:2045   */\n      dup6\n        /* \"#utility.yul\":2032:2054   */\n      add\n        /* \"#utility.yul\":2003:2064   */\n      tag_195\n      jump\t// in\n    tag_223:\n        /* \"#utility.yul\":1993:2064   */\n      swap2\n      pop\n        /* \"#utility.yul\":1949:2074   */\n      pop\n        /* \"#utility.yul\":1736:2081   */\n      swap3\n      swap2\n      pop\n      pop\n      jump\t// out\n        /* \"#utility.yul\":2087:2442   */\n    tag_66:\n        /* \"#utility.yul\":2159:2165   */\n      0x00\n        /* \"#utility.yul\":2208:2210   */\n      0x20\n        /* \"#utility.yul\":2196:2205   */\n      dup3\n        /* \"#utility.yul\":2187:2194   */\n      dup5\n        /* \"#utility.yul\":2183:2206   */\n      sub\n        /* \"#utility.yul\":2179:2211   */\n      slt\n        /* \"#utility.yul\":2176:2295   */\n      iszero\n      tag_225\n      jumpi\n        /* \"#utility.yul\":2214:2293   */\n      tag_226\n      tag_213\n      jump\t// in\n    tag_226:\n        /* \"#utility.yul\":2176:2295   */\n    tag_225:\n        /* \"#utility.yul\":2334:2335   */\n      0x00\n        /* \"#utility.yul\":2359:2425   */\n      tag_227\n        /* \"#utility.yul\":2417:2424   */\n      dup5\n        /* \"#utility.yul\":2408:2414   */\n      dup3\n        /* \"#utility.yul\":2397:2406   */\n      dup6\n        /* \"#utility.yul\":2393:2415   */\n      add\n        /* \"#utility.yul\":2359:2425   */\n      tag_199\n      jump\t// in\n    tag_227:\n        /* \"#utility.yul\":2349:2425   */\n      swap2\n      pop\n        /* \"#utility.yul\":2305:2435   */\n      pop\n        /* \"#utility.yul\":2087:2442   */\n      swap3\n      swap2\n      pop\n      pop\n      jump\t// out\n        /* \"#utility.yul\":2448:3093   */\n    tag_33:\n        /* \"#utility.yul\":2538:2544   */\n      0x00\n        /* \"#utility.yul\":2546:2552   */\n      dup1\n        /* \"#utility.yul\":2554:2560   */\n      0x00\n        /* \"#utility.yul\":2603:2605   */\n      0x60\n        /* \"#utility.yul\":2591:2600   */\n      dup5\n        /* \"#utility.yul\":2582:2589   */\n      dup7\n        /* \"#utility.yul\":2578:2601   */\n      sub\n        /* \"#utility.yul\":2574:2606   */\n      slt\n        /* \"#utility.yul\":2571:2690   */\n      iszero\n      tag_229\n      jumpi\n        /* \"#utility.yul\":2609:2688   */\n      tag_230\n      tag_213\n      jump\t// in\n    tag_230:\n        /* \"#utility.yul\":2571:2690   */\n    tag_229:\n        /* \"#utility.yul\":2729:2730   */\n      0x00\n        /* \"#utility.yul\":2754:2820   */\n      tag_231\n        /* \"#utility.yul\":2812:2819   */\n      dup7\n        /* \"#utility.yul\":2803:2809   */\n      dup3\n        /* \"#utility.yul\":2792:2801   */\n      dup8\n        /* \"#utility.yul\":2788:2810   */\n      add\n        /* \"#utility.yul\":2754:2820   */\n      tag_199\n      jump\t// in\n    tag_231:\n        /* \"#utility.yul\":2744:2820   */\n      swap4\n      pop\n        /* \"#utility.yul\":2700:2830   */\n      pop\n        /* \"#utility.yul\":2869:2871   */\n      0x20\n        /* \"#utility.yul\":2895:2948   */\n      tag_232\n        /* \"#utility.yul\":2940:2947   */\n      dup7\n        /* \"#utility.yul\":2931:2937   */\n      dup3\n        /* \"#utility.yul\":2920:2929   */\n      dup8\n        /* \"#utility.yul\":2916:2938   */\n      add\n        /* \"#utility.yul\":2895:2948   */\n      tag_187\n      jump\t// in\n    tag_232:\n        /* \"#utility.yul\":2885:2948   */\n      swap3\n      pop\n        /* \"#utility.yul\":2840:2958   */\n      pop\n        /* \"#utility.yul\":2997:2999   */\n      0x40\n        /* \"#utility.yul\":3023:3076   */\n      tag_233\n        /* \"#utility.yul\":3068:3075   */\n      dup7\n        /* \"#utility.yul\":3059:3065   */\n      dup3\n        /* \"#utility.yul\":3048:3057   */\n      dup8\n        /* \"#utility.yul\":3044:3066   */\n      add\n        /* \"#utility.yul\":3023:3076   */\n      tag_203\n      jump\t// in\n    tag_233:\n        /* \"#utility.yul\":3013:3076   */\n      swap2\n      pop\n        /* \"#utility.yul\":2968:3086   */\n      pop\n        /* \"#utility.yul\":2448:3093   */\n      swap3\n      pop\n      swap3\n      pop\n      swap3\n      jump\t// out\n        /* \"#utility.yul\":3099:3770   */\n    tag_62:\n        /* \"#utility.yul\":3202:3208   */\n      0x00\n        /* \"#utility.yul\":3210:3216   */\n      dup1\n        /* \"#utility.yul\":3218:3224   */\n      0x00\n        /* \"#utility.yul\":3267:3269   */\n      0x60\n        /* \"#utility.yul\":3255:3264   */\n      dup5\n        /* \"#utility.yul\":3246:3253   */\n      dup7\n        /* \"#utility.yul\":3242:3265   */\n      sub\n        /* \"#utility.yul\":3238:3270   */\n      slt\n        /* \"#utility.yul\":3235:3354   */\n      iszero\n      tag_235\n      jumpi\n        /* \"#utility.yul\":3273:3352   */\n      tag_236\n      tag_213\n      jump\t// in\n    tag_236:\n        /* \"#utility.yul\":3235:3354   */\n    tag_235:\n        /* \"#utility.yul\":3393:3394   */\n      0x00\n        /* \"#utility.yul\":3418:3484   */\n      tag_237\n        /* \"#utility.yul\":3476:3483   */\n      dup7\n        /* \"#utility.yul\":3467:3473   */\n      dup3\n        /* \"#utility.yul\":3456:3465   */\n      dup8\n        /* \"#utility.yul\":3452:3474   */\n      add\n        /* \"#utility.yul\":3418:3484   */\n      tag_199\n      jump\t// in\n    tag_237:\n        /* \"#utility.yul\":3408:3484   */\n      swap4\n      pop\n        /* \"#utility.yul\":3364:3494   */\n      pop\n        /* \"#utility.yul\":3533:3535   */\n      0x20\n        /* \"#utility.yul\":3559:3625   */\n      tag_238\n        /* \"#utility.yul\":3617:3624   */\n      dup7\n        /* \"#utility.yul\":3608:3614   */\n      dup3\n        /* \"#utility.yul\":3597:3606   */\n      dup8\n        /* \"#utility.yul\":3593:3615   */\n      add\n        /* \"#utility.yul\":3559:3625   */\n      tag_199\n      jump\t// in\n    tag_238:\n        /* \"#utility.yul\":3549:3625   */\n      swap3\n      pop\n        /* \"#utility.yul\":3504:3635   */\n      pop\n        /* \"#utility.yul\":3674:3676   */\n      0x40\n        /* \"#utility.yul\":3700:3753   */\n      tag_239\n        /* \"#utility.yul\":3745:3752   */\n      dup7\n        /* \"#utility.yul\":3736:3742   */\n      dup3\n        /* \"#utility.yul\":3725:3734   */\n      dup8\n        /* \"#utility.yul\":3721:3743   */\n      add\n        /* \"#utility.yul\":3700:3753   */\n      tag_203\n      jump\t// in\n    tag_239:\n        /* \"#utility.yul\":3690:3753   */\n      swap2\n      pop\n        /* \"#utility.yul\":3645:3763   */\n      pop\n        /* \"#utility.yul\":3099:3770   */\n      swap3\n      pop\n      swap3\n      pop\n      swap3\n      jump\t// out\n        /* \"#utility.yul\":3776:4276   */\n    tag_47:\n        /* \"#utility.yul\":3857:3863   */\n      0x00\n        /* \"#utility.yul\":3865:3871   */\n      dup1\n        /* \"#utility.yul\":3914:3916   */\n      0x40\n        /* \"#utility.yul\":3902:3911   */\n      dup4\n        /* \"#utility.yul\":3893:3900   */\n      dup6\n        /* \"#utility.yul\":3889:3912   */\n      sub\n        /* \"#utility.yul\":3885:3917   */\n      slt\n        /* \"#utility.yul\":3882:4001   */\n      iszero\n      tag_241\n      jumpi\n        /* \"#utility.yul\":3920:3999   */\n      tag_242\n      tag_213\n      jump\t// in\n    tag_242:\n        /* \"#utility.yul\":3882:4001   */\n    tag_241:\n        /* \"#utility.yul\":4040:4041   */\n      0x00\n        /* \"#utility.yul\":4065:4131   */\n      tag_243\n        /* \"#utility.yul\":4123:4130   */\n      dup6\n        /* \"#utility.yul\":4114:4120   */\n      dup3\n        /* \"#utility.yul\":4103:4112   */\n      dup7\n        /* \"#utility.yul\":4099:4121   */\n      add\n        /* \"#utility.yul\":4065:4131   */\n      tag_199\n      jump\t// in\n    tag_243:\n        /* \"#utility.yul\":4055:4131   */\n      swap3\n      pop\n        /* \"#utility.yul\":4011:4141   */\n      pop\n        /* \"#utility.yul\":4180:4182   */\n      0x20\n        /* \"#utility.yul\":4206:4259   */\n      tag_244\n        /* \"#utility.yul\":4251:4258   */\n      dup6\n        /* \"#utility.yul\":4242:4248   */\n      dup3\n        /* \"#utility.yul\":4231:4240   */\n      dup7\n        /* \"#utility.yul\":4227:4249   */\n      add\n        /* \"#utility.yul\":4206:4259   */\n      tag_203\n      jump\t// in\n    tag_244:\n        /* \"#utility.yul\":4196:4259   */\n      swap2\n      pop\n        /* \"#utility.yul\":4151:4269   */\n      pop\n        /* \"#utility.yul\":3776:4276   */\n      swap3\n      pop\n      swap3\n      swap1\n      pop\n      jump\t// out\n        /* \"#utility.yul\":4282:4633   */\n    tag_89:\n        /* \"#utility.yul\":4352:4358   */\n      0x00\n        /* \"#utility.yul\":4401:4403   */\n      0x20\n        /* \"#utility.yul\":4389:4398   */\n      dup3\n        /* \"#utility.yul\":4380:4387   */\n      dup5\n        /* \"#utility.yul\":4376:4399   */\n      sub\n        /* \"#utility.yul\":4372:4404   */\n      slt\n        /* \"#utility.yul\":4369:4488   */\n      iszero\n      tag_246\n      jumpi\n        /* \"#utility.yul\":4407:4486   */\n      tag_247\n      tag_213\n      jump\t// in\n    tag_247:\n        /* \"#utility.yul\":4369:4488   */\n    tag_246:\n        /* \"#utility.yul\":4527:4528   */\n      0x00\n        /* \"#utility.yul\":4552:4616   */\n      tag_248\n        /* \"#utility.yul\":4608:4615   */\n      dup5\n        /* \"#utility.yul\":4599:4605   */\n      dup3\n        /* \"#utility.yul\":4588:4597   */\n      dup6\n        /* \"#utility.yul\":4584:4606   */\n      add\n        /* \"#utility.yul\":4552:4616   */\n      tag_207\n      jump\t// in\n    tag_248:\n        /* \"#utility.yul\":4542:4616   */\n      swap2\n      pop\n        /* \"#utility.yul\":4498:4626   */\n      pop\n        /* \"#utility.yul\":4282:4633   */\n      swap3\n      swap2\n      pop\n      pop\n      jump\t// out\n        /* \"#utility.yul\":4639:5129   */\n    tag_23:\n        /* \"#utility.yul\":4715:4721   */\n      0x00\n        /* \"#utility.yul\":4723:4729   */\n      dup1\n        /* \"#utility.yul\":4772:4774   */\n      0x40\n        /* \"#utility.yul\":4760:4769   */\n      dup4\n        /* \"#utility.yul\":4751:4758   */\n      dup6\n        /* \"#utility.yul\":4747:4770   */\n      sub\n        /* \"#utility.yul\":4743:4775   */\n      slt\n        /* \"#utility.yul\":4740:4859   */\n      iszero\n      tag_250\n      jumpi\n        /* \"#utility.yul\":4778:4857   */\n      tag_251\n      tag_213\n      jump\t// in\n    tag_251:\n        /* \"#utility.yul\":4740:4859   */\n    tag_250:\n        /* \"#utility.yul\":4898:4899   */\n      0x00\n        /* \"#utility.yul\":4923:4976   */\n      tag_252\n        /* \"#utility.yul\":4968:4975   */\n      dup6\n        /* \"#utility.yul\":4959:4965   */\n      dup3\n        /* \"#utility.yul\":4948:4957   */\n      dup7\n        /* \"#utility.yul\":4944:4966   */\n      add\n        /* \"#utility.yul\":4923:4976   */\n      tag_203\n      jump\t// in\n    tag_252:\n        /* \"#utility.yul\":4913:4976   */\n      swap3\n      pop\n        /* \"#utility.yul\":4869:4986   */\n      pop\n        /* \"#utility.yul\":5025:5027   */\n      0x20\n        /* \"#utility.yul\":5051:5112   */\n      tag_253\n        /* \"#utility.yul\":5104:5111   */\n      dup6\n        /* \"#utility.yul\":5095:5101   */\n      dup3\n        /* \"#utility.yul\":5084:5093   */\n      dup7\n        /* \"#utility.yul\":5080:5102   */\n      add\n        /* \"#utility.yul\":5051:5112   */\n      tag_191\n      jump\t// in\n    tag_253:\n        /* \"#utility.yul\":5041:5112   */\n      swap2\n      pop\n        /* \"#utility.yul\":4996:5122   */\n      pop\n        /* \"#utility.yul\":4639:5129   */\n      swap3\n      pop\n      swap3\n      swap1\n      pop\n      jump\t// out\n        /* \"#utility.yul\":5135:5282   */\n    tag_254:\n        /* \"#utility.yul\":5230:5275   */\n      tag_256\n        /* \"#utility.yul\":5269:5274   */\n      dup2\n        /* \"#utility.yul\":5230:5275   */\n      tag_257\n      jump\t// in\n    tag_256:\n        /* \"#utility.yul\":5225:5228   */\n      dup3\n        /* \"#utility.yul\":5218:5276   */\n      mstore\n        /* \"#utility.yul\":5135:5282   */\n      pop\n      pop\n      jump\t// out\n        /* \"#utility.yul\":5288:5406   */\n    tag_258:\n        /* \"#utility.yul\":5375:5399   */\n      tag_260\n        /* \"#utility.yul\":5393:5398   */\n      dup2\n        /* \"#utility.yul\":5375:5399   */\n      tag_261\n      jump\t// in\n    tag_260:\n        /* \"#utility.yul\":5370:5373   */\n      dup3\n        /* \"#utility.yul\":5363:5400   */\n      mstore\n        /* \"#utility.yul\":5288:5406   */\n      pop\n      pop\n      jump\t// out\n        /* \"#utility.yul\":5412:5778   */\n    tag_262:\n        /* \"#utility.yul\":5554:5557   */\n      0x00\n        /* \"#utility.yul\":5575:5642   */\n      tag_264\n        /* \"#utility.yul\":5639:5641   */\n      0x37\n        /* \"#utility.yul\":5634:5637   */\n      dup4\n        /* \"#utility.yul\":5575:5642   */\n      tag_265\n      jump\t// in\n    tag_264:\n        /* \"#utility.yul\":5568:5642   */\n      swap2\n      pop\n        /* \"#utility.yul\":5651:5744   */\n      tag_266\n        /* \"#utility.yul\":5740:5743   */\n      dup3\n        /* \"#utility.yul\":5651:5744   */\n      tag_267\n      jump\t// in\n    tag_266:\n        /* \"#utility.yul\":5769:5771   */\n      0x40\n        /* \"#utility.yul\":5764:5767   */\n      dup3\n        /* \"#utility.yul\":5760:5772   */\n      add\n        /* \"#utility.yul\":5753:5772   */\n      swap1\n      pop\n        /* \"#utility.yul\":5412:5778   */\n      swap2\n      swap1\n      pop\n      jump\t// out\n        /* \"#utility.yul\":5784:6150   */\n    tag_268:\n        /* \"#utility.yul\":5926:5929   */\n      0x00\n        /* \"#utility.yul\":5947:6014   */\n      tag_270\n        /* \"#utility.yul\":6011:6013   */\n      0x37\n        /* \"#utility.yul\":6006:6009   */\n      dup4\n        /* \"#utility.yul\":5947:6014   */\n      tag_265\n      jump\t// in\n    tag_270:\n        /* \"#utility.yul\":5940:6014   */\n      swap2\n      pop\n        /* \"#utility.yul\":6023:6116   */\n      tag_271\n        /* \"#utility.yul\":6112:6115   */\n      dup3\n        /* \"#utility.yul\":6023:6116   */\n      tag_272\n      jump\t// in\n    tag_271:\n        /* \"#utility.yul\":6141:6143   */\n      0x40\n        /* \"#utility.yul\":6136:6139   */\n      dup3\n        /* \"#utility.yul\":6132:6144   */\n      add\n        /* \"#utility.yul\":6125:6144   */\n      swap1\n      pop\n        /* \"#utility.yul\":5784:6150   */\n      swap2\n      swap1\n      pop\n      jump\t// out\n        /* \"#utility.yul\":6156:6522   */\n    tag_273:\n        /* \"#utility.yul\":6298:6301   */\n      0x00\n        /* \"#utility.yul\":6319:6386   */\n      tag_275\n        /* \"#utility.yul\":6383:6385   */\n      0x34\n        /* \"#utility.yul\":6378:6381   */\n      dup4\n        /* \"#utility.yul\":6319:6386   */\n      tag_265\n      jump\t// in\n    tag_275:\n        /* \"#utility.yul\":6312:6386   */\n      swap2\n      pop\n        /* \"#utility.yul\":6395:6488   */\n      tag_276\n        /* \"#utility.yul\":6484:6487   */\n      dup3\n        /* \"#utility.yul\":6395:6488   */\n      tag_277\n      jump\t// in\n    tag_276:\n        /* \"#utility.yul\":6513:6515   */\n      0x40\n        /* \"#utility.yul\":6508:6511   */\n      dup3\n        /* \"#utility.yul\":6504:6516   */\n      add\n        /* \"#utility.yul\":6497:6516   */\n      swap1\n      pop\n        /* \"#utility.yul\":6156:6522   */\n      swap2\n      swap1\n      pop\n      jump\t// out\n        /* \"#utility.yul\":6528:6894   */\n    tag_278:\n        /* \"#utility.yul\":6670:6673   */\n      0x00\n        /* \"#utility.yul\":6691:6758   */\n      tag_280\n        /* \"#utility.yul\":6755:6757   */\n      0x1d\n        /* \"#utility.yul\":6750:6753   */\n      dup4\n        /* \"#utility.yul\":6691:6758   */\n      tag_265\n      jump\t// in\n    tag_280:\n        /* \"#utility.yul\":6684:6758   */\n      swap2\n      pop\n        /* \"#utility.yul\":6767:6860   */\n      tag_281\n        /* \"#utility.yul\":6856:6859   */\n      dup3\n        /* \"#utility.yul\":6767:6860   */\n      tag_282\n      jump\t// in\n    tag_281:\n        /* \"#utility.yul\":6885:6887   */\n      0x20\n        /* \"#utility.yul\":6880:6883   */\n      dup3\n        /* \"#utility.yul\":6876:6888   */\n      add\n        /* \"#utility.yul\":6869:6888   */\n      swap1\n      pop\n        /* \"#utility.yul\":6528:6894   */\n      swap2\n      swap1\n      pop\n      jump\t// out\n        /* \"#utility.yul\":6900:7266   */\n    tag_283:\n        /* \"#utility.yul\":7042:7045   */\n      0x00\n        /* \"#utility.yul\":7063:7130   */\n      tag_285\n        /* \"#utility.yul\":7127:7129   */\n      0x12\n        /* \"#utility.yul\":7122:7125   */\n      dup4\n        /* \"#utility.yul\":7063:7130   */\n      tag_265\n      jump\t// in\n    tag_285:\n        /* \"#utility.yul\":7056:7130   */\n      swap2\n      pop\n        /* \"#utility.yul\":7139:7232   */\n      tag_286\n        /* \"#utility.yul\":7228:7231   */\n      dup3\n        /* \"#utility.yul\":7139:7232   */\n      tag_287\n      jump\t// in\n    tag_286:\n        /* \"#utility.yul\":7257:7259   */\n      0x20\n        /* \"#utility.yul\":7252:7255   */\n      dup3\n        /* \"#utility.yul\":7248:7260   */\n      add\n        /* \"#utility.yul\":7241:7260   */\n      swap1\n      pop\n        /* \"#utility.yul\":6900:7266   */\n      swap2\n      swap1\n      pop\n      jump\t// out\n        /* \"#utility.yul\":7272:7638   */\n    tag_288:\n        /* \"#utility.yul\":7414:7417   */\n      0x00\n        /* \"#utility.yul\":7435:7502   */\n      tag_290\n        /* \"#utility.yul\":7499:7501   */\n      0x1b\n        /* \"#utility.yul\":7494:7497   */\n      dup4\n        /* \"#utility.yul\":7435:7502   */\n      tag_265\n      jump\t// in\n    tag_290:\n        /* \"#utility.yul\":7428:7502   */\n      swap2\n      pop\n        /* \"#utility.yul\":7511:7604   */\n      tag_291\n        /* \"#utility.yul\":7600:7603   */\n      dup3\n        /* \"#utility.yul\":7511:7604   */\n      tag_292\n      jump\t// in\n    tag_291:\n        /* \"#utility.yul\":7629:7631   */\n      0x20\n        /* \"#utility.yul\":7624:7627   */\n      dup3\n        /* \"#utility.yul\":7620:7632   */\n      add\n        /* \"#utility.yul\":7613:7632   */\n      swap1\n      pop\n        /* \"#utility.yul\":7272:7638   */\n      swap2\n      swap1\n      pop\n      jump\t// out\n        /* \"#utility.yul\":7644:8010   */\n    tag_293:\n        /* \"#utility.yul\":7786:7789   */\n      0x00\n        /* \"#utility.yul\":7807:7874   */\n      tag_295\n        /* \"#utility.yul\":7871:7873   */\n      0x36\n        /* \"#utility.yul\":7866:7869   */\n      dup4\n        /* \"#utility.yul\":7807:7874   */\n      tag_265\n      jump\t// in\n    tag_295:\n        /* \"#utility.yul\":7800:7874   */\n      swap2\n      pop\n        /* \"#utility.yul\":7883:7976   */\n      tag_296\n        /* \"#utility.yul\":7972:7975   */\n      dup3\n        /* \"#utility.yul\":7883:7976   */\n      tag_297\n      jump\t// in\n    tag_296:\n        /* \"#utility.yul\":8001:8003   */\n      0x40\n        /* \"#utility.yul\":7996:7999   */\n      dup3\n        /* \"#utility.yul\":7992:8004   */\n      add\n        /* \"#utility.yul\":7985:8004   */\n      swap1\n      pop\n        /* \"#utility.yul\":7644:8010   */\n      swap2\n      swap1\n      pop\n      jump\t// out\n        /* \"#utility.yul\":8016:8382   */\n    tag_298:\n        /* \"#utility.yul\":8158:8161   */\n      0x00\n        /* \"#utility.yul\":8179:8246   */\n      tag_300\n        /* \"#utility.yul\":8243:8245   */\n      0x0e\n        /* \"#utility.yul\":8238:8241   */\n      dup4\n        /* \"#utility.yul\":8179:8246   */\n      tag_265\n      jump\t// in\n    tag_300:\n        /* \"#utility.yul\":8172:8246   */\n      swap2\n      pop\n        /* \"#utility.yul\":8255:8348   */\n      tag_301\n        /* \"#utility.yul\":8344:8347   */\n      dup3\n        /* \"#utility.yul\":8255:8348   */\n      tag_302\n      jump\t// in\n    tag_301:\n        /* \"#utility.yul\":8373:8375   */\n      0x20\n        /* \"#utility.yul\":8368:8371   */\n      dup3\n        /* \"#utility.yul\":8364:8376   */\n      add\n        /* \"#utility.yul\":8357:8376   */\n      swap1\n      pop\n        /* \"#utility.yul\":8016:8382   */\n      swap2\n      swap1\n      pop\n      jump\t// out\n        /* \"#utility.yul\":8388:8754   */\n    tag_303:\n        /* \"#utility.yul\":8530:8533   */\n      0x00\n        /* \"#utility.yul\":8551:8618   */\n      tag_305\n        /* \"#utility.yul\":8615:8617   */\n      0x22\n        /* \"#utility.yul\":8610:8613   */\n      dup4\n        /* \"#utility.yul\":8551:8618   */\n      tag_265\n      jump\t// in\n    tag_305:\n        /* \"#utility.yul\":8544:8618   */\n      swap2\n      pop\n        /* \"#utility.yul\":8627:8720   */\n      tag_306\n        /* \"#utility.yul\":8716:8719   */\n      dup3\n        /* \"#utility.yul\":8627:8720   */\n      tag_307\n      jump\t// in\n    tag_306:\n        /* \"#utility.yul\":8745:8747   */\n      0x40\n        /* \"#utility.yul\":8740:8743   */\n      dup3\n        /* \"#utility.yul\":8736:8748   */\n      add\n        /* \"#utility.yul\":8729:8748   */\n      swap1\n      pop\n        /* \"#utility.yul\":8388:8754   */\n      swap2\n      swap1\n      pop\n      jump\t// out\n        /* \"#utility.yul\":8760:9126   */\n    tag_308:\n        /* \"#utility.yul\":8902:8905   */\n      0x00\n        /* \"#utility.yul\":8923:8990   */\n      tag_310\n        /* \"#utility.yul\":8987:8989   */\n      0x27\n        /* \"#utility.yul\":8982:8985   */\n      dup4\n        /* \"#utility.yul\":8923:8990   */\n      tag_265\n      jump\t// in\n    tag_310:\n        /* \"#utility.yul\":8916:8990   */\n      swap2\n      pop\n        /* \"#utility.yul\":8999:9092   */\n      tag_311\n        /* \"#utility.yul\":9088:9091   */\n      dup3\n        /* \"#utility.yul\":8999:9092   */\n      tag_312\n      jump\t// in\n    tag_311:\n        /* \"#utility.yul\":9117:9119   */\n      0x40\n        /* \"#utility.yul\":9112:9115   */\n      dup3\n        /* \"#utility.yul\":9108:9120   */\n      add\n        /* \"#utility.yul\":9101:9120   */\n      swap1\n      pop\n        /* \"#utility.yul\":8760:9126   */\n      swap2\n      swap1\n      pop\n      jump\t// out\n        /* \"#utility.yul\":9132:9498   */\n    tag_313:\n        /* \"#utility.yul\":9274:9277   */\n      0x00\n        /* \"#utility.yul\":9295:9362   */\n      tag_315\n        /* \"#utility.yul\":9359:9361   */\n      0x28\n        /* \"#utility.yul\":9354:9357   */\n      dup4\n        /* \"#utility.yul\":9295:9362   */\n      tag_265\n      jump\t// in\n    tag_315:\n        /* \"#utility.yul\":9288:9362   */\n      swap2\n      pop\n        /* \"#utility.yul\":9371:9464   */\n      tag_316\n        /* \"#utility.yul\":9460:9463   */\n      dup3\n        /* \"#utility.yul\":9371:9464   */\n      tag_317\n      jump\t// in\n    tag_316:\n        /* \"#utility.yul\":9489:9491   */\n      0x40\n        /* \"#utility.yul\":9484:9487   */\n      dup3\n        /* \"#utility.yul\":9480:9492   */\n      add\n        /* \"#utility.yul\":9473:9492   */\n      swap1\n      pop\n        /* \"#utility.yul\":9132:9498   */\n      swap2\n      swap1\n      pop\n      jump\t// out\n        /* \"#utility.yul\":9504:9870   */\n    tag_318:\n        /* \"#utility.yul\":9646:9649   */\n      0x00\n        /* \"#utility.yul\":9667:9734   */\n      tag_320\n        /* \"#utility.yul\":9731:9733   */\n      0x33\n        /* \"#utility.yul\":9726:9729   */\n      dup4\n        /* \"#utility.yul\":9667:9734   */\n      tag_265\n      jump\t// in\n    tag_320:\n        /* \"#utility.yul\":9660:9734   */\n      swap2\n      pop\n        /* \"#utility.yul\":9743:9836   */\n      tag_321\n        /* \"#utility.yul\":9832:9835   */\n      dup3\n        /* \"#utility.yul\":9743:9836   */\n      tag_322\n      jump\t// in\n    tag_321:\n        /* \"#utility.yul\":9861:9863   */\n      0x40\n        /* \"#utility.yul\":9856:9859   */\n      dup3\n        /* \"#utility.yul\":9852:9864   */\n      add\n        /* \"#utility.yul\":9845:9864   */\n      swap1\n      pop\n        /* \"#utility.yul\":9504:9870   */\n      swap2\n      swap1\n      pop\n      jump\t// out\n        /* \"#utility.yul\":9876:9994   */\n    tag_323:\n        /* \"#utility.yul\":9963:9987   */\n      tag_325\n        /* \"#utility.yul\":9981:9986   */\n      dup2\n        /* \"#utility.yul\":9963:9987   */\n      tag_326\n      jump\t// in\n    tag_325:\n        /* \"#utility.yul\":9958:9961   */\n      dup3\n        /* \"#utility.yul\":9951:9988   */\n      mstore\n        /* \"#utility.yul\":9876:9994   */\n      pop\n      pop\n      jump\t// out\n        /* \"#utility.yul\":10000:10222   */\n    tag_29:\n        /* \"#utility.yul\":10093:10097   */\n      0x00\n        /* \"#utility.yul\":10131:10133   */\n      0x20\n        /* \"#utility.yul\":10120:10129   */\n      dup3\n        /* \"#utility.yul\":10116:10134   */\n      add\n        /* \"#utility.yul\":10108:10134   */\n      swap1\n      pop\n        /* \"#utility.yul\":10144:10215   */\n      tag_328\n        /* \"#utility.yul\":10212:10213   */\n      0x00\n        /* \"#utility.yul\":10201:10210   */\n      dup4\n        /* \"#utility.yul\":10197:10214   */\n      add\n        /* \"#utility.yul\":10188:10194   */\n      dup5\n        /* \"#utility.yul\":10144:10215   */\n      tag_258\n      jump\t// in\n    tag_328:\n        /* \"#utility.yul\":10000:10222   */\n      swap3\n      swap2\n      pop\n      pop\n      jump\t// out\n        /* \"#utility.yul\":10228:10686   */\n    tag_80:\n        /* \"#utility.yul\":10385:10389   */\n      0x00\n        /* \"#utility.yul\":10423:10425   */\n      0x60\n        /* \"#utility.yul\":10412:10421   */\n      dup3\n        /* \"#utility.yul\":10408:10426   */\n      add\n        /* \"#utility.yul\":10400:10426   */\n      swap1\n      pop\n        /* \"#utility.yul\":10436:10507   */\n      tag_330\n        /* \"#utility.yul\":10504:10505   */\n      0x00\n        /* \"#utility.yul\":10493:10502   */\n      dup4\n        /* \"#utility.yul\":10489:10506   */\n      add\n        /* \"#utility.yul\":10480:10486   */\n      dup7\n        /* \"#utility.yul\":10436:10507   */\n      tag_258\n      jump\t// in\n    tag_330:\n        /* \"#utility.yul\":10517:10597   */\n      tag_331\n        /* \"#utility.yul\":10593:10595   */\n      0x20\n        /* \"#utility.yul\":10582:10591   */\n      dup4\n        /* \"#utility.yul\":10578:10596   */\n      add\n        /* \"#utility.yul\":10569:10575   */\n      dup6\n        /* \"#utility.yul\":10517:10597   */\n      tag_254\n      jump\t// in\n    tag_331:\n        /* \"#utility.yul\":10607:10679   */\n      tag_332\n        /* \"#utility.yul\":10675:10677   */\n      0x40\n        /* \"#utility.yul\":10664:10673   */\n      dup4\n        /* \"#utility.yul\":10660:10678   */\n      add\n        /* \"#utility.yul\":10651:10657   */\n      dup5\n        /* \"#utility.yul\":10607:10679   */\n      tag_323\n      jump\t// in\n    tag_332:\n        /* \"#utility.yul\":10228:10686   */\n      swap5\n      swap4\n      pop\n      pop\n      pop\n      pop\n      jump\t// out\n        /* \"#utility.yul\":10692:11356   */\n    tag_167:\n        /* \"#utility.yul\":10897:10901   */\n      0x00\n        /* \"#utility.yul\":10935:10938   */\n      0xa0\n        /* \"#utility.yul\":10924:10933   */\n      dup3\n        /* \"#utility.yul\":10920:10939   */\n      add\n        /* \"#utility.yul\":10912:10939   */\n      swap1\n      pop\n        /* \"#utility.yul\":10949:11020   */\n      tag_334\n        /* \"#utility.yul\":11017:11018   */\n      0x00\n        /* \"#utility.yul\":11006:11015   */\n      dup4\n        /* \"#utility.yul\":11002:11019   */\n      add\n        /* \"#utility.yul\":10993:10999   */\n      dup9\n        /* \"#utility.yul\":10949:11020   */\n      tag_258\n      jump\t// in\n    tag_334:\n        /* \"#utility.yul\":11030:11102   */\n      tag_335\n        /* \"#utility.yul\":11098:11100   */\n      0x20\n        /* \"#utility.yul\":11087:11096   */\n      dup4\n        /* \"#utility.yul\":11083:11101   */\n      add\n        /* \"#utility.yul\":11074:11080   */\n      dup8\n        /* \"#utility.yul\":11030:11102   */\n      tag_258\n      jump\t// in\n    tag_335:\n        /* \"#utility.yul\":11112:11184   */\n      tag_336\n        /* \"#utility.yul\":11180:11182   */\n      0x40\n        /* \"#utility.yul\":11169:11178   */\n      dup4\n        /* \"#utility.yul\":11165:11183   */\n      add\n        /* \"#utility.yul\":11156:11162   */\n      dup7\n        /* \"#utility.yul\":11112:11184   */\n      tag_258\n      jump\t// in\n    tag_336:\n        /* \"#utility.yul\":11194:11266   */\n      tag_337\n        /* \"#utility.yul\":11262:11264   */\n      0x60\n        /* \"#utility.yul\":11251:11260   */\n      dup4\n        /* \"#utility.yul\":11247:11265   */\n      add\n        /* \"#utility.yul\":11238:11244   */\n      dup6\n        /* \"#utility.yul\":11194:11266   */\n      tag_323\n      jump\t// in\n    tag_337:\n        /* \"#utility.yul\":11276:11349   */\n      tag_338\n        /* \"#utility.yul\":11344:11347   */\n      0x80\n        /* \"#utility.yul\":11333:11342   */\n      dup4\n        /* \"#utility.yul\":11329:11348   */\n      add\n        /* \"#utility.yul\":11320:11326   */\n      dup5\n        /* \"#utility.yul\":11276:11349   */\n      tag_323\n      jump\t// in\n    tag_338:\n        /* \"#utility.yul\":10692:11356   */\n      swap7\n      swap6\n      pop\n      pop\n      pop\n      pop\n      pop\n      pop\n      jump\t// out\n        /* \"#utility.yul\":11362:11804   */\n    tag_100:\n        /* \"#utility.yul\":11511:11515   */\n      0x00\n        /* \"#utility.yul\":11549:11551   */\n      0x60\n        /* \"#utility.yul\":11538:11547   */\n      dup3\n        /* \"#utility.yul\":11534:11552   */\n      add\n        /* \"#utility.yul\":11526:11552   */\n      swap1\n      pop\n        /* \"#utility.yul\":11562:11633   */\n      tag_340\n        /* \"#utility.yul\":11630:11631   */\n      0x00\n        /* \"#utility.yul\":11619:11628   */\n      dup4\n        /* \"#utility.yul\":11615:11632   */\n      add\n        /* \"#utility.yul\":11606:11612   */\n      dup7\n        /* \"#utility.yul\":11562:11633   */\n      tag_258\n      jump\t// in\n    tag_340:\n        /* \"#utility.yul\":11643:11715   */\n      tag_341\n        /* \"#utility.yul\":11711:11713   */\n      0x20\n        /* \"#utility.yul\":11700:11709   */\n      dup4\n        /* \"#utility.yul\":11696:11714   */\n      add\n        /* \"#utility.yul\":11687:11693   */\n      dup6\n        /* \"#utility.yul\":11643:11715   */\n      tag_258\n      jump\t// in\n    tag_341:\n        /* \"#utility.yul\":11725:11797   */\n      tag_342\n        /* \"#utility.yul\":11793:11795   */\n      0x40\n        /* \"#utility.yul\":11782:11791   */\n      dup4\n        /* \"#utility.yul\":11778:11796   */\n      add\n        /* \"#utility.yul\":11769:11775   */\n      dup5\n        /* \"#utility.yul\":11725:11797   */\n      tag_323\n      jump\t// in\n    tag_342:\n        /* \"#utility.yul\":11362:11804   */\n      swap5\n      swap4\n      pop\n      pop\n      pop\n      pop\n      jump\t// out\n        /* \"#utility.yul\":11810:12142   */\n    tag_19:\n        /* \"#utility.yul\":11931:11935   */\n      0x00\n        /* \"#utility.yul\":11969:11971   */\n      0x40\n        /* \"#utility.yul\":11958:11967   */\n      dup3\n        /* \"#utility.yul\":11954:11972   */\n      add\n        /* \"#utility.yul\":11946:11972   */\n      swap1\n      pop\n        /* \"#utility.yul\":11982:12053   */\n      tag_344\n        /* \"#utility.yul\":12050:12051   */\n      0x00\n        /* \"#utility.yul\":12039:12048   */\n      dup4\n        /* \"#utility.yul\":12035:12052   */\n      add\n        /* \"#utility.yul\":12026:12032   */\n      dup6\n        /* \"#utility.yul\":11982:12053   */\n      tag_258\n      jump\t// in\n    tag_344:\n        /* \"#utility.yul\":12063:12135   */\n      tag_345\n        /* \"#utility.yul\":12131:12133   */\n      0x20\n        /* \"#utility.yul\":12120:12129   */\n      dup4\n        /* \"#utility.yul\":12116:12134   */\n      add\n        /* \"#utility.yul\":12107:12113   */\n      dup5\n        /* \"#utility.yul\":12063:12135   */\n      tag_323\n      jump\t// in\n    tag_345:\n        /* \"#utility.yul\":11810:12142   */\n      swap4\n      swap3\n      pop\n      pop\n      pop\n      jump\t// out\n        /* \"#utility.yul\":12148:12567   */\n    tag_144:\n        /* \"#utility.yul\":12314:12318   */\n      0x00\n        /* \"#utility.yul\":12352:12354   */\n      0x20\n        /* \"#utility.yul\":12341:12350   */\n      dup3\n        /* \"#utility.yul\":12337:12355   */\n      add\n        /* \"#utility.yul\":12329:12355   */\n      swap1\n      pop\n        /* \"#utility.yul\":12401:12410   */\n      dup2\n        /* \"#utility.yul\":12395:12399   */\n      dup2\n        /* \"#utility.yul\":12391:12411   */\n      sub\n        /* \"#utility.yul\":12387:12388   */\n      0x00\n        /* \"#utility.yul\":12376:12385   */\n      dup4\n        /* \"#utility.yul\":12372:12389   */\n      add\n        /* \"#utility.yul\":12365:12412   */\n      mstore\n        /* \"#utility.yul\":12429:12560   */\n      tag_347\n        /* \"#utility.yul\":12555:12559   */\n      dup2\n        /* \"#utility.yul\":12429:12560   */\n      tag_262\n      jump\t// in\n    tag_347:\n        /* \"#utility.yul\":12421:12560   */\n      swap1\n      pop\n        /* \"#utility.yul\":12148:12567   */\n      swap2\n      swap1\n      pop\n      jump\t// out\n        /* \"#utility.yul\":12573:12992   */\n    tag_121:\n        /* \"#utility.yul\":12739:12743   */\n      0x00\n        /* \"#utility.yul\":12777:12779   */\n      0x20\n        /* \"#utility.yul\":12766:12775   */\n      dup3\n        /* \"#utility.yul\":12762:12780   */\n      add\n        /* \"#utility.yul\":12754:12780   */\n      swap1\n      pop\n        /* \"#utility.yul\":12826:12835   */\n      dup2\n        /* \"#utility.yul\":12820:12824   */\n      dup2\n        /* \"#utility.yul\":12816:12836   */\n      sub\n        /* \"#utility.yul\":12812:12813   */\n      0x00\n        /* \"#utility.yul\":12801:12810   */\n      dup4\n        /* \"#utility.yul\":12797:12814   */\n      add\n        /* \"#utility.yul\":12790:12837   */\n      mstore\n        /* \"#utility.yul\":12854:12985   */\n      tag_349\n        /* \"#utility.yul\":12980:12984   */\n      dup2\n        /* \"#utility.yul\":12854:12985   */\n      tag_268\n      jump\t// in\n    tag_349:\n        /* \"#utility.yul\":12846:12985   */\n      swap1\n      pop\n        /* \"#utility.yul\":12573:12992   */\n      swap2\n      swap1\n      pop\n      jump\t// out\n        /* \"#utility.yul\":12998:13417   */\n    tag_113:\n        /* \"#utility.yul\":13164:13168   */\n      0x00\n        /* \"#utility.yul\":13202:13204   */\n      0x20\n        /* \"#utility.yul\":13191:13200   */\n      dup3\n        /* \"#utility.yul\":13187:13205   */\n      add\n        /* \"#utility.yul\":13179:13205   */\n      swap1\n      pop\n        /* \"#utility.yul\":13251:13260   */\n      dup2\n        /* \"#utility.yul\":13245:13249   */\n      dup2\n        /* \"#utility.yul\":13241:13261   */\n      sub\n        /* \"#utility.yul\":13237:13238   */\n      0x00\n        /* \"#utility.yul\":13226:13235   */\n      dup4\n        /* \"#utility.yul\":13222:13239   */\n      add\n        /* \"#utility.yul\":13215:13262   */\n      mstore\n        /* \"#utility.yul\":13279:13410   */\n      tag_351\n        /* \"#utility.yul\":13405:13409   */\n      dup2\n        /* \"#utility.yul\":13279:13410   */\n      tag_273\n      jump\t// in\n    tag_351:\n        /* \"#utility.yul\":13271:13410   */\n      swap1\n      pop\n        /* \"#utility.yul\":12998:13417   */\n      swap2\n      swap1\n      pop\n      jump\t// out\n        /* \"#utility.yul\":13423:13842   */\n    tag_71:\n        /* \"#utility.yul\":13589:13593   */\n      0x00\n        /* \"#utility.yul\":13627:13629   */\n      0x20\n        /* \"#utility.yul\":13616:13625   */\n      dup3\n        /* \"#utility.yul\":13612:13630   */\n      add\n        /* \"#utility.yul\":13604:13630   */\n      swap1\n      pop\n        /* \"#utility.yul\":13676:13685   */\n      dup2\n        /* \"#utility.yul\":13670:13674   */\n      dup2\n        /* \"#utility.yul\":13666:13686   */\n      sub\n        /* \"#utility.yul\":13662:13663   */\n      0x00\n        /* \"#utility.yul\":13651:13660   */\n      dup4\n        /* \"#utility.yul\":13647:13664   */\n      add\n        /* \"#utility.yul\":13640:13687   */\n      mstore\n        /* \"#utility.yul\":13704:13835   */\n      tag_353\n        /* \"#utility.yul\":13830:13834   */\n      dup2\n        /* \"#utility.yul\":13704:13835   */\n      tag_278\n      jump\t// in\n    tag_353:\n        /* \"#utility.yul\":13696:13835   */\n      swap1\n      pop\n        /* \"#utility.yul\":13423:13842   */\n      swap2\n      swap1\n      pop\n      jump\t// out\n        /* \"#utility.yul\":13848:14267   */\n    tag_74:\n        /* \"#utility.yul\":14014:14018   */\n      0x00\n        /* \"#utility.yul\":14052:14054   */\n      0x20\n        /* \"#utility.yul\":14041:14050   */\n      dup3\n        /* \"#utility.yul\":14037:14055   */\n      add\n        /* \"#utility.yul\":14029:14055   */\n      swap1\n      pop\n        /* \"#utility.yul\":14101:14110   */\n      dup2\n        /* \"#utility.yul\":14095:14099   */\n      dup2\n        /* \"#utility.yul\":14091:14111   */\n      sub\n        /* \"#utility.yul\":14087:14088   */\n      0x00\n        /* \"#utility.yul\":14076:14085   */\n      dup4\n        /* \"#utility.yul\":14072:14089   */\n      add\n        /* \"#utility.yul\":14065:14112   */\n      mstore\n        /* \"#utility.yul\":14129:14260   */\n      tag_355\n        /* \"#utility.yul\":14255:14259   */\n      dup2\n        /* \"#utility.yul\":14129:14260   */\n      tag_283\n      jump\t// in\n    tag_355:\n        /* \"#utility.yul\":14121:14260   */\n      swap1\n      pop\n        /* \"#utility.yul\":13848:14267   */\n      swap2\n      swap1\n      pop\n      jump\t// out\n        /* \"#utility.yul\":14273:14692   */\n    tag_155:\n        /* \"#utility.yul\":14439:14443   */\n      0x00\n        /* \"#utility.yul\":14477:14479   */\n      0x20\n        /* \"#utility.yul\":14466:14475   */\n      dup3\n        /* \"#utility.yul\":14462:14480   */\n      add\n        /* \"#utility.yul\":14454:14480   */\n      swap1\n      pop\n        /* \"#utility.yul\":14526:14535   */\n      dup2\n        /* \"#utility.yul\":14520:14524   */\n      dup2\n        /* \"#utility.yul\":14516:14536   */\n      sub\n        /* \"#utility.yul\":14512:14513   */\n      0x00\n        /* \"#utility.yul\":14501:14510   */\n      dup4\n        /* \"#utility.yul\":14497:14514   */\n      add\n        /* \"#utility.yul\":14490:14537   */\n      mstore\n        /* \"#utility.yul\":14554:14685   */\n      tag_357\n        /* \"#utility.yul\":14680:14684   */\n      dup2\n        /* \"#utility.yul\":14554:14685   */\n      tag_288\n      jump\t// in\n    tag_357:\n        /* \"#utility.yul\":14546:14685   */\n      swap1\n      pop\n        /* \"#utility.yul\":14273:14692   */\n      swap2\n      swap1\n      pop\n      jump\t// out\n        /* \"#utility.yul\":14698:15117   */\n    tag_141:\n        /* \"#utility.yul\":14864:14868   */\n      0x00\n        /* \"#utility.yul\":14902:14904   */\n      0x20\n        /* \"#utility.yul\":14891:14900   */\n      dup3\n        /* \"#utility.yul\":14887:14905   */\n      add\n        /* \"#utility.yul\":14879:14905   */\n      swap1\n      pop\n        /* \"#utility.yul\":14951:14960   */\n      dup2\n        /* \"#utility.yul\":14945:14949   */\n      dup2\n        /* \"#utility.yul\":14941:14961   */\n      sub\n        /* \"#utility.yul\":14937:14938   */\n      0x00\n        /* \"#utility.yul\":14926:14935   */\n      dup4\n        /* \"#utility.yul\":14922:14939   */\n      add\n        /* \"#utility.yul\":14915:14962   */\n      mstore\n        /* \"#utility.yul\":14979:15110   */\n      tag_359\n        /* \"#utility.yul\":15105:15109   */\n      dup2\n        /* \"#utility.yul\":14979:15110   */\n      tag_293\n      jump\t// in\n    tag_359:\n        /* \"#utility.yul\":14971:15110   */\n      swap1\n      pop\n        /* \"#utility.yul\":14698:15117   */\n      swap2\n      swap1\n      pop\n      jump\t// out\n        /* \"#utility.yul\":15123:15542   */\n    tag_92:\n        /* \"#utility.yul\":15289:15293   */\n      0x00\n        /* \"#utility.yul\":15327:15329   */\n      0x20\n        /* \"#utility.yul\":15316:15325   */\n      dup3\n        /* \"#utility.yul\":15312:15330   */\n      add\n        /* \"#utility.yul\":15304:15330   */\n      swap1\n      pop\n        /* \"#utility.yul\":15376:15385   */\n      dup2\n        /* \"#utility.yul\":15370:15374   */\n      dup2\n        /* \"#utility.yul\":15366:15386   */\n      sub\n        /* \"#utility.yul\":15362:15363   */\n      0x00\n        /* \"#utility.yul\":15351:15360   */\n      dup4\n        /* \"#utility.yul\":15347:15364   */\n      add\n        /* \"#utility.yul\":15340:15387   */\n      mstore\n        /* \"#utility.yul\":15404:15535   */\n      tag_361\n        /* \"#utility.yul\":15530:15534   */\n      dup2\n        /* \"#utility.yul\":15404:15535   */\n      tag_298\n      jump\t// in\n    tag_361:\n        /* \"#utility.yul\":15396:15535   */\n      swap1\n      pop\n        /* \"#utility.yul\":15123:15542   */\n      swap2\n      swap1\n      pop\n      jump\t// out\n        /* \"#utility.yul\":15548:15967   */\n    tag_104:\n        /* \"#utility.yul\":15714:15718   */\n      0x00\n        /* \"#utility.yul\":15752:15754   */\n      0x20\n        /* \"#utility.yul\":15741:15750   */\n      dup3\n        /* \"#utility.yul\":15737:15755   */\n      add\n        /* \"#utility.yul\":15729:15755   */\n      swap1\n      pop\n        /* \"#utility.yul\":15801:15810   */\n      dup2\n        /* \"#utility.yul\":15795:15799   */\n      dup2\n        /* \"#utility.yul\":15791:15811   */\n      sub\n        /* \"#utility.yul\":15787:15788   */\n      0x00\n        /* \"#utility.yul\":15776:15785   */\n      dup4\n        /* \"#utility.yul\":15772:15789   */\n      add\n        /* \"#utility.yul\":15765:15812   */\n      mstore\n        /* \"#utility.yul\":15829:15960   */\n      tag_363\n        /* \"#utility.yul\":15955:15959   */\n      dup2\n        /* \"#utility.yul\":15829:15960   */\n      tag_303\n      jump\t// in\n    tag_363:\n        /* \"#utility.yul\":15821:15960   */\n      swap1\n      pop\n        /* \"#utility.yul\":15548:15967   */\n      swap2\n      swap1\n      pop\n      jump\t// out\n        /* \"#utility.yul\":15973:16392   */\n    tag_138:\n        /* \"#utility.yul\":16139:16143   */\n      0x00\n        /* \"#utility.yul\":16177:16179   */\n      0x20\n        /* \"#utility.yul\":16166:16175   */\n      dup3\n        /* \"#utility.yul\":16162:16180   */\n      add\n        /* \"#utility.yul\":16154:16180   */\n      swap1\n      pop\n        /* \"#utility.yul\":16226:16235   */\n      dup2\n        /* \"#utility.yul\":16220:16224   */\n      dup2\n        /* \"#utility.yul\":16216:16236   */\n      sub\n        /* \"#utility.yul\":16212:16213   */\n      0x00\n        /* \"#utility.yul\":16201:16210   */\n      dup4\n        /* \"#utility.yul\":16197:16214   */\n      add\n        /* \"#utility.yul\":16190:16237   */\n      mstore\n        /* \"#utility.yul\":16254:16385   */\n      tag_365\n        /* \"#utility.yul\":16380:16384   */\n      dup2\n        /* \"#utility.yul\":16254:16385   */\n      tag_308\n      jump\t// in\n    tag_365:\n        /* \"#utility.yul\":16246:16385   */\n      swap1\n      pop\n        /* \"#utility.yul\":15973:16392   */\n      swap2\n      swap1\n      pop\n      jump\t// out\n        /* \"#utility.yul\":16398:16817   */\n    tag_116:\n        /* \"#utility.yul\":16564:16568   */\n      0x00\n        /* \"#utility.yul\":16602:16604   */\n      0x20\n        /* \"#utility.yul\":16591:16600   */\n      dup3\n        /* \"#utility.yul\":16587:16605   */\n      add\n        /* \"#utility.yul\":16579:16605   */\n      swap1\n      pop\n        /* \"#utility.yul\":16651:16660   */\n      dup2\n        /* \"#utility.yul\":16645:16649   */\n      dup2\n        /* \"#utility.yul\":16641:16661   */\n      sub\n        /* \"#utility.yul\":16637:16638   */\n      0x00\n        /* \"#utility.yul\":16626:16635   */\n      dup4\n        /* \"#utility.yul\":16622:16639   */\n      add\n        /* \"#utility.yul\":16615:16662   */\n      mstore\n        /* \"#utility.yul\":16679:16810   */\n      tag_367\n        /* \"#utility.yul\":16805:16809   */\n      dup2\n        /* \"#utility.yul\":16679:16810   */\n      tag_313\n      jump\t// in\n    tag_367:\n        /* \"#utility.yul\":16671:16810   */\n      swap1\n      pop\n        /* \"#utility.yul\":16398:16817   */\n      swap2\n      swap1\n      pop\n      jump\t// out\n        /* \"#utility.yul\":16823:17242   */\n    tag_179:\n        /* \"#utility.yul\":16989:16993   */\n      0x00\n        /* \"#utility.yul\":17027:17029   */\n      0x20\n        /* \"#utility.yul\":17016:17025   */\n      dup3\n        /* \"#utility.yul\":17012:17030   */\n      add\n        /* \"#utility.yul\":17004:17030   */\n      swap1\n      pop\n        /* \"#utility.yul\":17076:17085   */\n      dup2\n        /* \"#utility.yul\":17070:17074   */\n      dup2\n        /* \"#utility.yul\":17066:17086   */\n      sub\n        /* \"#utility.yul\":17062:17063   */\n      0x00\n        /* \"#utility.yul\":17051:17060   */\n      dup4\n        /* \"#utility.yul\":17047:17064   */\n      add\n        /* \"#utility.yul\":17040:17087   */\n      mstore\n        /* \"#utility.yul\":17104:17235   */\n      tag_369\n        /* \"#utility.yul\":17230:17234   */\n      dup2\n        /* \"#utility.yul\":17104:17235   */\n      tag_318\n      jump\t// in\n    tag_369:\n        /* \"#utility.yul\":17096:17235   */\n      swap1\n      pop\n        /* \"#utility.yul\":16823:17242   */\n      swap2\n      swap1\n      pop\n      jump\t// out\n        /* \"#utility.yul\":17248:17470   */\n    tag_39:\n        /* \"#utility.yul\":17341:17345   */\n      0x00\n        /* \"#utility.yul\":17379:17381   */\n      0x20\n        /* \"#utility.yul\":17368:17377   */\n      dup3\n        /* \"#utility.yul\":17364:17382   */\n      add\n        /* \"#utility.yul\":17356:17382   */\n      swap1\n      pop\n        /* \"#utility.yul\":17392:17463   */\n      tag_371\n        /* \"#utility.yul\":17460:17461   */\n      0x00\n        /* \"#utility.yul\":17449:17458   */\n      dup4\n        /* \"#utility.yul\":17445:17462   */\n      add\n        /* \"#utility.yul\":17436:17442   */\n      dup5\n        /* \"#utility.yul\":17392:17463   */\n      tag_323\n      jump\t// in\n    tag_371:\n        /* \"#utility.yul\":17248:17470   */\n      swap3\n      swap2\n      pop\n      pop\n      jump\t// out\n        /* \"#utility.yul\":17557:17726   */\n    tag_265:\n        /* \"#utility.yul\":17641:17652   */\n      0x00\n        /* \"#utility.yul\":17675:17681   */\n      dup3\n        /* \"#utility.yul\":17670:17673   */\n      dup3\n        /* \"#utility.yul\":17663:17682   */\n      mstore\n        /* \"#utility.yul\":17715:17719   */\n      0x20\n        /* \"#utility.yul\":17710:17713   */\n      dup3\n        /* \"#utility.yul\":17706:17720   */\n      add\n        /* \"#utility.yul\":17691:17720   */\n      swap1\n      pop\n        /* \"#utility.yul\":17557:17726   */\n      swap3\n      swap2\n      pop\n      pop\n      jump\t// out\n        /* \"#utility.yul\":17732:18037   */\n    tag_17:\n        /* \"#utility.yul\":17772:17775   */\n      0x00\n        /* \"#utility.yul\":17791:17811   */\n      tag_376\n        /* \"#utility.yul\":17809:17810   */\n      dup3\n        /* \"#utility.yul\":17791:17811   */\n      tag_326\n      jump\t// in\n    tag_376:\n        /* \"#utility.yul\":17786:17811   */\n      swap2\n      pop\n        /* \"#utility.yul\":17825:17845   */\n      tag_377\n        /* \"#utility.yul\":17843:17844   */\n      dup4\n        /* \"#utility.yul\":17825:17845   */\n      tag_326\n      jump\t// in\n    tag_377:\n        /* \"#utility.yul\":17820:17845   */\n      swap3\n      pop\n        /* \"#utility.yul\":17979:17980   */\n      dup3\n        /* \"#utility.yul\":17911:17977   */\n      0xffffffffffffffffffffffffffffffffffffffffffffffffffffffffffffffff\n        /* \"#utility.yul\":17907:17981   */\n      sub\n        /* \"#utility.yul\":17904:17905   */\n      dup3\n        /* \"#utility.yul\":17901:17982   */\n      gt\n        /* \"#utility.yul\":17898:18005   */\n      iszero\n      tag_378\n      jumpi\n        /* \"#utility.yul\":17985:18003   */\n      tag_379\n      tag_380\n      jump\t// in\n    tag_379:\n        /* \"#utility.yul\":17898:18005   */\n    tag_378:\n        /* \"#utility.yul\":18029:18030   */\n      dup3\n        /* \"#utility.yul\":18026:18027   */\n      dup3\n        /* \"#utility.yul\":18022:18031   */\n      add\n        /* \"#utility.yul\":18015:18031   */\n      swap1\n      pop\n        /* \"#utility.yul\":17732:18037   */\n      swap3\n      swap2\n      pop\n      pop\n      jump\t// out\n        /* \"#utility.yul\":18043:18228   */\n    tag_118:\n        /* \"#utility.yul\":18083:18084   */\n      0x00\n        /* \"#utility.yul\":18100:18120   */\n      tag_382\n        /* \"#utility.yul\":18118:18119   */\n      dup3\n        /* \"#utility.yul\":18100:18120   */\n      tag_326\n      jump\t// in\n    tag_382:\n        /* \"#utility.yul\":18095:18120   */\n      swap2\n      pop\n        /* \"#utility.yul\":18134:18154   */\n      tag_383\n        /* \"#utility.yul\":18152:18153   */\n      dup4\n        /* \"#utility.yul\":18134:18154   */\n      tag_326\n      jump\t// in\n    tag_383:\n        /* \"#utility.yul\":18129:18154   */\n      swap3\n      pop\n        /* \"#utility.yul\":18173:18174   */\n      dup3\n        /* \"#utility.yul\":18163:18198   */\n      tag_384\n      jumpi\n        /* \"#utility.yul\":18178:18196   */\n      tag_385\n      tag_386\n      jump\t// in\n    tag_385:\n        /* \"#utility.yul\":18163:18198   */\n    tag_384:\n        /* \"#utility.yul\":18220:18221   */\n      dup3\n        /* \"#utility.yul\":18217:18218   */\n      dup3\n        /* \"#utility.yul\":18213:18222   */\n      div\n        /* \"#utility.yul\":18208:18222   */\n      swap1\n      pop\n        /* \"#utility.yul\":18043:18228   */\n      swap3\n      swap2\n      pop\n      pop\n      jump\t// out\n        /* \"#utility.yul\":18234:18582   */\n    tag_147:\n        /* \"#utility.yul\":18274:18281   */\n      0x00\n        /* \"#utility.yul\":18297:18317   */\n      tag_388\n        /* \"#utility.yul\":18315:18316   */\n      dup3\n        /* \"#utility.yul\":18297:18317   */\n      tag_326\n      jump\t// in\n    tag_388:\n        /* \"#utility.yul\":18292:18317   */\n      swap2\n      pop\n        /* \"#utility.yul\":18331:18351   */\n      tag_389\n        /* \"#utility.yul\":18349:18350   */\n      dup4\n        /* \"#utility.yul\":18331:18351   */\n      tag_326\n      jump\t// in\n    tag_389:\n        /* \"#utility.yul\":18326:18351   */\n      swap3\n      pop\n        /* \"#utility.yul\":18519:18520   */\n      dup2\n        /* \"#utility.yul\":18451:18517   */\n      0xffffffffffffffffffffffffffffffffffffffffffffffffffffffffffffffff\n        /* \"#utility.yul\":18447:18521   */\n      div\n        /* \"#utility.yul\":18444:18445   */\n      dup4\n        /* \"#utility.yul\":18441:18522   */\n      gt\n        /* \"#utility.yul\":18436:18437   */\n      dup3\n        /* \"#utility.yul\":18429:18438   */\n      iszero\n        /* \"#utility.yul\":18422:18439   */\n      iszero\n        /* \"#utility.yul\":18418:18523   */\n      and\n        /* \"#utility.yul\":18415:18546   */\n      iszero\n      tag_390\n      jumpi\n        /* \"#utility.yul\":18526:18544   */\n      tag_391\n      tag_380\n      jump\t// in\n    tag_391:\n        /* \"#utility.yul\":18415:18546   */\n    tag_390:\n        /* \"#utility.yul\":18574:18575   */\n      dup3\n        /* \"#utility.yul\":18571:18572   */\n      dup3\n        /* \"#utility.yul\":18567:18576   */\n      mul\n        /* \"#utility.yul\":18556:18576   */\n      swap1\n      pop\n        /* \"#utility.yul\":18234:18582   */\n      swap3\n      swap2\n      pop\n      pop\n      jump\t// out\n        /* \"#utility.yul\":18588:18779   */\n    tag_78:\n        /* \"#utility.yul\":18628:18632   */\n      0x00\n        /* \"#utility.yul\":18648:18668   */\n      tag_393\n        /* \"#utility.yul\":18666:18667   */\n      dup3\n        /* \"#utility.yul\":18648:18668   */\n      tag_326\n      jump\t// in\n    tag_393:\n        /* \"#utility.yul\":18643:18668   */\n      swap2\n      pop\n        /* \"#utility.yul\":18682:18702   */\n      tag_394\n        /* \"#utility.yul\":18700:18701   */\n      dup4\n        /* \"#utility.yul\":18682:18702   */\n      tag_326\n      jump\t// in\n    tag_394:\n        /* \"#utility.yul\":18677:18702   */\n      swap3\n      pop\n        /* \"#utility.yul\":18721:18722   */\n      dup3\n        /* \"#utility.yul\":18718:18719   */\n      dup3\n        /* \"#utility.yul\":18715:18723   */\n      lt\n        /* \"#utility.yul\":18712:18746   */\n      iszero\n      tag_395\n      jumpi\n        /* \"#utility.yul\":18726:18744   */\n      tag_396\n      tag_380\n      jump\t// in\n    tag_396:\n        /* \"#utility.yul\":18712:18746   */\n    tag_395:\n        /* \"#utility.yul\":18771:18772   */\n      dup3\n        /* \"#utility.yul\":18768:18769   */\n      dup3\n        /* \"#utility.yul\":18764:18773   */\n      sub\n        /* \"#utility.yul\":18756:18773   */\n      swap1\n      pop\n        /* \"#utility.yul\":18588:18779   */\n      swap3\n      swap2\n      pop\n      pop\n      jump\t// out\n        /* \"#utility.yul\":18785:18881   */\n    tag_261:\n        /* \"#utility.yul\":18822:18829   */\n      0x00\n        /* \"#utility.yul\":18851:18875   */\n      tag_398\n        /* \"#utility.yul\":18869:18874   */\n      dup3\n        /* \"#utility.yul\":18851:18875   */\n      tag_399\n      jump\t// in\n    tag_398:\n        /* \"#utility.yul\":18840:18875   */\n      swap1\n      pop\n        /* \"#utility.yul\":18785:18881   */\n      swap2\n      swap1\n      pop\n      jump\t// out\n        /* \"#utility.yul\":18887:18991   */\n    tag_400:\n        /* \"#utility.yul\":18932:18939   */\n      0x00\n        /* \"#utility.yul\":18961:18985   */\n      tag_402\n        /* \"#utility.yul\":18979:18984   */\n      dup3\n        /* \"#utility.yul\":18961:18985   */\n      tag_399\n      jump\t// in\n    tag_402:\n        /* \"#utility.yul\":18950:18985   */\n      swap1\n      pop\n        /* \"#utility.yul\":18887:18991   */\n      swap2\n      swap1\n      pop\n      jump\t// out\n        /* \"#utility.yul\":18997:19087   */\n    tag_403:\n        /* \"#utility.yul\":19031:19038   */\n      0x00\n        /* \"#utility.yul\":19074:19079   */\n      dup2\n        /* \"#utility.yul\":19067:19080   */\n      iszero\n        /* \"#utility.yul\":19060:19081   */\n      iszero\n        /* \"#utility.yul\":19049:19081   */\n      swap1\n      pop\n        /* \"#utility.yul\":18997:19087   */\n      swap2\n      swap1\n      pop\n      jump\t// out\n        /* \"#utility.yul\":19093:19202   */\n    tag_405:\n        /* \"#utility.yul\":19143:19150   */\n      0x00\n        /* \"#utility.yul\":19172:19196   */\n      tag_407\n        /* \"#utility.yul\":19190:19195   */\n      dup3\n        /* \"#utility.yul\":19172:19196   */\n      tag_261\n      jump\t// in\n    tag_407:\n        /* \"#utility.yul\":19161:19196   */\n      swap1\n      pop\n        /* \"#utility.yul\":19093:19202   */\n      swap2\n      swap1\n      pop\n      jump\t// out\n        /* \"#utility.yul\":19208:19334   */\n    tag_399:\n        /* \"#utility.yul\":19245:19252   */\n      0x00\n        /* \"#utility.yul\":19285:19327   */\n      0xffffffffffffffffffffffffffffffffffffffff\n        /* \"#utility.yul\":19278:19283   */\n      dup3\n        /* \"#utility.yul\":19274:19328   */\n      and\n        /* \"#utility.yul\":19263:19328   */\n      swap1\n      pop\n        /* \"#utility.yul\":19208:19334   */\n      swap2\n      swap1\n      pop\n      jump\t// out\n        /* \"#utility.yul\":19340:19417   */\n    tag_326:\n        /* \"#utility.yul\":19377:19384   */\n      0x00\n        /* \"#utility.yul\":19406:19411   */\n      dup2\n        /* \"#utility.yul\":19395:19411   */\n      swap1\n      pop\n        /* \"#utility.yul\":19340:19417   */\n      swap2\n      swap1\n      pop\n      jump\t// out\n        /* \"#utility.yul\":19423:19557   */\n    tag_257:\n        /* \"#utility.yul\":19481:19490   */\n      0x00\n        /* \"#utility.yul\":19514:19551   */\n      tag_411\n        /* \"#utility.yul\":19545:19550   */\n      dup3\n        /* \"#utility.yul\":19514:19551   */\n      tag_412\n      jump\t// in\n    tag_411:\n        /* \"#utility.yul\":19501:19551   */\n      swap1\n      pop\n        /* \"#utility.yul\":19423:19557   */\n      swap2\n      swap1\n      pop\n      jump\t// out\n        /* \"#utility.yul\":19563:19689   */\n    tag_412:\n        /* \"#utility.yul\":19613:19622   */\n      0x00\n        /* \"#utility.yul\":19646:19683   */\n      tag_414\n        /* \"#utility.yul\":19677:19682   */\n      dup3\n        /* \"#utility.yul\":19646:19683   */\n      tag_415\n      jump\t// in\n    tag_414:\n        /* \"#utility.yul\":19633:19683   */\n      swap1\n      pop\n        /* \"#utility.yul\":19563:19689   */\n      swap2\n      swap1\n      pop\n      jump\t// out\n        /* \"#utility.yul\":19695:19808   */\n    tag_415:\n        /* \"#utility.yul\":19745:19754   */\n      0x00\n        /* \"#utility.yul\":19778:19802   */\n      tag_417\n        /* \"#utility.yul\":19796:19801   */\n      dup3\n        /* \"#utility.yul\":19778:19802   */\n      tag_399\n      jump\t// in\n    tag_417:\n        /* \"#utility.yul\":19765:19802   */\n      swap1\n      pop\n        /* \"#utility.yul\":19695:19808   */\n      swap2\n      swap1\n      pop\n      jump\t// out\n        /* \"#utility.yul\":19814:19994   */\n    tag_380:\n        /* \"#utility.yul\":19862:19939   */\n      0x4e487b7100000000000000000000000000000000000000000000000000000000\n        /* \"#utility.yul\":19859:19860   */\n      0x00\n        /* \"#utility.yul\":19852:19940   */\n      mstore\n        /* \"#utility.yul\":19959:19963   */\n      0x11\n        /* \"#utility.yul\":19956:19957   */\n      0x04\n        /* \"#utility.yul\":19949:19964   */\n      mstore\n        /* \"#utility.yul\":19983:19987   */\n      0x24\n        /* \"#utility.yul\":19980:19981   */\n      0x00\n        /* \"#utility.yul\":19973:19988   */\n      revert\n        /* \"#utility.yul\":20000:20180   */\n    tag_386:\n        /* \"#utility.yul\":20048:20125   */\n      0x4e487b7100000000000000000000000000000000000000000000000000000000\n        /* \"#utility.yul\":20045:20046   */\n      0x00\n        /* \"#utility.yul\":20038:20126   */\n      mstore\n        /* \"#utility.yul\":20145:20149   */\n      0x12\n        /* \"#utility.yul\":20142:20143   */\n      0x04\n        /* \"#utility.yul\":20135:20150   */\n      mstore\n        /* \"#utility.yul\":20169:20173   */\n      0x24\n        /* \"#utility.yul\":20166:20167   */\n      0x00\n        /* \"#utility.yul\":20159:20174   */\n      revert\n        /* \"#utility.yul\":20309:20426   */\n    tag_213:\n        /* \"#utility.yul\":20418:20419   */\n      0x00\n        /* \"#utility.yul\":20415:20416   */\n      dup1\n        /* \"#utility.yul\":20408:20420   */\n      revert\n        /* \"#utility.yul\":20432:20674   */\n    tag_267:\n        /* \"#utility.yul\":20572:20606   */\n      0x546f6b656e20776869636820796f752073656c6c20636f6e76657273696f6e20\n        /* \"#utility.yul\":20568:20569   */\n      0x00\n        /* \"#utility.yul\":20560:20566   */\n      dup3\n        /* \"#utility.yul\":20556:20570   */\n      add\n        /* \"#utility.yul\":20549:20607   */\n      mstore\n        /* \"#utility.yul\":20641:20666   */\n      0x72617465206973206e6f7420646566696e656420796574000000000000000000\n        /* \"#utility.yul\":20636:20638   */\n      0x20\n        /* \"#utility.yul\":20628:20634   */\n      dup3\n        /* \"#utility.yul\":20624:20639   */\n      add\n        /* \"#utility.yul\":20617:20667   */\n      mstore\n        /* \"#utility.yul\":20432:20674   */\n      pop\n      jump\t// out\n        /* \"#utility.yul\":20680:20922   */\n    tag_272:\n        /* \"#utility.yul\":20820:20854   */\n      0x5377617020636f6e747261637420646f6573206e6f74206861766520656e6f75\n        /* \"#utility.yul\":20816:20817   */\n      0x00\n        /* \"#utility.yul\":20808:20814   */\n      dup3\n        /* \"#utility.yul\":20804:20818   */\n      add\n        /* \"#utility.yul\":20797:20855   */\n      mstore\n        /* \"#utility.yul\":20889:20914   */\n      0x676820617661696c61626c652045544820616d6f756e74000000000000000000\n        /* \"#utility.yul\":20884:20886   */\n      0x20\n        /* \"#utility.yul\":20876:20882   */\n      dup3\n        /* \"#utility.yul\":20872:20887   */\n      add\n        /* \"#utility.yul\":20865:20915   */\n      mstore\n        /* \"#utility.yul\":20680:20922   */\n      pop\n      jump\t// out\n        /* \"#utility.yul\":20928:21167   */\n    tag_277:\n        /* \"#utility.yul\":21068:21102   */\n      0x596f752063616e206e6f742073656c6c206d6f726520746f6b656e7320746861\n        /* \"#utility.yul\":21064:21065   */\n      0x00\n        /* \"#utility.yul\":21056:21062   */\n      dup3\n        /* \"#utility.yul\":21052:21066   */\n      add\n        /* \"#utility.yul\":21045:21103   */\n      mstore\n        /* \"#utility.yul\":21137:21159   */\n      0x6e20796f752063757272656e746c7920686f6c64000000000000000000000000\n        /* \"#utility.yul\":21132:21134   */\n      0x20\n        /* \"#utility.yul\":21124:21130   */\n      dup3\n        /* \"#utility.yul\":21120:21135   */\n      add\n        /* \"#utility.yul\":21113:21160   */\n      mstore\n        /* \"#utility.yul\":20928:21167   */\n      pop\n      jump\t// out\n        /* \"#utility.yul\":21173:21352   */\n    tag_282:\n        /* \"#utility.yul\":21313:21344   */\n      0x4f6e6c79206f776e65722063616e2077697468647261772066756e6473000000\n        /* \"#utility.yul\":21309:21310   */\n      0x00\n        /* \"#utility.yul\":21301:21307   */\n      dup3\n        /* \"#utility.yul\":21297:21311   */\n      add\n        /* \"#utility.yul\":21290:21345   */\n      mstore\n        /* \"#utility.yul\":21173:21352   */\n      pop\n      jump\t// out\n        /* \"#utility.yul\":21358:21526   */\n    tag_287:\n        /* \"#utility.yul\":21498:21518   */\n      0x496e73756666696369656e742066756e64730000000000000000000000000000\n        /* \"#utility.yul\":21494:21495   */\n      0x00\n        /* \"#utility.yul\":21486:21492   */\n      dup3\n        /* \"#utility.yul\":21482:21496   */\n      add\n        /* \"#utility.yul\":21475:21519   */\n      mstore\n        /* \"#utility.yul\":21358:21526   */\n      pop\n      jump\t// out\n        /* \"#utility.yul\":21532:21709   */\n    tag_292:\n        /* \"#utility.yul\":21672:21701   */\n      0x4e6f7420656e6f7567682066756e6473206f6e20457468537761700000000000\n        /* \"#utility.yul\":21668:21669   */\n      0x00\n        /* \"#utility.yul\":21660:21666   */\n      dup3\n        /* \"#utility.yul\":21656:21670   */\n      add\n        /* \"#utility.yul\":21649:21702   */\n      mstore\n        /* \"#utility.yul\":21532:21709   */\n      pop\n      jump\t// out\n        /* \"#utility.yul\":21715:21956   */\n    tag_297:\n        /* \"#utility.yul\":21855:21889   */\n      0x546f6b656e20776869636820796f752062757920636f6e76657273696f6e2072\n        /* \"#utility.yul\":21851:21852   */\n      0x00\n        /* \"#utility.yul\":21843:21849   */\n      dup3\n        /* \"#utility.yul\":21839:21853   */\n      add\n        /* \"#utility.yul\":21832:21890   */\n      mstore\n        /* \"#utility.yul\":21924:21948   */\n      0x617465206973206e6f7420646566696e65642079657400000000000000000000\n        /* \"#utility.yul\":21919:21921   */\n      0x20\n        /* \"#utility.yul\":21911:21917   */\n      dup3\n        /* \"#utility.yul\":21907:21922   */\n      add\n        /* \"#utility.yul\":21900:21949   */\n      mstore\n        /* \"#utility.yul\":21715:21956   */\n      pop\n      jump\t// out\n        /* \"#utility.yul\":21962:22126   */\n    tag_302:\n        /* \"#utility.yul\":22102:22118   */\n      0x62616c616e6365206973206c6f77000000000000000000000000000000000000\n        /* \"#utility.yul\":22098:22099   */\n      0x00\n        /* \"#utility.yul\":22090:22096   */\n      dup3\n        /* \"#utility.yul\":22086:22100   */\n      add\n        /* \"#utility.yul\":22079:22119   */\n      mstore\n        /* \"#utility.yul\":21962:22126   */\n      pop\n      jump\t// out\n        /* \"#utility.yul\":22132:22353   */\n    tag_307:\n        /* \"#utility.yul\":22272:22306   */\n      0x4f6e6c79206f776e65722063616e2073657420636f6e76657273696f6e207261\n        /* \"#utility.yul\":22268:22269   */\n      0x00\n        /* \"#utility.yul\":22260:22266   */\n      dup3\n        /* \"#utility.yul\":22256:22270   */\n      add\n        /* \"#utility.yul\":22249:22307   */\n      mstore\n        /* \"#utility.yul\":22341:22345   */\n      0x7465000000000000000000000000000000000000000000000000000000000000\n        /* \"#utility.yul\":22336:22338   */\n      0x20\n        /* \"#utility.yul\":22328:22334   */\n      dup3\n        /* \"#utility.yul\":22324:22339   */\n      add\n        /* \"#utility.yul\":22317:22346   */\n      mstore\n        /* \"#utility.yul\":22132:22353   */\n      pop\n      jump\t// out\n        /* \"#utility.yul\":22359:22585   */\n    tag_312:\n        /* \"#utility.yul\":22499:22533   */\n      0x4e6f7420656e6f7567682066756e647320746f2073776170206f6e2075736572\n        /* \"#utility.yul\":22495:22496   */\n      0x00\n        /* \"#utility.yul\":22487:22493   */\n      dup3\n        /* \"#utility.yul\":22483:22497   */\n      add\n        /* \"#utility.yul\":22476:22534   */\n      mstore\n        /* \"#utility.yul\":22568:22577   */\n      0x2077616c6c657400000000000000000000000000000000000000000000000000\n        /* \"#utility.yul\":22563:22565   */\n      0x20\n        /* \"#utility.yul\":22555:22561   */\n      dup3\n        /* \"#utility.yul\":22551:22566   */\n      add\n        /* \"#utility.yul\":22544:22578   */\n      mstore\n        /* \"#utility.yul\":22359:22585   */\n      pop\n      jump\t// out\n        /* \"#utility.yul\":22591:22818   */\n    tag_317:\n        /* \"#utility.yul\":22731:22765   */\n      0x546f6b656e20636f6e76657273696f6e2072617465206973206e6f7420646566\n        /* \"#utility.yul\":22727:22728   */\n      0x00\n        /* \"#utility.yul\":22719:22725   */\n      dup3\n        /* \"#utility.yul\":22715:22729   */\n      add\n        /* \"#utility.yul\":22708:22766   */\n      mstore\n        /* \"#utility.yul\":22800:22810   */\n      0x696e656420796574000000000000000000000000000000000000000000000000\n        /* \"#utility.yul\":22795:22797   */\n      0x20\n        /* \"#utility.yul\":22787:22793   */\n      dup3\n        /* \"#utility.yul\":22783:22798   */\n      add\n        /* \"#utility.yul\":22776:22811   */\n      mstore\n        /* \"#utility.yul\":22591:22818   */\n      pop\n      jump\t// out\n        /* \"#utility.yul\":22824:23062   */\n    tag_322:\n        /* \"#utility.yul\":22964:22998   */\n      0x4e6f7420656e6f75676820746f6b656e73206f6e207377617020636f6e747261\n        /* \"#utility.yul\":22960:22961   */\n      0x00\n        /* \"#utility.yul\":22952:22958   */\n      dup3\n        /* \"#utility.yul\":22948:22962   */\n      add\n        /* \"#utility.yul\":22941:22999   */\n      mstore\n        /* \"#utility.yul\":23033:23054   */\n      0x637420617661696c61626c6520746f2062757900000000000000000000000000\n        /* \"#utility.yul\":23028:23030   */\n      0x20\n        /* \"#utility.yul\":23020:23026   */\n      dup3\n        /* \"#utility.yul\":23016:23031   */\n      add\n        /* \"#utility.yul\":23009:23055   */\n      mstore\n        /* \"#utility.yul\":22824:23062   */\n      pop\n      jump\t// out\n        /* \"#utility.yul\":23068:23190   */\n    tag_190:\n        /* \"#utility.yul\":23141:23165   */\n      tag_436\n        /* \"#utility.yul\":23159:23164   */\n      dup2\n        /* \"#utility.yul\":23141:23165   */\n      tag_261\n      jump\t// in\n    tag_436:\n        /* \"#utility.yul\":23134:23139   */\n      dup2\n        /* \"#utility.yul\":23131:23166   */\n      eq\n        /* \"#utility.yul\":23121:23184   */\n      tag_437\n      jumpi\n        /* \"#utility.yul\":23180:23181   */\n      0x00\n        /* \"#utility.yul\":23177:23178   */\n      dup1\n        /* \"#utility.yul\":23170:23182   */\n      revert\n        /* \"#utility.yul\":23121:23184   */\n    tag_437:\n        /* \"#utility.yul\":23068:23190   */\n      pop\n      jump\t// out\n        /* \"#utility.yul\":23196:23334   */\n    tag_194:\n        /* \"#utility.yul\":23277:23309   */\n      tag_439\n        /* \"#utility.yul\":23303:23308   */\n      dup2\n        /* \"#utility.yul\":23277:23309   */\n      tag_400\n      jump\t// in\n    tag_439:\n        /* \"#utility.yul\":23270:23275   */\n      dup2\n        /* \"#utility.yul\":23267:23310   */\n      eq\n        /* \"#utility.yul\":23257:23328   */\n      tag_440\n      jumpi\n        /* \"#utility.yul\":23324:23325   */\n      0x00\n        /* \"#utility.yul\":23321:23322   */\n      dup1\n        /* \"#utility.yul\":23314:23326   */\n      revert\n        /* \"#utility.yul\":23257:23328   */\n    tag_440:\n        /* \"#utility.yul\":23196:23334   */\n      pop\n      jump\t// out\n        /* \"#utility.yul\":23340:23456   */\n    tag_198:\n        /* \"#utility.yul\":23410:23431   */\n      tag_442\n        /* \"#utility.yul\":23425:23430   */\n      dup2\n        /* \"#utility.yul\":23410:23431   */\n      tag_403\n      jump\t// in\n    tag_442:\n        /* \"#utility.yul\":23403:23408   */\n      dup2\n        /* \"#utility.yul\":23400:23432   */\n      eq\n        /* \"#utility.yul\":23390:23450   */\n      tag_443\n      jumpi\n        /* \"#utility.yul\":23446:23447   */\n      0x00\n        /* \"#utility.yul\":23443:23444   */\n      dup1\n        /* \"#utility.yul\":23436:23448   */\n      revert\n        /* \"#utility.yul\":23390:23450   */\n    tag_443:\n        /* \"#utility.yul\":23340:23456   */\n      pop\n      jump\t// out\n        /* \"#utility.yul\":23462:23610   */\n    tag_202:\n        /* \"#utility.yul\":23548:23585   */\n      tag_445\n        /* \"#utility.yul\":23579:23584   */\n      dup2\n        /* \"#utility.yul\":23548:23585   */\n      tag_405\n      jump\t// in\n    tag_445:\n        /* \"#utility.yul\":23541:23546   */\n      dup2\n        /* \"#utility.yul\":23538:23586   */\n      eq\n        /* \"#utility.yul\":23528:23604   */\n      tag_446\n      jumpi\n        /* \"#utility.yul\":23600:23601   */\n      0x00\n        /* \"#utility.yul\":23597:23598   */\n      dup1\n        /* \"#utility.yul\":23590:23602   */\n      revert\n        /* \"#utility.yul\":23528:23604   */\n    tag_446:\n        /* \"#utility.yul\":23462:23610   */\n      pop\n      jump\t// out\n        /* \"#utility.yul\":23616:23738   */\n    tag_206:\n        /* \"#utility.yul\":23689:23713   */\n      tag_448\n        /* \"#utility.yul\":23707:23712   */\n      dup2\n        /* \"#utility.yul\":23689:23713   */\n      tag_326\n      jump\t// in\n    tag_448:\n        /* \"#utility.yul\":23682:23687   */\n      dup2\n        /* \"#utility.yul\":23679:23714   */\n      eq\n        /* \"#utility.yul\":23669:23732   */\n      tag_449\n      jumpi\n        /* \"#utility.yul\":23728:23729   */\n      0x00\n        /* \"#utility.yul\":23725:23726   */\n      dup1\n        /* \"#utility.yul\":23718:23730   */\n      revert\n        /* \"#utility.yul\":23669:23732   */\n    tag_449:\n        /* \"#utility.yul\":23616:23738   */\n      pop\n      jump\t// out\n\n    auxdata: 0xa264697066735822122056fa8a1e4f7db078c12307463c08f85a988d4d4b4933ba207ff10a25d9545d4a64736f6c63430008070033\n}\n",
				"bytecode": {
					"linkReferences": {},
					"object": "60806040523480156200001157600080fd5b5060405162002275380380620022758339818101604052810190620000379190620002e7565b336000806101000a81548173ffffffffffffffffffffffffffffffffffffffff021916908373ffffffffffffffffffffffffffffffffffffffff16021790555060008273ffffffffffffffffffffffffffffffffffffffff166370a08231306040518263ffffffff1660e01b8152600401620000b4919062000371565b60206040518083038186803b158015620000cd57600080fd5b505afa158015620000e2573d6000803e3d6000fd5b505050506040513d601f19601f820116820180604052508101906200010891906200032e565b905060008273ffffffffffffffffffffffffffffffffffffffff166370a08231306040518263ffffffff1660e01b815260040162000147919062000371565b60206040518083038186803b1580156200016057600080fd5b505afa15801562000175573d6000803e3d6000fd5b505050506040513d601f19601f820116820180604052508101906200019b91906200032e565b905081600360008673ffffffffffffffffffffffffffffffffffffffff1673ffffffffffffffffffffffffffffffffffffffff1681526020019081526020016000208190555080600360008573ffffffffffffffffffffffffffffffffffffffff1673ffffffffffffffffffffffffffffffffffffffff168152602001908152602001600020819055506064600260008673ffffffffffffffffffffffffffffffffffffffff1673ffffffffffffffffffffffffffffffffffffffff16815260200190815260200160002081905550600a600260008573ffffffffffffffffffffffffffffffffffffffff1673ffffffffffffffffffffffffffffffffffffffff168152602001908152602001600020819055505050505062000405565b600081519050620002ca81620003d1565b92915050565b600081519050620002e181620003eb565b92915050565b60008060408385031215620003015762000300620003cc565b5b60006200031185828601620002b9565b92505060206200032485828601620002b9565b9150509250929050565b600060208284031215620003475762000346620003cc565b5b60006200035784828501620002d0565b91505092915050565b6200036b816200038e565b82525050565b600060208201905062000388600083018462000360565b92915050565b60006200039b82620003a2565b9050919050565b600073ffffffffffffffffffffffffffffffffffffffff82169050919050565b6000819050919050565b600080fd5b620003dc816200038e565b8114620003e857600080fd5b50565b620003f681620003c2565b81146200040257600080fd5b50565b611e6080620004156000396000f3fe6080604052600436106100945760003560e01c8063c464fe6511610059578063c464fe65146101c3578063dba243d3146101df578063df680b4f1461021c578063ec6cc0cc14610259578063ec8ac4d814610275576100ed565b8062f714ce146100f25780638da5cb5b1461011b5780639db5dbe414610146578063b69ef8a81461016f578063c1458c091461019a576100ed565b366100ed5734600160008282546100ab9190611881565b925050819055507ff1b03f708b9c39f453fe3f0cef84164c7d6f7df836df0796e1e9c2bce6ee397e33346040516100e39291906116ac565b60405180910390a1005b600080fd5b3480156100fe57600080fd5b50610119600480360381019061011491906113bf565b610291565b005b34801561012757600080fd5b50610130610403565b60405161013d91906115d0565b60405180910390f35b34801561015257600080fd5b5061016d600480360381019061016891906112ac565b610427565b005b34801561017b57600080fd5b50610184610654565b6040516101919190611855565b60405180910390f35b3480156101a657600080fd5b506101c160048036038101906101bc9190611212565b61065a565b005b6101dd60048036038101906101d89190611352565b610730565b005b3480156101eb57600080fd5b50610206600480360381019061020191906111e5565b610a2d565b6040516102139190611855565b60405180910390f35b34801561022857600080fd5b50610243600480360381019061023e91906111e5565b610a45565b6040516102509190611855565b60405180910390f35b610273600480360381019061026e91906112ff565b610a5d565b005b61028f600480360381019061028a919061127f565b610ef7565b005b60008054906101000a900473ffffffffffffffffffffffffffffffffffffffff1673ffffffffffffffffffffffffffffffffffffffff163373ffffffffffffffffffffffffffffffffffffffff161461031f576040517f08c379a000000000000000000000000000000000000000000000000000000000815260040161031690611735565b60405180910390fd5b600154821115610364576040517f08c379a000000000000000000000000000000000000000000000000000000000815260040161035b90611755565b60405180910390fd5b8073ffffffffffffffffffffffffffffffffffffffff166108fc839081150290604051600060405180830381858888f193505050501580156103aa573d6000803e3d6000fd5b5081600160008282546103bd9190611962565b925050819055507ffda3a3e0e1479b43cb1c701f7576187f4c4ad80768d627387e00184302f7d88e3382846040516103f7939291906115eb565b60405180910390a15050565b60008054906101000a900473ffffffffffffffffffffffffffffffffffffffff1681565b60008054906101000a900473ffffffffffffffffffffffffffffffffffffffff1673ffffffffffffffffffffffffffffffffffffffff163373ffffffffffffffffffffffffffffffffffffffff16146104b5576040517f08c379a00000000000000000000000000000000000000000000000000000000081526004016104ac90611735565b60405180910390fd5b60008373ffffffffffffffffffffffffffffffffffffffff166370a08231306040518263ffffffff1660e01b81526004016104f091906115d0565b60206040518083038186803b15801561050857600080fd5b505afa15801561051c573d6000803e3d6000fd5b505050506040513d601f19601f820116820180604052508101906105409190611392565b905080821115610585576040517f08c379a000000000000000000000000000000000000000000000000000000000815260040161057c906117b5565b60405180910390fd5b8373ffffffffffffffffffffffffffffffffffffffff1663a9059cbb84846040518363ffffffff1660e01b81526004016105c09291906116ac565b602060405180830381600087803b1580156105da57600080fd5b505af11580156105ee573d6000803e3d6000fd5b505050506040513d601f19601f820116820180604052508101906106129190611252565b507ffda3a3e0e1479b43cb1c701f7576187f4c4ad80768d627387e00184302f7d88e33848460405161064693929190611675565b60405180910390a150505050565b60015481565b60008054906101000a900473ffffffffffffffffffffffffffffffffffffffff1673ffffffffffffffffffffffffffffffffffffffff163373ffffffffffffffffffffffffffffffffffffffff16146106e8576040517f08c379a00000000000000000000000000000000000000000000000000000000081526004016106df906117d5565b60405180910390fd5b80600260008473ffffffffffffffffffffffffffffffffffffffff1673ffffffffffffffffffffffffffffffffffffffff168152602001908152602001600020819055505050565b808273ffffffffffffffffffffffffffffffffffffffff166370a08231336040518263ffffffff1660e01b815260040161076a91906115d0565b60206040518083038186803b15801561078257600080fd5b505afa158015610796573d6000803e3d6000fd5b505050506040513d601f19601f820116820180604052508101906107ba9190611392565b10156107fb576040517f08c379a00000000000000000000000000000000000000000000000000000000081526004016107f290611715565b60405180910390fd5b6000600260008473ffffffffffffffffffffffffffffffffffffffff1673ffffffffffffffffffffffffffffffffffffffff16815260200190815260200160002054141561087e576040517f08c379a000000000000000000000000000000000000000000000000000000000815260040161087590611815565b60405180910390fd5b6000600260008473ffffffffffffffffffffffffffffffffffffffff1673ffffffffffffffffffffffffffffffffffffffff168152602001908152602001600020549050600081836108d091906118d7565b905080471015610915576040517f08c379a000000000000000000000000000000000000000000000000000000000815260040161090c906116f5565b60405180910390fd5b8373ffffffffffffffffffffffffffffffffffffffff166323b872dd3330866040518463ffffffff1660e01b815260040161095293929190611675565b602060405180830381600087803b15801561096c57600080fd5b505af1158015610980573d6000803e3d6000fd5b505050506040513d601f19601f820116820180604052508101906109a49190611252565b503373ffffffffffffffffffffffffffffffffffffffff166108fc829081150290604051600060405180830381858888f193505050501580156109eb573d6000803e3d6000fd5b507f481809cba951bfbd752234d0504d4719277804f87f6e0da1b5b486c80d808fe4338585604051610a1f93929190611675565b60405180910390a150505050565b60026020528060005260406000206000915090505481565b60036020528060005260406000206000915090505481565b808273ffffffffffffffffffffffffffffffffffffffff166370a08231336040518263ffffffff1660e01b8152600401610a9791906115d0565b60206040518083038186803b158015610aaf57600080fd5b505afa158015610ac3573d6000803e3d6000fd5b505050506040513d601f19601f82011682018060405250810190610ae79190611392565b1115610b28576040517f08c379a0000000000000000000000000000000000000000000000000000000008152600401610b1f906117f5565b60405180910390fd5b6000600260008573ffffffffffffffffffffffffffffffffffffffff1673ffffffffffffffffffffffffffffffffffffffff168152602001908152602001600020541415610bab576040517f08c379a0000000000000000000000000000000000000000000000000000000008152600401610ba290611795565b60405180910390fd5b6000600260008473ffffffffffffffffffffffffffffffffffffffff1673ffffffffffffffffffffffffffffffffffffffff168152602001908152602001600020541415610c2e576040517f08c379a0000000000000000000000000000000000000000000000000000000008152600401610c25906116d5565b60405180910390fd5b6000600260008573ffffffffffffffffffffffffffffffffffffffff1673ffffffffffffffffffffffffffffffffffffffff16815260200190815260200160002054600260008573ffffffffffffffffffffffffffffffffffffffff1673ffffffffffffffffffffffffffffffffffffffff1681526020019081526020016000205483610cbb91906118d7565b610cc59190611908565b9050808473ffffffffffffffffffffffffffffffffffffffff166370a08231306040518263ffffffff1660e01b8152600401610d0191906115d0565b60206040518083038186803b158015610d1957600080fd5b505afa158015610d2d573d6000803e3d6000fd5b505050506040513d601f19601f82011682018060405250810190610d519190611392565b1115610d92576040517f08c379a0000000000000000000000000000000000000000000000000000000008152600401610d8990611775565b60405180910390fd5b8373ffffffffffffffffffffffffffffffffffffffff166323b872dd3033846040518463ffffffff1660e01b8152600401610dcf93929190611675565b602060405180830381600087803b158015610de957600080fd5b505af1158015610dfd573d6000803e3d6000fd5b505050506040513d601f19601f82011682018060405250810190610e219190611252565b508273ffffffffffffffffffffffffffffffffffffffff166323b872dd3330856040518463ffffffff1660e01b8152600401610e5f93929190611675565b602060405180830381600087803b158015610e7957600080fd5b505af1158015610e8d573d6000803e3d6000fd5b505050506040513d601f19601f82011682018060405250810190610eb19190611252565b507fad56699d0f375866eb895ed27203058a36a713382aaded78eb6b67da266d43323385858486604051610ee9959493929190611622565b60405180910390a150505050565b6000600260008373ffffffffffffffffffffffffffffffffffffffff1673ffffffffffffffffffffffffffffffffffffffff168152602001908152602001600020541415610f7a576040517f08c379a0000000000000000000000000000000000000000000000000000000008152600401610f7190611815565b60405180910390fd5b6000600260008373ffffffffffffffffffffffffffffffffffffffff1673ffffffffffffffffffffffffffffffffffffffff16815260200190815260200160002054905060008134610fcc9190611908565b9050808373ffffffffffffffffffffffffffffffffffffffff166370a08231306040518263ffffffff1660e01b815260040161100891906115d0565b60206040518083038186803b15801561102057600080fd5b505afa158015611034573d6000803e3d6000fd5b505050506040513d601f19601f820116820180604052508101906110589190611392565b1015611099576040517f08c379a000000000000000000000000000000000000000000000000000000000815260040161109090611835565b60405180910390fd5b8273ffffffffffffffffffffffffffffffffffffffff1663a9059cbb33836040518363ffffffff1660e01b81526004016110d49291906116ac565b602060405180830381600087803b1580156110ee57600080fd5b505af1158015611102573d6000803e3d6000fd5b505050506040513d601f19601f820116820180604052508101906111269190611252565b507ff9b4eb3e43eebbf559e9b96ceff1c786a7edab2938c7f5f80678197c2e0edba533848360405161115a93929190611675565b60405180910390a1505050565b60008135905061117681611db7565b92915050565b60008135905061118b81611dce565b92915050565b6000815190506111a081611de5565b92915050565b6000813590506111b581611dfc565b92915050565b6000813590506111ca81611e13565b92915050565b6000815190506111df81611e13565b92915050565b6000602082840312156111fb576111fa611a96565b5b600061120984828501611167565b91505092915050565b6000806040838503121561122957611228611a96565b5b600061123785828601611167565b9250506020611248858286016111bb565b9150509250929050565b60006020828403121561126857611267611a96565b5b600061127684828501611191565b91505092915050565b60006020828403121561129557611294611a96565b5b60006112a3848285016111a6565b91505092915050565b6000806000606084860312156112c5576112c4611a96565b5b60006112d3868287016111a6565b93505060206112e486828701611167565b92505060406112f5868287016111bb565b9150509250925092565b60008060006060848603121561131857611317611a96565b5b6000611326868287016111a6565b9350506020611337868287016111a6565b9250506040611348868287016111bb565b9150509250925092565b6000806040838503121561136957611368611a96565b5b6000611377858286016111a6565b9250506020611388858286016111bb565b9150509250929050565b6000602082840312156113a8576113a7611a96565b5b60006113b6848285016111d0565b91505092915050565b600080604083850312156113d6576113d5611a96565b5b60006113e4858286016111bb565b92505060206113f58582860161117c565b9150509250929050565b61140881611a02565b82525050565b61141781611996565b82525050565b600061142a603783611870565b915061143582611a9b565b604082019050919050565b600061144d603783611870565b915061145882611aea565b604082019050919050565b6000611470603483611870565b915061147b82611b39565b604082019050919050565b6000611493601d83611870565b915061149e82611b88565b602082019050919050565b60006114b6601283611870565b91506114c182611bb1565b602082019050919050565b60006114d9601b83611870565b91506114e482611bda565b602082019050919050565b60006114fc603683611870565b915061150782611c03565b604082019050919050565b600061151f600e83611870565b915061152a82611c52565b602082019050919050565b6000611542602283611870565b915061154d82611c7b565b604082019050919050565b6000611565602783611870565b915061157082611cca565b604082019050919050565b6000611588602883611870565b915061159382611d19565b604082019050919050565b60006115ab603383611870565b91506115b682611d68565b604082019050919050565b6115ca816119f8565b82525050565b60006020820190506115e5600083018461140e565b92915050565b6000606082019050611600600083018661140e565b61160d60208301856113ff565b61161a60408301846115c1565b949350505050565b600060a082019050611637600083018861140e565b611644602083018761140e565b611651604083018661140e565b61165e60608301856115c1565b61166b60808301846115c1565b9695505050505050565b600060608201905061168a600083018661140e565b611697602083018561140e565b6116a460408301846115c1565b949350505050565b60006040820190506116c1600083018561140e565b6116ce60208301846115c1565b9392505050565b600060208201905081810360008301526116ee8161141d565b9050919050565b6000602082019050818103600083015261170e81611440565b9050919050565b6000602082019050818103600083015261172e81611463565b9050919050565b6000602082019050818103600083015261174e81611486565b9050919050565b6000602082019050818103600083015261176e816114a9565b9050919050565b6000602082019050818103600083015261178e816114cc565b9050919050565b600060208201905081810360008301526117ae816114ef565b9050919050565b600060208201905081810360008301526117ce81611512565b9050919050565b600060208201905081810360008301526117ee81611535565b9050919050565b6000602082019050818103600083015261180e81611558565b9050919050565b6000602082019050818103600083015261182e8161157b565b9050919050565b6000602082019050818103600083015261184e8161159e565b9050919050565b600060208201905061186a60008301846115c1565b92915050565b600082825260208201905092915050565b600061188c826119f8565b9150611897836119f8565b9250827fffffffffffffffffffffffffffffffffffffffffffffffffffffffffffffffff038211156118cc576118cb611a38565b5b828201905092915050565b60006118e2826119f8565b91506118ed836119f8565b9250826118fd576118fc611a67565b5b828204905092915050565b6000611913826119f8565b915061191e836119f8565b9250817fffffffffffffffffffffffffffffffffffffffffffffffffffffffffffffffff048311821515161561195757611956611a38565b5b828202905092915050565b600061196d826119f8565b9150611978836119f8565b92508282101561198b5761198a611a38565b5b828203905092915050565b60006119a1826119d8565b9050919050565b60006119b3826119d8565b9050919050565b60008115159050919050565b60006119d182611996565b9050919050565b600073ffffffffffffffffffffffffffffffffffffffff82169050919050565b6000819050919050565b6000611a0d82611a14565b9050919050565b6000611a1f82611a26565b9050919050565b6000611a31826119d8565b9050919050565b7f4e487b7100000000000000000000000000000000000000000000000000000000600052601160045260246000fd5b7f4e487b7100000000000000000000000000000000000000000000000000000000600052601260045260246000fd5b600080fd5b7f546f6b656e20776869636820796f752073656c6c20636f6e76657273696f6e2060008201527f72617465206973206e6f7420646566696e656420796574000000000000000000602082015250565b7f5377617020636f6e747261637420646f6573206e6f74206861766520656e6f7560008201527f676820617661696c61626c652045544820616d6f756e74000000000000000000602082015250565b7f596f752063616e206e6f742073656c6c206d6f726520746f6b656e732074686160008201527f6e20796f752063757272656e746c7920686f6c64000000000000000000000000602082015250565b7f4f6e6c79206f776e65722063616e2077697468647261772066756e6473000000600082015250565b7f496e73756666696369656e742066756e64730000000000000000000000000000600082015250565b7f4e6f7420656e6f7567682066756e6473206f6e20457468537761700000000000600082015250565b7f546f6b656e20776869636820796f752062757920636f6e76657273696f6e207260008201527f617465206973206e6f7420646566696e65642079657400000000000000000000602082015250565b7f62616c616e6365206973206c6f77000000000000000000000000000000000000600082015250565b7f4f6e6c79206f776e65722063616e2073657420636f6e76657273696f6e20726160008201527f7465000000000000000000000000000000000000000000000000000000000000602082015250565b7f4e6f7420656e6f7567682066756e647320746f2073776170206f6e207573657260008201527f2077616c6c657400000000000000000000000000000000000000000000000000602082015250565b7f546f6b656e20636f6e76657273696f6e2072617465206973206e6f742064656660008201527f696e656420796574000000000000000000000000000000000000000000000000602082015250565b7f4e6f7420656e6f75676820746f6b656e73206f6e207377617020636f6e74726160008201527f637420617661696c61626c6520746f2062757900000000000000000000000000602082015250565b611dc081611996565b8114611dcb57600080fd5b50565b611dd7816119a8565b8114611de257600080fd5b50565b611dee816119ba565b8114611df957600080fd5b50565b611e05816119c6565b8114611e1057600080fd5b50565b611e1c816119f8565b8114611e2757600080fd5b5056fea264697066735822122056fa8a1e4f7db078c12307463c08f85a988d4d4b4933ba207ff10a25d9545d4a64736f6c63430008070033",
					"opcodes": "PUSH1 0x80 PUSH1 0x40 MSTORE CALLVALUE DUP1 ISZERO PUSH3 0x11 JUMPI PUSH1 0x0 DUP1 REVERT JUMPDEST POP PUSH1 0x40 MLOAD PUSH3 0x2275 CODESIZE SUB DUP1 PUSH3 0x2275 DUP4 CODECOPY DUP2 DUP2 ADD PUSH1 0x40 MSTORE DUP2 ADD SWAP1 PUSH3 0x37 SWAP2 SWAP1 PUSH3 0x2E7 JUMP JUMPDEST CALLER PUSH1 0x0 DUP1 PUSH2 0x100 EXP DUP2 SLOAD DUP2 PUSH20 0xFFFFFFFFFFFFFFFFFFFFFFFFFFFFFFFFFFFFFFFF MUL NOT AND SWAP1 DUP4 PUSH20 0xFFFFFFFFFFFFFFFFFFFFFFFFFFFFFFFFFFFFFFFF AND MUL OR SWAP1 SSTORE POP PUSH1 0x0 DUP3 PUSH20 0xFFFFFFFFFFFFFFFFFFFFFFFFFFFFFFFFFFFFFFFF AND PUSH4 0x70A08231 ADDRESS PUSH1 0x40 MLOAD DUP3 PUSH4 0xFFFFFFFF AND PUSH1 0xE0 SHL DUP2 MSTORE PUSH1 0x4 ADD PUSH3 0xB4 SWAP2 SWAP1 PUSH3 0x371 JUMP JUMPDEST PUSH1 0x20 PUSH1 0x40 MLOAD DUP1 DUP4 SUB DUP2 DUP7 DUP1 EXTCODESIZE ISZERO DUP1 ISZERO PUSH3 0xCD JUMPI PUSH1 0x0 DUP1 REVERT JUMPDEST POP GAS STATICCALL ISZERO DUP1 ISZERO PUSH3 0xE2 JUMPI RETURNDATASIZE PUSH1 0x0 DUP1 RETURNDATACOPY RETURNDATASIZE PUSH1 0x0 REVERT JUMPDEST POP POP POP POP PUSH1 0x40 MLOAD RETURNDATASIZE PUSH1 0x1F NOT PUSH1 0x1F DUP3 ADD AND DUP3 ADD DUP1 PUSH1 0x40 MSTORE POP DUP2 ADD SWAP1 PUSH3 0x108 SWAP2 SWAP1 PUSH3 0x32E JUMP JUMPDEST SWAP1 POP PUSH1 0x0 DUP3 PUSH20 0xFFFFFFFFFFFFFFFFFFFFFFFFFFFFFFFFFFFFFFFF AND PUSH4 0x70A08231 ADDRESS PUSH1 0x40 MLOAD DUP3 PUSH4 0xFFFFFFFF AND PUSH1 0xE0 SHL DUP2 MSTORE PUSH1 0x4 ADD PUSH3 0x147 SWAP2 SWAP1 PUSH3 0x371 JUMP JUMPDEST PUSH1 0x20 PUSH1 0x40 MLOAD DUP1 DUP4 SUB DUP2 DUP7 DUP1 EXTCODESIZE ISZERO DUP1 ISZERO PUSH3 0x160 JUMPI PUSH1 0x0 DUP1 REVERT JUMPDEST POP GAS STATICCALL ISZERO DUP1 ISZERO PUSH3 0x175 JUMPI RETURNDATASIZE PUSH1 0x0 DUP1 RETURNDATACOPY RETURNDATASIZE PUSH1 0x0 REVERT JUMPDEST POP POP POP POP PUSH1 0x40 MLOAD RETURNDATASIZE PUSH1 0x1F NOT PUSH1 0x1F DUP3 ADD AND DUP3 ADD DUP1 PUSH1 0x40 MSTORE POP DUP2 ADD SWAP1 PUSH3 0x19B SWAP2 SWAP1 PUSH3 0x32E JUMP JUMPDEST SWAP1 POP DUP2 PUSH1 0x3 PUSH1 0x0 DUP7 PUSH20 0xFFFFFFFFFFFFFFFFFFFFFFFFFFFFFFFFFFFFFFFF AND PUSH20 0xFFFFFFFFFFFFFFFFFFFFFFFFFFFFFFFFFFFFFFFF AND DUP2 MSTORE PUSH1 0x20 ADD SWAP1 DUP2 MSTORE PUSH1 0x20 ADD PUSH1 0x0 KECCAK256 DUP2 SWAP1 SSTORE POP DUP1 PUSH1 0x3 PUSH1 0x0 DUP6 PUSH20 0xFFFFFFFFFFFFFFFFFFFFFFFFFFFFFFFFFFFFFFFF AND PUSH20 0xFFFFFFFFFFFFFFFFFFFFFFFFFFFFFFFFFFFFFFFF AND DUP2 MSTORE PUSH1 0x20 ADD SWAP1 DUP2 MSTORE PUSH1 0x20 ADD PUSH1 0x0 KECCAK256 DUP2 SWAP1 SSTORE POP PUSH1 0x64 PUSH1 0x2 PUSH1 0x0 DUP7 PUSH20 0xFFFFFFFFFFFFFFFFFFFFFFFFFFFFFFFFFFFFFFFF AND PUSH20 0xFFFFFFFFFFFFFFFFFFFFFFFFFFFFFFFFFFFFFFFF AND DUP2 MSTORE PUSH1 0x20 ADD SWAP1 DUP2 MSTORE PUSH1 0x20 ADD PUSH1 0x0 KECCAK256 DUP2 SWAP1 SSTORE POP PUSH1 0xA PUSH1 0x2 PUSH1 0x0 DUP6 PUSH20 0xFFFFFFFFFFFFFFFFFFFFFFFFFFFFFFFFFFFFFFFF AND PUSH20 0xFFFFFFFFFFFFFFFFFFFFFFFFFFFFFFFFFFFFFFFF AND DUP2 MSTORE PUSH1 0x20 ADD SWAP1 DUP2 MSTORE PUSH1 0x20 ADD PUSH1 0x0 KECCAK256 DUP2 SWAP1 SSTORE POP POP POP POP POP PUSH3 0x405 JUMP JUMPDEST PUSH1 0x0 DUP2 MLOAD SWAP1 POP PUSH3 0x2CA DUP2 PUSH3 0x3D1 JUMP JUMPDEST SWAP3 SWAP2 POP POP JUMP JUMPDEST PUSH1 0x0 DUP2 MLOAD SWAP1 POP PUSH3 0x2E1 DUP2 PUSH3 0x3EB JUMP JUMPDEST SWAP3 SWAP2 POP POP JUMP JUMPDEST PUSH1 0x0 DUP1 PUSH1 0x40 DUP4 DUP6 SUB SLT ISZERO PUSH3 0x301 JUMPI PUSH3 0x300 PUSH3 0x3CC JUMP JUMPDEST JUMPDEST PUSH1 0x0 PUSH3 0x311 DUP6 DUP3 DUP7 ADD PUSH3 0x2B9 JUMP JUMPDEST SWAP3 POP POP PUSH1 0x20 PUSH3 0x324 DUP6 DUP3 DUP7 ADD PUSH3 0x2B9 JUMP JUMPDEST SWAP2 POP POP SWAP3 POP SWAP3 SWAP1 POP JUMP JUMPDEST PUSH1 0x0 PUSH1 0x20 DUP3 DUP5 SUB SLT ISZERO PUSH3 0x347 JUMPI PUSH3 0x346 PUSH3 0x3CC JUMP JUMPDEST JUMPDEST PUSH1 0x0 PUSH3 0x357 DUP5 DUP3 DUP6 ADD PUSH3 0x2D0 JUMP JUMPDEST SWAP2 POP POP SWAP3 SWAP2 POP POP JUMP JUMPDEST PUSH3 0x36B DUP2 PUSH3 0x38E JUMP JUMPDEST DUP3 MSTORE POP POP JUMP JUMPDEST PUSH1 0x0 PUSH1 0x20 DUP3 ADD SWAP1 POP PUSH3 0x388 PUSH1 0x0 DUP4 ADD DUP5 PUSH3 0x360 JUMP JUMPDEST SWAP3 SWAP2 POP POP JUMP JUMPDEST PUSH1 0x0 PUSH3 0x39B DUP3 PUSH3 0x3A2 JUMP JUMPDEST SWAP1 POP SWAP2 SWAP1 POP JUMP JUMPDEST PUSH1 0x0 PUSH20 0xFFFFFFFFFFFFFFFFFFFFFFFFFFFFFFFFFFFFFFFF DUP3 AND SWAP1 POP SWAP2 SWAP1 POP JUMP JUMPDEST PUSH1 0x0 DUP2 SWAP1 POP SWAP2 SWAP1 POP JUMP JUMPDEST PUSH1 0x0 DUP1 REVERT JUMPDEST PUSH3 0x3DC DUP2 PUSH3 0x38E JUMP JUMPDEST DUP2 EQ PUSH3 0x3E8 JUMPI PUSH1 0x0 DUP1 REVERT JUMPDEST POP JUMP JUMPDEST PUSH3 0x3F6 DUP2 PUSH3 0x3C2 JUMP JUMPDEST DUP2 EQ PUSH3 0x402 JUMPI PUSH1 0x0 DUP1 REVERT JUMPDEST POP JUMP JUMPDEST PUSH2 0x1E60 DUP1 PUSH3 0x415 PUSH1 0x0 CODECOPY PUSH1 0x0 RETURN INVALID PUSH1 0x80 PUSH1 0x40 MSTORE PUSH1 0x4 CALLDATASIZE LT PUSH2 0x94 JUMPI PUSH1 0x0 CALLDATALOAD PUSH1 0xE0 SHR DUP1 PUSH4 0xC464FE65 GT PUSH2 0x59 JUMPI DUP1 PUSH4 0xC464FE65 EQ PUSH2 0x1C3 JUMPI DUP1 PUSH4 0xDBA243D3 EQ PUSH2 0x1DF JUMPI DUP1 PUSH4 0xDF680B4F EQ PUSH2 0x21C JUMPI DUP1 PUSH4 0xEC6CC0CC EQ PUSH2 0x259 JUMPI DUP1 PUSH4 0xEC8AC4D8 EQ PUSH2 0x275 JUMPI PUSH2 0xED JUMP JUMPDEST DUP1 PUSH3 0xF714CE EQ PUSH2 0xF2 JUMPI DUP1 PUSH4 0x8DA5CB5B EQ PUSH2 0x11B JUMPI DUP1 PUSH4 0x9DB5DBE4 EQ PUSH2 0x146 JUMPI DUP1 PUSH4 0xB69EF8A8 EQ PUSH2 0x16F JUMPI DUP1 PUSH4 0xC1458C09 EQ PUSH2 0x19A JUMPI PUSH2 0xED JUMP JUMPDEST CALLDATASIZE PUSH2 0xED JUMPI CALLVALUE PUSH1 0x1 PUSH1 0x0 DUP3 DUP3 SLOAD PUSH2 0xAB SWAP2 SWAP1 PUSH2 0x1881 JUMP JUMPDEST SWAP3 POP POP DUP2 SWAP1 SSTORE POP PUSH32 0xF1B03F708B9C39F453FE3F0CEF84164C7D6F7DF836DF0796E1E9C2BCE6EE397E CALLER CALLVALUE PUSH1 0x40 MLOAD PUSH2 0xE3 SWAP3 SWAP2 SWAP1 PUSH2 0x16AC JUMP JUMPDEST PUSH1 0x40 MLOAD DUP1 SWAP2 SUB SWAP1 LOG1 STOP JUMPDEST PUSH1 0x0 DUP1 REVERT JUMPDEST CALLVALUE DUP1 ISZERO PUSH2 0xFE JUMPI PUSH1 0x0 DUP1 REVERT JUMPDEST POP PUSH2 0x119 PUSH1 0x4 DUP1 CALLDATASIZE SUB DUP2 ADD SWAP1 PUSH2 0x114 SWAP2 SWAP1 PUSH2 0x13BF JUMP JUMPDEST PUSH2 0x291 JUMP JUMPDEST STOP JUMPDEST CALLVALUE DUP1 ISZERO PUSH2 0x127 JUMPI PUSH1 0x0 DUP1 REVERT JUMPDEST POP PUSH2 0x130 PUSH2 0x403 JUMP JUMPDEST PUSH1 0x40 MLOAD PUSH2 0x13D SWAP2 SWAP1 PUSH2 0x15D0 JUMP JUMPDEST PUSH1 0x40 MLOAD DUP1 SWAP2 SUB SWAP1 RETURN JUMPDEST CALLVALUE DUP1 ISZERO PUSH2 0x152 JUMPI PUSH1 0x0 DUP1 REVERT JUMPDEST POP PUSH2 0x16D PUSH1 0x4 DUP1 CALLDATASIZE SUB DUP2 ADD SWAP1 PUSH2 0x168 SWAP2 SWAP1 PUSH2 0x12AC JUMP JUMPDEST PUSH2 0x427 JUMP JUMPDEST STOP JUMPDEST CALLVALUE DUP1 ISZERO PUSH2 0x17B JUMPI PUSH1 0x0 DUP1 REVERT JUMPDEST POP PUSH2 0x184 PUSH2 0x654 JUMP JUMPDEST PUSH1 0x40 MLOAD PUSH2 0x191 SWAP2 SWAP1 PUSH2 0x1855 JUMP JUMPDEST PUSH1 0x40 MLOAD DUP1 SWAP2 SUB SWAP1 RETURN JUMPDEST CALLVALUE DUP1 ISZERO PUSH2 0x1A6 JUMPI PUSH1 0x0 DUP1 REVERT JUMPDEST POP PUSH2 0x1C1 PUSH1 0x4 DUP1 CALLDATASIZE SUB DUP2 ADD SWAP1 PUSH2 0x1BC SWAP2 SWAP1 PUSH2 0x1212 JUMP JUMPDEST PUSH2 0x65A JUMP JUMPDEST STOP JUMPDEST PUSH2 0x1DD PUSH1 0x4 DUP1 CALLDATASIZE SUB DUP2 ADD SWAP1 PUSH2 0x1D8 SWAP2 SWAP1 PUSH2 0x1352 JUMP JUMPDEST PUSH2 0x730 JUMP JUMPDEST STOP JUMPDEST CALLVALUE DUP1 ISZERO PUSH2 0x1EB JUMPI PUSH1 0x0 DUP1 REVERT JUMPDEST POP PUSH2 0x206 PUSH1 0x4 DUP1 CALLDATASIZE SUB DUP2 ADD SWAP1 PUSH2 0x201 SWAP2 SWAP1 PUSH2 0x11E5 JUMP JUMPDEST PUSH2 0xA2D JUMP JUMPDEST PUSH1 0x40 MLOAD PUSH2 0x213 SWAP2 SWAP1 PUSH2 0x1855 JUMP JUMPDEST PUSH1 0x40 MLOAD DUP1 SWAP2 SUB SWAP1 RETURN JUMPDEST CALLVALUE DUP1 ISZERO PUSH2 0x228 JUMPI PUSH1 0x0 DUP1 REVERT JUMPDEST POP PUSH2 0x243 PUSH1 0x4 DUP1 CALLDATASIZE SUB DUP2 ADD SWAP1 PUSH2 0x23E SWAP2 SWAP1 PUSH2 0x11E5 JUMP JUMPDEST PUSH2 0xA45 JUMP JUMPDEST PUSH1 0x40 MLOAD PUSH2 0x250 SWAP2 SWAP1 PUSH2 0x1855 JUMP JUMPDEST PUSH1 0x40 MLOAD DUP1 SWAP2 SUB SWAP1 RETURN JUMPDEST PUSH2 0x273 PUSH1 0x4 DUP1 CALLDATASIZE SUB DUP2 ADD SWAP1 PUSH2 0x26E SWAP2 SWAP1 PUSH2 0x12FF JUMP JUMPDEST PUSH2 0xA5D JUMP JUMPDEST STOP JUMPDEST PUSH2 0x28F PUSH1 0x4 DUP1 CALLDATASIZE SUB DUP2 ADD SWAP1 PUSH2 0x28A SWAP2 SWAP1 PUSH2 0x127F JUMP JUMPDEST PUSH2 0xEF7 JUMP JUMPDEST STOP JUMPDEST PUSH1 0x0 DUP1 SLOAD SWAP1 PUSH2 0x100 EXP SWAP1 DIV PUSH20 0xFFFFFFFFFFFFFFFFFFFFFFFFFFFFFFFFFFFFFFFF AND PUSH20 0xFFFFFFFFFFFFFFFFFFFFFFFFFFFFFFFFFFFFFFFF AND CALLER PUSH20 0xFFFFFFFFFFFFFFFFFFFFFFFFFFFFFFFFFFFFFFFF AND EQ PUSH2 0x31F JUMPI PUSH1 0x40 MLOAD PUSH32 0x8C379A000000000000000000000000000000000000000000000000000000000 DUP2 MSTORE PUSH1 0x4 ADD PUSH2 0x316 SWAP1 PUSH2 0x1735 JUMP JUMPDEST PUSH1 0x40 MLOAD DUP1 SWAP2 SUB SWAP1 REVERT JUMPDEST PUSH1 0x1 SLOAD DUP3 GT ISZERO PUSH2 0x364 JUMPI PUSH1 0x40 MLOAD PUSH32 0x8C379A000000000000000000000000000000000000000000000000000000000 DUP2 MSTORE PUSH1 0x4 ADD PUSH2 0x35B SWAP1 PUSH2 0x1755 JUMP JUMPDEST PUSH1 0x40 MLOAD DUP1 SWAP2 SUB SWAP1 REVERT JUMPDEST DUP1 PUSH20 0xFFFFFFFFFFFFFFFFFFFFFFFFFFFFFFFFFFFFFFFF AND PUSH2 0x8FC DUP4 SWAP1 DUP2 ISZERO MUL SWAP1 PUSH1 0x40 MLOAD PUSH1 0x0 PUSH1 0x40 MLOAD DUP1 DUP4 SUB DUP2 DUP6 DUP9 DUP9 CALL SWAP4 POP POP POP POP ISZERO DUP1 ISZERO PUSH2 0x3AA JUMPI RETURNDATASIZE PUSH1 0x0 DUP1 RETURNDATACOPY RETURNDATASIZE PUSH1 0x0 REVERT JUMPDEST POP DUP2 PUSH1 0x1 PUSH1 0x0 DUP3 DUP3 SLOAD PUSH2 0x3BD SWAP2 SWAP1 PUSH2 0x1962 JUMP JUMPDEST SWAP3 POP POP DUP2 SWAP1 SSTORE POP PUSH32 0xFDA3A3E0E1479B43CB1C701F7576187F4C4AD80768D627387E00184302F7D88E CALLER DUP3 DUP5 PUSH1 0x40 MLOAD PUSH2 0x3F7 SWAP4 SWAP3 SWAP2 SWAP1 PUSH2 0x15EB JUMP JUMPDEST PUSH1 0x40 MLOAD DUP1 SWAP2 SUB SWAP1 LOG1 POP POP JUMP JUMPDEST PUSH1 0x0 DUP1 SLOAD SWAP1 PUSH2 0x100 EXP SWAP1 DIV PUSH20 0xFFFFFFFFFFFFFFFFFFFFFFFFFFFFFFFFFFFFFFFF AND DUP2 JUMP JUMPDEST PUSH1 0x0 DUP1 SLOAD SWAP1 PUSH2 0x100 EXP SWAP1 DIV PUSH20 0xFFFFFFFFFFFFFFFFFFFFFFFFFFFFFFFFFFFFFFFF AND PUSH20 0xFFFFFFFFFFFFFFFFFFFFFFFFFFFFFFFFFFFFFFFF AND CALLER PUSH20 0xFFFFFFFFFFFFFFFFFFFFFFFFFFFFFFFFFFFFFFFF AND EQ PUSH2 0x4B5 JUMPI PUSH1 0x40 MLOAD PUSH32 0x8C379A000000000000000000000000000000000000000000000000000000000 DUP2 MSTORE PUSH1 0x4 ADD PUSH2 0x4AC SWAP1 PUSH2 0x1735 JUMP JUMPDEST PUSH1 0x40 MLOAD DUP1 SWAP2 SUB SWAP1 REVERT JUMPDEST PUSH1 0x0 DUP4 PUSH20 0xFFFFFFFFFFFFFFFFFFFFFFFFFFFFFFFFFFFFFFFF AND PUSH4 0x70A08231 ADDRESS PUSH1 0x40 MLOAD DUP3 PUSH4 0xFFFFFFFF AND PUSH1 0xE0 SHL DUP2 MSTORE PUSH1 0x4 ADD PUSH2 0x4F0 SWAP2 SWAP1 PUSH2 0x15D0 JUMP JUMPDEST PUSH1 0x20 PUSH1 0x40 MLOAD DUP1 DUP4 SUB DUP2 DUP7 DUP1 EXTCODESIZE ISZERO DUP1 ISZERO PUSH2 0x508 JUMPI PUSH1 0x0 DUP1 REVERT JUMPDEST POP GAS STATICCALL ISZERO DUP1 ISZERO PUSH2 0x51C JUMPI RETURNDATASIZE PUSH1 0x0 DUP1 RETURNDATACOPY RETURNDATASIZE PUSH1 0x0 REVERT JUMPDEST POP POP POP POP PUSH1 0x40 MLOAD RETURNDATASIZE PUSH1 0x1F NOT PUSH1 0x1F DUP3 ADD AND DUP3 ADD DUP1 PUSH1 0x40 MSTORE POP DUP2 ADD SWAP1 PUSH2 0x540 SWAP2 SWAP1 PUSH2 0x1392 JUMP JUMPDEST SWAP1 POP DUP1 DUP3 GT ISZERO PUSH2 0x585 JUMPI PUSH1 0x40 MLOAD PUSH32 0x8C379A000000000000000000000000000000000000000000000000000000000 DUP2 MSTORE PUSH1 0x4 ADD PUSH2 0x57C SWAP1 PUSH2 0x17B5 JUMP JUMPDEST PUSH1 0x40 MLOAD DUP1 SWAP2 SUB SWAP1 REVERT JUMPDEST DUP4 PUSH20 0xFFFFFFFFFFFFFFFFFFFFFFFFFFFFFFFFFFFFFFFF AND PUSH4 0xA9059CBB DUP5 DUP5 PUSH1 0x40 MLOAD DUP4 PUSH4 0xFFFFFFFF AND PUSH1 0xE0 SHL DUP2 MSTORE PUSH1 0x4 ADD PUSH2 0x5C0 SWAP3 SWAP2 SWAP1 PUSH2 0x16AC JUMP JUMPDEST PUSH1 0x20 PUSH1 0x40 MLOAD DUP1 DUP4 SUB DUP2 PUSH1 0x0 DUP8 DUP1 EXTCODESIZE ISZERO DUP1 ISZERO PUSH2 0x5DA JUMPI PUSH1 0x0 DUP1 REVERT JUMPDEST POP GAS CALL ISZERO DUP1 ISZERO PUSH2 0x5EE JUMPI RETURNDATASIZE PUSH1 0x0 DUP1 RETURNDATACOPY RETURNDATASIZE PUSH1 0x0 REVERT JUMPDEST POP POP POP POP PUSH1 0x40 MLOAD RETURNDATASIZE PUSH1 0x1F NOT PUSH1 0x1F DUP3 ADD AND DUP3 ADD DUP1 PUSH1 0x40 MSTORE POP DUP2 ADD SWAP1 PUSH2 0x612 SWAP2 SWAP1 PUSH2 0x1252 JUMP JUMPDEST POP PUSH32 0xFDA3A3E0E1479B43CB1C701F7576187F4C4AD80768D627387E00184302F7D88E CALLER DUP5 DUP5 PUSH1 0x40 MLOAD PUSH2 0x646 SWAP4 SWAP3 SWAP2 SWAP1 PUSH2 0x1675 JUMP JUMPDEST PUSH1 0x40 MLOAD DUP1 SWAP2 SUB SWAP1 LOG1 POP POP POP POP JUMP JUMPDEST PUSH1 0x1 SLOAD DUP2 JUMP JUMPDEST PUSH1 0x0 DUP1 SLOAD SWAP1 PUSH2 0x100 EXP SWAP1 DIV PUSH20 0xFFFFFFFFFFFFFFFFFFFFFFFFFFFFFFFFFFFFFFFF AND PUSH20 0xFFFFFFFFFFFFFFFFFFFFFFFFFFFFFFFFFFFFFFFF AND CALLER PUSH20 0xFFFFFFFFFFFFFFFFFFFFFFFFFFFFFFFFFFFFFFFF AND EQ PUSH2 0x6E8 JUMPI PUSH1 0x40 MLOAD PUSH32 0x8C379A000000000000000000000000000000000000000000000000000000000 DUP2 MSTORE PUSH1 0x4 ADD PUSH2 0x6DF SWAP1 PUSH2 0x17D5 JUMP JUMPDEST PUSH1 0x40 MLOAD DUP1 SWAP2 SUB SWAP1 REVERT JUMPDEST DUP1 PUSH1 0x2 PUSH1 0x0 DUP5 PUSH20 0xFFFFFFFFFFFFFFFFFFFFFFFFFFFFFFFFFFFFFFFF AND PUSH20 0xFFFFFFFFFFFFFFFFFFFFFFFFFFFFFFFFFFFFFFFF AND DUP2 MSTORE PUSH1 0x20 ADD SWAP1 DUP2 MSTORE PUSH1 0x20 ADD PUSH1 0x0 KECCAK256 DUP2 SWAP1 SSTORE POP POP POP JUMP JUMPDEST DUP1 DUP3 PUSH20 0xFFFFFFFFFFFFFFFFFFFFFFFFFFFFFFFFFFFFFFFF AND PUSH4 0x70A08231 CALLER PUSH1 0x40 MLOAD DUP3 PUSH4 0xFFFFFFFF AND PUSH1 0xE0 SHL DUP2 MSTORE PUSH1 0x4 ADD PUSH2 0x76A SWAP2 SWAP1 PUSH2 0x15D0 JUMP JUMPDEST PUSH1 0x20 PUSH1 0x40 MLOAD DUP1 DUP4 SUB DUP2 DUP7 DUP1 EXTCODESIZE ISZERO DUP1 ISZERO PUSH2 0x782 JUMPI PUSH1 0x0 DUP1 REVERT JUMPDEST POP GAS STATICCALL ISZERO DUP1 ISZERO PUSH2 0x796 JUMPI RETURNDATASIZE PUSH1 0x0 DUP1 RETURNDATACOPY RETURNDATASIZE PUSH1 0x0 REVERT JUMPDEST POP POP POP POP PUSH1 0x40 MLOAD RETURNDATASIZE PUSH1 0x1F NOT PUSH1 0x1F DUP3 ADD AND DUP3 ADD DUP1 PUSH1 0x40 MSTORE POP DUP2 ADD SWAP1 PUSH2 0x7BA SWAP2 SWAP1 PUSH2 0x1392 JUMP JUMPDEST LT ISZERO PUSH2 0x7FB JUMPI PUSH1 0x40 MLOAD PUSH32 0x8C379A000000000000000000000000000000000000000000000000000000000 DUP2 MSTORE PUSH1 0x4 ADD PUSH2 0x7F2 SWAP1 PUSH2 0x1715 JUMP JUMPDEST PUSH1 0x40 MLOAD DUP1 SWAP2 SUB SWAP1 REVERT JUMPDEST PUSH1 0x0 PUSH1 0x2 PUSH1 0x0 DUP5 PUSH20 0xFFFFFFFFFFFFFFFFFFFFFFFFFFFFFFFFFFFFFFFF AND PUSH20 0xFFFFFFFFFFFFFFFFFFFFFFFFFFFFFFFFFFFFFFFF AND DUP2 MSTORE PUSH1 0x20 ADD SWAP1 DUP2 MSTORE PUSH1 0x20 ADD PUSH1 0x0 KECCAK256 SLOAD EQ ISZERO PUSH2 0x87E JUMPI PUSH1 0x40 MLOAD PUSH32 0x8C379A000000000000000000000000000000000000000000000000000000000 DUP2 MSTORE PUSH1 0x4 ADD PUSH2 0x875 SWAP1 PUSH2 0x1815 JUMP JUMPDEST PUSH1 0x40 MLOAD DUP1 SWAP2 SUB SWAP1 REVERT JUMPDEST PUSH1 0x0 PUSH1 0x2 PUSH1 0x0 DUP5 PUSH20 0xFFFFFFFFFFFFFFFFFFFFFFFFFFFFFFFFFFFFFFFF AND PUSH20 0xFFFFFFFFFFFFFFFFFFFFFFFFFFFFFFFFFFFFFFFF AND DUP2 MSTORE PUSH1 0x20 ADD SWAP1 DUP2 MSTORE PUSH1 0x20 ADD PUSH1 0x0 KECCAK256 SLOAD SWAP1 POP PUSH1 0x0 DUP2 DUP4 PUSH2 0x8D0 SWAP2 SWAP1 PUSH2 0x18D7 JUMP JUMPDEST SWAP1 POP DUP1 SELFBALANCE LT ISZERO PUSH2 0x915 JUMPI PUSH1 0x40 MLOAD PUSH32 0x8C379A000000000000000000000000000000000000000000000000000000000 DUP2 MSTORE PUSH1 0x4 ADD PUSH2 0x90C SWAP1 PUSH2 0x16F5 JUMP JUMPDEST PUSH1 0x40 MLOAD DUP1 SWAP2 SUB SWAP1 REVERT JUMPDEST DUP4 PUSH20 0xFFFFFFFFFFFFFFFFFFFFFFFFFFFFFFFFFFFFFFFF AND PUSH4 0x23B872DD CALLER ADDRESS DUP7 PUSH1 0x40 MLOAD DUP5 PUSH4 0xFFFFFFFF AND PUSH1 0xE0 SHL DUP2 MSTORE PUSH1 0x4 ADD PUSH2 0x952 SWAP4 SWAP3 SWAP2 SWAP1 PUSH2 0x1675 JUMP JUMPDEST PUSH1 0x20 PUSH1 0x40 MLOAD DUP1 DUP4 SUB DUP2 PUSH1 0x0 DUP8 DUP1 EXTCODESIZE ISZERO DUP1 ISZERO PUSH2 0x96C JUMPI PUSH1 0x0 DUP1 REVERT JUMPDEST POP GAS CALL ISZERO DUP1 ISZERO PUSH2 0x980 JUMPI RETURNDATASIZE PUSH1 0x0 DUP1 RETURNDATACOPY RETURNDATASIZE PUSH1 0x0 REVERT JUMPDEST POP POP POP POP PUSH1 0x40 MLOAD RETURNDATASIZE PUSH1 0x1F NOT PUSH1 0x1F DUP3 ADD AND DUP3 ADD DUP1 PUSH1 0x40 MSTORE POP DUP2 ADD SWAP1 PUSH2 0x9A4 SWAP2 SWAP1 PUSH2 0x1252 JUMP JUMPDEST POP CALLER PUSH20 0xFFFFFFFFFFFFFFFFFFFFFFFFFFFFFFFFFFFFFFFF AND PUSH2 0x8FC DUP3 SWAP1 DUP2 ISZERO MUL SWAP1 PUSH1 0x40 MLOAD PUSH1 0x0 PUSH1 0x40 MLOAD DUP1 DUP4 SUB DUP2 DUP6 DUP9 DUP9 CALL SWAP4 POP POP POP POP ISZERO DUP1 ISZERO PUSH2 0x9EB JUMPI RETURNDATASIZE PUSH1 0x0 DUP1 RETURNDATACOPY RETURNDATASIZE PUSH1 0x0 REVERT JUMPDEST POP PUSH32 0x481809CBA951BFBD752234D0504D4719277804F87F6E0DA1B5B486C80D808FE4 CALLER DUP6 DUP6 PUSH1 0x40 MLOAD PUSH2 0xA1F SWAP4 SWAP3 SWAP2 SWAP1 PUSH2 0x1675 JUMP JUMPDEST PUSH1 0x40 MLOAD DUP1 SWAP2 SUB SWAP1 LOG1 POP POP POP POP JUMP JUMPDEST PUSH1 0x2 PUSH1 0x20 MSTORE DUP1 PUSH1 0x0 MSTORE PUSH1 0x40 PUSH1 0x0 KECCAK256 PUSH1 0x0 SWAP2 POP SWAP1 POP SLOAD DUP2 JUMP JUMPDEST PUSH1 0x3 PUSH1 0x20 MSTORE DUP1 PUSH1 0x0 MSTORE PUSH1 0x40 PUSH1 0x0 KECCAK256 PUSH1 0x0 SWAP2 POP SWAP1 POP SLOAD DUP2 JUMP JUMPDEST DUP1 DUP3 PUSH20 0xFFFFFFFFFFFFFFFFFFFFFFFFFFFFFFFFFFFFFFFF AND PUSH4 0x70A08231 CALLER PUSH1 0x40 MLOAD DUP3 PUSH4 0xFFFFFFFF AND PUSH1 0xE0 SHL DUP2 MSTORE PUSH1 0x4 ADD PUSH2 0xA97 SWAP2 SWAP1 PUSH2 0x15D0 JUMP JUMPDEST PUSH1 0x20 PUSH1 0x40 MLOAD DUP1 DUP4 SUB DUP2 DUP7 DUP1 EXTCODESIZE ISZERO DUP1 ISZERO PUSH2 0xAAF JUMPI PUSH1 0x0 DUP1 REVERT JUMPDEST POP GAS STATICCALL ISZERO DUP1 ISZERO PUSH2 0xAC3 JUMPI RETURNDATASIZE PUSH1 0x0 DUP1 RETURNDATACOPY RETURNDATASIZE PUSH1 0x0 REVERT JUMPDEST POP POP POP POP PUSH1 0x40 MLOAD RETURNDATASIZE PUSH1 0x1F NOT PUSH1 0x1F DUP3 ADD AND DUP3 ADD DUP1 PUSH1 0x40 MSTORE POP DUP2 ADD SWAP1 PUSH2 0xAE7 SWAP2 SWAP1 PUSH2 0x1392 JUMP JUMPDEST GT ISZERO PUSH2 0xB28 JUMPI PUSH1 0x40 MLOAD PUSH32 0x8C379A000000000000000000000000000000000000000000000000000000000 DUP2 MSTORE PUSH1 0x4 ADD PUSH2 0xB1F SWAP1 PUSH2 0x17F5 JUMP JUMPDEST PUSH1 0x40 MLOAD DUP1 SWAP2 SUB SWAP1 REVERT JUMPDEST PUSH1 0x0 PUSH1 0x2 PUSH1 0x0 DUP6 PUSH20 0xFFFFFFFFFFFFFFFFFFFFFFFFFFFFFFFFFFFFFFFF AND PUSH20 0xFFFFFFFFFFFFFFFFFFFFFFFFFFFFFFFFFFFFFFFF AND DUP2 MSTORE PUSH1 0x20 ADD SWAP1 DUP2 MSTORE PUSH1 0x20 ADD PUSH1 0x0 KECCAK256 SLOAD EQ ISZERO PUSH2 0xBAB JUMPI PUSH1 0x40 MLOAD PUSH32 0x8C379A000000000000000000000000000000000000000000000000000000000 DUP2 MSTORE PUSH1 0x4 ADD PUSH2 0xBA2 SWAP1 PUSH2 0x1795 JUMP JUMPDEST PUSH1 0x40 MLOAD DUP1 SWAP2 SUB SWAP1 REVERT JUMPDEST PUSH1 0x0 PUSH1 0x2 PUSH1 0x0 DUP5 PUSH20 0xFFFFFFFFFFFFFFFFFFFFFFFFFFFFFFFFFFFFFFFF AND PUSH20 0xFFFFFFFFFFFFFFFFFFFFFFFFFFFFFFFFFFFFFFFF AND DUP2 MSTORE PUSH1 0x20 ADD SWAP1 DUP2 MSTORE PUSH1 0x20 ADD PUSH1 0x0 KECCAK256 SLOAD EQ ISZERO PUSH2 0xC2E JUMPI PUSH1 0x40 MLOAD PUSH32 0x8C379A000000000000000000000000000000000000000000000000000000000 DUP2 MSTORE PUSH1 0x4 ADD PUSH2 0xC25 SWAP1 PUSH2 0x16D5 JUMP JUMPDEST PUSH1 0x40 MLOAD DUP1 SWAP2 SUB SWAP1 REVERT JUMPDEST PUSH1 0x0 PUSH1 0x2 PUSH1 0x0 DUP6 PUSH20 0xFFFFFFFFFFFFFFFFFFFFFFFFFFFFFFFFFFFFFFFF AND PUSH20 0xFFFFFFFFFFFFFFFFFFFFFFFFFFFFFFFFFFFFFFFF AND DUP2 MSTORE PUSH1 0x20 ADD SWAP1 DUP2 MSTORE PUSH1 0x20 ADD PUSH1 0x0 KECCAK256 SLOAD PUSH1 0x2 PUSH1 0x0 DUP6 PUSH20 0xFFFFFFFFFFFFFFFFFFFFFFFFFFFFFFFFFFFFFFFF AND PUSH20 0xFFFFFFFFFFFFFFFFFFFFFFFFFFFFFFFFFFFFFFFF AND DUP2 MSTORE PUSH1 0x20 ADD SWAP1 DUP2 MSTORE PUSH1 0x20 ADD PUSH1 0x0 KECCAK256 SLOAD DUP4 PUSH2 0xCBB SWAP2 SWAP1 PUSH2 0x18D7 JUMP JUMPDEST PUSH2 0xCC5 SWAP2 SWAP1 PUSH2 0x1908 JUMP JUMPDEST SWAP1 POP DUP1 DUP5 PUSH20 0xFFFFFFFFFFFFFFFFFFFFFFFFFFFFFFFFFFFFFFFF AND PUSH4 0x70A08231 ADDRESS PUSH1 0x40 MLOAD DUP3 PUSH4 0xFFFFFFFF AND PUSH1 0xE0 SHL DUP2 MSTORE PUSH1 0x4 ADD PUSH2 0xD01 SWAP2 SWAP1 PUSH2 0x15D0 JUMP JUMPDEST PUSH1 0x20 PUSH1 0x40 MLOAD DUP1 DUP4 SUB DUP2 DUP7 DUP1 EXTCODESIZE ISZERO DUP1 ISZERO PUSH2 0xD19 JUMPI PUSH1 0x0 DUP1 REVERT JUMPDEST POP GAS STATICCALL ISZERO DUP1 ISZERO PUSH2 0xD2D JUMPI RETURNDATASIZE PUSH1 0x0 DUP1 RETURNDATACOPY RETURNDATASIZE PUSH1 0x0 REVERT JUMPDEST POP POP POP POP PUSH1 0x40 MLOAD RETURNDATASIZE PUSH1 0x1F NOT PUSH1 0x1F DUP3 ADD AND DUP3 ADD DUP1 PUSH1 0x40 MSTORE POP DUP2 ADD SWAP1 PUSH2 0xD51 SWAP2 SWAP1 PUSH2 0x1392 JUMP JUMPDEST GT ISZERO PUSH2 0xD92 JUMPI PUSH1 0x40 MLOAD PUSH32 0x8C379A000000000000000000000000000000000000000000000000000000000 DUP2 MSTORE PUSH1 0x4 ADD PUSH2 0xD89 SWAP1 PUSH2 0x1775 JUMP JUMPDEST PUSH1 0x40 MLOAD DUP1 SWAP2 SUB SWAP1 REVERT JUMPDEST DUP4 PUSH20 0xFFFFFFFFFFFFFFFFFFFFFFFFFFFFFFFFFFFFFFFF AND PUSH4 0x23B872DD ADDRESS CALLER DUP5 PUSH1 0x40 MLOAD DUP5 PUSH4 0xFFFFFFFF AND PUSH1 0xE0 SHL DUP2 MSTORE PUSH1 0x4 ADD PUSH2 0xDCF SWAP4 SWAP3 SWAP2 SWAP1 PUSH2 0x1675 JUMP JUMPDEST PUSH1 0x20 PUSH1 0x40 MLOAD DUP1 DUP4 SUB DUP2 PUSH1 0x0 DUP8 DUP1 EXTCODESIZE ISZERO DUP1 ISZERO PUSH2 0xDE9 JUMPI PUSH1 0x0 DUP1 REVERT JUMPDEST POP GAS CALL ISZERO DUP1 ISZERO PUSH2 0xDFD JUMPI RETURNDATASIZE PUSH1 0x0 DUP1 RETURNDATACOPY RETURNDATASIZE PUSH1 0x0 REVERT JUMPDEST POP POP POP POP PUSH1 0x40 MLOAD RETURNDATASIZE PUSH1 0x1F NOT PUSH1 0x1F DUP3 ADD AND DUP3 ADD DUP1 PUSH1 0x40 MSTORE POP DUP2 ADD SWAP1 PUSH2 0xE21 SWAP2 SWAP1 PUSH2 0x1252 JUMP JUMPDEST POP DUP3 PUSH20 0xFFFFFFFFFFFFFFFFFFFFFFFFFFFFFFFFFFFFFFFF AND PUSH4 0x23B872DD CALLER ADDRESS DUP6 PUSH1 0x40 MLOAD DUP5 PUSH4 0xFFFFFFFF AND PUSH1 0xE0 SHL DUP2 MSTORE PUSH1 0x4 ADD PUSH2 0xE5F SWAP4 SWAP3 SWAP2 SWAP1 PUSH2 0x1675 JUMP JUMPDEST PUSH1 0x20 PUSH1 0x40 MLOAD DUP1 DUP4 SUB DUP2 PUSH1 0x0 DUP8 DUP1 EXTCODESIZE ISZERO DUP1 ISZERO PUSH2 0xE79 JUMPI PUSH1 0x0 DUP1 REVERT JUMPDEST POP GAS CALL ISZERO DUP1 ISZERO PUSH2 0xE8D JUMPI RETURNDATASIZE PUSH1 0x0 DUP1 RETURNDATACOPY RETURNDATASIZE PUSH1 0x0 REVERT JUMPDEST POP POP POP POP PUSH1 0x40 MLOAD RETURNDATASIZE PUSH1 0x1F NOT PUSH1 0x1F DUP3 ADD AND DUP3 ADD DUP1 PUSH1 0x40 MSTORE POP DUP2 ADD SWAP1 PUSH2 0xEB1 SWAP2 SWAP1 PUSH2 0x1252 JUMP JUMPDEST POP PUSH32 0xAD56699D0F375866EB895ED27203058A36A713382AADED78EB6B67DA266D4332 CALLER DUP6 DUP6 DUP5 DUP7 PUSH1 0x40 MLOAD PUSH2 0xEE9 SWAP6 SWAP5 SWAP4 SWAP3 SWAP2 SWAP1 PUSH2 0x1622 JUMP JUMPDEST PUSH1 0x40 MLOAD DUP1 SWAP2 SUB SWAP1 LOG1 POP POP POP POP JUMP JUMPDEST PUSH1 0x0 PUSH1 0x2 PUSH1 0x0 DUP4 PUSH20 0xFFFFFFFFFFFFFFFFFFFFFFFFFFFFFFFFFFFFFFFF AND PUSH20 0xFFFFFFFFFFFFFFFFFFFFFFFFFFFFFFFFFFFFFFFF AND DUP2 MSTORE PUSH1 0x20 ADD SWAP1 DUP2 MSTORE PUSH1 0x20 ADD PUSH1 0x0 KECCAK256 SLOAD EQ ISZERO PUSH2 0xF7A JUMPI PUSH1 0x40 MLOAD PUSH32 0x8C379A000000000000000000000000000000000000000000000000000000000 DUP2 MSTORE PUSH1 0x4 ADD PUSH2 0xF71 SWAP1 PUSH2 0x1815 JUMP JUMPDEST PUSH1 0x40 MLOAD DUP1 SWAP2 SUB SWAP1 REVERT JUMPDEST PUSH1 0x0 PUSH1 0x2 PUSH1 0x0 DUP4 PUSH20 0xFFFFFFFFFFFFFFFFFFFFFFFFFFFFFFFFFFFFFFFF AND PUSH20 0xFFFFFFFFFFFFFFFFFFFFFFFFFFFFFFFFFFFFFFFF AND DUP2 MSTORE PUSH1 0x20 ADD SWAP1 DUP2 MSTORE PUSH1 0x20 ADD PUSH1 0x0 KECCAK256 SLOAD SWAP1 POP PUSH1 0x0 DUP2 CALLVALUE PUSH2 0xFCC SWAP2 SWAP1 PUSH2 0x1908 JUMP JUMPDEST SWAP1 POP DUP1 DUP4 PUSH20 0xFFFFFFFFFFFFFFFFFFFFFFFFFFFFFFFFFFFFFFFF AND PUSH4 0x70A08231 ADDRESS PUSH1 0x40 MLOAD DUP3 PUSH4 0xFFFFFFFF AND PUSH1 0xE0 SHL DUP2 MSTORE PUSH1 0x4 ADD PUSH2 0x1008 SWAP2 SWAP1 PUSH2 0x15D0 JUMP JUMPDEST PUSH1 0x20 PUSH1 0x40 MLOAD DUP1 DUP4 SUB DUP2 DUP7 DUP1 EXTCODESIZE ISZERO DUP1 ISZERO PUSH2 0x1020 JUMPI PUSH1 0x0 DUP1 REVERT JUMPDEST POP GAS STATICCALL ISZERO DUP1 ISZERO PUSH2 0x1034 JUMPI RETURNDATASIZE PUSH1 0x0 DUP1 RETURNDATACOPY RETURNDATASIZE PUSH1 0x0 REVERT JUMPDEST POP POP POP POP PUSH1 0x40 MLOAD RETURNDATASIZE PUSH1 0x1F NOT PUSH1 0x1F DUP3 ADD AND DUP3 ADD DUP1 PUSH1 0x40 MSTORE POP DUP2 ADD SWAP1 PUSH2 0x1058 SWAP2 SWAP1 PUSH2 0x1392 JUMP JUMPDEST LT ISZERO PUSH2 0x1099 JUMPI PUSH1 0x40 MLOAD PUSH32 0x8C379A000000000000000000000000000000000000000000000000000000000 DUP2 MSTORE PUSH1 0x4 ADD PUSH2 0x1090 SWAP1 PUSH2 0x1835 JUMP JUMPDEST PUSH1 0x40 MLOAD DUP1 SWAP2 SUB SWAP1 REVERT JUMPDEST DUP3 PUSH20 0xFFFFFFFFFFFFFFFFFFFFFFFFFFFFFFFFFFFFFFFF AND PUSH4 0xA9059CBB CALLER DUP4 PUSH1 0x40 MLOAD DUP4 PUSH4 0xFFFFFFFF AND PUSH1 0xE0 SHL DUP2 MSTORE PUSH1 0x4 ADD PUSH2 0x10D4 SWAP3 SWAP2 SWAP1 PUSH2 0x16AC JUMP JUMPDEST PUSH1 0x20 PUSH1 0x40 MLOAD DUP1 DUP4 SUB DUP2 PUSH1 0x0 DUP8 DUP1 EXTCODESIZE ISZERO DUP1 ISZERO PUSH2 0x10EE JUMPI PUSH1 0x0 DUP1 REVERT JUMPDEST POP GAS CALL ISZERO DUP1 ISZERO PUSH2 0x1102 JUMPI RETURNDATASIZE PUSH1 0x0 DUP1 RETURNDATACOPY RETURNDATASIZE PUSH1 0x0 REVERT JUMPDEST POP POP POP POP PUSH1 0x40 MLOAD RETURNDATASIZE PUSH1 0x1F NOT PUSH1 0x1F DUP3 ADD AND DUP3 ADD DUP1 PUSH1 0x40 MSTORE POP DUP2 ADD SWAP1 PUSH2 0x1126 SWAP2 SWAP1 PUSH2 0x1252 JUMP JUMPDEST POP PUSH32 0xF9B4EB3E43EEBBF559E9B96CEFF1C786A7EDAB2938C7F5F80678197C2E0EDBA5 CALLER DUP5 DUP4 PUSH1 0x40 MLOAD PUSH2 0x115A SWAP4 SWAP3 SWAP2 SWAP1 PUSH2 0x1675 JUMP JUMPDEST PUSH1 0x40 MLOAD DUP1 SWAP2 SUB SWAP1 LOG1 POP POP POP JUMP JUMPDEST PUSH1 0x0 DUP2 CALLDATALOAD SWAP1 POP PUSH2 0x1176 DUP2 PUSH2 0x1DB7 JUMP JUMPDEST SWAP3 SWAP2 POP POP JUMP JUMPDEST PUSH1 0x0 DUP2 CALLDATALOAD SWAP1 POP PUSH2 0x118B DUP2 PUSH2 0x1DCE JUMP JUMPDEST SWAP3 SWAP2 POP POP JUMP JUMPDEST PUSH1 0x0 DUP2 MLOAD SWAP1 POP PUSH2 0x11A0 DUP2 PUSH2 0x1DE5 JUMP JUMPDEST SWAP3 SWAP2 POP POP JUMP JUMPDEST PUSH1 0x0 DUP2 CALLDATALOAD SWAP1 POP PUSH2 0x11B5 DUP2 PUSH2 0x1DFC JUMP JUMPDEST SWAP3 SWAP2 POP POP JUMP JUMPDEST PUSH1 0x0 DUP2 CALLDATALOAD SWAP1 POP PUSH2 0x11CA DUP2 PUSH2 0x1E13 JUMP JUMPDEST SWAP3 SWAP2 POP POP JUMP JUMPDEST PUSH1 0x0 DUP2 MLOAD SWAP1 POP PUSH2 0x11DF DUP2 PUSH2 0x1E13 JUMP JUMPDEST SWAP3 SWAP2 POP POP JUMP JUMPDEST PUSH1 0x0 PUSH1 0x20 DUP3 DUP5 SUB SLT ISZERO PUSH2 0x11FB JUMPI PUSH2 0x11FA PUSH2 0x1A96 JUMP JUMPDEST JUMPDEST PUSH1 0x0 PUSH2 0x1209 DUP5 DUP3 DUP6 ADD PUSH2 0x1167 JUMP JUMPDEST SWAP2 POP POP SWAP3 SWAP2 POP POP JUMP JUMPDEST PUSH1 0x0 DUP1 PUSH1 0x40 DUP4 DUP6 SUB SLT ISZERO PUSH2 0x1229 JUMPI PUSH2 0x1228 PUSH2 0x1A96 JUMP JUMPDEST JUMPDEST PUSH1 0x0 PUSH2 0x1237 DUP6 DUP3 DUP7 ADD PUSH2 0x1167 JUMP JUMPDEST SWAP3 POP POP PUSH1 0x20 PUSH2 0x1248 DUP6 DUP3 DUP7 ADD PUSH2 0x11BB JUMP JUMPDEST SWAP2 POP POP SWAP3 POP SWAP3 SWAP1 POP JUMP JUMPDEST PUSH1 0x0 PUSH1 0x20 DUP3 DUP5 SUB SLT ISZERO PUSH2 0x1268 JUMPI PUSH2 0x1267 PUSH2 0x1A96 JUMP JUMPDEST JUMPDEST PUSH1 0x0 PUSH2 0x1276 DUP5 DUP3 DUP6 ADD PUSH2 0x1191 JUMP JUMPDEST SWAP2 POP POP SWAP3 SWAP2 POP POP JUMP JUMPDEST PUSH1 0x0 PUSH1 0x20 DUP3 DUP5 SUB SLT ISZERO PUSH2 0x1295 JUMPI PUSH2 0x1294 PUSH2 0x1A96 JUMP JUMPDEST JUMPDEST PUSH1 0x0 PUSH2 0x12A3 DUP5 DUP3 DUP6 ADD PUSH2 0x11A6 JUMP JUMPDEST SWAP2 POP POP SWAP3 SWAP2 POP POP JUMP JUMPDEST PUSH1 0x0 DUP1 PUSH1 0x0 PUSH1 0x60 DUP5 DUP7 SUB SLT ISZERO PUSH2 0x12C5 JUMPI PUSH2 0x12C4 PUSH2 0x1A96 JUMP JUMPDEST JUMPDEST PUSH1 0x0 PUSH2 0x12D3 DUP7 DUP3 DUP8 ADD PUSH2 0x11A6 JUMP JUMPDEST SWAP4 POP POP PUSH1 0x20 PUSH2 0x12E4 DUP7 DUP3 DUP8 ADD PUSH2 0x1167 JUMP JUMPDEST SWAP3 POP POP PUSH1 0x40 PUSH2 0x12F5 DUP7 DUP3 DUP8 ADD PUSH2 0x11BB JUMP JUMPDEST SWAP2 POP POP SWAP3 POP SWAP3 POP SWAP3 JUMP JUMPDEST PUSH1 0x0 DUP1 PUSH1 0x0 PUSH1 0x60 DUP5 DUP7 SUB SLT ISZERO PUSH2 0x1318 JUMPI PUSH2 0x1317 PUSH2 0x1A96 JUMP JUMPDEST JUMPDEST PUSH1 0x0 PUSH2 0x1326 DUP7 DUP3 DUP8 ADD PUSH2 0x11A6 JUMP JUMPDEST SWAP4 POP POP PUSH1 0x20 PUSH2 0x1337 DUP7 DUP3 DUP8 ADD PUSH2 0x11A6 JUMP JUMPDEST SWAP3 POP POP PUSH1 0x40 PUSH2 0x1348 DUP7 DUP3 DUP8 ADD PUSH2 0x11BB JUMP JUMPDEST SWAP2 POP POP SWAP3 POP SWAP3 POP SWAP3 JUMP JUMPDEST PUSH1 0x0 DUP1 PUSH1 0x40 DUP4 DUP6 SUB SLT ISZERO PUSH2 0x1369 JUMPI PUSH2 0x1368 PUSH2 0x1A96 JUMP JUMPDEST JUMPDEST PUSH1 0x0 PUSH2 0x1377 DUP6 DUP3 DUP7 ADD PUSH2 0x11A6 JUMP JUMPDEST SWAP3 POP POP PUSH1 0x20 PUSH2 0x1388 DUP6 DUP3 DUP7 ADD PUSH2 0x11BB JUMP JUMPDEST SWAP2 POP POP SWAP3 POP SWAP3 SWAP1 POP JUMP JUMPDEST PUSH1 0x0 PUSH1 0x20 DUP3 DUP5 SUB SLT ISZERO PUSH2 0x13A8 JUMPI PUSH2 0x13A7 PUSH2 0x1A96 JUMP JUMPDEST JUMPDEST PUSH1 0x0 PUSH2 0x13B6 DUP5 DUP3 DUP6 ADD PUSH2 0x11D0 JUMP JUMPDEST SWAP2 POP POP SWAP3 SWAP2 POP POP JUMP JUMPDEST PUSH1 0x0 DUP1 PUSH1 0x40 DUP4 DUP6 SUB SLT ISZERO PUSH2 0x13D6 JUMPI PUSH2 0x13D5 PUSH2 0x1A96 JUMP JUMPDEST JUMPDEST PUSH1 0x0 PUSH2 0x13E4 DUP6 DUP3 DUP7 ADD PUSH2 0x11BB JUMP JUMPDEST SWAP3 POP POP PUSH1 0x20 PUSH2 0x13F5 DUP6 DUP3 DUP7 ADD PUSH2 0x117C JUMP JUMPDEST SWAP2 POP POP SWAP3 POP SWAP3 SWAP1 POP JUMP JUMPDEST PUSH2 0x1408 DUP2 PUSH2 0x1A02 JUMP JUMPDEST DUP3 MSTORE POP POP JUMP JUMPDEST PUSH2 0x1417 DUP2 PUSH2 0x1996 JUMP JUMPDEST DUP3 MSTORE POP POP JUMP JUMPDEST PUSH1 0x0 PUSH2 0x142A PUSH1 0x37 DUP4 PUSH2 0x1870 JUMP JUMPDEST SWAP2 POP PUSH2 0x1435 DUP3 PUSH2 0x1A9B JUMP JUMPDEST PUSH1 0x40 DUP3 ADD SWAP1 POP SWAP2 SWAP1 POP JUMP JUMPDEST PUSH1 0x0 PUSH2 0x144D PUSH1 0x37 DUP4 PUSH2 0x1870 JUMP JUMPDEST SWAP2 POP PUSH2 0x1458 DUP3 PUSH2 0x1AEA JUMP JUMPDEST PUSH1 0x40 DUP3 ADD SWAP1 POP SWAP2 SWAP1 POP JUMP JUMPDEST PUSH1 0x0 PUSH2 0x1470 PUSH1 0x34 DUP4 PUSH2 0x1870 JUMP JUMPDEST SWAP2 POP PUSH2 0x147B DUP3 PUSH2 0x1B39 JUMP JUMPDEST PUSH1 0x40 DUP3 ADD SWAP1 POP SWAP2 SWAP1 POP JUMP JUMPDEST PUSH1 0x0 PUSH2 0x1493 PUSH1 0x1D DUP4 PUSH2 0x1870 JUMP JUMPDEST SWAP2 POP PUSH2 0x149E DUP3 PUSH2 0x1B88 JUMP JUMPDEST PUSH1 0x20 DUP3 ADD SWAP1 POP SWAP2 SWAP1 POP JUMP JUMPDEST PUSH1 0x0 PUSH2 0x14B6 PUSH1 0x12 DUP4 PUSH2 0x1870 JUMP JUMPDEST SWAP2 POP PUSH2 0x14C1 DUP3 PUSH2 0x1BB1 JUMP JUMPDEST PUSH1 0x20 DUP3 ADD SWAP1 POP SWAP2 SWAP1 POP JUMP JUMPDEST PUSH1 0x0 PUSH2 0x14D9 PUSH1 0x1B DUP4 PUSH2 0x1870 JUMP JUMPDEST SWAP2 POP PUSH2 0x14E4 DUP3 PUSH2 0x1BDA JUMP JUMPDEST PUSH1 0x20 DUP3 ADD SWAP1 POP SWAP2 SWAP1 POP JUMP JUMPDEST PUSH1 0x0 PUSH2 0x14FC PUSH1 0x36 DUP4 PUSH2 0x1870 JUMP JUMPDEST SWAP2 POP PUSH2 0x1507 DUP3 PUSH2 0x1C03 JUMP JUMPDEST PUSH1 0x40 DUP3 ADD SWAP1 POP SWAP2 SWAP1 POP JUMP JUMPDEST PUSH1 0x0 PUSH2 0x151F PUSH1 0xE DUP4 PUSH2 0x1870 JUMP JUMPDEST SWAP2 POP PUSH2 0x152A DUP3 PUSH2 0x1C52 JUMP JUMPDEST PUSH1 0x20 DUP3 ADD SWAP1 POP SWAP2 SWAP1 POP JUMP JUMPDEST PUSH1 0x0 PUSH2 0x1542 PUSH1 0x22 DUP4 PUSH2 0x1870 JUMP JUMPDEST SWAP2 POP PUSH2 0x154D DUP3 PUSH2 0x1C7B JUMP JUMPDEST PUSH1 0x40 DUP3 ADD SWAP1 POP SWAP2 SWAP1 POP JUMP JUMPDEST PUSH1 0x0 PUSH2 0x1565 PUSH1 0x27 DUP4 PUSH2 0x1870 JUMP JUMPDEST SWAP2 POP PUSH2 0x1570 DUP3 PUSH2 0x1CCA JUMP JUMPDEST PUSH1 0x40 DUP3 ADD SWAP1 POP SWAP2 SWAP1 POP JUMP JUMPDEST PUSH1 0x0 PUSH2 0x1588 PUSH1 0x28 DUP4 PUSH2 0x1870 JUMP JUMPDEST SWAP2 POP PUSH2 0x1593 DUP3 PUSH2 0x1D19 JUMP JUMPDEST PUSH1 0x40 DUP3 ADD SWAP1 POP SWAP2 SWAP1 POP JUMP JUMPDEST PUSH1 0x0 PUSH2 0x15AB PUSH1 0x33 DUP4 PUSH2 0x1870 JUMP JUMPDEST SWAP2 POP PUSH2 0x15B6 DUP3 PUSH2 0x1D68 JUMP JUMPDEST PUSH1 0x40 DUP3 ADD SWAP1 POP SWAP2 SWAP1 POP JUMP JUMPDEST PUSH2 0x15CA DUP2 PUSH2 0x19F8 JUMP JUMPDEST DUP3 MSTORE POP POP JUMP JUMPDEST PUSH1 0x0 PUSH1 0x20 DUP3 ADD SWAP1 POP PUSH2 0x15E5 PUSH1 0x0 DUP4 ADD DUP5 PUSH2 0x140E JUMP JUMPDEST SWAP3 SWAP2 POP POP JUMP JUMPDEST PUSH1 0x0 PUSH1 0x60 DUP3 ADD SWAP1 POP PUSH2 0x1600 PUSH1 0x0 DUP4 ADD DUP7 PUSH2 0x140E JUMP JUMPDEST PUSH2 0x160D PUSH1 0x20 DUP4 ADD DUP6 PUSH2 0x13FF JUMP JUMPDEST PUSH2 0x161A PUSH1 0x40 DUP4 ADD DUP5 PUSH2 0x15C1 JUMP JUMPDEST SWAP5 SWAP4 POP POP POP POP JUMP JUMPDEST PUSH1 0x0 PUSH1 0xA0 DUP3 ADD SWAP1 POP PUSH2 0x1637 PUSH1 0x0 DUP4 ADD DUP9 PUSH2 0x140E JUMP JUMPDEST PUSH2 0x1644 PUSH1 0x20 DUP4 ADD DUP8 PUSH2 0x140E JUMP JUMPDEST PUSH2 0x1651 PUSH1 0x40 DUP4 ADD DUP7 PUSH2 0x140E JUMP JUMPDEST PUSH2 0x165E PUSH1 0x60 DUP4 ADD DUP6 PUSH2 0x15C1 JUMP JUMPDEST PUSH2 0x166B PUSH1 0x80 DUP4 ADD DUP5 PUSH2 0x15C1 JUMP JUMPDEST SWAP7 SWAP6 POP POP POP POP POP POP JUMP JUMPDEST PUSH1 0x0 PUSH1 0x60 DUP3 ADD SWAP1 POP PUSH2 0x168A PUSH1 0x0 DUP4 ADD DUP7 PUSH2 0x140E JUMP JUMPDEST PUSH2 0x1697 PUSH1 0x20 DUP4 ADD DUP6 PUSH2 0x140E JUMP JUMPDEST PUSH2 0x16A4 PUSH1 0x40 DUP4 ADD DUP5 PUSH2 0x15C1 JUMP JUMPDEST SWAP5 SWAP4 POP POP POP POP JUMP JUMPDEST PUSH1 0x0 PUSH1 0x40 DUP3 ADD SWAP1 POP PUSH2 0x16C1 PUSH1 0x0 DUP4 ADD DUP6 PUSH2 0x140E JUMP JUMPDEST PUSH2 0x16CE PUSH1 0x20 DUP4 ADD DUP5 PUSH2 0x15C1 JUMP JUMPDEST SWAP4 SWAP3 POP POP POP JUMP JUMPDEST PUSH1 0x0 PUSH1 0x20 DUP3 ADD SWAP1 POP DUP2 DUP2 SUB PUSH1 0x0 DUP4 ADD MSTORE PUSH2 0x16EE DUP2 PUSH2 0x141D JUMP JUMPDEST SWAP1 POP SWAP2 SWAP1 POP JUMP JUMPDEST PUSH1 0x0 PUSH1 0x20 DUP3 ADD SWAP1 POP DUP2 DUP2 SUB PUSH1 0x0 DUP4 ADD MSTORE PUSH2 0x170E DUP2 PUSH2 0x1440 JUMP JUMPDEST SWAP1 POP SWAP2 SWAP1 POP JUMP JUMPDEST PUSH1 0x0 PUSH1 0x20 DUP3 ADD SWAP1 POP DUP2 DUP2 SUB PUSH1 0x0 DUP4 ADD MSTORE PUSH2 0x172E DUP2 PUSH2 0x1463 JUMP JUMPDEST SWAP1 POP SWAP2 SWAP1 POP JUMP JUMPDEST PUSH1 0x0 PUSH1 0x20 DUP3 ADD SWAP1 POP DUP2 DUP2 SUB PUSH1 0x0 DUP4 ADD MSTORE PUSH2 0x174E DUP2 PUSH2 0x1486 JUMP JUMPDEST SWAP1 POP SWAP2 SWAP1 POP JUMP JUMPDEST PUSH1 0x0 PUSH1 0x20 DUP3 ADD SWAP1 POP DUP2 DUP2 SUB PUSH1 0x0 DUP4 ADD MSTORE PUSH2 0x176E DUP2 PUSH2 0x14A9 JUMP JUMPDEST SWAP1 POP SWAP2 SWAP1 POP JUMP JUMPDEST PUSH1 0x0 PUSH1 0x20 DUP3 ADD SWAP1 POP DUP2 DUP2 SUB PUSH1 0x0 DUP4 ADD MSTORE PUSH2 0x178E DUP2 PUSH2 0x14CC JUMP JUMPDEST SWAP1 POP SWAP2 SWAP1 POP JUMP JUMPDEST PUSH1 0x0 PUSH1 0x20 DUP3 ADD SWAP1 POP DUP2 DUP2 SUB PUSH1 0x0 DUP4 ADD MSTORE PUSH2 0x17AE DUP2 PUSH2 0x14EF JUMP JUMPDEST SWAP1 POP SWAP2 SWAP1 POP JUMP JUMPDEST PUSH1 0x0 PUSH1 0x20 DUP3 ADD SWAP1 POP DUP2 DUP2 SUB PUSH1 0x0 DUP4 ADD MSTORE PUSH2 0x17CE DUP2 PUSH2 0x1512 JUMP JUMPDEST SWAP1 POP SWAP2 SWAP1 POP JUMP JUMPDEST PUSH1 0x0 PUSH1 0x20 DUP3 ADD SWAP1 POP DUP2 DUP2 SUB PUSH1 0x0 DUP4 ADD MSTORE PUSH2 0x17EE DUP2 PUSH2 0x1535 JUMP JUMPDEST SWAP1 POP SWAP2 SWAP1 POP JUMP JUMPDEST PUSH1 0x0 PUSH1 0x20 DUP3 ADD SWAP1 POP DUP2 DUP2 SUB PUSH1 0x0 DUP4 ADD MSTORE PUSH2 0x180E DUP2 PUSH2 0x1558 JUMP JUMPDEST SWAP1 POP SWAP2 SWAP1 POP JUMP JUMPDEST PUSH1 0x0 PUSH1 0x20 DUP3 ADD SWAP1 POP DUP2 DUP2 SUB PUSH1 0x0 DUP4 ADD MSTORE PUSH2 0x182E DUP2 PUSH2 0x157B JUMP JUMPDEST SWAP1 POP SWAP2 SWAP1 POP JUMP JUMPDEST PUSH1 0x0 PUSH1 0x20 DUP3 ADD SWAP1 POP DUP2 DUP2 SUB PUSH1 0x0 DUP4 ADD MSTORE PUSH2 0x184E DUP2 PUSH2 0x159E JUMP JUMPDEST SWAP1 POP SWAP2 SWAP1 POP JUMP JUMPDEST PUSH1 0x0 PUSH1 0x20 DUP3 ADD SWAP1 POP PUSH2 0x186A PUSH1 0x0 DUP4 ADD DUP5 PUSH2 0x15C1 JUMP JUMPDEST SWAP3 SWAP2 POP POP JUMP JUMPDEST PUSH1 0x0 DUP3 DUP3 MSTORE PUSH1 0x20 DUP3 ADD SWAP1 POP SWAP3 SWAP2 POP POP JUMP JUMPDEST PUSH1 0x0 PUSH2 0x188C DUP3 PUSH2 0x19F8 JUMP JUMPDEST SWAP2 POP PUSH2 0x1897 DUP4 PUSH2 0x19F8 JUMP JUMPDEST SWAP3 POP DUP3 PUSH32 0xFFFFFFFFFFFFFFFFFFFFFFFFFFFFFFFFFFFFFFFFFFFFFFFFFFFFFFFFFFFFFFFF SUB DUP3 GT ISZERO PUSH2 0x18CC JUMPI PUSH2 0x18CB PUSH2 0x1A38 JUMP JUMPDEST JUMPDEST DUP3 DUP3 ADD SWAP1 POP SWAP3 SWAP2 POP POP JUMP JUMPDEST PUSH1 0x0 PUSH2 0x18E2 DUP3 PUSH2 0x19F8 JUMP JUMPDEST SWAP2 POP PUSH2 0x18ED DUP4 PUSH2 0x19F8 JUMP JUMPDEST SWAP3 POP DUP3 PUSH2 0x18FD JUMPI PUSH2 0x18FC PUSH2 0x1A67 JUMP JUMPDEST JUMPDEST DUP3 DUP3 DIV SWAP1 POP SWAP3 SWAP2 POP POP JUMP JUMPDEST PUSH1 0x0 PUSH2 0x1913 DUP3 PUSH2 0x19F8 JUMP JUMPDEST SWAP2 POP PUSH2 0x191E DUP4 PUSH2 0x19F8 JUMP JUMPDEST SWAP3 POP DUP2 PUSH32 0xFFFFFFFFFFFFFFFFFFFFFFFFFFFFFFFFFFFFFFFFFFFFFFFFFFFFFFFFFFFFFFFF DIV DUP4 GT DUP3 ISZERO ISZERO AND ISZERO PUSH2 0x1957 JUMPI PUSH2 0x1956 PUSH2 0x1A38 JUMP JUMPDEST JUMPDEST DUP3 DUP3 MUL SWAP1 POP SWAP3 SWAP2 POP POP JUMP JUMPDEST PUSH1 0x0 PUSH2 0x196D DUP3 PUSH2 0x19F8 JUMP JUMPDEST SWAP2 POP PUSH2 0x1978 DUP4 PUSH2 0x19F8 JUMP JUMPDEST SWAP3 POP DUP3 DUP3 LT ISZERO PUSH2 0x198B JUMPI PUSH2 0x198A PUSH2 0x1A38 JUMP JUMPDEST JUMPDEST DUP3 DUP3 SUB SWAP1 POP SWAP3 SWAP2 POP POP JUMP JUMPDEST PUSH1 0x0 PUSH2 0x19A1 DUP3 PUSH2 0x19D8 JUMP JUMPDEST SWAP1 POP SWAP2 SWAP1 POP JUMP JUMPDEST PUSH1 0x0 PUSH2 0x19B3 DUP3 PUSH2 0x19D8 JUMP JUMPDEST SWAP1 POP SWAP2 SWAP1 POP JUMP JUMPDEST PUSH1 0x0 DUP2 ISZERO ISZERO SWAP1 POP SWAP2 SWAP1 POP JUMP JUMPDEST PUSH1 0x0 PUSH2 0x19D1 DUP3 PUSH2 0x1996 JUMP JUMPDEST SWAP1 POP SWAP2 SWAP1 POP JUMP JUMPDEST PUSH1 0x0 PUSH20 0xFFFFFFFFFFFFFFFFFFFFFFFFFFFFFFFFFFFFFFFF DUP3 AND SWAP1 POP SWAP2 SWAP1 POP JUMP JUMPDEST PUSH1 0x0 DUP2 SWAP1 POP SWAP2 SWAP1 POP JUMP JUMPDEST PUSH1 0x0 PUSH2 0x1A0D DUP3 PUSH2 0x1A14 JUMP JUMPDEST SWAP1 POP SWAP2 SWAP1 POP JUMP JUMPDEST PUSH1 0x0 PUSH2 0x1A1F DUP3 PUSH2 0x1A26 JUMP JUMPDEST SWAP1 POP SWAP2 SWAP1 POP JUMP JUMPDEST PUSH1 0x0 PUSH2 0x1A31 DUP3 PUSH2 0x19D8 JUMP JUMPDEST SWAP1 POP SWAP2 SWAP1 POP JUMP JUMPDEST PUSH32 0x4E487B7100000000000000000000000000000000000000000000000000000000 PUSH1 0x0 MSTORE PUSH1 0x11 PUSH1 0x4 MSTORE PUSH1 0x24 PUSH1 0x0 REVERT JUMPDEST PUSH32 0x4E487B7100000000000000000000000000000000000000000000000000000000 PUSH1 0x0 MSTORE PUSH1 0x12 PUSH1 0x4 MSTORE PUSH1 0x24 PUSH1 0x0 REVERT JUMPDEST PUSH1 0x0 DUP1 REVERT JUMPDEST PUSH32 0x546F6B656E20776869636820796F752073656C6C20636F6E76657273696F6E20 PUSH1 0x0 DUP3 ADD MSTORE PUSH32 0x72617465206973206E6F7420646566696E656420796574000000000000000000 PUSH1 0x20 DUP3 ADD MSTORE POP JUMP JUMPDEST PUSH32 0x5377617020636F6E747261637420646F6573206E6F74206861766520656E6F75 PUSH1 0x0 DUP3 ADD MSTORE PUSH32 0x676820617661696C61626C652045544820616D6F756E74000000000000000000 PUSH1 0x20 DUP3 ADD MSTORE POP JUMP JUMPDEST PUSH32 0x596F752063616E206E6F742073656C6C206D6F726520746F6B656E7320746861 PUSH1 0x0 DUP3 ADD MSTORE PUSH32 0x6E20796F752063757272656E746C7920686F6C64000000000000000000000000 PUSH1 0x20 DUP3 ADD MSTORE POP JUMP JUMPDEST PUSH32 0x4F6E6C79206F776E65722063616E2077697468647261772066756E6473000000 PUSH1 0x0 DUP3 ADD MSTORE POP JUMP JUMPDEST PUSH32 0x496E73756666696369656E742066756E64730000000000000000000000000000 PUSH1 0x0 DUP3 ADD MSTORE POP JUMP JUMPDEST PUSH32 0x4E6F7420656E6F7567682066756E6473206F6E20457468537761700000000000 PUSH1 0x0 DUP3 ADD MSTORE POP JUMP JUMPDEST PUSH32 0x546F6B656E20776869636820796F752062757920636F6E76657273696F6E2072 PUSH1 0x0 DUP3 ADD MSTORE PUSH32 0x617465206973206E6F7420646566696E65642079657400000000000000000000 PUSH1 0x20 DUP3 ADD MSTORE POP JUMP JUMPDEST PUSH32 0x62616C616E6365206973206C6F77000000000000000000000000000000000000 PUSH1 0x0 DUP3 ADD MSTORE POP JUMP JUMPDEST PUSH32 0x4F6E6C79206F776E65722063616E2073657420636F6E76657273696F6E207261 PUSH1 0x0 DUP3 ADD MSTORE PUSH32 0x7465000000000000000000000000000000000000000000000000000000000000 PUSH1 0x20 DUP3 ADD MSTORE POP JUMP JUMPDEST PUSH32 0x4E6F7420656E6F7567682066756E647320746F2073776170206F6E2075736572 PUSH1 0x0 DUP3 ADD MSTORE PUSH32 0x2077616C6C657400000000000000000000000000000000000000000000000000 PUSH1 0x20 DUP3 ADD MSTORE POP JUMP JUMPDEST PUSH32 0x546F6B656E20636F6E76657273696F6E2072617465206973206E6F7420646566 PUSH1 0x0 DUP3 ADD MSTORE PUSH32 0x696E656420796574000000000000000000000000000000000000000000000000 PUSH1 0x20 DUP3 ADD MSTORE POP JUMP JUMPDEST PUSH32 0x4E6F7420656E6F75676820746F6B656E73206F6E207377617020636F6E747261 PUSH1 0x0 DUP3 ADD MSTORE PUSH32 0x637420617661696C61626C6520746F2062757900000000000000000000000000 PUSH1 0x20 DUP3 ADD MSTORE POP JUMP JUMPDEST PUSH2 0x1DC0 DUP2 PUSH2 0x1996 JUMP JUMPDEST DUP2 EQ PUSH2 0x1DCB JUMPI PUSH1 0x0 DUP1 REVERT JUMPDEST POP JUMP JUMPDEST PUSH2 0x1DD7 DUP2 PUSH2 0x19A8 JUMP JUMPDEST DUP2 EQ PUSH2 0x1DE2 JUMPI PUSH1 0x0 DUP1 REVERT JUMPDEST POP JUMP JUMPDEST PUSH2 0x1DEE DUP2 PUSH2 0x19BA JUMP JUMPDEST DUP2 EQ PUSH2 0x1DF9 JUMPI PUSH1 0x0 DUP1 REVERT JUMPDEST POP JUMP JUMPDEST PUSH2 0x1E05 DUP2 PUSH2 0x19C6 JUMP JUMPDEST DUP2 EQ PUSH2 0x1E10 JUMPI PUSH1 0x0 DUP1 REVERT JUMPDEST POP JUMP JUMPDEST PUSH2 0x1E1C DUP2 PUSH2 0x19F8 JUMP JUMPDEST DUP2 EQ PUSH2 0x1E27 JUMPI PUSH1 0x0 DUP1 REVERT JUMPDEST POP JUMP INVALID LOG2 PUSH5 0x6970667358 0x22 SLT KECCAK256 JUMP STATICCALL DUP11 0x1E 0x4F PUSH30 0xB078C12307463C08F85A988D4D4B4933BA207FF10A25D9545D4A64736F6C PUSH4 0x43000807 STOP CALLER "
				},
				"gasEstimates": {
					"creation": {
						"codeDepositCost": "1555200",
						"executionCost": "infinite",
						"totalCost": "infinite"
					},
					"external": {
						"balance()": "2496",
						"buyTokens(address)": "infinite",
						"owner()": "2534",
						"sellTokens(address,uint256)": "infinite",
						"swapTokens(address,address,uint256)": "infinite",
						"tokenAvailableBalances(address)": "2858",
						"tokenConversionRates(address)": "2836",
						"transferERC20(address,address,uint256)": "infinite",
						"updateTokenConversionRate(address,uint256)": "25088",
						"withdraw(uint256,address)": "infinite"
					}
				},
				"methodIdentifiers": {
					"balance()": "b69ef8a8",
					"buyTokens(address)": "ec8ac4d8",
					"owner()": "8da5cb5b",
					"sellTokens(address,uint256)": "c464fe65",
					"swapTokens(address,address,uint256)": "ec6cc0cc",
					"tokenAvailableBalances(address)": "df680b4f",
					"tokenConversionRates(address)": "dba243d3",
					"transferERC20(address,address,uint256)": "9db5dbe4",
					"updateTokenConversionRate(address,uint256)": "c1458c09",
					"withdraw(uint256,address)": "00f714ce"
				}
			},
			"storageLayout": {
				"storage": [
					{
						"astId": 82,
						"contract": "Projects/horizon/contracts/SwapContract.sol:SwapContract",
						"label": "owner",
						"offset": 0,
						"slot": "0",
						"type": "t_address"
					},
					{
						"astId": 84,
						"contract": "Projects/horizon/contracts/SwapContract.sol:SwapContract",
						"label": "balance",
						"offset": 0,
						"slot": "1",
						"type": "t_uint256"
					},
					{
						"astId": 88,
						"contract": "Projects/horizon/contracts/SwapContract.sol:SwapContract",
						"label": "tokenConversionRates",
						"offset": 0,
						"slot": "2",
						"type": "t_mapping(t_address,t_uint256)"
					},
					{
						"astId": 92,
						"contract": "Projects/horizon/contracts/SwapContract.sol:SwapContract",
						"label": "tokenAvailableBalances",
						"offset": 0,
						"slot": "3",
						"type": "t_mapping(t_address,t_uint256)"
					}
				],
				"types": {
					"t_address": {
						"encoding": "inplace",
						"label": "address",
						"numberOfBytes": "20"
					},
					"t_mapping(t_address,t_uint256)": {
						"encoding": "mapping",
						"key": "t_address",
						"label": "mapping(address => uint256)",
						"numberOfBytes": "32",
						"value": "t_uint256"
					},
					"t_uint256": {
						"encoding": "inplace",
						"label": "uint256",
						"numberOfBytes": "32"
					}
				}
			},
			"userdoc": {
				"kind": "user",
				"methods": {},
				"version": 1
			}
		}
	}
}