{
	"Projects/horizon/contracts/EthSwap.sol": {
		"EthSwap": {
			"abi": [
				{
					"inputs": [
						{
							"internalType": "contract CZH",
							"name": "_token1",
							"type": "address"
						},
						{
							"internalType": "contract LFJ",
							"name": "_token2",
							"type": "address"
						}
					],
					"stateMutability": "nonpayable",
					"type": "constructor"
				},
				{
					"anonymous": false,
					"inputs": [
						{
							"indexed": false,
							"internalType": "address",
							"name": "account",
							"type": "address"
						},
						{
							"indexed": false,
							"internalType": "address",
							"name": "token",
							"type": "address"
						},
						{
							"indexed": false,
							"internalType": "uint256",
							"name": "amount",
							"type": "uint256"
						},
						{
							"indexed": false,
							"internalType": "uint256",
							"name": "czhRate",
							"type": "uint256"
						}
					],
					"name": "TokensPurchased",
					"type": "event"
				},
				{
					"anonymous": false,
					"inputs": [
						{
							"indexed": false,
							"internalType": "address",
							"name": "account",
							"type": "address"
						},
						{
							"indexed": false,
							"internalType": "address",
							"name": "token",
							"type": "address"
						},
						{
							"indexed": false,
							"internalType": "uint256",
							"name": "amount",
							"type": "uint256"
						},
						{
							"indexed": false,
							"internalType": "uint256",
							"name": "czhRate",
							"type": "uint256"
						}
					],
					"name": "TokensSold",
					"type": "event"
				},
				{
					"inputs": [],
					"name": "buyTokens",
					"outputs": [],
					"stateMutability": "payable",
					"type": "function"
				},
				{
					"inputs": [],
					"name": "czhRate",
					"outputs": [
						{
							"internalType": "uint256",
							"name": "",
							"type": "uint256"
						}
					],
					"stateMutability": "view",
					"type": "function"
				},
				{
					"inputs": [],
					"name": "czhTokenBalance",
					"outputs": [
						{
							"internalType": "uint256",
							"name": "",
							"type": "uint256"
						}
					],
					"stateMutability": "view",
					"type": "function"
				},
				{
					"inputs": [],
					"name": "lfjRate",
					"outputs": [
						{
							"internalType": "uint256",
							"name": "",
							"type": "uint256"
						}
					],
					"stateMutability": "view",
					"type": "function"
				},
				{
					"inputs": [],
					"name": "lfjTokenBalance",
					"outputs": [
						{
							"internalType": "uint256",
							"name": "",
							"type": "uint256"
						}
					],
					"stateMutability": "view",
					"type": "function"
				},
				{
					"inputs": [],
					"name": "name",
					"outputs": [
						{
							"internalType": "string",
							"name": "",
							"type": "string"
						}
					],
					"stateMutability": "view",
					"type": "function"
				},
				{
					"inputs": [
						{
							"internalType": "uint256",
							"name": "_amount",
							"type": "uint256"
						}
					],
					"name": "sellTokens",
					"outputs": [],
					"stateMutability": "payable",
					"type": "function"
				},
				{
					"inputs": [
						{
							"internalType": "address",
							"name": "_tokenToBuy",
							"type": "address"
						},
						{
							"internalType": "address",
							"name": "_tokenToSell",
							"type": "address"
						},
						{
							"internalType": "uint256",
							"name": "_valueToSell",
							"type": "uint256"
						}
					],
					"name": "swapTokens",
					"outputs": [],
					"stateMutability": "payable",
					"type": "function"
				},
				{
					"inputs": [],
					"name": "tokenCZH",
					"outputs": [
						{
							"internalType": "contract CZH",
							"name": "",
							"type": "address"
						}
					],
					"stateMutability": "view",
					"type": "function"
				},
				{
					"inputs": [],
					"name": "tokenLFJ",
					"outputs": [
						{
							"internalType": "contract LFJ",
							"name": "",
							"type": "address"
						}
					],
					"stateMutability": "view",
					"type": "function"
				}
			],
			"devdoc": {
				"kind": "dev",
				"methods": {},
				"version": 1
			},
			"evm": {
				"assembly": "    /* \"Projects/horizon/contracts/EthSwap.sol\":112:3178  contract EthSwap {... */\n  mstore(0x40, 0x80)\n    /* \"Projects/horizon/contracts/EthSwap.sol\":135:184  string public name = \"Eth swap platform contract\" */\n  mload(0x40)\n  dup1\n  0x40\n  add\n  0x40\n  mstore\n  dup1\n  0x1a\n  dup2\n  mstore\n  0x20\n  add\n  0x457468207377617020706c6174666f726d20636f6e7472616374000000000000\n  dup2\n  mstore\n  pop\n  0x00\n  swap1\n  dup1\n  mload\n  swap1\n  0x20\n  add\n  swap1\n  tag_1\n  swap3\n  swap2\n  swap1\n  tag_2\n  jump\t// in\ntag_1:\n  pop\n    /* \"Projects/horizon/contracts/EthSwap.sol\":262:265  100 */\n  0x64\n    /* \"Projects/horizon/contracts/EthSwap.sol\":240:265  uint public czhRate = 100 */\n  0x03\n  sstore\n    /* \"Projects/horizon/contracts/EthSwap.sol\":312:314  10 */\n  0x0a\n    /* \"Projects/horizon/contracts/EthSwap.sol\":290:314  uint public lfjRate = 10 */\n  0x04\n  sstore\n    /* \"Projects/horizon/contracts/EthSwap.sol\":650:873  constructor(CZH _token1, LFJ _token2) {... */\n  callvalue\n  dup1\n  iszero\n  tag_3\n  jumpi\n  0x00\n  dup1\n  revert\ntag_3:\n  pop\n  mload(0x40)\n  sub(codesize, bytecodeSize)\n  dup1\n  bytecodeSize\n  dup4\n  codecopy\n  dup2\n  dup2\n  add\n  0x40\n  mstore\n  dup2\n  add\n  swap1\n  tag_4\n  swap2\n  swap1\n  tag_5\n  jump\t// in\ntag_4:\n    /* \"Projects/horizon/contracts/EthSwap.sol\":709:716  _token1 */\n  dup2\n    /* \"Projects/horizon/contracts/EthSwap.sol\":698:706  tokenCZH */\n  0x01\n  0x00\n    /* \"Projects/horizon/contracts/EthSwap.sol\":698:716  tokenCZH = _token1 */\n  0x0100\n  exp\n  dup2\n  sload\n  dup2\n  0xffffffffffffffffffffffffffffffffffffffff\n  mul\n  not\n  and\n  swap1\n  dup4\n  0xffffffffffffffffffffffffffffffffffffffff\n  and\n  mul\n  or\n  swap1\n  sstore\n  pop\n    /* \"Projects/horizon/contracts/EthSwap.sol\":737:744  _token2 */\n  dup1\n    /* \"Projects/horizon/contracts/EthSwap.sol\":726:734  tokenLFJ */\n  0x02\n  0x00\n    /* \"Projects/horizon/contracts/EthSwap.sol\":726:744  tokenLFJ = _token2 */\n  0x0100\n  exp\n  dup2\n  sload\n  dup2\n  0xffffffffffffffffffffffffffffffffffffffff\n  mul\n  not\n  and\n  swap1\n  dup4\n  0xffffffffffffffffffffffffffffffffffffffff\n  and\n  mul\n  or\n  swap1\n  sstore\n  pop\n    /* \"Projects/horizon/contracts/EthSwap.sol\":772:780  tokenCZH */\n  0x01\n  0x00\n  swap1\n  sload\n  swap1\n  0x0100\n  exp\n  swap1\n  div\n  0xffffffffffffffffffffffffffffffffffffffff\n  and\n    /* \"Projects/horizon/contracts/EthSwap.sol\":772:790  tokenCZH.balanceOf */\n  0xffffffffffffffffffffffffffffffffffffffff\n  and\n  0x70a08231\n    /* \"Projects/horizon/contracts/EthSwap.sol\":799:803  this */\n  address\n    /* \"Projects/horizon/contracts/EthSwap.sol\":772:805  tokenCZH.balanceOf(address(this)) */\n  mload(0x40)\n  dup3\n  0xffffffff\n  and\n  0xe0\n  shl\n  dup2\n  mstore\n  0x04\n  add\n  tag_8\n  swap2\n  swap1\n  tag_9\n  jump\t// in\ntag_8:\n  0x20\n  mload(0x40)\n  dup1\n  dup4\n  sub\n  dup2\n  dup7\n  dup1\n  extcodesize\n  iszero\n  dup1\n  iszero\n  tag_10\n  jumpi\n  0x00\n  dup1\n  revert\ntag_10:\n  pop\n  gas\n  staticcall\n  iszero\n  dup1\n  iszero\n  tag_12\n  jumpi\n  returndatasize\n  0x00\n  dup1\n  returndatacopy\n  revert(0x00, returndatasize)\ntag_12:\n  pop\n  pop\n  pop\n  pop\n  mload(0x40)\n  returndatasize\n  not(0x1f)\n  0x1f\n  dup3\n  add\n  and\n  dup3\n  add\n  dup1\n  0x40\n  mstore\n  pop\n  dup2\n  add\n  swap1\n  tag_13\n  swap2\n  swap1\n  tag_14\n  jump\t// in\ntag_13:\n    /* \"Projects/horizon/contracts/EthSwap.sol\":754:769  czhTokenBalance */\n  0x05\n    /* \"Projects/horizon/contracts/EthSwap.sol\":754:805  czhTokenBalance = tokenCZH.balanceOf(address(this)) */\n  dup2\n  swap1\n  sstore\n  pop\n    /* \"Projects/horizon/contracts/EthSwap.sol\":833:841  tokenLFJ */\n  0x02\n  0x00\n  swap1\n  sload\n  swap1\n  0x0100\n  exp\n  swap1\n  div\n  0xffffffffffffffffffffffffffffffffffffffff\n  and\n    /* \"Projects/horizon/contracts/EthSwap.sol\":833:851  tokenLFJ.balanceOf */\n  0xffffffffffffffffffffffffffffffffffffffff\n  and\n  0x70a08231\n    /* \"Projects/horizon/contracts/EthSwap.sol\":860:864  this */\n  address\n    /* \"Projects/horizon/contracts/EthSwap.sol\":833:866  tokenLFJ.balanceOf(address(this)) */\n  mload(0x40)\n  dup3\n  0xffffffff\n  and\n  0xe0\n  shl\n  dup2\n  mstore\n  0x04\n  add\n  tag_15\n  swap2\n  swap1\n  tag_9\n  jump\t// in\ntag_15:\n  0x20\n  mload(0x40)\n  dup1\n  dup4\n  sub\n  dup2\n  dup7\n  dup1\n  extcodesize\n  iszero\n  dup1\n  iszero\n  tag_16\n  jumpi\n  0x00\n  dup1\n  revert\ntag_16:\n  pop\n  gas\n  staticcall\n  iszero\n  dup1\n  iszero\n  tag_18\n  jumpi\n  returndatasize\n  0x00\n  dup1\n  returndatacopy\n  revert(0x00, returndatasize)\ntag_18:\n  pop\n  pop\n  pop\n  pop\n  mload(0x40)\n  returndatasize\n  not(0x1f)\n  0x1f\n  dup3\n  add\n  and\n  dup3\n  add\n  dup1\n  0x40\n  mstore\n  pop\n  dup2\n  add\n  swap1\n  tag_19\n  swap2\n  swap1\n  tag_14\n  jump\t// in\ntag_19:\n    /* \"Projects/horizon/contracts/EthSwap.sol\":815:830  lfjTokenBalance */\n  0x06\n    /* \"Projects/horizon/contracts/EthSwap.sol\":815:866  lfjTokenBalance = tokenLFJ.balanceOf(address(this)) */\n  dup2\n  swap1\n  sstore\n  pop\n    /* \"Projects/horizon/contracts/EthSwap.sol\":650:873  constructor(CZH _token1, LFJ _token2) {... */\n  pop\n  pop\n    /* \"Projects/horizon/contracts/EthSwap.sol\":112:3178  contract EthSwap {... */\n  jump(tag_20)\ntag_2:\n  dup3\n  dup1\n  sload\n  tag_21\n  swap1\n  tag_22\n  jump\t// in\ntag_21:\n  swap1\n  0x00\n  mstore\n  keccak256(0x00, 0x20)\n  swap1\n  0x1f\n  add\n  0x20\n  swap1\n  div\n  dup2\n  add\n  swap3\n  dup3\n  tag_24\n  jumpi\n  0x00\n  dup6\n  sstore\n  jump(tag_23)\ntag_24:\n  dup3\n  0x1f\n  lt\n  tag_25\n  jumpi\n  dup1\n  mload\n  not(0xff)\n  and\n  dup4\n  dup1\n  add\n  or\n  dup6\n  sstore\n  jump(tag_23)\ntag_25:\n  dup3\n  dup1\n  add\n  0x01\n  add\n  dup6\n  sstore\n  dup3\n  iszero\n  tag_23\n  jumpi\n  swap2\n  dup3\n  add\ntag_26:\n  dup3\n  dup2\n  gt\n  iszero\n  tag_27\n  jumpi\n  dup3\n  mload\n  dup3\n  sstore\n  swap2\n  0x20\n  add\n  swap2\n  swap1\n  0x01\n  add\n  swap1\n  jump(tag_26)\ntag_27:\ntag_23:\n  pop\n  swap1\n  pop\n  tag_28\n  swap2\n  swap1\n  tag_29\n  jump\t// in\ntag_28:\n  pop\n  swap1\n  jump\t// out\ntag_29:\ntag_30:\n  dup1\n  dup3\n  gt\n  iszero\n  tag_31\n  jumpi\n  0x00\n  dup2\n  0x00\n  swap1\n  sstore\n  pop\n  0x01\n  add\n  jump(tag_30)\ntag_31:\n  pop\n  swap1\n  jump\t// out\n    /* \"#utility.yul\":7:172   */\ntag_33:\n    /* \"#utility.yul\":75:80   */\n  0x00\n    /* \"#utility.yul\":106:112   */\n  dup2\n    /* \"#utility.yul\":100:113   */\n  mload\n    /* \"#utility.yul\":91:113   */\n  swap1\n  pop\n    /* \"#utility.yul\":122:166   */\n  tag_35\n    /* \"#utility.yul\":160:165   */\n  dup2\n    /* \"#utility.yul\":122:166   */\n  tag_36\n  jump\t// in\ntag_35:\n    /* \"#utility.yul\":7:172   */\n  swap3\n  swap2\n  pop\n  pop\n  jump\t// out\n    /* \"#utility.yul\":178:343   */\ntag_37:\n    /* \"#utility.yul\":246:251   */\n  0x00\n    /* \"#utility.yul\":277:283   */\n  dup2\n    /* \"#utility.yul\":271:284   */\n  mload\n    /* \"#utility.yul\":262:284   */\n  swap1\n  pop\n    /* \"#utility.yul\":293:337   */\n  tag_39\n    /* \"#utility.yul\":331:336   */\n  dup2\n    /* \"#utility.yul\":293:337   */\n  tag_40\n  jump\t// in\ntag_39:\n    /* \"#utility.yul\":178:343   */\n  swap3\n  swap2\n  pop\n  pop\n  jump\t// out\n    /* \"#utility.yul\":349:492   */\ntag_41:\n    /* \"#utility.yul\":406:411   */\n  0x00\n    /* \"#utility.yul\":437:443   */\n  dup2\n    /* \"#utility.yul\":431:444   */\n  mload\n    /* \"#utility.yul\":422:444   */\n  swap1\n  pop\n    /* \"#utility.yul\":453:486   */\n  tag_43\n    /* \"#utility.yul\":480:485   */\n  dup2\n    /* \"#utility.yul\":453:486   */\n  tag_44\n  jump\t// in\ntag_43:\n    /* \"#utility.yul\":349:492   */\n  swap3\n  swap2\n  pop\n  pop\n  jump\t// out\n    /* \"#utility.yul\":498:1049   */\ntag_5:\n    /* \"#utility.yul\":599:605   */\n  0x00\n    /* \"#utility.yul\":607:613   */\n  dup1\n    /* \"#utility.yul\":656:658   */\n  0x40\n    /* \"#utility.yul\":644:653   */\n  dup4\n    /* \"#utility.yul\":635:642   */\n  dup6\n    /* \"#utility.yul\":631:654   */\n  sub\n    /* \"#utility.yul\":627:659   */\n  slt\n    /* \"#utility.yul\":624:743   */\n  iszero\n  tag_46\n  jumpi\n    /* \"#utility.yul\":662:741   */\n  tag_47\n  tag_48\n  jump\t// in\ntag_47:\n    /* \"#utility.yul\":624:743   */\ntag_46:\n    /* \"#utility.yul\":782:783   */\n  0x00\n    /* \"#utility.yul\":807:882   */\n  tag_49\n    /* \"#utility.yul\":874:881   */\n  dup6\n    /* \"#utility.yul\":865:871   */\n  dup3\n    /* \"#utility.yul\":854:863   */\n  dup7\n    /* \"#utility.yul\":850:872   */\n  add\n    /* \"#utility.yul\":807:882   */\n  tag_33\n  jump\t// in\ntag_49:\n    /* \"#utility.yul\":797:882   */\n  swap3\n  pop\n    /* \"#utility.yul\":753:892   */\n  pop\n    /* \"#utility.yul\":931:933   */\n  0x20\n    /* \"#utility.yul\":957:1032   */\n  tag_50\n    /* \"#utility.yul\":1024:1031   */\n  dup6\n    /* \"#utility.yul\":1015:1021   */\n  dup3\n    /* \"#utility.yul\":1004:1013   */\n  dup7\n    /* \"#utility.yul\":1000:1022   */\n  add\n    /* \"#utility.yul\":957:1032   */\n  tag_37\n  jump\t// in\ntag_50:\n    /* \"#utility.yul\":947:1032   */\n  swap2\n  pop\n    /* \"#utility.yul\":902:1042   */\n  pop\n    /* \"#utility.yul\":498:1049   */\n  swap3\n  pop\n  swap3\n  swap1\n  pop\n  jump\t// out\n    /* \"#utility.yul\":1055:1406   */\ntag_14:\n    /* \"#utility.yul\":1125:1131   */\n  0x00\n    /* \"#utility.yul\":1174:1176   */\n  0x20\n    /* \"#utility.yul\":1162:1171   */\n  dup3\n    /* \"#utility.yul\":1153:1160   */\n  dup5\n    /* \"#utility.yul\":1149:1172   */\n  sub\n    /* \"#utility.yul\":1145:1177   */\n  slt\n    /* \"#utility.yul\":1142:1261   */\n  iszero\n  tag_52\n  jumpi\n    /* \"#utility.yul\":1180:1259   */\n  tag_53\n  tag_48\n  jump\t// in\ntag_53:\n    /* \"#utility.yul\":1142:1261   */\ntag_52:\n    /* \"#utility.yul\":1300:1301   */\n  0x00\n    /* \"#utility.yul\":1325:1389   */\n  tag_54\n    /* \"#utility.yul\":1381:1388   */\n  dup5\n    /* \"#utility.yul\":1372:1378   */\n  dup3\n    /* \"#utility.yul\":1361:1370   */\n  dup6\n    /* \"#utility.yul\":1357:1379   */\n  add\n    /* \"#utility.yul\":1325:1389   */\n  tag_41\n  jump\t// in\ntag_54:\n    /* \"#utility.yul\":1315:1389   */\n  swap2\n  pop\n    /* \"#utility.yul\":1271:1399   */\n  pop\n    /* \"#utility.yul\":1055:1406   */\n  swap3\n  swap2\n  pop\n  pop\n  jump\t// out\n    /* \"#utility.yul\":1412:1530   */\ntag_55:\n    /* \"#utility.yul\":1499:1523   */\n  tag_57\n    /* \"#utility.yul\":1517:1522   */\n  dup2\n    /* \"#utility.yul\":1499:1523   */\n  tag_58\n  jump\t// in\ntag_57:\n    /* \"#utility.yul\":1494:1497   */\n  dup3\n    /* \"#utility.yul\":1487:1524   */\n  mstore\n    /* \"#utility.yul\":1412:1530   */\n  pop\n  pop\n  jump\t// out\n    /* \"#utility.yul\":1536:1758   */\ntag_9:\n    /* \"#utility.yul\":1629:1633   */\n  0x00\n    /* \"#utility.yul\":1667:1669   */\n  0x20\n    /* \"#utility.yul\":1656:1665   */\n  dup3\n    /* \"#utility.yul\":1652:1670   */\n  add\n    /* \"#utility.yul\":1644:1670   */\n  swap1\n  pop\n    /* \"#utility.yul\":1680:1751   */\n  tag_60\n    /* \"#utility.yul\":1748:1749   */\n  0x00\n    /* \"#utility.yul\":1737:1746   */\n  dup4\n    /* \"#utility.yul\":1733:1750   */\n  add\n    /* \"#utility.yul\":1724:1730   */\n  dup5\n    /* \"#utility.yul\":1680:1751   */\n  tag_55\n  jump\t// in\ntag_60:\n    /* \"#utility.yul\":1536:1758   */\n  swap3\n  swap2\n  pop\n  pop\n  jump\t// out\n    /* \"#utility.yul\":1845:1941   */\ntag_58:\n    /* \"#utility.yul\":1882:1889   */\n  0x00\n    /* \"#utility.yul\":1911:1935   */\n  tag_64\n    /* \"#utility.yul\":1929:1934   */\n  dup3\n    /* \"#utility.yul\":1911:1935   */\n  tag_65\n  jump\t// in\ntag_64:\n    /* \"#utility.yul\":1900:1935   */\n  swap1\n  pop\n    /* \"#utility.yul\":1845:1941   */\n  swap2\n  swap1\n  pop\n  jump\t// out\n    /* \"#utility.yul\":1947:2054   */\ntag_66:\n    /* \"#utility.yul\":1995:2002   */\n  0x00\n    /* \"#utility.yul\":2024:2048   */\n  tag_68\n    /* \"#utility.yul\":2042:2047   */\n  dup3\n    /* \"#utility.yul\":2024:2048   */\n  tag_58\n  jump\t// in\ntag_68:\n    /* \"#utility.yul\":2013:2048   */\n  swap1\n  pop\n    /* \"#utility.yul\":1947:2054   */\n  swap2\n  swap1\n  pop\n  jump\t// out\n    /* \"#utility.yul\":2060:2167   */\ntag_69:\n    /* \"#utility.yul\":2108:2115   */\n  0x00\n    /* \"#utility.yul\":2137:2161   */\n  tag_71\n    /* \"#utility.yul\":2155:2160   */\n  dup3\n    /* \"#utility.yul\":2137:2161   */\n  tag_58\n  jump\t// in\ntag_71:\n    /* \"#utility.yul\":2126:2161   */\n  swap1\n  pop\n    /* \"#utility.yul\":2060:2167   */\n  swap2\n  swap1\n  pop\n  jump\t// out\n    /* \"#utility.yul\":2173:2299   */\ntag_65:\n    /* \"#utility.yul\":2210:2217   */\n  0x00\n    /* \"#utility.yul\":2250:2292   */\n  0xffffffffffffffffffffffffffffffffffffffff\n    /* \"#utility.yul\":2243:2248   */\n  dup3\n    /* \"#utility.yul\":2239:2293   */\n  and\n    /* \"#utility.yul\":2228:2293   */\n  swap1\n  pop\n    /* \"#utility.yul\":2173:2299   */\n  swap2\n  swap1\n  pop\n  jump\t// out\n    /* \"#utility.yul\":2305:2382   */\ntag_73:\n    /* \"#utility.yul\":2342:2349   */\n  0x00\n    /* \"#utility.yul\":2371:2376   */\n  dup2\n    /* \"#utility.yul\":2360:2376   */\n  swap1\n  pop\n    /* \"#utility.yul\":2305:2382   */\n  swap2\n  swap1\n  pop\n  jump\t// out\n    /* \"#utility.yul\":2388:2708   */\ntag_22:\n    /* \"#utility.yul\":2432:2438   */\n  0x00\n    /* \"#utility.yul\":2469:2470   */\n  0x02\n    /* \"#utility.yul\":2463:2467   */\n  dup3\n    /* \"#utility.yul\":2459:2471   */\n  div\n    /* \"#utility.yul\":2449:2471   */\n  swap1\n  pop\n    /* \"#utility.yul\":2516:2517   */\n  0x01\n    /* \"#utility.yul\":2510:2514   */\n  dup3\n    /* \"#utility.yul\":2506:2518   */\n  and\n    /* \"#utility.yul\":2537:2555   */\n  dup1\n    /* \"#utility.yul\":2527:2608   */\n  tag_76\n  jumpi\n    /* \"#utility.yul\":2593:2597   */\n  0x7f\n    /* \"#utility.yul\":2585:2591   */\n  dup3\n    /* \"#utility.yul\":2581:2598   */\n  and\n    /* \"#utility.yul\":2571:2598   */\n  swap2\n  pop\n    /* \"#utility.yul\":2527:2608   */\ntag_76:\n    /* \"#utility.yul\":2655:2657   */\n  0x20\n    /* \"#utility.yul\":2647:2653   */\n  dup3\n    /* \"#utility.yul\":2644:2658   */\n  lt\n    /* \"#utility.yul\":2624:2642   */\n  dup2\n    /* \"#utility.yul\":2621:2659   */\n  eq\n    /* \"#utility.yul\":2618:2702   */\n  iszero\n  tag_77\n  jumpi\n    /* \"#utility.yul\":2674:2692   */\n  tag_78\n  tag_79\n  jump\t// in\ntag_78:\n    /* \"#utility.yul\":2618:2702   */\ntag_77:\n    /* \"#utility.yul\":2439:2708   */\n  pop\n    /* \"#utility.yul\":2388:2708   */\n  swap2\n  swap1\n  pop\n  jump\t// out\n    /* \"#utility.yul\":2714:2894   */\ntag_79:\n    /* \"#utility.yul\":2762:2839   */\n  0x4e487b7100000000000000000000000000000000000000000000000000000000\n    /* \"#utility.yul\":2759:2760   */\n  0x00\n    /* \"#utility.yul\":2752:2840   */\n  mstore\n    /* \"#utility.yul\":2859:2863   */\n  0x22\n    /* \"#utility.yul\":2856:2857   */\n  0x04\n    /* \"#utility.yul\":2849:2864   */\n  mstore\n    /* \"#utility.yul\":2883:2887   */\n  0x24\n    /* \"#utility.yul\":2880:2881   */\n  0x00\n    /* \"#utility.yul\":2873:2888   */\n  revert\n    /* \"#utility.yul\":3023:3140   */\ntag_48:\n    /* \"#utility.yul\":3132:3133   */\n  0x00\n    /* \"#utility.yul\":3129:3130   */\n  dup1\n    /* \"#utility.yul\":3122:3134   */\n  revert\n    /* \"#utility.yul\":3146:3290   */\ntag_36:\n    /* \"#utility.yul\":3230:3265   */\n  tag_85\n    /* \"#utility.yul\":3259:3264   */\n  dup2\n    /* \"#utility.yul\":3230:3265   */\n  tag_66\n  jump\t// in\ntag_85:\n    /* \"#utility.yul\":3223:3228   */\n  dup2\n    /* \"#utility.yul\":3220:3266   */\n  eq\n    /* \"#utility.yul\":3210:3284   */\n  tag_86\n  jumpi\n    /* \"#utility.yul\":3280:3281   */\n  0x00\n    /* \"#utility.yul\":3277:3278   */\n  dup1\n    /* \"#utility.yul\":3270:3282   */\n  revert\n    /* \"#utility.yul\":3210:3284   */\ntag_86:\n    /* \"#utility.yul\":3146:3290   */\n  pop\n  jump\t// out\n    /* \"#utility.yul\":3296:3440   */\ntag_40:\n    /* \"#utility.yul\":3380:3415   */\n  tag_88\n    /* \"#utility.yul\":3409:3414   */\n  dup2\n    /* \"#utility.yul\":3380:3415   */\n  tag_69\n  jump\t// in\ntag_88:\n    /* \"#utility.yul\":3373:3378   */\n  dup2\n    /* \"#utility.yul\":3370:3416   */\n  eq\n    /* \"#utility.yul\":3360:3434   */\n  tag_89\n  jumpi\n    /* \"#utility.yul\":3430:3431   */\n  0x00\n    /* \"#utility.yul\":3427:3428   */\n  dup1\n    /* \"#utility.yul\":3420:3432   */\n  revert\n    /* \"#utility.yul\":3360:3434   */\ntag_89:\n    /* \"#utility.yul\":3296:3440   */\n  pop\n  jump\t// out\n    /* \"#utility.yul\":3446:3568   */\ntag_44:\n    /* \"#utility.yul\":3519:3543   */\n  tag_91\n    /* \"#utility.yul\":3537:3542   */\n  dup2\n    /* \"#utility.yul\":3519:3543   */\n  tag_73\n  jump\t// in\ntag_91:\n    /* \"#utility.yul\":3512:3517   */\n  dup2\n    /* \"#utility.yul\":3509:3544   */\n  eq\n    /* \"#utility.yul\":3499:3562   */\n  tag_92\n  jumpi\n    /* \"#utility.yul\":3558:3559   */\n  0x00\n    /* \"#utility.yul\":3555:3556   */\n  dup1\n    /* \"#utility.yul\":3548:3560   */\n  revert\n    /* \"#utility.yul\":3499:3562   */\ntag_92:\n    /* \"#utility.yul\":3446:3568   */\n  pop\n  jump\t// out\n    /* \"Projects/horizon/contracts/EthSwap.sol\":112:3178  contract EthSwap {... */\ntag_20:\n  dataSize(sub_0)\n  dup1\n  dataOffset(sub_0)\n  0x00\n  codecopy\n  0x00\n  return\nstop\n\nsub_0: assembly {\n        /* \"Projects/horizon/contracts/EthSwap.sol\":112:3178  contract EthSwap {... */\n      mstore(0x40, 0x80)\n      jumpi(tag_1, lt(calldatasize, 0x04))\n      shr(0xe0, calldataload(0x00))\n      dup1\n      0x7cc1478a\n      gt\n      tag_12\n      jumpi\n      dup1\n      0x7cc1478a\n      eq\n      tag_7\n      jumpi\n      dup1\n      0x848d82eb\n      eq\n      tag_8\n      jumpi\n      dup1\n      0xa1e18e1a\n      eq\n      tag_9\n      jumpi\n      dup1\n      0xd0febe4c\n      eq\n      tag_10\n      jumpi\n      dup1\n      0xec6cc0cc\n      eq\n      tag_11\n      jumpi\n      jump(tag_1)\n    tag_12:\n      dup1\n      0x06fdde03\n      eq\n      tag_2\n      jumpi\n      dup1\n      0x1739fef0\n      eq\n      tag_3\n      jumpi\n      dup1\n      0x3aa6f8fa\n      eq\n      tag_4\n      jumpi\n      dup1\n      0x662b1af6\n      eq\n      tag_5\n      jumpi\n      dup1\n      0x6c11bcd3\n      eq\n      tag_6\n      jumpi\n    tag_1:\n      0x00\n      dup1\n      revert\n        /* \"Projects/horizon/contracts/EthSwap.sol\":135:184  string public name = \"Eth swap platform contract\" */\n    tag_2:\n      callvalue\n      dup1\n      iszero\n      tag_13\n      jumpi\n      0x00\n      dup1\n      revert\n    tag_13:\n      pop\n      tag_14\n      tag_15\n      jump\t// in\n    tag_14:\n      mload(0x40)\n      tag_16\n      swap2\n      swap1\n      tag_17\n      jump\t// in\n    tag_16:\n      mload(0x40)\n      dup1\n      swap2\n      sub\n      swap1\n      return\n        /* \"Projects/horizon/contracts/EthSwap.sol\":290:314  uint public lfjRate = 10 */\n    tag_3:\n      callvalue\n      dup1\n      iszero\n      tag_18\n      jumpi\n      0x00\n      dup1\n      revert\n    tag_18:\n      pop\n      tag_19\n      tag_20\n      jump\t// in\n    tag_19:\n      mload(0x40)\n      tag_21\n      swap2\n      swap1\n      tag_22\n      jump\t// in\n    tag_21:\n      mload(0x40)\n      dup1\n      swap2\n      sub\n      swap1\n      return\n        /* \"Projects/horizon/contracts/EthSwap.sol\":338:365  uint public czhTokenBalance */\n    tag_4:\n      callvalue\n      dup1\n      iszero\n      tag_23\n      jumpi\n      0x00\n      dup1\n      revert\n    tag_23:\n      pop\n      tag_24\n      tag_25\n      jump\t// in\n    tag_24:\n      mload(0x40)\n      tag_26\n      swap2\n      swap1\n      tag_22\n      jump\t// in\n    tag_26:\n      mload(0x40)\n      dup1\n      swap2\n      sub\n      swap1\n      return\n        /* \"Projects/horizon/contracts/EthSwap.sol\":371:398  uint public lfjTokenBalance */\n    tag_5:\n      callvalue\n      dup1\n      iszero\n      tag_27\n      jumpi\n      0x00\n      dup1\n      revert\n    tag_27:\n      pop\n      tag_28\n      tag_29\n      jump\t// in\n    tag_28:\n      mload(0x40)\n      tag_30\n      swap2\n      swap1\n      tag_22\n      jump\t// in\n    tag_30:\n      mload(0x40)\n      dup1\n      swap2\n      sub\n      swap1\n      return\n        /* \"Projects/horizon/contracts/EthSwap.sol\":2444:3175  function sellTokens(uint _amount) public payable {... */\n    tag_6:\n      tag_31\n      0x04\n      dup1\n      calldatasize\n      sub\n      dup2\n      add\n      swap1\n      tag_32\n      swap2\n      swap1\n      tag_33\n      jump\t// in\n    tag_32:\n      tag_34\n      jump\t// in\n    tag_31:\n      stop\n        /* \"Projects/horizon/contracts/EthSwap.sol\":190:209  CZH public tokenCZH */\n    tag_7:\n      callvalue\n      dup1\n      iszero\n      tag_35\n      jumpi\n      0x00\n      dup1\n      revert\n    tag_35:\n      pop\n      tag_36\n      tag_37\n      jump\t// in\n    tag_36:\n      mload(0x40)\n      tag_38\n      swap2\n      swap1\n      tag_39\n      jump\t// in\n    tag_38:\n      mload(0x40)\n      dup1\n      swap2\n      sub\n      swap1\n      return\n        /* \"Projects/horizon/contracts/EthSwap.sol\":215:234  LFJ public tokenLFJ */\n    tag_8:\n      callvalue\n      dup1\n      iszero\n      tag_40\n      jumpi\n      0x00\n      dup1\n      revert\n    tag_40:\n      pop\n      tag_41\n      tag_42\n      jump\t// in\n    tag_41:\n      mload(0x40)\n      tag_43\n      swap2\n      swap1\n      tag_44\n      jump\t// in\n    tag_43:\n      mload(0x40)\n      dup1\n      swap2\n      sub\n      swap1\n      return\n        /* \"Projects/horizon/contracts/EthSwap.sol\":240:265  uint public czhRate = 100 */\n    tag_9:\n      callvalue\n      dup1\n      iszero\n      tag_45\n      jumpi\n      0x00\n      dup1\n      revert\n    tag_45:\n      pop\n      tag_46\n      tag_47\n      jump\t// in\n    tag_46:\n      mload(0x40)\n      tag_48\n      swap2\n      swap1\n      tag_22\n      jump\t// in\n    tag_48:\n      mload(0x40)\n      dup1\n      swap2\n      sub\n      swap1\n      return\n        /* \"Projects/horizon/contracts/EthSwap.sol\":1944:2438  function buyTokens() public payable {... */\n    tag_10:\n      tag_49\n      tag_50\n      jump\t// in\n    tag_49:\n      stop\n        /* \"Projects/horizon/contracts/EthSwap.sol\":879:1938  function swapTokens(address _tokenToBuy, address _tokenToSell, uint _valueToSell) public payable {... */\n    tag_11:\n      tag_51\n      0x04\n      dup1\n      calldatasize\n      sub\n      dup2\n      add\n      swap1\n      tag_52\n      swap2\n      swap1\n      tag_53\n      jump\t// in\n    tag_52:\n      tag_54\n      jump\t// in\n    tag_51:\n      stop\n        /* \"Projects/horizon/contracts/EthSwap.sol\":135:184  string public name = \"Eth swap platform contract\" */\n    tag_15:\n      0x00\n      dup1\n      sload\n      tag_55\n      swap1\n      tag_56\n      jump\t// in\n    tag_55:\n      dup1\n      0x1f\n      add\n      0x20\n      dup1\n      swap2\n      div\n      mul\n      0x20\n      add\n      mload(0x40)\n      swap1\n      dup2\n      add\n      0x40\n      mstore\n      dup1\n      swap3\n      swap2\n      swap1\n      dup2\n      dup2\n      mstore\n      0x20\n      add\n      dup3\n      dup1\n      sload\n      tag_57\n      swap1\n      tag_56\n      jump\t// in\n    tag_57:\n      dup1\n      iszero\n      tag_58\n      jumpi\n      dup1\n      0x1f\n      lt\n      tag_59\n      jumpi\n      0x0100\n      dup1\n      dup4\n      sload\n      div\n      mul\n      dup4\n      mstore\n      swap2\n      0x20\n      add\n      swap2\n      jump(tag_58)\n    tag_59:\n      dup3\n      add\n      swap2\n      swap1\n      0x00\n      mstore\n      keccak256(0x00, 0x20)\n      swap1\n    tag_60:\n      dup2\n      sload\n      dup2\n      mstore\n      swap1\n      0x01\n      add\n      swap1\n      0x20\n      add\n      dup1\n      dup4\n      gt\n      tag_60\n      jumpi\n      dup3\n      swap1\n      sub\n      0x1f\n      and\n      dup3\n      add\n      swap2\n    tag_58:\n      pop\n      pop\n      pop\n      pop\n      pop\n      dup2\n      jump\t// out\n        /* \"Projects/horizon/contracts/EthSwap.sol\":290:314  uint public lfjRate = 10 */\n    tag_20:\n      sload(0x04)\n      dup2\n      jump\t// out\n        /* \"Projects/horizon/contracts/EthSwap.sol\":338:365  uint public czhTokenBalance */\n    tag_25:\n      sload(0x05)\n      dup2\n      jump\t// out\n        /* \"Projects/horizon/contracts/EthSwap.sol\":371:398  uint public lfjTokenBalance */\n    tag_29:\n      sload(0x06)\n      dup2\n      jump\t// out\n        /* \"Projects/horizon/contracts/EthSwap.sol\":2444:3175  function sellTokens(uint _amount) public payable {... */\n    tag_34:\n        /* \"Projects/horizon/contracts/EthSwap.sol\":2599:2606  _amount */\n      dup1\n        /* \"Projects/horizon/contracts/EthSwap.sol\":2565:2573  tokenCZH */\n      0x01\n      0x00\n      swap1\n      sload\n      swap1\n      0x0100\n      exp\n      swap1\n      div\n      0xffffffffffffffffffffffffffffffffffffffff\n      and\n        /* \"Projects/horizon/contracts/EthSwap.sol\":2565:2583  tokenCZH.balanceOf */\n      0xffffffffffffffffffffffffffffffffffffffff\n      and\n      0x70a08231\n        /* \"Projects/horizon/contracts/EthSwap.sol\":2584:2594  msg.sender */\n      caller\n        /* \"Projects/horizon/contracts/EthSwap.sol\":2565:2595  tokenCZH.balanceOf(msg.sender) */\n      mload(0x40)\n      dup3\n      0xffffffff\n      and\n      0xe0\n      shl\n      dup2\n      mstore\n      0x04\n      add\n      tag_62\n      swap2\n      swap1\n      tag_63\n      jump\t// in\n    tag_62:\n      0x20\n      mload(0x40)\n      dup1\n      dup4\n      sub\n      dup2\n      dup7\n      dup1\n      extcodesize\n      iszero\n      dup1\n      iszero\n      tag_64\n      jumpi\n      0x00\n      dup1\n      revert\n    tag_64:\n      pop\n      gas\n      staticcall\n      iszero\n      dup1\n      iszero\n      tag_66\n      jumpi\n      returndatasize\n      0x00\n      dup1\n      returndatacopy\n      revert(0x00, returndatasize)\n    tag_66:\n      pop\n      pop\n      pop\n      pop\n      mload(0x40)\n      returndatasize\n      not(0x1f)\n      0x1f\n      dup3\n      add\n      and\n      dup3\n      add\n      dup1\n      0x40\n      mstore\n      pop\n      dup2\n      add\n      swap1\n      tag_67\n      swap2\n      swap1\n      tag_68\n      jump\t// in\n    tag_67:\n        /* \"Projects/horizon/contracts/EthSwap.sol\":2565:2606  tokenCZH.balanceOf(msg.sender) >= _amount */\n      lt\n      iszero\n        /* \"Projects/horizon/contracts/EthSwap.sol\":2557:2663  require(tokenCZH.balanceOf(msg.sender) >= _amount, \"You can not sell more tokens than you currently hold\") */\n      tag_69\n      jumpi\n      mload(0x40)\n      0x08c379a000000000000000000000000000000000000000000000000000000000\n      dup2\n      mstore\n      0x04\n      add\n      tag_70\n      swap1\n      tag_71\n      jump\t// in\n    tag_70:\n      mload(0x40)\n      dup1\n      swap2\n      sub\n      swap1\n      revert\n    tag_69:\n        /* \"Projects/horizon/contracts/EthSwap.sol\":2725:2741  uint etherAmount */\n      0x00\n        /* \"Projects/horizon/contracts/EthSwap.sol\":2754:2761  czhRate */\n      sload(0x03)\n        /* \"Projects/horizon/contracts/EthSwap.sol\":2744:2751  _amount */\n      dup3\n        /* \"Projects/horizon/contracts/EthSwap.sol\":2744:2761  _amount / czhRate */\n      tag_72\n      swap2\n      swap1\n      tag_73\n      jump\t// in\n    tag_72:\n        /* \"Projects/horizon/contracts/EthSwap.sol\":2725:2761  uint etherAmount = _amount / czhRate */\n      swap1\n      pop\n        /* \"Projects/horizon/contracts/EthSwap.sol\":2854:2865  etherAmount */\n      dup1\n        /* \"Projects/horizon/contracts/EthSwap.sol\":2829:2850  address(this).balance */\n      selfbalance\n        /* \"Projects/horizon/contracts/EthSwap.sol\":2829:2865  address(this).balance >= etherAmount */\n      lt\n      iszero\n        /* \"Projects/horizon/contracts/EthSwap.sol\":2821:2925  require(address(this).balance >= etherAmount, \"Swap contract does not have enough available ETH amount\") */\n      tag_74\n      jumpi\n      mload(0x40)\n      0x08c379a000000000000000000000000000000000000000000000000000000000\n      dup2\n      mstore\n      0x04\n      add\n      tag_75\n      swap1\n      tag_76\n      jump\t// in\n    tag_75:\n      mload(0x40)\n      dup1\n      swap2\n      sub\n      swap1\n      revert\n    tag_74:\n        /* \"Projects/horizon/contracts/EthSwap.sol\":2960:2968  tokenCZH */\n      0x01\n      0x00\n      swap1\n      sload\n      swap1\n      0x0100\n      exp\n      swap1\n      div\n      0xffffffffffffffffffffffffffffffffffffffff\n      and\n        /* \"Projects/horizon/contracts/EthSwap.sol\":2960:2981  tokenCZH.transferFrom */\n      0xffffffffffffffffffffffffffffffffffffffff\n      and\n      0x23b872dd\n        /* \"Projects/horizon/contracts/EthSwap.sol\":2982:2992  msg.sender */\n      caller\n        /* \"Projects/horizon/contracts/EthSwap.sol\":3002:3006  this */\n      address\n        /* \"Projects/horizon/contracts/EthSwap.sol\":3009:3016  _amount */\n      dup6\n        /* \"Projects/horizon/contracts/EthSwap.sol\":2960:3017  tokenCZH.transferFrom(msg.sender, address(this), _amount) */\n      mload(0x40)\n      dup5\n      0xffffffff\n      and\n      0xe0\n      shl\n      dup2\n      mstore\n      0x04\n      add\n      tag_77\n      swap4\n      swap3\n      swap2\n      swap1\n      tag_78\n      jump\t// in\n    tag_77:\n      0x20\n      mload(0x40)\n      dup1\n      dup4\n      sub\n      dup2\n      0x00\n      dup8\n      dup1\n      extcodesize\n      iszero\n      dup1\n      iszero\n      tag_79\n      jumpi\n      0x00\n      dup1\n      revert\n    tag_79:\n      pop\n      gas\n      call\n      iszero\n      dup1\n      iszero\n      tag_81\n      jumpi\n      returndatasize\n      0x00\n      dup1\n      returndatacopy\n      revert(0x00, returndatasize)\n    tag_81:\n      pop\n      pop\n      pop\n      pop\n      mload(0x40)\n      returndatasize\n      not(0x1f)\n      0x1f\n      dup3\n      add\n      and\n      dup3\n      add\n      dup1\n      0x40\n      mstore\n      pop\n      dup2\n      add\n      swap1\n      tag_82\n      swap2\n      swap1\n      tag_83\n      jump\t// in\n    tag_82:\n      pop\n        /* \"Projects/horizon/contracts/EthSwap.sol\":3035:3045  msg.sender */\n      caller\n        /* \"Projects/horizon/contracts/EthSwap.sol\":3027:3055  payable(msg.sender).transfer */\n      0xffffffffffffffffffffffffffffffffffffffff\n      and\n        /* \"Projects/horizon/contracts/EthSwap.sol\":3027:3068  payable(msg.sender).transfer(etherAmount) */\n      0x08fc\n        /* \"Projects/horizon/contracts/EthSwap.sol\":3056:3067  etherAmount */\n      dup3\n        /* \"Projects/horizon/contracts/EthSwap.sol\":3027:3068  payable(msg.sender).transfer(etherAmount) */\n      swap1\n      dup2\n      iszero\n      mul\n      swap1\n      mload(0x40)\n      0x00\n      mload(0x40)\n      dup1\n      dup4\n      sub\n      dup2\n      dup6\n      dup9\n      dup9\n      call\n      swap4\n      pop\n      pop\n      pop\n      pop\n      iszero\n      dup1\n      iszero\n      tag_85\n      jumpi\n      returndatasize\n      0x00\n      dup1\n      returndatacopy\n      revert(0x00, returndatasize)\n    tag_85:\n      pop\n        /* \"Projects/horizon/contracts/EthSwap.sol\":3109:3168  TokensSold(msg.sender, address(tokenCZH), _amount, czhRate) */\n      0x697c42d55a5e1fed3f464ec6f38b32546a0bd368dc8068b065c67566d73f3290\n        /* \"Projects/horizon/contracts/EthSwap.sol\":3120:3130  msg.sender */\n      caller\n        /* \"Projects/horizon/contracts/EthSwap.sol\":3140:3148  tokenCZH */\n      0x01\n      0x00\n      swap1\n      sload\n      swap1\n      0x0100\n      exp\n      swap1\n      div\n      0xffffffffffffffffffffffffffffffffffffffff\n      and\n        /* \"Projects/horizon/contracts/EthSwap.sol\":3151:3158  _amount */\n      dup5\n        /* \"Projects/horizon/contracts/EthSwap.sol\":3160:3167  czhRate */\n      sload(0x03)\n        /* \"Projects/horizon/contracts/EthSwap.sol\":3109:3168  TokensSold(msg.sender, address(tokenCZH), _amount, czhRate) */\n      mload(0x40)\n      tag_86\n      swap5\n      swap4\n      swap3\n      swap2\n      swap1\n      tag_87\n      jump\t// in\n    tag_86:\n      mload(0x40)\n      dup1\n      swap2\n      sub\n      swap1\n      log1\n        /* \"Projects/horizon/contracts/EthSwap.sol\":2493:3175  {... */\n      pop\n        /* \"Projects/horizon/contracts/EthSwap.sol\":2444:3175  function sellTokens(uint _amount) public payable {... */\n      pop\n      jump\t// out\n        /* \"Projects/horizon/contracts/EthSwap.sol\":190:209  CZH public tokenCZH */\n    tag_37:\n      0x01\n      0x00\n      swap1\n      sload\n      swap1\n      0x0100\n      exp\n      swap1\n      div\n      0xffffffffffffffffffffffffffffffffffffffff\n      and\n      dup2\n      jump\t// out\n        /* \"Projects/horizon/contracts/EthSwap.sol\":215:234  LFJ public tokenLFJ */\n    tag_42:\n      0x02\n      0x00\n      swap1\n      sload\n      swap1\n      0x0100\n      exp\n      swap1\n      div\n      0xffffffffffffffffffffffffffffffffffffffff\n      and\n      dup2\n      jump\t// out\n        /* \"Projects/horizon/contracts/EthSwap.sol\":240:265  uint public czhRate = 100 */\n    tag_47:\n      sload(0x03)\n      dup2\n      jump\t// out\n        /* \"Projects/horizon/contracts/EthSwap.sol\":1944:2438  function buyTokens() public payable {... */\n    tag_50:\n        /* \"Projects/horizon/contracts/EthSwap.sol\":2039:2055  uint tokenAmount */\n      0x00\n        /* \"Projects/horizon/contracts/EthSwap.sol\":2070:2077  czhRate */\n      sload(0x03)\n        /* \"Projects/horizon/contracts/EthSwap.sol\":2058:2067  msg.value */\n      callvalue\n        /* \"Projects/horizon/contracts/EthSwap.sol\":2058:2077  msg.value * czhRate */\n      tag_89\n      swap2\n      swap1\n      tag_90\n      jump\t// in\n    tag_89:\n        /* \"Projects/horizon/contracts/EthSwap.sol\":2039:2077  uint tokenAmount = msg.value * czhRate */\n      swap1\n      pop\n        /* \"Projects/horizon/contracts/EthSwap.sol\":2183:2194  tokenAmount */\n      dup1\n        /* \"Projects/horizon/contracts/EthSwap.sol\":2146:2154  tokenCZH */\n      0x01\n      0x00\n      swap1\n      sload\n      swap1\n      0x0100\n      exp\n      swap1\n      div\n      0xffffffffffffffffffffffffffffffffffffffff\n      and\n        /* \"Projects/horizon/contracts/EthSwap.sol\":2146:2164  tokenCZH.balanceOf */\n      0xffffffffffffffffffffffffffffffffffffffff\n      and\n      0x70a08231\n        /* \"Projects/horizon/contracts/EthSwap.sol\":2173:2177  this */\n      address\n        /* \"Projects/horizon/contracts/EthSwap.sol\":2146:2179  tokenCZH.balanceOf(address(this)) */\n      mload(0x40)\n      dup3\n      0xffffffff\n      and\n      0xe0\n      shl\n      dup2\n      mstore\n      0x04\n      add\n      tag_91\n      swap2\n      swap1\n      tag_63\n      jump\t// in\n    tag_91:\n      0x20\n      mload(0x40)\n      dup1\n      dup4\n      sub\n      dup2\n      dup7\n      dup1\n      extcodesize\n      iszero\n      dup1\n      iszero\n      tag_92\n      jumpi\n      0x00\n      dup1\n      revert\n    tag_92:\n      pop\n      gas\n      staticcall\n      iszero\n      dup1\n      iszero\n      tag_94\n      jumpi\n      returndatasize\n      0x00\n      dup1\n      returndatacopy\n      revert(0x00, returndatasize)\n    tag_94:\n      pop\n      pop\n      pop\n      pop\n      mload(0x40)\n      returndatasize\n      not(0x1f)\n      0x1f\n      dup3\n      add\n      and\n      dup3\n      add\n      dup1\n      0x40\n      mstore\n      pop\n      dup2\n      add\n      swap1\n      tag_95\n      swap2\n      swap1\n      tag_68\n      jump\t// in\n    tag_95:\n        /* \"Projects/horizon/contracts/EthSwap.sol\":2146:2194  tokenCZH.balanceOf(address(this)) >= tokenAmount */\n      lt\n      iszero\n        /* \"Projects/horizon/contracts/EthSwap.sol\":2138:2230  require(tokenCZH.balanceOf(address(this)) >= tokenAmount, \"Not enough CZH available to buy\") */\n      tag_96\n      jumpi\n      mload(0x40)\n      0x08c379a000000000000000000000000000000000000000000000000000000000\n      dup2\n      mstore\n      0x04\n      add\n      tag_97\n      swap1\n      tag_98\n      jump\t// in\n    tag_97:\n      mload(0x40)\n      dup1\n      swap2\n      sub\n      swap1\n      revert\n    tag_96:\n        /* \"Projects/horizon/contracts/EthSwap.sol\":2280:2288  tokenCZH */\n      0x01\n      0x00\n      swap1\n      sload\n      swap1\n      0x0100\n      exp\n      swap1\n      div\n      0xffffffffffffffffffffffffffffffffffffffff\n      and\n        /* \"Projects/horizon/contracts/EthSwap.sol\":2280:2297  tokenCZH.transfer */\n      0xffffffffffffffffffffffffffffffffffffffff\n      and\n      0xa9059cbb\n        /* \"Projects/horizon/contracts/EthSwap.sol\":2298:2308  msg.sender */\n      caller\n        /* \"Projects/horizon/contracts/EthSwap.sol\":2310:2321  tokenAmount */\n      dup4\n        /* \"Projects/horizon/contracts/EthSwap.sol\":2280:2322  tokenCZH.transfer(msg.sender, tokenAmount) */\n      mload(0x40)\n      dup4\n      0xffffffff\n      and\n      0xe0\n      shl\n      dup2\n      mstore\n      0x04\n      add\n      tag_99\n      swap3\n      swap2\n      swap1\n      tag_100\n      jump\t// in\n    tag_99:\n      0x20\n      mload(0x40)\n      dup1\n      dup4\n      sub\n      dup2\n      0x00\n      dup8\n      dup1\n      extcodesize\n      iszero\n      dup1\n      iszero\n      tag_101\n      jumpi\n      0x00\n      dup1\n      revert\n    tag_101:\n      pop\n      gas\n      call\n      iszero\n      dup1\n      iszero\n      tag_103\n      jumpi\n      returndatasize\n      0x00\n      dup1\n      returndatacopy\n      revert(0x00, returndatasize)\n    tag_103:\n      pop\n      pop\n      pop\n      pop\n      mload(0x40)\n      returndatasize\n      not(0x1f)\n      0x1f\n      dup3\n      add\n      and\n      dup3\n      add\n      dup1\n      0x40\n      mstore\n      pop\n      dup2\n      add\n      swap1\n      tag_104\n      swap2\n      swap1\n      tag_83\n      jump\t// in\n    tag_104:\n      pop\n        /* \"Projects/horizon/contracts/EthSwap.sol\":2363:2431  TokensPurchased(msg.sender, address(tokenCZH), tokenAmount, czhRate) */\n      0x6faf93231a456e552dbc9961f58d9713ee4f2e69d15f1975b050ef0911053a7b\n        /* \"Projects/horizon/contracts/EthSwap.sol\":2379:2389  msg.sender */\n      caller\n        /* \"Projects/horizon/contracts/EthSwap.sol\":2399:2407  tokenCZH */\n      0x01\n      0x00\n      swap1\n      sload\n      swap1\n      0x0100\n      exp\n      swap1\n      div\n      0xffffffffffffffffffffffffffffffffffffffff\n      and\n        /* \"Projects/horizon/contracts/EthSwap.sol\":2410:2421  tokenAmount */\n      dup4\n        /* \"Projects/horizon/contracts/EthSwap.sol\":2423:2430  czhRate */\n      sload(0x03)\n        /* \"Projects/horizon/contracts/EthSwap.sol\":2363:2431  TokensPurchased(msg.sender, address(tokenCZH), tokenAmount, czhRate) */\n      mload(0x40)\n      tag_105\n      swap5\n      swap4\n      swap3\n      swap2\n      swap1\n      tag_87\n      jump\t// in\n    tag_105:\n      mload(0x40)\n      dup1\n      swap2\n      sub\n      swap1\n      log1\n        /* \"Projects/horizon/contracts/EthSwap.sol\":1980:2438  {... */\n      pop\n        /* \"Projects/horizon/contracts/EthSwap.sol\":1944:2438  function buyTokens() public payable {... */\n      jump\t// out\n        /* \"Projects/horizon/contracts/EthSwap.sol\":879:1938  function swapTokens(address _tokenToBuy, address _tokenToSell, uint _valueToSell) public payable {... */\n    tag_54:\n        /* \"Projects/horizon/contracts/EthSwap.sol\":1471:1484  CZH tokenSell */\n      0x00\n        /* \"Projects/horizon/contracts/EthSwap.sol\":1491:1503  _tokenToSell */\n      dup3\n        /* \"Projects/horizon/contracts/EthSwap.sol\":1471:1504  CZH tokenSell = CZH(_tokenToSell) */\n      swap1\n      pop\n        /* \"Projects/horizon/contracts/EthSwap.sol\":1566:1578  _valueToSell */\n      dup2\n        /* \"Projects/horizon/contracts/EthSwap.sol\":1522:1531  tokenSell */\n      dup2\n        /* \"Projects/horizon/contracts/EthSwap.sol\":1522:1541  tokenSell.balanceOf */\n      0xffffffffffffffffffffffffffffffffffffffff\n      and\n      0x70a08231\n        /* \"Projects/horizon/contracts/EthSwap.sol\":1550:1560  msg.sender */\n      caller\n        /* \"Projects/horizon/contracts/EthSwap.sol\":1522:1562  tokenSell.balanceOf(address(msg.sender)) */\n      mload(0x40)\n      dup3\n      0xffffffff\n      and\n      0xe0\n      shl\n      dup2\n      mstore\n      0x04\n      add\n      tag_107\n      swap2\n      swap1\n      tag_63\n      jump\t// in\n    tag_107:\n      0x20\n      mload(0x40)\n      dup1\n      dup4\n      sub\n      dup2\n      dup7\n      dup1\n      extcodesize\n      iszero\n      dup1\n      iszero\n      tag_108\n      jumpi\n      0x00\n      dup1\n      revert\n    tag_108:\n      pop\n      gas\n      staticcall\n      iszero\n      dup1\n      iszero\n      tag_110\n      jumpi\n      returndatasize\n      0x00\n      dup1\n      returndatacopy\n      revert(0x00, returndatasize)\n    tag_110:\n      pop\n      pop\n      pop\n      pop\n      mload(0x40)\n      returndatasize\n      not(0x1f)\n      0x1f\n      dup3\n      add\n      and\n      dup3\n      add\n      dup1\n      0x40\n      mstore\n      pop\n      dup2\n      add\n      swap1\n      tag_111\n      swap2\n      swap1\n      tag_68\n      jump\t// in\n    tag_111:\n        /* \"Projects/horizon/contracts/EthSwap.sol\":1522:1578  tokenSell.balanceOf(address(msg.sender)) <= _valueToSell */\n      gt\n      iszero\n        /* \"Projects/horizon/contracts/EthSwap.sol\":1514:1607  require(tokenSell.balanceOf(address(msg.sender)) <= _valueToSell, \"Not enough funds to swap\") */\n      tag_112\n      jumpi\n      mload(0x40)\n      0x08c379a000000000000000000000000000000000000000000000000000000000\n      dup2\n      mstore\n      0x04\n      add\n      tag_113\n      swap1\n      tag_114\n      jump\t// in\n    tag_113:\n      mload(0x40)\n      dup1\n      swap2\n      sub\n      swap1\n      revert\n    tag_112:\n        /* \"Projects/horizon/contracts/EthSwap.sol\":976:1938  {... */\n      pop\n        /* \"Projects/horizon/contracts/EthSwap.sol\":879:1938  function swapTokens(address _tokenToBuy, address _tokenToSell, uint _valueToSell) public payable {... */\n      pop\n      pop\n      pop\n      jump\t// out\n        /* \"#utility.yul\":7:146   */\n    tag_116:\n        /* \"#utility.yul\":53:58   */\n      0x00\n        /* \"#utility.yul\":91:97   */\n      dup2\n        /* \"#utility.yul\":78:98   */\n      calldataload\n        /* \"#utility.yul\":69:98   */\n      swap1\n      pop\n        /* \"#utility.yul\":107:140   */\n      tag_118\n        /* \"#utility.yul\":134:139   */\n      dup2\n        /* \"#utility.yul\":107:140   */\n      tag_119\n      jump\t// in\n    tag_118:\n        /* \"#utility.yul\":7:146   */\n      swap3\n      swap2\n      pop\n      pop\n      jump\t// out\n        /* \"#utility.yul\":152:289   */\n    tag_120:\n        /* \"#utility.yul\":206:211   */\n      0x00\n        /* \"#utility.yul\":237:243   */\n      dup2\n        /* \"#utility.yul\":231:244   */\n      mload\n        /* \"#utility.yul\":222:244   */\n      swap1\n      pop\n        /* \"#utility.yul\":253:283   */\n      tag_122\n        /* \"#utility.yul\":277:282   */\n      dup2\n        /* \"#utility.yul\":253:283   */\n      tag_123\n      jump\t// in\n    tag_122:\n        /* \"#utility.yul\":152:289   */\n      swap3\n      swap2\n      pop\n      pop\n      jump\t// out\n        /* \"#utility.yul\":295:434   */\n    tag_124:\n        /* \"#utility.yul\":341:346   */\n      0x00\n        /* \"#utility.yul\":379:385   */\n      dup2\n        /* \"#utility.yul\":366:386   */\n      calldataload\n        /* \"#utility.yul\":357:386   */\n      swap1\n      pop\n        /* \"#utility.yul\":395:428   */\n      tag_126\n        /* \"#utility.yul\":422:427   */\n      dup2\n        /* \"#utility.yul\":395:428   */\n      tag_127\n      jump\t// in\n    tag_126:\n        /* \"#utility.yul\":295:434   */\n      swap3\n      swap2\n      pop\n      pop\n      jump\t// out\n        /* \"#utility.yul\":440:583   */\n    tag_128:\n        /* \"#utility.yul\":497:502   */\n      0x00\n        /* \"#utility.yul\":528:534   */\n      dup2\n        /* \"#utility.yul\":522:535   */\n      mload\n        /* \"#utility.yul\":513:535   */\n      swap1\n      pop\n        /* \"#utility.yul\":544:577   */\n      tag_130\n        /* \"#utility.yul\":571:576   */\n      dup2\n        /* \"#utility.yul\":544:577   */\n      tag_127\n      jump\t// in\n    tag_130:\n        /* \"#utility.yul\":440:583   */\n      swap3\n      swap2\n      pop\n      pop\n      jump\t// out\n        /* \"#utility.yul\":589:1208   */\n    tag_53:\n        /* \"#utility.yul\":666:672   */\n      0x00\n        /* \"#utility.yul\":674:680   */\n      dup1\n        /* \"#utility.yul\":682:688   */\n      0x00\n        /* \"#utility.yul\":731:733   */\n      0x60\n        /* \"#utility.yul\":719:728   */\n      dup5\n        /* \"#utility.yul\":710:717   */\n      dup7\n        /* \"#utility.yul\":706:729   */\n      sub\n        /* \"#utility.yul\":702:734   */\n      slt\n        /* \"#utility.yul\":699:818   */\n      iszero\n      tag_132\n      jumpi\n        /* \"#utility.yul\":737:816   */\n      tag_133\n      tag_134\n      jump\t// in\n    tag_133:\n        /* \"#utility.yul\":699:818   */\n    tag_132:\n        /* \"#utility.yul\":857:858   */\n      0x00\n        /* \"#utility.yul\":882:935   */\n      tag_135\n        /* \"#utility.yul\":927:934   */\n      dup7\n        /* \"#utility.yul\":918:924   */\n      dup3\n        /* \"#utility.yul\":907:916   */\n      dup8\n        /* \"#utility.yul\":903:925   */\n      add\n        /* \"#utility.yul\":882:935   */\n      tag_116\n      jump\t// in\n    tag_135:\n        /* \"#utility.yul\":872:935   */\n      swap4\n      pop\n        /* \"#utility.yul\":828:945   */\n      pop\n        /* \"#utility.yul\":984:986   */\n      0x20\n        /* \"#utility.yul\":1010:1063   */\n      tag_136\n        /* \"#utility.yul\":1055:1062   */\n      dup7\n        /* \"#utility.yul\":1046:1052   */\n      dup3\n        /* \"#utility.yul\":1035:1044   */\n      dup8\n        /* \"#utility.yul\":1031:1053   */\n      add\n        /* \"#utility.yul\":1010:1063   */\n      tag_116\n      jump\t// in\n    tag_136:\n        /* \"#utility.yul\":1000:1063   */\n      swap3\n      pop\n        /* \"#utility.yul\":955:1073   */\n      pop\n        /* \"#utility.yul\":1112:1114   */\n      0x40\n        /* \"#utility.yul\":1138:1191   */\n      tag_137\n        /* \"#utility.yul\":1183:1190   */\n      dup7\n        /* \"#utility.yul\":1174:1180   */\n      dup3\n        /* \"#utility.yul\":1163:1172   */\n      dup8\n        /* \"#utility.yul\":1159:1181   */\n      add\n        /* \"#utility.yul\":1138:1191   */\n      tag_124\n      jump\t// in\n    tag_137:\n        /* \"#utility.yul\":1128:1191   */\n      swap2\n      pop\n        /* \"#utility.yul\":1083:1201   */\n      pop\n        /* \"#utility.yul\":589:1208   */\n      swap3\n      pop\n      swap3\n      pop\n      swap3\n      jump\t// out\n        /* \"#utility.yul\":1214:1559   */\n    tag_83:\n        /* \"#utility.yul\":1281:1287   */\n      0x00\n        /* \"#utility.yul\":1330:1332   */\n      0x20\n        /* \"#utility.yul\":1318:1327   */\n      dup3\n        /* \"#utility.yul\":1309:1316   */\n      dup5\n        /* \"#utility.yul\":1305:1328   */\n      sub\n        /* \"#utility.yul\":1301:1333   */\n      slt\n        /* \"#utility.yul\":1298:1417   */\n      iszero\n      tag_139\n      jumpi\n        /* \"#utility.yul\":1336:1415   */\n      tag_140\n      tag_134\n      jump\t// in\n    tag_140:\n        /* \"#utility.yul\":1298:1417   */\n    tag_139:\n        /* \"#utility.yul\":1456:1457   */\n      0x00\n        /* \"#utility.yul\":1481:1542   */\n      tag_141\n        /* \"#utility.yul\":1534:1541   */\n      dup5\n        /* \"#utility.yul\":1525:1531   */\n      dup3\n        /* \"#utility.yul\":1514:1523   */\n      dup6\n        /* \"#utility.yul\":1510:1532   */\n      add\n        /* \"#utility.yul\":1481:1542   */\n      tag_120\n      jump\t// in\n    tag_141:\n        /* \"#utility.yul\":1471:1542   */\n      swap2\n      pop\n        /* \"#utility.yul\":1427:1552   */\n      pop\n        /* \"#utility.yul\":1214:1559   */\n      swap3\n      swap2\n      pop\n      pop\n      jump\t// out\n        /* \"#utility.yul\":1565:1894   */\n    tag_33:\n        /* \"#utility.yul\":1624:1630   */\n      0x00\n        /* \"#utility.yul\":1673:1675   */\n      0x20\n        /* \"#utility.yul\":1661:1670   */\n      dup3\n        /* \"#utility.yul\":1652:1659   */\n      dup5\n        /* \"#utility.yul\":1648:1671   */\n      sub\n        /* \"#utility.yul\":1644:1676   */\n      slt\n        /* \"#utility.yul\":1641:1760   */\n      iszero\n      tag_143\n      jumpi\n        /* \"#utility.yul\":1679:1758   */\n      tag_144\n      tag_134\n      jump\t// in\n    tag_144:\n        /* \"#utility.yul\":1641:1760   */\n    tag_143:\n        /* \"#utility.yul\":1799:1800   */\n      0x00\n        /* \"#utility.yul\":1824:1877   */\n      tag_145\n        /* \"#utility.yul\":1869:1876   */\n      dup5\n        /* \"#utility.yul\":1860:1866   */\n      dup3\n        /* \"#utility.yul\":1849:1858   */\n      dup6\n        /* \"#utility.yul\":1845:1867   */\n      add\n        /* \"#utility.yul\":1824:1877   */\n      tag_124\n      jump\t// in\n    tag_145:\n        /* \"#utility.yul\":1814:1877   */\n      swap2\n      pop\n        /* \"#utility.yul\":1770:1887   */\n      pop\n        /* \"#utility.yul\":1565:1894   */\n      swap3\n      swap2\n      pop\n      pop\n      jump\t// out\n        /* \"#utility.yul\":1900:2251   */\n    tag_68:\n        /* \"#utility.yul\":1970:1976   */\n      0x00\n        /* \"#utility.yul\":2019:2021   */\n      0x20\n        /* \"#utility.yul\":2007:2016   */\n      dup3\n        /* \"#utility.yul\":1998:2005   */\n      dup5\n        /* \"#utility.yul\":1994:2017   */\n      sub\n        /* \"#utility.yul\":1990:2022   */\n      slt\n        /* \"#utility.yul\":1987:2106   */\n      iszero\n      tag_147\n      jumpi\n        /* \"#utility.yul\":2025:2104   */\n      tag_148\n      tag_134\n      jump\t// in\n    tag_148:\n        /* \"#utility.yul\":1987:2106   */\n    tag_147:\n        /* \"#utility.yul\":2145:2146   */\n      0x00\n        /* \"#utility.yul\":2170:2234   */\n      tag_149\n        /* \"#utility.yul\":2226:2233   */\n      dup5\n        /* \"#utility.yul\":2217:2223   */\n      dup3\n        /* \"#utility.yul\":2206:2215   */\n      dup6\n        /* \"#utility.yul\":2202:2224   */\n      add\n        /* \"#utility.yul\":2170:2234   */\n      tag_128\n      jump\t// in\n    tag_149:\n        /* \"#utility.yul\":2160:2234   */\n      swap2\n      pop\n        /* \"#utility.yul\":2116:2244   */\n      pop\n        /* \"#utility.yul\":1900:2251   */\n      swap3\n      swap2\n      pop\n      pop\n      jump\t// out\n        /* \"#utility.yul\":2257:2375   */\n    tag_150:\n        /* \"#utility.yul\":2344:2368   */\n      tag_152\n        /* \"#utility.yul\":2362:2367   */\n      dup2\n        /* \"#utility.yul\":2344:2368   */\n      tag_153\n      jump\t// in\n    tag_152:\n        /* \"#utility.yul\":2339:2342   */\n      dup3\n        /* \"#utility.yul\":2332:2369   */\n      mstore\n        /* \"#utility.yul\":2257:2375   */\n      pop\n      pop\n      jump\t// out\n        /* \"#utility.yul\":2381:2534   */\n    tag_154:\n        /* \"#utility.yul\":2479:2527   */\n      tag_156\n        /* \"#utility.yul\":2521:2526   */\n      dup2\n        /* \"#utility.yul\":2479:2527   */\n      tag_157\n      jump\t// in\n    tag_156:\n        /* \"#utility.yul\":2474:2477   */\n      dup3\n        /* \"#utility.yul\":2467:2528   */\n      mstore\n        /* \"#utility.yul\":2381:2534   */\n      pop\n      pop\n      jump\t// out\n        /* \"#utility.yul\":2540:2693   */\n    tag_158:\n        /* \"#utility.yul\":2638:2686   */\n      tag_160\n        /* \"#utility.yul\":2680:2685   */\n      dup2\n        /* \"#utility.yul\":2638:2686   */\n      tag_161\n      jump\t// in\n    tag_160:\n        /* \"#utility.yul\":2633:2636   */\n      dup3\n        /* \"#utility.yul\":2626:2687   */\n      mstore\n        /* \"#utility.yul\":2540:2693   */\n      pop\n      pop\n      jump\t// out\n        /* \"#utility.yul\":2699:3063   */\n    tag_162:\n        /* \"#utility.yul\":2787:2790   */\n      0x00\n        /* \"#utility.yul\":2815:2854   */\n      tag_164\n        /* \"#utility.yul\":2848:2853   */\n      dup3\n        /* \"#utility.yul\":2815:2854   */\n      tag_165\n      jump\t// in\n    tag_164:\n        /* \"#utility.yul\":2870:2941   */\n      tag_166\n        /* \"#utility.yul\":2934:2940   */\n      dup2\n        /* \"#utility.yul\":2929:2932   */\n      dup6\n        /* \"#utility.yul\":2870:2941   */\n      tag_167\n      jump\t// in\n    tag_166:\n        /* \"#utility.yul\":2863:2941   */\n      swap4\n      pop\n        /* \"#utility.yul\":2950:3002   */\n      tag_168\n        /* \"#utility.yul\":2995:3001   */\n      dup2\n        /* \"#utility.yul\":2990:2993   */\n      dup6\n        /* \"#utility.yul\":2983:2987   */\n      0x20\n        /* \"#utility.yul\":2976:2981   */\n      dup7\n        /* \"#utility.yul\":2972:2988   */\n      add\n        /* \"#utility.yul\":2950:3002   */\n      tag_169\n      jump\t// in\n    tag_168:\n        /* \"#utility.yul\":3027:3056   */\n      tag_170\n        /* \"#utility.yul\":3049:3055   */\n      dup2\n        /* \"#utility.yul\":3027:3056   */\n      tag_171\n      jump\t// in\n    tag_170:\n        /* \"#utility.yul\":3022:3025   */\n      dup5\n        /* \"#utility.yul\":3018:3057   */\n      add\n        /* \"#utility.yul\":3011:3057   */\n      swap2\n      pop\n        /* \"#utility.yul\":2791:3063   */\n      pop\n        /* \"#utility.yul\":2699:3063   */\n      swap3\n      swap2\n      pop\n      pop\n      jump\t// out\n        /* \"#utility.yul\":3069:3435   */\n    tag_172:\n        /* \"#utility.yul\":3211:3214   */\n      0x00\n        /* \"#utility.yul\":3232:3299   */\n      tag_174\n        /* \"#utility.yul\":3296:3298   */\n      0x37\n        /* \"#utility.yul\":3291:3294   */\n      dup4\n        /* \"#utility.yul\":3232:3299   */\n      tag_167\n      jump\t// in\n    tag_174:\n        /* \"#utility.yul\":3225:3299   */\n      swap2\n      pop\n        /* \"#utility.yul\":3308:3401   */\n      tag_175\n        /* \"#utility.yul\":3397:3400   */\n      dup3\n        /* \"#utility.yul\":3308:3401   */\n      tag_176\n      jump\t// in\n    tag_175:\n        /* \"#utility.yul\":3426:3428   */\n      0x40\n        /* \"#utility.yul\":3421:3424   */\n      dup3\n        /* \"#utility.yul\":3417:3429   */\n      add\n        /* \"#utility.yul\":3410:3429   */\n      swap1\n      pop\n        /* \"#utility.yul\":3069:3435   */\n      swap2\n      swap1\n      pop\n      jump\t// out\n        /* \"#utility.yul\":3441:3807   */\n    tag_177:\n        /* \"#utility.yul\":3583:3586   */\n      0x00\n        /* \"#utility.yul\":3604:3671   */\n      tag_179\n        /* \"#utility.yul\":3668:3670   */\n      0x34\n        /* \"#utility.yul\":3663:3666   */\n      dup4\n        /* \"#utility.yul\":3604:3671   */\n      tag_167\n      jump\t// in\n    tag_179:\n        /* \"#utility.yul\":3597:3671   */\n      swap2\n      pop\n        /* \"#utility.yul\":3680:3773   */\n      tag_180\n        /* \"#utility.yul\":3769:3772   */\n      dup3\n        /* \"#utility.yul\":3680:3773   */\n      tag_181\n      jump\t// in\n    tag_180:\n        /* \"#utility.yul\":3798:3800   */\n      0x40\n        /* \"#utility.yul\":3793:3796   */\n      dup3\n        /* \"#utility.yul\":3789:3801   */\n      add\n        /* \"#utility.yul\":3782:3801   */\n      swap1\n      pop\n        /* \"#utility.yul\":3441:3807   */\n      swap2\n      swap1\n      pop\n      jump\t// out\n        /* \"#utility.yul\":3813:4179   */\n    tag_182:\n        /* \"#utility.yul\":3955:3958   */\n      0x00\n        /* \"#utility.yul\":3976:4043   */\n      tag_184\n        /* \"#utility.yul\":4040:4042   */\n      0x1f\n        /* \"#utility.yul\":4035:4038   */\n      dup4\n        /* \"#utility.yul\":3976:4043   */\n      tag_167\n      jump\t// in\n    tag_184:\n        /* \"#utility.yul\":3969:4043   */\n      swap2\n      pop\n        /* \"#utility.yul\":4052:4145   */\n      tag_185\n        /* \"#utility.yul\":4141:4144   */\n      dup3\n        /* \"#utility.yul\":4052:4145   */\n      tag_186\n      jump\t// in\n    tag_185:\n        /* \"#utility.yul\":4170:4172   */\n      0x20\n        /* \"#utility.yul\":4165:4168   */\n      dup3\n        /* \"#utility.yul\":4161:4173   */\n      add\n        /* \"#utility.yul\":4154:4173   */\n      swap1\n      pop\n        /* \"#utility.yul\":3813:4179   */\n      swap2\n      swap1\n      pop\n      jump\t// out\n        /* \"#utility.yul\":4185:4551   */\n    tag_187:\n        /* \"#utility.yul\":4327:4330   */\n      0x00\n        /* \"#utility.yul\":4348:4415   */\n      tag_189\n        /* \"#utility.yul\":4412:4414   */\n      0x18\n        /* \"#utility.yul\":4407:4410   */\n      dup4\n        /* \"#utility.yul\":4348:4415   */\n      tag_167\n      jump\t// in\n    tag_189:\n        /* \"#utility.yul\":4341:4415   */\n      swap2\n      pop\n        /* \"#utility.yul\":4424:4517   */\n      tag_190\n        /* \"#utility.yul\":4513:4516   */\n      dup3\n        /* \"#utility.yul\":4424:4517   */\n      tag_191\n      jump\t// in\n    tag_190:\n        /* \"#utility.yul\":4542:4544   */\n      0x20\n        /* \"#utility.yul\":4537:4540   */\n      dup3\n        /* \"#utility.yul\":4533:4545   */\n      add\n        /* \"#utility.yul\":4526:4545   */\n      swap1\n      pop\n        /* \"#utility.yul\":4185:4551   */\n      swap2\n      swap1\n      pop\n      jump\t// out\n        /* \"#utility.yul\":4557:4675   */\n    tag_192:\n        /* \"#utility.yul\":4644:4668   */\n      tag_194\n        /* \"#utility.yul\":4662:4667   */\n      dup2\n        /* \"#utility.yul\":4644:4668   */\n      tag_195\n      jump\t// in\n    tag_194:\n        /* \"#utility.yul\":4639:4642   */\n      dup3\n        /* \"#utility.yul\":4632:4669   */\n      mstore\n        /* \"#utility.yul\":4557:4675   */\n      pop\n      pop\n      jump\t// out\n        /* \"#utility.yul\":4681:4903   */\n    tag_63:\n        /* \"#utility.yul\":4774:4778   */\n      0x00\n        /* \"#utility.yul\":4812:4814   */\n      0x20\n        /* \"#utility.yul\":4801:4810   */\n      dup3\n        /* \"#utility.yul\":4797:4815   */\n      add\n        /* \"#utility.yul\":4789:4815   */\n      swap1\n      pop\n        /* \"#utility.yul\":4825:4896   */\n      tag_197\n        /* \"#utility.yul\":4893:4894   */\n      0x00\n        /* \"#utility.yul\":4882:4891   */\n      dup4\n        /* \"#utility.yul\":4878:4895   */\n      add\n        /* \"#utility.yul\":4869:4875   */\n      dup5\n        /* \"#utility.yul\":4825:4896   */\n      tag_150\n      jump\t// in\n    tag_197:\n        /* \"#utility.yul\":4681:4903   */\n      swap3\n      swap2\n      pop\n      pop\n      jump\t// out\n        /* \"#utility.yul\":4909:5351   */\n    tag_78:\n        /* \"#utility.yul\":5058:5062   */\n      0x00\n        /* \"#utility.yul\":5096:5098   */\n      0x60\n        /* \"#utility.yul\":5085:5094   */\n      dup3\n        /* \"#utility.yul\":5081:5099   */\n      add\n        /* \"#utility.yul\":5073:5099   */\n      swap1\n      pop\n        /* \"#utility.yul\":5109:5180   */\n      tag_199\n        /* \"#utility.yul\":5177:5178   */\n      0x00\n        /* \"#utility.yul\":5166:5175   */\n      dup4\n        /* \"#utility.yul\":5162:5179   */\n      add\n        /* \"#utility.yul\":5153:5159   */\n      dup7\n        /* \"#utility.yul\":5109:5180   */\n      tag_150\n      jump\t// in\n    tag_199:\n        /* \"#utility.yul\":5190:5262   */\n      tag_200\n        /* \"#utility.yul\":5258:5260   */\n      0x20\n        /* \"#utility.yul\":5247:5256   */\n      dup4\n        /* \"#utility.yul\":5243:5261   */\n      add\n        /* \"#utility.yul\":5234:5240   */\n      dup6\n        /* \"#utility.yul\":5190:5262   */\n      tag_150\n      jump\t// in\n    tag_200:\n        /* \"#utility.yul\":5272:5344   */\n      tag_201\n        /* \"#utility.yul\":5340:5342   */\n      0x40\n        /* \"#utility.yul\":5329:5338   */\n      dup4\n        /* \"#utility.yul\":5325:5343   */\n      add\n        /* \"#utility.yul\":5316:5322   */\n      dup5\n        /* \"#utility.yul\":5272:5344   */\n      tag_192\n      jump\t// in\n    tag_201:\n        /* \"#utility.yul\":4909:5351   */\n      swap5\n      swap4\n      pop\n      pop\n      pop\n      pop\n      jump\t// out\n        /* \"#utility.yul\":5357:5910   */\n    tag_87:\n        /* \"#utility.yul\":5534:5538   */\n      0x00\n        /* \"#utility.yul\":5572:5575   */\n      0x80\n        /* \"#utility.yul\":5561:5570   */\n      dup3\n        /* \"#utility.yul\":5557:5576   */\n      add\n        /* \"#utility.yul\":5549:5576   */\n      swap1\n      pop\n        /* \"#utility.yul\":5586:5657   */\n      tag_203\n        /* \"#utility.yul\":5654:5655   */\n      0x00\n        /* \"#utility.yul\":5643:5652   */\n      dup4\n        /* \"#utility.yul\":5639:5656   */\n      add\n        /* \"#utility.yul\":5630:5636   */\n      dup8\n        /* \"#utility.yul\":5586:5657   */\n      tag_150\n      jump\t// in\n    tag_203:\n        /* \"#utility.yul\":5667:5739   */\n      tag_204\n        /* \"#utility.yul\":5735:5737   */\n      0x20\n        /* \"#utility.yul\":5724:5733   */\n      dup4\n        /* \"#utility.yul\":5720:5738   */\n      add\n        /* \"#utility.yul\":5711:5717   */\n      dup7\n        /* \"#utility.yul\":5667:5739   */\n      tag_150\n      jump\t// in\n    tag_204:\n        /* \"#utility.yul\":5749:5821   */\n      tag_205\n        /* \"#utility.yul\":5817:5819   */\n      0x40\n        /* \"#utility.yul\":5806:5815   */\n      dup4\n        /* \"#utility.yul\":5802:5820   */\n      add\n        /* \"#utility.yul\":5793:5799   */\n      dup6\n        /* \"#utility.yul\":5749:5821   */\n      tag_192\n      jump\t// in\n    tag_205:\n        /* \"#utility.yul\":5831:5903   */\n      tag_206\n        /* \"#utility.yul\":5899:5901   */\n      0x60\n        /* \"#utility.yul\":5888:5897   */\n      dup4\n        /* \"#utility.yul\":5884:5902   */\n      add\n        /* \"#utility.yul\":5875:5881   */\n      dup5\n        /* \"#utility.yul\":5831:5903   */\n      tag_192\n      jump\t// in\n    tag_206:\n        /* \"#utility.yul\":5357:5910   */\n      swap6\n      swap5\n      pop\n      pop\n      pop\n      pop\n      pop\n      jump\t// out\n        /* \"#utility.yul\":5916:6248   */\n    tag_100:\n        /* \"#utility.yul\":6037:6041   */\n      0x00\n        /* \"#utility.yul\":6075:6077   */\n      0x40\n        /* \"#utility.yul\":6064:6073   */\n      dup3\n        /* \"#utility.yul\":6060:6078   */\n      add\n        /* \"#utility.yul\":6052:6078   */\n      swap1\n      pop\n        /* \"#utility.yul\":6088:6159   */\n      tag_208\n        /* \"#utility.yul\":6156:6157   */\n      0x00\n        /* \"#utility.yul\":6145:6154   */\n      dup4\n        /* \"#utility.yul\":6141:6158   */\n      add\n        /* \"#utility.yul\":6132:6138   */\n      dup6\n        /* \"#utility.yul\":6088:6159   */\n      tag_150\n      jump\t// in\n    tag_208:\n        /* \"#utility.yul\":6169:6241   */\n      tag_209\n        /* \"#utility.yul\":6237:6239   */\n      0x20\n        /* \"#utility.yul\":6226:6235   */\n      dup4\n        /* \"#utility.yul\":6222:6240   */\n      add\n        /* \"#utility.yul\":6213:6219   */\n      dup5\n        /* \"#utility.yul\":6169:6241   */\n      tag_192\n      jump\t// in\n    tag_209:\n        /* \"#utility.yul\":5916:6248   */\n      swap4\n      swap3\n      pop\n      pop\n      pop\n      jump\t// out\n        /* \"#utility.yul\":6254:6498   */\n    tag_39:\n        /* \"#utility.yul\":6358:6362   */\n      0x00\n        /* \"#utility.yul\":6396:6398   */\n      0x20\n        /* \"#utility.yul\":6385:6394   */\n      dup3\n        /* \"#utility.yul\":6381:6399   */\n      add\n        /* \"#utility.yul\":6373:6399   */\n      swap1\n      pop\n        /* \"#utility.yul\":6409:6491   */\n      tag_211\n        /* \"#utility.yul\":6488:6489   */\n      0x00\n        /* \"#utility.yul\":6477:6486   */\n      dup4\n        /* \"#utility.yul\":6473:6490   */\n      add\n        /* \"#utility.yul\":6464:6470   */\n      dup5\n        /* \"#utility.yul\":6409:6491   */\n      tag_154\n      jump\t// in\n    tag_211:\n        /* \"#utility.yul\":6254:6498   */\n      swap3\n      swap2\n      pop\n      pop\n      jump\t// out\n        /* \"#utility.yul\":6504:6748   */\n    tag_44:\n        /* \"#utility.yul\":6608:6612   */\n      0x00\n        /* \"#utility.yul\":6646:6648   */\n      0x20\n        /* \"#utility.yul\":6635:6644   */\n      dup3\n        /* \"#utility.yul\":6631:6649   */\n      add\n        /* \"#utility.yul\":6623:6649   */\n      swap1\n      pop\n        /* \"#utility.yul\":6659:6741   */\n      tag_213\n        /* \"#utility.yul\":6738:6739   */\n      0x00\n        /* \"#utility.yul\":6727:6736   */\n      dup4\n        /* \"#utility.yul\":6723:6740   */\n      add\n        /* \"#utility.yul\":6714:6720   */\n      dup5\n        /* \"#utility.yul\":6659:6741   */\n      tag_158\n      jump\t// in\n    tag_213:\n        /* \"#utility.yul\":6504:6748   */\n      swap3\n      swap2\n      pop\n      pop\n      jump\t// out\n        /* \"#utility.yul\":6754:7067   */\n    tag_17:\n        /* \"#utility.yul\":6867:6871   */\n      0x00\n        /* \"#utility.yul\":6905:6907   */\n      0x20\n        /* \"#utility.yul\":6894:6903   */\n      dup3\n        /* \"#utility.yul\":6890:6908   */\n      add\n        /* \"#utility.yul\":6882:6908   */\n      swap1\n      pop\n        /* \"#utility.yul\":6954:6963   */\n      dup2\n        /* \"#utility.yul\":6948:6952   */\n      dup2\n        /* \"#utility.yul\":6944:6964   */\n      sub\n        /* \"#utility.yul\":6940:6941   */\n      0x00\n        /* \"#utility.yul\":6929:6938   */\n      dup4\n        /* \"#utility.yul\":6925:6942   */\n      add\n        /* \"#utility.yul\":6918:6965   */\n      mstore\n        /* \"#utility.yul\":6982:7060   */\n      tag_215\n        /* \"#utility.yul\":7055:7059   */\n      dup2\n        /* \"#utility.yul\":7046:7052   */\n      dup5\n        /* \"#utility.yul\":6982:7060   */\n      tag_162\n      jump\t// in\n    tag_215:\n        /* \"#utility.yul\":6974:7060   */\n      swap1\n      pop\n        /* \"#utility.yul\":6754:7067   */\n      swap3\n      swap2\n      pop\n      pop\n      jump\t// out\n        /* \"#utility.yul\":7073:7492   */\n    tag_76:\n        /* \"#utility.yul\":7239:7243   */\n      0x00\n        /* \"#utility.yul\":7277:7279   */\n      0x20\n        /* \"#utility.yul\":7266:7275   */\n      dup3\n        /* \"#utility.yul\":7262:7280   */\n      add\n        /* \"#utility.yul\":7254:7280   */\n      swap1\n      pop\n        /* \"#utility.yul\":7326:7335   */\n      dup2\n        /* \"#utility.yul\":7320:7324   */\n      dup2\n        /* \"#utility.yul\":7316:7336   */\n      sub\n        /* \"#utility.yul\":7312:7313   */\n      0x00\n        /* \"#utility.yul\":7301:7310   */\n      dup4\n        /* \"#utility.yul\":7297:7314   */\n      add\n        /* \"#utility.yul\":7290:7337   */\n      mstore\n        /* \"#utility.yul\":7354:7485   */\n      tag_217\n        /* \"#utility.yul\":7480:7484   */\n      dup2\n        /* \"#utility.yul\":7354:7485   */\n      tag_172\n      jump\t// in\n    tag_217:\n        /* \"#utility.yul\":7346:7485   */\n      swap1\n      pop\n        /* \"#utility.yul\":7073:7492   */\n      swap2\n      swap1\n      pop\n      jump\t// out\n        /* \"#utility.yul\":7498:7917   */\n    tag_71:\n        /* \"#utility.yul\":7664:7668   */\n      0x00\n        /* \"#utility.yul\":7702:7704   */\n      0x20\n        /* \"#utility.yul\":7691:7700   */\n      dup3\n        /* \"#utility.yul\":7687:7705   */\n      add\n        /* \"#utility.yul\":7679:7705   */\n      swap1\n      pop\n        /* \"#utility.yul\":7751:7760   */\n      dup2\n        /* \"#utility.yul\":7745:7749   */\n      dup2\n        /* \"#utility.yul\":7741:7761   */\n      sub\n        /* \"#utility.yul\":7737:7738   */\n      0x00\n        /* \"#utility.yul\":7726:7735   */\n      dup4\n        /* \"#utility.yul\":7722:7739   */\n      add\n        /* \"#utility.yul\":7715:7762   */\n      mstore\n        /* \"#utility.yul\":7779:7910   */\n      tag_219\n        /* \"#utility.yul\":7905:7909   */\n      dup2\n        /* \"#utility.yul\":7779:7910   */\n      tag_177\n      jump\t// in\n    tag_219:\n        /* \"#utility.yul\":7771:7910   */\n      swap1\n      pop\n        /* \"#utility.yul\":7498:7917   */\n      swap2\n      swap1\n      pop\n      jump\t// out\n        /* \"#utility.yul\":7923:8342   */\n    tag_98:\n        /* \"#utility.yul\":8089:8093   */\n      0x00\n        /* \"#utility.yul\":8127:8129   */\n      0x20\n        /* \"#utility.yul\":8116:8125   */\n      dup3\n        /* \"#utility.yul\":8112:8130   */\n      add\n        /* \"#utility.yul\":8104:8130   */\n      swap1\n      pop\n        /* \"#utility.yul\":8176:8185   */\n      dup2\n        /* \"#utility.yul\":8170:8174   */\n      dup2\n        /* \"#utility.yul\":8166:8186   */\n      sub\n        /* \"#utility.yul\":8162:8163   */\n      0x00\n        /* \"#utility.yul\":8151:8160   */\n      dup4\n        /* \"#utility.yul\":8147:8164   */\n      add\n        /* \"#utility.yul\":8140:8187   */\n      mstore\n        /* \"#utility.yul\":8204:8335   */\n      tag_221\n        /* \"#utility.yul\":8330:8334   */\n      dup2\n        /* \"#utility.yul\":8204:8335   */\n      tag_182\n      jump\t// in\n    tag_221:\n        /* \"#utility.yul\":8196:8335   */\n      swap1\n      pop\n        /* \"#utility.yul\":7923:8342   */\n      swap2\n      swap1\n      pop\n      jump\t// out\n        /* \"#utility.yul\":8348:8767   */\n    tag_114:\n        /* \"#utility.yul\":8514:8518   */\n      0x00\n        /* \"#utility.yul\":8552:8554   */\n      0x20\n        /* \"#utility.yul\":8541:8550   */\n      dup3\n        /* \"#utility.yul\":8537:8555   */\n      add\n        /* \"#utility.yul\":8529:8555   */\n      swap1\n      pop\n        /* \"#utility.yul\":8601:8610   */\n      dup2\n        /* \"#utility.yul\":8595:8599   */\n      dup2\n        /* \"#utility.yul\":8591:8611   */\n      sub\n        /* \"#utility.yul\":8587:8588   */\n      0x00\n        /* \"#utility.yul\":8576:8585   */\n      dup4\n        /* \"#utility.yul\":8572:8589   */\n      add\n        /* \"#utility.yul\":8565:8612   */\n      mstore\n        /* \"#utility.yul\":8629:8760   */\n      tag_223\n        /* \"#utility.yul\":8755:8759   */\n      dup2\n        /* \"#utility.yul\":8629:8760   */\n      tag_187\n      jump\t// in\n    tag_223:\n        /* \"#utility.yul\":8621:8760   */\n      swap1\n      pop\n        /* \"#utility.yul\":8348:8767   */\n      swap2\n      swap1\n      pop\n      jump\t// out\n        /* \"#utility.yul\":8773:8995   */\n    tag_22:\n        /* \"#utility.yul\":8866:8870   */\n      0x00\n        /* \"#utility.yul\":8904:8906   */\n      0x20\n        /* \"#utility.yul\":8893:8902   */\n      dup3\n        /* \"#utility.yul\":8889:8907   */\n      add\n        /* \"#utility.yul\":8881:8907   */\n      swap1\n      pop\n        /* \"#utility.yul\":8917:8988   */\n      tag_225\n        /* \"#utility.yul\":8985:8986   */\n      0x00\n        /* \"#utility.yul\":8974:8983   */\n      dup4\n        /* \"#utility.yul\":8970:8987   */\n      add\n        /* \"#utility.yul\":8961:8967   */\n      dup5\n        /* \"#utility.yul\":8917:8988   */\n      tag_192\n      jump\t// in\n    tag_225:\n        /* \"#utility.yul\":8773:8995   */\n      swap3\n      swap2\n      pop\n      pop\n      jump\t// out\n        /* \"#utility.yul\":9082:9181   */\n    tag_165:\n        /* \"#utility.yul\":9134:9140   */\n      0x00\n        /* \"#utility.yul\":9168:9173   */\n      dup2\n        /* \"#utility.yul\":9162:9174   */\n      mload\n        /* \"#utility.yul\":9152:9174   */\n      swap1\n      pop\n        /* \"#utility.yul\":9082:9181   */\n      swap2\n      swap1\n      pop\n      jump\t// out\n        /* \"#utility.yul\":9187:9356   */\n    tag_167:\n        /* \"#utility.yul\":9271:9282   */\n      0x00\n        /* \"#utility.yul\":9305:9311   */\n      dup3\n        /* \"#utility.yul\":9300:9303   */\n      dup3\n        /* \"#utility.yul\":9293:9312   */\n      mstore\n        /* \"#utility.yul\":9345:9349   */\n      0x20\n        /* \"#utility.yul\":9340:9343   */\n      dup3\n        /* \"#utility.yul\":9336:9350   */\n      add\n        /* \"#utility.yul\":9321:9350   */\n      swap1\n      pop\n        /* \"#utility.yul\":9187:9356   */\n      swap3\n      swap2\n      pop\n      pop\n      jump\t// out\n        /* \"#utility.yul\":9362:9547   */\n    tag_73:\n        /* \"#utility.yul\":9402:9403   */\n      0x00\n        /* \"#utility.yul\":9419:9439   */\n      tag_231\n        /* \"#utility.yul\":9437:9438   */\n      dup3\n        /* \"#utility.yul\":9419:9439   */\n      tag_195\n      jump\t// in\n    tag_231:\n        /* \"#utility.yul\":9414:9439   */\n      swap2\n      pop\n        /* \"#utility.yul\":9453:9473   */\n      tag_232\n        /* \"#utility.yul\":9471:9472   */\n      dup4\n        /* \"#utility.yul\":9453:9473   */\n      tag_195\n      jump\t// in\n    tag_232:\n        /* \"#utility.yul\":9448:9473   */\n      swap3\n      pop\n        /* \"#utility.yul\":9492:9493   */\n      dup3\n        /* \"#utility.yul\":9482:9517   */\n      tag_233\n      jumpi\n        /* \"#utility.yul\":9497:9515   */\n      tag_234\n      tag_235\n      jump\t// in\n    tag_234:\n        /* \"#utility.yul\":9482:9517   */\n    tag_233:\n        /* \"#utility.yul\":9539:9540   */\n      dup3\n        /* \"#utility.yul\":9536:9537   */\n      dup3\n        /* \"#utility.yul\":9532:9541   */\n      div\n        /* \"#utility.yul\":9527:9541   */\n      swap1\n      pop\n        /* \"#utility.yul\":9362:9547   */\n      swap3\n      swap2\n      pop\n      pop\n      jump\t// out\n        /* \"#utility.yul\":9553:9901   */\n    tag_90:\n        /* \"#utility.yul\":9593:9600   */\n      0x00\n        /* \"#utility.yul\":9616:9636   */\n      tag_237\n        /* \"#utility.yul\":9634:9635   */\n      dup3\n        /* \"#utility.yul\":9616:9636   */\n      tag_195\n      jump\t// in\n    tag_237:\n        /* \"#utility.yul\":9611:9636   */\n      swap2\n      pop\n        /* \"#utility.yul\":9650:9670   */\n      tag_238\n        /* \"#utility.yul\":9668:9669   */\n      dup4\n        /* \"#utility.yul\":9650:9670   */\n      tag_195\n      jump\t// in\n    tag_238:\n        /* \"#utility.yul\":9645:9670   */\n      swap3\n      pop\n        /* \"#utility.yul\":9838:9839   */\n      dup2\n        /* \"#utility.yul\":9770:9836   */\n      0xffffffffffffffffffffffffffffffffffffffffffffffffffffffffffffffff\n        /* \"#utility.yul\":9766:9840   */\n      div\n        /* \"#utility.yul\":9763:9764   */\n      dup4\n        /* \"#utility.yul\":9760:9841   */\n      gt\n        /* \"#utility.yul\":9755:9756   */\n      dup3\n        /* \"#utility.yul\":9748:9757   */\n      iszero\n        /* \"#utility.yul\":9741:9758   */\n      iszero\n        /* \"#utility.yul\":9737:9842   */\n      and\n        /* \"#utility.yul\":9734:9865   */\n      iszero\n      tag_239\n      jumpi\n        /* \"#utility.yul\":9845:9863   */\n      tag_240\n      tag_241\n      jump\t// in\n    tag_240:\n        /* \"#utility.yul\":9734:9865   */\n    tag_239:\n        /* \"#utility.yul\":9893:9894   */\n      dup3\n        /* \"#utility.yul\":9890:9891   */\n      dup3\n        /* \"#utility.yul\":9886:9895   */\n      mul\n        /* \"#utility.yul\":9875:9895   */\n      swap1\n      pop\n        /* \"#utility.yul\":9553:9901   */\n      swap3\n      swap2\n      pop\n      pop\n      jump\t// out\n        /* \"#utility.yul\":9907:10003   */\n    tag_153:\n        /* \"#utility.yul\":9944:9951   */\n      0x00\n        /* \"#utility.yul\":9973:9997   */\n      tag_243\n        /* \"#utility.yul\":9991:9996   */\n      dup3\n        /* \"#utility.yul\":9973:9997   */\n      tag_244\n      jump\t// in\n    tag_243:\n        /* \"#utility.yul\":9962:9997   */\n      swap1\n      pop\n        /* \"#utility.yul\":9907:10003   */\n      swap2\n      swap1\n      pop\n      jump\t// out\n        /* \"#utility.yul\":10009:10099   */\n    tag_245:\n        /* \"#utility.yul\":10043:10050   */\n      0x00\n        /* \"#utility.yul\":10086:10091   */\n      dup2\n        /* \"#utility.yul\":10079:10092   */\n      iszero\n        /* \"#utility.yul\":10072:10093   */\n      iszero\n        /* \"#utility.yul\":10061:10093   */\n      swap1\n      pop\n        /* \"#utility.yul\":10009:10099   */\n      swap2\n      swap1\n      pop\n      jump\t// out\n        /* \"#utility.yul\":10105:10231   */\n    tag_244:\n        /* \"#utility.yul\":10142:10149   */\n      0x00\n        /* \"#utility.yul\":10182:10224   */\n      0xffffffffffffffffffffffffffffffffffffffff\n        /* \"#utility.yul\":10175:10180   */\n      dup3\n        /* \"#utility.yul\":10171:10225   */\n      and\n        /* \"#utility.yul\":10160:10225   */\n      swap1\n      pop\n        /* \"#utility.yul\":10105:10231   */\n      swap2\n      swap1\n      pop\n      jump\t// out\n        /* \"#utility.yul\":10237:10314   */\n    tag_195:\n        /* \"#utility.yul\":10274:10281   */\n      0x00\n        /* \"#utility.yul\":10303:10308   */\n      dup2\n        /* \"#utility.yul\":10292:10308   */\n      swap1\n      pop\n        /* \"#utility.yul\":10237:10314   */\n      swap2\n      swap1\n      pop\n      jump\t// out\n        /* \"#utility.yul\":10320:10457   */\n    tag_157:\n        /* \"#utility.yul\":10381:10390   */\n      0x00\n        /* \"#utility.yul\":10414:10451   */\n      tag_250\n        /* \"#utility.yul\":10445:10450   */\n      dup3\n        /* \"#utility.yul\":10414:10451   */\n      tag_251\n      jump\t// in\n    tag_250:\n        /* \"#utility.yul\":10401:10451   */\n      swap1\n      pop\n        /* \"#utility.yul\":10320:10457   */\n      swap2\n      swap1\n      pop\n      jump\t// out\n        /* \"#utility.yul\":10463:10600   */\n    tag_161:\n        /* \"#utility.yul\":10524:10533   */\n      0x00\n        /* \"#utility.yul\":10557:10594   */\n      tag_253\n        /* \"#utility.yul\":10588:10593   */\n      dup3\n        /* \"#utility.yul\":10557:10594   */\n      tag_251\n      jump\t// in\n    tag_253:\n        /* \"#utility.yul\":10544:10594   */\n      swap1\n      pop\n        /* \"#utility.yul\":10463:10600   */\n      swap2\n      swap1\n      pop\n      jump\t// out\n        /* \"#utility.yul\":10606:10732   */\n    tag_251:\n        /* \"#utility.yul\":10656:10665   */\n      0x00\n        /* \"#utility.yul\":10689:10726   */\n      tag_255\n        /* \"#utility.yul\":10720:10725   */\n      dup3\n        /* \"#utility.yul\":10689:10726   */\n      tag_256\n      jump\t// in\n    tag_255:\n        /* \"#utility.yul\":10676:10726   */\n      swap1\n      pop\n        /* \"#utility.yul\":10606:10732   */\n      swap2\n      swap1\n      pop\n      jump\t// out\n        /* \"#utility.yul\":10738:10851   */\n    tag_256:\n        /* \"#utility.yul\":10788:10797   */\n      0x00\n        /* \"#utility.yul\":10821:10845   */\n      tag_258\n        /* \"#utility.yul\":10839:10844   */\n      dup3\n        /* \"#utility.yul\":10821:10845   */\n      tag_244\n      jump\t// in\n    tag_258:\n        /* \"#utility.yul\":10808:10845   */\n      swap1\n      pop\n        /* \"#utility.yul\":10738:10851   */\n      swap2\n      swap1\n      pop\n      jump\t// out\n        /* \"#utility.yul\":10857:11164   */\n    tag_169:\n        /* \"#utility.yul\":10925:10926   */\n      0x00\n        /* \"#utility.yul\":10935:11048   */\n    tag_260:\n        /* \"#utility.yul\":10949:10955   */\n      dup4\n        /* \"#utility.yul\":10946:10947   */\n      dup2\n        /* \"#utility.yul\":10943:10956   */\n      lt\n        /* \"#utility.yul\":10935:11048   */\n      iszero\n      tag_262\n      jumpi\n        /* \"#utility.yul\":11034:11035   */\n      dup1\n        /* \"#utility.yul\":11029:11032   */\n      dup3\n        /* \"#utility.yul\":11025:11036   */\n      add\n        /* \"#utility.yul\":11019:11037   */\n      mload\n        /* \"#utility.yul\":11015:11016   */\n      dup2\n        /* \"#utility.yul\":11010:11013   */\n      dup5\n        /* \"#utility.yul\":11006:11017   */\n      add\n        /* \"#utility.yul\":10999:11038   */\n      mstore\n        /* \"#utility.yul\":10971:10973   */\n      0x20\n        /* \"#utility.yul\":10968:10969   */\n      dup2\n        /* \"#utility.yul\":10964:10974   */\n      add\n        /* \"#utility.yul\":10959:10974   */\n      swap1\n      pop\n        /* \"#utility.yul\":10935:11048   */\n      jump(tag_260)\n    tag_262:\n        /* \"#utility.yul\":11066:11072   */\n      dup4\n        /* \"#utility.yul\":11063:11064   */\n      dup2\n        /* \"#utility.yul\":11060:11073   */\n      gt\n        /* \"#utility.yul\":11057:11158   */\n      iszero\n      tag_263\n      jumpi\n        /* \"#utility.yul\":11146:11147   */\n      0x00\n        /* \"#utility.yul\":11137:11143   */\n      dup5\n        /* \"#utility.yul\":11132:11135   */\n      dup5\n        /* \"#utility.yul\":11128:11144   */\n      add\n        /* \"#utility.yul\":11121:11148   */\n      mstore\n        /* \"#utility.yul\":11057:11158   */\n    tag_263:\n        /* \"#utility.yul\":10906:11164   */\n      pop\n        /* \"#utility.yul\":10857:11164   */\n      pop\n      pop\n      pop\n      jump\t// out\n        /* \"#utility.yul\":11170:11490   */\n    tag_56:\n        /* \"#utility.yul\":11214:11220   */\n      0x00\n        /* \"#utility.yul\":11251:11252   */\n      0x02\n        /* \"#utility.yul\":11245:11249   */\n      dup3\n        /* \"#utility.yul\":11241:11253   */\n      div\n        /* \"#utility.yul\":11231:11253   */\n      swap1\n      pop\n        /* \"#utility.yul\":11298:11299   */\n      0x01\n        /* \"#utility.yul\":11292:11296   */\n      dup3\n        /* \"#utility.yul\":11288:11300   */\n      and\n        /* \"#utility.yul\":11319:11337   */\n      dup1\n        /* \"#utility.yul\":11309:11390   */\n      tag_265\n      jumpi\n        /* \"#utility.yul\":11375:11379   */\n      0x7f\n        /* \"#utility.yul\":11367:11373   */\n      dup3\n        /* \"#utility.yul\":11363:11380   */\n      and\n        /* \"#utility.yul\":11353:11380   */\n      swap2\n      pop\n        /* \"#utility.yul\":11309:11390   */\n    tag_265:\n        /* \"#utility.yul\":11437:11439   */\n      0x20\n        /* \"#utility.yul\":11429:11435   */\n      dup3\n        /* \"#utility.yul\":11426:11440   */\n      lt\n        /* \"#utility.yul\":11406:11424   */\n      dup2\n        /* \"#utility.yul\":11403:11441   */\n      eq\n        /* \"#utility.yul\":11400:11484   */\n      iszero\n      tag_266\n      jumpi\n        /* \"#utility.yul\":11456:11474   */\n      tag_267\n      tag_268\n      jump\t// in\n    tag_267:\n        /* \"#utility.yul\":11400:11484   */\n    tag_266:\n        /* \"#utility.yul\":11221:11490   */\n      pop\n        /* \"#utility.yul\":11170:11490   */\n      swap2\n      swap1\n      pop\n      jump\t// out\n        /* \"#utility.yul\":11496:11676   */\n    tag_241:\n        /* \"#utility.yul\":11544:11621   */\n      0x4e487b7100000000000000000000000000000000000000000000000000000000\n        /* \"#utility.yul\":11541:11542   */\n      0x00\n        /* \"#utility.yul\":11534:11622   */\n      mstore\n        /* \"#utility.yul\":11641:11645   */\n      0x11\n        /* \"#utility.yul\":11638:11639   */\n      0x04\n        /* \"#utility.yul\":11631:11646   */\n      mstore\n        /* \"#utility.yul\":11665:11669   */\n      0x24\n        /* \"#utility.yul\":11662:11663   */\n      0x00\n        /* \"#utility.yul\":11655:11670   */\n      revert\n        /* \"#utility.yul\":11682:11862   */\n    tag_235:\n        /* \"#utility.yul\":11730:11807   */\n      0x4e487b7100000000000000000000000000000000000000000000000000000000\n        /* \"#utility.yul\":11727:11728   */\n      0x00\n        /* \"#utility.yul\":11720:11808   */\n      mstore\n        /* \"#utility.yul\":11827:11831   */\n      0x12\n        /* \"#utility.yul\":11824:11825   */\n      0x04\n        /* \"#utility.yul\":11817:11832   */\n      mstore\n        /* \"#utility.yul\":11851:11855   */\n      0x24\n        /* \"#utility.yul\":11848:11849   */\n      0x00\n        /* \"#utility.yul\":11841:11856   */\n      revert\n        /* \"#utility.yul\":11868:12048   */\n    tag_268:\n        /* \"#utility.yul\":11916:11993   */\n      0x4e487b7100000000000000000000000000000000000000000000000000000000\n        /* \"#utility.yul\":11913:11914   */\n      0x00\n        /* \"#utility.yul\":11906:11994   */\n      mstore\n        /* \"#utility.yul\":12013:12017   */\n      0x22\n        /* \"#utility.yul\":12010:12011   */\n      0x04\n        /* \"#utility.yul\":12003:12018   */\n      mstore\n        /* \"#utility.yul\":12037:12041   */\n      0x24\n        /* \"#utility.yul\":12034:12035   */\n      0x00\n        /* \"#utility.yul\":12027:12042   */\n      revert\n        /* \"#utility.yul\":12177:12294   */\n    tag_134:\n        /* \"#utility.yul\":12286:12287   */\n      0x00\n        /* \"#utility.yul\":12283:12284   */\n      dup1\n        /* \"#utility.yul\":12276:12288   */\n      revert\n        /* \"#utility.yul\":12300:12402   */\n    tag_171:\n        /* \"#utility.yul\":12341:12347   */\n      0x00\n        /* \"#utility.yul\":12392:12394   */\n      0x1f\n        /* \"#utility.yul\":12388:12395   */\n      not\n        /* \"#utility.yul\":12383:12385   */\n      0x1f\n        /* \"#utility.yul\":12376:12381   */\n      dup4\n        /* \"#utility.yul\":12372:12386   */\n      add\n        /* \"#utility.yul\":12368:12396   */\n      and\n        /* \"#utility.yul\":12358:12396   */\n      swap1\n      pop\n        /* \"#utility.yul\":12300:12402   */\n      swap2\n      swap1\n      pop\n      jump\t// out\n        /* \"#utility.yul\":12408:12650   */\n    tag_176:\n        /* \"#utility.yul\":12548:12582   */\n      0x5377617020636f6e747261637420646f6573206e6f74206861766520656e6f75\n        /* \"#utility.yul\":12544:12545   */\n      0x00\n        /* \"#utility.yul\":12536:12542   */\n      dup3\n        /* \"#utility.yul\":12532:12546   */\n      add\n        /* \"#utility.yul\":12525:12583   */\n      mstore\n        /* \"#utility.yul\":12617:12642   */\n      0x676820617661696c61626c652045544820616d6f756e74000000000000000000\n        /* \"#utility.yul\":12612:12614   */\n      0x20\n        /* \"#utility.yul\":12604:12610   */\n      dup3\n        /* \"#utility.yul\":12600:12615   */\n      add\n        /* \"#utility.yul\":12593:12643   */\n      mstore\n        /* \"#utility.yul\":12408:12650   */\n      pop\n      jump\t// out\n        /* \"#utility.yul\":12656:12895   */\n    tag_181:\n        /* \"#utility.yul\":12796:12830   */\n      0x596f752063616e206e6f742073656c6c206d6f726520746f6b656e7320746861\n        /* \"#utility.yul\":12792:12793   */\n      0x00\n        /* \"#utility.yul\":12784:12790   */\n      dup3\n        /* \"#utility.yul\":12780:12794   */\n      add\n        /* \"#utility.yul\":12773:12831   */\n      mstore\n        /* \"#utility.yul\":12865:12887   */\n      0x6e20796f752063757272656e746c7920686f6c64000000000000000000000000\n        /* \"#utility.yul\":12860:12862   */\n      0x20\n        /* \"#utility.yul\":12852:12858   */\n      dup3\n        /* \"#utility.yul\":12848:12863   */\n      add\n        /* \"#utility.yul\":12841:12888   */\n      mstore\n        /* \"#utility.yul\":12656:12895   */\n      pop\n      jump\t// out\n        /* \"#utility.yul\":12901:13082   */\n    tag_186:\n        /* \"#utility.yul\":13041:13074   */\n      0x4e6f7420656e6f75676820435a4820617661696c61626c6520746f2062757900\n        /* \"#utility.yul\":13037:13038   */\n      0x00\n        /* \"#utility.yul\":13029:13035   */\n      dup3\n        /* \"#utility.yul\":13025:13039   */\n      add\n        /* \"#utility.yul\":13018:13075   */\n      mstore\n        /* \"#utility.yul\":12901:13082   */\n      pop\n      jump\t// out\n        /* \"#utility.yul\":13088:13262   */\n    tag_191:\n        /* \"#utility.yul\":13228:13254   */\n      0x4e6f7420656e6f7567682066756e647320746f20737761700000000000000000\n        /* \"#utility.yul\":13224:13225   */\n      0x00\n        /* \"#utility.yul\":13216:13222   */\n      dup3\n        /* \"#utility.yul\":13212:13226   */\n      add\n        /* \"#utility.yul\":13205:13255   */\n      mstore\n        /* \"#utility.yul\":13088:13262   */\n      pop\n      jump\t// out\n        /* \"#utility.yul\":13268:13390   */\n    tag_119:\n        /* \"#utility.yul\":13341:13365   */\n      tag_281\n        /* \"#utility.yul\":13359:13364   */\n      dup2\n        /* \"#utility.yul\":13341:13365   */\n      tag_153\n      jump\t// in\n    tag_281:\n        /* \"#utility.yul\":13334:13339   */\n      dup2\n        /* \"#utility.yul\":13331:13366   */\n      eq\n        /* \"#utility.yul\":13321:13384   */\n      tag_282\n      jumpi\n        /* \"#utility.yul\":13380:13381   */\n      0x00\n        /* \"#utility.yul\":13377:13378   */\n      dup1\n        /* \"#utility.yul\":13370:13382   */\n      revert\n        /* \"#utility.yul\":13321:13384   */\n    tag_282:\n        /* \"#utility.yul\":13268:13390   */\n      pop\n      jump\t// out\n        /* \"#utility.yul\":13396:13512   */\n    tag_123:\n        /* \"#utility.yul\":13466:13487   */\n      tag_284\n        /* \"#utility.yul\":13481:13486   */\n      dup2\n        /* \"#utility.yul\":13466:13487   */\n      tag_245\n      jump\t// in\n    tag_284:\n        /* \"#utility.yul\":13459:13464   */\n      dup2\n        /* \"#utility.yul\":13456:13488   */\n      eq\n        /* \"#utility.yul\":13446:13506   */\n      tag_285\n      jumpi\n        /* \"#utility.yul\":13502:13503   */\n      0x00\n        /* \"#utility.yul\":13499:13500   */\n      dup1\n        /* \"#utility.yul\":13492:13504   */\n      revert\n        /* \"#utility.yul\":13446:13506   */\n    tag_285:\n        /* \"#utility.yul\":13396:13512   */\n      pop\n      jump\t// out\n        /* \"#utility.yul\":13518:13640   */\n    tag_127:\n        /* \"#utility.yul\":13591:13615   */\n      tag_287\n        /* \"#utility.yul\":13609:13614   */\n      dup2\n        /* \"#utility.yul\":13591:13615   */\n      tag_195\n      jump\t// in\n    tag_287:\n        /* \"#utility.yul\":13584:13589   */\n      dup2\n        /* \"#utility.yul\":13581:13616   */\n      eq\n        /* \"#utility.yul\":13571:13634   */\n      tag_288\n      jumpi\n        /* \"#utility.yul\":13630:13631   */\n      0x00\n        /* \"#utility.yul\":13627:13628   */\n      dup1\n        /* \"#utility.yul\":13620:13632   */\n      revert\n        /* \"#utility.yul\":13571:13634   */\n    tag_288:\n        /* \"#utility.yul\":13518:13640   */\n      pop\n      jump\t// out\n\n    auxdata: 0xa26469706673582212205d60e221c818ed9c25ab3a105e372eaa690a6acb23de8d818eb75b86ed6b342864736f6c63430008070033\n}\n",
				"bytecode": {
					"linkReferences": {},
					"object": "60806040526040518060400160405280601a81526020017f457468207377617020706c6174666f726d20636f6e7472616374000000000000815250600090805190602001906200005192919062000287565b506064600355600a6004553480156200006957600080fd5b506040516200155d3803806200155d83398181016040528101906200008f91906200037c565b81600160006101000a81548173ffffffffffffffffffffffffffffffffffffffff021916908373ffffffffffffffffffffffffffffffffffffffff16021790555080600260006101000a81548173ffffffffffffffffffffffffffffffffffffffff021916908373ffffffffffffffffffffffffffffffffffffffff160217905550600160009054906101000a900473ffffffffffffffffffffffffffffffffffffffff1673ffffffffffffffffffffffffffffffffffffffff166370a08231306040518263ffffffff1660e01b81526004016200016e919062000406565b60206040518083038186803b1580156200018757600080fd5b505afa1580156200019c573d6000803e3d6000fd5b505050506040513d601f19601f82011682018060405250810190620001c29190620003c3565b600581905550600260009054906101000a900473ffffffffffffffffffffffffffffffffffffffff1673ffffffffffffffffffffffffffffffffffffffff166370a08231306040518263ffffffff1660e01b815260040162000225919062000406565b60206040518083038186803b1580156200023e57600080fd5b505afa15801562000253573d6000803e3d6000fd5b505050506040513d601f19601f82011682018060405250810190620002799190620003c3565b600681905550505062000541565b828054620002959062000489565b90600052602060002090601f016020900481019282620002b9576000855562000305565b82601f10620002d457805160ff191683800117855562000305565b8280016001018555821562000305579182015b8281111562000304578251825591602001919060010190620002e7565b5b50905062000314919062000318565b5090565b5b808211156200033357600081600090555060010162000319565b5090565b6000815190506200034881620004f3565b92915050565b6000815190506200035f816200050d565b92915050565b600081519050620003768162000527565b92915050565b60008060408385031215620003965762000395620004ee565b5b6000620003a68582860162000337565b9250506020620003b9858286016200034e565b9150509250929050565b600060208284031215620003dc57620003db620004ee565b5b6000620003ec8482850162000365565b91505092915050565b620004008162000423565b82525050565b60006020820190506200041d6000830184620003f5565b92915050565b600062000430826200045f565b9050919050565b6000620004448262000423565b9050919050565b6000620004588262000423565b9050919050565b600073ffffffffffffffffffffffffffffffffffffffff82169050919050565b6000819050919050565b60006002820490506001821680620004a257607f821691505b60208210811415620004b957620004b8620004bf565b5b50919050565b7f4e487b7100000000000000000000000000000000000000000000000000000000600052602260045260246000fd5b600080fd5b620004fe8162000437565b81146200050a57600080fd5b50565b62000518816200044b565b81146200052457600080fd5b50565b62000532816200047f565b81146200053e57600080fd5b50565b61100c80620005516000396000f3fe6080604052600436106100915760003560e01c80637cc1478a116100595780637cc1478a1461015e578063848d82eb14610189578063a1e18e1a146101b4578063d0febe4c146101df578063ec6cc0cc146101e957610091565b806306fdde03146100965780631739fef0146100c15780633aa6f8fa146100ec578063662b1af6146101175780636c11bcd314610142575b600080fd5b3480156100a257600080fd5b506100ab610205565b6040516100b89190610ba5565b60405180910390f35b3480156100cd57600080fd5b506100d6610293565b6040516100e39190610c47565b60405180910390f35b3480156100f857600080fd5b50610101610299565b60405161010e9190610c47565b60405180910390f35b34801561012357600080fd5b5061012c61029f565b6040516101399190610c47565b60405180910390f35b61015c60048036038101906101579190610954565b6102a5565b005b34801561016a57600080fd5b50610173610545565b6040516101809190610b6f565b60405180910390f35b34801561019557600080fd5b5061019e61056b565b6040516101ab9190610b8a565b60405180910390f35b3480156101c057600080fd5b506101c9610591565b6040516101d69190610c47565b60405180910390f35b6101e7610597565b005b61020360048036038101906101fe91906108d4565b6107aa565b005b6000805461021290610dcc565b80601f016020809104026020016040519081016040528092919081815260200182805461023e90610dcc565b801561028b5780601f106102605761010080835404028352916020019161028b565b820191906000526020600020905b81548152906001019060200180831161026e57829003601f168201915b505050505081565b60045481565b60055481565b60065481565b80600160009054906101000a900473ffffffffffffffffffffffffffffffffffffffff1673ffffffffffffffffffffffffffffffffffffffff166370a08231336040518263ffffffff1660e01b81526004016103019190610aaf565b60206040518083038186803b15801561031957600080fd5b505afa15801561032d573d6000803e3d6000fd5b505050506040513d601f19601f820116820180604052508101906103519190610981565b1015610392576040517f08c379a000000000000000000000000000000000000000000000000000000000815260040161038990610be7565b60405180910390fd5b6000600354826103a29190610c7e565b9050804710156103e7576040517f08c379a00000000000000000000000000000000000000000000000000000000081526004016103de90610bc7565b60405180910390fd5b600160009054906101000a900473ffffffffffffffffffffffffffffffffffffffff1673ffffffffffffffffffffffffffffffffffffffff166323b872dd3330856040518463ffffffff1660e01b815260040161044693929190610aca565b602060405180830381600087803b15801561046057600080fd5b505af1158015610474573d6000803e3d6000fd5b505050506040513d601f19601f820116820180604052508101906104989190610927565b503373ffffffffffffffffffffffffffffffffffffffff166108fc829081150290604051600060405180830381858888f193505050501580156104df573d6000803e3d6000fd5b507f697c42d55a5e1fed3f464ec6f38b32546a0bd368dc8068b065c67566d73f329033600160009054906101000a900473ffffffffffffffffffffffffffffffffffffffff16846003546040516105399493929190610b01565b60405180910390a15050565b600160009054906101000a900473ffffffffffffffffffffffffffffffffffffffff1681565b600260009054906101000a900473ffffffffffffffffffffffffffffffffffffffff1681565b60035481565b6000600354346105a79190610caf565b905080600160009054906101000a900473ffffffffffffffffffffffffffffffffffffffff1673ffffffffffffffffffffffffffffffffffffffff166370a08231306040518263ffffffff1660e01b81526004016106059190610aaf565b60206040518083038186803b15801561061d57600080fd5b505afa158015610631573d6000803e3d6000fd5b505050506040513d601f19601f820116820180604052508101906106559190610981565b1015610696576040517f08c379a000000000000000000000000000000000000000000000000000000000815260040161068d90610c07565b60405180910390fd5b600160009054906101000a900473ffffffffffffffffffffffffffffffffffffffff1673ffffffffffffffffffffffffffffffffffffffff1663a9059cbb33836040518363ffffffff1660e01b81526004016106f3929190610b46565b602060405180830381600087803b15801561070d57600080fd5b505af1158015610721573d6000803e3d6000fd5b505050506040513d601f19601f820116820180604052508101906107459190610927565b507f6faf93231a456e552dbc9961f58d9713ee4f2e69d15f1975b050ef0911053a7b33600160009054906101000a900473ffffffffffffffffffffffffffffffffffffffff168360035460405161079f9493929190610b01565b60405180910390a150565b6000829050818173ffffffffffffffffffffffffffffffffffffffff166370a08231336040518263ffffffff1660e01b81526004016107e99190610aaf565b60206040518083038186803b15801561080157600080fd5b505afa158015610815573d6000803e3d6000fd5b505050506040513d601f19601f820116820180604052508101906108399190610981565b111561087a576040517f08c379a000000000000000000000000000000000000000000000000000000000815260040161087190610c27565b60405180910390fd5b50505050565b60008135905061088f81610f91565b92915050565b6000815190506108a481610fa8565b92915050565b6000813590506108b981610fbf565b92915050565b6000815190506108ce81610fbf565b92915050565b6000806000606084860312156108ed576108ec610e8b565b5b60006108fb86828701610880565b935050602061090c86828701610880565b925050604061091d868287016108aa565b9150509250925092565b60006020828403121561093d5761093c610e8b565b5b600061094b84828501610895565b91505092915050565b60006020828403121561096a57610969610e8b565b5b6000610978848285016108aa565b91505092915050565b60006020828403121561099757610996610e8b565b5b60006109a5848285016108bf565b91505092915050565b6109b781610d09565b82525050565b6109c681610d51565b82525050565b6109d581610d63565b82525050565b60006109e682610c62565b6109f08185610c6d565b9350610a00818560208601610d99565b610a0981610e90565b840191505092915050565b6000610a21603783610c6d565b9150610a2c82610ea1565b604082019050919050565b6000610a44603483610c6d565b9150610a4f82610ef0565b604082019050919050565b6000610a67601f83610c6d565b9150610a7282610f3f565b602082019050919050565b6000610a8a601883610c6d565b9150610a9582610f68565b602082019050919050565b610aa981610d47565b82525050565b6000602082019050610ac460008301846109ae565b92915050565b6000606082019050610adf60008301866109ae565b610aec60208301856109ae565b610af96040830184610aa0565b949350505050565b6000608082019050610b1660008301876109ae565b610b2360208301866109ae565b610b306040830185610aa0565b610b3d6060830184610aa0565b95945050505050565b6000604082019050610b5b60008301856109ae565b610b686020830184610aa0565b9392505050565b6000602082019050610b8460008301846109bd565b92915050565b6000602082019050610b9f60008301846109cc565b92915050565b60006020820190508181036000830152610bbf81846109db565b905092915050565b60006020820190508181036000830152610be081610a14565b9050919050565b60006020820190508181036000830152610c0081610a37565b9050919050565b60006020820190508181036000830152610c2081610a5a565b9050919050565b60006020820190508181036000830152610c4081610a7d565b9050919050565b6000602082019050610c5c6000830184610aa0565b92915050565b600081519050919050565b600082825260208201905092915050565b6000610c8982610d47565b9150610c9483610d47565b925082610ca457610ca3610e2d565b5b828204905092915050565b6000610cba82610d47565b9150610cc583610d47565b9250817fffffffffffffffffffffffffffffffffffffffffffffffffffffffffffffffff0483118215151615610cfe57610cfd610dfe565b5b828202905092915050565b6000610d1482610d27565b9050919050565b60008115159050919050565b600073ffffffffffffffffffffffffffffffffffffffff82169050919050565b6000819050919050565b6000610d5c82610d75565b9050919050565b6000610d6e82610d75565b9050919050565b6000610d8082610d87565b9050919050565b6000610d9282610d27565b9050919050565b60005b83811015610db7578082015181840152602081019050610d9c565b83811115610dc6576000848401525b50505050565b60006002820490506001821680610de457607f821691505b60208210811415610df857610df7610e5c565b5b50919050565b7f4e487b7100000000000000000000000000000000000000000000000000000000600052601160045260246000fd5b7f4e487b7100000000000000000000000000000000000000000000000000000000600052601260045260246000fd5b7f4e487b7100000000000000000000000000000000000000000000000000000000600052602260045260246000fd5b600080fd5b6000601f19601f8301169050919050565b7f5377617020636f6e747261637420646f6573206e6f74206861766520656e6f7560008201527f676820617661696c61626c652045544820616d6f756e74000000000000000000602082015250565b7f596f752063616e206e6f742073656c6c206d6f726520746f6b656e732074686160008201527f6e20796f752063757272656e746c7920686f6c64000000000000000000000000602082015250565b7f4e6f7420656e6f75676820435a4820617661696c61626c6520746f2062757900600082015250565b7f4e6f7420656e6f7567682066756e647320746f20737761700000000000000000600082015250565b610f9a81610d09565b8114610fa557600080fd5b50565b610fb181610d1b565b8114610fbc57600080fd5b50565b610fc881610d47565b8114610fd357600080fd5b5056fea26469706673582212205d60e221c818ed9c25ab3a105e372eaa690a6acb23de8d818eb75b86ed6b342864736f6c63430008070033",
					"opcodes": "PUSH1 0x80 PUSH1 0x40 MSTORE PUSH1 0x40 MLOAD DUP1 PUSH1 0x40 ADD PUSH1 0x40 MSTORE DUP1 PUSH1 0x1A DUP2 MSTORE PUSH1 0x20 ADD PUSH32 0x457468207377617020706C6174666F726D20636F6E7472616374000000000000 DUP2 MSTORE POP PUSH1 0x0 SWAP1 DUP1 MLOAD SWAP1 PUSH1 0x20 ADD SWAP1 PUSH3 0x51 SWAP3 SWAP2 SWAP1 PUSH3 0x287 JUMP JUMPDEST POP PUSH1 0x64 PUSH1 0x3 SSTORE PUSH1 0xA PUSH1 0x4 SSTORE CALLVALUE DUP1 ISZERO PUSH3 0x69 JUMPI PUSH1 0x0 DUP1 REVERT JUMPDEST POP PUSH1 0x40 MLOAD PUSH3 0x155D CODESIZE SUB DUP1 PUSH3 0x155D DUP4 CODECOPY DUP2 DUP2 ADD PUSH1 0x40 MSTORE DUP2 ADD SWAP1 PUSH3 0x8F SWAP2 SWAP1 PUSH3 0x37C JUMP JUMPDEST DUP2 PUSH1 0x1 PUSH1 0x0 PUSH2 0x100 EXP DUP2 SLOAD DUP2 PUSH20 0xFFFFFFFFFFFFFFFFFFFFFFFFFFFFFFFFFFFFFFFF MUL NOT AND SWAP1 DUP4 PUSH20 0xFFFFFFFFFFFFFFFFFFFFFFFFFFFFFFFFFFFFFFFF AND MUL OR SWAP1 SSTORE POP DUP1 PUSH1 0x2 PUSH1 0x0 PUSH2 0x100 EXP DUP2 SLOAD DUP2 PUSH20 0xFFFFFFFFFFFFFFFFFFFFFFFFFFFFFFFFFFFFFFFF MUL NOT AND SWAP1 DUP4 PUSH20 0xFFFFFFFFFFFFFFFFFFFFFFFFFFFFFFFFFFFFFFFF AND MUL OR SWAP1 SSTORE POP PUSH1 0x1 PUSH1 0x0 SWAP1 SLOAD SWAP1 PUSH2 0x100 EXP SWAP1 DIV PUSH20 0xFFFFFFFFFFFFFFFFFFFFFFFFFFFFFFFFFFFFFFFF AND PUSH20 0xFFFFFFFFFFFFFFFFFFFFFFFFFFFFFFFFFFFFFFFF AND PUSH4 0x70A08231 ADDRESS PUSH1 0x40 MLOAD DUP3 PUSH4 0xFFFFFFFF AND PUSH1 0xE0 SHL DUP2 MSTORE PUSH1 0x4 ADD PUSH3 0x16E SWAP2 SWAP1 PUSH3 0x406 JUMP JUMPDEST PUSH1 0x20 PUSH1 0x40 MLOAD DUP1 DUP4 SUB DUP2 DUP7 DUP1 EXTCODESIZE ISZERO DUP1 ISZERO PUSH3 0x187 JUMPI PUSH1 0x0 DUP1 REVERT JUMPDEST POP GAS STATICCALL ISZERO DUP1 ISZERO PUSH3 0x19C JUMPI RETURNDATASIZE PUSH1 0x0 DUP1 RETURNDATACOPY RETURNDATASIZE PUSH1 0x0 REVERT JUMPDEST POP POP POP POP PUSH1 0x40 MLOAD RETURNDATASIZE PUSH1 0x1F NOT PUSH1 0x1F DUP3 ADD AND DUP3 ADD DUP1 PUSH1 0x40 MSTORE POP DUP2 ADD SWAP1 PUSH3 0x1C2 SWAP2 SWAP1 PUSH3 0x3C3 JUMP JUMPDEST PUSH1 0x5 DUP2 SWAP1 SSTORE POP PUSH1 0x2 PUSH1 0x0 SWAP1 SLOAD SWAP1 PUSH2 0x100 EXP SWAP1 DIV PUSH20 0xFFFFFFFFFFFFFFFFFFFFFFFFFFFFFFFFFFFFFFFF AND PUSH20 0xFFFFFFFFFFFFFFFFFFFFFFFFFFFFFFFFFFFFFFFF AND PUSH4 0x70A08231 ADDRESS PUSH1 0x40 MLOAD DUP3 PUSH4 0xFFFFFFFF AND PUSH1 0xE0 SHL DUP2 MSTORE PUSH1 0x4 ADD PUSH3 0x225 SWAP2 SWAP1 PUSH3 0x406 JUMP JUMPDEST PUSH1 0x20 PUSH1 0x40 MLOAD DUP1 DUP4 SUB DUP2 DUP7 DUP1 EXTCODESIZE ISZERO DUP1 ISZERO PUSH3 0x23E JUMPI PUSH1 0x0 DUP1 REVERT JUMPDEST POP GAS STATICCALL ISZERO DUP1 ISZERO PUSH3 0x253 JUMPI RETURNDATASIZE PUSH1 0x0 DUP1 RETURNDATACOPY RETURNDATASIZE PUSH1 0x0 REVERT JUMPDEST POP POP POP POP PUSH1 0x40 MLOAD RETURNDATASIZE PUSH1 0x1F NOT PUSH1 0x1F DUP3 ADD AND DUP3 ADD DUP1 PUSH1 0x40 MSTORE POP DUP2 ADD SWAP1 PUSH3 0x279 SWAP2 SWAP1 PUSH3 0x3C3 JUMP JUMPDEST PUSH1 0x6 DUP2 SWAP1 SSTORE POP POP POP PUSH3 0x541 JUMP JUMPDEST DUP3 DUP1 SLOAD PUSH3 0x295 SWAP1 PUSH3 0x489 JUMP JUMPDEST SWAP1 PUSH1 0x0 MSTORE PUSH1 0x20 PUSH1 0x0 KECCAK256 SWAP1 PUSH1 0x1F ADD PUSH1 0x20 SWAP1 DIV DUP2 ADD SWAP3 DUP3 PUSH3 0x2B9 JUMPI PUSH1 0x0 DUP6 SSTORE PUSH3 0x305 JUMP JUMPDEST DUP3 PUSH1 0x1F LT PUSH3 0x2D4 JUMPI DUP1 MLOAD PUSH1 0xFF NOT AND DUP4 DUP1 ADD OR DUP6 SSTORE PUSH3 0x305 JUMP JUMPDEST DUP3 DUP1 ADD PUSH1 0x1 ADD DUP6 SSTORE DUP3 ISZERO PUSH3 0x305 JUMPI SWAP2 DUP3 ADD JUMPDEST DUP3 DUP2 GT ISZERO PUSH3 0x304 JUMPI DUP3 MLOAD DUP3 SSTORE SWAP2 PUSH1 0x20 ADD SWAP2 SWAP1 PUSH1 0x1 ADD SWAP1 PUSH3 0x2E7 JUMP JUMPDEST JUMPDEST POP SWAP1 POP PUSH3 0x314 SWAP2 SWAP1 PUSH3 0x318 JUMP JUMPDEST POP SWAP1 JUMP JUMPDEST JUMPDEST DUP1 DUP3 GT ISZERO PUSH3 0x333 JUMPI PUSH1 0x0 DUP2 PUSH1 0x0 SWAP1 SSTORE POP PUSH1 0x1 ADD PUSH3 0x319 JUMP JUMPDEST POP SWAP1 JUMP JUMPDEST PUSH1 0x0 DUP2 MLOAD SWAP1 POP PUSH3 0x348 DUP2 PUSH3 0x4F3 JUMP JUMPDEST SWAP3 SWAP2 POP POP JUMP JUMPDEST PUSH1 0x0 DUP2 MLOAD SWAP1 POP PUSH3 0x35F DUP2 PUSH3 0x50D JUMP JUMPDEST SWAP3 SWAP2 POP POP JUMP JUMPDEST PUSH1 0x0 DUP2 MLOAD SWAP1 POP PUSH3 0x376 DUP2 PUSH3 0x527 JUMP JUMPDEST SWAP3 SWAP2 POP POP JUMP JUMPDEST PUSH1 0x0 DUP1 PUSH1 0x40 DUP4 DUP6 SUB SLT ISZERO PUSH3 0x396 JUMPI PUSH3 0x395 PUSH3 0x4EE JUMP JUMPDEST JUMPDEST PUSH1 0x0 PUSH3 0x3A6 DUP6 DUP3 DUP7 ADD PUSH3 0x337 JUMP JUMPDEST SWAP3 POP POP PUSH1 0x20 PUSH3 0x3B9 DUP6 DUP3 DUP7 ADD PUSH3 0x34E JUMP JUMPDEST SWAP2 POP POP SWAP3 POP SWAP3 SWAP1 POP JUMP JUMPDEST PUSH1 0x0 PUSH1 0x20 DUP3 DUP5 SUB SLT ISZERO PUSH3 0x3DC JUMPI PUSH3 0x3DB PUSH3 0x4EE JUMP JUMPDEST JUMPDEST PUSH1 0x0 PUSH3 0x3EC DUP5 DUP3 DUP6 ADD PUSH3 0x365 JUMP JUMPDEST SWAP2 POP POP SWAP3 SWAP2 POP POP JUMP JUMPDEST PUSH3 0x400 DUP2 PUSH3 0x423 JUMP JUMPDEST DUP3 MSTORE POP POP JUMP JUMPDEST PUSH1 0x0 PUSH1 0x20 DUP3 ADD SWAP1 POP PUSH3 0x41D PUSH1 0x0 DUP4 ADD DUP5 PUSH3 0x3F5 JUMP JUMPDEST SWAP3 SWAP2 POP POP JUMP JUMPDEST PUSH1 0x0 PUSH3 0x430 DUP3 PUSH3 0x45F JUMP JUMPDEST SWAP1 POP SWAP2 SWAP1 POP JUMP JUMPDEST PUSH1 0x0 PUSH3 0x444 DUP3 PUSH3 0x423 JUMP JUMPDEST SWAP1 POP SWAP2 SWAP1 POP JUMP JUMPDEST PUSH1 0x0 PUSH3 0x458 DUP3 PUSH3 0x423 JUMP JUMPDEST SWAP1 POP SWAP2 SWAP1 POP JUMP JUMPDEST PUSH1 0x0 PUSH20 0xFFFFFFFFFFFFFFFFFFFFFFFFFFFFFFFFFFFFFFFF DUP3 AND SWAP1 POP SWAP2 SWAP1 POP JUMP JUMPDEST PUSH1 0x0 DUP2 SWAP1 POP SWAP2 SWAP1 POP JUMP JUMPDEST PUSH1 0x0 PUSH1 0x2 DUP3 DIV SWAP1 POP PUSH1 0x1 DUP3 AND DUP1 PUSH3 0x4A2 JUMPI PUSH1 0x7F DUP3 AND SWAP2 POP JUMPDEST PUSH1 0x20 DUP3 LT DUP2 EQ ISZERO PUSH3 0x4B9 JUMPI PUSH3 0x4B8 PUSH3 0x4BF JUMP JUMPDEST JUMPDEST POP SWAP2 SWAP1 POP JUMP JUMPDEST PUSH32 0x4E487B7100000000000000000000000000000000000000000000000000000000 PUSH1 0x0 MSTORE PUSH1 0x22 PUSH1 0x4 MSTORE PUSH1 0x24 PUSH1 0x0 REVERT JUMPDEST PUSH1 0x0 DUP1 REVERT JUMPDEST PUSH3 0x4FE DUP2 PUSH3 0x437 JUMP JUMPDEST DUP2 EQ PUSH3 0x50A JUMPI PUSH1 0x0 DUP1 REVERT JUMPDEST POP JUMP JUMPDEST PUSH3 0x518 DUP2 PUSH3 0x44B JUMP JUMPDEST DUP2 EQ PUSH3 0x524 JUMPI PUSH1 0x0 DUP1 REVERT JUMPDEST POP JUMP JUMPDEST PUSH3 0x532 DUP2 PUSH3 0x47F JUMP JUMPDEST DUP2 EQ PUSH3 0x53E JUMPI PUSH1 0x0 DUP1 REVERT JUMPDEST POP JUMP JUMPDEST PUSH2 0x100C DUP1 PUSH3 0x551 PUSH1 0x0 CODECOPY PUSH1 0x0 RETURN INVALID PUSH1 0x80 PUSH1 0x40 MSTORE PUSH1 0x4 CALLDATASIZE LT PUSH2 0x91 JUMPI PUSH1 0x0 CALLDATALOAD PUSH1 0xE0 SHR DUP1 PUSH4 0x7CC1478A GT PUSH2 0x59 JUMPI DUP1 PUSH4 0x7CC1478A EQ PUSH2 0x15E JUMPI DUP1 PUSH4 0x848D82EB EQ PUSH2 0x189 JUMPI DUP1 PUSH4 0xA1E18E1A EQ PUSH2 0x1B4 JUMPI DUP1 PUSH4 0xD0FEBE4C EQ PUSH2 0x1DF JUMPI DUP1 PUSH4 0xEC6CC0CC EQ PUSH2 0x1E9 JUMPI PUSH2 0x91 JUMP JUMPDEST DUP1 PUSH4 0x6FDDE03 EQ PUSH2 0x96 JUMPI DUP1 PUSH4 0x1739FEF0 EQ PUSH2 0xC1 JUMPI DUP1 PUSH4 0x3AA6F8FA EQ PUSH2 0xEC JUMPI DUP1 PUSH4 0x662B1AF6 EQ PUSH2 0x117 JUMPI DUP1 PUSH4 0x6C11BCD3 EQ PUSH2 0x142 JUMPI JUMPDEST PUSH1 0x0 DUP1 REVERT JUMPDEST CALLVALUE DUP1 ISZERO PUSH2 0xA2 JUMPI PUSH1 0x0 DUP1 REVERT JUMPDEST POP PUSH2 0xAB PUSH2 0x205 JUMP JUMPDEST PUSH1 0x40 MLOAD PUSH2 0xB8 SWAP2 SWAP1 PUSH2 0xBA5 JUMP JUMPDEST PUSH1 0x40 MLOAD DUP1 SWAP2 SUB SWAP1 RETURN JUMPDEST CALLVALUE DUP1 ISZERO PUSH2 0xCD JUMPI PUSH1 0x0 DUP1 REVERT JUMPDEST POP PUSH2 0xD6 PUSH2 0x293 JUMP JUMPDEST PUSH1 0x40 MLOAD PUSH2 0xE3 SWAP2 SWAP1 PUSH2 0xC47 JUMP JUMPDEST PUSH1 0x40 MLOAD DUP1 SWAP2 SUB SWAP1 RETURN JUMPDEST CALLVALUE DUP1 ISZERO PUSH2 0xF8 JUMPI PUSH1 0x0 DUP1 REVERT JUMPDEST POP PUSH2 0x101 PUSH2 0x299 JUMP JUMPDEST PUSH1 0x40 MLOAD PUSH2 0x10E SWAP2 SWAP1 PUSH2 0xC47 JUMP JUMPDEST PUSH1 0x40 MLOAD DUP1 SWAP2 SUB SWAP1 RETURN JUMPDEST CALLVALUE DUP1 ISZERO PUSH2 0x123 JUMPI PUSH1 0x0 DUP1 REVERT JUMPDEST POP PUSH2 0x12C PUSH2 0x29F JUMP JUMPDEST PUSH1 0x40 MLOAD PUSH2 0x139 SWAP2 SWAP1 PUSH2 0xC47 JUMP JUMPDEST PUSH1 0x40 MLOAD DUP1 SWAP2 SUB SWAP1 RETURN JUMPDEST PUSH2 0x15C PUSH1 0x4 DUP1 CALLDATASIZE SUB DUP2 ADD SWAP1 PUSH2 0x157 SWAP2 SWAP1 PUSH2 0x954 JUMP JUMPDEST PUSH2 0x2A5 JUMP JUMPDEST STOP JUMPDEST CALLVALUE DUP1 ISZERO PUSH2 0x16A JUMPI PUSH1 0x0 DUP1 REVERT JUMPDEST POP PUSH2 0x173 PUSH2 0x545 JUMP JUMPDEST PUSH1 0x40 MLOAD PUSH2 0x180 SWAP2 SWAP1 PUSH2 0xB6F JUMP JUMPDEST PUSH1 0x40 MLOAD DUP1 SWAP2 SUB SWAP1 RETURN JUMPDEST CALLVALUE DUP1 ISZERO PUSH2 0x195 JUMPI PUSH1 0x0 DUP1 REVERT JUMPDEST POP PUSH2 0x19E PUSH2 0x56B JUMP JUMPDEST PUSH1 0x40 MLOAD PUSH2 0x1AB SWAP2 SWAP1 PUSH2 0xB8A JUMP JUMPDEST PUSH1 0x40 MLOAD DUP1 SWAP2 SUB SWAP1 RETURN JUMPDEST CALLVALUE DUP1 ISZERO PUSH2 0x1C0 JUMPI PUSH1 0x0 DUP1 REVERT JUMPDEST POP PUSH2 0x1C9 PUSH2 0x591 JUMP JUMPDEST PUSH1 0x40 MLOAD PUSH2 0x1D6 SWAP2 SWAP1 PUSH2 0xC47 JUMP JUMPDEST PUSH1 0x40 MLOAD DUP1 SWAP2 SUB SWAP1 RETURN JUMPDEST PUSH2 0x1E7 PUSH2 0x597 JUMP JUMPDEST STOP JUMPDEST PUSH2 0x203 PUSH1 0x4 DUP1 CALLDATASIZE SUB DUP2 ADD SWAP1 PUSH2 0x1FE SWAP2 SWAP1 PUSH2 0x8D4 JUMP JUMPDEST PUSH2 0x7AA JUMP JUMPDEST STOP JUMPDEST PUSH1 0x0 DUP1 SLOAD PUSH2 0x212 SWAP1 PUSH2 0xDCC JUMP JUMPDEST DUP1 PUSH1 0x1F ADD PUSH1 0x20 DUP1 SWAP2 DIV MUL PUSH1 0x20 ADD PUSH1 0x40 MLOAD SWAP1 DUP2 ADD PUSH1 0x40 MSTORE DUP1 SWAP3 SWAP2 SWAP1 DUP2 DUP2 MSTORE PUSH1 0x20 ADD DUP3 DUP1 SLOAD PUSH2 0x23E SWAP1 PUSH2 0xDCC JUMP JUMPDEST DUP1 ISZERO PUSH2 0x28B JUMPI DUP1 PUSH1 0x1F LT PUSH2 0x260 JUMPI PUSH2 0x100 DUP1 DUP4 SLOAD DIV MUL DUP4 MSTORE SWAP2 PUSH1 0x20 ADD SWAP2 PUSH2 0x28B JUMP JUMPDEST DUP3 ADD SWAP2 SWAP1 PUSH1 0x0 MSTORE PUSH1 0x20 PUSH1 0x0 KECCAK256 SWAP1 JUMPDEST DUP2 SLOAD DUP2 MSTORE SWAP1 PUSH1 0x1 ADD SWAP1 PUSH1 0x20 ADD DUP1 DUP4 GT PUSH2 0x26E JUMPI DUP3 SWAP1 SUB PUSH1 0x1F AND DUP3 ADD SWAP2 JUMPDEST POP POP POP POP POP DUP2 JUMP JUMPDEST PUSH1 0x4 SLOAD DUP2 JUMP JUMPDEST PUSH1 0x5 SLOAD DUP2 JUMP JUMPDEST PUSH1 0x6 SLOAD DUP2 JUMP JUMPDEST DUP1 PUSH1 0x1 PUSH1 0x0 SWAP1 SLOAD SWAP1 PUSH2 0x100 EXP SWAP1 DIV PUSH20 0xFFFFFFFFFFFFFFFFFFFFFFFFFFFFFFFFFFFFFFFF AND PUSH20 0xFFFFFFFFFFFFFFFFFFFFFFFFFFFFFFFFFFFFFFFF AND PUSH4 0x70A08231 CALLER PUSH1 0x40 MLOAD DUP3 PUSH4 0xFFFFFFFF AND PUSH1 0xE0 SHL DUP2 MSTORE PUSH1 0x4 ADD PUSH2 0x301 SWAP2 SWAP1 PUSH2 0xAAF JUMP JUMPDEST PUSH1 0x20 PUSH1 0x40 MLOAD DUP1 DUP4 SUB DUP2 DUP7 DUP1 EXTCODESIZE ISZERO DUP1 ISZERO PUSH2 0x319 JUMPI PUSH1 0x0 DUP1 REVERT JUMPDEST POP GAS STATICCALL ISZERO DUP1 ISZERO PUSH2 0x32D JUMPI RETURNDATASIZE PUSH1 0x0 DUP1 RETURNDATACOPY RETURNDATASIZE PUSH1 0x0 REVERT JUMPDEST POP POP POP POP PUSH1 0x40 MLOAD RETURNDATASIZE PUSH1 0x1F NOT PUSH1 0x1F DUP3 ADD AND DUP3 ADD DUP1 PUSH1 0x40 MSTORE POP DUP2 ADD SWAP1 PUSH2 0x351 SWAP2 SWAP1 PUSH2 0x981 JUMP JUMPDEST LT ISZERO PUSH2 0x392 JUMPI PUSH1 0x40 MLOAD PUSH32 0x8C379A000000000000000000000000000000000000000000000000000000000 DUP2 MSTORE PUSH1 0x4 ADD PUSH2 0x389 SWAP1 PUSH2 0xBE7 JUMP JUMPDEST PUSH1 0x40 MLOAD DUP1 SWAP2 SUB SWAP1 REVERT JUMPDEST PUSH1 0x0 PUSH1 0x3 SLOAD DUP3 PUSH2 0x3A2 SWAP2 SWAP1 PUSH2 0xC7E JUMP JUMPDEST SWAP1 POP DUP1 SELFBALANCE LT ISZERO PUSH2 0x3E7 JUMPI PUSH1 0x40 MLOAD PUSH32 0x8C379A000000000000000000000000000000000000000000000000000000000 DUP2 MSTORE PUSH1 0x4 ADD PUSH2 0x3DE SWAP1 PUSH2 0xBC7 JUMP JUMPDEST PUSH1 0x40 MLOAD DUP1 SWAP2 SUB SWAP1 REVERT JUMPDEST PUSH1 0x1 PUSH1 0x0 SWAP1 SLOAD SWAP1 PUSH2 0x100 EXP SWAP1 DIV PUSH20 0xFFFFFFFFFFFFFFFFFFFFFFFFFFFFFFFFFFFFFFFF AND PUSH20 0xFFFFFFFFFFFFFFFFFFFFFFFFFFFFFFFFFFFFFFFF AND PUSH4 0x23B872DD CALLER ADDRESS DUP6 PUSH1 0x40 MLOAD DUP5 PUSH4 0xFFFFFFFF AND PUSH1 0xE0 SHL DUP2 MSTORE PUSH1 0x4 ADD PUSH2 0x446 SWAP4 SWAP3 SWAP2 SWAP1 PUSH2 0xACA JUMP JUMPDEST PUSH1 0x20 PUSH1 0x40 MLOAD DUP1 DUP4 SUB DUP2 PUSH1 0x0 DUP8 DUP1 EXTCODESIZE ISZERO DUP1 ISZERO PUSH2 0x460 JUMPI PUSH1 0x0 DUP1 REVERT JUMPDEST POP GAS CALL ISZERO DUP1 ISZERO PUSH2 0x474 JUMPI RETURNDATASIZE PUSH1 0x0 DUP1 RETURNDATACOPY RETURNDATASIZE PUSH1 0x0 REVERT JUMPDEST POP POP POP POP PUSH1 0x40 MLOAD RETURNDATASIZE PUSH1 0x1F NOT PUSH1 0x1F DUP3 ADD AND DUP3 ADD DUP1 PUSH1 0x40 MSTORE POP DUP2 ADD SWAP1 PUSH2 0x498 SWAP2 SWAP1 PUSH2 0x927 JUMP JUMPDEST POP CALLER PUSH20 0xFFFFFFFFFFFFFFFFFFFFFFFFFFFFFFFFFFFFFFFF AND PUSH2 0x8FC DUP3 SWAP1 DUP2 ISZERO MUL SWAP1 PUSH1 0x40 MLOAD PUSH1 0x0 PUSH1 0x40 MLOAD DUP1 DUP4 SUB DUP2 DUP6 DUP9 DUP9 CALL SWAP4 POP POP POP POP ISZERO DUP1 ISZERO PUSH2 0x4DF JUMPI RETURNDATASIZE PUSH1 0x0 DUP1 RETURNDATACOPY RETURNDATASIZE PUSH1 0x0 REVERT JUMPDEST POP PUSH32 0x697C42D55A5E1FED3F464EC6F38B32546A0BD368DC8068B065C67566D73F3290 CALLER PUSH1 0x1 PUSH1 0x0 SWAP1 SLOAD SWAP1 PUSH2 0x100 EXP SWAP1 DIV PUSH20 0xFFFFFFFFFFFFFFFFFFFFFFFFFFFFFFFFFFFFFFFF AND DUP5 PUSH1 0x3 SLOAD PUSH1 0x40 MLOAD PUSH2 0x539 SWAP5 SWAP4 SWAP3 SWAP2 SWAP1 PUSH2 0xB01 JUMP JUMPDEST PUSH1 0x40 MLOAD DUP1 SWAP2 SUB SWAP1 LOG1 POP POP JUMP JUMPDEST PUSH1 0x1 PUSH1 0x0 SWAP1 SLOAD SWAP1 PUSH2 0x100 EXP SWAP1 DIV PUSH20 0xFFFFFFFFFFFFFFFFFFFFFFFFFFFFFFFFFFFFFFFF AND DUP2 JUMP JUMPDEST PUSH1 0x2 PUSH1 0x0 SWAP1 SLOAD SWAP1 PUSH2 0x100 EXP SWAP1 DIV PUSH20 0xFFFFFFFFFFFFFFFFFFFFFFFFFFFFFFFFFFFFFFFF AND DUP2 JUMP JUMPDEST PUSH1 0x3 SLOAD DUP2 JUMP JUMPDEST PUSH1 0x0 PUSH1 0x3 SLOAD CALLVALUE PUSH2 0x5A7 SWAP2 SWAP1 PUSH2 0xCAF JUMP JUMPDEST SWAP1 POP DUP1 PUSH1 0x1 PUSH1 0x0 SWAP1 SLOAD SWAP1 PUSH2 0x100 EXP SWAP1 DIV PUSH20 0xFFFFFFFFFFFFFFFFFFFFFFFFFFFFFFFFFFFFFFFF AND PUSH20 0xFFFFFFFFFFFFFFFFFFFFFFFFFFFFFFFFFFFFFFFF AND PUSH4 0x70A08231 ADDRESS PUSH1 0x40 MLOAD DUP3 PUSH4 0xFFFFFFFF AND PUSH1 0xE0 SHL DUP2 MSTORE PUSH1 0x4 ADD PUSH2 0x605 SWAP2 SWAP1 PUSH2 0xAAF JUMP JUMPDEST PUSH1 0x20 PUSH1 0x40 MLOAD DUP1 DUP4 SUB DUP2 DUP7 DUP1 EXTCODESIZE ISZERO DUP1 ISZERO PUSH2 0x61D JUMPI PUSH1 0x0 DUP1 REVERT JUMPDEST POP GAS STATICCALL ISZERO DUP1 ISZERO PUSH2 0x631 JUMPI RETURNDATASIZE PUSH1 0x0 DUP1 RETURNDATACOPY RETURNDATASIZE PUSH1 0x0 REVERT JUMPDEST POP POP POP POP PUSH1 0x40 MLOAD RETURNDATASIZE PUSH1 0x1F NOT PUSH1 0x1F DUP3 ADD AND DUP3 ADD DUP1 PUSH1 0x40 MSTORE POP DUP2 ADD SWAP1 PUSH2 0x655 SWAP2 SWAP1 PUSH2 0x981 JUMP JUMPDEST LT ISZERO PUSH2 0x696 JUMPI PUSH1 0x40 MLOAD PUSH32 0x8C379A000000000000000000000000000000000000000000000000000000000 DUP2 MSTORE PUSH1 0x4 ADD PUSH2 0x68D SWAP1 PUSH2 0xC07 JUMP JUMPDEST PUSH1 0x40 MLOAD DUP1 SWAP2 SUB SWAP1 REVERT JUMPDEST PUSH1 0x1 PUSH1 0x0 SWAP1 SLOAD SWAP1 PUSH2 0x100 EXP SWAP1 DIV PUSH20 0xFFFFFFFFFFFFFFFFFFFFFFFFFFFFFFFFFFFFFFFF AND PUSH20 0xFFFFFFFFFFFFFFFFFFFFFFFFFFFFFFFFFFFFFFFF AND PUSH4 0xA9059CBB CALLER DUP4 PUSH1 0x40 MLOAD DUP4 PUSH4 0xFFFFFFFF AND PUSH1 0xE0 SHL DUP2 MSTORE PUSH1 0x4 ADD PUSH2 0x6F3 SWAP3 SWAP2 SWAP1 PUSH2 0xB46 JUMP JUMPDEST PUSH1 0x20 PUSH1 0x40 MLOAD DUP1 DUP4 SUB DUP2 PUSH1 0x0 DUP8 DUP1 EXTCODESIZE ISZERO DUP1 ISZERO PUSH2 0x70D JUMPI PUSH1 0x0 DUP1 REVERT JUMPDEST POP GAS CALL ISZERO DUP1 ISZERO PUSH2 0x721 JUMPI RETURNDATASIZE PUSH1 0x0 DUP1 RETURNDATACOPY RETURNDATASIZE PUSH1 0x0 REVERT JUMPDEST POP POP POP POP PUSH1 0x40 MLOAD RETURNDATASIZE PUSH1 0x1F NOT PUSH1 0x1F DUP3 ADD AND DUP3 ADD DUP1 PUSH1 0x40 MSTORE POP DUP2 ADD SWAP1 PUSH2 0x745 SWAP2 SWAP1 PUSH2 0x927 JUMP JUMPDEST POP PUSH32 0x6FAF93231A456E552DBC9961F58D9713EE4F2E69D15F1975B050EF0911053A7B CALLER PUSH1 0x1 PUSH1 0x0 SWAP1 SLOAD SWAP1 PUSH2 0x100 EXP SWAP1 DIV PUSH20 0xFFFFFFFFFFFFFFFFFFFFFFFFFFFFFFFFFFFFFFFF AND DUP4 PUSH1 0x3 SLOAD PUSH1 0x40 MLOAD PUSH2 0x79F SWAP5 SWAP4 SWAP3 SWAP2 SWAP1 PUSH2 0xB01 JUMP JUMPDEST PUSH1 0x40 MLOAD DUP1 SWAP2 SUB SWAP1 LOG1 POP JUMP JUMPDEST PUSH1 0x0 DUP3 SWAP1 POP DUP2 DUP2 PUSH20 0xFFFFFFFFFFFFFFFFFFFFFFFFFFFFFFFFFFFFFFFF AND PUSH4 0x70A08231 CALLER PUSH1 0x40 MLOAD DUP3 PUSH4 0xFFFFFFFF AND PUSH1 0xE0 SHL DUP2 MSTORE PUSH1 0x4 ADD PUSH2 0x7E9 SWAP2 SWAP1 PUSH2 0xAAF JUMP JUMPDEST PUSH1 0x20 PUSH1 0x40 MLOAD DUP1 DUP4 SUB DUP2 DUP7 DUP1 EXTCODESIZE ISZERO DUP1 ISZERO PUSH2 0x801 JUMPI PUSH1 0x0 DUP1 REVERT JUMPDEST POP GAS STATICCALL ISZERO DUP1 ISZERO PUSH2 0x815 JUMPI RETURNDATASIZE PUSH1 0x0 DUP1 RETURNDATACOPY RETURNDATASIZE PUSH1 0x0 REVERT JUMPDEST POP POP POP POP PUSH1 0x40 MLOAD RETURNDATASIZE PUSH1 0x1F NOT PUSH1 0x1F DUP3 ADD AND DUP3 ADD DUP1 PUSH1 0x40 MSTORE POP DUP2 ADD SWAP1 PUSH2 0x839 SWAP2 SWAP1 PUSH2 0x981 JUMP JUMPDEST GT ISZERO PUSH2 0x87A JUMPI PUSH1 0x40 MLOAD PUSH32 0x8C379A000000000000000000000000000000000000000000000000000000000 DUP2 MSTORE PUSH1 0x4 ADD PUSH2 0x871 SWAP1 PUSH2 0xC27 JUMP JUMPDEST PUSH1 0x40 MLOAD DUP1 SWAP2 SUB SWAP1 REVERT JUMPDEST POP POP POP POP JUMP JUMPDEST PUSH1 0x0 DUP2 CALLDATALOAD SWAP1 POP PUSH2 0x88F DUP2 PUSH2 0xF91 JUMP JUMPDEST SWAP3 SWAP2 POP POP JUMP JUMPDEST PUSH1 0x0 DUP2 MLOAD SWAP1 POP PUSH2 0x8A4 DUP2 PUSH2 0xFA8 JUMP JUMPDEST SWAP3 SWAP2 POP POP JUMP JUMPDEST PUSH1 0x0 DUP2 CALLDATALOAD SWAP1 POP PUSH2 0x8B9 DUP2 PUSH2 0xFBF JUMP JUMPDEST SWAP3 SWAP2 POP POP JUMP JUMPDEST PUSH1 0x0 DUP2 MLOAD SWAP1 POP PUSH2 0x8CE DUP2 PUSH2 0xFBF JUMP JUMPDEST SWAP3 SWAP2 POP POP JUMP JUMPDEST PUSH1 0x0 DUP1 PUSH1 0x0 PUSH1 0x60 DUP5 DUP7 SUB SLT ISZERO PUSH2 0x8ED JUMPI PUSH2 0x8EC PUSH2 0xE8B JUMP JUMPDEST JUMPDEST PUSH1 0x0 PUSH2 0x8FB DUP7 DUP3 DUP8 ADD PUSH2 0x880 JUMP JUMPDEST SWAP4 POP POP PUSH1 0x20 PUSH2 0x90C DUP7 DUP3 DUP8 ADD PUSH2 0x880 JUMP JUMPDEST SWAP3 POP POP PUSH1 0x40 PUSH2 0x91D DUP7 DUP3 DUP8 ADD PUSH2 0x8AA JUMP JUMPDEST SWAP2 POP POP SWAP3 POP SWAP3 POP SWAP3 JUMP JUMPDEST PUSH1 0x0 PUSH1 0x20 DUP3 DUP5 SUB SLT ISZERO PUSH2 0x93D JUMPI PUSH2 0x93C PUSH2 0xE8B JUMP JUMPDEST JUMPDEST PUSH1 0x0 PUSH2 0x94B DUP5 DUP3 DUP6 ADD PUSH2 0x895 JUMP JUMPDEST SWAP2 POP POP SWAP3 SWAP2 POP POP JUMP JUMPDEST PUSH1 0x0 PUSH1 0x20 DUP3 DUP5 SUB SLT ISZERO PUSH2 0x96A JUMPI PUSH2 0x969 PUSH2 0xE8B JUMP JUMPDEST JUMPDEST PUSH1 0x0 PUSH2 0x978 DUP5 DUP3 DUP6 ADD PUSH2 0x8AA JUMP JUMPDEST SWAP2 POP POP SWAP3 SWAP2 POP POP JUMP JUMPDEST PUSH1 0x0 PUSH1 0x20 DUP3 DUP5 SUB SLT ISZERO PUSH2 0x997 JUMPI PUSH2 0x996 PUSH2 0xE8B JUMP JUMPDEST JUMPDEST PUSH1 0x0 PUSH2 0x9A5 DUP5 DUP3 DUP6 ADD PUSH2 0x8BF JUMP JUMPDEST SWAP2 POP POP SWAP3 SWAP2 POP POP JUMP JUMPDEST PUSH2 0x9B7 DUP2 PUSH2 0xD09 JUMP JUMPDEST DUP3 MSTORE POP POP JUMP JUMPDEST PUSH2 0x9C6 DUP2 PUSH2 0xD51 JUMP JUMPDEST DUP3 MSTORE POP POP JUMP JUMPDEST PUSH2 0x9D5 DUP2 PUSH2 0xD63 JUMP JUMPDEST DUP3 MSTORE POP POP JUMP JUMPDEST PUSH1 0x0 PUSH2 0x9E6 DUP3 PUSH2 0xC62 JUMP JUMPDEST PUSH2 0x9F0 DUP2 DUP6 PUSH2 0xC6D JUMP JUMPDEST SWAP4 POP PUSH2 0xA00 DUP2 DUP6 PUSH1 0x20 DUP7 ADD PUSH2 0xD99 JUMP JUMPDEST PUSH2 0xA09 DUP2 PUSH2 0xE90 JUMP JUMPDEST DUP5 ADD SWAP2 POP POP SWAP3 SWAP2 POP POP JUMP JUMPDEST PUSH1 0x0 PUSH2 0xA21 PUSH1 0x37 DUP4 PUSH2 0xC6D JUMP JUMPDEST SWAP2 POP PUSH2 0xA2C DUP3 PUSH2 0xEA1 JUMP JUMPDEST PUSH1 0x40 DUP3 ADD SWAP1 POP SWAP2 SWAP1 POP JUMP JUMPDEST PUSH1 0x0 PUSH2 0xA44 PUSH1 0x34 DUP4 PUSH2 0xC6D JUMP JUMPDEST SWAP2 POP PUSH2 0xA4F DUP3 PUSH2 0xEF0 JUMP JUMPDEST PUSH1 0x40 DUP3 ADD SWAP1 POP SWAP2 SWAP1 POP JUMP JUMPDEST PUSH1 0x0 PUSH2 0xA67 PUSH1 0x1F DUP4 PUSH2 0xC6D JUMP JUMPDEST SWAP2 POP PUSH2 0xA72 DUP3 PUSH2 0xF3F JUMP JUMPDEST PUSH1 0x20 DUP3 ADD SWAP1 POP SWAP2 SWAP1 POP JUMP JUMPDEST PUSH1 0x0 PUSH2 0xA8A PUSH1 0x18 DUP4 PUSH2 0xC6D JUMP JUMPDEST SWAP2 POP PUSH2 0xA95 DUP3 PUSH2 0xF68 JUMP JUMPDEST PUSH1 0x20 DUP3 ADD SWAP1 POP SWAP2 SWAP1 POP JUMP JUMPDEST PUSH2 0xAA9 DUP2 PUSH2 0xD47 JUMP JUMPDEST DUP3 MSTORE POP POP JUMP JUMPDEST PUSH1 0x0 PUSH1 0x20 DUP3 ADD SWAP1 POP PUSH2 0xAC4 PUSH1 0x0 DUP4 ADD DUP5 PUSH2 0x9AE JUMP JUMPDEST SWAP3 SWAP2 POP POP JUMP JUMPDEST PUSH1 0x0 PUSH1 0x60 DUP3 ADD SWAP1 POP PUSH2 0xADF PUSH1 0x0 DUP4 ADD DUP7 PUSH2 0x9AE JUMP JUMPDEST PUSH2 0xAEC PUSH1 0x20 DUP4 ADD DUP6 PUSH2 0x9AE JUMP JUMPDEST PUSH2 0xAF9 PUSH1 0x40 DUP4 ADD DUP5 PUSH2 0xAA0 JUMP JUMPDEST SWAP5 SWAP4 POP POP POP POP JUMP JUMPDEST PUSH1 0x0 PUSH1 0x80 DUP3 ADD SWAP1 POP PUSH2 0xB16 PUSH1 0x0 DUP4 ADD DUP8 PUSH2 0x9AE JUMP JUMPDEST PUSH2 0xB23 PUSH1 0x20 DUP4 ADD DUP7 PUSH2 0x9AE JUMP JUMPDEST PUSH2 0xB30 PUSH1 0x40 DUP4 ADD DUP6 PUSH2 0xAA0 JUMP JUMPDEST PUSH2 0xB3D PUSH1 0x60 DUP4 ADD DUP5 PUSH2 0xAA0 JUMP JUMPDEST SWAP6 SWAP5 POP POP POP POP POP JUMP JUMPDEST PUSH1 0x0 PUSH1 0x40 DUP3 ADD SWAP1 POP PUSH2 0xB5B PUSH1 0x0 DUP4 ADD DUP6 PUSH2 0x9AE JUMP JUMPDEST PUSH2 0xB68 PUSH1 0x20 DUP4 ADD DUP5 PUSH2 0xAA0 JUMP JUMPDEST SWAP4 SWAP3 POP POP POP JUMP JUMPDEST PUSH1 0x0 PUSH1 0x20 DUP3 ADD SWAP1 POP PUSH2 0xB84 PUSH1 0x0 DUP4 ADD DUP5 PUSH2 0x9BD JUMP JUMPDEST SWAP3 SWAP2 POP POP JUMP JUMPDEST PUSH1 0x0 PUSH1 0x20 DUP3 ADD SWAP1 POP PUSH2 0xB9F PUSH1 0x0 DUP4 ADD DUP5 PUSH2 0x9CC JUMP JUMPDEST SWAP3 SWAP2 POP POP JUMP JUMPDEST PUSH1 0x0 PUSH1 0x20 DUP3 ADD SWAP1 POP DUP2 DUP2 SUB PUSH1 0x0 DUP4 ADD MSTORE PUSH2 0xBBF DUP2 DUP5 PUSH2 0x9DB JUMP JUMPDEST SWAP1 POP SWAP3 SWAP2 POP POP JUMP JUMPDEST PUSH1 0x0 PUSH1 0x20 DUP3 ADD SWAP1 POP DUP2 DUP2 SUB PUSH1 0x0 DUP4 ADD MSTORE PUSH2 0xBE0 DUP2 PUSH2 0xA14 JUMP JUMPDEST SWAP1 POP SWAP2 SWAP1 POP JUMP JUMPDEST PUSH1 0x0 PUSH1 0x20 DUP3 ADD SWAP1 POP DUP2 DUP2 SUB PUSH1 0x0 DUP4 ADD MSTORE PUSH2 0xC00 DUP2 PUSH2 0xA37 JUMP JUMPDEST SWAP1 POP SWAP2 SWAP1 POP JUMP JUMPDEST PUSH1 0x0 PUSH1 0x20 DUP3 ADD SWAP1 POP DUP2 DUP2 SUB PUSH1 0x0 DUP4 ADD MSTORE PUSH2 0xC20 DUP2 PUSH2 0xA5A JUMP JUMPDEST SWAP1 POP SWAP2 SWAP1 POP JUMP JUMPDEST PUSH1 0x0 PUSH1 0x20 DUP3 ADD SWAP1 POP DUP2 DUP2 SUB PUSH1 0x0 DUP4 ADD MSTORE PUSH2 0xC40 DUP2 PUSH2 0xA7D JUMP JUMPDEST SWAP1 POP SWAP2 SWAP1 POP JUMP JUMPDEST PUSH1 0x0 PUSH1 0x20 DUP3 ADD SWAP1 POP PUSH2 0xC5C PUSH1 0x0 DUP4 ADD DUP5 PUSH2 0xAA0 JUMP JUMPDEST SWAP3 SWAP2 POP POP JUMP JUMPDEST PUSH1 0x0 DUP2 MLOAD SWAP1 POP SWAP2 SWAP1 POP JUMP JUMPDEST PUSH1 0x0 DUP3 DUP3 MSTORE PUSH1 0x20 DUP3 ADD SWAP1 POP SWAP3 SWAP2 POP POP JUMP JUMPDEST PUSH1 0x0 PUSH2 0xC89 DUP3 PUSH2 0xD47 JUMP JUMPDEST SWAP2 POP PUSH2 0xC94 DUP4 PUSH2 0xD47 JUMP JUMPDEST SWAP3 POP DUP3 PUSH2 0xCA4 JUMPI PUSH2 0xCA3 PUSH2 0xE2D JUMP JUMPDEST JUMPDEST DUP3 DUP3 DIV SWAP1 POP SWAP3 SWAP2 POP POP JUMP JUMPDEST PUSH1 0x0 PUSH2 0xCBA DUP3 PUSH2 0xD47 JUMP JUMPDEST SWAP2 POP PUSH2 0xCC5 DUP4 PUSH2 0xD47 JUMP JUMPDEST SWAP3 POP DUP2 PUSH32 0xFFFFFFFFFFFFFFFFFFFFFFFFFFFFFFFFFFFFFFFFFFFFFFFFFFFFFFFFFFFFFFFF DIV DUP4 GT DUP3 ISZERO ISZERO AND ISZERO PUSH2 0xCFE JUMPI PUSH2 0xCFD PUSH2 0xDFE JUMP JUMPDEST JUMPDEST DUP3 DUP3 MUL SWAP1 POP SWAP3 SWAP2 POP POP JUMP JUMPDEST PUSH1 0x0 PUSH2 0xD14 DUP3 PUSH2 0xD27 JUMP JUMPDEST SWAP1 POP SWAP2 SWAP1 POP JUMP JUMPDEST PUSH1 0x0 DUP2 ISZERO ISZERO SWAP1 POP SWAP2 SWAP1 POP JUMP JUMPDEST PUSH1 0x0 PUSH20 0xFFFFFFFFFFFFFFFFFFFFFFFFFFFFFFFFFFFFFFFF DUP3 AND SWAP1 POP SWAP2 SWAP1 POP JUMP JUMPDEST PUSH1 0x0 DUP2 SWAP1 POP SWAP2 SWAP1 POP JUMP JUMPDEST PUSH1 0x0 PUSH2 0xD5C DUP3 PUSH2 0xD75 JUMP JUMPDEST SWAP1 POP SWAP2 SWAP1 POP JUMP JUMPDEST PUSH1 0x0 PUSH2 0xD6E DUP3 PUSH2 0xD75 JUMP JUMPDEST SWAP1 POP SWAP2 SWAP1 POP JUMP JUMPDEST PUSH1 0x0 PUSH2 0xD80 DUP3 PUSH2 0xD87 JUMP JUMPDEST SWAP1 POP SWAP2 SWAP1 POP JUMP JUMPDEST PUSH1 0x0 PUSH2 0xD92 DUP3 PUSH2 0xD27 JUMP JUMPDEST SWAP1 POP SWAP2 SWAP1 POP JUMP JUMPDEST PUSH1 0x0 JUMPDEST DUP4 DUP2 LT ISZERO PUSH2 0xDB7 JUMPI DUP1 DUP3 ADD MLOAD DUP2 DUP5 ADD MSTORE PUSH1 0x20 DUP2 ADD SWAP1 POP PUSH2 0xD9C JUMP JUMPDEST DUP4 DUP2 GT ISZERO PUSH2 0xDC6 JUMPI PUSH1 0x0 DUP5 DUP5 ADD MSTORE JUMPDEST POP POP POP POP JUMP JUMPDEST PUSH1 0x0 PUSH1 0x2 DUP3 DIV SWAP1 POP PUSH1 0x1 DUP3 AND DUP1 PUSH2 0xDE4 JUMPI PUSH1 0x7F DUP3 AND SWAP2 POP JUMPDEST PUSH1 0x20 DUP3 LT DUP2 EQ ISZERO PUSH2 0xDF8 JUMPI PUSH2 0xDF7 PUSH2 0xE5C JUMP JUMPDEST JUMPDEST POP SWAP2 SWAP1 POP JUMP JUMPDEST PUSH32 0x4E487B7100000000000000000000000000000000000000000000000000000000 PUSH1 0x0 MSTORE PUSH1 0x11 PUSH1 0x4 MSTORE PUSH1 0x24 PUSH1 0x0 REVERT JUMPDEST PUSH32 0x4E487B7100000000000000000000000000000000000000000000000000000000 PUSH1 0x0 MSTORE PUSH1 0x12 PUSH1 0x4 MSTORE PUSH1 0x24 PUSH1 0x0 REVERT JUMPDEST PUSH32 0x4E487B7100000000000000000000000000000000000000000000000000000000 PUSH1 0x0 MSTORE PUSH1 0x22 PUSH1 0x4 MSTORE PUSH1 0x24 PUSH1 0x0 REVERT JUMPDEST PUSH1 0x0 DUP1 REVERT JUMPDEST PUSH1 0x0 PUSH1 0x1F NOT PUSH1 0x1F DUP4 ADD AND SWAP1 POP SWAP2 SWAP1 POP JUMP JUMPDEST PUSH32 0x5377617020636F6E747261637420646F6573206E6F74206861766520656E6F75 PUSH1 0x0 DUP3 ADD MSTORE PUSH32 0x676820617661696C61626C652045544820616D6F756E74000000000000000000 PUSH1 0x20 DUP3 ADD MSTORE POP JUMP JUMPDEST PUSH32 0x596F752063616E206E6F742073656C6C206D6F726520746F6B656E7320746861 PUSH1 0x0 DUP3 ADD MSTORE PUSH32 0x6E20796F752063757272656E746C7920686F6C64000000000000000000000000 PUSH1 0x20 DUP3 ADD MSTORE POP JUMP JUMPDEST PUSH32 0x4E6F7420656E6F75676820435A4820617661696C61626C6520746F2062757900 PUSH1 0x0 DUP3 ADD MSTORE POP JUMP JUMPDEST PUSH32 0x4E6F7420656E6F7567682066756E647320746F20737761700000000000000000 PUSH1 0x0 DUP3 ADD MSTORE POP JUMP JUMPDEST PUSH2 0xF9A DUP2 PUSH2 0xD09 JUMP JUMPDEST DUP2 EQ PUSH2 0xFA5 JUMPI PUSH1 0x0 DUP1 REVERT JUMPDEST POP JUMP JUMPDEST PUSH2 0xFB1 DUP2 PUSH2 0xD1B JUMP JUMPDEST DUP2 EQ PUSH2 0xFBC JUMPI PUSH1 0x0 DUP1 REVERT JUMPDEST POP JUMP JUMPDEST PUSH2 0xFC8 DUP2 PUSH2 0xD47 JUMP JUMPDEST DUP2 EQ PUSH2 0xFD3 JUMPI PUSH1 0x0 DUP1 REVERT JUMPDEST POP JUMP INVALID LOG2 PUSH5 0x6970667358 0x22 SLT KECCAK256 0x5D PUSH1 0xE2 0x21 0xC8 XOR 0xED SWAP13 0x25 0xAB GASPRICE LT 0x5E CALLDATACOPY 0x2E 0xAA PUSH10 0xA6ACB23DE8D818EB75B DUP7 0xED PUSH12 0x342864736F6C634300080700 CALLER "
				},
				"gasEstimates": {
					"creation": {
						"codeDepositCost": "821600",
						"executionCost": "infinite",
						"totalCost": "infinite"
					},
					"external": {
						"buyTokens()": "infinite",
						"czhRate()": "2473",
						"czhTokenBalance()": "2474",
						"lfjRate()": "2452",
						"lfjTokenBalance()": "2496",
						"name()": "infinite",
						"sellTokens(uint256)": "infinite",
						"swapTokens(address,address,uint256)": "infinite",
						"tokenCZH()": "2600",
						"tokenLFJ()": "2622"
					}
				},
				"methodIdentifiers": {
					"buyTokens()": "d0febe4c",
					"czhRate()": "a1e18e1a",
					"czhTokenBalance()": "3aa6f8fa",
					"lfjRate()": "1739fef0",
					"lfjTokenBalance()": "662b1af6",
					"name()": "06fdde03",
					"sellTokens(uint256)": "6c11bcd3",
					"swapTokens(address,address,uint256)": "ec6cc0cc",
					"tokenCZH()": "7cc1478a",
					"tokenLFJ()": "848d82eb"
				}
			},
			"storageLayout": {
				"storage": [
					{
						"astId": 187,
						"contract": "Projects/horizon/contracts/EthSwap.sol:EthSwap",
						"label": "name",
						"offset": 0,
						"slot": "0",
						"type": "t_string_storage"
					},
					{
						"astId": 190,
						"contract": "Projects/horizon/contracts/EthSwap.sol:EthSwap",
						"label": "tokenCZH",
						"offset": 0,
						"slot": "1",
						"type": "t_contract(CZH)180"
					},
					{
						"astId": 193,
						"contract": "Projects/horizon/contracts/EthSwap.sol:EthSwap",
						"label": "tokenLFJ",
						"offset": 0,
						"slot": "2",
						"type": "t_contract(LFJ)583"
					},
					{
						"astId": 196,
						"contract": "Projects/horizon/contracts/EthSwap.sol:EthSwap",
						"label": "czhRate",
						"offset": 0,
						"slot": "3",
						"type": "t_uint256"
					},
					{
						"astId": 199,
						"contract": "Projects/horizon/contracts/EthSwap.sol:EthSwap",
						"label": "lfjRate",
						"offset": 0,
						"slot": "4",
						"type": "t_uint256"
					},
					{
						"astId": 201,
						"contract": "Projects/horizon/contracts/EthSwap.sol:EthSwap",
						"label": "czhTokenBalance",
						"offset": 0,
						"slot": "5",
						"type": "t_uint256"
					},
					{
						"astId": 203,
						"contract": "Projects/horizon/contracts/EthSwap.sol:EthSwap",
						"label": "lfjTokenBalance",
						"offset": 0,
						"slot": "6",
						"type": "t_uint256"
					}
				],
				"types": {
					"t_contract(CZH)180": {
						"encoding": "inplace",
						"label": "contract CZH",
						"numberOfBytes": "20"
					},
					"t_contract(LFJ)583": {
						"encoding": "inplace",
						"label": "contract LFJ",
						"numberOfBytes": "20"
					},
					"t_string_storage": {
						"encoding": "bytes",
						"label": "string",
						"numberOfBytes": "32"
					},
					"t_uint256": {
						"encoding": "inplace",
						"label": "uint256",
						"numberOfBytes": "32"
					}
				}
			},
			"userdoc": {
				"kind": "user",
				"methods": {},
				"version": 1
			}
		}
	}
}