{
	"Projects/horizon/contracts/EthSwap.sol": {
		"EthSwap": {
			"abi": [
				{
					"inputs": [
						{
							"internalType": "contract CZH",
							"name": "_token1",
							"type": "address"
						},
						{
							"internalType": "contract LFJ",
							"name": "_token2",
							"type": "address"
						}
					],
					"stateMutability": "nonpayable",
					"type": "constructor"
				},
				{
					"anonymous": false,
					"inputs": [
						{
							"indexed": false,
							"internalType": "address",
							"name": "account",
							"type": "address"
						},
						{
							"indexed": false,
							"internalType": "address",
							"name": "token",
							"type": "address"
						},
						{
							"indexed": false,
							"internalType": "uint256",
							"name": "amount",
							"type": "uint256"
						},
						{
							"indexed": false,
							"internalType": "uint256",
							"name": "czhRate",
							"type": "uint256"
						}
					],
					"name": "TokensPurchased",
					"type": "event"
				},
				{
					"anonymous": false,
					"inputs": [
						{
							"indexed": false,
							"internalType": "address",
							"name": "account",
							"type": "address"
						},
						{
							"indexed": false,
							"internalType": "address",
							"name": "token",
							"type": "address"
						},
						{
							"indexed": false,
							"internalType": "uint256",
							"name": "amount",
							"type": "uint256"
						},
						{
							"indexed": false,
							"internalType": "uint256",
							"name": "czhRate",
							"type": "uint256"
						}
					],
					"name": "TokensSold",
					"type": "event"
				},
				{
					"inputs": [],
					"name": "buyTokens",
					"outputs": [],
					"stateMutability": "payable",
					"type": "function"
				},
				{
					"inputs": [],
					"name": "czhRate",
					"outputs": [
						{
							"internalType": "uint256",
							"name": "",
							"type": "uint256"
						}
					],
					"stateMutability": "view",
					"type": "function"
				},
				{
					"inputs": [],
					"name": "czhTokenBalance",
					"outputs": [
						{
							"internalType": "uint256",
							"name": "",
							"type": "uint256"
						}
					],
					"stateMutability": "view",
					"type": "function"
				},
				{
					"inputs": [],
					"name": "lfjRate",
					"outputs": [
						{
							"internalType": "uint256",
							"name": "",
							"type": "uint256"
						}
					],
					"stateMutability": "view",
					"type": "function"
				},
				{
					"inputs": [],
					"name": "lfjTokenBalance",
					"outputs": [
						{
							"internalType": "uint256",
							"name": "",
							"type": "uint256"
						}
					],
					"stateMutability": "view",
					"type": "function"
				},
				{
					"inputs": [],
					"name": "name",
					"outputs": [
						{
							"internalType": "string",
							"name": "",
							"type": "string"
						}
					],
					"stateMutability": "view",
					"type": "function"
				},
				{
					"inputs": [
						{
							"internalType": "uint256",
							"name": "_amount",
							"type": "uint256"
						}
					],
					"name": "sellTokens",
					"outputs": [],
					"stateMutability": "payable",
					"type": "function"
				},
				{
					"inputs": [
						{
							"internalType": "address",
							"name": "_tokenToBuy",
							"type": "address"
						},
						{
							"internalType": "address",
							"name": "_tokenToSell",
							"type": "address"
						},
						{
							"internalType": "uint256",
							"name": "_amountToSell",
							"type": "uint256"
						},
						{
							"internalType": "string",
							"name": "_token1Name",
							"type": "string"
						},
						{
							"internalType": "string",
							"name": "_token2Name",
							"type": "string"
						}
					],
					"name": "swapTokens",
					"outputs": [],
					"stateMutability": "payable",
					"type": "function"
				},
				{
					"inputs": [],
					"name": "tokenCZH",
					"outputs": [
						{
							"internalType": "contract CZH",
							"name": "",
							"type": "address"
						}
					],
					"stateMutability": "view",
					"type": "function"
				},
				{
					"inputs": [],
					"name": "tokenLFJ",
					"outputs": [
						{
							"internalType": "contract LFJ",
							"name": "",
							"type": "address"
						}
					],
					"stateMutability": "view",
					"type": "function"
				}
			],
			"devdoc": {
				"kind": "dev",
				"methods": {},
				"version": 1
			},
			"evm": {
				"assembly": "    /* \"Projects/horizon/contracts/EthSwap.sol\":112:3511  contract EthSwap {... */\n  mstore(0x40, 0x80)\n    /* \"Projects/horizon/contracts/EthSwap.sol\":135:184  string public name = \"Eth swap platform contract\" */\n  mload(0x40)\n  dup1\n  0x40\n  add\n  0x40\n  mstore\n  dup1\n  0x1a\n  dup2\n  mstore\n  0x20\n  add\n  0x457468207377617020706c6174666f726d20636f6e7472616374000000000000\n  dup2\n  mstore\n  pop\n  0x00\n  swap1\n  dup1\n  mload\n  swap1\n  0x20\n  add\n  swap1\n  tag_1\n  swap3\n  swap2\n  swap1\n  tag_2\n  jump\t// in\ntag_1:\n  pop\n    /* \"Projects/horizon/contracts/EthSwap.sol\":262:265  100 */\n  0x64\n    /* \"Projects/horizon/contracts/EthSwap.sol\":240:265  uint public czhRate = 100 */\n  0x03\n  sstore\n    /* \"Projects/horizon/contracts/EthSwap.sol\":312:314  10 */\n  0x0a\n    /* \"Projects/horizon/contracts/EthSwap.sol\":290:314  uint public lfjRate = 10 */\n  0x04\n  sstore\n    /* \"Projects/horizon/contracts/EthSwap.sol\":650:873  constructor(CZH _token1, LFJ _token2) {... */\n  callvalue\n  dup1\n  iszero\n  tag_3\n  jumpi\n  0x00\n  dup1\n  revert\ntag_3:\n  pop\n  mload(0x40)\n  sub(codesize, bytecodeSize)\n  dup1\n  bytecodeSize\n  dup4\n  codecopy\n  dup2\n  dup2\n  add\n  0x40\n  mstore\n  dup2\n  add\n  swap1\n  tag_4\n  swap2\n  swap1\n  tag_5\n  jump\t// in\ntag_4:\n    /* \"Projects/horizon/contracts/EthSwap.sol\":709:716  _token1 */\n  dup2\n    /* \"Projects/horizon/contracts/EthSwap.sol\":698:706  tokenCZH */\n  0x01\n  0x00\n    /* \"Projects/horizon/contracts/EthSwap.sol\":698:716  tokenCZH = _token1 */\n  0x0100\n  exp\n  dup2\n  sload\n  dup2\n  0xffffffffffffffffffffffffffffffffffffffff\n  mul\n  not\n  and\n  swap1\n  dup4\n  0xffffffffffffffffffffffffffffffffffffffff\n  and\n  mul\n  or\n  swap1\n  sstore\n  pop\n    /* \"Projects/horizon/contracts/EthSwap.sol\":737:744  _token2 */\n  dup1\n    /* \"Projects/horizon/contracts/EthSwap.sol\":726:734  tokenLFJ */\n  0x02\n  0x00\n    /* \"Projects/horizon/contracts/EthSwap.sol\":726:744  tokenLFJ = _token2 */\n  0x0100\n  exp\n  dup2\n  sload\n  dup2\n  0xffffffffffffffffffffffffffffffffffffffff\n  mul\n  not\n  and\n  swap1\n  dup4\n  0xffffffffffffffffffffffffffffffffffffffff\n  and\n  mul\n  or\n  swap1\n  sstore\n  pop\n    /* \"Projects/horizon/contracts/EthSwap.sol\":772:780  tokenCZH */\n  0x01\n  0x00\n  swap1\n  sload\n  swap1\n  0x0100\n  exp\n  swap1\n  div\n  0xffffffffffffffffffffffffffffffffffffffff\n  and\n    /* \"Projects/horizon/contracts/EthSwap.sol\":772:790  tokenCZH.balanceOf */\n  0xffffffffffffffffffffffffffffffffffffffff\n  and\n  0x70a08231\n    /* \"Projects/horizon/contracts/EthSwap.sol\":799:803  this */\n  address\n    /* \"Projects/horizon/contracts/EthSwap.sol\":772:805  tokenCZH.balanceOf(address(this)) */\n  mload(0x40)\n  dup3\n  0xffffffff\n  and\n  0xe0\n  shl\n  dup2\n  mstore\n  0x04\n  add\n  tag_8\n  swap2\n  swap1\n  tag_9\n  jump\t// in\ntag_8:\n  0x20\n  mload(0x40)\n  dup1\n  dup4\n  sub\n  dup2\n  dup7\n  dup1\n  extcodesize\n  iszero\n  dup1\n  iszero\n  tag_10\n  jumpi\n  0x00\n  dup1\n  revert\ntag_10:\n  pop\n  gas\n  staticcall\n  iszero\n  dup1\n  iszero\n  tag_12\n  jumpi\n  returndatasize\n  0x00\n  dup1\n  returndatacopy\n  revert(0x00, returndatasize)\ntag_12:\n  pop\n  pop\n  pop\n  pop\n  mload(0x40)\n  returndatasize\n  not(0x1f)\n  0x1f\n  dup3\n  add\n  and\n  dup3\n  add\n  dup1\n  0x40\n  mstore\n  pop\n  dup2\n  add\n  swap1\n  tag_13\n  swap2\n  swap1\n  tag_14\n  jump\t// in\ntag_13:\n    /* \"Projects/horizon/contracts/EthSwap.sol\":754:769  czhTokenBalance */\n  0x05\n    /* \"Projects/horizon/contracts/EthSwap.sol\":754:805  czhTokenBalance = tokenCZH.balanceOf(address(this)) */\n  dup2\n  swap1\n  sstore\n  pop\n    /* \"Projects/horizon/contracts/EthSwap.sol\":833:841  tokenLFJ */\n  0x02\n  0x00\n  swap1\n  sload\n  swap1\n  0x0100\n  exp\n  swap1\n  div\n  0xffffffffffffffffffffffffffffffffffffffff\n  and\n    /* \"Projects/horizon/contracts/EthSwap.sol\":833:851  tokenLFJ.balanceOf */\n  0xffffffffffffffffffffffffffffffffffffffff\n  and\n  0x70a08231\n    /* \"Projects/horizon/contracts/EthSwap.sol\":860:864  this */\n  address\n    /* \"Projects/horizon/contracts/EthSwap.sol\":833:866  tokenLFJ.balanceOf(address(this)) */\n  mload(0x40)\n  dup3\n  0xffffffff\n  and\n  0xe0\n  shl\n  dup2\n  mstore\n  0x04\n  add\n  tag_15\n  swap2\n  swap1\n  tag_9\n  jump\t// in\ntag_15:\n  0x20\n  mload(0x40)\n  dup1\n  dup4\n  sub\n  dup2\n  dup7\n  dup1\n  extcodesize\n  iszero\n  dup1\n  iszero\n  tag_16\n  jumpi\n  0x00\n  dup1\n  revert\ntag_16:\n  pop\n  gas\n  staticcall\n  iszero\n  dup1\n  iszero\n  tag_18\n  jumpi\n  returndatasize\n  0x00\n  dup1\n  returndatacopy\n  revert(0x00, returndatasize)\ntag_18:\n  pop\n  pop\n  pop\n  pop\n  mload(0x40)\n  returndatasize\n  not(0x1f)\n  0x1f\n  dup3\n  add\n  and\n  dup3\n  add\n  dup1\n  0x40\n  mstore\n  pop\n  dup2\n  add\n  swap1\n  tag_19\n  swap2\n  swap1\n  tag_14\n  jump\t// in\ntag_19:\n    /* \"Projects/horizon/contracts/EthSwap.sol\":815:830  lfjTokenBalance */\n  0x06\n    /* \"Projects/horizon/contracts/EthSwap.sol\":815:866  lfjTokenBalance = tokenLFJ.balanceOf(address(this)) */\n  dup2\n  swap1\n  sstore\n  pop\n    /* \"Projects/horizon/contracts/EthSwap.sol\":650:873  constructor(CZH _token1, LFJ _token2) {... */\n  pop\n  pop\n    /* \"Projects/horizon/contracts/EthSwap.sol\":112:3511  contract EthSwap {... */\n  jump(tag_20)\ntag_2:\n  dup3\n  dup1\n  sload\n  tag_21\n  swap1\n  tag_22\n  jump\t// in\ntag_21:\n  swap1\n  0x00\n  mstore\n  keccak256(0x00, 0x20)\n  swap1\n  0x1f\n  add\n  0x20\n  swap1\n  div\n  dup2\n  add\n  swap3\n  dup3\n  tag_24\n  jumpi\n  0x00\n  dup6\n  sstore\n  jump(tag_23)\ntag_24:\n  dup3\n  0x1f\n  lt\n  tag_25\n  jumpi\n  dup1\n  mload\n  not(0xff)\n  and\n  dup4\n  dup1\n  add\n  or\n  dup6\n  sstore\n  jump(tag_23)\ntag_25:\n  dup3\n  dup1\n  add\n  0x01\n  add\n  dup6\n  sstore\n  dup3\n  iszero\n  tag_23\n  jumpi\n  swap2\n  dup3\n  add\ntag_26:\n  dup3\n  dup2\n  gt\n  iszero\n  tag_27\n  jumpi\n  dup3\n  mload\n  dup3\n  sstore\n  swap2\n  0x20\n  add\n  swap2\n  swap1\n  0x01\n  add\n  swap1\n  jump(tag_26)\ntag_27:\ntag_23:\n  pop\n  swap1\n  pop\n  tag_28\n  swap2\n  swap1\n  tag_29\n  jump\t// in\ntag_28:\n  pop\n  swap1\n  jump\t// out\ntag_29:\ntag_30:\n  dup1\n  dup3\n  gt\n  iszero\n  tag_31\n  jumpi\n  0x00\n  dup2\n  0x00\n  swap1\n  sstore\n  pop\n  0x01\n  add\n  jump(tag_30)\ntag_31:\n  pop\n  swap1\n  jump\t// out\n    /* \"#utility.yul\":7:172   */\ntag_33:\n    /* \"#utility.yul\":75:80   */\n  0x00\n    /* \"#utility.yul\":106:112   */\n  dup2\n    /* \"#utility.yul\":100:113   */\n  mload\n    /* \"#utility.yul\":91:113   */\n  swap1\n  pop\n    /* \"#utility.yul\":122:166   */\n  tag_35\n    /* \"#utility.yul\":160:165   */\n  dup2\n    /* \"#utility.yul\":122:166   */\n  tag_36\n  jump\t// in\ntag_35:\n    /* \"#utility.yul\":7:172   */\n  swap3\n  swap2\n  pop\n  pop\n  jump\t// out\n    /* \"#utility.yul\":178:343   */\ntag_37:\n    /* \"#utility.yul\":246:251   */\n  0x00\n    /* \"#utility.yul\":277:283   */\n  dup2\n    /* \"#utility.yul\":271:284   */\n  mload\n    /* \"#utility.yul\":262:284   */\n  swap1\n  pop\n    /* \"#utility.yul\":293:337   */\n  tag_39\n    /* \"#utility.yul\":331:336   */\n  dup2\n    /* \"#utility.yul\":293:337   */\n  tag_40\n  jump\t// in\ntag_39:\n    /* \"#utility.yul\":178:343   */\n  swap3\n  swap2\n  pop\n  pop\n  jump\t// out\n    /* \"#utility.yul\":349:492   */\ntag_41:\n    /* \"#utility.yul\":406:411   */\n  0x00\n    /* \"#utility.yul\":437:443   */\n  dup2\n    /* \"#utility.yul\":431:444   */\n  mload\n    /* \"#utility.yul\":422:444   */\n  swap1\n  pop\n    /* \"#utility.yul\":453:486   */\n  tag_43\n    /* \"#utility.yul\":480:485   */\n  dup2\n    /* \"#utility.yul\":453:486   */\n  tag_44\n  jump\t// in\ntag_43:\n    /* \"#utility.yul\":349:492   */\n  swap3\n  swap2\n  pop\n  pop\n  jump\t// out\n    /* \"#utility.yul\":498:1049   */\ntag_5:\n    /* \"#utility.yul\":599:605   */\n  0x00\n    /* \"#utility.yul\":607:613   */\n  dup1\n    /* \"#utility.yul\":656:658   */\n  0x40\n    /* \"#utility.yul\":644:653   */\n  dup4\n    /* \"#utility.yul\":635:642   */\n  dup6\n    /* \"#utility.yul\":631:654   */\n  sub\n    /* \"#utility.yul\":627:659   */\n  slt\n    /* \"#utility.yul\":624:743   */\n  iszero\n  tag_46\n  jumpi\n    /* \"#utility.yul\":662:741   */\n  tag_47\n  tag_48\n  jump\t// in\ntag_47:\n    /* \"#utility.yul\":624:743   */\ntag_46:\n    /* \"#utility.yul\":782:783   */\n  0x00\n    /* \"#utility.yul\":807:882   */\n  tag_49\n    /* \"#utility.yul\":874:881   */\n  dup6\n    /* \"#utility.yul\":865:871   */\n  dup3\n    /* \"#utility.yul\":854:863   */\n  dup7\n    /* \"#utility.yul\":850:872   */\n  add\n    /* \"#utility.yul\":807:882   */\n  tag_33\n  jump\t// in\ntag_49:\n    /* \"#utility.yul\":797:882   */\n  swap3\n  pop\n    /* \"#utility.yul\":753:892   */\n  pop\n    /* \"#utility.yul\":931:933   */\n  0x20\n    /* \"#utility.yul\":957:1032   */\n  tag_50\n    /* \"#utility.yul\":1024:1031   */\n  dup6\n    /* \"#utility.yul\":1015:1021   */\n  dup3\n    /* \"#utility.yul\":1004:1013   */\n  dup7\n    /* \"#utility.yul\":1000:1022   */\n  add\n    /* \"#utility.yul\":957:1032   */\n  tag_37\n  jump\t// in\ntag_50:\n    /* \"#utility.yul\":947:1032   */\n  swap2\n  pop\n    /* \"#utility.yul\":902:1042   */\n  pop\n    /* \"#utility.yul\":498:1049   */\n  swap3\n  pop\n  swap3\n  swap1\n  pop\n  jump\t// out\n    /* \"#utility.yul\":1055:1406   */\ntag_14:\n    /* \"#utility.yul\":1125:1131   */\n  0x00\n    /* \"#utility.yul\":1174:1176   */\n  0x20\n    /* \"#utility.yul\":1162:1171   */\n  dup3\n    /* \"#utility.yul\":1153:1160   */\n  dup5\n    /* \"#utility.yul\":1149:1172   */\n  sub\n    /* \"#utility.yul\":1145:1177   */\n  slt\n    /* \"#utility.yul\":1142:1261   */\n  iszero\n  tag_52\n  jumpi\n    /* \"#utility.yul\":1180:1259   */\n  tag_53\n  tag_48\n  jump\t// in\ntag_53:\n    /* \"#utility.yul\":1142:1261   */\ntag_52:\n    /* \"#utility.yul\":1300:1301   */\n  0x00\n    /* \"#utility.yul\":1325:1389   */\n  tag_54\n    /* \"#utility.yul\":1381:1388   */\n  dup5\n    /* \"#utility.yul\":1372:1378   */\n  dup3\n    /* \"#utility.yul\":1361:1370   */\n  dup6\n    /* \"#utility.yul\":1357:1379   */\n  add\n    /* \"#utility.yul\":1325:1389   */\n  tag_41\n  jump\t// in\ntag_54:\n    /* \"#utility.yul\":1315:1389   */\n  swap2\n  pop\n    /* \"#utility.yul\":1271:1399   */\n  pop\n    /* \"#utility.yul\":1055:1406   */\n  swap3\n  swap2\n  pop\n  pop\n  jump\t// out\n    /* \"#utility.yul\":1412:1530   */\ntag_55:\n    /* \"#utility.yul\":1499:1523   */\n  tag_57\n    /* \"#utility.yul\":1517:1522   */\n  dup2\n    /* \"#utility.yul\":1499:1523   */\n  tag_58\n  jump\t// in\ntag_57:\n    /* \"#utility.yul\":1494:1497   */\n  dup3\n    /* \"#utility.yul\":1487:1524   */\n  mstore\n    /* \"#utility.yul\":1412:1530   */\n  pop\n  pop\n  jump\t// out\n    /* \"#utility.yul\":1536:1758   */\ntag_9:\n    /* \"#utility.yul\":1629:1633   */\n  0x00\n    /* \"#utility.yul\":1667:1669   */\n  0x20\n    /* \"#utility.yul\":1656:1665   */\n  dup3\n    /* \"#utility.yul\":1652:1670   */\n  add\n    /* \"#utility.yul\":1644:1670   */\n  swap1\n  pop\n    /* \"#utility.yul\":1680:1751   */\n  tag_60\n    /* \"#utility.yul\":1748:1749   */\n  0x00\n    /* \"#utility.yul\":1737:1746   */\n  dup4\n    /* \"#utility.yul\":1733:1750   */\n  add\n    /* \"#utility.yul\":1724:1730   */\n  dup5\n    /* \"#utility.yul\":1680:1751   */\n  tag_55\n  jump\t// in\ntag_60:\n    /* \"#utility.yul\":1536:1758   */\n  swap3\n  swap2\n  pop\n  pop\n  jump\t// out\n    /* \"#utility.yul\":1845:1941   */\ntag_58:\n    /* \"#utility.yul\":1882:1889   */\n  0x00\n    /* \"#utility.yul\":1911:1935   */\n  tag_64\n    /* \"#utility.yul\":1929:1934   */\n  dup3\n    /* \"#utility.yul\":1911:1935   */\n  tag_65\n  jump\t// in\ntag_64:\n    /* \"#utility.yul\":1900:1935   */\n  swap1\n  pop\n    /* \"#utility.yul\":1845:1941   */\n  swap2\n  swap1\n  pop\n  jump\t// out\n    /* \"#utility.yul\":1947:2054   */\ntag_66:\n    /* \"#utility.yul\":1995:2002   */\n  0x00\n    /* \"#utility.yul\":2024:2048   */\n  tag_68\n    /* \"#utility.yul\":2042:2047   */\n  dup3\n    /* \"#utility.yul\":2024:2048   */\n  tag_58\n  jump\t// in\ntag_68:\n    /* \"#utility.yul\":2013:2048   */\n  swap1\n  pop\n    /* \"#utility.yul\":1947:2054   */\n  swap2\n  swap1\n  pop\n  jump\t// out\n    /* \"#utility.yul\":2060:2167   */\ntag_69:\n    /* \"#utility.yul\":2108:2115   */\n  0x00\n    /* \"#utility.yul\":2137:2161   */\n  tag_71\n    /* \"#utility.yul\":2155:2160   */\n  dup3\n    /* \"#utility.yul\":2137:2161   */\n  tag_58\n  jump\t// in\ntag_71:\n    /* \"#utility.yul\":2126:2161   */\n  swap1\n  pop\n    /* \"#utility.yul\":2060:2167   */\n  swap2\n  swap1\n  pop\n  jump\t// out\n    /* \"#utility.yul\":2173:2299   */\ntag_65:\n    /* \"#utility.yul\":2210:2217   */\n  0x00\n    /* \"#utility.yul\":2250:2292   */\n  0xffffffffffffffffffffffffffffffffffffffff\n    /* \"#utility.yul\":2243:2248   */\n  dup3\n    /* \"#utility.yul\":2239:2293   */\n  and\n    /* \"#utility.yul\":2228:2293   */\n  swap1\n  pop\n    /* \"#utility.yul\":2173:2299   */\n  swap2\n  swap1\n  pop\n  jump\t// out\n    /* \"#utility.yul\":2305:2382   */\ntag_73:\n    /* \"#utility.yul\":2342:2349   */\n  0x00\n    /* \"#utility.yul\":2371:2376   */\n  dup2\n    /* \"#utility.yul\":2360:2376   */\n  swap1\n  pop\n    /* \"#utility.yul\":2305:2382   */\n  swap2\n  swap1\n  pop\n  jump\t// out\n    /* \"#utility.yul\":2388:2708   */\ntag_22:\n    /* \"#utility.yul\":2432:2438   */\n  0x00\n    /* \"#utility.yul\":2469:2470   */\n  0x02\n    /* \"#utility.yul\":2463:2467   */\n  dup3\n    /* \"#utility.yul\":2459:2471   */\n  div\n    /* \"#utility.yul\":2449:2471   */\n  swap1\n  pop\n    /* \"#utility.yul\":2516:2517   */\n  0x01\n    /* \"#utility.yul\":2510:2514   */\n  dup3\n    /* \"#utility.yul\":2506:2518   */\n  and\n    /* \"#utility.yul\":2537:2555   */\n  dup1\n    /* \"#utility.yul\":2527:2608   */\n  tag_76\n  jumpi\n    /* \"#utility.yul\":2593:2597   */\n  0x7f\n    /* \"#utility.yul\":2585:2591   */\n  dup3\n    /* \"#utility.yul\":2581:2598   */\n  and\n    /* \"#utility.yul\":2571:2598   */\n  swap2\n  pop\n    /* \"#utility.yul\":2527:2608   */\ntag_76:\n    /* \"#utility.yul\":2655:2657   */\n  0x20\n    /* \"#utility.yul\":2647:2653   */\n  dup3\n    /* \"#utility.yul\":2644:2658   */\n  lt\n    /* \"#utility.yul\":2624:2642   */\n  dup2\n    /* \"#utility.yul\":2621:2659   */\n  eq\n    /* \"#utility.yul\":2618:2702   */\n  iszero\n  tag_77\n  jumpi\n    /* \"#utility.yul\":2674:2692   */\n  tag_78\n  tag_79\n  jump\t// in\ntag_78:\n    /* \"#utility.yul\":2618:2702   */\ntag_77:\n    /* \"#utility.yul\":2439:2708   */\n  pop\n    /* \"#utility.yul\":2388:2708   */\n  swap2\n  swap1\n  pop\n  jump\t// out\n    /* \"#utility.yul\":2714:2894   */\ntag_79:\n    /* \"#utility.yul\":2762:2839   */\n  0x4e487b7100000000000000000000000000000000000000000000000000000000\n    /* \"#utility.yul\":2759:2760   */\n  0x00\n    /* \"#utility.yul\":2752:2840   */\n  mstore\n    /* \"#utility.yul\":2859:2863   */\n  0x22\n    /* \"#utility.yul\":2856:2857   */\n  0x04\n    /* \"#utility.yul\":2849:2864   */\n  mstore\n    /* \"#utility.yul\":2883:2887   */\n  0x24\n    /* \"#utility.yul\":2880:2881   */\n  0x00\n    /* \"#utility.yul\":2873:2888   */\n  revert\n    /* \"#utility.yul\":3023:3140   */\ntag_48:\n    /* \"#utility.yul\":3132:3133   */\n  0x00\n    /* \"#utility.yul\":3129:3130   */\n  dup1\n    /* \"#utility.yul\":3122:3134   */\n  revert\n    /* \"#utility.yul\":3146:3290   */\ntag_36:\n    /* \"#utility.yul\":3230:3265   */\n  tag_85\n    /* \"#utility.yul\":3259:3264   */\n  dup2\n    /* \"#utility.yul\":3230:3265   */\n  tag_66\n  jump\t// in\ntag_85:\n    /* \"#utility.yul\":3223:3228   */\n  dup2\n    /* \"#utility.yul\":3220:3266   */\n  eq\n    /* \"#utility.yul\":3210:3284   */\n  tag_86\n  jumpi\n    /* \"#utility.yul\":3280:3281   */\n  0x00\n    /* \"#utility.yul\":3277:3278   */\n  dup1\n    /* \"#utility.yul\":3270:3282   */\n  revert\n    /* \"#utility.yul\":3210:3284   */\ntag_86:\n    /* \"#utility.yul\":3146:3290   */\n  pop\n  jump\t// out\n    /* \"#utility.yul\":3296:3440   */\ntag_40:\n    /* \"#utility.yul\":3380:3415   */\n  tag_88\n    /* \"#utility.yul\":3409:3414   */\n  dup2\n    /* \"#utility.yul\":3380:3415   */\n  tag_69\n  jump\t// in\ntag_88:\n    /* \"#utility.yul\":3373:3378   */\n  dup2\n    /* \"#utility.yul\":3370:3416   */\n  eq\n    /* \"#utility.yul\":3360:3434   */\n  tag_89\n  jumpi\n    /* \"#utility.yul\":3430:3431   */\n  0x00\n    /* \"#utility.yul\":3427:3428   */\n  dup1\n    /* \"#utility.yul\":3420:3432   */\n  revert\n    /* \"#utility.yul\":3360:3434   */\ntag_89:\n    /* \"#utility.yul\":3296:3440   */\n  pop\n  jump\t// out\n    /* \"#utility.yul\":3446:3568   */\ntag_44:\n    /* \"#utility.yul\":3519:3543   */\n  tag_91\n    /* \"#utility.yul\":3537:3542   */\n  dup2\n    /* \"#utility.yul\":3519:3543   */\n  tag_73\n  jump\t// in\ntag_91:\n    /* \"#utility.yul\":3512:3517   */\n  dup2\n    /* \"#utility.yul\":3509:3544   */\n  eq\n    /* \"#utility.yul\":3499:3562   */\n  tag_92\n  jumpi\n    /* \"#utility.yul\":3558:3559   */\n  0x00\n    /* \"#utility.yul\":3555:3556   */\n  dup1\n    /* \"#utility.yul\":3548:3560   */\n  revert\n    /* \"#utility.yul\":3499:3562   */\ntag_92:\n    /* \"#utility.yul\":3446:3568   */\n  pop\n  jump\t// out\n    /* \"Projects/horizon/contracts/EthSwap.sol\":112:3511  contract EthSwap {... */\ntag_20:\n  dataSize(sub_0)\n  dup1\n  dataOffset(sub_0)\n  0x00\n  codecopy\n  0x00\n  return\nstop\n\nsub_0: assembly {\n        /* \"Projects/horizon/contracts/EthSwap.sol\":112:3511  contract EthSwap {... */\n      mstore(0x40, 0x80)\n      jumpi(tag_1, lt(calldatasize, 0x04))\n      shr(0xe0, calldataload(0x00))\n      dup1\n      0x6c11bcd3\n      gt\n      tag_12\n      jumpi\n      dup1\n      0x6c11bcd3\n      eq\n      tag_7\n      jumpi\n      dup1\n      0x7cc1478a\n      eq\n      tag_8\n      jumpi\n      dup1\n      0x848d82eb\n      eq\n      tag_9\n      jumpi\n      dup1\n      0xa1e18e1a\n      eq\n      tag_10\n      jumpi\n      dup1\n      0xd0febe4c\n      eq\n      tag_11\n      jumpi\n      jump(tag_1)\n    tag_12:\n      dup1\n      0x06fdde03\n      eq\n      tag_2\n      jumpi\n      dup1\n      0x1739fef0\n      eq\n      tag_3\n      jumpi\n      dup1\n      0x3aa6f8fa\n      eq\n      tag_4\n      jumpi\n      dup1\n      0x63439499\n      eq\n      tag_5\n      jumpi\n      dup1\n      0x662b1af6\n      eq\n      tag_6\n      jumpi\n    tag_1:\n      0x00\n      dup1\n      revert\n        /* \"Projects/horizon/contracts/EthSwap.sol\":135:184  string public name = \"Eth swap platform contract\" */\n    tag_2:\n      callvalue\n      dup1\n      iszero\n      tag_13\n      jumpi\n      0x00\n      dup1\n      revert\n    tag_13:\n      pop\n      tag_14\n      tag_15\n      jump\t// in\n    tag_14:\n      mload(0x40)\n      tag_16\n      swap2\n      swap1\n      tag_17\n      jump\t// in\n    tag_16:\n      mload(0x40)\n      dup1\n      swap2\n      sub\n      swap1\n      return\n        /* \"Projects/horizon/contracts/EthSwap.sol\":290:314  uint public lfjRate = 10 */\n    tag_3:\n      callvalue\n      dup1\n      iszero\n      tag_18\n      jumpi\n      0x00\n      dup1\n      revert\n    tag_18:\n      pop\n      tag_19\n      tag_20\n      jump\t// in\n    tag_19:\n      mload(0x40)\n      tag_21\n      swap2\n      swap1\n      tag_22\n      jump\t// in\n    tag_21:\n      mload(0x40)\n      dup1\n      swap2\n      sub\n      swap1\n      return\n        /* \"Projects/horizon/contracts/EthSwap.sol\":338:365  uint public czhTokenBalance */\n    tag_4:\n      callvalue\n      dup1\n      iszero\n      tag_23\n      jumpi\n      0x00\n      dup1\n      revert\n    tag_23:\n      pop\n      tag_24\n      tag_25\n      jump\t// in\n    tag_24:\n      mload(0x40)\n      tag_26\n      swap2\n      swap1\n      tag_22\n      jump\t// in\n    tag_26:\n      mload(0x40)\n      dup1\n      swap2\n      sub\n      swap1\n      return\n        /* \"Projects/horizon/contracts/EthSwap.sol\":879:2271  function swapTokens(address _tokenToBuy, address _tokenToSell, uint _amountToSell, string memory _token1Name, string memory _token2Name) public payable {... */\n    tag_5:\n      tag_27\n      0x04\n      dup1\n      calldatasize\n      sub\n      dup2\n      add\n      swap1\n      tag_28\n      swap2\n      swap1\n      tag_29\n      jump\t// in\n    tag_28:\n      tag_30\n      jump\t// in\n    tag_27:\n      stop\n        /* \"Projects/horizon/contracts/EthSwap.sol\":371:398  uint public lfjTokenBalance */\n    tag_6:\n      callvalue\n      dup1\n      iszero\n      tag_31\n      jumpi\n      0x00\n      dup1\n      revert\n    tag_31:\n      pop\n      tag_32\n      tag_33\n      jump\t// in\n    tag_32:\n      mload(0x40)\n      tag_34\n      swap2\n      swap1\n      tag_22\n      jump\t// in\n    tag_34:\n      mload(0x40)\n      dup1\n      swap2\n      sub\n      swap1\n      return\n        /* \"Projects/horizon/contracts/EthSwap.sol\":2777:3508  function sellTokens(uint _amount) public payable {... */\n    tag_7:\n      tag_35\n      0x04\n      dup1\n      calldatasize\n      sub\n      dup2\n      add\n      swap1\n      tag_36\n      swap2\n      swap1\n      tag_37\n      jump\t// in\n    tag_36:\n      tag_38\n      jump\t// in\n    tag_35:\n      stop\n        /* \"Projects/horizon/contracts/EthSwap.sol\":190:209  CZH public tokenCZH */\n    tag_8:\n      callvalue\n      dup1\n      iszero\n      tag_39\n      jumpi\n      0x00\n      dup1\n      revert\n    tag_39:\n      pop\n      tag_40\n      tag_41\n      jump\t// in\n    tag_40:\n      mload(0x40)\n      tag_42\n      swap2\n      swap1\n      tag_43\n      jump\t// in\n    tag_42:\n      mload(0x40)\n      dup1\n      swap2\n      sub\n      swap1\n      return\n        /* \"Projects/horizon/contracts/EthSwap.sol\":215:234  LFJ public tokenLFJ */\n    tag_9:\n      callvalue\n      dup1\n      iszero\n      tag_44\n      jumpi\n      0x00\n      dup1\n      revert\n    tag_44:\n      pop\n      tag_45\n      tag_46\n      jump\t// in\n    tag_45:\n      mload(0x40)\n      tag_47\n      swap2\n      swap1\n      tag_48\n      jump\t// in\n    tag_47:\n      mload(0x40)\n      dup1\n      swap2\n      sub\n      swap1\n      return\n        /* \"Projects/horizon/contracts/EthSwap.sol\":240:265  uint public czhRate = 100 */\n    tag_10:\n      callvalue\n      dup1\n      iszero\n      tag_49\n      jumpi\n      0x00\n      dup1\n      revert\n    tag_49:\n      pop\n      tag_50\n      tag_51\n      jump\t// in\n    tag_50:\n      mload(0x40)\n      tag_52\n      swap2\n      swap1\n      tag_22\n      jump\t// in\n    tag_52:\n      mload(0x40)\n      dup1\n      swap2\n      sub\n      swap1\n      return\n        /* \"Projects/horizon/contracts/EthSwap.sol\":2277:2771  function buyTokens() public payable {... */\n    tag_11:\n      tag_53\n      tag_54\n      jump\t// in\n    tag_53:\n      stop\n        /* \"Projects/horizon/contracts/EthSwap.sol\":135:184  string public name = \"Eth swap platform contract\" */\n    tag_15:\n      0x00\n      dup1\n      sload\n      tag_55\n      swap1\n      tag_56\n      jump\t// in\n    tag_55:\n      dup1\n      0x1f\n      add\n      0x20\n      dup1\n      swap2\n      div\n      mul\n      0x20\n      add\n      mload(0x40)\n      swap1\n      dup2\n      add\n      0x40\n      mstore\n      dup1\n      swap3\n      swap2\n      swap1\n      dup2\n      dup2\n      mstore\n      0x20\n      add\n      dup3\n      dup1\n      sload\n      tag_57\n      swap1\n      tag_56\n      jump\t// in\n    tag_57:\n      dup1\n      iszero\n      tag_58\n      jumpi\n      dup1\n      0x1f\n      lt\n      tag_59\n      jumpi\n      0x0100\n      dup1\n      dup4\n      sload\n      div\n      mul\n      dup4\n      mstore\n      swap2\n      0x20\n      add\n      swap2\n      jump(tag_58)\n    tag_59:\n      dup3\n      add\n      swap2\n      swap1\n      0x00\n      mstore\n      keccak256(0x00, 0x20)\n      swap1\n    tag_60:\n      dup2\n      sload\n      dup2\n      mstore\n      swap1\n      0x01\n      add\n      swap1\n      0x20\n      add\n      dup1\n      dup4\n      gt\n      tag_60\n      jumpi\n      dup3\n      swap1\n      sub\n      0x1f\n      and\n      dup3\n      add\n      swap2\n    tag_58:\n      pop\n      pop\n      pop\n      pop\n      pop\n      dup2\n      jump\t// out\n        /* \"Projects/horizon/contracts/EthSwap.sol\":290:314  uint public lfjRate = 10 */\n    tag_20:\n      sload(0x04)\n      dup2\n      jump\t// out\n        /* \"Projects/horizon/contracts/EthSwap.sol\":338:365  uint public czhTokenBalance */\n    tag_25:\n      sload(0x05)\n      dup2\n      jump\t// out\n        /* \"Projects/horizon/contracts/EthSwap.sol\":879:2271  function swapTokens(address _tokenToBuy, address _tokenToSell, uint _amountToSell, string memory _token1Name, string memory _token2Name) public payable {... */\n    tag_30:\n        /* \"Projects/horizon/contracts/EthSwap.sol\":1526:1539  CZH tokenSell */\n      0x00\n        /* \"Projects/horizon/contracts/EthSwap.sol\":1546:1558  _tokenToSell */\n      dup5\n        /* \"Projects/horizon/contracts/EthSwap.sol\":1526:1559  CZH tokenSell = CZH(_tokenToSell) */\n      swap1\n      pop\n        /* \"Projects/horizon/contracts/EthSwap.sol\":1569:1581  CZH tokenBuy */\n      0x00\n        /* \"Projects/horizon/contracts/EthSwap.sol\":1588:1599  _tokenToBuy */\n      dup7\n        /* \"Projects/horizon/contracts/EthSwap.sol\":1569:1600  CZH tokenBuy = CZH(_tokenToBuy) */\n      swap1\n      pop\n        /* \"Projects/horizon/contracts/EthSwap.sol\":1662:1675  _amountToSell */\n      dup5\n        /* \"Projects/horizon/contracts/EthSwap.sol\":1618:1627  tokenSell */\n      dup3\n        /* \"Projects/horizon/contracts/EthSwap.sol\":1618:1637  tokenSell.balanceOf */\n      0xffffffffffffffffffffffffffffffffffffffff\n      and\n      0x70a08231\n        /* \"Projects/horizon/contracts/EthSwap.sol\":1646:1656  msg.sender */\n      caller\n        /* \"Projects/horizon/contracts/EthSwap.sol\":1618:1658  tokenSell.balanceOf(address(msg.sender)) */\n      mload(0x40)\n      dup3\n      0xffffffff\n      and\n      0xe0\n      shl\n      dup2\n      mstore\n      0x04\n      add\n      tag_62\n      swap2\n      swap1\n      tag_63\n      jump\t// in\n    tag_62:\n      0x20\n      mload(0x40)\n      dup1\n      dup4\n      sub\n      dup2\n      dup7\n      dup1\n      extcodesize\n      iszero\n      dup1\n      iszero\n      tag_64\n      jumpi\n      0x00\n      dup1\n      revert\n    tag_64:\n      pop\n      gas\n      staticcall\n      iszero\n      dup1\n      iszero\n      tag_66\n      jumpi\n      returndatasize\n      0x00\n      dup1\n      returndatacopy\n      revert(0x00, returndatasize)\n    tag_66:\n      pop\n      pop\n      pop\n      pop\n      mload(0x40)\n      returndatasize\n      not(0x1f)\n      0x1f\n      dup3\n      add\n      and\n      dup3\n      add\n      dup1\n      0x40\n      mstore\n      pop\n      dup2\n      add\n      swap1\n      tag_67\n      swap2\n      swap1\n      tag_68\n      jump\t// in\n    tag_67:\n        /* \"Projects/horizon/contracts/EthSwap.sol\":1618:1675  tokenSell.balanceOf(address(msg.sender)) <= _amountToSell */\n      gt\n      iszero\n        /* \"Projects/horizon/contracts/EthSwap.sol\":1610:1704  require(tokenSell.balanceOf(address(msg.sender)) <= _amountToSell, \"Not enough funds to swap\") */\n      tag_69\n      jumpi\n      mload(0x40)\n      0x08c379a000000000000000000000000000000000000000000000000000000000\n      dup2\n      mstore\n      0x04\n      add\n      tag_70\n      swap1\n      tag_71\n      jump\t// in\n    tag_70:\n      mload(0x40)\n      dup1\n      swap2\n      sub\n      swap1\n      revert\n    tag_69:\n        /* \"Projects/horizon/contracts/EthSwap.sol\":2040:2053  _amountToSell */\n      dup5\n        /* \"Projects/horizon/contracts/EthSwap.sol\":2003:2011  tokenBuy */\n      dup2\n        /* \"Projects/horizon/contracts/EthSwap.sol\":2003:2021  tokenBuy.balanceOf */\n      0xffffffffffffffffffffffffffffffffffffffff\n      and\n      0x70a08231\n        /* \"Projects/horizon/contracts/EthSwap.sol\":2030:2034  this */\n      address\n        /* \"Projects/horizon/contracts/EthSwap.sol\":2003:2036  tokenBuy.balanceOf(address(this)) */\n      mload(0x40)\n      dup3\n      0xffffffff\n      and\n      0xe0\n      shl\n      dup2\n      mstore\n      0x04\n      add\n      tag_72\n      swap2\n      swap1\n      tag_63\n      jump\t// in\n    tag_72:\n      0x20\n      mload(0x40)\n      dup1\n      dup4\n      sub\n      dup2\n      dup7\n      dup1\n      extcodesize\n      iszero\n      dup1\n      iszero\n      tag_73\n      jumpi\n      0x00\n      dup1\n      revert\n    tag_73:\n      pop\n      gas\n      staticcall\n      iszero\n      dup1\n      iszero\n      tag_75\n      jumpi\n      returndatasize\n      0x00\n      dup1\n      returndatacopy\n      revert(0x00, returndatasize)\n    tag_75:\n      pop\n      pop\n      pop\n      pop\n      mload(0x40)\n      returndatasize\n      not(0x1f)\n      0x1f\n      dup3\n      add\n      and\n      dup3\n      add\n      dup1\n      0x40\n      mstore\n      pop\n      dup2\n      add\n      swap1\n      tag_76\n      swap2\n      swap1\n      tag_68\n      jump\t// in\n    tag_76:\n        /* \"Projects/horizon/contracts/EthSwap.sol\":2003:2053  tokenBuy.balanceOf(address(this)) <= _amountToSell */\n      gt\n      iszero\n        /* \"Projects/horizon/contracts/EthSwap.sol\":1995:2085  require(tokenBuy.balanceOf(address(this)) <= _amountToSell, \"Not enough funds on EthSwap\") */\n      tag_77\n      jumpi\n      mload(0x40)\n      0x08c379a000000000000000000000000000000000000000000000000000000000\n      dup2\n      mstore\n      0x04\n      add\n      tag_78\n      swap1\n      tag_79\n      jump\t// in\n    tag_78:\n      mload(0x40)\n      dup1\n      swap2\n      sub\n      swap1\n      revert\n    tag_77:\n        /* \"Projects/horizon/contracts/EthSwap.sol\":1031:2271  {... */\n      pop\n      pop\n        /* \"Projects/horizon/contracts/EthSwap.sol\":879:2271  function swapTokens(address _tokenToBuy, address _tokenToSell, uint _amountToSell, string memory _token1Name, string memory _token2Name) public payable {... */\n      pop\n      pop\n      pop\n      pop\n      pop\n      jump\t// out\n        /* \"Projects/horizon/contracts/EthSwap.sol\":371:398  uint public lfjTokenBalance */\n    tag_33:\n      sload(0x06)\n      dup2\n      jump\t// out\n        /* \"Projects/horizon/contracts/EthSwap.sol\":2777:3508  function sellTokens(uint _amount) public payable {... */\n    tag_38:\n        /* \"Projects/horizon/contracts/EthSwap.sol\":2932:2939  _amount */\n      dup1\n        /* \"Projects/horizon/contracts/EthSwap.sol\":2898:2906  tokenCZH */\n      0x01\n      0x00\n      swap1\n      sload\n      swap1\n      0x0100\n      exp\n      swap1\n      div\n      0xffffffffffffffffffffffffffffffffffffffff\n      and\n        /* \"Projects/horizon/contracts/EthSwap.sol\":2898:2916  tokenCZH.balanceOf */\n      0xffffffffffffffffffffffffffffffffffffffff\n      and\n      0x70a08231\n        /* \"Projects/horizon/contracts/EthSwap.sol\":2917:2927  msg.sender */\n      caller\n        /* \"Projects/horizon/contracts/EthSwap.sol\":2898:2928  tokenCZH.balanceOf(msg.sender) */\n      mload(0x40)\n      dup3\n      0xffffffff\n      and\n      0xe0\n      shl\n      dup2\n      mstore\n      0x04\n      add\n      tag_81\n      swap2\n      swap1\n      tag_63\n      jump\t// in\n    tag_81:\n      0x20\n      mload(0x40)\n      dup1\n      dup4\n      sub\n      dup2\n      dup7\n      dup1\n      extcodesize\n      iszero\n      dup1\n      iszero\n      tag_82\n      jumpi\n      0x00\n      dup1\n      revert\n    tag_82:\n      pop\n      gas\n      staticcall\n      iszero\n      dup1\n      iszero\n      tag_84\n      jumpi\n      returndatasize\n      0x00\n      dup1\n      returndatacopy\n      revert(0x00, returndatasize)\n    tag_84:\n      pop\n      pop\n      pop\n      pop\n      mload(0x40)\n      returndatasize\n      not(0x1f)\n      0x1f\n      dup3\n      add\n      and\n      dup3\n      add\n      dup1\n      0x40\n      mstore\n      pop\n      dup2\n      add\n      swap1\n      tag_85\n      swap2\n      swap1\n      tag_68\n      jump\t// in\n    tag_85:\n        /* \"Projects/horizon/contracts/EthSwap.sol\":2898:2939  tokenCZH.balanceOf(msg.sender) >= _amount */\n      lt\n      iszero\n        /* \"Projects/horizon/contracts/EthSwap.sol\":2890:2996  require(tokenCZH.balanceOf(msg.sender) >= _amount, \"You can not sell more tokens than you currently hold\") */\n      tag_86\n      jumpi\n      mload(0x40)\n      0x08c379a000000000000000000000000000000000000000000000000000000000\n      dup2\n      mstore\n      0x04\n      add\n      tag_87\n      swap1\n      tag_88\n      jump\t// in\n    tag_87:\n      mload(0x40)\n      dup1\n      swap2\n      sub\n      swap1\n      revert\n    tag_86:\n        /* \"Projects/horizon/contracts/EthSwap.sol\":3058:3074  uint etherAmount */\n      0x00\n        /* \"Projects/horizon/contracts/EthSwap.sol\":3087:3094  czhRate */\n      sload(0x03)\n        /* \"Projects/horizon/contracts/EthSwap.sol\":3077:3084  _amount */\n      dup3\n        /* \"Projects/horizon/contracts/EthSwap.sol\":3077:3094  _amount / czhRate */\n      tag_89\n      swap2\n      swap1\n      tag_90\n      jump\t// in\n    tag_89:\n        /* \"Projects/horizon/contracts/EthSwap.sol\":3058:3094  uint etherAmount = _amount / czhRate */\n      swap1\n      pop\n        /* \"Projects/horizon/contracts/EthSwap.sol\":3187:3198  etherAmount */\n      dup1\n        /* \"Projects/horizon/contracts/EthSwap.sol\":3162:3183  address(this).balance */\n      selfbalance\n        /* \"Projects/horizon/contracts/EthSwap.sol\":3162:3198  address(this).balance >= etherAmount */\n      lt\n      iszero\n        /* \"Projects/horizon/contracts/EthSwap.sol\":3154:3258  require(address(this).balance >= etherAmount, \"Swap contract does not have enough available ETH amount\") */\n      tag_91\n      jumpi\n      mload(0x40)\n      0x08c379a000000000000000000000000000000000000000000000000000000000\n      dup2\n      mstore\n      0x04\n      add\n      tag_92\n      swap1\n      tag_93\n      jump\t// in\n    tag_92:\n      mload(0x40)\n      dup1\n      swap2\n      sub\n      swap1\n      revert\n    tag_91:\n        /* \"Projects/horizon/contracts/EthSwap.sol\":3293:3301  tokenCZH */\n      0x01\n      0x00\n      swap1\n      sload\n      swap1\n      0x0100\n      exp\n      swap1\n      div\n      0xffffffffffffffffffffffffffffffffffffffff\n      and\n        /* \"Projects/horizon/contracts/EthSwap.sol\":3293:3314  tokenCZH.transferFrom */\n      0xffffffffffffffffffffffffffffffffffffffff\n      and\n      0x23b872dd\n        /* \"Projects/horizon/contracts/EthSwap.sol\":3315:3325  msg.sender */\n      caller\n        /* \"Projects/horizon/contracts/EthSwap.sol\":3335:3339  this */\n      address\n        /* \"Projects/horizon/contracts/EthSwap.sol\":3342:3349  _amount */\n      dup6\n        /* \"Projects/horizon/contracts/EthSwap.sol\":3293:3350  tokenCZH.transferFrom(msg.sender, address(this), _amount) */\n      mload(0x40)\n      dup5\n      0xffffffff\n      and\n      0xe0\n      shl\n      dup2\n      mstore\n      0x04\n      add\n      tag_94\n      swap4\n      swap3\n      swap2\n      swap1\n      tag_95\n      jump\t// in\n    tag_94:\n      0x20\n      mload(0x40)\n      dup1\n      dup4\n      sub\n      dup2\n      0x00\n      dup8\n      dup1\n      extcodesize\n      iszero\n      dup1\n      iszero\n      tag_96\n      jumpi\n      0x00\n      dup1\n      revert\n    tag_96:\n      pop\n      gas\n      call\n      iszero\n      dup1\n      iszero\n      tag_98\n      jumpi\n      returndatasize\n      0x00\n      dup1\n      returndatacopy\n      revert(0x00, returndatasize)\n    tag_98:\n      pop\n      pop\n      pop\n      pop\n      mload(0x40)\n      returndatasize\n      not(0x1f)\n      0x1f\n      dup3\n      add\n      and\n      dup3\n      add\n      dup1\n      0x40\n      mstore\n      pop\n      dup2\n      add\n      swap1\n      tag_99\n      swap2\n      swap1\n      tag_100\n      jump\t// in\n    tag_99:\n      pop\n        /* \"Projects/horizon/contracts/EthSwap.sol\":3368:3378  msg.sender */\n      caller\n        /* \"Projects/horizon/contracts/EthSwap.sol\":3360:3388  payable(msg.sender).transfer */\n      0xffffffffffffffffffffffffffffffffffffffff\n      and\n        /* \"Projects/horizon/contracts/EthSwap.sol\":3360:3401  payable(msg.sender).transfer(etherAmount) */\n      0x08fc\n        /* \"Projects/horizon/contracts/EthSwap.sol\":3389:3400  etherAmount */\n      dup3\n        /* \"Projects/horizon/contracts/EthSwap.sol\":3360:3401  payable(msg.sender).transfer(etherAmount) */\n      swap1\n      dup2\n      iszero\n      mul\n      swap1\n      mload(0x40)\n      0x00\n      mload(0x40)\n      dup1\n      dup4\n      sub\n      dup2\n      dup6\n      dup9\n      dup9\n      call\n      swap4\n      pop\n      pop\n      pop\n      pop\n      iszero\n      dup1\n      iszero\n      tag_102\n      jumpi\n      returndatasize\n      0x00\n      dup1\n      returndatacopy\n      revert(0x00, returndatasize)\n    tag_102:\n      pop\n        /* \"Projects/horizon/contracts/EthSwap.sol\":3442:3501  TokensSold(msg.sender, address(tokenCZH), _amount, czhRate) */\n      0x697c42d55a5e1fed3f464ec6f38b32546a0bd368dc8068b065c67566d73f3290\n        /* \"Projects/horizon/contracts/EthSwap.sol\":3453:3463  msg.sender */\n      caller\n        /* \"Projects/horizon/contracts/EthSwap.sol\":3473:3481  tokenCZH */\n      0x01\n      0x00\n      swap1\n      sload\n      swap1\n      0x0100\n      exp\n      swap1\n      div\n      0xffffffffffffffffffffffffffffffffffffffff\n      and\n        /* \"Projects/horizon/contracts/EthSwap.sol\":3484:3491  _amount */\n      dup5\n        /* \"Projects/horizon/contracts/EthSwap.sol\":3493:3500  czhRate */\n      sload(0x03)\n        /* \"Projects/horizon/contracts/EthSwap.sol\":3442:3501  TokensSold(msg.sender, address(tokenCZH), _amount, czhRate) */\n      mload(0x40)\n      tag_103\n      swap5\n      swap4\n      swap3\n      swap2\n      swap1\n      tag_104\n      jump\t// in\n    tag_103:\n      mload(0x40)\n      dup1\n      swap2\n      sub\n      swap1\n      log1\n        /* \"Projects/horizon/contracts/EthSwap.sol\":2826:3508  {... */\n      pop\n        /* \"Projects/horizon/contracts/EthSwap.sol\":2777:3508  function sellTokens(uint _amount) public payable {... */\n      pop\n      jump\t// out\n        /* \"Projects/horizon/contracts/EthSwap.sol\":190:209  CZH public tokenCZH */\n    tag_41:\n      0x01\n      0x00\n      swap1\n      sload\n      swap1\n      0x0100\n      exp\n      swap1\n      div\n      0xffffffffffffffffffffffffffffffffffffffff\n      and\n      dup2\n      jump\t// out\n        /* \"Projects/horizon/contracts/EthSwap.sol\":215:234  LFJ public tokenLFJ */\n    tag_46:\n      0x02\n      0x00\n      swap1\n      sload\n      swap1\n      0x0100\n      exp\n      swap1\n      div\n      0xffffffffffffffffffffffffffffffffffffffff\n      and\n      dup2\n      jump\t// out\n        /* \"Projects/horizon/contracts/EthSwap.sol\":240:265  uint public czhRate = 100 */\n    tag_51:\n      sload(0x03)\n      dup2\n      jump\t// out\n        /* \"Projects/horizon/contracts/EthSwap.sol\":2277:2771  function buyTokens() public payable {... */\n    tag_54:\n        /* \"Projects/horizon/contracts/EthSwap.sol\":2372:2388  uint tokenAmount */\n      0x00\n        /* \"Projects/horizon/contracts/EthSwap.sol\":2403:2410  czhRate */\n      sload(0x03)\n        /* \"Projects/horizon/contracts/EthSwap.sol\":2391:2400  msg.value */\n      callvalue\n        /* \"Projects/horizon/contracts/EthSwap.sol\":2391:2410  msg.value * czhRate */\n      tag_106\n      swap2\n      swap1\n      tag_107\n      jump\t// in\n    tag_106:\n        /* \"Projects/horizon/contracts/EthSwap.sol\":2372:2410  uint tokenAmount = msg.value * czhRate */\n      swap1\n      pop\n        /* \"Projects/horizon/contracts/EthSwap.sol\":2516:2527  tokenAmount */\n      dup1\n        /* \"Projects/horizon/contracts/EthSwap.sol\":2479:2487  tokenCZH */\n      0x01\n      0x00\n      swap1\n      sload\n      swap1\n      0x0100\n      exp\n      swap1\n      div\n      0xffffffffffffffffffffffffffffffffffffffff\n      and\n        /* \"Projects/horizon/contracts/EthSwap.sol\":2479:2497  tokenCZH.balanceOf */\n      0xffffffffffffffffffffffffffffffffffffffff\n      and\n      0x70a08231\n        /* \"Projects/horizon/contracts/EthSwap.sol\":2506:2510  this */\n      address\n        /* \"Projects/horizon/contracts/EthSwap.sol\":2479:2512  tokenCZH.balanceOf(address(this)) */\n      mload(0x40)\n      dup3\n      0xffffffff\n      and\n      0xe0\n      shl\n      dup2\n      mstore\n      0x04\n      add\n      tag_108\n      swap2\n      swap1\n      tag_63\n      jump\t// in\n    tag_108:\n      0x20\n      mload(0x40)\n      dup1\n      dup4\n      sub\n      dup2\n      dup7\n      dup1\n      extcodesize\n      iszero\n      dup1\n      iszero\n      tag_109\n      jumpi\n      0x00\n      dup1\n      revert\n    tag_109:\n      pop\n      gas\n      staticcall\n      iszero\n      dup1\n      iszero\n      tag_111\n      jumpi\n      returndatasize\n      0x00\n      dup1\n      returndatacopy\n      revert(0x00, returndatasize)\n    tag_111:\n      pop\n      pop\n      pop\n      pop\n      mload(0x40)\n      returndatasize\n      not(0x1f)\n      0x1f\n      dup3\n      add\n      and\n      dup3\n      add\n      dup1\n      0x40\n      mstore\n      pop\n      dup2\n      add\n      swap1\n      tag_112\n      swap2\n      swap1\n      tag_68\n      jump\t// in\n    tag_112:\n        /* \"Projects/horizon/contracts/EthSwap.sol\":2479:2527  tokenCZH.balanceOf(address(this)) >= tokenAmount */\n      lt\n      iszero\n        /* \"Projects/horizon/contracts/EthSwap.sol\":2471:2563  require(tokenCZH.balanceOf(address(this)) >= tokenAmount, \"Not enough CZH available to buy\") */\n      tag_113\n      jumpi\n      mload(0x40)\n      0x08c379a000000000000000000000000000000000000000000000000000000000\n      dup2\n      mstore\n      0x04\n      add\n      tag_114\n      swap1\n      tag_115\n      jump\t// in\n    tag_114:\n      mload(0x40)\n      dup1\n      swap2\n      sub\n      swap1\n      revert\n    tag_113:\n        /* \"Projects/horizon/contracts/EthSwap.sol\":2613:2621  tokenCZH */\n      0x01\n      0x00\n      swap1\n      sload\n      swap1\n      0x0100\n      exp\n      swap1\n      div\n      0xffffffffffffffffffffffffffffffffffffffff\n      and\n        /* \"Projects/horizon/contracts/EthSwap.sol\":2613:2630  tokenCZH.transfer */\n      0xffffffffffffffffffffffffffffffffffffffff\n      and\n      0xa9059cbb\n        /* \"Projects/horizon/contracts/EthSwap.sol\":2631:2641  msg.sender */\n      caller\n        /* \"Projects/horizon/contracts/EthSwap.sol\":2643:2654  tokenAmount */\n      dup4\n        /* \"Projects/horizon/contracts/EthSwap.sol\":2613:2655  tokenCZH.transfer(msg.sender, tokenAmount) */\n      mload(0x40)\n      dup4\n      0xffffffff\n      and\n      0xe0\n      shl\n      dup2\n      mstore\n      0x04\n      add\n      tag_116\n      swap3\n      swap2\n      swap1\n      tag_117\n      jump\t// in\n    tag_116:\n      0x20\n      mload(0x40)\n      dup1\n      dup4\n      sub\n      dup2\n      0x00\n      dup8\n      dup1\n      extcodesize\n      iszero\n      dup1\n      iszero\n      tag_118\n      jumpi\n      0x00\n      dup1\n      revert\n    tag_118:\n      pop\n      gas\n      call\n      iszero\n      dup1\n      iszero\n      tag_120\n      jumpi\n      returndatasize\n      0x00\n      dup1\n      returndatacopy\n      revert(0x00, returndatasize)\n    tag_120:\n      pop\n      pop\n      pop\n      pop\n      mload(0x40)\n      returndatasize\n      not(0x1f)\n      0x1f\n      dup3\n      add\n      and\n      dup3\n      add\n      dup1\n      0x40\n      mstore\n      pop\n      dup2\n      add\n      swap1\n      tag_121\n      swap2\n      swap1\n      tag_100\n      jump\t// in\n    tag_121:\n      pop\n        /* \"Projects/horizon/contracts/EthSwap.sol\":2696:2764  TokensPurchased(msg.sender, address(tokenCZH), tokenAmount, czhRate) */\n      0x6faf93231a456e552dbc9961f58d9713ee4f2e69d15f1975b050ef0911053a7b\n        /* \"Projects/horizon/contracts/EthSwap.sol\":2712:2722  msg.sender */\n      caller\n        /* \"Projects/horizon/contracts/EthSwap.sol\":2732:2740  tokenCZH */\n      0x01\n      0x00\n      swap1\n      sload\n      swap1\n      0x0100\n      exp\n      swap1\n      div\n      0xffffffffffffffffffffffffffffffffffffffff\n      and\n        /* \"Projects/horizon/contracts/EthSwap.sol\":2743:2754  tokenAmount */\n      dup4\n        /* \"Projects/horizon/contracts/EthSwap.sol\":2756:2763  czhRate */\n      sload(0x03)\n        /* \"Projects/horizon/contracts/EthSwap.sol\":2696:2764  TokensPurchased(msg.sender, address(tokenCZH), tokenAmount, czhRate) */\n      mload(0x40)\n      tag_122\n      swap5\n      swap4\n      swap3\n      swap2\n      swap1\n      tag_104\n      jump\t// in\n    tag_122:\n      mload(0x40)\n      dup1\n      swap2\n      sub\n      swap1\n      log1\n        /* \"Projects/horizon/contracts/EthSwap.sol\":2313:2771  {... */\n      pop\n        /* \"Projects/horizon/contracts/EthSwap.sol\":2277:2771  function buyTokens() public payable {... */\n      jump\t// out\n        /* \"#utility.yul\":7:419   */\n    tag_124:\n        /* \"#utility.yul\":85:90   */\n      0x00\n        /* \"#utility.yul\":110:176   */\n      tag_126\n        /* \"#utility.yul\":126:175   */\n      tag_127\n        /* \"#utility.yul\":168:174   */\n      dup5\n        /* \"#utility.yul\":126:175   */\n      tag_128\n      jump\t// in\n    tag_127:\n        /* \"#utility.yul\":110:176   */\n      tag_129\n      jump\t// in\n    tag_126:\n        /* \"#utility.yul\":101:176   */\n      swap1\n      pop\n        /* \"#utility.yul\":199:205   */\n      dup3\n        /* \"#utility.yul\":192:197   */\n      dup2\n        /* \"#utility.yul\":185:206   */\n      mstore\n        /* \"#utility.yul\":237:241   */\n      0x20\n        /* \"#utility.yul\":230:235   */\n      dup2\n        /* \"#utility.yul\":226:242   */\n      add\n        /* \"#utility.yul\":275:278   */\n      dup5\n        /* \"#utility.yul\":266:272   */\n      dup5\n        /* \"#utility.yul\":261:264   */\n      dup5\n        /* \"#utility.yul\":257:273   */\n      add\n        /* \"#utility.yul\":254:279   */\n      gt\n        /* \"#utility.yul\":251:363   */\n      iszero\n      tag_130\n      jumpi\n        /* \"#utility.yul\":282:361   */\n      tag_131\n      tag_132\n      jump\t// in\n    tag_131:\n        /* \"#utility.yul\":251:363   */\n    tag_130:\n        /* \"#utility.yul\":372:413   */\n      tag_133\n        /* \"#utility.yul\":406:412   */\n      dup5\n        /* \"#utility.yul\":401:404   */\n      dup3\n        /* \"#utility.yul\":396:399   */\n      dup6\n        /* \"#utility.yul\":372:413   */\n      tag_134\n      jump\t// in\n    tag_133:\n        /* \"#utility.yul\":91:419   */\n      pop\n        /* \"#utility.yul\":7:419   */\n      swap4\n      swap3\n      pop\n      pop\n      pop\n      jump\t// out\n        /* \"#utility.yul\":425:564   */\n    tag_135:\n        /* \"#utility.yul\":471:476   */\n      0x00\n        /* \"#utility.yul\":509:515   */\n      dup2\n        /* \"#utility.yul\":496:516   */\n      calldataload\n        /* \"#utility.yul\":487:516   */\n      swap1\n      pop\n        /* \"#utility.yul\":525:558   */\n      tag_137\n        /* \"#utility.yul\":552:557   */\n      dup2\n        /* \"#utility.yul\":525:558   */\n      tag_138\n      jump\t// in\n    tag_137:\n        /* \"#utility.yul\":425:564   */\n      swap3\n      swap2\n      pop\n      pop\n      jump\t// out\n        /* \"#utility.yul\":570:707   */\n    tag_139:\n        /* \"#utility.yul\":624:629   */\n      0x00\n        /* \"#utility.yul\":655:661   */\n      dup2\n        /* \"#utility.yul\":649:662   */\n      mload\n        /* \"#utility.yul\":640:662   */\n      swap1\n      pop\n        /* \"#utility.yul\":671:701   */\n      tag_141\n        /* \"#utility.yul\":695:700   */\n      dup2\n        /* \"#utility.yul\":671:701   */\n      tag_142\n      jump\t// in\n    tag_141:\n        /* \"#utility.yul\":570:707   */\n      swap3\n      swap2\n      pop\n      pop\n      jump\t// out\n        /* \"#utility.yul\":727:1067   */\n    tag_143:\n        /* \"#utility.yul\":783:788   */\n      0x00\n        /* \"#utility.yul\":832:835   */\n      dup3\n        /* \"#utility.yul\":825:829   */\n      0x1f\n        /* \"#utility.yul\":817:823   */\n      dup4\n        /* \"#utility.yul\":813:830   */\n      add\n        /* \"#utility.yul\":809:836   */\n      slt\n        /* \"#utility.yul\":799:921   */\n      tag_145\n      jumpi\n        /* \"#utility.yul\":840:919   */\n      tag_146\n      tag_147\n      jump\t// in\n    tag_146:\n        /* \"#utility.yul\":799:921   */\n    tag_145:\n        /* \"#utility.yul\":957:963   */\n      dup2\n        /* \"#utility.yul\":944:964   */\n      calldataload\n        /* \"#utility.yul\":982:1061   */\n      tag_148\n        /* \"#utility.yul\":1057:1060   */\n      dup5\n        /* \"#utility.yul\":1049:1055   */\n      dup3\n        /* \"#utility.yul\":1042:1046   */\n      0x20\n        /* \"#utility.yul\":1034:1040   */\n      dup7\n        /* \"#utility.yul\":1030:1047   */\n      add\n        /* \"#utility.yul\":982:1061   */\n      tag_124\n      jump\t// in\n    tag_148:\n        /* \"#utility.yul\":973:1061   */\n      swap2\n      pop\n        /* \"#utility.yul\":789:1067   */\n      pop\n        /* \"#utility.yul\":727:1067   */\n      swap3\n      swap2\n      pop\n      pop\n      jump\t// out\n        /* \"#utility.yul\":1073:1212   */\n    tag_149:\n        /* \"#utility.yul\":1119:1124   */\n      0x00\n        /* \"#utility.yul\":1157:1163   */\n      dup2\n        /* \"#utility.yul\":1144:1164   */\n      calldataload\n        /* \"#utility.yul\":1135:1164   */\n      swap1\n      pop\n        /* \"#utility.yul\":1173:1206   */\n      tag_151\n        /* \"#utility.yul\":1200:1205   */\n      dup2\n        /* \"#utility.yul\":1173:1206   */\n      tag_152\n      jump\t// in\n    tag_151:\n        /* \"#utility.yul\":1073:1212   */\n      swap3\n      swap2\n      pop\n      pop\n      jump\t// out\n        /* \"#utility.yul\":1218:1361   */\n    tag_153:\n        /* \"#utility.yul\":1275:1280   */\n      0x00\n        /* \"#utility.yul\":1306:1312   */\n      dup2\n        /* \"#utility.yul\":1300:1313   */\n      mload\n        /* \"#utility.yul\":1291:1313   */\n      swap1\n      pop\n        /* \"#utility.yul\":1322:1355   */\n      tag_155\n        /* \"#utility.yul\":1349:1354   */\n      dup2\n        /* \"#utility.yul\":1322:1355   */\n      tag_152\n      jump\t// in\n    tag_155:\n        /* \"#utility.yul\":1218:1361   */\n      swap3\n      swap2\n      pop\n      pop\n      jump\t// out\n        /* \"#utility.yul\":1367:2638   */\n    tag_29:\n        /* \"#utility.yul\":1482:1488   */\n      0x00\n        /* \"#utility.yul\":1490:1496   */\n      dup1\n        /* \"#utility.yul\":1498:1504   */\n      0x00\n        /* \"#utility.yul\":1506:1512   */\n      dup1\n        /* \"#utility.yul\":1514:1520   */\n      0x00\n        /* \"#utility.yul\":1563:1566   */\n      0xa0\n        /* \"#utility.yul\":1551:1560   */\n      dup7\n        /* \"#utility.yul\":1542:1549   */\n      dup9\n        /* \"#utility.yul\":1538:1561   */\n      sub\n        /* \"#utility.yul\":1534:1567   */\n      slt\n        /* \"#utility.yul\":1531:1651   */\n      iszero\n      tag_157\n      jumpi\n        /* \"#utility.yul\":1570:1649   */\n      tag_158\n      tag_159\n      jump\t// in\n    tag_158:\n        /* \"#utility.yul\":1531:1651   */\n    tag_157:\n        /* \"#utility.yul\":1690:1691   */\n      0x00\n        /* \"#utility.yul\":1715:1768   */\n      tag_160\n        /* \"#utility.yul\":1760:1767   */\n      dup9\n        /* \"#utility.yul\":1751:1757   */\n      dup3\n        /* \"#utility.yul\":1740:1749   */\n      dup10\n        /* \"#utility.yul\":1736:1758   */\n      add\n        /* \"#utility.yul\":1715:1768   */\n      tag_135\n      jump\t// in\n    tag_160:\n        /* \"#utility.yul\":1705:1768   */\n      swap6\n      pop\n        /* \"#utility.yul\":1661:1778   */\n      pop\n        /* \"#utility.yul\":1817:1819   */\n      0x20\n        /* \"#utility.yul\":1843:1896   */\n      tag_161\n        /* \"#utility.yul\":1888:1895   */\n      dup9\n        /* \"#utility.yul\":1879:1885   */\n      dup3\n        /* \"#utility.yul\":1868:1877   */\n      dup10\n        /* \"#utility.yul\":1864:1886   */\n      add\n        /* \"#utility.yul\":1843:1896   */\n      tag_135\n      jump\t// in\n    tag_161:\n        /* \"#utility.yul\":1833:1896   */\n      swap5\n      pop\n        /* \"#utility.yul\":1788:1906   */\n      pop\n        /* \"#utility.yul\":1945:1947   */\n      0x40\n        /* \"#utility.yul\":1971:2024   */\n      tag_162\n        /* \"#utility.yul\":2016:2023   */\n      dup9\n        /* \"#utility.yul\":2007:2013   */\n      dup3\n        /* \"#utility.yul\":1996:2005   */\n      dup10\n        /* \"#utility.yul\":1992:2014   */\n      add\n        /* \"#utility.yul\":1971:2024   */\n      tag_149\n      jump\t// in\n    tag_162:\n        /* \"#utility.yul\":1961:2024   */\n      swap4\n      pop\n        /* \"#utility.yul\":1916:2034   */\n      pop\n        /* \"#utility.yul\":2101:2103   */\n      0x60\n        /* \"#utility.yul\":2090:2099   */\n      dup7\n        /* \"#utility.yul\":2086:2104   */\n      add\n        /* \"#utility.yul\":2073:2105   */\n      calldataload\n        /* \"#utility.yul\":2132:2150   */\n      0xffffffffffffffff\n        /* \"#utility.yul\":2124:2130   */\n      dup2\n        /* \"#utility.yul\":2121:2151   */\n      gt\n        /* \"#utility.yul\":2118:2235   */\n      iszero\n      tag_163\n      jumpi\n        /* \"#utility.yul\":2154:2233   */\n      tag_164\n      tag_165\n      jump\t// in\n    tag_164:\n        /* \"#utility.yul\":2118:2235   */\n    tag_163:\n        /* \"#utility.yul\":2259:2322   */\n      tag_166\n        /* \"#utility.yul\":2314:2321   */\n      dup9\n        /* \"#utility.yul\":2305:2311   */\n      dup3\n        /* \"#utility.yul\":2294:2303   */\n      dup10\n        /* \"#utility.yul\":2290:2312   */\n      add\n        /* \"#utility.yul\":2259:2322   */\n      tag_143\n      jump\t// in\n    tag_166:\n        /* \"#utility.yul\":2249:2322   */\n      swap3\n      pop\n        /* \"#utility.yul\":2044:2332   */\n      pop\n        /* \"#utility.yul\":2399:2402   */\n      0x80\n        /* \"#utility.yul\":2388:2397   */\n      dup7\n        /* \"#utility.yul\":2384:2403   */\n      add\n        /* \"#utility.yul\":2371:2404   */\n      calldataload\n        /* \"#utility.yul\":2431:2449   */\n      0xffffffffffffffff\n        /* \"#utility.yul\":2423:2429   */\n      dup2\n        /* \"#utility.yul\":2420:2450   */\n      gt\n        /* \"#utility.yul\":2417:2534   */\n      iszero\n      tag_167\n      jumpi\n        /* \"#utility.yul\":2453:2532   */\n      tag_168\n      tag_165\n      jump\t// in\n    tag_168:\n        /* \"#utility.yul\":2417:2534   */\n    tag_167:\n        /* \"#utility.yul\":2558:2621   */\n      tag_169\n        /* \"#utility.yul\":2613:2620   */\n      dup9\n        /* \"#utility.yul\":2604:2610   */\n      dup3\n        /* \"#utility.yul\":2593:2602   */\n      dup10\n        /* \"#utility.yul\":2589:2611   */\n      add\n        /* \"#utility.yul\":2558:2621   */\n      tag_143\n      jump\t// in\n    tag_169:\n        /* \"#utility.yul\":2548:2621   */\n      swap2\n      pop\n        /* \"#utility.yul\":2342:2631   */\n      pop\n        /* \"#utility.yul\":1367:2638   */\n      swap3\n      swap6\n      pop\n      swap3\n      swap6\n      swap1\n      swap4\n      pop\n      jump\t// out\n        /* \"#utility.yul\":2644:2989   */\n    tag_100:\n        /* \"#utility.yul\":2711:2717   */\n      0x00\n        /* \"#utility.yul\":2760:2762   */\n      0x20\n        /* \"#utility.yul\":2748:2757   */\n      dup3\n        /* \"#utility.yul\":2739:2746   */\n      dup5\n        /* \"#utility.yul\":2735:2758   */\n      sub\n        /* \"#utility.yul\":2731:2763   */\n      slt\n        /* \"#utility.yul\":2728:2847   */\n      iszero\n      tag_171\n      jumpi\n        /* \"#utility.yul\":2766:2845   */\n      tag_172\n      tag_159\n      jump\t// in\n    tag_172:\n        /* \"#utility.yul\":2728:2847   */\n    tag_171:\n        /* \"#utility.yul\":2886:2887   */\n      0x00\n        /* \"#utility.yul\":2911:2972   */\n      tag_173\n        /* \"#utility.yul\":2964:2971   */\n      dup5\n        /* \"#utility.yul\":2955:2961   */\n      dup3\n        /* \"#utility.yul\":2944:2953   */\n      dup6\n        /* \"#utility.yul\":2940:2962   */\n      add\n        /* \"#utility.yul\":2911:2972   */\n      tag_139\n      jump\t// in\n    tag_173:\n        /* \"#utility.yul\":2901:2972   */\n      swap2\n      pop\n        /* \"#utility.yul\":2857:2982   */\n      pop\n        /* \"#utility.yul\":2644:2989   */\n      swap3\n      swap2\n      pop\n      pop\n      jump\t// out\n        /* \"#utility.yul\":2995:3324   */\n    tag_37:\n        /* \"#utility.yul\":3054:3060   */\n      0x00\n        /* \"#utility.yul\":3103:3105   */\n      0x20\n        /* \"#utility.yul\":3091:3100   */\n      dup3\n        /* \"#utility.yul\":3082:3089   */\n      dup5\n        /* \"#utility.yul\":3078:3101   */\n      sub\n        /* \"#utility.yul\":3074:3106   */\n      slt\n        /* \"#utility.yul\":3071:3190   */\n      iszero\n      tag_175\n      jumpi\n        /* \"#utility.yul\":3109:3188   */\n      tag_176\n      tag_159\n      jump\t// in\n    tag_176:\n        /* \"#utility.yul\":3071:3190   */\n    tag_175:\n        /* \"#utility.yul\":3229:3230   */\n      0x00\n        /* \"#utility.yul\":3254:3307   */\n      tag_177\n        /* \"#utility.yul\":3299:3306   */\n      dup5\n        /* \"#utility.yul\":3290:3296   */\n      dup3\n        /* \"#utility.yul\":3279:3288   */\n      dup6\n        /* \"#utility.yul\":3275:3297   */\n      add\n        /* \"#utility.yul\":3254:3307   */\n      tag_149\n      jump\t// in\n    tag_177:\n        /* \"#utility.yul\":3244:3307   */\n      swap2\n      pop\n        /* \"#utility.yul\":3200:3317   */\n      pop\n        /* \"#utility.yul\":2995:3324   */\n      swap3\n      swap2\n      pop\n      pop\n      jump\t// out\n        /* \"#utility.yul\":3330:3681   */\n    tag_68:\n        /* \"#utility.yul\":3400:3406   */\n      0x00\n        /* \"#utility.yul\":3449:3451   */\n      0x20\n        /* \"#utility.yul\":3437:3446   */\n      dup3\n        /* \"#utility.yul\":3428:3435   */\n      dup5\n        /* \"#utility.yul\":3424:3447   */\n      sub\n        /* \"#utility.yul\":3420:3452   */\n      slt\n        /* \"#utility.yul\":3417:3536   */\n      iszero\n      tag_179\n      jumpi\n        /* \"#utility.yul\":3455:3534   */\n      tag_180\n      tag_159\n      jump\t// in\n    tag_180:\n        /* \"#utility.yul\":3417:3536   */\n    tag_179:\n        /* \"#utility.yul\":3575:3576   */\n      0x00\n        /* \"#utility.yul\":3600:3664   */\n      tag_181\n        /* \"#utility.yul\":3656:3663   */\n      dup5\n        /* \"#utility.yul\":3647:3653   */\n      dup3\n        /* \"#utility.yul\":3636:3645   */\n      dup6\n        /* \"#utility.yul\":3632:3654   */\n      add\n        /* \"#utility.yul\":3600:3664   */\n      tag_153\n      jump\t// in\n    tag_181:\n        /* \"#utility.yul\":3590:3664   */\n      swap2\n      pop\n        /* \"#utility.yul\":3546:3674   */\n      pop\n        /* \"#utility.yul\":3330:3681   */\n      swap3\n      swap2\n      pop\n      pop\n      jump\t// out\n        /* \"#utility.yul\":3687:3805   */\n    tag_182:\n        /* \"#utility.yul\":3774:3798   */\n      tag_184\n        /* \"#utility.yul\":3792:3797   */\n      dup2\n        /* \"#utility.yul\":3774:3798   */\n      tag_185\n      jump\t// in\n    tag_184:\n        /* \"#utility.yul\":3769:3772   */\n      dup3\n        /* \"#utility.yul\":3762:3799   */\n      mstore\n        /* \"#utility.yul\":3687:3805   */\n      pop\n      pop\n      jump\t// out\n        /* \"#utility.yul\":3811:3964   */\n    tag_186:\n        /* \"#utility.yul\":3909:3957   */\n      tag_188\n        /* \"#utility.yul\":3951:3956   */\n      dup2\n        /* \"#utility.yul\":3909:3957   */\n      tag_189\n      jump\t// in\n    tag_188:\n        /* \"#utility.yul\":3904:3907   */\n      dup3\n        /* \"#utility.yul\":3897:3958   */\n      mstore\n        /* \"#utility.yul\":3811:3964   */\n      pop\n      pop\n      jump\t// out\n        /* \"#utility.yul\":3970:4123   */\n    tag_190:\n        /* \"#utility.yul\":4068:4116   */\n      tag_192\n        /* \"#utility.yul\":4110:4115   */\n      dup2\n        /* \"#utility.yul\":4068:4116   */\n      tag_193\n      jump\t// in\n    tag_192:\n        /* \"#utility.yul\":4063:4066   */\n      dup3\n        /* \"#utility.yul\":4056:4117   */\n      mstore\n        /* \"#utility.yul\":3970:4123   */\n      pop\n      pop\n      jump\t// out\n        /* \"#utility.yul\":4129:4493   */\n    tag_194:\n        /* \"#utility.yul\":4217:4220   */\n      0x00\n        /* \"#utility.yul\":4245:4284   */\n      tag_196\n        /* \"#utility.yul\":4278:4283   */\n      dup3\n        /* \"#utility.yul\":4245:4284   */\n      tag_197\n      jump\t// in\n    tag_196:\n        /* \"#utility.yul\":4300:4371   */\n      tag_198\n        /* \"#utility.yul\":4364:4370   */\n      dup2\n        /* \"#utility.yul\":4359:4362   */\n      dup6\n        /* \"#utility.yul\":4300:4371   */\n      tag_199\n      jump\t// in\n    tag_198:\n        /* \"#utility.yul\":4293:4371   */\n      swap4\n      pop\n        /* \"#utility.yul\":4380:4432   */\n      tag_200\n        /* \"#utility.yul\":4425:4431   */\n      dup2\n        /* \"#utility.yul\":4420:4423   */\n      dup6\n        /* \"#utility.yul\":4413:4417   */\n      0x20\n        /* \"#utility.yul\":4406:4411   */\n      dup7\n        /* \"#utility.yul\":4402:4418   */\n      add\n        /* \"#utility.yul\":4380:4432   */\n      tag_201\n      jump\t// in\n    tag_200:\n        /* \"#utility.yul\":4457:4486   */\n      tag_202\n        /* \"#utility.yul\":4479:4485   */\n      dup2\n        /* \"#utility.yul\":4457:4486   */\n      tag_203\n      jump\t// in\n    tag_202:\n        /* \"#utility.yul\":4452:4455   */\n      dup5\n        /* \"#utility.yul\":4448:4487   */\n      add\n        /* \"#utility.yul\":4441:4487   */\n      swap2\n      pop\n        /* \"#utility.yul\":4221:4493   */\n      pop\n        /* \"#utility.yul\":4129:4493   */\n      swap3\n      swap2\n      pop\n      pop\n      jump\t// out\n        /* \"#utility.yul\":4499:4865   */\n    tag_204:\n        /* \"#utility.yul\":4641:4644   */\n      0x00\n        /* \"#utility.yul\":4662:4729   */\n      tag_206\n        /* \"#utility.yul\":4726:4728   */\n      0x37\n        /* \"#utility.yul\":4721:4724   */\n      dup4\n        /* \"#utility.yul\":4662:4729   */\n      tag_199\n      jump\t// in\n    tag_206:\n        /* \"#utility.yul\":4655:4729   */\n      swap2\n      pop\n        /* \"#utility.yul\":4738:4831   */\n      tag_207\n        /* \"#utility.yul\":4827:4830   */\n      dup3\n        /* \"#utility.yul\":4738:4831   */\n      tag_208\n      jump\t// in\n    tag_207:\n        /* \"#utility.yul\":4856:4858   */\n      0x40\n        /* \"#utility.yul\":4851:4854   */\n      dup3\n        /* \"#utility.yul\":4847:4859   */\n      add\n        /* \"#utility.yul\":4840:4859   */\n      swap1\n      pop\n        /* \"#utility.yul\":4499:4865   */\n      swap2\n      swap1\n      pop\n      jump\t// out\n        /* \"#utility.yul\":4871:5237   */\n    tag_209:\n        /* \"#utility.yul\":5013:5016   */\n      0x00\n        /* \"#utility.yul\":5034:5101   */\n      tag_211\n        /* \"#utility.yul\":5098:5100   */\n      0x34\n        /* \"#utility.yul\":5093:5096   */\n      dup4\n        /* \"#utility.yul\":5034:5101   */\n      tag_199\n      jump\t// in\n    tag_211:\n        /* \"#utility.yul\":5027:5101   */\n      swap2\n      pop\n        /* \"#utility.yul\":5110:5203   */\n      tag_212\n        /* \"#utility.yul\":5199:5202   */\n      dup3\n        /* \"#utility.yul\":5110:5203   */\n      tag_213\n      jump\t// in\n    tag_212:\n        /* \"#utility.yul\":5228:5230   */\n      0x40\n        /* \"#utility.yul\":5223:5226   */\n      dup3\n        /* \"#utility.yul\":5219:5231   */\n      add\n        /* \"#utility.yul\":5212:5231   */\n      swap1\n      pop\n        /* \"#utility.yul\":4871:5237   */\n      swap2\n      swap1\n      pop\n      jump\t// out\n        /* \"#utility.yul\":5243:5609   */\n    tag_214:\n        /* \"#utility.yul\":5385:5388   */\n      0x00\n        /* \"#utility.yul\":5406:5473   */\n      tag_216\n        /* \"#utility.yul\":5470:5472   */\n      0x1f\n        /* \"#utility.yul\":5465:5468   */\n      dup4\n        /* \"#utility.yul\":5406:5473   */\n      tag_199\n      jump\t// in\n    tag_216:\n        /* \"#utility.yul\":5399:5473   */\n      swap2\n      pop\n        /* \"#utility.yul\":5482:5575   */\n      tag_217\n        /* \"#utility.yul\":5571:5574   */\n      dup3\n        /* \"#utility.yul\":5482:5575   */\n      tag_218\n      jump\t// in\n    tag_217:\n        /* \"#utility.yul\":5600:5602   */\n      0x20\n        /* \"#utility.yul\":5595:5598   */\n      dup3\n        /* \"#utility.yul\":5591:5603   */\n      add\n        /* \"#utility.yul\":5584:5603   */\n      swap1\n      pop\n        /* \"#utility.yul\":5243:5609   */\n      swap2\n      swap1\n      pop\n      jump\t// out\n        /* \"#utility.yul\":5615:5981   */\n    tag_219:\n        /* \"#utility.yul\":5757:5760   */\n      0x00\n        /* \"#utility.yul\":5778:5845   */\n      tag_221\n        /* \"#utility.yul\":5842:5844   */\n      0x1b\n        /* \"#utility.yul\":5837:5840   */\n      dup4\n        /* \"#utility.yul\":5778:5845   */\n      tag_199\n      jump\t// in\n    tag_221:\n        /* \"#utility.yul\":5771:5845   */\n      swap2\n      pop\n        /* \"#utility.yul\":5854:5947   */\n      tag_222\n        /* \"#utility.yul\":5943:5946   */\n      dup3\n        /* \"#utility.yul\":5854:5947   */\n      tag_223\n      jump\t// in\n    tag_222:\n        /* \"#utility.yul\":5972:5974   */\n      0x20\n        /* \"#utility.yul\":5967:5970   */\n      dup3\n        /* \"#utility.yul\":5963:5975   */\n      add\n        /* \"#utility.yul\":5956:5975   */\n      swap1\n      pop\n        /* \"#utility.yul\":5615:5981   */\n      swap2\n      swap1\n      pop\n      jump\t// out\n        /* \"#utility.yul\":5987:6353   */\n    tag_224:\n        /* \"#utility.yul\":6129:6132   */\n      0x00\n        /* \"#utility.yul\":6150:6217   */\n      tag_226\n        /* \"#utility.yul\":6214:6216   */\n      0x18\n        /* \"#utility.yul\":6209:6212   */\n      dup4\n        /* \"#utility.yul\":6150:6217   */\n      tag_199\n      jump\t// in\n    tag_226:\n        /* \"#utility.yul\":6143:6217   */\n      swap2\n      pop\n        /* \"#utility.yul\":6226:6319   */\n      tag_227\n        /* \"#utility.yul\":6315:6318   */\n      dup3\n        /* \"#utility.yul\":6226:6319   */\n      tag_228\n      jump\t// in\n    tag_227:\n        /* \"#utility.yul\":6344:6346   */\n      0x20\n        /* \"#utility.yul\":6339:6342   */\n      dup3\n        /* \"#utility.yul\":6335:6347   */\n      add\n        /* \"#utility.yul\":6328:6347   */\n      swap1\n      pop\n        /* \"#utility.yul\":5987:6353   */\n      swap2\n      swap1\n      pop\n      jump\t// out\n        /* \"#utility.yul\":6359:6477   */\n    tag_229:\n        /* \"#utility.yul\":6446:6470   */\n      tag_231\n        /* \"#utility.yul\":6464:6469   */\n      dup2\n        /* \"#utility.yul\":6446:6470   */\n      tag_232\n      jump\t// in\n    tag_231:\n        /* \"#utility.yul\":6441:6444   */\n      dup3\n        /* \"#utility.yul\":6434:6471   */\n      mstore\n        /* \"#utility.yul\":6359:6477   */\n      pop\n      pop\n      jump\t// out\n        /* \"#utility.yul\":6483:6705   */\n    tag_63:\n        /* \"#utility.yul\":6576:6580   */\n      0x00\n        /* \"#utility.yul\":6614:6616   */\n      0x20\n        /* \"#utility.yul\":6603:6612   */\n      dup3\n        /* \"#utility.yul\":6599:6617   */\n      add\n        /* \"#utility.yul\":6591:6617   */\n      swap1\n      pop\n        /* \"#utility.yul\":6627:6698   */\n      tag_234\n        /* \"#utility.yul\":6695:6696   */\n      0x00\n        /* \"#utility.yul\":6684:6693   */\n      dup4\n        /* \"#utility.yul\":6680:6697   */\n      add\n        /* \"#utility.yul\":6671:6677   */\n      dup5\n        /* \"#utility.yul\":6627:6698   */\n      tag_182\n      jump\t// in\n    tag_234:\n        /* \"#utility.yul\":6483:6705   */\n      swap3\n      swap2\n      pop\n      pop\n      jump\t// out\n        /* \"#utility.yul\":6711:7153   */\n    tag_95:\n        /* \"#utility.yul\":6860:6864   */\n      0x00\n        /* \"#utility.yul\":6898:6900   */\n      0x60\n        /* \"#utility.yul\":6887:6896   */\n      dup3\n        /* \"#utility.yul\":6883:6901   */\n      add\n        /* \"#utility.yul\":6875:6901   */\n      swap1\n      pop\n        /* \"#utility.yul\":6911:6982   */\n      tag_236\n        /* \"#utility.yul\":6979:6980   */\n      0x00\n        /* \"#utility.yul\":6968:6977   */\n      dup4\n        /* \"#utility.yul\":6964:6981   */\n      add\n        /* \"#utility.yul\":6955:6961   */\n      dup7\n        /* \"#utility.yul\":6911:6982   */\n      tag_182\n      jump\t// in\n    tag_236:\n        /* \"#utility.yul\":6992:7064   */\n      tag_237\n        /* \"#utility.yul\":7060:7062   */\n      0x20\n        /* \"#utility.yul\":7049:7058   */\n      dup4\n        /* \"#utility.yul\":7045:7063   */\n      add\n        /* \"#utility.yul\":7036:7042   */\n      dup6\n        /* \"#utility.yul\":6992:7064   */\n      tag_182\n      jump\t// in\n    tag_237:\n        /* \"#utility.yul\":7074:7146   */\n      tag_238\n        /* \"#utility.yul\":7142:7144   */\n      0x40\n        /* \"#utility.yul\":7131:7140   */\n      dup4\n        /* \"#utility.yul\":7127:7145   */\n      add\n        /* \"#utility.yul\":7118:7124   */\n      dup5\n        /* \"#utility.yul\":7074:7146   */\n      tag_229\n      jump\t// in\n    tag_238:\n        /* \"#utility.yul\":6711:7153   */\n      swap5\n      swap4\n      pop\n      pop\n      pop\n      pop\n      jump\t// out\n        /* \"#utility.yul\":7159:7712   */\n    tag_104:\n        /* \"#utility.yul\":7336:7340   */\n      0x00\n        /* \"#utility.yul\":7374:7377   */\n      0x80\n        /* \"#utility.yul\":7363:7372   */\n      dup3\n        /* \"#utility.yul\":7359:7378   */\n      add\n        /* \"#utility.yul\":7351:7378   */\n      swap1\n      pop\n        /* \"#utility.yul\":7388:7459   */\n      tag_240\n        /* \"#utility.yul\":7456:7457   */\n      0x00\n        /* \"#utility.yul\":7445:7454   */\n      dup4\n        /* \"#utility.yul\":7441:7458   */\n      add\n        /* \"#utility.yul\":7432:7438   */\n      dup8\n        /* \"#utility.yul\":7388:7459   */\n      tag_182\n      jump\t// in\n    tag_240:\n        /* \"#utility.yul\":7469:7541   */\n      tag_241\n        /* \"#utility.yul\":7537:7539   */\n      0x20\n        /* \"#utility.yul\":7526:7535   */\n      dup4\n        /* \"#utility.yul\":7522:7540   */\n      add\n        /* \"#utility.yul\":7513:7519   */\n      dup7\n        /* \"#utility.yul\":7469:7541   */\n      tag_182\n      jump\t// in\n    tag_241:\n        /* \"#utility.yul\":7551:7623   */\n      tag_242\n        /* \"#utility.yul\":7619:7621   */\n      0x40\n        /* \"#utility.yul\":7608:7617   */\n      dup4\n        /* \"#utility.yul\":7604:7622   */\n      add\n        /* \"#utility.yul\":7595:7601   */\n      dup6\n        /* \"#utility.yul\":7551:7623   */\n      tag_229\n      jump\t// in\n    tag_242:\n        /* \"#utility.yul\":7633:7705   */\n      tag_243\n        /* \"#utility.yul\":7701:7703   */\n      0x60\n        /* \"#utility.yul\":7690:7699   */\n      dup4\n        /* \"#utility.yul\":7686:7704   */\n      add\n        /* \"#utility.yul\":7677:7683   */\n      dup5\n        /* \"#utility.yul\":7633:7705   */\n      tag_229\n      jump\t// in\n    tag_243:\n        /* \"#utility.yul\":7159:7712   */\n      swap6\n      swap5\n      pop\n      pop\n      pop\n      pop\n      pop\n      jump\t// out\n        /* \"#utility.yul\":7718:8050   */\n    tag_117:\n        /* \"#utility.yul\":7839:7843   */\n      0x00\n        /* \"#utility.yul\":7877:7879   */\n      0x40\n        /* \"#utility.yul\":7866:7875   */\n      dup3\n        /* \"#utility.yul\":7862:7880   */\n      add\n        /* \"#utility.yul\":7854:7880   */\n      swap1\n      pop\n        /* \"#utility.yul\":7890:7961   */\n      tag_245\n        /* \"#utility.yul\":7958:7959   */\n      0x00\n        /* \"#utility.yul\":7947:7956   */\n      dup4\n        /* \"#utility.yul\":7943:7960   */\n      add\n        /* \"#utility.yul\":7934:7940   */\n      dup6\n        /* \"#utility.yul\":7890:7961   */\n      tag_182\n      jump\t// in\n    tag_245:\n        /* \"#utility.yul\":7971:8043   */\n      tag_246\n        /* \"#utility.yul\":8039:8041   */\n      0x20\n        /* \"#utility.yul\":8028:8037   */\n      dup4\n        /* \"#utility.yul\":8024:8042   */\n      add\n        /* \"#utility.yul\":8015:8021   */\n      dup5\n        /* \"#utility.yul\":7971:8043   */\n      tag_229\n      jump\t// in\n    tag_246:\n        /* \"#utility.yul\":7718:8050   */\n      swap4\n      swap3\n      pop\n      pop\n      pop\n      jump\t// out\n        /* \"#utility.yul\":8056:8300   */\n    tag_43:\n        /* \"#utility.yul\":8160:8164   */\n      0x00\n        /* \"#utility.yul\":8198:8200   */\n      0x20\n        /* \"#utility.yul\":8187:8196   */\n      dup3\n        /* \"#utility.yul\":8183:8201   */\n      add\n        /* \"#utility.yul\":8175:8201   */\n      swap1\n      pop\n        /* \"#utility.yul\":8211:8293   */\n      tag_248\n        /* \"#utility.yul\":8290:8291   */\n      0x00\n        /* \"#utility.yul\":8279:8288   */\n      dup4\n        /* \"#utility.yul\":8275:8292   */\n      add\n        /* \"#utility.yul\":8266:8272   */\n      dup5\n        /* \"#utility.yul\":8211:8293   */\n      tag_186\n      jump\t// in\n    tag_248:\n        /* \"#utility.yul\":8056:8300   */\n      swap3\n      swap2\n      pop\n      pop\n      jump\t// out\n        /* \"#utility.yul\":8306:8550   */\n    tag_48:\n        /* \"#utility.yul\":8410:8414   */\n      0x00\n        /* \"#utility.yul\":8448:8450   */\n      0x20\n        /* \"#utility.yul\":8437:8446   */\n      dup3\n        /* \"#utility.yul\":8433:8451   */\n      add\n        /* \"#utility.yul\":8425:8451   */\n      swap1\n      pop\n        /* \"#utility.yul\":8461:8543   */\n      tag_250\n        /* \"#utility.yul\":8540:8541   */\n      0x00\n        /* \"#utility.yul\":8529:8538   */\n      dup4\n        /* \"#utility.yul\":8525:8542   */\n      add\n        /* \"#utility.yul\":8516:8522   */\n      dup5\n        /* \"#utility.yul\":8461:8543   */\n      tag_190\n      jump\t// in\n    tag_250:\n        /* \"#utility.yul\":8306:8550   */\n      swap3\n      swap2\n      pop\n      pop\n      jump\t// out\n        /* \"#utility.yul\":8556:8869   */\n    tag_17:\n        /* \"#utility.yul\":8669:8673   */\n      0x00\n        /* \"#utility.yul\":8707:8709   */\n      0x20\n        /* \"#utility.yul\":8696:8705   */\n      dup3\n        /* \"#utility.yul\":8692:8710   */\n      add\n        /* \"#utility.yul\":8684:8710   */\n      swap1\n      pop\n        /* \"#utility.yul\":8756:8765   */\n      dup2\n        /* \"#utility.yul\":8750:8754   */\n      dup2\n        /* \"#utility.yul\":8746:8766   */\n      sub\n        /* \"#utility.yul\":8742:8743   */\n      0x00\n        /* \"#utility.yul\":8731:8740   */\n      dup4\n        /* \"#utility.yul\":8727:8744   */\n      add\n        /* \"#utility.yul\":8720:8767   */\n      mstore\n        /* \"#utility.yul\":8784:8862   */\n      tag_252\n        /* \"#utility.yul\":8857:8861   */\n      dup2\n        /* \"#utility.yul\":8848:8854   */\n      dup5\n        /* \"#utility.yul\":8784:8862   */\n      tag_194\n      jump\t// in\n    tag_252:\n        /* \"#utility.yul\":8776:8862   */\n      swap1\n      pop\n        /* \"#utility.yul\":8556:8869   */\n      swap3\n      swap2\n      pop\n      pop\n      jump\t// out\n        /* \"#utility.yul\":8875:9294   */\n    tag_93:\n        /* \"#utility.yul\":9041:9045   */\n      0x00\n        /* \"#utility.yul\":9079:9081   */\n      0x20\n        /* \"#utility.yul\":9068:9077   */\n      dup3\n        /* \"#utility.yul\":9064:9082   */\n      add\n        /* \"#utility.yul\":9056:9082   */\n      swap1\n      pop\n        /* \"#utility.yul\":9128:9137   */\n      dup2\n        /* \"#utility.yul\":9122:9126   */\n      dup2\n        /* \"#utility.yul\":9118:9138   */\n      sub\n        /* \"#utility.yul\":9114:9115   */\n      0x00\n        /* \"#utility.yul\":9103:9112   */\n      dup4\n        /* \"#utility.yul\":9099:9116   */\n      add\n        /* \"#utility.yul\":9092:9139   */\n      mstore\n        /* \"#utility.yul\":9156:9287   */\n      tag_254\n        /* \"#utility.yul\":9282:9286   */\n      dup2\n        /* \"#utility.yul\":9156:9287   */\n      tag_204\n      jump\t// in\n    tag_254:\n        /* \"#utility.yul\":9148:9287   */\n      swap1\n      pop\n        /* \"#utility.yul\":8875:9294   */\n      swap2\n      swap1\n      pop\n      jump\t// out\n        /* \"#utility.yul\":9300:9719   */\n    tag_88:\n        /* \"#utility.yul\":9466:9470   */\n      0x00\n        /* \"#utility.yul\":9504:9506   */\n      0x20\n        /* \"#utility.yul\":9493:9502   */\n      dup3\n        /* \"#utility.yul\":9489:9507   */\n      add\n        /* \"#utility.yul\":9481:9507   */\n      swap1\n      pop\n        /* \"#utility.yul\":9553:9562   */\n      dup2\n        /* \"#utility.yul\":9547:9551   */\n      dup2\n        /* \"#utility.yul\":9543:9563   */\n      sub\n        /* \"#utility.yul\":9539:9540   */\n      0x00\n        /* \"#utility.yul\":9528:9537   */\n      dup4\n        /* \"#utility.yul\":9524:9541   */\n      add\n        /* \"#utility.yul\":9517:9564   */\n      mstore\n        /* \"#utility.yul\":9581:9712   */\n      tag_256\n        /* \"#utility.yul\":9707:9711   */\n      dup2\n        /* \"#utility.yul\":9581:9712   */\n      tag_209\n      jump\t// in\n    tag_256:\n        /* \"#utility.yul\":9573:9712   */\n      swap1\n      pop\n        /* \"#utility.yul\":9300:9719   */\n      swap2\n      swap1\n      pop\n      jump\t// out\n        /* \"#utility.yul\":9725:10144   */\n    tag_115:\n        /* \"#utility.yul\":9891:9895   */\n      0x00\n        /* \"#utility.yul\":9929:9931   */\n      0x20\n        /* \"#utility.yul\":9918:9927   */\n      dup3\n        /* \"#utility.yul\":9914:9932   */\n      add\n        /* \"#utility.yul\":9906:9932   */\n      swap1\n      pop\n        /* \"#utility.yul\":9978:9987   */\n      dup2\n        /* \"#utility.yul\":9972:9976   */\n      dup2\n        /* \"#utility.yul\":9968:9988   */\n      sub\n        /* \"#utility.yul\":9964:9965   */\n      0x00\n        /* \"#utility.yul\":9953:9962   */\n      dup4\n        /* \"#utility.yul\":9949:9966   */\n      add\n        /* \"#utility.yul\":9942:9989   */\n      mstore\n        /* \"#utility.yul\":10006:10137   */\n      tag_258\n        /* \"#utility.yul\":10132:10136   */\n      dup2\n        /* \"#utility.yul\":10006:10137   */\n      tag_214\n      jump\t// in\n    tag_258:\n        /* \"#utility.yul\":9998:10137   */\n      swap1\n      pop\n        /* \"#utility.yul\":9725:10144   */\n      swap2\n      swap1\n      pop\n      jump\t// out\n        /* \"#utility.yul\":10150:10569   */\n    tag_79:\n        /* \"#utility.yul\":10316:10320   */\n      0x00\n        /* \"#utility.yul\":10354:10356   */\n      0x20\n        /* \"#utility.yul\":10343:10352   */\n      dup3\n        /* \"#utility.yul\":10339:10357   */\n      add\n        /* \"#utility.yul\":10331:10357   */\n      swap1\n      pop\n        /* \"#utility.yul\":10403:10412   */\n      dup2\n        /* \"#utility.yul\":10397:10401   */\n      dup2\n        /* \"#utility.yul\":10393:10413   */\n      sub\n        /* \"#utility.yul\":10389:10390   */\n      0x00\n        /* \"#utility.yul\":10378:10387   */\n      dup4\n        /* \"#utility.yul\":10374:10391   */\n      add\n        /* \"#utility.yul\":10367:10414   */\n      mstore\n        /* \"#utility.yul\":10431:10562   */\n      tag_260\n        /* \"#utility.yul\":10557:10561   */\n      dup2\n        /* \"#utility.yul\":10431:10562   */\n      tag_219\n      jump\t// in\n    tag_260:\n        /* \"#utility.yul\":10423:10562   */\n      swap1\n      pop\n        /* \"#utility.yul\":10150:10569   */\n      swap2\n      swap1\n      pop\n      jump\t// out\n        /* \"#utility.yul\":10575:10994   */\n    tag_71:\n        /* \"#utility.yul\":10741:10745   */\n      0x00\n        /* \"#utility.yul\":10779:10781   */\n      0x20\n        /* \"#utility.yul\":10768:10777   */\n      dup3\n        /* \"#utility.yul\":10764:10782   */\n      add\n        /* \"#utility.yul\":10756:10782   */\n      swap1\n      pop\n        /* \"#utility.yul\":10828:10837   */\n      dup2\n        /* \"#utility.yul\":10822:10826   */\n      dup2\n        /* \"#utility.yul\":10818:10838   */\n      sub\n        /* \"#utility.yul\":10814:10815   */\n      0x00\n        /* \"#utility.yul\":10803:10812   */\n      dup4\n        /* \"#utility.yul\":10799:10816   */\n      add\n        /* \"#utility.yul\":10792:10839   */\n      mstore\n        /* \"#utility.yul\":10856:10987   */\n      tag_262\n        /* \"#utility.yul\":10982:10986   */\n      dup2\n        /* \"#utility.yul\":10856:10987   */\n      tag_224\n      jump\t// in\n    tag_262:\n        /* \"#utility.yul\":10848:10987   */\n      swap1\n      pop\n        /* \"#utility.yul\":10575:10994   */\n      swap2\n      swap1\n      pop\n      jump\t// out\n        /* \"#utility.yul\":11000:11222   */\n    tag_22:\n        /* \"#utility.yul\":11093:11097   */\n      0x00\n        /* \"#utility.yul\":11131:11133   */\n      0x20\n        /* \"#utility.yul\":11120:11129   */\n      dup3\n        /* \"#utility.yul\":11116:11134   */\n      add\n        /* \"#utility.yul\":11108:11134   */\n      swap1\n      pop\n        /* \"#utility.yul\":11144:11215   */\n      tag_264\n        /* \"#utility.yul\":11212:11213   */\n      0x00\n        /* \"#utility.yul\":11201:11210   */\n      dup4\n        /* \"#utility.yul\":11197:11214   */\n      add\n        /* \"#utility.yul\":11188:11194   */\n      dup5\n        /* \"#utility.yul\":11144:11215   */\n      tag_229\n      jump\t// in\n    tag_264:\n        /* \"#utility.yul\":11000:11222   */\n      swap3\n      swap2\n      pop\n      pop\n      jump\t// out\n        /* \"#utility.yul\":11228:11357   */\n    tag_129:\n        /* \"#utility.yul\":11262:11268   */\n      0x00\n        /* \"#utility.yul\":11289:11309   */\n      tag_266\n      tag_267\n      jump\t// in\n    tag_266:\n        /* \"#utility.yul\":11279:11309   */\n      swap1\n      pop\n        /* \"#utility.yul\":11318:11351   */\n      tag_268\n        /* \"#utility.yul\":11346:11350   */\n      dup3\n        /* \"#utility.yul\":11338:11344   */\n      dup3\n        /* \"#utility.yul\":11318:11351   */\n      tag_269\n      jump\t// in\n    tag_268:\n        /* \"#utility.yul\":11228:11357   */\n      swap2\n      swap1\n      pop\n      jump\t// out\n        /* \"#utility.yul\":11363:11438   */\n    tag_267:\n        /* \"#utility.yul\":11396:11402   */\n      0x00\n        /* \"#utility.yul\":11429:11431   */\n      0x40\n        /* \"#utility.yul\":11423:11432   */\n      mload\n        /* \"#utility.yul\":11413:11432   */\n      swap1\n      pop\n        /* \"#utility.yul\":11363:11438   */\n      swap1\n      jump\t// out\n        /* \"#utility.yul\":11444:11752   */\n    tag_128:\n        /* \"#utility.yul\":11506:11510   */\n      0x00\n        /* \"#utility.yul\":11596:11614   */\n      0xffffffffffffffff\n        /* \"#utility.yul\":11588:11594   */\n      dup3\n        /* \"#utility.yul\":11585:11615   */\n      gt\n        /* \"#utility.yul\":11582:11638   */\n      iszero\n      tag_272\n      jumpi\n        /* \"#utility.yul\":11618:11636   */\n      tag_273\n      tag_274\n      jump\t// in\n    tag_273:\n        /* \"#utility.yul\":11582:11638   */\n    tag_272:\n        /* \"#utility.yul\":11656:11685   */\n      tag_275\n        /* \"#utility.yul\":11678:11684   */\n      dup3\n        /* \"#utility.yul\":11656:11685   */\n      tag_203\n      jump\t// in\n    tag_275:\n        /* \"#utility.yul\":11648:11685   */\n      swap1\n      pop\n        /* \"#utility.yul\":11740:11744   */\n      0x20\n        /* \"#utility.yul\":11734:11738   */\n      dup2\n        /* \"#utility.yul\":11730:11745   */\n      add\n        /* \"#utility.yul\":11722:11745   */\n      swap1\n      pop\n        /* \"#utility.yul\":11444:11752   */\n      swap2\n      swap1\n      pop\n      jump\t// out\n        /* \"#utility.yul\":11758:11857   */\n    tag_197:\n        /* \"#utility.yul\":11810:11816   */\n      0x00\n        /* \"#utility.yul\":11844:11849   */\n      dup2\n        /* \"#utility.yul\":11838:11850   */\n      mload\n        /* \"#utility.yul\":11828:11850   */\n      swap1\n      pop\n        /* \"#utility.yul\":11758:11857   */\n      swap2\n      swap1\n      pop\n      jump\t// out\n        /* \"#utility.yul\":11863:12032   */\n    tag_199:\n        /* \"#utility.yul\":11947:11958   */\n      0x00\n        /* \"#utility.yul\":11981:11987   */\n      dup3\n        /* \"#utility.yul\":11976:11979   */\n      dup3\n        /* \"#utility.yul\":11969:11988   */\n      mstore\n        /* \"#utility.yul\":12021:12025   */\n      0x20\n        /* \"#utility.yul\":12016:12019   */\n      dup3\n        /* \"#utility.yul\":12012:12026   */\n      add\n        /* \"#utility.yul\":11997:12026   */\n      swap1\n      pop\n        /* \"#utility.yul\":11863:12032   */\n      swap3\n      swap2\n      pop\n      pop\n      jump\t// out\n        /* \"#utility.yul\":12038:12223   */\n    tag_90:\n        /* \"#utility.yul\":12078:12079   */\n      0x00\n        /* \"#utility.yul\":12095:12115   */\n      tag_279\n        /* \"#utility.yul\":12113:12114   */\n      dup3\n        /* \"#utility.yul\":12095:12115   */\n      tag_232\n      jump\t// in\n    tag_279:\n        /* \"#utility.yul\":12090:12115   */\n      swap2\n      pop\n        /* \"#utility.yul\":12129:12149   */\n      tag_280\n        /* \"#utility.yul\":12147:12148   */\n      dup4\n        /* \"#utility.yul\":12129:12149   */\n      tag_232\n      jump\t// in\n    tag_280:\n        /* \"#utility.yul\":12124:12149   */\n      swap3\n      pop\n        /* \"#utility.yul\":12168:12169   */\n      dup3\n        /* \"#utility.yul\":12158:12193   */\n      tag_281\n      jumpi\n        /* \"#utility.yul\":12173:12191   */\n      tag_282\n      tag_283\n      jump\t// in\n    tag_282:\n        /* \"#utility.yul\":12158:12193   */\n    tag_281:\n        /* \"#utility.yul\":12215:12216   */\n      dup3\n        /* \"#utility.yul\":12212:12213   */\n      dup3\n        /* \"#utility.yul\":12208:12217   */\n      div\n        /* \"#utility.yul\":12203:12217   */\n      swap1\n      pop\n        /* \"#utility.yul\":12038:12223   */\n      swap3\n      swap2\n      pop\n      pop\n      jump\t// out\n        /* \"#utility.yul\":12229:12577   */\n    tag_107:\n        /* \"#utility.yul\":12269:12276   */\n      0x00\n        /* \"#utility.yul\":12292:12312   */\n      tag_285\n        /* \"#utility.yul\":12310:12311   */\n      dup3\n        /* \"#utility.yul\":12292:12312   */\n      tag_232\n      jump\t// in\n    tag_285:\n        /* \"#utility.yul\":12287:12312   */\n      swap2\n      pop\n        /* \"#utility.yul\":12326:12346   */\n      tag_286\n        /* \"#utility.yul\":12344:12345   */\n      dup4\n        /* \"#utility.yul\":12326:12346   */\n      tag_232\n      jump\t// in\n    tag_286:\n        /* \"#utility.yul\":12321:12346   */\n      swap3\n      pop\n        /* \"#utility.yul\":12514:12515   */\n      dup2\n        /* \"#utility.yul\":12446:12512   */\n      0xffffffffffffffffffffffffffffffffffffffffffffffffffffffffffffffff\n        /* \"#utility.yul\":12442:12516   */\n      div\n        /* \"#utility.yul\":12439:12440   */\n      dup4\n        /* \"#utility.yul\":12436:12517   */\n      gt\n        /* \"#utility.yul\":12431:12432   */\n      dup3\n        /* \"#utility.yul\":12424:12433   */\n      iszero\n        /* \"#utility.yul\":12417:12434   */\n      iszero\n        /* \"#utility.yul\":12413:12518   */\n      and\n        /* \"#utility.yul\":12410:12541   */\n      iszero\n      tag_287\n      jumpi\n        /* \"#utility.yul\":12521:12539   */\n      tag_288\n      tag_289\n      jump\t// in\n    tag_288:\n        /* \"#utility.yul\":12410:12541   */\n    tag_287:\n        /* \"#utility.yul\":12569:12570   */\n      dup3\n        /* \"#utility.yul\":12566:12567   */\n      dup3\n        /* \"#utility.yul\":12562:12571   */\n      mul\n        /* \"#utility.yul\":12551:12571   */\n      swap1\n      pop\n        /* \"#utility.yul\":12229:12577   */\n      swap3\n      swap2\n      pop\n      pop\n      jump\t// out\n        /* \"#utility.yul\":12583:12679   */\n    tag_185:\n        /* \"#utility.yul\":12620:12627   */\n      0x00\n        /* \"#utility.yul\":12649:12673   */\n      tag_291\n        /* \"#utility.yul\":12667:12672   */\n      dup3\n        /* \"#utility.yul\":12649:12673   */\n      tag_292\n      jump\t// in\n    tag_291:\n        /* \"#utility.yul\":12638:12673   */\n      swap1\n      pop\n        /* \"#utility.yul\":12583:12679   */\n      swap2\n      swap1\n      pop\n      jump\t// out\n        /* \"#utility.yul\":12685:12775   */\n    tag_293:\n        /* \"#utility.yul\":12719:12726   */\n      0x00\n        /* \"#utility.yul\":12762:12767   */\n      dup2\n        /* \"#utility.yul\":12755:12768   */\n      iszero\n        /* \"#utility.yul\":12748:12769   */\n      iszero\n        /* \"#utility.yul\":12737:12769   */\n      swap1\n      pop\n        /* \"#utility.yul\":12685:12775   */\n      swap2\n      swap1\n      pop\n      jump\t// out\n        /* \"#utility.yul\":12781:12907   */\n    tag_292:\n        /* \"#utility.yul\":12818:12825   */\n      0x00\n        /* \"#utility.yul\":12858:12900   */\n      0xffffffffffffffffffffffffffffffffffffffff\n        /* \"#utility.yul\":12851:12856   */\n      dup3\n        /* \"#utility.yul\":12847:12901   */\n      and\n        /* \"#utility.yul\":12836:12901   */\n      swap1\n      pop\n        /* \"#utility.yul\":12781:12907   */\n      swap2\n      swap1\n      pop\n      jump\t// out\n        /* \"#utility.yul\":12913:12990   */\n    tag_232:\n        /* \"#utility.yul\":12950:12957   */\n      0x00\n        /* \"#utility.yul\":12979:12984   */\n      dup2\n        /* \"#utility.yul\":12968:12984   */\n      swap1\n      pop\n        /* \"#utility.yul\":12913:12990   */\n      swap2\n      swap1\n      pop\n      jump\t// out\n        /* \"#utility.yul\":12996:13133   */\n    tag_189:\n        /* \"#utility.yul\":13057:13066   */\n      0x00\n        /* \"#utility.yul\":13090:13127   */\n      tag_298\n        /* \"#utility.yul\":13121:13126   */\n      dup3\n        /* \"#utility.yul\":13090:13127   */\n      tag_299\n      jump\t// in\n    tag_298:\n        /* \"#utility.yul\":13077:13127   */\n      swap1\n      pop\n        /* \"#utility.yul\":12996:13133   */\n      swap2\n      swap1\n      pop\n      jump\t// out\n        /* \"#utility.yul\":13139:13276   */\n    tag_193:\n        /* \"#utility.yul\":13200:13209   */\n      0x00\n        /* \"#utility.yul\":13233:13270   */\n      tag_301\n        /* \"#utility.yul\":13264:13269   */\n      dup3\n        /* \"#utility.yul\":13233:13270   */\n      tag_299\n      jump\t// in\n    tag_301:\n        /* \"#utility.yul\":13220:13270   */\n      swap1\n      pop\n        /* \"#utility.yul\":13139:13276   */\n      swap2\n      swap1\n      pop\n      jump\t// out\n        /* \"#utility.yul\":13282:13408   */\n    tag_299:\n        /* \"#utility.yul\":13332:13341   */\n      0x00\n        /* \"#utility.yul\":13365:13402   */\n      tag_303\n        /* \"#utility.yul\":13396:13401   */\n      dup3\n        /* \"#utility.yul\":13365:13402   */\n      tag_304\n      jump\t// in\n    tag_303:\n        /* \"#utility.yul\":13352:13402   */\n      swap1\n      pop\n        /* \"#utility.yul\":13282:13408   */\n      swap2\n      swap1\n      pop\n      jump\t// out\n        /* \"#utility.yul\":13414:13527   */\n    tag_304:\n        /* \"#utility.yul\":13464:13473   */\n      0x00\n        /* \"#utility.yul\":13497:13521   */\n      tag_306\n        /* \"#utility.yul\":13515:13520   */\n      dup3\n        /* \"#utility.yul\":13497:13521   */\n      tag_292\n      jump\t// in\n    tag_306:\n        /* \"#utility.yul\":13484:13521   */\n      swap1\n      pop\n        /* \"#utility.yul\":13414:13527   */\n      swap2\n      swap1\n      pop\n      jump\t// out\n        /* \"#utility.yul\":13533:13687   */\n    tag_134:\n        /* \"#utility.yul\":13617:13623   */\n      dup3\n        /* \"#utility.yul\":13612:13615   */\n      dup2\n        /* \"#utility.yul\":13607:13610   */\n      dup4\n        /* \"#utility.yul\":13594:13624   */\n      calldatacopy\n        /* \"#utility.yul\":13679:13680   */\n      0x00\n        /* \"#utility.yul\":13670:13676   */\n      dup4\n        /* \"#utility.yul\":13665:13668   */\n      dup4\n        /* \"#utility.yul\":13661:13677   */\n      add\n        /* \"#utility.yul\":13654:13681   */\n      mstore\n        /* \"#utility.yul\":13533:13687   */\n      pop\n      pop\n      pop\n      jump\t// out\n        /* \"#utility.yul\":13693:14000   */\n    tag_201:\n        /* \"#utility.yul\":13761:13762   */\n      0x00\n        /* \"#utility.yul\":13771:13884   */\n    tag_309:\n        /* \"#utility.yul\":13785:13791   */\n      dup4\n        /* \"#utility.yul\":13782:13783   */\n      dup2\n        /* \"#utility.yul\":13779:13792   */\n      lt\n        /* \"#utility.yul\":13771:13884   */\n      iszero\n      tag_311\n      jumpi\n        /* \"#utility.yul\":13870:13871   */\n      dup1\n        /* \"#utility.yul\":13865:13868   */\n      dup3\n        /* \"#utility.yul\":13861:13872   */\n      add\n        /* \"#utility.yul\":13855:13873   */\n      mload\n        /* \"#utility.yul\":13851:13852   */\n      dup2\n        /* \"#utility.yul\":13846:13849   */\n      dup5\n        /* \"#utility.yul\":13842:13853   */\n      add\n        /* \"#utility.yul\":13835:13874   */\n      mstore\n        /* \"#utility.yul\":13807:13809   */\n      0x20\n        /* \"#utility.yul\":13804:13805   */\n      dup2\n        /* \"#utility.yul\":13800:13810   */\n      add\n        /* \"#utility.yul\":13795:13810   */\n      swap1\n      pop\n        /* \"#utility.yul\":13771:13884   */\n      jump(tag_309)\n    tag_311:\n        /* \"#utility.yul\":13902:13908   */\n      dup4\n        /* \"#utility.yul\":13899:13900   */\n      dup2\n        /* \"#utility.yul\":13896:13909   */\n      gt\n        /* \"#utility.yul\":13893:13994   */\n      iszero\n      tag_312\n      jumpi\n        /* \"#utility.yul\":13982:13983   */\n      0x00\n        /* \"#utility.yul\":13973:13979   */\n      dup5\n        /* \"#utility.yul\":13968:13971   */\n      dup5\n        /* \"#utility.yul\":13964:13980   */\n      add\n        /* \"#utility.yul\":13957:13984   */\n      mstore\n        /* \"#utility.yul\":13893:13994   */\n    tag_312:\n        /* \"#utility.yul\":13742:14000   */\n      pop\n        /* \"#utility.yul\":13693:14000   */\n      pop\n      pop\n      pop\n      jump\t// out\n        /* \"#utility.yul\":14006:14326   */\n    tag_56:\n        /* \"#utility.yul\":14050:14056   */\n      0x00\n        /* \"#utility.yul\":14087:14088   */\n      0x02\n        /* \"#utility.yul\":14081:14085   */\n      dup3\n        /* \"#utility.yul\":14077:14089   */\n      div\n        /* \"#utility.yul\":14067:14089   */\n      swap1\n      pop\n        /* \"#utility.yul\":14134:14135   */\n      0x01\n        /* \"#utility.yul\":14128:14132   */\n      dup3\n        /* \"#utility.yul\":14124:14136   */\n      and\n        /* \"#utility.yul\":14155:14173   */\n      dup1\n        /* \"#utility.yul\":14145:14226   */\n      tag_314\n      jumpi\n        /* \"#utility.yul\":14211:14215   */\n      0x7f\n        /* \"#utility.yul\":14203:14209   */\n      dup3\n        /* \"#utility.yul\":14199:14216   */\n      and\n        /* \"#utility.yul\":14189:14216   */\n      swap2\n      pop\n        /* \"#utility.yul\":14145:14226   */\n    tag_314:\n        /* \"#utility.yul\":14273:14275   */\n      0x20\n        /* \"#utility.yul\":14265:14271   */\n      dup3\n        /* \"#utility.yul\":14262:14276   */\n      lt\n        /* \"#utility.yul\":14242:14260   */\n      dup2\n        /* \"#utility.yul\":14239:14277   */\n      eq\n        /* \"#utility.yul\":14236:14320   */\n      iszero\n      tag_315\n      jumpi\n        /* \"#utility.yul\":14292:14310   */\n      tag_316\n      tag_317\n      jump\t// in\n    tag_316:\n        /* \"#utility.yul\":14236:14320   */\n    tag_315:\n        /* \"#utility.yul\":14057:14326   */\n      pop\n        /* \"#utility.yul\":14006:14326   */\n      swap2\n      swap1\n      pop\n      jump\t// out\n        /* \"#utility.yul\":14332:14613   */\n    tag_269:\n        /* \"#utility.yul\":14415:14442   */\n      tag_319\n        /* \"#utility.yul\":14437:14441   */\n      dup3\n        /* \"#utility.yul\":14415:14442   */\n      tag_203\n      jump\t// in\n    tag_319:\n        /* \"#utility.yul\":14407:14413   */\n      dup2\n        /* \"#utility.yul\":14403:14443   */\n      add\n        /* \"#utility.yul\":14545:14551   */\n      dup2\n        /* \"#utility.yul\":14533:14543   */\n      dup2\n        /* \"#utility.yul\":14530:14552   */\n      lt\n        /* \"#utility.yul\":14509:14527   */\n      0xffffffffffffffff\n        /* \"#utility.yul\":14497:14507   */\n      dup3\n        /* \"#utility.yul\":14494:14528   */\n      gt\n        /* \"#utility.yul\":14491:14553   */\n      or\n        /* \"#utility.yul\":14488:14576   */\n      iszero\n      tag_320\n      jumpi\n        /* \"#utility.yul\":14556:14574   */\n      tag_321\n      tag_274\n      jump\t// in\n    tag_321:\n        /* \"#utility.yul\":14488:14576   */\n    tag_320:\n        /* \"#utility.yul\":14596:14606   */\n      dup1\n        /* \"#utility.yul\":14592:14594   */\n      0x40\n        /* \"#utility.yul\":14585:14607   */\n      mstore\n        /* \"#utility.yul\":14375:14613   */\n      pop\n        /* \"#utility.yul\":14332:14613   */\n      pop\n      pop\n      jump\t// out\n        /* \"#utility.yul\":14619:14799   */\n    tag_289:\n        /* \"#utility.yul\":14667:14744   */\n      0x4e487b7100000000000000000000000000000000000000000000000000000000\n        /* \"#utility.yul\":14664:14665   */\n      0x00\n        /* \"#utility.yul\":14657:14745   */\n      mstore\n        /* \"#utility.yul\":14764:14768   */\n      0x11\n        /* \"#utility.yul\":14761:14762   */\n      0x04\n        /* \"#utility.yul\":14754:14769   */\n      mstore\n        /* \"#utility.yul\":14788:14792   */\n      0x24\n        /* \"#utility.yul\":14785:14786   */\n      0x00\n        /* \"#utility.yul\":14778:14793   */\n      revert\n        /* \"#utility.yul\":14805:14985   */\n    tag_283:\n        /* \"#utility.yul\":14853:14930   */\n      0x4e487b7100000000000000000000000000000000000000000000000000000000\n        /* \"#utility.yul\":14850:14851   */\n      0x00\n        /* \"#utility.yul\":14843:14931   */\n      mstore\n        /* \"#utility.yul\":14950:14954   */\n      0x12\n        /* \"#utility.yul\":14947:14948   */\n      0x04\n        /* \"#utility.yul\":14940:14955   */\n      mstore\n        /* \"#utility.yul\":14974:14978   */\n      0x24\n        /* \"#utility.yul\":14971:14972   */\n      0x00\n        /* \"#utility.yul\":14964:14979   */\n      revert\n        /* \"#utility.yul\":14991:15171   */\n    tag_317:\n        /* \"#utility.yul\":15039:15116   */\n      0x4e487b7100000000000000000000000000000000000000000000000000000000\n        /* \"#utility.yul\":15036:15037   */\n      0x00\n        /* \"#utility.yul\":15029:15117   */\n      mstore\n        /* \"#utility.yul\":15136:15140   */\n      0x22\n        /* \"#utility.yul\":15133:15134   */\n      0x04\n        /* \"#utility.yul\":15126:15141   */\n      mstore\n        /* \"#utility.yul\":15160:15164   */\n      0x24\n        /* \"#utility.yul\":15157:15158   */\n      0x00\n        /* \"#utility.yul\":15150:15165   */\n      revert\n        /* \"#utility.yul\":15177:15357   */\n    tag_274:\n        /* \"#utility.yul\":15225:15302   */\n      0x4e487b7100000000000000000000000000000000000000000000000000000000\n        /* \"#utility.yul\":15222:15223   */\n      0x00\n        /* \"#utility.yul\":15215:15303   */\n      mstore\n        /* \"#utility.yul\":15322:15326   */\n      0x41\n        /* \"#utility.yul\":15319:15320   */\n      0x04\n        /* \"#utility.yul\":15312:15327   */\n      mstore\n        /* \"#utility.yul\":15346:15350   */\n      0x24\n        /* \"#utility.yul\":15343:15344   */\n      0x00\n        /* \"#utility.yul\":15336:15351   */\n      revert\n        /* \"#utility.yul\":15363:15480   */\n    tag_147:\n        /* \"#utility.yul\":15472:15473   */\n      0x00\n        /* \"#utility.yul\":15469:15470   */\n      dup1\n        /* \"#utility.yul\":15462:15474   */\n      revert\n        /* \"#utility.yul\":15486:15603   */\n    tag_132:\n        /* \"#utility.yul\":15595:15596   */\n      0x00\n        /* \"#utility.yul\":15592:15593   */\n      dup1\n        /* \"#utility.yul\":15585:15597   */\n      revert\n        /* \"#utility.yul\":15609:15726   */\n    tag_165:\n        /* \"#utility.yul\":15718:15719   */\n      0x00\n        /* \"#utility.yul\":15715:15716   */\n      dup1\n        /* \"#utility.yul\":15708:15720   */\n      revert\n        /* \"#utility.yul\":15732:15849   */\n    tag_159:\n        /* \"#utility.yul\":15841:15842   */\n      0x00\n        /* \"#utility.yul\":15838:15839   */\n      dup1\n        /* \"#utility.yul\":15831:15843   */\n      revert\n        /* \"#utility.yul\":15855:15957   */\n    tag_203:\n        /* \"#utility.yul\":15896:15902   */\n      0x00\n        /* \"#utility.yul\":15947:15949   */\n      0x1f\n        /* \"#utility.yul\":15943:15950   */\n      not\n        /* \"#utility.yul\":15938:15940   */\n      0x1f\n        /* \"#utility.yul\":15931:15936   */\n      dup4\n        /* \"#utility.yul\":15927:15941   */\n      add\n        /* \"#utility.yul\":15923:15951   */\n      and\n        /* \"#utility.yul\":15913:15951   */\n      swap1\n      pop\n        /* \"#utility.yul\":15855:15957   */\n      swap2\n      swap1\n      pop\n      jump\t// out\n        /* \"#utility.yul\":15963:16205   */\n    tag_208:\n        /* \"#utility.yul\":16103:16137   */\n      0x5377617020636f6e747261637420646f6573206e6f74206861766520656e6f75\n        /* \"#utility.yul\":16099:16100   */\n      0x00\n        /* \"#utility.yul\":16091:16097   */\n      dup3\n        /* \"#utility.yul\":16087:16101   */\n      add\n        /* \"#utility.yul\":16080:16138   */\n      mstore\n        /* \"#utility.yul\":16172:16197   */\n      0x676820617661696c61626c652045544820616d6f756e74000000000000000000\n        /* \"#utility.yul\":16167:16169   */\n      0x20\n        /* \"#utility.yul\":16159:16165   */\n      dup3\n        /* \"#utility.yul\":16155:16170   */\n      add\n        /* \"#utility.yul\":16148:16198   */\n      mstore\n        /* \"#utility.yul\":15963:16205   */\n      pop\n      jump\t// out\n        /* \"#utility.yul\":16211:16450   */\n    tag_213:\n        /* \"#utility.yul\":16351:16385   */\n      0x596f752063616e206e6f742073656c6c206d6f726520746f6b656e7320746861\n        /* \"#utility.yul\":16347:16348   */\n      0x00\n        /* \"#utility.yul\":16339:16345   */\n      dup3\n        /* \"#utility.yul\":16335:16349   */\n      add\n        /* \"#utility.yul\":16328:16386   */\n      mstore\n        /* \"#utility.yul\":16420:16442   */\n      0x6e20796f752063757272656e746c7920686f6c64000000000000000000000000\n        /* \"#utility.yul\":16415:16417   */\n      0x20\n        /* \"#utility.yul\":16407:16413   */\n      dup3\n        /* \"#utility.yul\":16403:16418   */\n      add\n        /* \"#utility.yul\":16396:16443   */\n      mstore\n        /* \"#utility.yul\":16211:16450   */\n      pop\n      jump\t// out\n        /* \"#utility.yul\":16456:16637   */\n    tag_218:\n        /* \"#utility.yul\":16596:16629   */\n      0x4e6f7420656e6f75676820435a4820617661696c61626c6520746f2062757900\n        /* \"#utility.yul\":16592:16593   */\n      0x00\n        /* \"#utility.yul\":16584:16590   */\n      dup3\n        /* \"#utility.yul\":16580:16594   */\n      add\n        /* \"#utility.yul\":16573:16630   */\n      mstore\n        /* \"#utility.yul\":16456:16637   */\n      pop\n      jump\t// out\n        /* \"#utility.yul\":16643:16820   */\n    tag_223:\n        /* \"#utility.yul\":16783:16812   */\n      0x4e6f7420656e6f7567682066756e6473206f6e20457468537761700000000000\n        /* \"#utility.yul\":16779:16780   */\n      0x00\n        /* \"#utility.yul\":16771:16777   */\n      dup3\n        /* \"#utility.yul\":16767:16781   */\n      add\n        /* \"#utility.yul\":16760:16813   */\n      mstore\n        /* \"#utility.yul\":16643:16820   */\n      pop\n      jump\t// out\n        /* \"#utility.yul\":16826:17000   */\n    tag_228:\n        /* \"#utility.yul\":16966:16992   */\n      0x4e6f7420656e6f7567682066756e647320746f20737761700000000000000000\n        /* \"#utility.yul\":16962:16963   */\n      0x00\n        /* \"#utility.yul\":16954:16960   */\n      dup3\n        /* \"#utility.yul\":16950:16964   */\n      add\n        /* \"#utility.yul\":16943:16993   */\n      mstore\n        /* \"#utility.yul\":16826:17000   */\n      pop\n      jump\t// out\n        /* \"#utility.yul\":17006:17128   */\n    tag_138:\n        /* \"#utility.yul\":17079:17103   */\n      tag_337\n        /* \"#utility.yul\":17097:17102   */\n      dup2\n        /* \"#utility.yul\":17079:17103   */\n      tag_185\n      jump\t// in\n    tag_337:\n        /* \"#utility.yul\":17072:17077   */\n      dup2\n        /* \"#utility.yul\":17069:17104   */\n      eq\n        /* \"#utility.yul\":17059:17122   */\n      tag_338\n      jumpi\n        /* \"#utility.yul\":17118:17119   */\n      0x00\n        /* \"#utility.yul\":17115:17116   */\n      dup1\n        /* \"#utility.yul\":17108:17120   */\n      revert\n        /* \"#utility.yul\":17059:17122   */\n    tag_338:\n        /* \"#utility.yul\":17006:17128   */\n      pop\n      jump\t// out\n        /* \"#utility.yul\":17134:17250   */\n    tag_142:\n        /* \"#utility.yul\":17204:17225   */\n      tag_340\n        /* \"#utility.yul\":17219:17224   */\n      dup2\n        /* \"#utility.yul\":17204:17225   */\n      tag_293\n      jump\t// in\n    tag_340:\n        /* \"#utility.yul\":17197:17202   */\n      dup2\n        /* \"#utility.yul\":17194:17226   */\n      eq\n        /* \"#utility.yul\":17184:17244   */\n      tag_341\n      jumpi\n        /* \"#utility.yul\":17240:17241   */\n      0x00\n        /* \"#utility.yul\":17237:17238   */\n      dup1\n        /* \"#utility.yul\":17230:17242   */\n      revert\n        /* \"#utility.yul\":17184:17244   */\n    tag_341:\n        /* \"#utility.yul\":17134:17250   */\n      pop\n      jump\t// out\n        /* \"#utility.yul\":17256:17378   */\n    tag_152:\n        /* \"#utility.yul\":17329:17353   */\n      tag_343\n        /* \"#utility.yul\":17347:17352   */\n      dup2\n        /* \"#utility.yul\":17329:17353   */\n      tag_232\n      jump\t// in\n    tag_343:\n        /* \"#utility.yul\":17322:17327   */\n      dup2\n        /* \"#utility.yul\":17319:17354   */\n      eq\n        /* \"#utility.yul\":17309:17372   */\n      tag_344\n      jumpi\n        /* \"#utility.yul\":17368:17369   */\n      0x00\n        /* \"#utility.yul\":17365:17366   */\n      dup1\n        /* \"#utility.yul\":17358:17370   */\n      revert\n        /* \"#utility.yul\":17309:17372   */\n    tag_344:\n        /* \"#utility.yul\":17256:17378   */\n      pop\n      jump\t// out\n\n    auxdata: 0xa26469706673582212204c91eca923731342e639a435f04b1e1c599829018a21e1565baa540794d005de64736f6c63430008070033\n}\n",
				"bytecode": {
					"linkReferences": {},
					"object": "60806040526040518060400160405280601a81526020017f457468207377617020706c6174666f726d20636f6e7472616374000000000000815250600090805190602001906200005192919062000287565b506064600355600a6004553480156200006957600080fd5b50604051620018403803806200184083398181016040528101906200008f91906200037c565b81600160006101000a81548173ffffffffffffffffffffffffffffffffffffffff021916908373ffffffffffffffffffffffffffffffffffffffff16021790555080600260006101000a81548173ffffffffffffffffffffffffffffffffffffffff021916908373ffffffffffffffffffffffffffffffffffffffff160217905550600160009054906101000a900473ffffffffffffffffffffffffffffffffffffffff1673ffffffffffffffffffffffffffffffffffffffff166370a08231306040518263ffffffff1660e01b81526004016200016e919062000406565b60206040518083038186803b1580156200018757600080fd5b505afa1580156200019c573d6000803e3d6000fd5b505050506040513d601f19601f82011682018060405250810190620001c29190620003c3565b600581905550600260009054906101000a900473ffffffffffffffffffffffffffffffffffffffff1673ffffffffffffffffffffffffffffffffffffffff166370a08231306040518263ffffffff1660e01b815260040162000225919062000406565b60206040518083038186803b1580156200023e57600080fd5b505afa15801562000253573d6000803e3d6000fd5b505050506040513d601f19601f82011682018060405250810190620002799190620003c3565b600681905550505062000541565b828054620002959062000489565b90600052602060002090601f016020900481019282620002b9576000855562000305565b82601f10620002d457805160ff191683800117855562000305565b8280016001018555821562000305579182015b8281111562000304578251825591602001919060010190620002e7565b5b50905062000314919062000318565b5090565b5b808211156200033357600081600090555060010162000319565b5090565b6000815190506200034881620004f3565b92915050565b6000815190506200035f816200050d565b92915050565b600081519050620003768162000527565b92915050565b60008060408385031215620003965762000395620004ee565b5b6000620003a68582860162000337565b9250506020620003b9858286016200034e565b9150509250929050565b600060208284031215620003dc57620003db620004ee565b5b6000620003ec8482850162000365565b91505092915050565b620004008162000423565b82525050565b60006020820190506200041d6000830184620003f5565b92915050565b600062000430826200045f565b9050919050565b6000620004448262000423565b9050919050565b6000620004588262000423565b9050919050565b600073ffffffffffffffffffffffffffffffffffffffff82169050919050565b6000819050919050565b60006002820490506001821680620004a257607f821691505b60208210811415620004b957620004b8620004bf565b5b50919050565b7f4e487b7100000000000000000000000000000000000000000000000000000000600052602260045260246000fd5b600080fd5b620004fe8162000437565b81146200050a57600080fd5b50565b62000518816200044b565b81146200052457600080fd5b50565b62000532816200047f565b81146200053e57600080fd5b50565b6112ef80620005516000396000f3fe6080604052600436106100915760003560e01c80636c11bcd3116100595780636c11bcd31461015e5780637cc1478a1461017a578063848d82eb146101a5578063a1e18e1a146101d0578063d0febe4c146101fb57610091565b806306fdde03146100965780631739fef0146100c15780633aa6f8fa146100ec5780636343949914610117578063662b1af614610133575b600080fd5b3480156100a257600080fd5b506100ab610205565b6040516100b89190610d6b565b60405180910390f35b3480156100cd57600080fd5b506100d6610293565b6040516100e39190610e2d565b60405180910390f35b3480156100f857600080fd5b50610101610299565b60405161010e9190610e2d565b60405180910390f35b610131600480360381019061012c9190610a17565b61029f565b005b34801561013f57600080fd5b50610148610448565b6040516101559190610e2d565b60405180910390f35b61017860048036038101906101739190610af7565b61044e565b005b34801561018657600080fd5b5061018f6106ee565b60405161019c9190610d35565b60405180910390f35b3480156101b157600080fd5b506101ba610714565b6040516101c79190610d50565b60405180910390f35b3480156101dc57600080fd5b506101e561073a565b6040516101f29190610e2d565b60405180910390f35b610203610740565b005b6000805461021290611017565b80601f016020809104026020016040519081016040528092919081815260200182805461023e90611017565b801561028b5780601f106102605761010080835404028352916020019161028b565b820191906000526020600020905b81548152906001019060200180831161026e57829003601f168201915b505050505081565b60045481565b60055481565b60008490506000869050848273ffffffffffffffffffffffffffffffffffffffff166370a08231336040518263ffffffff1660e01b81526004016102e39190610c75565b60206040518083038186803b1580156102fb57600080fd5b505afa15801561030f573d6000803e3d6000fd5b505050506040513d601f19601f820116820180604052508101906103339190610b24565b1115610374576040517f08c379a000000000000000000000000000000000000000000000000000000000815260040161036b90610e0d565b60405180910390fd5b848173ffffffffffffffffffffffffffffffffffffffff166370a08231306040518263ffffffff1660e01b81526004016103ae9190610c75565b60206040518083038186803b1580156103c657600080fd5b505afa1580156103da573d6000803e3d6000fd5b505050506040513d601f19601f820116820180604052508101906103fe9190610b24565b111561043f576040517f08c379a000000000000000000000000000000000000000000000000000000000815260040161043690610ded565b60405180910390fd5b50505050505050565b60065481565b80600160009054906101000a900473ffffffffffffffffffffffffffffffffffffffff1673ffffffffffffffffffffffffffffffffffffffff166370a08231336040518263ffffffff1660e01b81526004016104aa9190610c75565b60206040518083038186803b1580156104c257600080fd5b505afa1580156104d6573d6000803e3d6000fd5b505050506040513d601f19601f820116820180604052508101906104fa9190610b24565b101561053b576040517f08c379a000000000000000000000000000000000000000000000000000000000815260040161053290610dad565b60405180910390fd5b60006003548261054b9190610eba565b905080471015610590576040517f08c379a000000000000000000000000000000000000000000000000000000000815260040161058790610d8d565b60405180910390fd5b600160009054906101000a900473ffffffffffffffffffffffffffffffffffffffff1673ffffffffffffffffffffffffffffffffffffffff166323b872dd3330856040518463ffffffff1660e01b81526004016105ef93929190610c90565b602060405180830381600087803b15801561060957600080fd5b505af115801561061d573d6000803e3d6000fd5b505050506040513d601f19601f820116820180604052508101906106419190610aca565b503373ffffffffffffffffffffffffffffffffffffffff166108fc829081150290604051600060405180830381858888f19350505050158015610688573d6000803e3d6000fd5b507f697c42d55a5e1fed3f464ec6f38b32546a0bd368dc8068b065c67566d73f329033600160009054906101000a900473ffffffffffffffffffffffffffffffffffffffff16846003546040516106e29493929190610cc7565b60405180910390a15050565b600160009054906101000a900473ffffffffffffffffffffffffffffffffffffffff1681565b600260009054906101000a900473ffffffffffffffffffffffffffffffffffffffff1681565b60035481565b6000600354346107509190610eeb565b905080600160009054906101000a900473ffffffffffffffffffffffffffffffffffffffff1673ffffffffffffffffffffffffffffffffffffffff166370a08231306040518263ffffffff1660e01b81526004016107ae9190610c75565b60206040518083038186803b1580156107c657600080fd5b505afa1580156107da573d6000803e3d6000fd5b505050506040513d601f19601f820116820180604052508101906107fe9190610b24565b101561083f576040517f08c379a000000000000000000000000000000000000000000000000000000000815260040161083690610dcd565b60405180910390fd5b600160009054906101000a900473ffffffffffffffffffffffffffffffffffffffff1673ffffffffffffffffffffffffffffffffffffffff1663a9059cbb33836040518363ffffffff1660e01b815260040161089c929190610d0c565b602060405180830381600087803b1580156108b657600080fd5b505af11580156108ca573d6000803e3d6000fd5b505050506040513d601f19601f820116820180604052508101906108ee9190610aca565b507f6faf93231a456e552dbc9961f58d9713ee4f2e69d15f1975b050ef0911053a7b33600160009054906101000a900473ffffffffffffffffffffffffffffffffffffffff16836003546040516109489493929190610cc7565b60405180910390a150565b600061096661096184610e6d565b610e48565b9050828152602081018484840111156109825761098161113b565b5b61098d848285610fd5565b509392505050565b6000813590506109a481611274565b92915050565b6000815190506109b98161128b565b92915050565b600082601f8301126109d4576109d3611136565b5b81356109e4848260208601610953565b91505092915050565b6000813590506109fc816112a2565b92915050565b600081519050610a11816112a2565b92915050565b600080600080600060a08688031215610a3357610a32611145565b5b6000610a4188828901610995565b9550506020610a5288828901610995565b9450506040610a63888289016109ed565b935050606086013567ffffffffffffffff811115610a8457610a83611140565b5b610a90888289016109bf565b925050608086013567ffffffffffffffff811115610ab157610ab0611140565b5b610abd888289016109bf565b9150509295509295909350565b600060208284031215610ae057610adf611145565b5b6000610aee848285016109aa565b91505092915050565b600060208284031215610b0d57610b0c611145565b5b6000610b1b848285016109ed565b91505092915050565b600060208284031215610b3a57610b39611145565b5b6000610b4884828501610a02565b91505092915050565b610b5a81610f45565b82525050565b610b6981610f8d565b82525050565b610b7881610f9f565b82525050565b6000610b8982610e9e565b610b938185610ea9565b9350610ba3818560208601610fe4565b610bac8161114a565b840191505092915050565b6000610bc4603783610ea9565b9150610bcf8261115b565b604082019050919050565b6000610be7603483610ea9565b9150610bf2826111aa565b604082019050919050565b6000610c0a601f83610ea9565b9150610c15826111f9565b602082019050919050565b6000610c2d601b83610ea9565b9150610c3882611222565b602082019050919050565b6000610c50601883610ea9565b9150610c5b8261124b565b602082019050919050565b610c6f81610f83565b82525050565b6000602082019050610c8a6000830184610b51565b92915050565b6000606082019050610ca56000830186610b51565b610cb26020830185610b51565b610cbf6040830184610c66565b949350505050565b6000608082019050610cdc6000830187610b51565b610ce96020830186610b51565b610cf66040830185610c66565b610d036060830184610c66565b95945050505050565b6000604082019050610d216000830185610b51565b610d2e6020830184610c66565b9392505050565b6000602082019050610d4a6000830184610b60565b92915050565b6000602082019050610d656000830184610b6f565b92915050565b60006020820190508181036000830152610d858184610b7e565b905092915050565b60006020820190508181036000830152610da681610bb7565b9050919050565b60006020820190508181036000830152610dc681610bda565b9050919050565b60006020820190508181036000830152610de681610bfd565b9050919050565b60006020820190508181036000830152610e0681610c20565b9050919050565b60006020820190508181036000830152610e2681610c43565b9050919050565b6000602082019050610e426000830184610c66565b92915050565b6000610e52610e63565b9050610e5e8282611049565b919050565b6000604051905090565b600067ffffffffffffffff821115610e8857610e87611107565b5b610e918261114a565b9050602081019050919050565b600081519050919050565b600082825260208201905092915050565b6000610ec582610f83565b9150610ed083610f83565b925082610ee057610edf6110a9565b5b828204905092915050565b6000610ef682610f83565b9150610f0183610f83565b9250817fffffffffffffffffffffffffffffffffffffffffffffffffffffffffffffffff0483118215151615610f3a57610f3961107a565b5b828202905092915050565b6000610f5082610f63565b9050919050565b60008115159050919050565b600073ffffffffffffffffffffffffffffffffffffffff82169050919050565b6000819050919050565b6000610f9882610fb1565b9050919050565b6000610faa82610fb1565b9050919050565b6000610fbc82610fc3565b9050919050565b6000610fce82610f63565b9050919050565b82818337600083830152505050565b60005b83811015611002578082015181840152602081019050610fe7565b83811115611011576000848401525b50505050565b6000600282049050600182168061102f57607f821691505b60208210811415611043576110426110d8565b5b50919050565b6110528261114a565b810181811067ffffffffffffffff8211171561107157611070611107565b5b80604052505050565b7f4e487b7100000000000000000000000000000000000000000000000000000000600052601160045260246000fd5b7f4e487b7100000000000000000000000000000000000000000000000000000000600052601260045260246000fd5b7f4e487b7100000000000000000000000000000000000000000000000000000000600052602260045260246000fd5b7f4e487b7100000000000000000000000000000000000000000000000000000000600052604160045260246000fd5b600080fd5b600080fd5b600080fd5b600080fd5b6000601f19601f8301169050919050565b7f5377617020636f6e747261637420646f6573206e6f74206861766520656e6f7560008201527f676820617661696c61626c652045544820616d6f756e74000000000000000000602082015250565b7f596f752063616e206e6f742073656c6c206d6f726520746f6b656e732074686160008201527f6e20796f752063757272656e746c7920686f6c64000000000000000000000000602082015250565b7f4e6f7420656e6f75676820435a4820617661696c61626c6520746f2062757900600082015250565b7f4e6f7420656e6f7567682066756e6473206f6e20457468537761700000000000600082015250565b7f4e6f7420656e6f7567682066756e647320746f20737761700000000000000000600082015250565b61127d81610f45565b811461128857600080fd5b50565b61129481610f57565b811461129f57600080fd5b50565b6112ab81610f83565b81146112b657600080fd5b5056fea26469706673582212204c91eca923731342e639a435f04b1e1c599829018a21e1565baa540794d005de64736f6c63430008070033",
					"opcodes": "PUSH1 0x80 PUSH1 0x40 MSTORE PUSH1 0x40 MLOAD DUP1 PUSH1 0x40 ADD PUSH1 0x40 MSTORE DUP1 PUSH1 0x1A DUP2 MSTORE PUSH1 0x20 ADD PUSH32 0x457468207377617020706C6174666F726D20636F6E7472616374000000000000 DUP2 MSTORE POP PUSH1 0x0 SWAP1 DUP1 MLOAD SWAP1 PUSH1 0x20 ADD SWAP1 PUSH3 0x51 SWAP3 SWAP2 SWAP1 PUSH3 0x287 JUMP JUMPDEST POP PUSH1 0x64 PUSH1 0x3 SSTORE PUSH1 0xA PUSH1 0x4 SSTORE CALLVALUE DUP1 ISZERO PUSH3 0x69 JUMPI PUSH1 0x0 DUP1 REVERT JUMPDEST POP PUSH1 0x40 MLOAD PUSH3 0x1840 CODESIZE SUB DUP1 PUSH3 0x1840 DUP4 CODECOPY DUP2 DUP2 ADD PUSH1 0x40 MSTORE DUP2 ADD SWAP1 PUSH3 0x8F SWAP2 SWAP1 PUSH3 0x37C JUMP JUMPDEST DUP2 PUSH1 0x1 PUSH1 0x0 PUSH2 0x100 EXP DUP2 SLOAD DUP2 PUSH20 0xFFFFFFFFFFFFFFFFFFFFFFFFFFFFFFFFFFFFFFFF MUL NOT AND SWAP1 DUP4 PUSH20 0xFFFFFFFFFFFFFFFFFFFFFFFFFFFFFFFFFFFFFFFF AND MUL OR SWAP1 SSTORE POP DUP1 PUSH1 0x2 PUSH1 0x0 PUSH2 0x100 EXP DUP2 SLOAD DUP2 PUSH20 0xFFFFFFFFFFFFFFFFFFFFFFFFFFFFFFFFFFFFFFFF MUL NOT AND SWAP1 DUP4 PUSH20 0xFFFFFFFFFFFFFFFFFFFFFFFFFFFFFFFFFFFFFFFF AND MUL OR SWAP1 SSTORE POP PUSH1 0x1 PUSH1 0x0 SWAP1 SLOAD SWAP1 PUSH2 0x100 EXP SWAP1 DIV PUSH20 0xFFFFFFFFFFFFFFFFFFFFFFFFFFFFFFFFFFFFFFFF AND PUSH20 0xFFFFFFFFFFFFFFFFFFFFFFFFFFFFFFFFFFFFFFFF AND PUSH4 0x70A08231 ADDRESS PUSH1 0x40 MLOAD DUP3 PUSH4 0xFFFFFFFF AND PUSH1 0xE0 SHL DUP2 MSTORE PUSH1 0x4 ADD PUSH3 0x16E SWAP2 SWAP1 PUSH3 0x406 JUMP JUMPDEST PUSH1 0x20 PUSH1 0x40 MLOAD DUP1 DUP4 SUB DUP2 DUP7 DUP1 EXTCODESIZE ISZERO DUP1 ISZERO PUSH3 0x187 JUMPI PUSH1 0x0 DUP1 REVERT JUMPDEST POP GAS STATICCALL ISZERO DUP1 ISZERO PUSH3 0x19C JUMPI RETURNDATASIZE PUSH1 0x0 DUP1 RETURNDATACOPY RETURNDATASIZE PUSH1 0x0 REVERT JUMPDEST POP POP POP POP PUSH1 0x40 MLOAD RETURNDATASIZE PUSH1 0x1F NOT PUSH1 0x1F DUP3 ADD AND DUP3 ADD DUP1 PUSH1 0x40 MSTORE POP DUP2 ADD SWAP1 PUSH3 0x1C2 SWAP2 SWAP1 PUSH3 0x3C3 JUMP JUMPDEST PUSH1 0x5 DUP2 SWAP1 SSTORE POP PUSH1 0x2 PUSH1 0x0 SWAP1 SLOAD SWAP1 PUSH2 0x100 EXP SWAP1 DIV PUSH20 0xFFFFFFFFFFFFFFFFFFFFFFFFFFFFFFFFFFFFFFFF AND PUSH20 0xFFFFFFFFFFFFFFFFFFFFFFFFFFFFFFFFFFFFFFFF AND PUSH4 0x70A08231 ADDRESS PUSH1 0x40 MLOAD DUP3 PUSH4 0xFFFFFFFF AND PUSH1 0xE0 SHL DUP2 MSTORE PUSH1 0x4 ADD PUSH3 0x225 SWAP2 SWAP1 PUSH3 0x406 JUMP JUMPDEST PUSH1 0x20 PUSH1 0x40 MLOAD DUP1 DUP4 SUB DUP2 DUP7 DUP1 EXTCODESIZE ISZERO DUP1 ISZERO PUSH3 0x23E JUMPI PUSH1 0x0 DUP1 REVERT JUMPDEST POP GAS STATICCALL ISZERO DUP1 ISZERO PUSH3 0x253 JUMPI RETURNDATASIZE PUSH1 0x0 DUP1 RETURNDATACOPY RETURNDATASIZE PUSH1 0x0 REVERT JUMPDEST POP POP POP POP PUSH1 0x40 MLOAD RETURNDATASIZE PUSH1 0x1F NOT PUSH1 0x1F DUP3 ADD AND DUP3 ADD DUP1 PUSH1 0x40 MSTORE POP DUP2 ADD SWAP1 PUSH3 0x279 SWAP2 SWAP1 PUSH3 0x3C3 JUMP JUMPDEST PUSH1 0x6 DUP2 SWAP1 SSTORE POP POP POP PUSH3 0x541 JUMP JUMPDEST DUP3 DUP1 SLOAD PUSH3 0x295 SWAP1 PUSH3 0x489 JUMP JUMPDEST SWAP1 PUSH1 0x0 MSTORE PUSH1 0x20 PUSH1 0x0 KECCAK256 SWAP1 PUSH1 0x1F ADD PUSH1 0x20 SWAP1 DIV DUP2 ADD SWAP3 DUP3 PUSH3 0x2B9 JUMPI PUSH1 0x0 DUP6 SSTORE PUSH3 0x305 JUMP JUMPDEST DUP3 PUSH1 0x1F LT PUSH3 0x2D4 JUMPI DUP1 MLOAD PUSH1 0xFF NOT AND DUP4 DUP1 ADD OR DUP6 SSTORE PUSH3 0x305 JUMP JUMPDEST DUP3 DUP1 ADD PUSH1 0x1 ADD DUP6 SSTORE DUP3 ISZERO PUSH3 0x305 JUMPI SWAP2 DUP3 ADD JUMPDEST DUP3 DUP2 GT ISZERO PUSH3 0x304 JUMPI DUP3 MLOAD DUP3 SSTORE SWAP2 PUSH1 0x20 ADD SWAP2 SWAP1 PUSH1 0x1 ADD SWAP1 PUSH3 0x2E7 JUMP JUMPDEST JUMPDEST POP SWAP1 POP PUSH3 0x314 SWAP2 SWAP1 PUSH3 0x318 JUMP JUMPDEST POP SWAP1 JUMP JUMPDEST JUMPDEST DUP1 DUP3 GT ISZERO PUSH3 0x333 JUMPI PUSH1 0x0 DUP2 PUSH1 0x0 SWAP1 SSTORE POP PUSH1 0x1 ADD PUSH3 0x319 JUMP JUMPDEST POP SWAP1 JUMP JUMPDEST PUSH1 0x0 DUP2 MLOAD SWAP1 POP PUSH3 0x348 DUP2 PUSH3 0x4F3 JUMP JUMPDEST SWAP3 SWAP2 POP POP JUMP JUMPDEST PUSH1 0x0 DUP2 MLOAD SWAP1 POP PUSH3 0x35F DUP2 PUSH3 0x50D JUMP JUMPDEST SWAP3 SWAP2 POP POP JUMP JUMPDEST PUSH1 0x0 DUP2 MLOAD SWAP1 POP PUSH3 0x376 DUP2 PUSH3 0x527 JUMP JUMPDEST SWAP3 SWAP2 POP POP JUMP JUMPDEST PUSH1 0x0 DUP1 PUSH1 0x40 DUP4 DUP6 SUB SLT ISZERO PUSH3 0x396 JUMPI PUSH3 0x395 PUSH3 0x4EE JUMP JUMPDEST JUMPDEST PUSH1 0x0 PUSH3 0x3A6 DUP6 DUP3 DUP7 ADD PUSH3 0x337 JUMP JUMPDEST SWAP3 POP POP PUSH1 0x20 PUSH3 0x3B9 DUP6 DUP3 DUP7 ADD PUSH3 0x34E JUMP JUMPDEST SWAP2 POP POP SWAP3 POP SWAP3 SWAP1 POP JUMP JUMPDEST PUSH1 0x0 PUSH1 0x20 DUP3 DUP5 SUB SLT ISZERO PUSH3 0x3DC JUMPI PUSH3 0x3DB PUSH3 0x4EE JUMP JUMPDEST JUMPDEST PUSH1 0x0 PUSH3 0x3EC DUP5 DUP3 DUP6 ADD PUSH3 0x365 JUMP JUMPDEST SWAP2 POP POP SWAP3 SWAP2 POP POP JUMP JUMPDEST PUSH3 0x400 DUP2 PUSH3 0x423 JUMP JUMPDEST DUP3 MSTORE POP POP JUMP JUMPDEST PUSH1 0x0 PUSH1 0x20 DUP3 ADD SWAP1 POP PUSH3 0x41D PUSH1 0x0 DUP4 ADD DUP5 PUSH3 0x3F5 JUMP JUMPDEST SWAP3 SWAP2 POP POP JUMP JUMPDEST PUSH1 0x0 PUSH3 0x430 DUP3 PUSH3 0x45F JUMP JUMPDEST SWAP1 POP SWAP2 SWAP1 POP JUMP JUMPDEST PUSH1 0x0 PUSH3 0x444 DUP3 PUSH3 0x423 JUMP JUMPDEST SWAP1 POP SWAP2 SWAP1 POP JUMP JUMPDEST PUSH1 0x0 PUSH3 0x458 DUP3 PUSH3 0x423 JUMP JUMPDEST SWAP1 POP SWAP2 SWAP1 POP JUMP JUMPDEST PUSH1 0x0 PUSH20 0xFFFFFFFFFFFFFFFFFFFFFFFFFFFFFFFFFFFFFFFF DUP3 AND SWAP1 POP SWAP2 SWAP1 POP JUMP JUMPDEST PUSH1 0x0 DUP2 SWAP1 POP SWAP2 SWAP1 POP JUMP JUMPDEST PUSH1 0x0 PUSH1 0x2 DUP3 DIV SWAP1 POP PUSH1 0x1 DUP3 AND DUP1 PUSH3 0x4A2 JUMPI PUSH1 0x7F DUP3 AND SWAP2 POP JUMPDEST PUSH1 0x20 DUP3 LT DUP2 EQ ISZERO PUSH3 0x4B9 JUMPI PUSH3 0x4B8 PUSH3 0x4BF JUMP JUMPDEST JUMPDEST POP SWAP2 SWAP1 POP JUMP JUMPDEST PUSH32 0x4E487B7100000000000000000000000000000000000000000000000000000000 PUSH1 0x0 MSTORE PUSH1 0x22 PUSH1 0x4 MSTORE PUSH1 0x24 PUSH1 0x0 REVERT JUMPDEST PUSH1 0x0 DUP1 REVERT JUMPDEST PUSH3 0x4FE DUP2 PUSH3 0x437 JUMP JUMPDEST DUP2 EQ PUSH3 0x50A JUMPI PUSH1 0x0 DUP1 REVERT JUMPDEST POP JUMP JUMPDEST PUSH3 0x518 DUP2 PUSH3 0x44B JUMP JUMPDEST DUP2 EQ PUSH3 0x524 JUMPI PUSH1 0x0 DUP1 REVERT JUMPDEST POP JUMP JUMPDEST PUSH3 0x532 DUP2 PUSH3 0x47F JUMP JUMPDEST DUP2 EQ PUSH3 0x53E JUMPI PUSH1 0x0 DUP1 REVERT JUMPDEST POP JUMP JUMPDEST PUSH2 0x12EF DUP1 PUSH3 0x551 PUSH1 0x0 CODECOPY PUSH1 0x0 RETURN INVALID PUSH1 0x80 PUSH1 0x40 MSTORE PUSH1 0x4 CALLDATASIZE LT PUSH2 0x91 JUMPI PUSH1 0x0 CALLDATALOAD PUSH1 0xE0 SHR DUP1 PUSH4 0x6C11BCD3 GT PUSH2 0x59 JUMPI DUP1 PUSH4 0x6C11BCD3 EQ PUSH2 0x15E JUMPI DUP1 PUSH4 0x7CC1478A EQ PUSH2 0x17A JUMPI DUP1 PUSH4 0x848D82EB EQ PUSH2 0x1A5 JUMPI DUP1 PUSH4 0xA1E18E1A EQ PUSH2 0x1D0 JUMPI DUP1 PUSH4 0xD0FEBE4C EQ PUSH2 0x1FB JUMPI PUSH2 0x91 JUMP JUMPDEST DUP1 PUSH4 0x6FDDE03 EQ PUSH2 0x96 JUMPI DUP1 PUSH4 0x1739FEF0 EQ PUSH2 0xC1 JUMPI DUP1 PUSH4 0x3AA6F8FA EQ PUSH2 0xEC JUMPI DUP1 PUSH4 0x63439499 EQ PUSH2 0x117 JUMPI DUP1 PUSH4 0x662B1AF6 EQ PUSH2 0x133 JUMPI JUMPDEST PUSH1 0x0 DUP1 REVERT JUMPDEST CALLVALUE DUP1 ISZERO PUSH2 0xA2 JUMPI PUSH1 0x0 DUP1 REVERT JUMPDEST POP PUSH2 0xAB PUSH2 0x205 JUMP JUMPDEST PUSH1 0x40 MLOAD PUSH2 0xB8 SWAP2 SWAP1 PUSH2 0xD6B JUMP JUMPDEST PUSH1 0x40 MLOAD DUP1 SWAP2 SUB SWAP1 RETURN JUMPDEST CALLVALUE DUP1 ISZERO PUSH2 0xCD JUMPI PUSH1 0x0 DUP1 REVERT JUMPDEST POP PUSH2 0xD6 PUSH2 0x293 JUMP JUMPDEST PUSH1 0x40 MLOAD PUSH2 0xE3 SWAP2 SWAP1 PUSH2 0xE2D JUMP JUMPDEST PUSH1 0x40 MLOAD DUP1 SWAP2 SUB SWAP1 RETURN JUMPDEST CALLVALUE DUP1 ISZERO PUSH2 0xF8 JUMPI PUSH1 0x0 DUP1 REVERT JUMPDEST POP PUSH2 0x101 PUSH2 0x299 JUMP JUMPDEST PUSH1 0x40 MLOAD PUSH2 0x10E SWAP2 SWAP1 PUSH2 0xE2D JUMP JUMPDEST PUSH1 0x40 MLOAD DUP1 SWAP2 SUB SWAP1 RETURN JUMPDEST PUSH2 0x131 PUSH1 0x4 DUP1 CALLDATASIZE SUB DUP2 ADD SWAP1 PUSH2 0x12C SWAP2 SWAP1 PUSH2 0xA17 JUMP JUMPDEST PUSH2 0x29F JUMP JUMPDEST STOP JUMPDEST CALLVALUE DUP1 ISZERO PUSH2 0x13F JUMPI PUSH1 0x0 DUP1 REVERT JUMPDEST POP PUSH2 0x148 PUSH2 0x448 JUMP JUMPDEST PUSH1 0x40 MLOAD PUSH2 0x155 SWAP2 SWAP1 PUSH2 0xE2D JUMP JUMPDEST PUSH1 0x40 MLOAD DUP1 SWAP2 SUB SWAP1 RETURN JUMPDEST PUSH2 0x178 PUSH1 0x4 DUP1 CALLDATASIZE SUB DUP2 ADD SWAP1 PUSH2 0x173 SWAP2 SWAP1 PUSH2 0xAF7 JUMP JUMPDEST PUSH2 0x44E JUMP JUMPDEST STOP JUMPDEST CALLVALUE DUP1 ISZERO PUSH2 0x186 JUMPI PUSH1 0x0 DUP1 REVERT JUMPDEST POP PUSH2 0x18F PUSH2 0x6EE JUMP JUMPDEST PUSH1 0x40 MLOAD PUSH2 0x19C SWAP2 SWAP1 PUSH2 0xD35 JUMP JUMPDEST PUSH1 0x40 MLOAD DUP1 SWAP2 SUB SWAP1 RETURN JUMPDEST CALLVALUE DUP1 ISZERO PUSH2 0x1B1 JUMPI PUSH1 0x0 DUP1 REVERT JUMPDEST POP PUSH2 0x1BA PUSH2 0x714 JUMP JUMPDEST PUSH1 0x40 MLOAD PUSH2 0x1C7 SWAP2 SWAP1 PUSH2 0xD50 JUMP JUMPDEST PUSH1 0x40 MLOAD DUP1 SWAP2 SUB SWAP1 RETURN JUMPDEST CALLVALUE DUP1 ISZERO PUSH2 0x1DC JUMPI PUSH1 0x0 DUP1 REVERT JUMPDEST POP PUSH2 0x1E5 PUSH2 0x73A JUMP JUMPDEST PUSH1 0x40 MLOAD PUSH2 0x1F2 SWAP2 SWAP1 PUSH2 0xE2D JUMP JUMPDEST PUSH1 0x40 MLOAD DUP1 SWAP2 SUB SWAP1 RETURN JUMPDEST PUSH2 0x203 PUSH2 0x740 JUMP JUMPDEST STOP JUMPDEST PUSH1 0x0 DUP1 SLOAD PUSH2 0x212 SWAP1 PUSH2 0x1017 JUMP JUMPDEST DUP1 PUSH1 0x1F ADD PUSH1 0x20 DUP1 SWAP2 DIV MUL PUSH1 0x20 ADD PUSH1 0x40 MLOAD SWAP1 DUP2 ADD PUSH1 0x40 MSTORE DUP1 SWAP3 SWAP2 SWAP1 DUP2 DUP2 MSTORE PUSH1 0x20 ADD DUP3 DUP1 SLOAD PUSH2 0x23E SWAP1 PUSH2 0x1017 JUMP JUMPDEST DUP1 ISZERO PUSH2 0x28B JUMPI DUP1 PUSH1 0x1F LT PUSH2 0x260 JUMPI PUSH2 0x100 DUP1 DUP4 SLOAD DIV MUL DUP4 MSTORE SWAP2 PUSH1 0x20 ADD SWAP2 PUSH2 0x28B JUMP JUMPDEST DUP3 ADD SWAP2 SWAP1 PUSH1 0x0 MSTORE PUSH1 0x20 PUSH1 0x0 KECCAK256 SWAP1 JUMPDEST DUP2 SLOAD DUP2 MSTORE SWAP1 PUSH1 0x1 ADD SWAP1 PUSH1 0x20 ADD DUP1 DUP4 GT PUSH2 0x26E JUMPI DUP3 SWAP1 SUB PUSH1 0x1F AND DUP3 ADD SWAP2 JUMPDEST POP POP POP POP POP DUP2 JUMP JUMPDEST PUSH1 0x4 SLOAD DUP2 JUMP JUMPDEST PUSH1 0x5 SLOAD DUP2 JUMP JUMPDEST PUSH1 0x0 DUP5 SWAP1 POP PUSH1 0x0 DUP7 SWAP1 POP DUP5 DUP3 PUSH20 0xFFFFFFFFFFFFFFFFFFFFFFFFFFFFFFFFFFFFFFFF AND PUSH4 0x70A08231 CALLER PUSH1 0x40 MLOAD DUP3 PUSH4 0xFFFFFFFF AND PUSH1 0xE0 SHL DUP2 MSTORE PUSH1 0x4 ADD PUSH2 0x2E3 SWAP2 SWAP1 PUSH2 0xC75 JUMP JUMPDEST PUSH1 0x20 PUSH1 0x40 MLOAD DUP1 DUP4 SUB DUP2 DUP7 DUP1 EXTCODESIZE ISZERO DUP1 ISZERO PUSH2 0x2FB JUMPI PUSH1 0x0 DUP1 REVERT JUMPDEST POP GAS STATICCALL ISZERO DUP1 ISZERO PUSH2 0x30F JUMPI RETURNDATASIZE PUSH1 0x0 DUP1 RETURNDATACOPY RETURNDATASIZE PUSH1 0x0 REVERT JUMPDEST POP POP POP POP PUSH1 0x40 MLOAD RETURNDATASIZE PUSH1 0x1F NOT PUSH1 0x1F DUP3 ADD AND DUP3 ADD DUP1 PUSH1 0x40 MSTORE POP DUP2 ADD SWAP1 PUSH2 0x333 SWAP2 SWAP1 PUSH2 0xB24 JUMP JUMPDEST GT ISZERO PUSH2 0x374 JUMPI PUSH1 0x40 MLOAD PUSH32 0x8C379A000000000000000000000000000000000000000000000000000000000 DUP2 MSTORE PUSH1 0x4 ADD PUSH2 0x36B SWAP1 PUSH2 0xE0D JUMP JUMPDEST PUSH1 0x40 MLOAD DUP1 SWAP2 SUB SWAP1 REVERT JUMPDEST DUP5 DUP2 PUSH20 0xFFFFFFFFFFFFFFFFFFFFFFFFFFFFFFFFFFFFFFFF AND PUSH4 0x70A08231 ADDRESS PUSH1 0x40 MLOAD DUP3 PUSH4 0xFFFFFFFF AND PUSH1 0xE0 SHL DUP2 MSTORE PUSH1 0x4 ADD PUSH2 0x3AE SWAP2 SWAP1 PUSH2 0xC75 JUMP JUMPDEST PUSH1 0x20 PUSH1 0x40 MLOAD DUP1 DUP4 SUB DUP2 DUP7 DUP1 EXTCODESIZE ISZERO DUP1 ISZERO PUSH2 0x3C6 JUMPI PUSH1 0x0 DUP1 REVERT JUMPDEST POP GAS STATICCALL ISZERO DUP1 ISZERO PUSH2 0x3DA JUMPI RETURNDATASIZE PUSH1 0x0 DUP1 RETURNDATACOPY RETURNDATASIZE PUSH1 0x0 REVERT JUMPDEST POP POP POP POP PUSH1 0x40 MLOAD RETURNDATASIZE PUSH1 0x1F NOT PUSH1 0x1F DUP3 ADD AND DUP3 ADD DUP1 PUSH1 0x40 MSTORE POP DUP2 ADD SWAP1 PUSH2 0x3FE SWAP2 SWAP1 PUSH2 0xB24 JUMP JUMPDEST GT ISZERO PUSH2 0x43F JUMPI PUSH1 0x40 MLOAD PUSH32 0x8C379A000000000000000000000000000000000000000000000000000000000 DUP2 MSTORE PUSH1 0x4 ADD PUSH2 0x436 SWAP1 PUSH2 0xDED JUMP JUMPDEST PUSH1 0x40 MLOAD DUP1 SWAP2 SUB SWAP1 REVERT JUMPDEST POP POP POP POP POP POP POP JUMP JUMPDEST PUSH1 0x6 SLOAD DUP2 JUMP JUMPDEST DUP1 PUSH1 0x1 PUSH1 0x0 SWAP1 SLOAD SWAP1 PUSH2 0x100 EXP SWAP1 DIV PUSH20 0xFFFFFFFFFFFFFFFFFFFFFFFFFFFFFFFFFFFFFFFF AND PUSH20 0xFFFFFFFFFFFFFFFFFFFFFFFFFFFFFFFFFFFFFFFF AND PUSH4 0x70A08231 CALLER PUSH1 0x40 MLOAD DUP3 PUSH4 0xFFFFFFFF AND PUSH1 0xE0 SHL DUP2 MSTORE PUSH1 0x4 ADD PUSH2 0x4AA SWAP2 SWAP1 PUSH2 0xC75 JUMP JUMPDEST PUSH1 0x20 PUSH1 0x40 MLOAD DUP1 DUP4 SUB DUP2 DUP7 DUP1 EXTCODESIZE ISZERO DUP1 ISZERO PUSH2 0x4C2 JUMPI PUSH1 0x0 DUP1 REVERT JUMPDEST POP GAS STATICCALL ISZERO DUP1 ISZERO PUSH2 0x4D6 JUMPI RETURNDATASIZE PUSH1 0x0 DUP1 RETURNDATACOPY RETURNDATASIZE PUSH1 0x0 REVERT JUMPDEST POP POP POP POP PUSH1 0x40 MLOAD RETURNDATASIZE PUSH1 0x1F NOT PUSH1 0x1F DUP3 ADD AND DUP3 ADD DUP1 PUSH1 0x40 MSTORE POP DUP2 ADD SWAP1 PUSH2 0x4FA SWAP2 SWAP1 PUSH2 0xB24 JUMP JUMPDEST LT ISZERO PUSH2 0x53B JUMPI PUSH1 0x40 MLOAD PUSH32 0x8C379A000000000000000000000000000000000000000000000000000000000 DUP2 MSTORE PUSH1 0x4 ADD PUSH2 0x532 SWAP1 PUSH2 0xDAD JUMP JUMPDEST PUSH1 0x40 MLOAD DUP1 SWAP2 SUB SWAP1 REVERT JUMPDEST PUSH1 0x0 PUSH1 0x3 SLOAD DUP3 PUSH2 0x54B SWAP2 SWAP1 PUSH2 0xEBA JUMP JUMPDEST SWAP1 POP DUP1 SELFBALANCE LT ISZERO PUSH2 0x590 JUMPI PUSH1 0x40 MLOAD PUSH32 0x8C379A000000000000000000000000000000000000000000000000000000000 DUP2 MSTORE PUSH1 0x4 ADD PUSH2 0x587 SWAP1 PUSH2 0xD8D JUMP JUMPDEST PUSH1 0x40 MLOAD DUP1 SWAP2 SUB SWAP1 REVERT JUMPDEST PUSH1 0x1 PUSH1 0x0 SWAP1 SLOAD SWAP1 PUSH2 0x100 EXP SWAP1 DIV PUSH20 0xFFFFFFFFFFFFFFFFFFFFFFFFFFFFFFFFFFFFFFFF AND PUSH20 0xFFFFFFFFFFFFFFFFFFFFFFFFFFFFFFFFFFFFFFFF AND PUSH4 0x23B872DD CALLER ADDRESS DUP6 PUSH1 0x40 MLOAD DUP5 PUSH4 0xFFFFFFFF AND PUSH1 0xE0 SHL DUP2 MSTORE PUSH1 0x4 ADD PUSH2 0x5EF SWAP4 SWAP3 SWAP2 SWAP1 PUSH2 0xC90 JUMP JUMPDEST PUSH1 0x20 PUSH1 0x40 MLOAD DUP1 DUP4 SUB DUP2 PUSH1 0x0 DUP8 DUP1 EXTCODESIZE ISZERO DUP1 ISZERO PUSH2 0x609 JUMPI PUSH1 0x0 DUP1 REVERT JUMPDEST POP GAS CALL ISZERO DUP1 ISZERO PUSH2 0x61D JUMPI RETURNDATASIZE PUSH1 0x0 DUP1 RETURNDATACOPY RETURNDATASIZE PUSH1 0x0 REVERT JUMPDEST POP POP POP POP PUSH1 0x40 MLOAD RETURNDATASIZE PUSH1 0x1F NOT PUSH1 0x1F DUP3 ADD AND DUP3 ADD DUP1 PUSH1 0x40 MSTORE POP DUP2 ADD SWAP1 PUSH2 0x641 SWAP2 SWAP1 PUSH2 0xACA JUMP JUMPDEST POP CALLER PUSH20 0xFFFFFFFFFFFFFFFFFFFFFFFFFFFFFFFFFFFFFFFF AND PUSH2 0x8FC DUP3 SWAP1 DUP2 ISZERO MUL SWAP1 PUSH1 0x40 MLOAD PUSH1 0x0 PUSH1 0x40 MLOAD DUP1 DUP4 SUB DUP2 DUP6 DUP9 DUP9 CALL SWAP4 POP POP POP POP ISZERO DUP1 ISZERO PUSH2 0x688 JUMPI RETURNDATASIZE PUSH1 0x0 DUP1 RETURNDATACOPY RETURNDATASIZE PUSH1 0x0 REVERT JUMPDEST POP PUSH32 0x697C42D55A5E1FED3F464EC6F38B32546A0BD368DC8068B065C67566D73F3290 CALLER PUSH1 0x1 PUSH1 0x0 SWAP1 SLOAD SWAP1 PUSH2 0x100 EXP SWAP1 DIV PUSH20 0xFFFFFFFFFFFFFFFFFFFFFFFFFFFFFFFFFFFFFFFF AND DUP5 PUSH1 0x3 SLOAD PUSH1 0x40 MLOAD PUSH2 0x6E2 SWAP5 SWAP4 SWAP3 SWAP2 SWAP1 PUSH2 0xCC7 JUMP JUMPDEST PUSH1 0x40 MLOAD DUP1 SWAP2 SUB SWAP1 LOG1 POP POP JUMP JUMPDEST PUSH1 0x1 PUSH1 0x0 SWAP1 SLOAD SWAP1 PUSH2 0x100 EXP SWAP1 DIV PUSH20 0xFFFFFFFFFFFFFFFFFFFFFFFFFFFFFFFFFFFFFFFF AND DUP2 JUMP JUMPDEST PUSH1 0x2 PUSH1 0x0 SWAP1 SLOAD SWAP1 PUSH2 0x100 EXP SWAP1 DIV PUSH20 0xFFFFFFFFFFFFFFFFFFFFFFFFFFFFFFFFFFFFFFFF AND DUP2 JUMP JUMPDEST PUSH1 0x3 SLOAD DUP2 JUMP JUMPDEST PUSH1 0x0 PUSH1 0x3 SLOAD CALLVALUE PUSH2 0x750 SWAP2 SWAP1 PUSH2 0xEEB JUMP JUMPDEST SWAP1 POP DUP1 PUSH1 0x1 PUSH1 0x0 SWAP1 SLOAD SWAP1 PUSH2 0x100 EXP SWAP1 DIV PUSH20 0xFFFFFFFFFFFFFFFFFFFFFFFFFFFFFFFFFFFFFFFF AND PUSH20 0xFFFFFFFFFFFFFFFFFFFFFFFFFFFFFFFFFFFFFFFF AND PUSH4 0x70A08231 ADDRESS PUSH1 0x40 MLOAD DUP3 PUSH4 0xFFFFFFFF AND PUSH1 0xE0 SHL DUP2 MSTORE PUSH1 0x4 ADD PUSH2 0x7AE SWAP2 SWAP1 PUSH2 0xC75 JUMP JUMPDEST PUSH1 0x20 PUSH1 0x40 MLOAD DUP1 DUP4 SUB DUP2 DUP7 DUP1 EXTCODESIZE ISZERO DUP1 ISZERO PUSH2 0x7C6 JUMPI PUSH1 0x0 DUP1 REVERT JUMPDEST POP GAS STATICCALL ISZERO DUP1 ISZERO PUSH2 0x7DA JUMPI RETURNDATASIZE PUSH1 0x0 DUP1 RETURNDATACOPY RETURNDATASIZE PUSH1 0x0 REVERT JUMPDEST POP POP POP POP PUSH1 0x40 MLOAD RETURNDATASIZE PUSH1 0x1F NOT PUSH1 0x1F DUP3 ADD AND DUP3 ADD DUP1 PUSH1 0x40 MSTORE POP DUP2 ADD SWAP1 PUSH2 0x7FE SWAP2 SWAP1 PUSH2 0xB24 JUMP JUMPDEST LT ISZERO PUSH2 0x83F JUMPI PUSH1 0x40 MLOAD PUSH32 0x8C379A000000000000000000000000000000000000000000000000000000000 DUP2 MSTORE PUSH1 0x4 ADD PUSH2 0x836 SWAP1 PUSH2 0xDCD JUMP JUMPDEST PUSH1 0x40 MLOAD DUP1 SWAP2 SUB SWAP1 REVERT JUMPDEST PUSH1 0x1 PUSH1 0x0 SWAP1 SLOAD SWAP1 PUSH2 0x100 EXP SWAP1 DIV PUSH20 0xFFFFFFFFFFFFFFFFFFFFFFFFFFFFFFFFFFFFFFFF AND PUSH20 0xFFFFFFFFFFFFFFFFFFFFFFFFFFFFFFFFFFFFFFFF AND PUSH4 0xA9059CBB CALLER DUP4 PUSH1 0x40 MLOAD DUP4 PUSH4 0xFFFFFFFF AND PUSH1 0xE0 SHL DUP2 MSTORE PUSH1 0x4 ADD PUSH2 0x89C SWAP3 SWAP2 SWAP1 PUSH2 0xD0C JUMP JUMPDEST PUSH1 0x20 PUSH1 0x40 MLOAD DUP1 DUP4 SUB DUP2 PUSH1 0x0 DUP8 DUP1 EXTCODESIZE ISZERO DUP1 ISZERO PUSH2 0x8B6 JUMPI PUSH1 0x0 DUP1 REVERT JUMPDEST POP GAS CALL ISZERO DUP1 ISZERO PUSH2 0x8CA JUMPI RETURNDATASIZE PUSH1 0x0 DUP1 RETURNDATACOPY RETURNDATASIZE PUSH1 0x0 REVERT JUMPDEST POP POP POP POP PUSH1 0x40 MLOAD RETURNDATASIZE PUSH1 0x1F NOT PUSH1 0x1F DUP3 ADD AND DUP3 ADD DUP1 PUSH1 0x40 MSTORE POP DUP2 ADD SWAP1 PUSH2 0x8EE SWAP2 SWAP1 PUSH2 0xACA JUMP JUMPDEST POP PUSH32 0x6FAF93231A456E552DBC9961F58D9713EE4F2E69D15F1975B050EF0911053A7B CALLER PUSH1 0x1 PUSH1 0x0 SWAP1 SLOAD SWAP1 PUSH2 0x100 EXP SWAP1 DIV PUSH20 0xFFFFFFFFFFFFFFFFFFFFFFFFFFFFFFFFFFFFFFFF AND DUP4 PUSH1 0x3 SLOAD PUSH1 0x40 MLOAD PUSH2 0x948 SWAP5 SWAP4 SWAP3 SWAP2 SWAP1 PUSH2 0xCC7 JUMP JUMPDEST PUSH1 0x40 MLOAD DUP1 SWAP2 SUB SWAP1 LOG1 POP JUMP JUMPDEST PUSH1 0x0 PUSH2 0x966 PUSH2 0x961 DUP5 PUSH2 0xE6D JUMP JUMPDEST PUSH2 0xE48 JUMP JUMPDEST SWAP1 POP DUP3 DUP2 MSTORE PUSH1 0x20 DUP2 ADD DUP5 DUP5 DUP5 ADD GT ISZERO PUSH2 0x982 JUMPI PUSH2 0x981 PUSH2 0x113B JUMP JUMPDEST JUMPDEST PUSH2 0x98D DUP5 DUP3 DUP6 PUSH2 0xFD5 JUMP JUMPDEST POP SWAP4 SWAP3 POP POP POP JUMP JUMPDEST PUSH1 0x0 DUP2 CALLDATALOAD SWAP1 POP PUSH2 0x9A4 DUP2 PUSH2 0x1274 JUMP JUMPDEST SWAP3 SWAP2 POP POP JUMP JUMPDEST PUSH1 0x0 DUP2 MLOAD SWAP1 POP PUSH2 0x9B9 DUP2 PUSH2 0x128B JUMP JUMPDEST SWAP3 SWAP2 POP POP JUMP JUMPDEST PUSH1 0x0 DUP3 PUSH1 0x1F DUP4 ADD SLT PUSH2 0x9D4 JUMPI PUSH2 0x9D3 PUSH2 0x1136 JUMP JUMPDEST JUMPDEST DUP2 CALLDATALOAD PUSH2 0x9E4 DUP5 DUP3 PUSH1 0x20 DUP7 ADD PUSH2 0x953 JUMP JUMPDEST SWAP2 POP POP SWAP3 SWAP2 POP POP JUMP JUMPDEST PUSH1 0x0 DUP2 CALLDATALOAD SWAP1 POP PUSH2 0x9FC DUP2 PUSH2 0x12A2 JUMP JUMPDEST SWAP3 SWAP2 POP POP JUMP JUMPDEST PUSH1 0x0 DUP2 MLOAD SWAP1 POP PUSH2 0xA11 DUP2 PUSH2 0x12A2 JUMP JUMPDEST SWAP3 SWAP2 POP POP JUMP JUMPDEST PUSH1 0x0 DUP1 PUSH1 0x0 DUP1 PUSH1 0x0 PUSH1 0xA0 DUP7 DUP9 SUB SLT ISZERO PUSH2 0xA33 JUMPI PUSH2 0xA32 PUSH2 0x1145 JUMP JUMPDEST JUMPDEST PUSH1 0x0 PUSH2 0xA41 DUP9 DUP3 DUP10 ADD PUSH2 0x995 JUMP JUMPDEST SWAP6 POP POP PUSH1 0x20 PUSH2 0xA52 DUP9 DUP3 DUP10 ADD PUSH2 0x995 JUMP JUMPDEST SWAP5 POP POP PUSH1 0x40 PUSH2 0xA63 DUP9 DUP3 DUP10 ADD PUSH2 0x9ED JUMP JUMPDEST SWAP4 POP POP PUSH1 0x60 DUP7 ADD CALLDATALOAD PUSH8 0xFFFFFFFFFFFFFFFF DUP2 GT ISZERO PUSH2 0xA84 JUMPI PUSH2 0xA83 PUSH2 0x1140 JUMP JUMPDEST JUMPDEST PUSH2 0xA90 DUP9 DUP3 DUP10 ADD PUSH2 0x9BF JUMP JUMPDEST SWAP3 POP POP PUSH1 0x80 DUP7 ADD CALLDATALOAD PUSH8 0xFFFFFFFFFFFFFFFF DUP2 GT ISZERO PUSH2 0xAB1 JUMPI PUSH2 0xAB0 PUSH2 0x1140 JUMP JUMPDEST JUMPDEST PUSH2 0xABD DUP9 DUP3 DUP10 ADD PUSH2 0x9BF JUMP JUMPDEST SWAP2 POP POP SWAP3 SWAP6 POP SWAP3 SWAP6 SWAP1 SWAP4 POP JUMP JUMPDEST PUSH1 0x0 PUSH1 0x20 DUP3 DUP5 SUB SLT ISZERO PUSH2 0xAE0 JUMPI PUSH2 0xADF PUSH2 0x1145 JUMP JUMPDEST JUMPDEST PUSH1 0x0 PUSH2 0xAEE DUP5 DUP3 DUP6 ADD PUSH2 0x9AA JUMP JUMPDEST SWAP2 POP POP SWAP3 SWAP2 POP POP JUMP JUMPDEST PUSH1 0x0 PUSH1 0x20 DUP3 DUP5 SUB SLT ISZERO PUSH2 0xB0D JUMPI PUSH2 0xB0C PUSH2 0x1145 JUMP JUMPDEST JUMPDEST PUSH1 0x0 PUSH2 0xB1B DUP5 DUP3 DUP6 ADD PUSH2 0x9ED JUMP JUMPDEST SWAP2 POP POP SWAP3 SWAP2 POP POP JUMP JUMPDEST PUSH1 0x0 PUSH1 0x20 DUP3 DUP5 SUB SLT ISZERO PUSH2 0xB3A JUMPI PUSH2 0xB39 PUSH2 0x1145 JUMP JUMPDEST JUMPDEST PUSH1 0x0 PUSH2 0xB48 DUP5 DUP3 DUP6 ADD PUSH2 0xA02 JUMP JUMPDEST SWAP2 POP POP SWAP3 SWAP2 POP POP JUMP JUMPDEST PUSH2 0xB5A DUP2 PUSH2 0xF45 JUMP JUMPDEST DUP3 MSTORE POP POP JUMP JUMPDEST PUSH2 0xB69 DUP2 PUSH2 0xF8D JUMP JUMPDEST DUP3 MSTORE POP POP JUMP JUMPDEST PUSH2 0xB78 DUP2 PUSH2 0xF9F JUMP JUMPDEST DUP3 MSTORE POP POP JUMP JUMPDEST PUSH1 0x0 PUSH2 0xB89 DUP3 PUSH2 0xE9E JUMP JUMPDEST PUSH2 0xB93 DUP2 DUP6 PUSH2 0xEA9 JUMP JUMPDEST SWAP4 POP PUSH2 0xBA3 DUP2 DUP6 PUSH1 0x20 DUP7 ADD PUSH2 0xFE4 JUMP JUMPDEST PUSH2 0xBAC DUP2 PUSH2 0x114A JUMP JUMPDEST DUP5 ADD SWAP2 POP POP SWAP3 SWAP2 POP POP JUMP JUMPDEST PUSH1 0x0 PUSH2 0xBC4 PUSH1 0x37 DUP4 PUSH2 0xEA9 JUMP JUMPDEST SWAP2 POP PUSH2 0xBCF DUP3 PUSH2 0x115B JUMP JUMPDEST PUSH1 0x40 DUP3 ADD SWAP1 POP SWAP2 SWAP1 POP JUMP JUMPDEST PUSH1 0x0 PUSH2 0xBE7 PUSH1 0x34 DUP4 PUSH2 0xEA9 JUMP JUMPDEST SWAP2 POP PUSH2 0xBF2 DUP3 PUSH2 0x11AA JUMP JUMPDEST PUSH1 0x40 DUP3 ADD SWAP1 POP SWAP2 SWAP1 POP JUMP JUMPDEST PUSH1 0x0 PUSH2 0xC0A PUSH1 0x1F DUP4 PUSH2 0xEA9 JUMP JUMPDEST SWAP2 POP PUSH2 0xC15 DUP3 PUSH2 0x11F9 JUMP JUMPDEST PUSH1 0x20 DUP3 ADD SWAP1 POP SWAP2 SWAP1 POP JUMP JUMPDEST PUSH1 0x0 PUSH2 0xC2D PUSH1 0x1B DUP4 PUSH2 0xEA9 JUMP JUMPDEST SWAP2 POP PUSH2 0xC38 DUP3 PUSH2 0x1222 JUMP JUMPDEST PUSH1 0x20 DUP3 ADD SWAP1 POP SWAP2 SWAP1 POP JUMP JUMPDEST PUSH1 0x0 PUSH2 0xC50 PUSH1 0x18 DUP4 PUSH2 0xEA9 JUMP JUMPDEST SWAP2 POP PUSH2 0xC5B DUP3 PUSH2 0x124B JUMP JUMPDEST PUSH1 0x20 DUP3 ADD SWAP1 POP SWAP2 SWAP1 POP JUMP JUMPDEST PUSH2 0xC6F DUP2 PUSH2 0xF83 JUMP JUMPDEST DUP3 MSTORE POP POP JUMP JUMPDEST PUSH1 0x0 PUSH1 0x20 DUP3 ADD SWAP1 POP PUSH2 0xC8A PUSH1 0x0 DUP4 ADD DUP5 PUSH2 0xB51 JUMP JUMPDEST SWAP3 SWAP2 POP POP JUMP JUMPDEST PUSH1 0x0 PUSH1 0x60 DUP3 ADD SWAP1 POP PUSH2 0xCA5 PUSH1 0x0 DUP4 ADD DUP7 PUSH2 0xB51 JUMP JUMPDEST PUSH2 0xCB2 PUSH1 0x20 DUP4 ADD DUP6 PUSH2 0xB51 JUMP JUMPDEST PUSH2 0xCBF PUSH1 0x40 DUP4 ADD DUP5 PUSH2 0xC66 JUMP JUMPDEST SWAP5 SWAP4 POP POP POP POP JUMP JUMPDEST PUSH1 0x0 PUSH1 0x80 DUP3 ADD SWAP1 POP PUSH2 0xCDC PUSH1 0x0 DUP4 ADD DUP8 PUSH2 0xB51 JUMP JUMPDEST PUSH2 0xCE9 PUSH1 0x20 DUP4 ADD DUP7 PUSH2 0xB51 JUMP JUMPDEST PUSH2 0xCF6 PUSH1 0x40 DUP4 ADD DUP6 PUSH2 0xC66 JUMP JUMPDEST PUSH2 0xD03 PUSH1 0x60 DUP4 ADD DUP5 PUSH2 0xC66 JUMP JUMPDEST SWAP6 SWAP5 POP POP POP POP POP JUMP JUMPDEST PUSH1 0x0 PUSH1 0x40 DUP3 ADD SWAP1 POP PUSH2 0xD21 PUSH1 0x0 DUP4 ADD DUP6 PUSH2 0xB51 JUMP JUMPDEST PUSH2 0xD2E PUSH1 0x20 DUP4 ADD DUP5 PUSH2 0xC66 JUMP JUMPDEST SWAP4 SWAP3 POP POP POP JUMP JUMPDEST PUSH1 0x0 PUSH1 0x20 DUP3 ADD SWAP1 POP PUSH2 0xD4A PUSH1 0x0 DUP4 ADD DUP5 PUSH2 0xB60 JUMP JUMPDEST SWAP3 SWAP2 POP POP JUMP JUMPDEST PUSH1 0x0 PUSH1 0x20 DUP3 ADD SWAP1 POP PUSH2 0xD65 PUSH1 0x0 DUP4 ADD DUP5 PUSH2 0xB6F JUMP JUMPDEST SWAP3 SWAP2 POP POP JUMP JUMPDEST PUSH1 0x0 PUSH1 0x20 DUP3 ADD SWAP1 POP DUP2 DUP2 SUB PUSH1 0x0 DUP4 ADD MSTORE PUSH2 0xD85 DUP2 DUP5 PUSH2 0xB7E JUMP JUMPDEST SWAP1 POP SWAP3 SWAP2 POP POP JUMP JUMPDEST PUSH1 0x0 PUSH1 0x20 DUP3 ADD SWAP1 POP DUP2 DUP2 SUB PUSH1 0x0 DUP4 ADD MSTORE PUSH2 0xDA6 DUP2 PUSH2 0xBB7 JUMP JUMPDEST SWAP1 POP SWAP2 SWAP1 POP JUMP JUMPDEST PUSH1 0x0 PUSH1 0x20 DUP3 ADD SWAP1 POP DUP2 DUP2 SUB PUSH1 0x0 DUP4 ADD MSTORE PUSH2 0xDC6 DUP2 PUSH2 0xBDA JUMP JUMPDEST SWAP1 POP SWAP2 SWAP1 POP JUMP JUMPDEST PUSH1 0x0 PUSH1 0x20 DUP3 ADD SWAP1 POP DUP2 DUP2 SUB PUSH1 0x0 DUP4 ADD MSTORE PUSH2 0xDE6 DUP2 PUSH2 0xBFD JUMP JUMPDEST SWAP1 POP SWAP2 SWAP1 POP JUMP JUMPDEST PUSH1 0x0 PUSH1 0x20 DUP3 ADD SWAP1 POP DUP2 DUP2 SUB PUSH1 0x0 DUP4 ADD MSTORE PUSH2 0xE06 DUP2 PUSH2 0xC20 JUMP JUMPDEST SWAP1 POP SWAP2 SWAP1 POP JUMP JUMPDEST PUSH1 0x0 PUSH1 0x20 DUP3 ADD SWAP1 POP DUP2 DUP2 SUB PUSH1 0x0 DUP4 ADD MSTORE PUSH2 0xE26 DUP2 PUSH2 0xC43 JUMP JUMPDEST SWAP1 POP SWAP2 SWAP1 POP JUMP JUMPDEST PUSH1 0x0 PUSH1 0x20 DUP3 ADD SWAP1 POP PUSH2 0xE42 PUSH1 0x0 DUP4 ADD DUP5 PUSH2 0xC66 JUMP JUMPDEST SWAP3 SWAP2 POP POP JUMP JUMPDEST PUSH1 0x0 PUSH2 0xE52 PUSH2 0xE63 JUMP JUMPDEST SWAP1 POP PUSH2 0xE5E DUP3 DUP3 PUSH2 0x1049 JUMP JUMPDEST SWAP2 SWAP1 POP JUMP JUMPDEST PUSH1 0x0 PUSH1 0x40 MLOAD SWAP1 POP SWAP1 JUMP JUMPDEST PUSH1 0x0 PUSH8 0xFFFFFFFFFFFFFFFF DUP3 GT ISZERO PUSH2 0xE88 JUMPI PUSH2 0xE87 PUSH2 0x1107 JUMP JUMPDEST JUMPDEST PUSH2 0xE91 DUP3 PUSH2 0x114A JUMP JUMPDEST SWAP1 POP PUSH1 0x20 DUP2 ADD SWAP1 POP SWAP2 SWAP1 POP JUMP JUMPDEST PUSH1 0x0 DUP2 MLOAD SWAP1 POP SWAP2 SWAP1 POP JUMP JUMPDEST PUSH1 0x0 DUP3 DUP3 MSTORE PUSH1 0x20 DUP3 ADD SWAP1 POP SWAP3 SWAP2 POP POP JUMP JUMPDEST PUSH1 0x0 PUSH2 0xEC5 DUP3 PUSH2 0xF83 JUMP JUMPDEST SWAP2 POP PUSH2 0xED0 DUP4 PUSH2 0xF83 JUMP JUMPDEST SWAP3 POP DUP3 PUSH2 0xEE0 JUMPI PUSH2 0xEDF PUSH2 0x10A9 JUMP JUMPDEST JUMPDEST DUP3 DUP3 DIV SWAP1 POP SWAP3 SWAP2 POP POP JUMP JUMPDEST PUSH1 0x0 PUSH2 0xEF6 DUP3 PUSH2 0xF83 JUMP JUMPDEST SWAP2 POP PUSH2 0xF01 DUP4 PUSH2 0xF83 JUMP JUMPDEST SWAP3 POP DUP2 PUSH32 0xFFFFFFFFFFFFFFFFFFFFFFFFFFFFFFFFFFFFFFFFFFFFFFFFFFFFFFFFFFFFFFFF DIV DUP4 GT DUP3 ISZERO ISZERO AND ISZERO PUSH2 0xF3A JUMPI PUSH2 0xF39 PUSH2 0x107A JUMP JUMPDEST JUMPDEST DUP3 DUP3 MUL SWAP1 POP SWAP3 SWAP2 POP POP JUMP JUMPDEST PUSH1 0x0 PUSH2 0xF50 DUP3 PUSH2 0xF63 JUMP JUMPDEST SWAP1 POP SWAP2 SWAP1 POP JUMP JUMPDEST PUSH1 0x0 DUP2 ISZERO ISZERO SWAP1 POP SWAP2 SWAP1 POP JUMP JUMPDEST PUSH1 0x0 PUSH20 0xFFFFFFFFFFFFFFFFFFFFFFFFFFFFFFFFFFFFFFFF DUP3 AND SWAP1 POP SWAP2 SWAP1 POP JUMP JUMPDEST PUSH1 0x0 DUP2 SWAP1 POP SWAP2 SWAP1 POP JUMP JUMPDEST PUSH1 0x0 PUSH2 0xF98 DUP3 PUSH2 0xFB1 JUMP JUMPDEST SWAP1 POP SWAP2 SWAP1 POP JUMP JUMPDEST PUSH1 0x0 PUSH2 0xFAA DUP3 PUSH2 0xFB1 JUMP JUMPDEST SWAP1 POP SWAP2 SWAP1 POP JUMP JUMPDEST PUSH1 0x0 PUSH2 0xFBC DUP3 PUSH2 0xFC3 JUMP JUMPDEST SWAP1 POP SWAP2 SWAP1 POP JUMP JUMPDEST PUSH1 0x0 PUSH2 0xFCE DUP3 PUSH2 0xF63 JUMP JUMPDEST SWAP1 POP SWAP2 SWAP1 POP JUMP JUMPDEST DUP3 DUP2 DUP4 CALLDATACOPY PUSH1 0x0 DUP4 DUP4 ADD MSTORE POP POP POP JUMP JUMPDEST PUSH1 0x0 JUMPDEST DUP4 DUP2 LT ISZERO PUSH2 0x1002 JUMPI DUP1 DUP3 ADD MLOAD DUP2 DUP5 ADD MSTORE PUSH1 0x20 DUP2 ADD SWAP1 POP PUSH2 0xFE7 JUMP JUMPDEST DUP4 DUP2 GT ISZERO PUSH2 0x1011 JUMPI PUSH1 0x0 DUP5 DUP5 ADD MSTORE JUMPDEST POP POP POP POP JUMP JUMPDEST PUSH1 0x0 PUSH1 0x2 DUP3 DIV SWAP1 POP PUSH1 0x1 DUP3 AND DUP1 PUSH2 0x102F JUMPI PUSH1 0x7F DUP3 AND SWAP2 POP JUMPDEST PUSH1 0x20 DUP3 LT DUP2 EQ ISZERO PUSH2 0x1043 JUMPI PUSH2 0x1042 PUSH2 0x10D8 JUMP JUMPDEST JUMPDEST POP SWAP2 SWAP1 POP JUMP JUMPDEST PUSH2 0x1052 DUP3 PUSH2 0x114A JUMP JUMPDEST DUP2 ADD DUP2 DUP2 LT PUSH8 0xFFFFFFFFFFFFFFFF DUP3 GT OR ISZERO PUSH2 0x1071 JUMPI PUSH2 0x1070 PUSH2 0x1107 JUMP JUMPDEST JUMPDEST DUP1 PUSH1 0x40 MSTORE POP POP POP JUMP JUMPDEST PUSH32 0x4E487B7100000000000000000000000000000000000000000000000000000000 PUSH1 0x0 MSTORE PUSH1 0x11 PUSH1 0x4 MSTORE PUSH1 0x24 PUSH1 0x0 REVERT JUMPDEST PUSH32 0x4E487B7100000000000000000000000000000000000000000000000000000000 PUSH1 0x0 MSTORE PUSH1 0x12 PUSH1 0x4 MSTORE PUSH1 0x24 PUSH1 0x0 REVERT JUMPDEST PUSH32 0x4E487B7100000000000000000000000000000000000000000000000000000000 PUSH1 0x0 MSTORE PUSH1 0x22 PUSH1 0x4 MSTORE PUSH1 0x24 PUSH1 0x0 REVERT JUMPDEST PUSH32 0x4E487B7100000000000000000000000000000000000000000000000000000000 PUSH1 0x0 MSTORE PUSH1 0x41 PUSH1 0x4 MSTORE PUSH1 0x24 PUSH1 0x0 REVERT JUMPDEST PUSH1 0x0 DUP1 REVERT JUMPDEST PUSH1 0x0 DUP1 REVERT JUMPDEST PUSH1 0x0 DUP1 REVERT JUMPDEST PUSH1 0x0 DUP1 REVERT JUMPDEST PUSH1 0x0 PUSH1 0x1F NOT PUSH1 0x1F DUP4 ADD AND SWAP1 POP SWAP2 SWAP1 POP JUMP JUMPDEST PUSH32 0x5377617020636F6E747261637420646F6573206E6F74206861766520656E6F75 PUSH1 0x0 DUP3 ADD MSTORE PUSH32 0x676820617661696C61626C652045544820616D6F756E74000000000000000000 PUSH1 0x20 DUP3 ADD MSTORE POP JUMP JUMPDEST PUSH32 0x596F752063616E206E6F742073656C6C206D6F726520746F6B656E7320746861 PUSH1 0x0 DUP3 ADD MSTORE PUSH32 0x6E20796F752063757272656E746C7920686F6C64000000000000000000000000 PUSH1 0x20 DUP3 ADD MSTORE POP JUMP JUMPDEST PUSH32 0x4E6F7420656E6F75676820435A4820617661696C61626C6520746F2062757900 PUSH1 0x0 DUP3 ADD MSTORE POP JUMP JUMPDEST PUSH32 0x4E6F7420656E6F7567682066756E6473206F6E20457468537761700000000000 PUSH1 0x0 DUP3 ADD MSTORE POP JUMP JUMPDEST PUSH32 0x4E6F7420656E6F7567682066756E647320746F20737761700000000000000000 PUSH1 0x0 DUP3 ADD MSTORE POP JUMP JUMPDEST PUSH2 0x127D DUP2 PUSH2 0xF45 JUMP JUMPDEST DUP2 EQ PUSH2 0x1288 JUMPI PUSH1 0x0 DUP1 REVERT JUMPDEST POP JUMP JUMPDEST PUSH2 0x1294 DUP2 PUSH2 0xF57 JUMP JUMPDEST DUP2 EQ PUSH2 0x129F JUMPI PUSH1 0x0 DUP1 REVERT JUMPDEST POP JUMP JUMPDEST PUSH2 0x12AB DUP2 PUSH2 0xF83 JUMP JUMPDEST DUP2 EQ PUSH2 0x12B6 JUMPI PUSH1 0x0 DUP1 REVERT JUMPDEST POP JUMP INVALID LOG2 PUSH5 0x6970667358 0x22 SLT KECCAK256 0x4C SWAP2 0xEC 0xA9 0x23 PUSH20 0x1342E639A435F04B1E1C599829018A21E1565BAA SLOAD SMOD SWAP5 0xD0 SDIV 0xDE PUSH5 0x736F6C6343 STOP ADDMOD SMOD STOP CALLER "
				},
				"gasEstimates": {
					"creation": {
						"codeDepositCost": "969400",
						"executionCost": "infinite",
						"totalCost": "infinite"
					},
					"external": {
						"buyTokens()": "infinite",
						"czhRate()": "2495",
						"czhTokenBalance()": "2474",
						"lfjRate()": "2452",
						"lfjTokenBalance()": "2518",
						"name()": "infinite",
						"sellTokens(uint256)": "infinite",
						"swapTokens(address,address,uint256,string,string)": "infinite",
						"tokenCZH()": "2622",
						"tokenLFJ()": "2644"
					}
				},
				"methodIdentifiers": {
					"buyTokens()": "d0febe4c",
					"czhRate()": "a1e18e1a",
					"czhTokenBalance()": "3aa6f8fa",
					"lfjRate()": "1739fef0",
					"lfjTokenBalance()": "662b1af6",
					"name()": "06fdde03",
					"sellTokens(uint256)": "6c11bcd3",
					"swapTokens(address,address,uint256,string,string)": "63439499",
					"tokenCZH()": "7cc1478a",
					"tokenLFJ()": "848d82eb"
				}
			},
			"storageLayout": {
				"storage": [
					{
						"astId": 187,
						"contract": "Projects/horizon/contracts/EthSwap.sol:EthSwap",
						"label": "name",
						"offset": 0,
						"slot": "0",
						"type": "t_string_storage"
					},
					{
						"astId": 190,
						"contract": "Projects/horizon/contracts/EthSwap.sol:EthSwap",
						"label": "tokenCZH",
						"offset": 0,
						"slot": "1",
						"type": "t_contract(CZH)180"
					},
					{
						"astId": 193,
						"contract": "Projects/horizon/contracts/EthSwap.sol:EthSwap",
						"label": "tokenLFJ",
						"offset": 0,
						"slot": "2",
						"type": "t_contract(LFJ)607"
					},
					{
						"astId": 196,
						"contract": "Projects/horizon/contracts/EthSwap.sol:EthSwap",
						"label": "czhRate",
						"offset": 0,
						"slot": "3",
						"type": "t_uint256"
					},
					{
						"astId": 199,
						"contract": "Projects/horizon/contracts/EthSwap.sol:EthSwap",
						"label": "lfjRate",
						"offset": 0,
						"slot": "4",
						"type": "t_uint256"
					},
					{
						"astId": 201,
						"contract": "Projects/horizon/contracts/EthSwap.sol:EthSwap",
						"label": "czhTokenBalance",
						"offset": 0,
						"slot": "5",
						"type": "t_uint256"
					},
					{
						"astId": 203,
						"contract": "Projects/horizon/contracts/EthSwap.sol:EthSwap",
						"label": "lfjTokenBalance",
						"offset": 0,
						"slot": "6",
						"type": "t_uint256"
					}
				],
				"types": {
					"t_contract(CZH)180": {
						"encoding": "inplace",
						"label": "contract CZH",
						"numberOfBytes": "20"
					},
					"t_contract(LFJ)607": {
						"encoding": "inplace",
						"label": "contract LFJ",
						"numberOfBytes": "20"
					},
					"t_string_storage": {
						"encoding": "bytes",
						"label": "string",
						"numberOfBytes": "32"
					},
					"t_uint256": {
						"encoding": "inplace",
						"label": "uint256",
						"numberOfBytes": "32"
					}
				}
			},
			"userdoc": {
				"kind": "user",
				"methods": {},
				"version": 1
			}
		}
	}
}