{
	"Projects/horizon/contracts/EthSwap.sol": {
		"EthSwap": {
			"abi": [
				{
					"inputs": [
						{
							"internalType": "contract CZH",
							"name": "_token1",
							"type": "address"
						},
						{
							"internalType": "contract LFJ",
							"name": "_token2",
							"type": "address"
						}
					],
					"stateMutability": "nonpayable",
					"type": "constructor"
				},
				{
					"anonymous": false,
					"inputs": [
						{
							"indexed": false,
							"internalType": "address",
							"name": "account",
							"type": "address"
						},
						{
							"indexed": false,
							"internalType": "address",
							"name": "token",
							"type": "address"
						},
						{
							"indexed": false,
							"internalType": "uint256",
							"name": "amount",
							"type": "uint256"
						},
						{
							"indexed": false,
							"internalType": "uint256",
							"name": "czhRate",
							"type": "uint256"
						}
					],
					"name": "TokensPurchased",
					"type": "event"
				},
				{
					"anonymous": false,
					"inputs": [
						{
							"indexed": false,
							"internalType": "address",
							"name": "account",
							"type": "address"
						},
						{
							"indexed": false,
							"internalType": "address",
							"name": "token",
							"type": "address"
						},
						{
							"indexed": false,
							"internalType": "uint256",
							"name": "amount",
							"type": "uint256"
						},
						{
							"indexed": false,
							"internalType": "uint256",
							"name": "czhRate",
							"type": "uint256"
						}
					],
					"name": "TokensSold",
					"type": "event"
				},
				{
					"inputs": [],
					"name": "buyTokens",
					"outputs": [],
					"stateMutability": "payable",
					"type": "function"
				},
				{
					"inputs": [],
					"name": "czhRate",
					"outputs": [
						{
							"internalType": "uint256",
							"name": "",
							"type": "uint256"
						}
					],
					"stateMutability": "view",
					"type": "function"
				},
				{
					"inputs": [],
					"name": "czhTokenBalance",
					"outputs": [
						{
							"internalType": "uint256",
							"name": "",
							"type": "uint256"
						}
					],
					"stateMutability": "view",
					"type": "function"
				},
				{
					"inputs": [],
					"name": "lfjRate",
					"outputs": [
						{
							"internalType": "uint256",
							"name": "",
							"type": "uint256"
						}
					],
					"stateMutability": "view",
					"type": "function"
				},
				{
					"inputs": [],
					"name": "lfjTokenBalance",
					"outputs": [
						{
							"internalType": "uint256",
							"name": "",
							"type": "uint256"
						}
					],
					"stateMutability": "view",
					"type": "function"
				},
				{
					"inputs": [],
					"name": "name",
					"outputs": [
						{
							"internalType": "string",
							"name": "",
							"type": "string"
						}
					],
					"stateMutability": "view",
					"type": "function"
				},
				{
					"inputs": [
						{
							"internalType": "uint256",
							"name": "_amount",
							"type": "uint256"
						}
					],
					"name": "sellTokens",
					"outputs": [],
					"stateMutability": "payable",
					"type": "function"
				},
				{
					"inputs": [
						{
							"internalType": "address",
							"name": "_tokenToBuy",
							"type": "address"
						},
						{
							"internalType": "address",
							"name": "_tokenToSell",
							"type": "address"
						},
						{
							"internalType": "uint256",
							"name": "_valueToSell",
							"type": "uint256"
						}
					],
					"name": "swapTokens",
					"outputs": [],
					"stateMutability": "payable",
					"type": "function"
				},
				{
					"inputs": [],
					"name": "tokenCZH",
					"outputs": [
						{
							"internalType": "contract CZH",
							"name": "",
							"type": "address"
						}
					],
					"stateMutability": "view",
					"type": "function"
				},
				{
					"inputs": [],
					"name": "tokenLFJ",
					"outputs": [
						{
							"internalType": "contract LFJ",
							"name": "",
							"type": "address"
						}
					],
					"stateMutability": "view",
					"type": "function"
				}
			],
			"devdoc": {
				"kind": "dev",
				"methods": {},
				"version": 1
			},
			"evm": {
				"assembly": "    /* \"Projects/horizon/contracts/EthSwap.sol\":112:3319  contract EthSwap {... */\n  mstore(0x40, 0x80)\n    /* \"Projects/horizon/contracts/EthSwap.sol\":135:184  string public name = \"Eth swap platform contract\" */\n  mload(0x40)\n  dup1\n  0x40\n  add\n  0x40\n  mstore\n  dup1\n  0x1a\n  dup2\n  mstore\n  0x20\n  add\n  0x457468207377617020706c6174666f726d20636f6e7472616374000000000000\n  dup2\n  mstore\n  pop\n  0x00\n  swap1\n  dup1\n  mload\n  swap1\n  0x20\n  add\n  swap1\n  tag_1\n  swap3\n  swap2\n  swap1\n  tag_2\n  jump\t// in\ntag_1:\n  pop\n    /* \"Projects/horizon/contracts/EthSwap.sol\":262:265  100 */\n  0x64\n    /* \"Projects/horizon/contracts/EthSwap.sol\":240:265  uint public czhRate = 100 */\n  0x03\n  sstore\n    /* \"Projects/horizon/contracts/EthSwap.sol\":312:314  10 */\n  0x0a\n    /* \"Projects/horizon/contracts/EthSwap.sol\":290:314  uint public lfjRate = 10 */\n  0x04\n  sstore\n    /* \"Projects/horizon/contracts/EthSwap.sol\":650:873  constructor(CZH _token1, LFJ _token2) {... */\n  callvalue\n  dup1\n  iszero\n  tag_3\n  jumpi\n  0x00\n  dup1\n  revert\ntag_3:\n  pop\n  mload(0x40)\n  sub(codesize, bytecodeSize)\n  dup1\n  bytecodeSize\n  dup4\n  codecopy\n  dup2\n  dup2\n  add\n  0x40\n  mstore\n  dup2\n  add\n  swap1\n  tag_4\n  swap2\n  swap1\n  tag_5\n  jump\t// in\ntag_4:\n    /* \"Projects/horizon/contracts/EthSwap.sol\":709:716  _token1 */\n  dup2\n    /* \"Projects/horizon/contracts/EthSwap.sol\":698:706  tokenCZH */\n  0x01\n  0x00\n    /* \"Projects/horizon/contracts/EthSwap.sol\":698:716  tokenCZH = _token1 */\n  0x0100\n  exp\n  dup2\n  sload\n  dup2\n  0xffffffffffffffffffffffffffffffffffffffff\n  mul\n  not\n  and\n  swap1\n  dup4\n  0xffffffffffffffffffffffffffffffffffffffff\n  and\n  mul\n  or\n  swap1\n  sstore\n  pop\n    /* \"Projects/horizon/contracts/EthSwap.sol\":737:744  _token2 */\n  dup1\n    /* \"Projects/horizon/contracts/EthSwap.sol\":726:734  tokenLFJ */\n  0x02\n  0x00\n    /* \"Projects/horizon/contracts/EthSwap.sol\":726:744  tokenLFJ = _token2 */\n  0x0100\n  exp\n  dup2\n  sload\n  dup2\n  0xffffffffffffffffffffffffffffffffffffffff\n  mul\n  not\n  and\n  swap1\n  dup4\n  0xffffffffffffffffffffffffffffffffffffffff\n  and\n  mul\n  or\n  swap1\n  sstore\n  pop\n    /* \"Projects/horizon/contracts/EthSwap.sol\":772:780  tokenCZH */\n  0x01\n  0x00\n  swap1\n  sload\n  swap1\n  0x0100\n  exp\n  swap1\n  div\n  0xffffffffffffffffffffffffffffffffffffffff\n  and\n    /* \"Projects/horizon/contracts/EthSwap.sol\":772:790  tokenCZH.balanceOf */\n  0xffffffffffffffffffffffffffffffffffffffff\n  and\n  0x70a08231\n    /* \"Projects/horizon/contracts/EthSwap.sol\":799:803  this */\n  address\n    /* \"Projects/horizon/contracts/EthSwap.sol\":772:805  tokenCZH.balanceOf(address(this)) */\n  mload(0x40)\n  dup3\n  0xffffffff\n  and\n  0xe0\n  shl\n  dup2\n  mstore\n  0x04\n  add\n  tag_8\n  swap2\n  swap1\n  tag_9\n  jump\t// in\ntag_8:\n  0x20\n  mload(0x40)\n  dup1\n  dup4\n  sub\n  dup2\n  dup7\n  dup1\n  extcodesize\n  iszero\n  dup1\n  iszero\n  tag_10\n  jumpi\n  0x00\n  dup1\n  revert\ntag_10:\n  pop\n  gas\n  staticcall\n  iszero\n  dup1\n  iszero\n  tag_12\n  jumpi\n  returndatasize\n  0x00\n  dup1\n  returndatacopy\n  revert(0x00, returndatasize)\ntag_12:\n  pop\n  pop\n  pop\n  pop\n  mload(0x40)\n  returndatasize\n  not(0x1f)\n  0x1f\n  dup3\n  add\n  and\n  dup3\n  add\n  dup1\n  0x40\n  mstore\n  pop\n  dup2\n  add\n  swap1\n  tag_13\n  swap2\n  swap1\n  tag_14\n  jump\t// in\ntag_13:\n    /* \"Projects/horizon/contracts/EthSwap.sol\":754:769  czhTokenBalance */\n  0x05\n    /* \"Projects/horizon/contracts/EthSwap.sol\":754:805  czhTokenBalance = tokenCZH.balanceOf(address(this)) */\n  dup2\n  swap1\n  sstore\n  pop\n    /* \"Projects/horizon/contracts/EthSwap.sol\":833:841  tokenLFJ */\n  0x02\n  0x00\n  swap1\n  sload\n  swap1\n  0x0100\n  exp\n  swap1\n  div\n  0xffffffffffffffffffffffffffffffffffffffff\n  and\n    /* \"Projects/horizon/contracts/EthSwap.sol\":833:851  tokenLFJ.balanceOf */\n  0xffffffffffffffffffffffffffffffffffffffff\n  and\n  0x70a08231\n    /* \"Projects/horizon/contracts/EthSwap.sol\":860:864  this */\n  address\n    /* \"Projects/horizon/contracts/EthSwap.sol\":833:866  tokenLFJ.balanceOf(address(this)) */\n  mload(0x40)\n  dup3\n  0xffffffff\n  and\n  0xe0\n  shl\n  dup2\n  mstore\n  0x04\n  add\n  tag_15\n  swap2\n  swap1\n  tag_9\n  jump\t// in\ntag_15:\n  0x20\n  mload(0x40)\n  dup1\n  dup4\n  sub\n  dup2\n  dup7\n  dup1\n  extcodesize\n  iszero\n  dup1\n  iszero\n  tag_16\n  jumpi\n  0x00\n  dup1\n  revert\ntag_16:\n  pop\n  gas\n  staticcall\n  iszero\n  dup1\n  iszero\n  tag_18\n  jumpi\n  returndatasize\n  0x00\n  dup1\n  returndatacopy\n  revert(0x00, returndatasize)\ntag_18:\n  pop\n  pop\n  pop\n  pop\n  mload(0x40)\n  returndatasize\n  not(0x1f)\n  0x1f\n  dup3\n  add\n  and\n  dup3\n  add\n  dup1\n  0x40\n  mstore\n  pop\n  dup2\n  add\n  swap1\n  tag_19\n  swap2\n  swap1\n  tag_14\n  jump\t// in\ntag_19:\n    /* \"Projects/horizon/contracts/EthSwap.sol\":815:830  lfjTokenBalance */\n  0x06\n    /* \"Projects/horizon/contracts/EthSwap.sol\":815:866  lfjTokenBalance = tokenLFJ.balanceOf(address(this)) */\n  dup2\n  swap1\n  sstore\n  pop\n    /* \"Projects/horizon/contracts/EthSwap.sol\":650:873  constructor(CZH _token1, LFJ _token2) {... */\n  pop\n  pop\n    /* \"Projects/horizon/contracts/EthSwap.sol\":112:3319  contract EthSwap {... */\n  jump(tag_20)\ntag_2:\n  dup3\n  dup1\n  sload\n  tag_21\n  swap1\n  tag_22\n  jump\t// in\ntag_21:\n  swap1\n  0x00\n  mstore\n  keccak256(0x00, 0x20)\n  swap1\n  0x1f\n  add\n  0x20\n  swap1\n  div\n  dup2\n  add\n  swap3\n  dup3\n  tag_24\n  jumpi\n  0x00\n  dup6\n  sstore\n  jump(tag_23)\ntag_24:\n  dup3\n  0x1f\n  lt\n  tag_25\n  jumpi\n  dup1\n  mload\n  not(0xff)\n  and\n  dup4\n  dup1\n  add\n  or\n  dup6\n  sstore\n  jump(tag_23)\ntag_25:\n  dup3\n  dup1\n  add\n  0x01\n  add\n  dup6\n  sstore\n  dup3\n  iszero\n  tag_23\n  jumpi\n  swap2\n  dup3\n  add\ntag_26:\n  dup3\n  dup2\n  gt\n  iszero\n  tag_27\n  jumpi\n  dup3\n  mload\n  dup3\n  sstore\n  swap2\n  0x20\n  add\n  swap2\n  swap1\n  0x01\n  add\n  swap1\n  jump(tag_26)\ntag_27:\ntag_23:\n  pop\n  swap1\n  pop\n  tag_28\n  swap2\n  swap1\n  tag_29\n  jump\t// in\ntag_28:\n  pop\n  swap1\n  jump\t// out\ntag_29:\ntag_30:\n  dup1\n  dup3\n  gt\n  iszero\n  tag_31\n  jumpi\n  0x00\n  dup2\n  0x00\n  swap1\n  sstore\n  pop\n  0x01\n  add\n  jump(tag_30)\ntag_31:\n  pop\n  swap1\n  jump\t// out\n    /* \"#utility.yul\":7:172   */\ntag_33:\n    /* \"#utility.yul\":75:80   */\n  0x00\n    /* \"#utility.yul\":106:112   */\n  dup2\n    /* \"#utility.yul\":100:113   */\n  mload\n    /* \"#utility.yul\":91:113   */\n  swap1\n  pop\n    /* \"#utility.yul\":122:166   */\n  tag_35\n    /* \"#utility.yul\":160:165   */\n  dup2\n    /* \"#utility.yul\":122:166   */\n  tag_36\n  jump\t// in\ntag_35:\n    /* \"#utility.yul\":7:172   */\n  swap3\n  swap2\n  pop\n  pop\n  jump\t// out\n    /* \"#utility.yul\":178:343   */\ntag_37:\n    /* \"#utility.yul\":246:251   */\n  0x00\n    /* \"#utility.yul\":277:283   */\n  dup2\n    /* \"#utility.yul\":271:284   */\n  mload\n    /* \"#utility.yul\":262:284   */\n  swap1\n  pop\n    /* \"#utility.yul\":293:337   */\n  tag_39\n    /* \"#utility.yul\":331:336   */\n  dup2\n    /* \"#utility.yul\":293:337   */\n  tag_40\n  jump\t// in\ntag_39:\n    /* \"#utility.yul\":178:343   */\n  swap3\n  swap2\n  pop\n  pop\n  jump\t// out\n    /* \"#utility.yul\":349:492   */\ntag_41:\n    /* \"#utility.yul\":406:411   */\n  0x00\n    /* \"#utility.yul\":437:443   */\n  dup2\n    /* \"#utility.yul\":431:444   */\n  mload\n    /* \"#utility.yul\":422:444   */\n  swap1\n  pop\n    /* \"#utility.yul\":453:486   */\n  tag_43\n    /* \"#utility.yul\":480:485   */\n  dup2\n    /* \"#utility.yul\":453:486   */\n  tag_44\n  jump\t// in\ntag_43:\n    /* \"#utility.yul\":349:492   */\n  swap3\n  swap2\n  pop\n  pop\n  jump\t// out\n    /* \"#utility.yul\":498:1049   */\ntag_5:\n    /* \"#utility.yul\":599:605   */\n  0x00\n    /* \"#utility.yul\":607:613   */\n  dup1\n    /* \"#utility.yul\":656:658   */\n  0x40\n    /* \"#utility.yul\":644:653   */\n  dup4\n    /* \"#utility.yul\":635:642   */\n  dup6\n    /* \"#utility.yul\":631:654   */\n  sub\n    /* \"#utility.yul\":627:659   */\n  slt\n    /* \"#utility.yul\":624:743   */\n  iszero\n  tag_46\n  jumpi\n    /* \"#utility.yul\":662:741   */\n  tag_47\n  tag_48\n  jump\t// in\ntag_47:\n    /* \"#utility.yul\":624:743   */\ntag_46:\n    /* \"#utility.yul\":782:783   */\n  0x00\n    /* \"#utility.yul\":807:882   */\n  tag_49\n    /* \"#utility.yul\":874:881   */\n  dup6\n    /* \"#utility.yul\":865:871   */\n  dup3\n    /* \"#utility.yul\":854:863   */\n  dup7\n    /* \"#utility.yul\":850:872   */\n  add\n    /* \"#utility.yul\":807:882   */\n  tag_33\n  jump\t// in\ntag_49:\n    /* \"#utility.yul\":797:882   */\n  swap3\n  pop\n    /* \"#utility.yul\":753:892   */\n  pop\n    /* \"#utility.yul\":931:933   */\n  0x20\n    /* \"#utility.yul\":957:1032   */\n  tag_50\n    /* \"#utility.yul\":1024:1031   */\n  dup6\n    /* \"#utility.yul\":1015:1021   */\n  dup3\n    /* \"#utility.yul\":1004:1013   */\n  dup7\n    /* \"#utility.yul\":1000:1022   */\n  add\n    /* \"#utility.yul\":957:1032   */\n  tag_37\n  jump\t// in\ntag_50:\n    /* \"#utility.yul\":947:1032   */\n  swap2\n  pop\n    /* \"#utility.yul\":902:1042   */\n  pop\n    /* \"#utility.yul\":498:1049   */\n  swap3\n  pop\n  swap3\n  swap1\n  pop\n  jump\t// out\n    /* \"#utility.yul\":1055:1406   */\ntag_14:\n    /* \"#utility.yul\":1125:1131   */\n  0x00\n    /* \"#utility.yul\":1174:1176   */\n  0x20\n    /* \"#utility.yul\":1162:1171   */\n  dup3\n    /* \"#utility.yul\":1153:1160   */\n  dup5\n    /* \"#utility.yul\":1149:1172   */\n  sub\n    /* \"#utility.yul\":1145:1177   */\n  slt\n    /* \"#utility.yul\":1142:1261   */\n  iszero\n  tag_52\n  jumpi\n    /* \"#utility.yul\":1180:1259   */\n  tag_53\n  tag_48\n  jump\t// in\ntag_53:\n    /* \"#utility.yul\":1142:1261   */\ntag_52:\n    /* \"#utility.yul\":1300:1301   */\n  0x00\n    /* \"#utility.yul\":1325:1389   */\n  tag_54\n    /* \"#utility.yul\":1381:1388   */\n  dup5\n    /* \"#utility.yul\":1372:1378   */\n  dup3\n    /* \"#utility.yul\":1361:1370   */\n  dup6\n    /* \"#utility.yul\":1357:1379   */\n  add\n    /* \"#utility.yul\":1325:1389   */\n  tag_41\n  jump\t// in\ntag_54:\n    /* \"#utility.yul\":1315:1389   */\n  swap2\n  pop\n    /* \"#utility.yul\":1271:1399   */\n  pop\n    /* \"#utility.yul\":1055:1406   */\n  swap3\n  swap2\n  pop\n  pop\n  jump\t// out\n    /* \"#utility.yul\":1412:1530   */\ntag_55:\n    /* \"#utility.yul\":1499:1523   */\n  tag_57\n    /* \"#utility.yul\":1517:1522   */\n  dup2\n    /* \"#utility.yul\":1499:1523   */\n  tag_58\n  jump\t// in\ntag_57:\n    /* \"#utility.yul\":1494:1497   */\n  dup3\n    /* \"#utility.yul\":1487:1524   */\n  mstore\n    /* \"#utility.yul\":1412:1530   */\n  pop\n  pop\n  jump\t// out\n    /* \"#utility.yul\":1536:1758   */\ntag_9:\n    /* \"#utility.yul\":1629:1633   */\n  0x00\n    /* \"#utility.yul\":1667:1669   */\n  0x20\n    /* \"#utility.yul\":1656:1665   */\n  dup3\n    /* \"#utility.yul\":1652:1670   */\n  add\n    /* \"#utility.yul\":1644:1670   */\n  swap1\n  pop\n    /* \"#utility.yul\":1680:1751   */\n  tag_60\n    /* \"#utility.yul\":1748:1749   */\n  0x00\n    /* \"#utility.yul\":1737:1746   */\n  dup4\n    /* \"#utility.yul\":1733:1750   */\n  add\n    /* \"#utility.yul\":1724:1730   */\n  dup5\n    /* \"#utility.yul\":1680:1751   */\n  tag_55\n  jump\t// in\ntag_60:\n    /* \"#utility.yul\":1536:1758   */\n  swap3\n  swap2\n  pop\n  pop\n  jump\t// out\n    /* \"#utility.yul\":1845:1941   */\ntag_58:\n    /* \"#utility.yul\":1882:1889   */\n  0x00\n    /* \"#utility.yul\":1911:1935   */\n  tag_64\n    /* \"#utility.yul\":1929:1934   */\n  dup3\n    /* \"#utility.yul\":1911:1935   */\n  tag_65\n  jump\t// in\ntag_64:\n    /* \"#utility.yul\":1900:1935   */\n  swap1\n  pop\n    /* \"#utility.yul\":1845:1941   */\n  swap2\n  swap1\n  pop\n  jump\t// out\n    /* \"#utility.yul\":1947:2054   */\ntag_66:\n    /* \"#utility.yul\":1995:2002   */\n  0x00\n    /* \"#utility.yul\":2024:2048   */\n  tag_68\n    /* \"#utility.yul\":2042:2047   */\n  dup3\n    /* \"#utility.yul\":2024:2048   */\n  tag_58\n  jump\t// in\ntag_68:\n    /* \"#utility.yul\":2013:2048   */\n  swap1\n  pop\n    /* \"#utility.yul\":1947:2054   */\n  swap2\n  swap1\n  pop\n  jump\t// out\n    /* \"#utility.yul\":2060:2167   */\ntag_69:\n    /* \"#utility.yul\":2108:2115   */\n  0x00\n    /* \"#utility.yul\":2137:2161   */\n  tag_71\n    /* \"#utility.yul\":2155:2160   */\n  dup3\n    /* \"#utility.yul\":2137:2161   */\n  tag_58\n  jump\t// in\ntag_71:\n    /* \"#utility.yul\":2126:2161   */\n  swap1\n  pop\n    /* \"#utility.yul\":2060:2167   */\n  swap2\n  swap1\n  pop\n  jump\t// out\n    /* \"#utility.yul\":2173:2299   */\ntag_65:\n    /* \"#utility.yul\":2210:2217   */\n  0x00\n    /* \"#utility.yul\":2250:2292   */\n  0xffffffffffffffffffffffffffffffffffffffff\n    /* \"#utility.yul\":2243:2248   */\n  dup3\n    /* \"#utility.yul\":2239:2293   */\n  and\n    /* \"#utility.yul\":2228:2293   */\n  swap1\n  pop\n    /* \"#utility.yul\":2173:2299   */\n  swap2\n  swap1\n  pop\n  jump\t// out\n    /* \"#utility.yul\":2305:2382   */\ntag_73:\n    /* \"#utility.yul\":2342:2349   */\n  0x00\n    /* \"#utility.yul\":2371:2376   */\n  dup2\n    /* \"#utility.yul\":2360:2376   */\n  swap1\n  pop\n    /* \"#utility.yul\":2305:2382   */\n  swap2\n  swap1\n  pop\n  jump\t// out\n    /* \"#utility.yul\":2388:2708   */\ntag_22:\n    /* \"#utility.yul\":2432:2438   */\n  0x00\n    /* \"#utility.yul\":2469:2470   */\n  0x02\n    /* \"#utility.yul\":2463:2467   */\n  dup3\n    /* \"#utility.yul\":2459:2471   */\n  div\n    /* \"#utility.yul\":2449:2471   */\n  swap1\n  pop\n    /* \"#utility.yul\":2516:2517   */\n  0x01\n    /* \"#utility.yul\":2510:2514   */\n  dup3\n    /* \"#utility.yul\":2506:2518   */\n  and\n    /* \"#utility.yul\":2537:2555   */\n  dup1\n    /* \"#utility.yul\":2527:2608   */\n  tag_76\n  jumpi\n    /* \"#utility.yul\":2593:2597   */\n  0x7f\n    /* \"#utility.yul\":2585:2591   */\n  dup3\n    /* \"#utility.yul\":2581:2598   */\n  and\n    /* \"#utility.yul\":2571:2598   */\n  swap2\n  pop\n    /* \"#utility.yul\":2527:2608   */\ntag_76:\n    /* \"#utility.yul\":2655:2657   */\n  0x20\n    /* \"#utility.yul\":2647:2653   */\n  dup3\n    /* \"#utility.yul\":2644:2658   */\n  lt\n    /* \"#utility.yul\":2624:2642   */\n  dup2\n    /* \"#utility.yul\":2621:2659   */\n  eq\n    /* \"#utility.yul\":2618:2702   */\n  iszero\n  tag_77\n  jumpi\n    /* \"#utility.yul\":2674:2692   */\n  tag_78\n  tag_79\n  jump\t// in\ntag_78:\n    /* \"#utility.yul\":2618:2702   */\ntag_77:\n    /* \"#utility.yul\":2439:2708   */\n  pop\n    /* \"#utility.yul\":2388:2708   */\n  swap2\n  swap1\n  pop\n  jump\t// out\n    /* \"#utility.yul\":2714:2894   */\ntag_79:\n    /* \"#utility.yul\":2762:2839   */\n  0x4e487b7100000000000000000000000000000000000000000000000000000000\n    /* \"#utility.yul\":2759:2760   */\n  0x00\n    /* \"#utility.yul\":2752:2840   */\n  mstore\n    /* \"#utility.yul\":2859:2863   */\n  0x22\n    /* \"#utility.yul\":2856:2857   */\n  0x04\n    /* \"#utility.yul\":2849:2864   */\n  mstore\n    /* \"#utility.yul\":2883:2887   */\n  0x24\n    /* \"#utility.yul\":2880:2881   */\n  0x00\n    /* \"#utility.yul\":2873:2888   */\n  revert\n    /* \"#utility.yul\":3023:3140   */\ntag_48:\n    /* \"#utility.yul\":3132:3133   */\n  0x00\n    /* \"#utility.yul\":3129:3130   */\n  dup1\n    /* \"#utility.yul\":3122:3134   */\n  revert\n    /* \"#utility.yul\":3146:3290   */\ntag_36:\n    /* \"#utility.yul\":3230:3265   */\n  tag_85\n    /* \"#utility.yul\":3259:3264   */\n  dup2\n    /* \"#utility.yul\":3230:3265   */\n  tag_66\n  jump\t// in\ntag_85:\n    /* \"#utility.yul\":3223:3228   */\n  dup2\n    /* \"#utility.yul\":3220:3266   */\n  eq\n    /* \"#utility.yul\":3210:3284   */\n  tag_86\n  jumpi\n    /* \"#utility.yul\":3280:3281   */\n  0x00\n    /* \"#utility.yul\":3277:3278   */\n  dup1\n    /* \"#utility.yul\":3270:3282   */\n  revert\n    /* \"#utility.yul\":3210:3284   */\ntag_86:\n    /* \"#utility.yul\":3146:3290   */\n  pop\n  jump\t// out\n    /* \"#utility.yul\":3296:3440   */\ntag_40:\n    /* \"#utility.yul\":3380:3415   */\n  tag_88\n    /* \"#utility.yul\":3409:3414   */\n  dup2\n    /* \"#utility.yul\":3380:3415   */\n  tag_69\n  jump\t// in\ntag_88:\n    /* \"#utility.yul\":3373:3378   */\n  dup2\n    /* \"#utility.yul\":3370:3416   */\n  eq\n    /* \"#utility.yul\":3360:3434   */\n  tag_89\n  jumpi\n    /* \"#utility.yul\":3430:3431   */\n  0x00\n    /* \"#utility.yul\":3427:3428   */\n  dup1\n    /* \"#utility.yul\":3420:3432   */\n  revert\n    /* \"#utility.yul\":3360:3434   */\ntag_89:\n    /* \"#utility.yul\":3296:3440   */\n  pop\n  jump\t// out\n    /* \"#utility.yul\":3446:3568   */\ntag_44:\n    /* \"#utility.yul\":3519:3543   */\n  tag_91\n    /* \"#utility.yul\":3537:3542   */\n  dup2\n    /* \"#utility.yul\":3519:3543   */\n  tag_73\n  jump\t// in\ntag_91:\n    /* \"#utility.yul\":3512:3517   */\n  dup2\n    /* \"#utility.yul\":3509:3544   */\n  eq\n    /* \"#utility.yul\":3499:3562   */\n  tag_92\n  jumpi\n    /* \"#utility.yul\":3558:3559   */\n  0x00\n    /* \"#utility.yul\":3555:3556   */\n  dup1\n    /* \"#utility.yul\":3548:3560   */\n  revert\n    /* \"#utility.yul\":3499:3562   */\ntag_92:\n    /* \"#utility.yul\":3446:3568   */\n  pop\n  jump\t// out\n    /* \"Projects/horizon/contracts/EthSwap.sol\":112:3319  contract EthSwap {... */\ntag_20:\n  dataSize(sub_0)\n  dup1\n  dataOffset(sub_0)\n  0x00\n  codecopy\n  0x00\n  return\nstop\n\nsub_0: assembly {\n        /* \"Projects/horizon/contracts/EthSwap.sol\":112:3319  contract EthSwap {... */\n      mstore(0x40, 0x80)\n      jumpi(tag_1, lt(calldatasize, 0x04))\n      shr(0xe0, calldataload(0x00))\n      dup1\n      0x7cc1478a\n      gt\n      tag_12\n      jumpi\n      dup1\n      0x7cc1478a\n      eq\n      tag_7\n      jumpi\n      dup1\n      0x848d82eb\n      eq\n      tag_8\n      jumpi\n      dup1\n      0xa1e18e1a\n      eq\n      tag_9\n      jumpi\n      dup1\n      0xd0febe4c\n      eq\n      tag_10\n      jumpi\n      dup1\n      0xec6cc0cc\n      eq\n      tag_11\n      jumpi\n      jump(tag_1)\n    tag_12:\n      dup1\n      0x06fdde03\n      eq\n      tag_2\n      jumpi\n      dup1\n      0x1739fef0\n      eq\n      tag_3\n      jumpi\n      dup1\n      0x3aa6f8fa\n      eq\n      tag_4\n      jumpi\n      dup1\n      0x662b1af6\n      eq\n      tag_5\n      jumpi\n      dup1\n      0x6c11bcd3\n      eq\n      tag_6\n      jumpi\n    tag_1:\n      0x00\n      dup1\n      revert\n        /* \"Projects/horizon/contracts/EthSwap.sol\":135:184  string public name = \"Eth swap platform contract\" */\n    tag_2:\n      callvalue\n      dup1\n      iszero\n      tag_13\n      jumpi\n      0x00\n      dup1\n      revert\n    tag_13:\n      pop\n      tag_14\n      tag_15\n      jump\t// in\n    tag_14:\n      mload(0x40)\n      tag_16\n      swap2\n      swap1\n      tag_17\n      jump\t// in\n    tag_16:\n      mload(0x40)\n      dup1\n      swap2\n      sub\n      swap1\n      return\n        /* \"Projects/horizon/contracts/EthSwap.sol\":290:314  uint public lfjRate = 10 */\n    tag_3:\n      callvalue\n      dup1\n      iszero\n      tag_18\n      jumpi\n      0x00\n      dup1\n      revert\n    tag_18:\n      pop\n      tag_19\n      tag_20\n      jump\t// in\n    tag_19:\n      mload(0x40)\n      tag_21\n      swap2\n      swap1\n      tag_22\n      jump\t// in\n    tag_21:\n      mload(0x40)\n      dup1\n      swap2\n      sub\n      swap1\n      return\n        /* \"Projects/horizon/contracts/EthSwap.sol\":338:365  uint public czhTokenBalance */\n    tag_4:\n      callvalue\n      dup1\n      iszero\n      tag_23\n      jumpi\n      0x00\n      dup1\n      revert\n    tag_23:\n      pop\n      tag_24\n      tag_25\n      jump\t// in\n    tag_24:\n      mload(0x40)\n      tag_26\n      swap2\n      swap1\n      tag_22\n      jump\t// in\n    tag_26:\n      mload(0x40)\n      dup1\n      swap2\n      sub\n      swap1\n      return\n        /* \"Projects/horizon/contracts/EthSwap.sol\":371:398  uint public lfjTokenBalance */\n    tag_5:\n      callvalue\n      dup1\n      iszero\n      tag_27\n      jumpi\n      0x00\n      dup1\n      revert\n    tag_27:\n      pop\n      tag_28\n      tag_29\n      jump\t// in\n    tag_28:\n      mload(0x40)\n      tag_30\n      swap2\n      swap1\n      tag_22\n      jump\t// in\n    tag_30:\n      mload(0x40)\n      dup1\n      swap2\n      sub\n      swap1\n      return\n        /* \"Projects/horizon/contracts/EthSwap.sol\":2585:3316  function sellTokens(uint _amount) public payable {... */\n    tag_6:\n      tag_31\n      0x04\n      dup1\n      calldatasize\n      sub\n      dup2\n      add\n      swap1\n      tag_32\n      swap2\n      swap1\n      tag_33\n      jump\t// in\n    tag_32:\n      tag_34\n      jump\t// in\n    tag_31:\n      stop\n        /* \"Projects/horizon/contracts/EthSwap.sol\":190:209  CZH public tokenCZH */\n    tag_7:\n      callvalue\n      dup1\n      iszero\n      tag_35\n      jumpi\n      0x00\n      dup1\n      revert\n    tag_35:\n      pop\n      tag_36\n      tag_37\n      jump\t// in\n    tag_36:\n      mload(0x40)\n      tag_38\n      swap2\n      swap1\n      tag_39\n      jump\t// in\n    tag_38:\n      mload(0x40)\n      dup1\n      swap2\n      sub\n      swap1\n      return\n        /* \"Projects/horizon/contracts/EthSwap.sol\":215:234  LFJ public tokenLFJ */\n    tag_8:\n      callvalue\n      dup1\n      iszero\n      tag_40\n      jumpi\n      0x00\n      dup1\n      revert\n    tag_40:\n      pop\n      tag_41\n      tag_42\n      jump\t// in\n    tag_41:\n      mload(0x40)\n      tag_43\n      swap2\n      swap1\n      tag_44\n      jump\t// in\n    tag_43:\n      mload(0x40)\n      dup1\n      swap2\n      sub\n      swap1\n      return\n        /* \"Projects/horizon/contracts/EthSwap.sol\":240:265  uint public czhRate = 100 */\n    tag_9:\n      callvalue\n      dup1\n      iszero\n      tag_45\n      jumpi\n      0x00\n      dup1\n      revert\n    tag_45:\n      pop\n      tag_46\n      tag_47\n      jump\t// in\n    tag_46:\n      mload(0x40)\n      tag_48\n      swap2\n      swap1\n      tag_22\n      jump\t// in\n    tag_48:\n      mload(0x40)\n      dup1\n      swap2\n      sub\n      swap1\n      return\n        /* \"Projects/horizon/contracts/EthSwap.sol\":2085:2579  function buyTokens() public payable {... */\n    tag_10:\n      tag_49\n      tag_50\n      jump\t// in\n    tag_49:\n      stop\n        /* \"Projects/horizon/contracts/EthSwap.sol\":879:2079  function swapTokens(address _tokenToBuy, address _tokenToSell, uint _valueToSell) public payable {... */\n    tag_11:\n      tag_51\n      0x04\n      dup1\n      calldatasize\n      sub\n      dup2\n      add\n      swap1\n      tag_52\n      swap2\n      swap1\n      tag_53\n      jump\t// in\n    tag_52:\n      tag_54\n      jump\t// in\n    tag_51:\n      stop\n        /* \"Projects/horizon/contracts/EthSwap.sol\":135:184  string public name = \"Eth swap platform contract\" */\n    tag_15:\n      0x00\n      dup1\n      sload\n      tag_55\n      swap1\n      tag_56\n      jump\t// in\n    tag_55:\n      dup1\n      0x1f\n      add\n      0x20\n      dup1\n      swap2\n      div\n      mul\n      0x20\n      add\n      mload(0x40)\n      swap1\n      dup2\n      add\n      0x40\n      mstore\n      dup1\n      swap3\n      swap2\n      swap1\n      dup2\n      dup2\n      mstore\n      0x20\n      add\n      dup3\n      dup1\n      sload\n      tag_57\n      swap1\n      tag_56\n      jump\t// in\n    tag_57:\n      dup1\n      iszero\n      tag_58\n      jumpi\n      dup1\n      0x1f\n      lt\n      tag_59\n      jumpi\n      0x0100\n      dup1\n      dup4\n      sload\n      div\n      mul\n      dup4\n      mstore\n      swap2\n      0x20\n      add\n      swap2\n      jump(tag_58)\n    tag_59:\n      dup3\n      add\n      swap2\n      swap1\n      0x00\n      mstore\n      keccak256(0x00, 0x20)\n      swap1\n    tag_60:\n      dup2\n      sload\n      dup2\n      mstore\n      swap1\n      0x01\n      add\n      swap1\n      0x20\n      add\n      dup1\n      dup4\n      gt\n      tag_60\n      jumpi\n      dup3\n      swap1\n      sub\n      0x1f\n      and\n      dup3\n      add\n      swap2\n    tag_58:\n      pop\n      pop\n      pop\n      pop\n      pop\n      dup2\n      jump\t// out\n        /* \"Projects/horizon/contracts/EthSwap.sol\":290:314  uint public lfjRate = 10 */\n    tag_20:\n      sload(0x04)\n      dup2\n      jump\t// out\n        /* \"Projects/horizon/contracts/EthSwap.sol\":338:365  uint public czhTokenBalance */\n    tag_25:\n      sload(0x05)\n      dup2\n      jump\t// out\n        /* \"Projects/horizon/contracts/EthSwap.sol\":371:398  uint public lfjTokenBalance */\n    tag_29:\n      sload(0x06)\n      dup2\n      jump\t// out\n        /* \"Projects/horizon/contracts/EthSwap.sol\":2585:3316  function sellTokens(uint _amount) public payable {... */\n    tag_34:\n        /* \"Projects/horizon/contracts/EthSwap.sol\":2740:2747  _amount */\n      dup1\n        /* \"Projects/horizon/contracts/EthSwap.sol\":2706:2714  tokenCZH */\n      0x01\n      0x00\n      swap1\n      sload\n      swap1\n      0x0100\n      exp\n      swap1\n      div\n      0xffffffffffffffffffffffffffffffffffffffff\n      and\n        /* \"Projects/horizon/contracts/EthSwap.sol\":2706:2724  tokenCZH.balanceOf */\n      0xffffffffffffffffffffffffffffffffffffffff\n      and\n      0x70a08231\n        /* \"Projects/horizon/contracts/EthSwap.sol\":2725:2735  msg.sender */\n      caller\n        /* \"Projects/horizon/contracts/EthSwap.sol\":2706:2736  tokenCZH.balanceOf(msg.sender) */\n      mload(0x40)\n      dup3\n      0xffffffff\n      and\n      0xe0\n      shl\n      dup2\n      mstore\n      0x04\n      add\n      tag_62\n      swap2\n      swap1\n      tag_63\n      jump\t// in\n    tag_62:\n      0x20\n      mload(0x40)\n      dup1\n      dup4\n      sub\n      dup2\n      dup7\n      dup1\n      extcodesize\n      iszero\n      dup1\n      iszero\n      tag_64\n      jumpi\n      0x00\n      dup1\n      revert\n    tag_64:\n      pop\n      gas\n      staticcall\n      iszero\n      dup1\n      iszero\n      tag_66\n      jumpi\n      returndatasize\n      0x00\n      dup1\n      returndatacopy\n      revert(0x00, returndatasize)\n    tag_66:\n      pop\n      pop\n      pop\n      pop\n      mload(0x40)\n      returndatasize\n      not(0x1f)\n      0x1f\n      dup3\n      add\n      and\n      dup3\n      add\n      dup1\n      0x40\n      mstore\n      pop\n      dup2\n      add\n      swap1\n      tag_67\n      swap2\n      swap1\n      tag_68\n      jump\t// in\n    tag_67:\n        /* \"Projects/horizon/contracts/EthSwap.sol\":2706:2747  tokenCZH.balanceOf(msg.sender) >= _amount */\n      lt\n      iszero\n        /* \"Projects/horizon/contracts/EthSwap.sol\":2698:2804  require(tokenCZH.balanceOf(msg.sender) >= _amount, \"You can not sell more tokens than you currently hold\") */\n      tag_69\n      jumpi\n      mload(0x40)\n      0x08c379a000000000000000000000000000000000000000000000000000000000\n      dup2\n      mstore\n      0x04\n      add\n      tag_70\n      swap1\n      tag_71\n      jump\t// in\n    tag_70:\n      mload(0x40)\n      dup1\n      swap2\n      sub\n      swap1\n      revert\n    tag_69:\n        /* \"Projects/horizon/contracts/EthSwap.sol\":2866:2882  uint etherAmount */\n      0x00\n        /* \"Projects/horizon/contracts/EthSwap.sol\":2895:2902  czhRate */\n      sload(0x03)\n        /* \"Projects/horizon/contracts/EthSwap.sol\":2885:2892  _amount */\n      dup3\n        /* \"Projects/horizon/contracts/EthSwap.sol\":2885:2902  _amount / czhRate */\n      tag_72\n      swap2\n      swap1\n      tag_73\n      jump\t// in\n    tag_72:\n        /* \"Projects/horizon/contracts/EthSwap.sol\":2866:2902  uint etherAmount = _amount / czhRate */\n      swap1\n      pop\n        /* \"Projects/horizon/contracts/EthSwap.sol\":2995:3006  etherAmount */\n      dup1\n        /* \"Projects/horizon/contracts/EthSwap.sol\":2970:2991  address(this).balance */\n      selfbalance\n        /* \"Projects/horizon/contracts/EthSwap.sol\":2970:3006  address(this).balance >= etherAmount */\n      lt\n      iszero\n        /* \"Projects/horizon/contracts/EthSwap.sol\":2962:3066  require(address(this).balance >= etherAmount, \"Swap contract does not have enough available ETH amount\") */\n      tag_74\n      jumpi\n      mload(0x40)\n      0x08c379a000000000000000000000000000000000000000000000000000000000\n      dup2\n      mstore\n      0x04\n      add\n      tag_75\n      swap1\n      tag_76\n      jump\t// in\n    tag_75:\n      mload(0x40)\n      dup1\n      swap2\n      sub\n      swap1\n      revert\n    tag_74:\n        /* \"Projects/horizon/contracts/EthSwap.sol\":3101:3109  tokenCZH */\n      0x01\n      0x00\n      swap1\n      sload\n      swap1\n      0x0100\n      exp\n      swap1\n      div\n      0xffffffffffffffffffffffffffffffffffffffff\n      and\n        /* \"Projects/horizon/contracts/EthSwap.sol\":3101:3122  tokenCZH.transferFrom */\n      0xffffffffffffffffffffffffffffffffffffffff\n      and\n      0x23b872dd\n        /* \"Projects/horizon/contracts/EthSwap.sol\":3123:3133  msg.sender */\n      caller\n        /* \"Projects/horizon/contracts/EthSwap.sol\":3143:3147  this */\n      address\n        /* \"Projects/horizon/contracts/EthSwap.sol\":3150:3157  _amount */\n      dup6\n        /* \"Projects/horizon/contracts/EthSwap.sol\":3101:3158  tokenCZH.transferFrom(msg.sender, address(this), _amount) */\n      mload(0x40)\n      dup5\n      0xffffffff\n      and\n      0xe0\n      shl\n      dup2\n      mstore\n      0x04\n      add\n      tag_77\n      swap4\n      swap3\n      swap2\n      swap1\n      tag_78\n      jump\t// in\n    tag_77:\n      0x20\n      mload(0x40)\n      dup1\n      dup4\n      sub\n      dup2\n      0x00\n      dup8\n      dup1\n      extcodesize\n      iszero\n      dup1\n      iszero\n      tag_79\n      jumpi\n      0x00\n      dup1\n      revert\n    tag_79:\n      pop\n      gas\n      call\n      iszero\n      dup1\n      iszero\n      tag_81\n      jumpi\n      returndatasize\n      0x00\n      dup1\n      returndatacopy\n      revert(0x00, returndatasize)\n    tag_81:\n      pop\n      pop\n      pop\n      pop\n      mload(0x40)\n      returndatasize\n      not(0x1f)\n      0x1f\n      dup3\n      add\n      and\n      dup3\n      add\n      dup1\n      0x40\n      mstore\n      pop\n      dup2\n      add\n      swap1\n      tag_82\n      swap2\n      swap1\n      tag_83\n      jump\t// in\n    tag_82:\n      pop\n        /* \"Projects/horizon/contracts/EthSwap.sol\":3176:3186  msg.sender */\n      caller\n        /* \"Projects/horizon/contracts/EthSwap.sol\":3168:3196  payable(msg.sender).transfer */\n      0xffffffffffffffffffffffffffffffffffffffff\n      and\n        /* \"Projects/horizon/contracts/EthSwap.sol\":3168:3209  payable(msg.sender).transfer(etherAmount) */\n      0x08fc\n        /* \"Projects/horizon/contracts/EthSwap.sol\":3197:3208  etherAmount */\n      dup3\n        /* \"Projects/horizon/contracts/EthSwap.sol\":3168:3209  payable(msg.sender).transfer(etherAmount) */\n      swap1\n      dup2\n      iszero\n      mul\n      swap1\n      mload(0x40)\n      0x00\n      mload(0x40)\n      dup1\n      dup4\n      sub\n      dup2\n      dup6\n      dup9\n      dup9\n      call\n      swap4\n      pop\n      pop\n      pop\n      pop\n      iszero\n      dup1\n      iszero\n      tag_85\n      jumpi\n      returndatasize\n      0x00\n      dup1\n      returndatacopy\n      revert(0x00, returndatasize)\n    tag_85:\n      pop\n        /* \"Projects/horizon/contracts/EthSwap.sol\":3250:3309  TokensSold(msg.sender, address(tokenCZH), _amount, czhRate) */\n      0x697c42d55a5e1fed3f464ec6f38b32546a0bd368dc8068b065c67566d73f3290\n        /* \"Projects/horizon/contracts/EthSwap.sol\":3261:3271  msg.sender */\n      caller\n        /* \"Projects/horizon/contracts/EthSwap.sol\":3281:3289  tokenCZH */\n      0x01\n      0x00\n      swap1\n      sload\n      swap1\n      0x0100\n      exp\n      swap1\n      div\n      0xffffffffffffffffffffffffffffffffffffffff\n      and\n        /* \"Projects/horizon/contracts/EthSwap.sol\":3292:3299  _amount */\n      dup5\n        /* \"Projects/horizon/contracts/EthSwap.sol\":3301:3308  czhRate */\n      sload(0x03)\n        /* \"Projects/horizon/contracts/EthSwap.sol\":3250:3309  TokensSold(msg.sender, address(tokenCZH), _amount, czhRate) */\n      mload(0x40)\n      tag_86\n      swap5\n      swap4\n      swap3\n      swap2\n      swap1\n      tag_87\n      jump\t// in\n    tag_86:\n      mload(0x40)\n      dup1\n      swap2\n      sub\n      swap1\n      log1\n        /* \"Projects/horizon/contracts/EthSwap.sol\":2634:3316  {... */\n      pop\n        /* \"Projects/horizon/contracts/EthSwap.sol\":2585:3316  function sellTokens(uint _amount) public payable {... */\n      pop\n      jump\t// out\n        /* \"Projects/horizon/contracts/EthSwap.sol\":190:209  CZH public tokenCZH */\n    tag_37:\n      0x01\n      0x00\n      swap1\n      sload\n      swap1\n      0x0100\n      exp\n      swap1\n      div\n      0xffffffffffffffffffffffffffffffffffffffff\n      and\n      dup2\n      jump\t// out\n        /* \"Projects/horizon/contracts/EthSwap.sol\":215:234  LFJ public tokenLFJ */\n    tag_42:\n      0x02\n      0x00\n      swap1\n      sload\n      swap1\n      0x0100\n      exp\n      swap1\n      div\n      0xffffffffffffffffffffffffffffffffffffffff\n      and\n      dup2\n      jump\t// out\n        /* \"Projects/horizon/contracts/EthSwap.sol\":240:265  uint public czhRate = 100 */\n    tag_47:\n      sload(0x03)\n      dup2\n      jump\t// out\n        /* \"Projects/horizon/contracts/EthSwap.sol\":2085:2579  function buyTokens() public payable {... */\n    tag_50:\n        /* \"Projects/horizon/contracts/EthSwap.sol\":2180:2196  uint tokenAmount */\n      0x00\n        /* \"Projects/horizon/contracts/EthSwap.sol\":2211:2218  czhRate */\n      sload(0x03)\n        /* \"Projects/horizon/contracts/EthSwap.sol\":2199:2208  msg.value */\n      callvalue\n        /* \"Projects/horizon/contracts/EthSwap.sol\":2199:2218  msg.value * czhRate */\n      tag_89\n      swap2\n      swap1\n      tag_90\n      jump\t// in\n    tag_89:\n        /* \"Projects/horizon/contracts/EthSwap.sol\":2180:2218  uint tokenAmount = msg.value * czhRate */\n      swap1\n      pop\n        /* \"Projects/horizon/contracts/EthSwap.sol\":2324:2335  tokenAmount */\n      dup1\n        /* \"Projects/horizon/contracts/EthSwap.sol\":2287:2295  tokenCZH */\n      0x01\n      0x00\n      swap1\n      sload\n      swap1\n      0x0100\n      exp\n      swap1\n      div\n      0xffffffffffffffffffffffffffffffffffffffff\n      and\n        /* \"Projects/horizon/contracts/EthSwap.sol\":2287:2305  tokenCZH.balanceOf */\n      0xffffffffffffffffffffffffffffffffffffffff\n      and\n      0x70a08231\n        /* \"Projects/horizon/contracts/EthSwap.sol\":2314:2318  this */\n      address\n        /* \"Projects/horizon/contracts/EthSwap.sol\":2287:2320  tokenCZH.balanceOf(address(this)) */\n      mload(0x40)\n      dup3\n      0xffffffff\n      and\n      0xe0\n      shl\n      dup2\n      mstore\n      0x04\n      add\n      tag_91\n      swap2\n      swap1\n      tag_63\n      jump\t// in\n    tag_91:\n      0x20\n      mload(0x40)\n      dup1\n      dup4\n      sub\n      dup2\n      dup7\n      dup1\n      extcodesize\n      iszero\n      dup1\n      iszero\n      tag_92\n      jumpi\n      0x00\n      dup1\n      revert\n    tag_92:\n      pop\n      gas\n      staticcall\n      iszero\n      dup1\n      iszero\n      tag_94\n      jumpi\n      returndatasize\n      0x00\n      dup1\n      returndatacopy\n      revert(0x00, returndatasize)\n    tag_94:\n      pop\n      pop\n      pop\n      pop\n      mload(0x40)\n      returndatasize\n      not(0x1f)\n      0x1f\n      dup3\n      add\n      and\n      dup3\n      add\n      dup1\n      0x40\n      mstore\n      pop\n      dup2\n      add\n      swap1\n      tag_95\n      swap2\n      swap1\n      tag_68\n      jump\t// in\n    tag_95:\n        /* \"Projects/horizon/contracts/EthSwap.sol\":2287:2335  tokenCZH.balanceOf(address(this)) >= tokenAmount */\n      lt\n      iszero\n        /* \"Projects/horizon/contracts/EthSwap.sol\":2279:2371  require(tokenCZH.balanceOf(address(this)) >= tokenAmount, \"Not enough CZH available to buy\") */\n      tag_96\n      jumpi\n      mload(0x40)\n      0x08c379a000000000000000000000000000000000000000000000000000000000\n      dup2\n      mstore\n      0x04\n      add\n      tag_97\n      swap1\n      tag_98\n      jump\t// in\n    tag_97:\n      mload(0x40)\n      dup1\n      swap2\n      sub\n      swap1\n      revert\n    tag_96:\n        /* \"Projects/horizon/contracts/EthSwap.sol\":2421:2429  tokenCZH */\n      0x01\n      0x00\n      swap1\n      sload\n      swap1\n      0x0100\n      exp\n      swap1\n      div\n      0xffffffffffffffffffffffffffffffffffffffff\n      and\n        /* \"Projects/horizon/contracts/EthSwap.sol\":2421:2438  tokenCZH.transfer */\n      0xffffffffffffffffffffffffffffffffffffffff\n      and\n      0xa9059cbb\n        /* \"Projects/horizon/contracts/EthSwap.sol\":2439:2449  msg.sender */\n      caller\n        /* \"Projects/horizon/contracts/EthSwap.sol\":2451:2462  tokenAmount */\n      dup4\n        /* \"Projects/horizon/contracts/EthSwap.sol\":2421:2463  tokenCZH.transfer(msg.sender, tokenAmount) */\n      mload(0x40)\n      dup4\n      0xffffffff\n      and\n      0xe0\n      shl\n      dup2\n      mstore\n      0x04\n      add\n      tag_99\n      swap3\n      swap2\n      swap1\n      tag_100\n      jump\t// in\n    tag_99:\n      0x20\n      mload(0x40)\n      dup1\n      dup4\n      sub\n      dup2\n      0x00\n      dup8\n      dup1\n      extcodesize\n      iszero\n      dup1\n      iszero\n      tag_101\n      jumpi\n      0x00\n      dup1\n      revert\n    tag_101:\n      pop\n      gas\n      call\n      iszero\n      dup1\n      iszero\n      tag_103\n      jumpi\n      returndatasize\n      0x00\n      dup1\n      returndatacopy\n      revert(0x00, returndatasize)\n    tag_103:\n      pop\n      pop\n      pop\n      pop\n      mload(0x40)\n      returndatasize\n      not(0x1f)\n      0x1f\n      dup3\n      add\n      and\n      dup3\n      add\n      dup1\n      0x40\n      mstore\n      pop\n      dup2\n      add\n      swap1\n      tag_104\n      swap2\n      swap1\n      tag_83\n      jump\t// in\n    tag_104:\n      pop\n        /* \"Projects/horizon/contracts/EthSwap.sol\":2504:2572  TokensPurchased(msg.sender, address(tokenCZH), tokenAmount, czhRate) */\n      0x6faf93231a456e552dbc9961f58d9713ee4f2e69d15f1975b050ef0911053a7b\n        /* \"Projects/horizon/contracts/EthSwap.sol\":2520:2530  msg.sender */\n      caller\n        /* \"Projects/horizon/contracts/EthSwap.sol\":2540:2548  tokenCZH */\n      0x01\n      0x00\n      swap1\n      sload\n      swap1\n      0x0100\n      exp\n      swap1\n      div\n      0xffffffffffffffffffffffffffffffffffffffff\n      and\n        /* \"Projects/horizon/contracts/EthSwap.sol\":2551:2562  tokenAmount */\n      dup4\n        /* \"Projects/horizon/contracts/EthSwap.sol\":2564:2571  czhRate */\n      sload(0x03)\n        /* \"Projects/horizon/contracts/EthSwap.sol\":2504:2572  TokensPurchased(msg.sender, address(tokenCZH), tokenAmount, czhRate) */\n      mload(0x40)\n      tag_105\n      swap5\n      swap4\n      swap3\n      swap2\n      swap1\n      tag_87\n      jump\t// in\n    tag_105:\n      mload(0x40)\n      dup1\n      swap2\n      sub\n      swap1\n      log1\n        /* \"Projects/horizon/contracts/EthSwap.sol\":2121:2579  {... */\n      pop\n        /* \"Projects/horizon/contracts/EthSwap.sol\":2085:2579  function buyTokens() public payable {... */\n      jump\t// out\n        /* \"Projects/horizon/contracts/EthSwap.sol\":879:2079  function swapTokens(address _tokenToBuy, address _tokenToSell, uint _valueToSell) public payable {... */\n    tag_54:\n        /* \"Projects/horizon/contracts/EthSwap.sol\":1471:1484  CZH tokenSell */\n      0x00\n        /* \"Projects/horizon/contracts/EthSwap.sol\":1491:1503  _tokenToSell */\n      dup3\n        /* \"Projects/horizon/contracts/EthSwap.sol\":1471:1504  CZH tokenSell = CZH(_tokenToSell) */\n      swap1\n      pop\n        /* \"Projects/horizon/contracts/EthSwap.sol\":1514:1526  CZH tokenBuy */\n      0x00\n        /* \"Projects/horizon/contracts/EthSwap.sol\":1533:1544  _tokenToBuy */\n      dup5\n        /* \"Projects/horizon/contracts/EthSwap.sol\":1514:1545  CZH tokenBuy = CZH(_tokenToBuy) */\n      swap1\n      pop\n        /* \"Projects/horizon/contracts/EthSwap.sol\":1607:1619  _valueToSell */\n      dup3\n        /* \"Projects/horizon/contracts/EthSwap.sol\":1563:1572  tokenSell */\n      dup3\n        /* \"Projects/horizon/contracts/EthSwap.sol\":1563:1582  tokenSell.balanceOf */\n      0xffffffffffffffffffffffffffffffffffffffff\n      and\n      0x70a08231\n        /* \"Projects/horizon/contracts/EthSwap.sol\":1591:1601  msg.sender */\n      caller\n        /* \"Projects/horizon/contracts/EthSwap.sol\":1563:1603  tokenSell.balanceOf(address(msg.sender)) */\n      mload(0x40)\n      dup3\n      0xffffffff\n      and\n      0xe0\n      shl\n      dup2\n      mstore\n      0x04\n      add\n      tag_107\n      swap2\n      swap1\n      tag_63\n      jump\t// in\n    tag_107:\n      0x20\n      mload(0x40)\n      dup1\n      dup4\n      sub\n      dup2\n      dup7\n      dup1\n      extcodesize\n      iszero\n      dup1\n      iszero\n      tag_108\n      jumpi\n      0x00\n      dup1\n      revert\n    tag_108:\n      pop\n      gas\n      staticcall\n      iszero\n      dup1\n      iszero\n      tag_110\n      jumpi\n      returndatasize\n      0x00\n      dup1\n      returndatacopy\n      revert(0x00, returndatasize)\n    tag_110:\n      pop\n      pop\n      pop\n      pop\n      mload(0x40)\n      returndatasize\n      not(0x1f)\n      0x1f\n      dup3\n      add\n      and\n      dup3\n      add\n      dup1\n      0x40\n      mstore\n      pop\n      dup2\n      add\n      swap1\n      tag_111\n      swap2\n      swap1\n      tag_68\n      jump\t// in\n    tag_111:\n        /* \"Projects/horizon/contracts/EthSwap.sol\":1563:1619  tokenSell.balanceOf(address(msg.sender)) <= _valueToSell */\n      gt\n      iszero\n        /* \"Projects/horizon/contracts/EthSwap.sol\":1555:1648  require(tokenSell.balanceOf(address(msg.sender)) <= _valueToSell, \"Not enough funds to swap\") */\n      tag_112\n      jumpi\n      mload(0x40)\n      0x08c379a000000000000000000000000000000000000000000000000000000000\n      dup2\n      mstore\n      0x04\n      add\n      tag_113\n      swap1\n      tag_114\n      jump\t// in\n    tag_113:\n      mload(0x40)\n      dup1\n      swap2\n      sub\n      swap1\n      revert\n    tag_112:\n        /* \"Projects/horizon/contracts/EthSwap.sol\":1849:1861  _valueToSell */\n      dup3\n        /* \"Projects/horizon/contracts/EthSwap.sol\":1811:1820  tokenSell */\n      dup3\n        /* \"Projects/horizon/contracts/EthSwap.sol\":1811:1830  tokenSell.balanceOf */\n      0xffffffffffffffffffffffffffffffffffffffff\n      and\n      0x70a08231\n        /* \"Projects/horizon/contracts/EthSwap.sol\":1839:1843  this */\n      address\n        /* \"Projects/horizon/contracts/EthSwap.sol\":1811:1845  tokenSell.balanceOf(address(this)) */\n      mload(0x40)\n      dup3\n      0xffffffff\n      and\n      0xe0\n      shl\n      dup2\n      mstore\n      0x04\n      add\n      tag_115\n      swap2\n      swap1\n      tag_63\n      jump\t// in\n    tag_115:\n      0x20\n      mload(0x40)\n      dup1\n      dup4\n      sub\n      dup2\n      dup7\n      dup1\n      extcodesize\n      iszero\n      dup1\n      iszero\n      tag_116\n      jumpi\n      0x00\n      dup1\n      revert\n    tag_116:\n      pop\n      gas\n      staticcall\n      iszero\n      dup1\n      iszero\n      tag_118\n      jumpi\n      returndatasize\n      0x00\n      dup1\n      returndatacopy\n      revert(0x00, returndatasize)\n    tag_118:\n      pop\n      pop\n      pop\n      pop\n      mload(0x40)\n      returndatasize\n      not(0x1f)\n      0x1f\n      dup3\n      add\n      and\n      dup3\n      add\n      dup1\n      0x40\n      mstore\n      pop\n      dup2\n      add\n      swap1\n      tag_119\n      swap2\n      swap1\n      tag_68\n      jump\t// in\n    tag_119:\n        /* \"Projects/horizon/contracts/EthSwap.sol\":1811:1861  tokenSell.balanceOf(address(this)) <= _valueToSell */\n      gt\n      iszero\n        /* \"Projects/horizon/contracts/EthSwap.sol\":1803:1893  require(tokenSell.balanceOf(address(this)) <= _valueToSell, \"Not enough funds on EthSwap\") */\n      tag_120\n      jumpi\n      mload(0x40)\n      0x08c379a000000000000000000000000000000000000000000000000000000000\n      dup2\n      mstore\n      0x04\n      add\n      tag_121\n      swap1\n      tag_122\n      jump\t// in\n    tag_121:\n      mload(0x40)\n      dup1\n      swap2\n      sub\n      swap1\n      revert\n    tag_120:\n        /* \"Projects/horizon/contracts/EthSwap.sol\":976:2079  {... */\n      pop\n      pop\n        /* \"Projects/horizon/contracts/EthSwap.sol\":879:2079  function swapTokens(address _tokenToBuy, address _tokenToSell, uint _valueToSell) public payable {... */\n      pop\n      pop\n      pop\n      jump\t// out\n        /* \"#utility.yul\":7:146   */\n    tag_124:\n        /* \"#utility.yul\":53:58   */\n      0x00\n        /* \"#utility.yul\":91:97   */\n      dup2\n        /* \"#utility.yul\":78:98   */\n      calldataload\n        /* \"#utility.yul\":69:98   */\n      swap1\n      pop\n        /* \"#utility.yul\":107:140   */\n      tag_126\n        /* \"#utility.yul\":134:139   */\n      dup2\n        /* \"#utility.yul\":107:140   */\n      tag_127\n      jump\t// in\n    tag_126:\n        /* \"#utility.yul\":7:146   */\n      swap3\n      swap2\n      pop\n      pop\n      jump\t// out\n        /* \"#utility.yul\":152:289   */\n    tag_128:\n        /* \"#utility.yul\":206:211   */\n      0x00\n        /* \"#utility.yul\":237:243   */\n      dup2\n        /* \"#utility.yul\":231:244   */\n      mload\n        /* \"#utility.yul\":222:244   */\n      swap1\n      pop\n        /* \"#utility.yul\":253:283   */\n      tag_130\n        /* \"#utility.yul\":277:282   */\n      dup2\n        /* \"#utility.yul\":253:283   */\n      tag_131\n      jump\t// in\n    tag_130:\n        /* \"#utility.yul\":152:289   */\n      swap3\n      swap2\n      pop\n      pop\n      jump\t// out\n        /* \"#utility.yul\":295:434   */\n    tag_132:\n        /* \"#utility.yul\":341:346   */\n      0x00\n        /* \"#utility.yul\":379:385   */\n      dup2\n        /* \"#utility.yul\":366:386   */\n      calldataload\n        /* \"#utility.yul\":357:386   */\n      swap1\n      pop\n        /* \"#utility.yul\":395:428   */\n      tag_134\n        /* \"#utility.yul\":422:427   */\n      dup2\n        /* \"#utility.yul\":395:428   */\n      tag_135\n      jump\t// in\n    tag_134:\n        /* \"#utility.yul\":295:434   */\n      swap3\n      swap2\n      pop\n      pop\n      jump\t// out\n        /* \"#utility.yul\":440:583   */\n    tag_136:\n        /* \"#utility.yul\":497:502   */\n      0x00\n        /* \"#utility.yul\":528:534   */\n      dup2\n        /* \"#utility.yul\":522:535   */\n      mload\n        /* \"#utility.yul\":513:535   */\n      swap1\n      pop\n        /* \"#utility.yul\":544:577   */\n      tag_138\n        /* \"#utility.yul\":571:576   */\n      dup2\n        /* \"#utility.yul\":544:577   */\n      tag_135\n      jump\t// in\n    tag_138:\n        /* \"#utility.yul\":440:583   */\n      swap3\n      swap2\n      pop\n      pop\n      jump\t// out\n        /* \"#utility.yul\":589:1208   */\n    tag_53:\n        /* \"#utility.yul\":666:672   */\n      0x00\n        /* \"#utility.yul\":674:680   */\n      dup1\n        /* \"#utility.yul\":682:688   */\n      0x00\n        /* \"#utility.yul\":731:733   */\n      0x60\n        /* \"#utility.yul\":719:728   */\n      dup5\n        /* \"#utility.yul\":710:717   */\n      dup7\n        /* \"#utility.yul\":706:729   */\n      sub\n        /* \"#utility.yul\":702:734   */\n      slt\n        /* \"#utility.yul\":699:818   */\n      iszero\n      tag_140\n      jumpi\n        /* \"#utility.yul\":737:816   */\n      tag_141\n      tag_142\n      jump\t// in\n    tag_141:\n        /* \"#utility.yul\":699:818   */\n    tag_140:\n        /* \"#utility.yul\":857:858   */\n      0x00\n        /* \"#utility.yul\":882:935   */\n      tag_143\n        /* \"#utility.yul\":927:934   */\n      dup7\n        /* \"#utility.yul\":918:924   */\n      dup3\n        /* \"#utility.yul\":907:916   */\n      dup8\n        /* \"#utility.yul\":903:925   */\n      add\n        /* \"#utility.yul\":882:935   */\n      tag_124\n      jump\t// in\n    tag_143:\n        /* \"#utility.yul\":872:935   */\n      swap4\n      pop\n        /* \"#utility.yul\":828:945   */\n      pop\n        /* \"#utility.yul\":984:986   */\n      0x20\n        /* \"#utility.yul\":1010:1063   */\n      tag_144\n        /* \"#utility.yul\":1055:1062   */\n      dup7\n        /* \"#utility.yul\":1046:1052   */\n      dup3\n        /* \"#utility.yul\":1035:1044   */\n      dup8\n        /* \"#utility.yul\":1031:1053   */\n      add\n        /* \"#utility.yul\":1010:1063   */\n      tag_124\n      jump\t// in\n    tag_144:\n        /* \"#utility.yul\":1000:1063   */\n      swap3\n      pop\n        /* \"#utility.yul\":955:1073   */\n      pop\n        /* \"#utility.yul\":1112:1114   */\n      0x40\n        /* \"#utility.yul\":1138:1191   */\n      tag_145\n        /* \"#utility.yul\":1183:1190   */\n      dup7\n        /* \"#utility.yul\":1174:1180   */\n      dup3\n        /* \"#utility.yul\":1163:1172   */\n      dup8\n        /* \"#utility.yul\":1159:1181   */\n      add\n        /* \"#utility.yul\":1138:1191   */\n      tag_132\n      jump\t// in\n    tag_145:\n        /* \"#utility.yul\":1128:1191   */\n      swap2\n      pop\n        /* \"#utility.yul\":1083:1201   */\n      pop\n        /* \"#utility.yul\":589:1208   */\n      swap3\n      pop\n      swap3\n      pop\n      swap3\n      jump\t// out\n        /* \"#utility.yul\":1214:1559   */\n    tag_83:\n        /* \"#utility.yul\":1281:1287   */\n      0x00\n        /* \"#utility.yul\":1330:1332   */\n      0x20\n        /* \"#utility.yul\":1318:1327   */\n      dup3\n        /* \"#utility.yul\":1309:1316   */\n      dup5\n        /* \"#utility.yul\":1305:1328   */\n      sub\n        /* \"#utility.yul\":1301:1333   */\n      slt\n        /* \"#utility.yul\":1298:1417   */\n      iszero\n      tag_147\n      jumpi\n        /* \"#utility.yul\":1336:1415   */\n      tag_148\n      tag_142\n      jump\t// in\n    tag_148:\n        /* \"#utility.yul\":1298:1417   */\n    tag_147:\n        /* \"#utility.yul\":1456:1457   */\n      0x00\n        /* \"#utility.yul\":1481:1542   */\n      tag_149\n        /* \"#utility.yul\":1534:1541   */\n      dup5\n        /* \"#utility.yul\":1525:1531   */\n      dup3\n        /* \"#utility.yul\":1514:1523   */\n      dup6\n        /* \"#utility.yul\":1510:1532   */\n      add\n        /* \"#utility.yul\":1481:1542   */\n      tag_128\n      jump\t// in\n    tag_149:\n        /* \"#utility.yul\":1471:1542   */\n      swap2\n      pop\n        /* \"#utility.yul\":1427:1552   */\n      pop\n        /* \"#utility.yul\":1214:1559   */\n      swap3\n      swap2\n      pop\n      pop\n      jump\t// out\n        /* \"#utility.yul\":1565:1894   */\n    tag_33:\n        /* \"#utility.yul\":1624:1630   */\n      0x00\n        /* \"#utility.yul\":1673:1675   */\n      0x20\n        /* \"#utility.yul\":1661:1670   */\n      dup3\n        /* \"#utility.yul\":1652:1659   */\n      dup5\n        /* \"#utility.yul\":1648:1671   */\n      sub\n        /* \"#utility.yul\":1644:1676   */\n      slt\n        /* \"#utility.yul\":1641:1760   */\n      iszero\n      tag_151\n      jumpi\n        /* \"#utility.yul\":1679:1758   */\n      tag_152\n      tag_142\n      jump\t// in\n    tag_152:\n        /* \"#utility.yul\":1641:1760   */\n    tag_151:\n        /* \"#utility.yul\":1799:1800   */\n      0x00\n        /* \"#utility.yul\":1824:1877   */\n      tag_153\n        /* \"#utility.yul\":1869:1876   */\n      dup5\n        /* \"#utility.yul\":1860:1866   */\n      dup3\n        /* \"#utility.yul\":1849:1858   */\n      dup6\n        /* \"#utility.yul\":1845:1867   */\n      add\n        /* \"#utility.yul\":1824:1877   */\n      tag_132\n      jump\t// in\n    tag_153:\n        /* \"#utility.yul\":1814:1877   */\n      swap2\n      pop\n        /* \"#utility.yul\":1770:1887   */\n      pop\n        /* \"#utility.yul\":1565:1894   */\n      swap3\n      swap2\n      pop\n      pop\n      jump\t// out\n        /* \"#utility.yul\":1900:2251   */\n    tag_68:\n        /* \"#utility.yul\":1970:1976   */\n      0x00\n        /* \"#utility.yul\":2019:2021   */\n      0x20\n        /* \"#utility.yul\":2007:2016   */\n      dup3\n        /* \"#utility.yul\":1998:2005   */\n      dup5\n        /* \"#utility.yul\":1994:2017   */\n      sub\n        /* \"#utility.yul\":1990:2022   */\n      slt\n        /* \"#utility.yul\":1987:2106   */\n      iszero\n      tag_155\n      jumpi\n        /* \"#utility.yul\":2025:2104   */\n      tag_156\n      tag_142\n      jump\t// in\n    tag_156:\n        /* \"#utility.yul\":1987:2106   */\n    tag_155:\n        /* \"#utility.yul\":2145:2146   */\n      0x00\n        /* \"#utility.yul\":2170:2234   */\n      tag_157\n        /* \"#utility.yul\":2226:2233   */\n      dup5\n        /* \"#utility.yul\":2217:2223   */\n      dup3\n        /* \"#utility.yul\":2206:2215   */\n      dup6\n        /* \"#utility.yul\":2202:2224   */\n      add\n        /* \"#utility.yul\":2170:2234   */\n      tag_136\n      jump\t// in\n    tag_157:\n        /* \"#utility.yul\":2160:2234   */\n      swap2\n      pop\n        /* \"#utility.yul\":2116:2244   */\n      pop\n        /* \"#utility.yul\":1900:2251   */\n      swap3\n      swap2\n      pop\n      pop\n      jump\t// out\n        /* \"#utility.yul\":2257:2375   */\n    tag_158:\n        /* \"#utility.yul\":2344:2368   */\n      tag_160\n        /* \"#utility.yul\":2362:2367   */\n      dup2\n        /* \"#utility.yul\":2344:2368   */\n      tag_161\n      jump\t// in\n    tag_160:\n        /* \"#utility.yul\":2339:2342   */\n      dup3\n        /* \"#utility.yul\":2332:2369   */\n      mstore\n        /* \"#utility.yul\":2257:2375   */\n      pop\n      pop\n      jump\t// out\n        /* \"#utility.yul\":2381:2534   */\n    tag_162:\n        /* \"#utility.yul\":2479:2527   */\n      tag_164\n        /* \"#utility.yul\":2521:2526   */\n      dup2\n        /* \"#utility.yul\":2479:2527   */\n      tag_165\n      jump\t// in\n    tag_164:\n        /* \"#utility.yul\":2474:2477   */\n      dup3\n        /* \"#utility.yul\":2467:2528   */\n      mstore\n        /* \"#utility.yul\":2381:2534   */\n      pop\n      pop\n      jump\t// out\n        /* \"#utility.yul\":2540:2693   */\n    tag_166:\n        /* \"#utility.yul\":2638:2686   */\n      tag_168\n        /* \"#utility.yul\":2680:2685   */\n      dup2\n        /* \"#utility.yul\":2638:2686   */\n      tag_169\n      jump\t// in\n    tag_168:\n        /* \"#utility.yul\":2633:2636   */\n      dup3\n        /* \"#utility.yul\":2626:2687   */\n      mstore\n        /* \"#utility.yul\":2540:2693   */\n      pop\n      pop\n      jump\t// out\n        /* \"#utility.yul\":2699:3063   */\n    tag_170:\n        /* \"#utility.yul\":2787:2790   */\n      0x00\n        /* \"#utility.yul\":2815:2854   */\n      tag_172\n        /* \"#utility.yul\":2848:2853   */\n      dup3\n        /* \"#utility.yul\":2815:2854   */\n      tag_173\n      jump\t// in\n    tag_172:\n        /* \"#utility.yul\":2870:2941   */\n      tag_174\n        /* \"#utility.yul\":2934:2940   */\n      dup2\n        /* \"#utility.yul\":2929:2932   */\n      dup6\n        /* \"#utility.yul\":2870:2941   */\n      tag_175\n      jump\t// in\n    tag_174:\n        /* \"#utility.yul\":2863:2941   */\n      swap4\n      pop\n        /* \"#utility.yul\":2950:3002   */\n      tag_176\n        /* \"#utility.yul\":2995:3001   */\n      dup2\n        /* \"#utility.yul\":2990:2993   */\n      dup6\n        /* \"#utility.yul\":2983:2987   */\n      0x20\n        /* \"#utility.yul\":2976:2981   */\n      dup7\n        /* \"#utility.yul\":2972:2988   */\n      add\n        /* \"#utility.yul\":2950:3002   */\n      tag_177\n      jump\t// in\n    tag_176:\n        /* \"#utility.yul\":3027:3056   */\n      tag_178\n        /* \"#utility.yul\":3049:3055   */\n      dup2\n        /* \"#utility.yul\":3027:3056   */\n      tag_179\n      jump\t// in\n    tag_178:\n        /* \"#utility.yul\":3022:3025   */\n      dup5\n        /* \"#utility.yul\":3018:3057   */\n      add\n        /* \"#utility.yul\":3011:3057   */\n      swap2\n      pop\n        /* \"#utility.yul\":2791:3063   */\n      pop\n        /* \"#utility.yul\":2699:3063   */\n      swap3\n      swap2\n      pop\n      pop\n      jump\t// out\n        /* \"#utility.yul\":3069:3435   */\n    tag_180:\n        /* \"#utility.yul\":3211:3214   */\n      0x00\n        /* \"#utility.yul\":3232:3299   */\n      tag_182\n        /* \"#utility.yul\":3296:3298   */\n      0x37\n        /* \"#utility.yul\":3291:3294   */\n      dup4\n        /* \"#utility.yul\":3232:3299   */\n      tag_175\n      jump\t// in\n    tag_182:\n        /* \"#utility.yul\":3225:3299   */\n      swap2\n      pop\n        /* \"#utility.yul\":3308:3401   */\n      tag_183\n        /* \"#utility.yul\":3397:3400   */\n      dup3\n        /* \"#utility.yul\":3308:3401   */\n      tag_184\n      jump\t// in\n    tag_183:\n        /* \"#utility.yul\":3426:3428   */\n      0x40\n        /* \"#utility.yul\":3421:3424   */\n      dup3\n        /* \"#utility.yul\":3417:3429   */\n      add\n        /* \"#utility.yul\":3410:3429   */\n      swap1\n      pop\n        /* \"#utility.yul\":3069:3435   */\n      swap2\n      swap1\n      pop\n      jump\t// out\n        /* \"#utility.yul\":3441:3807   */\n    tag_185:\n        /* \"#utility.yul\":3583:3586   */\n      0x00\n        /* \"#utility.yul\":3604:3671   */\n      tag_187\n        /* \"#utility.yul\":3668:3670   */\n      0x34\n        /* \"#utility.yul\":3663:3666   */\n      dup4\n        /* \"#utility.yul\":3604:3671   */\n      tag_175\n      jump\t// in\n    tag_187:\n        /* \"#utility.yul\":3597:3671   */\n      swap2\n      pop\n        /* \"#utility.yul\":3680:3773   */\n      tag_188\n        /* \"#utility.yul\":3769:3772   */\n      dup3\n        /* \"#utility.yul\":3680:3773   */\n      tag_189\n      jump\t// in\n    tag_188:\n        /* \"#utility.yul\":3798:3800   */\n      0x40\n        /* \"#utility.yul\":3793:3796   */\n      dup3\n        /* \"#utility.yul\":3789:3801   */\n      add\n        /* \"#utility.yul\":3782:3801   */\n      swap1\n      pop\n        /* \"#utility.yul\":3441:3807   */\n      swap2\n      swap1\n      pop\n      jump\t// out\n        /* \"#utility.yul\":3813:4179   */\n    tag_190:\n        /* \"#utility.yul\":3955:3958   */\n      0x00\n        /* \"#utility.yul\":3976:4043   */\n      tag_192\n        /* \"#utility.yul\":4040:4042   */\n      0x1f\n        /* \"#utility.yul\":4035:4038   */\n      dup4\n        /* \"#utility.yul\":3976:4043   */\n      tag_175\n      jump\t// in\n    tag_192:\n        /* \"#utility.yul\":3969:4043   */\n      swap2\n      pop\n        /* \"#utility.yul\":4052:4145   */\n      tag_193\n        /* \"#utility.yul\":4141:4144   */\n      dup3\n        /* \"#utility.yul\":4052:4145   */\n      tag_194\n      jump\t// in\n    tag_193:\n        /* \"#utility.yul\":4170:4172   */\n      0x20\n        /* \"#utility.yul\":4165:4168   */\n      dup3\n        /* \"#utility.yul\":4161:4173   */\n      add\n        /* \"#utility.yul\":4154:4173   */\n      swap1\n      pop\n        /* \"#utility.yul\":3813:4179   */\n      swap2\n      swap1\n      pop\n      jump\t// out\n        /* \"#utility.yul\":4185:4551   */\n    tag_195:\n        /* \"#utility.yul\":4327:4330   */\n      0x00\n        /* \"#utility.yul\":4348:4415   */\n      tag_197\n        /* \"#utility.yul\":4412:4414   */\n      0x1b\n        /* \"#utility.yul\":4407:4410   */\n      dup4\n        /* \"#utility.yul\":4348:4415   */\n      tag_175\n      jump\t// in\n    tag_197:\n        /* \"#utility.yul\":4341:4415   */\n      swap2\n      pop\n        /* \"#utility.yul\":4424:4517   */\n      tag_198\n        /* \"#utility.yul\":4513:4516   */\n      dup3\n        /* \"#utility.yul\":4424:4517   */\n      tag_199\n      jump\t// in\n    tag_198:\n        /* \"#utility.yul\":4542:4544   */\n      0x20\n        /* \"#utility.yul\":4537:4540   */\n      dup3\n        /* \"#utility.yul\":4533:4545   */\n      add\n        /* \"#utility.yul\":4526:4545   */\n      swap1\n      pop\n        /* \"#utility.yul\":4185:4551   */\n      swap2\n      swap1\n      pop\n      jump\t// out\n        /* \"#utility.yul\":4557:4923   */\n    tag_200:\n        /* \"#utility.yul\":4699:4702   */\n      0x00\n        /* \"#utility.yul\":4720:4787   */\n      tag_202\n        /* \"#utility.yul\":4784:4786   */\n      0x18\n        /* \"#utility.yul\":4779:4782   */\n      dup4\n        /* \"#utility.yul\":4720:4787   */\n      tag_175\n      jump\t// in\n    tag_202:\n        /* \"#utility.yul\":4713:4787   */\n      swap2\n      pop\n        /* \"#utility.yul\":4796:4889   */\n      tag_203\n        /* \"#utility.yul\":4885:4888   */\n      dup3\n        /* \"#utility.yul\":4796:4889   */\n      tag_204\n      jump\t// in\n    tag_203:\n        /* \"#utility.yul\":4914:4916   */\n      0x20\n        /* \"#utility.yul\":4909:4912   */\n      dup3\n        /* \"#utility.yul\":4905:4917   */\n      add\n        /* \"#utility.yul\":4898:4917   */\n      swap1\n      pop\n        /* \"#utility.yul\":4557:4923   */\n      swap2\n      swap1\n      pop\n      jump\t// out\n        /* \"#utility.yul\":4929:5047   */\n    tag_205:\n        /* \"#utility.yul\":5016:5040   */\n      tag_207\n        /* \"#utility.yul\":5034:5039   */\n      dup2\n        /* \"#utility.yul\":5016:5040   */\n      tag_208\n      jump\t// in\n    tag_207:\n        /* \"#utility.yul\":5011:5014   */\n      dup3\n        /* \"#utility.yul\":5004:5041   */\n      mstore\n        /* \"#utility.yul\":4929:5047   */\n      pop\n      pop\n      jump\t// out\n        /* \"#utility.yul\":5053:5275   */\n    tag_63:\n        /* \"#utility.yul\":5146:5150   */\n      0x00\n        /* \"#utility.yul\":5184:5186   */\n      0x20\n        /* \"#utility.yul\":5173:5182   */\n      dup3\n        /* \"#utility.yul\":5169:5187   */\n      add\n        /* \"#utility.yul\":5161:5187   */\n      swap1\n      pop\n        /* \"#utility.yul\":5197:5268   */\n      tag_210\n        /* \"#utility.yul\":5265:5266   */\n      0x00\n        /* \"#utility.yul\":5254:5263   */\n      dup4\n        /* \"#utility.yul\":5250:5267   */\n      add\n        /* \"#utility.yul\":5241:5247   */\n      dup5\n        /* \"#utility.yul\":5197:5268   */\n      tag_158\n      jump\t// in\n    tag_210:\n        /* \"#utility.yul\":5053:5275   */\n      swap3\n      swap2\n      pop\n      pop\n      jump\t// out\n        /* \"#utility.yul\":5281:5723   */\n    tag_78:\n        /* \"#utility.yul\":5430:5434   */\n      0x00\n        /* \"#utility.yul\":5468:5470   */\n      0x60\n        /* \"#utility.yul\":5457:5466   */\n      dup3\n        /* \"#utility.yul\":5453:5471   */\n      add\n        /* \"#utility.yul\":5445:5471   */\n      swap1\n      pop\n        /* \"#utility.yul\":5481:5552   */\n      tag_212\n        /* \"#utility.yul\":5549:5550   */\n      0x00\n        /* \"#utility.yul\":5538:5547   */\n      dup4\n        /* \"#utility.yul\":5534:5551   */\n      add\n        /* \"#utility.yul\":5525:5531   */\n      dup7\n        /* \"#utility.yul\":5481:5552   */\n      tag_158\n      jump\t// in\n    tag_212:\n        /* \"#utility.yul\":5562:5634   */\n      tag_213\n        /* \"#utility.yul\":5630:5632   */\n      0x20\n        /* \"#utility.yul\":5619:5628   */\n      dup4\n        /* \"#utility.yul\":5615:5633   */\n      add\n        /* \"#utility.yul\":5606:5612   */\n      dup6\n        /* \"#utility.yul\":5562:5634   */\n      tag_158\n      jump\t// in\n    tag_213:\n        /* \"#utility.yul\":5644:5716   */\n      tag_214\n        /* \"#utility.yul\":5712:5714   */\n      0x40\n        /* \"#utility.yul\":5701:5710   */\n      dup4\n        /* \"#utility.yul\":5697:5715   */\n      add\n        /* \"#utility.yul\":5688:5694   */\n      dup5\n        /* \"#utility.yul\":5644:5716   */\n      tag_205\n      jump\t// in\n    tag_214:\n        /* \"#utility.yul\":5281:5723   */\n      swap5\n      swap4\n      pop\n      pop\n      pop\n      pop\n      jump\t// out\n        /* \"#utility.yul\":5729:6282   */\n    tag_87:\n        /* \"#utility.yul\":5906:5910   */\n      0x00\n        /* \"#utility.yul\":5944:5947   */\n      0x80\n        /* \"#utility.yul\":5933:5942   */\n      dup3\n        /* \"#utility.yul\":5929:5948   */\n      add\n        /* \"#utility.yul\":5921:5948   */\n      swap1\n      pop\n        /* \"#utility.yul\":5958:6029   */\n      tag_216\n        /* \"#utility.yul\":6026:6027   */\n      0x00\n        /* \"#utility.yul\":6015:6024   */\n      dup4\n        /* \"#utility.yul\":6011:6028   */\n      add\n        /* \"#utility.yul\":6002:6008   */\n      dup8\n        /* \"#utility.yul\":5958:6029   */\n      tag_158\n      jump\t// in\n    tag_216:\n        /* \"#utility.yul\":6039:6111   */\n      tag_217\n        /* \"#utility.yul\":6107:6109   */\n      0x20\n        /* \"#utility.yul\":6096:6105   */\n      dup4\n        /* \"#utility.yul\":6092:6110   */\n      add\n        /* \"#utility.yul\":6083:6089   */\n      dup7\n        /* \"#utility.yul\":6039:6111   */\n      tag_158\n      jump\t// in\n    tag_217:\n        /* \"#utility.yul\":6121:6193   */\n      tag_218\n        /* \"#utility.yul\":6189:6191   */\n      0x40\n        /* \"#utility.yul\":6178:6187   */\n      dup4\n        /* \"#utility.yul\":6174:6192   */\n      add\n        /* \"#utility.yul\":6165:6171   */\n      dup6\n        /* \"#utility.yul\":6121:6193   */\n      tag_205\n      jump\t// in\n    tag_218:\n        /* \"#utility.yul\":6203:6275   */\n      tag_219\n        /* \"#utility.yul\":6271:6273   */\n      0x60\n        /* \"#utility.yul\":6260:6269   */\n      dup4\n        /* \"#utility.yul\":6256:6274   */\n      add\n        /* \"#utility.yul\":6247:6253   */\n      dup5\n        /* \"#utility.yul\":6203:6275   */\n      tag_205\n      jump\t// in\n    tag_219:\n        /* \"#utility.yul\":5729:6282   */\n      swap6\n      swap5\n      pop\n      pop\n      pop\n      pop\n      pop\n      jump\t// out\n        /* \"#utility.yul\":6288:6620   */\n    tag_100:\n        /* \"#utility.yul\":6409:6413   */\n      0x00\n        /* \"#utility.yul\":6447:6449   */\n      0x40\n        /* \"#utility.yul\":6436:6445   */\n      dup3\n        /* \"#utility.yul\":6432:6450   */\n      add\n        /* \"#utility.yul\":6424:6450   */\n      swap1\n      pop\n        /* \"#utility.yul\":6460:6531   */\n      tag_221\n        /* \"#utility.yul\":6528:6529   */\n      0x00\n        /* \"#utility.yul\":6517:6526   */\n      dup4\n        /* \"#utility.yul\":6513:6530   */\n      add\n        /* \"#utility.yul\":6504:6510   */\n      dup6\n        /* \"#utility.yul\":6460:6531   */\n      tag_158\n      jump\t// in\n    tag_221:\n        /* \"#utility.yul\":6541:6613   */\n      tag_222\n        /* \"#utility.yul\":6609:6611   */\n      0x20\n        /* \"#utility.yul\":6598:6607   */\n      dup4\n        /* \"#utility.yul\":6594:6612   */\n      add\n        /* \"#utility.yul\":6585:6591   */\n      dup5\n        /* \"#utility.yul\":6541:6613   */\n      tag_205\n      jump\t// in\n    tag_222:\n        /* \"#utility.yul\":6288:6620   */\n      swap4\n      swap3\n      pop\n      pop\n      pop\n      jump\t// out\n        /* \"#utility.yul\":6626:6870   */\n    tag_39:\n        /* \"#utility.yul\":6730:6734   */\n      0x00\n        /* \"#utility.yul\":6768:6770   */\n      0x20\n        /* \"#utility.yul\":6757:6766   */\n      dup3\n        /* \"#utility.yul\":6753:6771   */\n      add\n        /* \"#utility.yul\":6745:6771   */\n      swap1\n      pop\n        /* \"#utility.yul\":6781:6863   */\n      tag_224\n        /* \"#utility.yul\":6860:6861   */\n      0x00\n        /* \"#utility.yul\":6849:6858   */\n      dup4\n        /* \"#utility.yul\":6845:6862   */\n      add\n        /* \"#utility.yul\":6836:6842   */\n      dup5\n        /* \"#utility.yul\":6781:6863   */\n      tag_162\n      jump\t// in\n    tag_224:\n        /* \"#utility.yul\":6626:6870   */\n      swap3\n      swap2\n      pop\n      pop\n      jump\t// out\n        /* \"#utility.yul\":6876:7120   */\n    tag_44:\n        /* \"#utility.yul\":6980:6984   */\n      0x00\n        /* \"#utility.yul\":7018:7020   */\n      0x20\n        /* \"#utility.yul\":7007:7016   */\n      dup3\n        /* \"#utility.yul\":7003:7021   */\n      add\n        /* \"#utility.yul\":6995:7021   */\n      swap1\n      pop\n        /* \"#utility.yul\":7031:7113   */\n      tag_226\n        /* \"#utility.yul\":7110:7111   */\n      0x00\n        /* \"#utility.yul\":7099:7108   */\n      dup4\n        /* \"#utility.yul\":7095:7112   */\n      add\n        /* \"#utility.yul\":7086:7092   */\n      dup5\n        /* \"#utility.yul\":7031:7113   */\n      tag_166\n      jump\t// in\n    tag_226:\n        /* \"#utility.yul\":6876:7120   */\n      swap3\n      swap2\n      pop\n      pop\n      jump\t// out\n        /* \"#utility.yul\":7126:7439   */\n    tag_17:\n        /* \"#utility.yul\":7239:7243   */\n      0x00\n        /* \"#utility.yul\":7277:7279   */\n      0x20\n        /* \"#utility.yul\":7266:7275   */\n      dup3\n        /* \"#utility.yul\":7262:7280   */\n      add\n        /* \"#utility.yul\":7254:7280   */\n      swap1\n      pop\n        /* \"#utility.yul\":7326:7335   */\n      dup2\n        /* \"#utility.yul\":7320:7324   */\n      dup2\n        /* \"#utility.yul\":7316:7336   */\n      sub\n        /* \"#utility.yul\":7312:7313   */\n      0x00\n        /* \"#utility.yul\":7301:7310   */\n      dup4\n        /* \"#utility.yul\":7297:7314   */\n      add\n        /* \"#utility.yul\":7290:7337   */\n      mstore\n        /* \"#utility.yul\":7354:7432   */\n      tag_228\n        /* \"#utility.yul\":7427:7431   */\n      dup2\n        /* \"#utility.yul\":7418:7424   */\n      dup5\n        /* \"#utility.yul\":7354:7432   */\n      tag_170\n      jump\t// in\n    tag_228:\n        /* \"#utility.yul\":7346:7432   */\n      swap1\n      pop\n        /* \"#utility.yul\":7126:7439   */\n      swap3\n      swap2\n      pop\n      pop\n      jump\t// out\n        /* \"#utility.yul\":7445:7864   */\n    tag_76:\n        /* \"#utility.yul\":7611:7615   */\n      0x00\n        /* \"#utility.yul\":7649:7651   */\n      0x20\n        /* \"#utility.yul\":7638:7647   */\n      dup3\n        /* \"#utility.yul\":7634:7652   */\n      add\n        /* \"#utility.yul\":7626:7652   */\n      swap1\n      pop\n        /* \"#utility.yul\":7698:7707   */\n      dup2\n        /* \"#utility.yul\":7692:7696   */\n      dup2\n        /* \"#utility.yul\":7688:7708   */\n      sub\n        /* \"#utility.yul\":7684:7685   */\n      0x00\n        /* \"#utility.yul\":7673:7682   */\n      dup4\n        /* \"#utility.yul\":7669:7686   */\n      add\n        /* \"#utility.yul\":7662:7709   */\n      mstore\n        /* \"#utility.yul\":7726:7857   */\n      tag_230\n        /* \"#utility.yul\":7852:7856   */\n      dup2\n        /* \"#utility.yul\":7726:7857   */\n      tag_180\n      jump\t// in\n    tag_230:\n        /* \"#utility.yul\":7718:7857   */\n      swap1\n      pop\n        /* \"#utility.yul\":7445:7864   */\n      swap2\n      swap1\n      pop\n      jump\t// out\n        /* \"#utility.yul\":7870:8289   */\n    tag_71:\n        /* \"#utility.yul\":8036:8040   */\n      0x00\n        /* \"#utility.yul\":8074:8076   */\n      0x20\n        /* \"#utility.yul\":8063:8072   */\n      dup3\n        /* \"#utility.yul\":8059:8077   */\n      add\n        /* \"#utility.yul\":8051:8077   */\n      swap1\n      pop\n        /* \"#utility.yul\":8123:8132   */\n      dup2\n        /* \"#utility.yul\":8117:8121   */\n      dup2\n        /* \"#utility.yul\":8113:8133   */\n      sub\n        /* \"#utility.yul\":8109:8110   */\n      0x00\n        /* \"#utility.yul\":8098:8107   */\n      dup4\n        /* \"#utility.yul\":8094:8111   */\n      add\n        /* \"#utility.yul\":8087:8134   */\n      mstore\n        /* \"#utility.yul\":8151:8282   */\n      tag_232\n        /* \"#utility.yul\":8277:8281   */\n      dup2\n        /* \"#utility.yul\":8151:8282   */\n      tag_185\n      jump\t// in\n    tag_232:\n        /* \"#utility.yul\":8143:8282   */\n      swap1\n      pop\n        /* \"#utility.yul\":7870:8289   */\n      swap2\n      swap1\n      pop\n      jump\t// out\n        /* \"#utility.yul\":8295:8714   */\n    tag_98:\n        /* \"#utility.yul\":8461:8465   */\n      0x00\n        /* \"#utility.yul\":8499:8501   */\n      0x20\n        /* \"#utility.yul\":8488:8497   */\n      dup3\n        /* \"#utility.yul\":8484:8502   */\n      add\n        /* \"#utility.yul\":8476:8502   */\n      swap1\n      pop\n        /* \"#utility.yul\":8548:8557   */\n      dup2\n        /* \"#utility.yul\":8542:8546   */\n      dup2\n        /* \"#utility.yul\":8538:8558   */\n      sub\n        /* \"#utility.yul\":8534:8535   */\n      0x00\n        /* \"#utility.yul\":8523:8532   */\n      dup4\n        /* \"#utility.yul\":8519:8536   */\n      add\n        /* \"#utility.yul\":8512:8559   */\n      mstore\n        /* \"#utility.yul\":8576:8707   */\n      tag_234\n        /* \"#utility.yul\":8702:8706   */\n      dup2\n        /* \"#utility.yul\":8576:8707   */\n      tag_190\n      jump\t// in\n    tag_234:\n        /* \"#utility.yul\":8568:8707   */\n      swap1\n      pop\n        /* \"#utility.yul\":8295:8714   */\n      swap2\n      swap1\n      pop\n      jump\t// out\n        /* \"#utility.yul\":8720:9139   */\n    tag_122:\n        /* \"#utility.yul\":8886:8890   */\n      0x00\n        /* \"#utility.yul\":8924:8926   */\n      0x20\n        /* \"#utility.yul\":8913:8922   */\n      dup3\n        /* \"#utility.yul\":8909:8927   */\n      add\n        /* \"#utility.yul\":8901:8927   */\n      swap1\n      pop\n        /* \"#utility.yul\":8973:8982   */\n      dup2\n        /* \"#utility.yul\":8967:8971   */\n      dup2\n        /* \"#utility.yul\":8963:8983   */\n      sub\n        /* \"#utility.yul\":8959:8960   */\n      0x00\n        /* \"#utility.yul\":8948:8957   */\n      dup4\n        /* \"#utility.yul\":8944:8961   */\n      add\n        /* \"#utility.yul\":8937:8984   */\n      mstore\n        /* \"#utility.yul\":9001:9132   */\n      tag_236\n        /* \"#utility.yul\":9127:9131   */\n      dup2\n        /* \"#utility.yul\":9001:9132   */\n      tag_195\n      jump\t// in\n    tag_236:\n        /* \"#utility.yul\":8993:9132   */\n      swap1\n      pop\n        /* \"#utility.yul\":8720:9139   */\n      swap2\n      swap1\n      pop\n      jump\t// out\n        /* \"#utility.yul\":9145:9564   */\n    tag_114:\n        /* \"#utility.yul\":9311:9315   */\n      0x00\n        /* \"#utility.yul\":9349:9351   */\n      0x20\n        /* \"#utility.yul\":9338:9347   */\n      dup3\n        /* \"#utility.yul\":9334:9352   */\n      add\n        /* \"#utility.yul\":9326:9352   */\n      swap1\n      pop\n        /* \"#utility.yul\":9398:9407   */\n      dup2\n        /* \"#utility.yul\":9392:9396   */\n      dup2\n        /* \"#utility.yul\":9388:9408   */\n      sub\n        /* \"#utility.yul\":9384:9385   */\n      0x00\n        /* \"#utility.yul\":9373:9382   */\n      dup4\n        /* \"#utility.yul\":9369:9386   */\n      add\n        /* \"#utility.yul\":9362:9409   */\n      mstore\n        /* \"#utility.yul\":9426:9557   */\n      tag_238\n        /* \"#utility.yul\":9552:9556   */\n      dup2\n        /* \"#utility.yul\":9426:9557   */\n      tag_200\n      jump\t// in\n    tag_238:\n        /* \"#utility.yul\":9418:9557   */\n      swap1\n      pop\n        /* \"#utility.yul\":9145:9564   */\n      swap2\n      swap1\n      pop\n      jump\t// out\n        /* \"#utility.yul\":9570:9792   */\n    tag_22:\n        /* \"#utility.yul\":9663:9667   */\n      0x00\n        /* \"#utility.yul\":9701:9703   */\n      0x20\n        /* \"#utility.yul\":9690:9699   */\n      dup3\n        /* \"#utility.yul\":9686:9704   */\n      add\n        /* \"#utility.yul\":9678:9704   */\n      swap1\n      pop\n        /* \"#utility.yul\":9714:9785   */\n      tag_240\n        /* \"#utility.yul\":9782:9783   */\n      0x00\n        /* \"#utility.yul\":9771:9780   */\n      dup4\n        /* \"#utility.yul\":9767:9784   */\n      add\n        /* \"#utility.yul\":9758:9764   */\n      dup5\n        /* \"#utility.yul\":9714:9785   */\n      tag_205\n      jump\t// in\n    tag_240:\n        /* \"#utility.yul\":9570:9792   */\n      swap3\n      swap2\n      pop\n      pop\n      jump\t// out\n        /* \"#utility.yul\":9879:9978   */\n    tag_173:\n        /* \"#utility.yul\":9931:9937   */\n      0x00\n        /* \"#utility.yul\":9965:9970   */\n      dup2\n        /* \"#utility.yul\":9959:9971   */\n      mload\n        /* \"#utility.yul\":9949:9971   */\n      swap1\n      pop\n        /* \"#utility.yul\":9879:9978   */\n      swap2\n      swap1\n      pop\n      jump\t// out\n        /* \"#utility.yul\":9984:10153   */\n    tag_175:\n        /* \"#utility.yul\":10068:10079   */\n      0x00\n        /* \"#utility.yul\":10102:10108   */\n      dup3\n        /* \"#utility.yul\":10097:10100   */\n      dup3\n        /* \"#utility.yul\":10090:10109   */\n      mstore\n        /* \"#utility.yul\":10142:10146   */\n      0x20\n        /* \"#utility.yul\":10137:10140   */\n      dup3\n        /* \"#utility.yul\":10133:10147   */\n      add\n        /* \"#utility.yul\":10118:10147   */\n      swap1\n      pop\n        /* \"#utility.yul\":9984:10153   */\n      swap3\n      swap2\n      pop\n      pop\n      jump\t// out\n        /* \"#utility.yul\":10159:10344   */\n    tag_73:\n        /* \"#utility.yul\":10199:10200   */\n      0x00\n        /* \"#utility.yul\":10216:10236   */\n      tag_246\n        /* \"#utility.yul\":10234:10235   */\n      dup3\n        /* \"#utility.yul\":10216:10236   */\n      tag_208\n      jump\t// in\n    tag_246:\n        /* \"#utility.yul\":10211:10236   */\n      swap2\n      pop\n        /* \"#utility.yul\":10250:10270   */\n      tag_247\n        /* \"#utility.yul\":10268:10269   */\n      dup4\n        /* \"#utility.yul\":10250:10270   */\n      tag_208\n      jump\t// in\n    tag_247:\n        /* \"#utility.yul\":10245:10270   */\n      swap3\n      pop\n        /* \"#utility.yul\":10289:10290   */\n      dup3\n        /* \"#utility.yul\":10279:10314   */\n      tag_248\n      jumpi\n        /* \"#utility.yul\":10294:10312   */\n      tag_249\n      tag_250\n      jump\t// in\n    tag_249:\n        /* \"#utility.yul\":10279:10314   */\n    tag_248:\n        /* \"#utility.yul\":10336:10337   */\n      dup3\n        /* \"#utility.yul\":10333:10334   */\n      dup3\n        /* \"#utility.yul\":10329:10338   */\n      div\n        /* \"#utility.yul\":10324:10338   */\n      swap1\n      pop\n        /* \"#utility.yul\":10159:10344   */\n      swap3\n      swap2\n      pop\n      pop\n      jump\t// out\n        /* \"#utility.yul\":10350:10698   */\n    tag_90:\n        /* \"#utility.yul\":10390:10397   */\n      0x00\n        /* \"#utility.yul\":10413:10433   */\n      tag_252\n        /* \"#utility.yul\":10431:10432   */\n      dup3\n        /* \"#utility.yul\":10413:10433   */\n      tag_208\n      jump\t// in\n    tag_252:\n        /* \"#utility.yul\":10408:10433   */\n      swap2\n      pop\n        /* \"#utility.yul\":10447:10467   */\n      tag_253\n        /* \"#utility.yul\":10465:10466   */\n      dup4\n        /* \"#utility.yul\":10447:10467   */\n      tag_208\n      jump\t// in\n    tag_253:\n        /* \"#utility.yul\":10442:10467   */\n      swap3\n      pop\n        /* \"#utility.yul\":10635:10636   */\n      dup2\n        /* \"#utility.yul\":10567:10633   */\n      0xffffffffffffffffffffffffffffffffffffffffffffffffffffffffffffffff\n        /* \"#utility.yul\":10563:10637   */\n      div\n        /* \"#utility.yul\":10560:10561   */\n      dup4\n        /* \"#utility.yul\":10557:10638   */\n      gt\n        /* \"#utility.yul\":10552:10553   */\n      dup3\n        /* \"#utility.yul\":10545:10554   */\n      iszero\n        /* \"#utility.yul\":10538:10555   */\n      iszero\n        /* \"#utility.yul\":10534:10639   */\n      and\n        /* \"#utility.yul\":10531:10662   */\n      iszero\n      tag_254\n      jumpi\n        /* \"#utility.yul\":10642:10660   */\n      tag_255\n      tag_256\n      jump\t// in\n    tag_255:\n        /* \"#utility.yul\":10531:10662   */\n    tag_254:\n        /* \"#utility.yul\":10690:10691   */\n      dup3\n        /* \"#utility.yul\":10687:10688   */\n      dup3\n        /* \"#utility.yul\":10683:10692   */\n      mul\n        /* \"#utility.yul\":10672:10692   */\n      swap1\n      pop\n        /* \"#utility.yul\":10350:10698   */\n      swap3\n      swap2\n      pop\n      pop\n      jump\t// out\n        /* \"#utility.yul\":10704:10800   */\n    tag_161:\n        /* \"#utility.yul\":10741:10748   */\n      0x00\n        /* \"#utility.yul\":10770:10794   */\n      tag_258\n        /* \"#utility.yul\":10788:10793   */\n      dup3\n        /* \"#utility.yul\":10770:10794   */\n      tag_259\n      jump\t// in\n    tag_258:\n        /* \"#utility.yul\":10759:10794   */\n      swap1\n      pop\n        /* \"#utility.yul\":10704:10800   */\n      swap2\n      swap1\n      pop\n      jump\t// out\n        /* \"#utility.yul\":10806:10896   */\n    tag_260:\n        /* \"#utility.yul\":10840:10847   */\n      0x00\n        /* \"#utility.yul\":10883:10888   */\n      dup2\n        /* \"#utility.yul\":10876:10889   */\n      iszero\n        /* \"#utility.yul\":10869:10890   */\n      iszero\n        /* \"#utility.yul\":10858:10890   */\n      swap1\n      pop\n        /* \"#utility.yul\":10806:10896   */\n      swap2\n      swap1\n      pop\n      jump\t// out\n        /* \"#utility.yul\":10902:11028   */\n    tag_259:\n        /* \"#utility.yul\":10939:10946   */\n      0x00\n        /* \"#utility.yul\":10979:11021   */\n      0xffffffffffffffffffffffffffffffffffffffff\n        /* \"#utility.yul\":10972:10977   */\n      dup3\n        /* \"#utility.yul\":10968:11022   */\n      and\n        /* \"#utility.yul\":10957:11022   */\n      swap1\n      pop\n        /* \"#utility.yul\":10902:11028   */\n      swap2\n      swap1\n      pop\n      jump\t// out\n        /* \"#utility.yul\":11034:11111   */\n    tag_208:\n        /* \"#utility.yul\":11071:11078   */\n      0x00\n        /* \"#utility.yul\":11100:11105   */\n      dup2\n        /* \"#utility.yul\":11089:11105   */\n      swap1\n      pop\n        /* \"#utility.yul\":11034:11111   */\n      swap2\n      swap1\n      pop\n      jump\t// out\n        /* \"#utility.yul\":11117:11254   */\n    tag_165:\n        /* \"#utility.yul\":11178:11187   */\n      0x00\n        /* \"#utility.yul\":11211:11248   */\n      tag_265\n        /* \"#utility.yul\":11242:11247   */\n      dup3\n        /* \"#utility.yul\":11211:11248   */\n      tag_266\n      jump\t// in\n    tag_265:\n        /* \"#utility.yul\":11198:11248   */\n      swap1\n      pop\n        /* \"#utility.yul\":11117:11254   */\n      swap2\n      swap1\n      pop\n      jump\t// out\n        /* \"#utility.yul\":11260:11397   */\n    tag_169:\n        /* \"#utility.yul\":11321:11330   */\n      0x00\n        /* \"#utility.yul\":11354:11391   */\n      tag_268\n        /* \"#utility.yul\":11385:11390   */\n      dup3\n        /* \"#utility.yul\":11354:11391   */\n      tag_266\n      jump\t// in\n    tag_268:\n        /* \"#utility.yul\":11341:11391   */\n      swap1\n      pop\n        /* \"#utility.yul\":11260:11397   */\n      swap2\n      swap1\n      pop\n      jump\t// out\n        /* \"#utility.yul\":11403:11529   */\n    tag_266:\n        /* \"#utility.yul\":11453:11462   */\n      0x00\n        /* \"#utility.yul\":11486:11523   */\n      tag_270\n        /* \"#utility.yul\":11517:11522   */\n      dup3\n        /* \"#utility.yul\":11486:11523   */\n      tag_271\n      jump\t// in\n    tag_270:\n        /* \"#utility.yul\":11473:11523   */\n      swap1\n      pop\n        /* \"#utility.yul\":11403:11529   */\n      swap2\n      swap1\n      pop\n      jump\t// out\n        /* \"#utility.yul\":11535:11648   */\n    tag_271:\n        /* \"#utility.yul\":11585:11594   */\n      0x00\n        /* \"#utility.yul\":11618:11642   */\n      tag_273\n        /* \"#utility.yul\":11636:11641   */\n      dup3\n        /* \"#utility.yul\":11618:11642   */\n      tag_259\n      jump\t// in\n    tag_273:\n        /* \"#utility.yul\":11605:11642   */\n      swap1\n      pop\n        /* \"#utility.yul\":11535:11648   */\n      swap2\n      swap1\n      pop\n      jump\t// out\n        /* \"#utility.yul\":11654:11961   */\n    tag_177:\n        /* \"#utility.yul\":11722:11723   */\n      0x00\n        /* \"#utility.yul\":11732:11845   */\n    tag_275:\n        /* \"#utility.yul\":11746:11752   */\n      dup4\n        /* \"#utility.yul\":11743:11744   */\n      dup2\n        /* \"#utility.yul\":11740:11753   */\n      lt\n        /* \"#utility.yul\":11732:11845   */\n      iszero\n      tag_277\n      jumpi\n        /* \"#utility.yul\":11831:11832   */\n      dup1\n        /* \"#utility.yul\":11826:11829   */\n      dup3\n        /* \"#utility.yul\":11822:11833   */\n      add\n        /* \"#utility.yul\":11816:11834   */\n      mload\n        /* \"#utility.yul\":11812:11813   */\n      dup2\n        /* \"#utility.yul\":11807:11810   */\n      dup5\n        /* \"#utility.yul\":11803:11814   */\n      add\n        /* \"#utility.yul\":11796:11835   */\n      mstore\n        /* \"#utility.yul\":11768:11770   */\n      0x20\n        /* \"#utility.yul\":11765:11766   */\n      dup2\n        /* \"#utility.yul\":11761:11771   */\n      add\n        /* \"#utility.yul\":11756:11771   */\n      swap1\n      pop\n        /* \"#utility.yul\":11732:11845   */\n      jump(tag_275)\n    tag_277:\n        /* \"#utility.yul\":11863:11869   */\n      dup4\n        /* \"#utility.yul\":11860:11861   */\n      dup2\n        /* \"#utility.yul\":11857:11870   */\n      gt\n        /* \"#utility.yul\":11854:11955   */\n      iszero\n      tag_278\n      jumpi\n        /* \"#utility.yul\":11943:11944   */\n      0x00\n        /* \"#utility.yul\":11934:11940   */\n      dup5\n        /* \"#utility.yul\":11929:11932   */\n      dup5\n        /* \"#utility.yul\":11925:11941   */\n      add\n        /* \"#utility.yul\":11918:11945   */\n      mstore\n        /* \"#utility.yul\":11854:11955   */\n    tag_278:\n        /* \"#utility.yul\":11703:11961   */\n      pop\n        /* \"#utility.yul\":11654:11961   */\n      pop\n      pop\n      pop\n      jump\t// out\n        /* \"#utility.yul\":11967:12287   */\n    tag_56:\n        /* \"#utility.yul\":12011:12017   */\n      0x00\n        /* \"#utility.yul\":12048:12049   */\n      0x02\n        /* \"#utility.yul\":12042:12046   */\n      dup3\n        /* \"#utility.yul\":12038:12050   */\n      div\n        /* \"#utility.yul\":12028:12050   */\n      swap1\n      pop\n        /* \"#utility.yul\":12095:12096   */\n      0x01\n        /* \"#utility.yul\":12089:12093   */\n      dup3\n        /* \"#utility.yul\":12085:12097   */\n      and\n        /* \"#utility.yul\":12116:12134   */\n      dup1\n        /* \"#utility.yul\":12106:12187   */\n      tag_280\n      jumpi\n        /* \"#utility.yul\":12172:12176   */\n      0x7f\n        /* \"#utility.yul\":12164:12170   */\n      dup3\n        /* \"#utility.yul\":12160:12177   */\n      and\n        /* \"#utility.yul\":12150:12177   */\n      swap2\n      pop\n        /* \"#utility.yul\":12106:12187   */\n    tag_280:\n        /* \"#utility.yul\":12234:12236   */\n      0x20\n        /* \"#utility.yul\":12226:12232   */\n      dup3\n        /* \"#utility.yul\":12223:12237   */\n      lt\n        /* \"#utility.yul\":12203:12221   */\n      dup2\n        /* \"#utility.yul\":12200:12238   */\n      eq\n        /* \"#utility.yul\":12197:12281   */\n      iszero\n      tag_281\n      jumpi\n        /* \"#utility.yul\":12253:12271   */\n      tag_282\n      tag_283\n      jump\t// in\n    tag_282:\n        /* \"#utility.yul\":12197:12281   */\n    tag_281:\n        /* \"#utility.yul\":12018:12287   */\n      pop\n        /* \"#utility.yul\":11967:12287   */\n      swap2\n      swap1\n      pop\n      jump\t// out\n        /* \"#utility.yul\":12293:12473   */\n    tag_256:\n        /* \"#utility.yul\":12341:12418   */\n      0x4e487b7100000000000000000000000000000000000000000000000000000000\n        /* \"#utility.yul\":12338:12339   */\n      0x00\n        /* \"#utility.yul\":12331:12419   */\n      mstore\n        /* \"#utility.yul\":12438:12442   */\n      0x11\n        /* \"#utility.yul\":12435:12436   */\n      0x04\n        /* \"#utility.yul\":12428:12443   */\n      mstore\n        /* \"#utility.yul\":12462:12466   */\n      0x24\n        /* \"#utility.yul\":12459:12460   */\n      0x00\n        /* \"#utility.yul\":12452:12467   */\n      revert\n        /* \"#utility.yul\":12479:12659   */\n    tag_250:\n        /* \"#utility.yul\":12527:12604   */\n      0x4e487b7100000000000000000000000000000000000000000000000000000000\n        /* \"#utility.yul\":12524:12525   */\n      0x00\n        /* \"#utility.yul\":12517:12605   */\n      mstore\n        /* \"#utility.yul\":12624:12628   */\n      0x12\n        /* \"#utility.yul\":12621:12622   */\n      0x04\n        /* \"#utility.yul\":12614:12629   */\n      mstore\n        /* \"#utility.yul\":12648:12652   */\n      0x24\n        /* \"#utility.yul\":12645:12646   */\n      0x00\n        /* \"#utility.yul\":12638:12653   */\n      revert\n        /* \"#utility.yul\":12665:12845   */\n    tag_283:\n        /* \"#utility.yul\":12713:12790   */\n      0x4e487b7100000000000000000000000000000000000000000000000000000000\n        /* \"#utility.yul\":12710:12711   */\n      0x00\n        /* \"#utility.yul\":12703:12791   */\n      mstore\n        /* \"#utility.yul\":12810:12814   */\n      0x22\n        /* \"#utility.yul\":12807:12808   */\n      0x04\n        /* \"#utility.yul\":12800:12815   */\n      mstore\n        /* \"#utility.yul\":12834:12838   */\n      0x24\n        /* \"#utility.yul\":12831:12832   */\n      0x00\n        /* \"#utility.yul\":12824:12839   */\n      revert\n        /* \"#utility.yul\":12974:13091   */\n    tag_142:\n        /* \"#utility.yul\":13083:13084   */\n      0x00\n        /* \"#utility.yul\":13080:13081   */\n      dup1\n        /* \"#utility.yul\":13073:13085   */\n      revert\n        /* \"#utility.yul\":13097:13199   */\n    tag_179:\n        /* \"#utility.yul\":13138:13144   */\n      0x00\n        /* \"#utility.yul\":13189:13191   */\n      0x1f\n        /* \"#utility.yul\":13185:13192   */\n      not\n        /* \"#utility.yul\":13180:13182   */\n      0x1f\n        /* \"#utility.yul\":13173:13178   */\n      dup4\n        /* \"#utility.yul\":13169:13183   */\n      add\n        /* \"#utility.yul\":13165:13193   */\n      and\n        /* \"#utility.yul\":13155:13193   */\n      swap1\n      pop\n        /* \"#utility.yul\":13097:13199   */\n      swap2\n      swap1\n      pop\n      jump\t// out\n        /* \"#utility.yul\":13205:13447   */\n    tag_184:\n        /* \"#utility.yul\":13345:13379   */\n      0x5377617020636f6e747261637420646f6573206e6f74206861766520656e6f75\n        /* \"#utility.yul\":13341:13342   */\n      0x00\n        /* \"#utility.yul\":13333:13339   */\n      dup3\n        /* \"#utility.yul\":13329:13343   */\n      add\n        /* \"#utility.yul\":13322:13380   */\n      mstore\n        /* \"#utility.yul\":13414:13439   */\n      0x676820617661696c61626c652045544820616d6f756e74000000000000000000\n        /* \"#utility.yul\":13409:13411   */\n      0x20\n        /* \"#utility.yul\":13401:13407   */\n      dup3\n        /* \"#utility.yul\":13397:13412   */\n      add\n        /* \"#utility.yul\":13390:13440   */\n      mstore\n        /* \"#utility.yul\":13205:13447   */\n      pop\n      jump\t// out\n        /* \"#utility.yul\":13453:13692   */\n    tag_189:\n        /* \"#utility.yul\":13593:13627   */\n      0x596f752063616e206e6f742073656c6c206d6f726520746f6b656e7320746861\n        /* \"#utility.yul\":13589:13590   */\n      0x00\n        /* \"#utility.yul\":13581:13587   */\n      dup3\n        /* \"#utility.yul\":13577:13591   */\n      add\n        /* \"#utility.yul\":13570:13628   */\n      mstore\n        /* \"#utility.yul\":13662:13684   */\n      0x6e20796f752063757272656e746c7920686f6c64000000000000000000000000\n        /* \"#utility.yul\":13657:13659   */\n      0x20\n        /* \"#utility.yul\":13649:13655   */\n      dup3\n        /* \"#utility.yul\":13645:13660   */\n      add\n        /* \"#utility.yul\":13638:13685   */\n      mstore\n        /* \"#utility.yul\":13453:13692   */\n      pop\n      jump\t// out\n        /* \"#utility.yul\":13698:13879   */\n    tag_194:\n        /* \"#utility.yul\":13838:13871   */\n      0x4e6f7420656e6f75676820435a4820617661696c61626c6520746f2062757900\n        /* \"#utility.yul\":13834:13835   */\n      0x00\n        /* \"#utility.yul\":13826:13832   */\n      dup3\n        /* \"#utility.yul\":13822:13836   */\n      add\n        /* \"#utility.yul\":13815:13872   */\n      mstore\n        /* \"#utility.yul\":13698:13879   */\n      pop\n      jump\t// out\n        /* \"#utility.yul\":13885:14062   */\n    tag_199:\n        /* \"#utility.yul\":14025:14054   */\n      0x4e6f7420656e6f7567682066756e6473206f6e20457468537761700000000000\n        /* \"#utility.yul\":14021:14022   */\n      0x00\n        /* \"#utility.yul\":14013:14019   */\n      dup3\n        /* \"#utility.yul\":14009:14023   */\n      add\n        /* \"#utility.yul\":14002:14055   */\n      mstore\n        /* \"#utility.yul\":13885:14062   */\n      pop\n      jump\t// out\n        /* \"#utility.yul\":14068:14242   */\n    tag_204:\n        /* \"#utility.yul\":14208:14234   */\n      0x4e6f7420656e6f7567682066756e647320746f20737761700000000000000000\n        /* \"#utility.yul\":14204:14205   */\n      0x00\n        /* \"#utility.yul\":14196:14202   */\n      dup3\n        /* \"#utility.yul\":14192:14206   */\n      add\n        /* \"#utility.yul\":14185:14235   */\n      mstore\n        /* \"#utility.yul\":14068:14242   */\n      pop\n      jump\t// out\n        /* \"#utility.yul\":14248:14370   */\n    tag_127:\n        /* \"#utility.yul\":14321:14345   */\n      tag_297\n        /* \"#utility.yul\":14339:14344   */\n      dup2\n        /* \"#utility.yul\":14321:14345   */\n      tag_161\n      jump\t// in\n    tag_297:\n        /* \"#utility.yul\":14314:14319   */\n      dup2\n        /* \"#utility.yul\":14311:14346   */\n      eq\n        /* \"#utility.yul\":14301:14364   */\n      tag_298\n      jumpi\n        /* \"#utility.yul\":14360:14361   */\n      0x00\n        /* \"#utility.yul\":14357:14358   */\n      dup1\n        /* \"#utility.yul\":14350:14362   */\n      revert\n        /* \"#utility.yul\":14301:14364   */\n    tag_298:\n        /* \"#utility.yul\":14248:14370   */\n      pop\n      jump\t// out\n        /* \"#utility.yul\":14376:14492   */\n    tag_131:\n        /* \"#utility.yul\":14446:14467   */\n      tag_300\n        /* \"#utility.yul\":14461:14466   */\n      dup2\n        /* \"#utility.yul\":14446:14467   */\n      tag_260\n      jump\t// in\n    tag_300:\n        /* \"#utility.yul\":14439:14444   */\n      dup2\n        /* \"#utility.yul\":14436:14468   */\n      eq\n        /* \"#utility.yul\":14426:14486   */\n      tag_301\n      jumpi\n        /* \"#utility.yul\":14482:14483   */\n      0x00\n        /* \"#utility.yul\":14479:14480   */\n      dup1\n        /* \"#utility.yul\":14472:14484   */\n      revert\n        /* \"#utility.yul\":14426:14486   */\n    tag_301:\n        /* \"#utility.yul\":14376:14492   */\n      pop\n      jump\t// out\n        /* \"#utility.yul\":14498:14620   */\n    tag_135:\n        /* \"#utility.yul\":14571:14595   */\n      tag_303\n        /* \"#utility.yul\":14589:14594   */\n      dup2\n        /* \"#utility.yul\":14571:14595   */\n      tag_208\n      jump\t// in\n    tag_303:\n        /* \"#utility.yul\":14564:14569   */\n      dup2\n        /* \"#utility.yul\":14561:14596   */\n      eq\n        /* \"#utility.yul\":14551:14614   */\n      tag_304\n      jumpi\n        /* \"#utility.yul\":14610:14611   */\n      0x00\n        /* \"#utility.yul\":14607:14608   */\n      dup1\n        /* \"#utility.yul\":14600:14612   */\n      revert\n        /* \"#utility.yul\":14551:14614   */\n    tag_304:\n        /* \"#utility.yul\":14498:14620   */\n      pop\n      jump\t// out\n\n    auxdata: 0xa2646970667358221220b5eb1aa6d5e2089182e1afe107fd52604a8fe8425fa6fd7ba513d42ea76bb20264736f6c63430008070033\n}\n",
				"bytecode": {
					"linkReferences": {},
					"object": "60806040526040518060400160405280601a81526020017f457468207377617020706c6174666f726d20636f6e7472616374000000000000815250600090805190602001906200005192919062000287565b506064600355600a6004553480156200006957600080fd5b506040516200169a3803806200169a83398181016040528101906200008f91906200037c565b81600160006101000a81548173ffffffffffffffffffffffffffffffffffffffff021916908373ffffffffffffffffffffffffffffffffffffffff16021790555080600260006101000a81548173ffffffffffffffffffffffffffffffffffffffff021916908373ffffffffffffffffffffffffffffffffffffffff160217905550600160009054906101000a900473ffffffffffffffffffffffffffffffffffffffff1673ffffffffffffffffffffffffffffffffffffffff166370a08231306040518263ffffffff1660e01b81526004016200016e919062000406565b60206040518083038186803b1580156200018757600080fd5b505afa1580156200019c573d6000803e3d6000fd5b505050506040513d601f19601f82011682018060405250810190620001c29190620003c3565b600581905550600260009054906101000a900473ffffffffffffffffffffffffffffffffffffffff1673ffffffffffffffffffffffffffffffffffffffff166370a08231306040518263ffffffff1660e01b815260040162000225919062000406565b60206040518083038186803b1580156200023e57600080fd5b505afa15801562000253573d6000803e3d6000fd5b505050506040513d601f19601f82011682018060405250810190620002799190620003c3565b600681905550505062000541565b828054620002959062000489565b90600052602060002090601f016020900481019282620002b9576000855562000305565b82601f10620002d457805160ff191683800117855562000305565b8280016001018555821562000305579182015b8281111562000304578251825591602001919060010190620002e7565b5b50905062000314919062000318565b5090565b5b808211156200033357600081600090555060010162000319565b5090565b6000815190506200034881620004f3565b92915050565b6000815190506200035f816200050d565b92915050565b600081519050620003768162000527565b92915050565b60008060408385031215620003965762000395620004ee565b5b6000620003a68582860162000337565b9250506020620003b9858286016200034e565b9150509250929050565b600060208284031215620003dc57620003db620004ee565b5b6000620003ec8482850162000365565b91505092915050565b620004008162000423565b82525050565b60006020820190506200041d6000830184620003f5565b92915050565b600062000430826200045f565b9050919050565b6000620004448262000423565b9050919050565b6000620004588262000423565b9050919050565b600073ffffffffffffffffffffffffffffffffffffffff82169050919050565b6000819050919050565b60006002820490506001821680620004a257607f821691505b60208210811415620004b957620004b8620004bf565b5b50919050565b7f4e487b7100000000000000000000000000000000000000000000000000000000600052602260045260246000fd5b600080fd5b620004fe8162000437565b81146200050a57600080fd5b50565b62000518816200044b565b81146200052457600080fd5b50565b62000532816200047f565b81146200053e57600080fd5b50565b61114980620005516000396000f3fe6080604052600436106100915760003560e01c80637cc1478a116100595780637cc1478a1461015e578063848d82eb14610189578063a1e18e1a146101b4578063d0febe4c146101df578063ec6cc0cc146101e957610091565b806306fdde03146100965780631739fef0146100c15780633aa6f8fa146100ec578063662b1af6146101175780636c11bcd314610142575b600080fd5b3480156100a257600080fd5b506100ab610205565b6040516100b89190610c99565b60405180910390f35b3480156100cd57600080fd5b506100d6610293565b6040516100e39190610d5b565b60405180910390f35b3480156100f857600080fd5b50610101610299565b60405161010e9190610d5b565b60405180910390f35b34801561012357600080fd5b5061012c61029f565b6040516101399190610d5b565b60405180910390f35b61015c60048036038101906101579190610a25565b6102a5565b005b34801561016a57600080fd5b50610173610545565b6040516101809190610c63565b60405180910390f35b34801561019557600080fd5b5061019e61056b565b6040516101ab9190610c7e565b60405180910390f35b3480156101c057600080fd5b506101c9610591565b6040516101d69190610d5b565b60405180910390f35b6101e7610597565b005b61020360048036038101906101fe91906109a5565b6107aa565b005b6000805461021290610ee0565b80601f016020809104026020016040519081016040528092919081815260200182805461023e90610ee0565b801561028b5780601f106102605761010080835404028352916020019161028b565b820191906000526020600020905b81548152906001019060200180831161026e57829003601f168201915b505050505081565b60045481565b60055481565b60065481565b80600160009054906101000a900473ffffffffffffffffffffffffffffffffffffffff1673ffffffffffffffffffffffffffffffffffffffff166370a08231336040518263ffffffff1660e01b81526004016103019190610ba3565b60206040518083038186803b15801561031957600080fd5b505afa15801561032d573d6000803e3d6000fd5b505050506040513d601f19601f820116820180604052508101906103519190610a52565b1015610392576040517f08c379a000000000000000000000000000000000000000000000000000000000815260040161038990610cdb565b60405180910390fd5b6000600354826103a29190610d92565b9050804710156103e7576040517f08c379a00000000000000000000000000000000000000000000000000000000081526004016103de90610cbb565b60405180910390fd5b600160009054906101000a900473ffffffffffffffffffffffffffffffffffffffff1673ffffffffffffffffffffffffffffffffffffffff166323b872dd3330856040518463ffffffff1660e01b815260040161044693929190610bbe565b602060405180830381600087803b15801561046057600080fd5b505af1158015610474573d6000803e3d6000fd5b505050506040513d601f19601f8201168201806040525081019061049891906109f8565b503373ffffffffffffffffffffffffffffffffffffffff166108fc829081150290604051600060405180830381858888f193505050501580156104df573d6000803e3d6000fd5b507f697c42d55a5e1fed3f464ec6f38b32546a0bd368dc8068b065c67566d73f329033600160009054906101000a900473ffffffffffffffffffffffffffffffffffffffff16846003546040516105399493929190610bf5565b60405180910390a15050565b600160009054906101000a900473ffffffffffffffffffffffffffffffffffffffff1681565b600260009054906101000a900473ffffffffffffffffffffffffffffffffffffffff1681565b60035481565b6000600354346105a79190610dc3565b905080600160009054906101000a900473ffffffffffffffffffffffffffffffffffffffff1673ffffffffffffffffffffffffffffffffffffffff166370a08231306040518263ffffffff1660e01b81526004016106059190610ba3565b60206040518083038186803b15801561061d57600080fd5b505afa158015610631573d6000803e3d6000fd5b505050506040513d601f19601f820116820180604052508101906106559190610a52565b1015610696576040517f08c379a000000000000000000000000000000000000000000000000000000000815260040161068d90610cfb565b60405180910390fd5b600160009054906101000a900473ffffffffffffffffffffffffffffffffffffffff1673ffffffffffffffffffffffffffffffffffffffff1663a9059cbb33836040518363ffffffff1660e01b81526004016106f3929190610c3a565b602060405180830381600087803b15801561070d57600080fd5b505af1158015610721573d6000803e3d6000fd5b505050506040513d601f19601f8201168201806040525081019061074591906109f8565b507f6faf93231a456e552dbc9961f58d9713ee4f2e69d15f1975b050ef0911053a7b33600160009054906101000a900473ffffffffffffffffffffffffffffffffffffffff168360035460405161079f9493929190610bf5565b60405180910390a150565b60008290506000849050828273ffffffffffffffffffffffffffffffffffffffff166370a08231336040518263ffffffff1660e01b81526004016107ee9190610ba3565b60206040518083038186803b15801561080657600080fd5b505afa15801561081a573d6000803e3d6000fd5b505050506040513d601f19601f8201168201806040525081019061083e9190610a52565b111561087f576040517f08c379a000000000000000000000000000000000000000000000000000000000815260040161087690610d3b565b60405180910390fd5b828273ffffffffffffffffffffffffffffffffffffffff166370a08231306040518263ffffffff1660e01b81526004016108b99190610ba3565b60206040518083038186803b1580156108d157600080fd5b505afa1580156108e5573d6000803e3d6000fd5b505050506040513d601f19601f820116820180604052508101906109099190610a52565b111561094a576040517f08c379a000000000000000000000000000000000000000000000000000000000815260040161094190610d1b565b60405180910390fd5b5050505050565b600081359050610960816110ce565b92915050565b600081519050610975816110e5565b92915050565b60008135905061098a816110fc565b92915050565b60008151905061099f816110fc565b92915050565b6000806000606084860312156109be576109bd610f9f565b5b60006109cc86828701610951565b93505060206109dd86828701610951565b92505060406109ee8682870161097b565b9150509250925092565b600060208284031215610a0e57610a0d610f9f565b5b6000610a1c84828501610966565b91505092915050565b600060208284031215610a3b57610a3a610f9f565b5b6000610a498482850161097b565b91505092915050565b600060208284031215610a6857610a67610f9f565b5b6000610a7684828501610990565b91505092915050565b610a8881610e1d565b82525050565b610a9781610e65565b82525050565b610aa681610e77565b82525050565b6000610ab782610d76565b610ac18185610d81565b9350610ad1818560208601610ead565b610ada81610fa4565b840191505092915050565b6000610af2603783610d81565b9150610afd82610fb5565b604082019050919050565b6000610b15603483610d81565b9150610b2082611004565b604082019050919050565b6000610b38601f83610d81565b9150610b4382611053565b602082019050919050565b6000610b5b601b83610d81565b9150610b668261107c565b602082019050919050565b6000610b7e601883610d81565b9150610b89826110a5565b602082019050919050565b610b9d81610e5b565b82525050565b6000602082019050610bb86000830184610a7f565b92915050565b6000606082019050610bd36000830186610a7f565b610be06020830185610a7f565b610bed6040830184610b94565b949350505050565b6000608082019050610c0a6000830187610a7f565b610c176020830186610a7f565b610c246040830185610b94565b610c316060830184610b94565b95945050505050565b6000604082019050610c4f6000830185610a7f565b610c5c6020830184610b94565b9392505050565b6000602082019050610c786000830184610a8e565b92915050565b6000602082019050610c936000830184610a9d565b92915050565b60006020820190508181036000830152610cb38184610aac565b905092915050565b60006020820190508181036000830152610cd481610ae5565b9050919050565b60006020820190508181036000830152610cf481610b08565b9050919050565b60006020820190508181036000830152610d1481610b2b565b9050919050565b60006020820190508181036000830152610d3481610b4e565b9050919050565b60006020820190508181036000830152610d5481610b71565b9050919050565b6000602082019050610d706000830184610b94565b92915050565b600081519050919050565b600082825260208201905092915050565b6000610d9d82610e5b565b9150610da883610e5b565b925082610db857610db7610f41565b5b828204905092915050565b6000610dce82610e5b565b9150610dd983610e5b565b9250817fffffffffffffffffffffffffffffffffffffffffffffffffffffffffffffffff0483118215151615610e1257610e11610f12565b5b828202905092915050565b6000610e2882610e3b565b9050919050565b60008115159050919050565b600073ffffffffffffffffffffffffffffffffffffffff82169050919050565b6000819050919050565b6000610e7082610e89565b9050919050565b6000610e8282610e89565b9050919050565b6000610e9482610e9b565b9050919050565b6000610ea682610e3b565b9050919050565b60005b83811015610ecb578082015181840152602081019050610eb0565b83811115610eda576000848401525b50505050565b60006002820490506001821680610ef857607f821691505b60208210811415610f0c57610f0b610f70565b5b50919050565b7f4e487b7100000000000000000000000000000000000000000000000000000000600052601160045260246000fd5b7f4e487b7100000000000000000000000000000000000000000000000000000000600052601260045260246000fd5b7f4e487b7100000000000000000000000000000000000000000000000000000000600052602260045260246000fd5b600080fd5b6000601f19601f8301169050919050565b7f5377617020636f6e747261637420646f6573206e6f74206861766520656e6f7560008201527f676820617661696c61626c652045544820616d6f756e74000000000000000000602082015250565b7f596f752063616e206e6f742073656c6c206d6f726520746f6b656e732074686160008201527f6e20796f752063757272656e746c7920686f6c64000000000000000000000000602082015250565b7f4e6f7420656e6f75676820435a4820617661696c61626c6520746f2062757900600082015250565b7f4e6f7420656e6f7567682066756e6473206f6e20457468537761700000000000600082015250565b7f4e6f7420656e6f7567682066756e647320746f20737761700000000000000000600082015250565b6110d781610e1d565b81146110e257600080fd5b50565b6110ee81610e2f565b81146110f957600080fd5b50565b61110581610e5b565b811461111057600080fd5b5056fea2646970667358221220b5eb1aa6d5e2089182e1afe107fd52604a8fe8425fa6fd7ba513d42ea76bb20264736f6c63430008070033",
					"opcodes": "PUSH1 0x80 PUSH1 0x40 MSTORE PUSH1 0x40 MLOAD DUP1 PUSH1 0x40 ADD PUSH1 0x40 MSTORE DUP1 PUSH1 0x1A DUP2 MSTORE PUSH1 0x20 ADD PUSH32 0x457468207377617020706C6174666F726D20636F6E7472616374000000000000 DUP2 MSTORE POP PUSH1 0x0 SWAP1 DUP1 MLOAD SWAP1 PUSH1 0x20 ADD SWAP1 PUSH3 0x51 SWAP3 SWAP2 SWAP1 PUSH3 0x287 JUMP JUMPDEST POP PUSH1 0x64 PUSH1 0x3 SSTORE PUSH1 0xA PUSH1 0x4 SSTORE CALLVALUE DUP1 ISZERO PUSH3 0x69 JUMPI PUSH1 0x0 DUP1 REVERT JUMPDEST POP PUSH1 0x40 MLOAD PUSH3 0x169A CODESIZE SUB DUP1 PUSH3 0x169A DUP4 CODECOPY DUP2 DUP2 ADD PUSH1 0x40 MSTORE DUP2 ADD SWAP1 PUSH3 0x8F SWAP2 SWAP1 PUSH3 0x37C JUMP JUMPDEST DUP2 PUSH1 0x1 PUSH1 0x0 PUSH2 0x100 EXP DUP2 SLOAD DUP2 PUSH20 0xFFFFFFFFFFFFFFFFFFFFFFFFFFFFFFFFFFFFFFFF MUL NOT AND SWAP1 DUP4 PUSH20 0xFFFFFFFFFFFFFFFFFFFFFFFFFFFFFFFFFFFFFFFF AND MUL OR SWAP1 SSTORE POP DUP1 PUSH1 0x2 PUSH1 0x0 PUSH2 0x100 EXP DUP2 SLOAD DUP2 PUSH20 0xFFFFFFFFFFFFFFFFFFFFFFFFFFFFFFFFFFFFFFFF MUL NOT AND SWAP1 DUP4 PUSH20 0xFFFFFFFFFFFFFFFFFFFFFFFFFFFFFFFFFFFFFFFF AND MUL OR SWAP1 SSTORE POP PUSH1 0x1 PUSH1 0x0 SWAP1 SLOAD SWAP1 PUSH2 0x100 EXP SWAP1 DIV PUSH20 0xFFFFFFFFFFFFFFFFFFFFFFFFFFFFFFFFFFFFFFFF AND PUSH20 0xFFFFFFFFFFFFFFFFFFFFFFFFFFFFFFFFFFFFFFFF AND PUSH4 0x70A08231 ADDRESS PUSH1 0x40 MLOAD DUP3 PUSH4 0xFFFFFFFF AND PUSH1 0xE0 SHL DUP2 MSTORE PUSH1 0x4 ADD PUSH3 0x16E SWAP2 SWAP1 PUSH3 0x406 JUMP JUMPDEST PUSH1 0x20 PUSH1 0x40 MLOAD DUP1 DUP4 SUB DUP2 DUP7 DUP1 EXTCODESIZE ISZERO DUP1 ISZERO PUSH3 0x187 JUMPI PUSH1 0x0 DUP1 REVERT JUMPDEST POP GAS STATICCALL ISZERO DUP1 ISZERO PUSH3 0x19C JUMPI RETURNDATASIZE PUSH1 0x0 DUP1 RETURNDATACOPY RETURNDATASIZE PUSH1 0x0 REVERT JUMPDEST POP POP POP POP PUSH1 0x40 MLOAD RETURNDATASIZE PUSH1 0x1F NOT PUSH1 0x1F DUP3 ADD AND DUP3 ADD DUP1 PUSH1 0x40 MSTORE POP DUP2 ADD SWAP1 PUSH3 0x1C2 SWAP2 SWAP1 PUSH3 0x3C3 JUMP JUMPDEST PUSH1 0x5 DUP2 SWAP1 SSTORE POP PUSH1 0x2 PUSH1 0x0 SWAP1 SLOAD SWAP1 PUSH2 0x100 EXP SWAP1 DIV PUSH20 0xFFFFFFFFFFFFFFFFFFFFFFFFFFFFFFFFFFFFFFFF AND PUSH20 0xFFFFFFFFFFFFFFFFFFFFFFFFFFFFFFFFFFFFFFFF AND PUSH4 0x70A08231 ADDRESS PUSH1 0x40 MLOAD DUP3 PUSH4 0xFFFFFFFF AND PUSH1 0xE0 SHL DUP2 MSTORE PUSH1 0x4 ADD PUSH3 0x225 SWAP2 SWAP1 PUSH3 0x406 JUMP JUMPDEST PUSH1 0x20 PUSH1 0x40 MLOAD DUP1 DUP4 SUB DUP2 DUP7 DUP1 EXTCODESIZE ISZERO DUP1 ISZERO PUSH3 0x23E JUMPI PUSH1 0x0 DUP1 REVERT JUMPDEST POP GAS STATICCALL ISZERO DUP1 ISZERO PUSH3 0x253 JUMPI RETURNDATASIZE PUSH1 0x0 DUP1 RETURNDATACOPY RETURNDATASIZE PUSH1 0x0 REVERT JUMPDEST POP POP POP POP PUSH1 0x40 MLOAD RETURNDATASIZE PUSH1 0x1F NOT PUSH1 0x1F DUP3 ADD AND DUP3 ADD DUP1 PUSH1 0x40 MSTORE POP DUP2 ADD SWAP1 PUSH3 0x279 SWAP2 SWAP1 PUSH3 0x3C3 JUMP JUMPDEST PUSH1 0x6 DUP2 SWAP1 SSTORE POP POP POP PUSH3 0x541 JUMP JUMPDEST DUP3 DUP1 SLOAD PUSH3 0x295 SWAP1 PUSH3 0x489 JUMP JUMPDEST SWAP1 PUSH1 0x0 MSTORE PUSH1 0x20 PUSH1 0x0 KECCAK256 SWAP1 PUSH1 0x1F ADD PUSH1 0x20 SWAP1 DIV DUP2 ADD SWAP3 DUP3 PUSH3 0x2B9 JUMPI PUSH1 0x0 DUP6 SSTORE PUSH3 0x305 JUMP JUMPDEST DUP3 PUSH1 0x1F LT PUSH3 0x2D4 JUMPI DUP1 MLOAD PUSH1 0xFF NOT AND DUP4 DUP1 ADD OR DUP6 SSTORE PUSH3 0x305 JUMP JUMPDEST DUP3 DUP1 ADD PUSH1 0x1 ADD DUP6 SSTORE DUP3 ISZERO PUSH3 0x305 JUMPI SWAP2 DUP3 ADD JUMPDEST DUP3 DUP2 GT ISZERO PUSH3 0x304 JUMPI DUP3 MLOAD DUP3 SSTORE SWAP2 PUSH1 0x20 ADD SWAP2 SWAP1 PUSH1 0x1 ADD SWAP1 PUSH3 0x2E7 JUMP JUMPDEST JUMPDEST POP SWAP1 POP PUSH3 0x314 SWAP2 SWAP1 PUSH3 0x318 JUMP JUMPDEST POP SWAP1 JUMP JUMPDEST JUMPDEST DUP1 DUP3 GT ISZERO PUSH3 0x333 JUMPI PUSH1 0x0 DUP2 PUSH1 0x0 SWAP1 SSTORE POP PUSH1 0x1 ADD PUSH3 0x319 JUMP JUMPDEST POP SWAP1 JUMP JUMPDEST PUSH1 0x0 DUP2 MLOAD SWAP1 POP PUSH3 0x348 DUP2 PUSH3 0x4F3 JUMP JUMPDEST SWAP3 SWAP2 POP POP JUMP JUMPDEST PUSH1 0x0 DUP2 MLOAD SWAP1 POP PUSH3 0x35F DUP2 PUSH3 0x50D JUMP JUMPDEST SWAP3 SWAP2 POP POP JUMP JUMPDEST PUSH1 0x0 DUP2 MLOAD SWAP1 POP PUSH3 0x376 DUP2 PUSH3 0x527 JUMP JUMPDEST SWAP3 SWAP2 POP POP JUMP JUMPDEST PUSH1 0x0 DUP1 PUSH1 0x40 DUP4 DUP6 SUB SLT ISZERO PUSH3 0x396 JUMPI PUSH3 0x395 PUSH3 0x4EE JUMP JUMPDEST JUMPDEST PUSH1 0x0 PUSH3 0x3A6 DUP6 DUP3 DUP7 ADD PUSH3 0x337 JUMP JUMPDEST SWAP3 POP POP PUSH1 0x20 PUSH3 0x3B9 DUP6 DUP3 DUP7 ADD PUSH3 0x34E JUMP JUMPDEST SWAP2 POP POP SWAP3 POP SWAP3 SWAP1 POP JUMP JUMPDEST PUSH1 0x0 PUSH1 0x20 DUP3 DUP5 SUB SLT ISZERO PUSH3 0x3DC JUMPI PUSH3 0x3DB PUSH3 0x4EE JUMP JUMPDEST JUMPDEST PUSH1 0x0 PUSH3 0x3EC DUP5 DUP3 DUP6 ADD PUSH3 0x365 JUMP JUMPDEST SWAP2 POP POP SWAP3 SWAP2 POP POP JUMP JUMPDEST PUSH3 0x400 DUP2 PUSH3 0x423 JUMP JUMPDEST DUP3 MSTORE POP POP JUMP JUMPDEST PUSH1 0x0 PUSH1 0x20 DUP3 ADD SWAP1 POP PUSH3 0x41D PUSH1 0x0 DUP4 ADD DUP5 PUSH3 0x3F5 JUMP JUMPDEST SWAP3 SWAP2 POP POP JUMP JUMPDEST PUSH1 0x0 PUSH3 0x430 DUP3 PUSH3 0x45F JUMP JUMPDEST SWAP1 POP SWAP2 SWAP1 POP JUMP JUMPDEST PUSH1 0x0 PUSH3 0x444 DUP3 PUSH3 0x423 JUMP JUMPDEST SWAP1 POP SWAP2 SWAP1 POP JUMP JUMPDEST PUSH1 0x0 PUSH3 0x458 DUP3 PUSH3 0x423 JUMP JUMPDEST SWAP1 POP SWAP2 SWAP1 POP JUMP JUMPDEST PUSH1 0x0 PUSH20 0xFFFFFFFFFFFFFFFFFFFFFFFFFFFFFFFFFFFFFFFF DUP3 AND SWAP1 POP SWAP2 SWAP1 POP JUMP JUMPDEST PUSH1 0x0 DUP2 SWAP1 POP SWAP2 SWAP1 POP JUMP JUMPDEST PUSH1 0x0 PUSH1 0x2 DUP3 DIV SWAP1 POP PUSH1 0x1 DUP3 AND DUP1 PUSH3 0x4A2 JUMPI PUSH1 0x7F DUP3 AND SWAP2 POP JUMPDEST PUSH1 0x20 DUP3 LT DUP2 EQ ISZERO PUSH3 0x4B9 JUMPI PUSH3 0x4B8 PUSH3 0x4BF JUMP JUMPDEST JUMPDEST POP SWAP2 SWAP1 POP JUMP JUMPDEST PUSH32 0x4E487B7100000000000000000000000000000000000000000000000000000000 PUSH1 0x0 MSTORE PUSH1 0x22 PUSH1 0x4 MSTORE PUSH1 0x24 PUSH1 0x0 REVERT JUMPDEST PUSH1 0x0 DUP1 REVERT JUMPDEST PUSH3 0x4FE DUP2 PUSH3 0x437 JUMP JUMPDEST DUP2 EQ PUSH3 0x50A JUMPI PUSH1 0x0 DUP1 REVERT JUMPDEST POP JUMP JUMPDEST PUSH3 0x518 DUP2 PUSH3 0x44B JUMP JUMPDEST DUP2 EQ PUSH3 0x524 JUMPI PUSH1 0x0 DUP1 REVERT JUMPDEST POP JUMP JUMPDEST PUSH3 0x532 DUP2 PUSH3 0x47F JUMP JUMPDEST DUP2 EQ PUSH3 0x53E JUMPI PUSH1 0x0 DUP1 REVERT JUMPDEST POP JUMP JUMPDEST PUSH2 0x1149 DUP1 PUSH3 0x551 PUSH1 0x0 CODECOPY PUSH1 0x0 RETURN INVALID PUSH1 0x80 PUSH1 0x40 MSTORE PUSH1 0x4 CALLDATASIZE LT PUSH2 0x91 JUMPI PUSH1 0x0 CALLDATALOAD PUSH1 0xE0 SHR DUP1 PUSH4 0x7CC1478A GT PUSH2 0x59 JUMPI DUP1 PUSH4 0x7CC1478A EQ PUSH2 0x15E JUMPI DUP1 PUSH4 0x848D82EB EQ PUSH2 0x189 JUMPI DUP1 PUSH4 0xA1E18E1A EQ PUSH2 0x1B4 JUMPI DUP1 PUSH4 0xD0FEBE4C EQ PUSH2 0x1DF JUMPI DUP1 PUSH4 0xEC6CC0CC EQ PUSH2 0x1E9 JUMPI PUSH2 0x91 JUMP JUMPDEST DUP1 PUSH4 0x6FDDE03 EQ PUSH2 0x96 JUMPI DUP1 PUSH4 0x1739FEF0 EQ PUSH2 0xC1 JUMPI DUP1 PUSH4 0x3AA6F8FA EQ PUSH2 0xEC JUMPI DUP1 PUSH4 0x662B1AF6 EQ PUSH2 0x117 JUMPI DUP1 PUSH4 0x6C11BCD3 EQ PUSH2 0x142 JUMPI JUMPDEST PUSH1 0x0 DUP1 REVERT JUMPDEST CALLVALUE DUP1 ISZERO PUSH2 0xA2 JUMPI PUSH1 0x0 DUP1 REVERT JUMPDEST POP PUSH2 0xAB PUSH2 0x205 JUMP JUMPDEST PUSH1 0x40 MLOAD PUSH2 0xB8 SWAP2 SWAP1 PUSH2 0xC99 JUMP JUMPDEST PUSH1 0x40 MLOAD DUP1 SWAP2 SUB SWAP1 RETURN JUMPDEST CALLVALUE DUP1 ISZERO PUSH2 0xCD JUMPI PUSH1 0x0 DUP1 REVERT JUMPDEST POP PUSH2 0xD6 PUSH2 0x293 JUMP JUMPDEST PUSH1 0x40 MLOAD PUSH2 0xE3 SWAP2 SWAP1 PUSH2 0xD5B JUMP JUMPDEST PUSH1 0x40 MLOAD DUP1 SWAP2 SUB SWAP1 RETURN JUMPDEST CALLVALUE DUP1 ISZERO PUSH2 0xF8 JUMPI PUSH1 0x0 DUP1 REVERT JUMPDEST POP PUSH2 0x101 PUSH2 0x299 JUMP JUMPDEST PUSH1 0x40 MLOAD PUSH2 0x10E SWAP2 SWAP1 PUSH2 0xD5B JUMP JUMPDEST PUSH1 0x40 MLOAD DUP1 SWAP2 SUB SWAP1 RETURN JUMPDEST CALLVALUE DUP1 ISZERO PUSH2 0x123 JUMPI PUSH1 0x0 DUP1 REVERT JUMPDEST POP PUSH2 0x12C PUSH2 0x29F JUMP JUMPDEST PUSH1 0x40 MLOAD PUSH2 0x139 SWAP2 SWAP1 PUSH2 0xD5B JUMP JUMPDEST PUSH1 0x40 MLOAD DUP1 SWAP2 SUB SWAP1 RETURN JUMPDEST PUSH2 0x15C PUSH1 0x4 DUP1 CALLDATASIZE SUB DUP2 ADD SWAP1 PUSH2 0x157 SWAP2 SWAP1 PUSH2 0xA25 JUMP JUMPDEST PUSH2 0x2A5 JUMP JUMPDEST STOP JUMPDEST CALLVALUE DUP1 ISZERO PUSH2 0x16A JUMPI PUSH1 0x0 DUP1 REVERT JUMPDEST POP PUSH2 0x173 PUSH2 0x545 JUMP JUMPDEST PUSH1 0x40 MLOAD PUSH2 0x180 SWAP2 SWAP1 PUSH2 0xC63 JUMP JUMPDEST PUSH1 0x40 MLOAD DUP1 SWAP2 SUB SWAP1 RETURN JUMPDEST CALLVALUE DUP1 ISZERO PUSH2 0x195 JUMPI PUSH1 0x0 DUP1 REVERT JUMPDEST POP PUSH2 0x19E PUSH2 0x56B JUMP JUMPDEST PUSH1 0x40 MLOAD PUSH2 0x1AB SWAP2 SWAP1 PUSH2 0xC7E JUMP JUMPDEST PUSH1 0x40 MLOAD DUP1 SWAP2 SUB SWAP1 RETURN JUMPDEST CALLVALUE DUP1 ISZERO PUSH2 0x1C0 JUMPI PUSH1 0x0 DUP1 REVERT JUMPDEST POP PUSH2 0x1C9 PUSH2 0x591 JUMP JUMPDEST PUSH1 0x40 MLOAD PUSH2 0x1D6 SWAP2 SWAP1 PUSH2 0xD5B JUMP JUMPDEST PUSH1 0x40 MLOAD DUP1 SWAP2 SUB SWAP1 RETURN JUMPDEST PUSH2 0x1E7 PUSH2 0x597 JUMP JUMPDEST STOP JUMPDEST PUSH2 0x203 PUSH1 0x4 DUP1 CALLDATASIZE SUB DUP2 ADD SWAP1 PUSH2 0x1FE SWAP2 SWAP1 PUSH2 0x9A5 JUMP JUMPDEST PUSH2 0x7AA JUMP JUMPDEST STOP JUMPDEST PUSH1 0x0 DUP1 SLOAD PUSH2 0x212 SWAP1 PUSH2 0xEE0 JUMP JUMPDEST DUP1 PUSH1 0x1F ADD PUSH1 0x20 DUP1 SWAP2 DIV MUL PUSH1 0x20 ADD PUSH1 0x40 MLOAD SWAP1 DUP2 ADD PUSH1 0x40 MSTORE DUP1 SWAP3 SWAP2 SWAP1 DUP2 DUP2 MSTORE PUSH1 0x20 ADD DUP3 DUP1 SLOAD PUSH2 0x23E SWAP1 PUSH2 0xEE0 JUMP JUMPDEST DUP1 ISZERO PUSH2 0x28B JUMPI DUP1 PUSH1 0x1F LT PUSH2 0x260 JUMPI PUSH2 0x100 DUP1 DUP4 SLOAD DIV MUL DUP4 MSTORE SWAP2 PUSH1 0x20 ADD SWAP2 PUSH2 0x28B JUMP JUMPDEST DUP3 ADD SWAP2 SWAP1 PUSH1 0x0 MSTORE PUSH1 0x20 PUSH1 0x0 KECCAK256 SWAP1 JUMPDEST DUP2 SLOAD DUP2 MSTORE SWAP1 PUSH1 0x1 ADD SWAP1 PUSH1 0x20 ADD DUP1 DUP4 GT PUSH2 0x26E JUMPI DUP3 SWAP1 SUB PUSH1 0x1F AND DUP3 ADD SWAP2 JUMPDEST POP POP POP POP POP DUP2 JUMP JUMPDEST PUSH1 0x4 SLOAD DUP2 JUMP JUMPDEST PUSH1 0x5 SLOAD DUP2 JUMP JUMPDEST PUSH1 0x6 SLOAD DUP2 JUMP JUMPDEST DUP1 PUSH1 0x1 PUSH1 0x0 SWAP1 SLOAD SWAP1 PUSH2 0x100 EXP SWAP1 DIV PUSH20 0xFFFFFFFFFFFFFFFFFFFFFFFFFFFFFFFFFFFFFFFF AND PUSH20 0xFFFFFFFFFFFFFFFFFFFFFFFFFFFFFFFFFFFFFFFF AND PUSH4 0x70A08231 CALLER PUSH1 0x40 MLOAD DUP3 PUSH4 0xFFFFFFFF AND PUSH1 0xE0 SHL DUP2 MSTORE PUSH1 0x4 ADD PUSH2 0x301 SWAP2 SWAP1 PUSH2 0xBA3 JUMP JUMPDEST PUSH1 0x20 PUSH1 0x40 MLOAD DUP1 DUP4 SUB DUP2 DUP7 DUP1 EXTCODESIZE ISZERO DUP1 ISZERO PUSH2 0x319 JUMPI PUSH1 0x0 DUP1 REVERT JUMPDEST POP GAS STATICCALL ISZERO DUP1 ISZERO PUSH2 0x32D JUMPI RETURNDATASIZE PUSH1 0x0 DUP1 RETURNDATACOPY RETURNDATASIZE PUSH1 0x0 REVERT JUMPDEST POP POP POP POP PUSH1 0x40 MLOAD RETURNDATASIZE PUSH1 0x1F NOT PUSH1 0x1F DUP3 ADD AND DUP3 ADD DUP1 PUSH1 0x40 MSTORE POP DUP2 ADD SWAP1 PUSH2 0x351 SWAP2 SWAP1 PUSH2 0xA52 JUMP JUMPDEST LT ISZERO PUSH2 0x392 JUMPI PUSH1 0x40 MLOAD PUSH32 0x8C379A000000000000000000000000000000000000000000000000000000000 DUP2 MSTORE PUSH1 0x4 ADD PUSH2 0x389 SWAP1 PUSH2 0xCDB JUMP JUMPDEST PUSH1 0x40 MLOAD DUP1 SWAP2 SUB SWAP1 REVERT JUMPDEST PUSH1 0x0 PUSH1 0x3 SLOAD DUP3 PUSH2 0x3A2 SWAP2 SWAP1 PUSH2 0xD92 JUMP JUMPDEST SWAP1 POP DUP1 SELFBALANCE LT ISZERO PUSH2 0x3E7 JUMPI PUSH1 0x40 MLOAD PUSH32 0x8C379A000000000000000000000000000000000000000000000000000000000 DUP2 MSTORE PUSH1 0x4 ADD PUSH2 0x3DE SWAP1 PUSH2 0xCBB JUMP JUMPDEST PUSH1 0x40 MLOAD DUP1 SWAP2 SUB SWAP1 REVERT JUMPDEST PUSH1 0x1 PUSH1 0x0 SWAP1 SLOAD SWAP1 PUSH2 0x100 EXP SWAP1 DIV PUSH20 0xFFFFFFFFFFFFFFFFFFFFFFFFFFFFFFFFFFFFFFFF AND PUSH20 0xFFFFFFFFFFFFFFFFFFFFFFFFFFFFFFFFFFFFFFFF AND PUSH4 0x23B872DD CALLER ADDRESS DUP6 PUSH1 0x40 MLOAD DUP5 PUSH4 0xFFFFFFFF AND PUSH1 0xE0 SHL DUP2 MSTORE PUSH1 0x4 ADD PUSH2 0x446 SWAP4 SWAP3 SWAP2 SWAP1 PUSH2 0xBBE JUMP JUMPDEST PUSH1 0x20 PUSH1 0x40 MLOAD DUP1 DUP4 SUB DUP2 PUSH1 0x0 DUP8 DUP1 EXTCODESIZE ISZERO DUP1 ISZERO PUSH2 0x460 JUMPI PUSH1 0x0 DUP1 REVERT JUMPDEST POP GAS CALL ISZERO DUP1 ISZERO PUSH2 0x474 JUMPI RETURNDATASIZE PUSH1 0x0 DUP1 RETURNDATACOPY RETURNDATASIZE PUSH1 0x0 REVERT JUMPDEST POP POP POP POP PUSH1 0x40 MLOAD RETURNDATASIZE PUSH1 0x1F NOT PUSH1 0x1F DUP3 ADD AND DUP3 ADD DUP1 PUSH1 0x40 MSTORE POP DUP2 ADD SWAP1 PUSH2 0x498 SWAP2 SWAP1 PUSH2 0x9F8 JUMP JUMPDEST POP CALLER PUSH20 0xFFFFFFFFFFFFFFFFFFFFFFFFFFFFFFFFFFFFFFFF AND PUSH2 0x8FC DUP3 SWAP1 DUP2 ISZERO MUL SWAP1 PUSH1 0x40 MLOAD PUSH1 0x0 PUSH1 0x40 MLOAD DUP1 DUP4 SUB DUP2 DUP6 DUP9 DUP9 CALL SWAP4 POP POP POP POP ISZERO DUP1 ISZERO PUSH2 0x4DF JUMPI RETURNDATASIZE PUSH1 0x0 DUP1 RETURNDATACOPY RETURNDATASIZE PUSH1 0x0 REVERT JUMPDEST POP PUSH32 0x697C42D55A5E1FED3F464EC6F38B32546A0BD368DC8068B065C67566D73F3290 CALLER PUSH1 0x1 PUSH1 0x0 SWAP1 SLOAD SWAP1 PUSH2 0x100 EXP SWAP1 DIV PUSH20 0xFFFFFFFFFFFFFFFFFFFFFFFFFFFFFFFFFFFFFFFF AND DUP5 PUSH1 0x3 SLOAD PUSH1 0x40 MLOAD PUSH2 0x539 SWAP5 SWAP4 SWAP3 SWAP2 SWAP1 PUSH2 0xBF5 JUMP JUMPDEST PUSH1 0x40 MLOAD DUP1 SWAP2 SUB SWAP1 LOG1 POP POP JUMP JUMPDEST PUSH1 0x1 PUSH1 0x0 SWAP1 SLOAD SWAP1 PUSH2 0x100 EXP SWAP1 DIV PUSH20 0xFFFFFFFFFFFFFFFFFFFFFFFFFFFFFFFFFFFFFFFF AND DUP2 JUMP JUMPDEST PUSH1 0x2 PUSH1 0x0 SWAP1 SLOAD SWAP1 PUSH2 0x100 EXP SWAP1 DIV PUSH20 0xFFFFFFFFFFFFFFFFFFFFFFFFFFFFFFFFFFFFFFFF AND DUP2 JUMP JUMPDEST PUSH1 0x3 SLOAD DUP2 JUMP JUMPDEST PUSH1 0x0 PUSH1 0x3 SLOAD CALLVALUE PUSH2 0x5A7 SWAP2 SWAP1 PUSH2 0xDC3 JUMP JUMPDEST SWAP1 POP DUP1 PUSH1 0x1 PUSH1 0x0 SWAP1 SLOAD SWAP1 PUSH2 0x100 EXP SWAP1 DIV PUSH20 0xFFFFFFFFFFFFFFFFFFFFFFFFFFFFFFFFFFFFFFFF AND PUSH20 0xFFFFFFFFFFFFFFFFFFFFFFFFFFFFFFFFFFFFFFFF AND PUSH4 0x70A08231 ADDRESS PUSH1 0x40 MLOAD DUP3 PUSH4 0xFFFFFFFF AND PUSH1 0xE0 SHL DUP2 MSTORE PUSH1 0x4 ADD PUSH2 0x605 SWAP2 SWAP1 PUSH2 0xBA3 JUMP JUMPDEST PUSH1 0x20 PUSH1 0x40 MLOAD DUP1 DUP4 SUB DUP2 DUP7 DUP1 EXTCODESIZE ISZERO DUP1 ISZERO PUSH2 0x61D JUMPI PUSH1 0x0 DUP1 REVERT JUMPDEST POP GAS STATICCALL ISZERO DUP1 ISZERO PUSH2 0x631 JUMPI RETURNDATASIZE PUSH1 0x0 DUP1 RETURNDATACOPY RETURNDATASIZE PUSH1 0x0 REVERT JUMPDEST POP POP POP POP PUSH1 0x40 MLOAD RETURNDATASIZE PUSH1 0x1F NOT PUSH1 0x1F DUP3 ADD AND DUP3 ADD DUP1 PUSH1 0x40 MSTORE POP DUP2 ADD SWAP1 PUSH2 0x655 SWAP2 SWAP1 PUSH2 0xA52 JUMP JUMPDEST LT ISZERO PUSH2 0x696 JUMPI PUSH1 0x40 MLOAD PUSH32 0x8C379A000000000000000000000000000000000000000000000000000000000 DUP2 MSTORE PUSH1 0x4 ADD PUSH2 0x68D SWAP1 PUSH2 0xCFB JUMP JUMPDEST PUSH1 0x40 MLOAD DUP1 SWAP2 SUB SWAP1 REVERT JUMPDEST PUSH1 0x1 PUSH1 0x0 SWAP1 SLOAD SWAP1 PUSH2 0x100 EXP SWAP1 DIV PUSH20 0xFFFFFFFFFFFFFFFFFFFFFFFFFFFFFFFFFFFFFFFF AND PUSH20 0xFFFFFFFFFFFFFFFFFFFFFFFFFFFFFFFFFFFFFFFF AND PUSH4 0xA9059CBB CALLER DUP4 PUSH1 0x40 MLOAD DUP4 PUSH4 0xFFFFFFFF AND PUSH1 0xE0 SHL DUP2 MSTORE PUSH1 0x4 ADD PUSH2 0x6F3 SWAP3 SWAP2 SWAP1 PUSH2 0xC3A JUMP JUMPDEST PUSH1 0x20 PUSH1 0x40 MLOAD DUP1 DUP4 SUB DUP2 PUSH1 0x0 DUP8 DUP1 EXTCODESIZE ISZERO DUP1 ISZERO PUSH2 0x70D JUMPI PUSH1 0x0 DUP1 REVERT JUMPDEST POP GAS CALL ISZERO DUP1 ISZERO PUSH2 0x721 JUMPI RETURNDATASIZE PUSH1 0x0 DUP1 RETURNDATACOPY RETURNDATASIZE PUSH1 0x0 REVERT JUMPDEST POP POP POP POP PUSH1 0x40 MLOAD RETURNDATASIZE PUSH1 0x1F NOT PUSH1 0x1F DUP3 ADD AND DUP3 ADD DUP1 PUSH1 0x40 MSTORE POP DUP2 ADD SWAP1 PUSH2 0x745 SWAP2 SWAP1 PUSH2 0x9F8 JUMP JUMPDEST POP PUSH32 0x6FAF93231A456E552DBC9961F58D9713EE4F2E69D15F1975B050EF0911053A7B CALLER PUSH1 0x1 PUSH1 0x0 SWAP1 SLOAD SWAP1 PUSH2 0x100 EXP SWAP1 DIV PUSH20 0xFFFFFFFFFFFFFFFFFFFFFFFFFFFFFFFFFFFFFFFF AND DUP4 PUSH1 0x3 SLOAD PUSH1 0x40 MLOAD PUSH2 0x79F SWAP5 SWAP4 SWAP3 SWAP2 SWAP1 PUSH2 0xBF5 JUMP JUMPDEST PUSH1 0x40 MLOAD DUP1 SWAP2 SUB SWAP1 LOG1 POP JUMP JUMPDEST PUSH1 0x0 DUP3 SWAP1 POP PUSH1 0x0 DUP5 SWAP1 POP DUP3 DUP3 PUSH20 0xFFFFFFFFFFFFFFFFFFFFFFFFFFFFFFFFFFFFFFFF AND PUSH4 0x70A08231 CALLER PUSH1 0x40 MLOAD DUP3 PUSH4 0xFFFFFFFF AND PUSH1 0xE0 SHL DUP2 MSTORE PUSH1 0x4 ADD PUSH2 0x7EE SWAP2 SWAP1 PUSH2 0xBA3 JUMP JUMPDEST PUSH1 0x20 PUSH1 0x40 MLOAD DUP1 DUP4 SUB DUP2 DUP7 DUP1 EXTCODESIZE ISZERO DUP1 ISZERO PUSH2 0x806 JUMPI PUSH1 0x0 DUP1 REVERT JUMPDEST POP GAS STATICCALL ISZERO DUP1 ISZERO PUSH2 0x81A JUMPI RETURNDATASIZE PUSH1 0x0 DUP1 RETURNDATACOPY RETURNDATASIZE PUSH1 0x0 REVERT JUMPDEST POP POP POP POP PUSH1 0x40 MLOAD RETURNDATASIZE PUSH1 0x1F NOT PUSH1 0x1F DUP3 ADD AND DUP3 ADD DUP1 PUSH1 0x40 MSTORE POP DUP2 ADD SWAP1 PUSH2 0x83E SWAP2 SWAP1 PUSH2 0xA52 JUMP JUMPDEST GT ISZERO PUSH2 0x87F JUMPI PUSH1 0x40 MLOAD PUSH32 0x8C379A000000000000000000000000000000000000000000000000000000000 DUP2 MSTORE PUSH1 0x4 ADD PUSH2 0x876 SWAP1 PUSH2 0xD3B JUMP JUMPDEST PUSH1 0x40 MLOAD DUP1 SWAP2 SUB SWAP1 REVERT JUMPDEST DUP3 DUP3 PUSH20 0xFFFFFFFFFFFFFFFFFFFFFFFFFFFFFFFFFFFFFFFF AND PUSH4 0x70A08231 ADDRESS PUSH1 0x40 MLOAD DUP3 PUSH4 0xFFFFFFFF AND PUSH1 0xE0 SHL DUP2 MSTORE PUSH1 0x4 ADD PUSH2 0x8B9 SWAP2 SWAP1 PUSH2 0xBA3 JUMP JUMPDEST PUSH1 0x20 PUSH1 0x40 MLOAD DUP1 DUP4 SUB DUP2 DUP7 DUP1 EXTCODESIZE ISZERO DUP1 ISZERO PUSH2 0x8D1 JUMPI PUSH1 0x0 DUP1 REVERT JUMPDEST POP GAS STATICCALL ISZERO DUP1 ISZERO PUSH2 0x8E5 JUMPI RETURNDATASIZE PUSH1 0x0 DUP1 RETURNDATACOPY RETURNDATASIZE PUSH1 0x0 REVERT JUMPDEST POP POP POP POP PUSH1 0x40 MLOAD RETURNDATASIZE PUSH1 0x1F NOT PUSH1 0x1F DUP3 ADD AND DUP3 ADD DUP1 PUSH1 0x40 MSTORE POP DUP2 ADD SWAP1 PUSH2 0x909 SWAP2 SWAP1 PUSH2 0xA52 JUMP JUMPDEST GT ISZERO PUSH2 0x94A JUMPI PUSH1 0x40 MLOAD PUSH32 0x8C379A000000000000000000000000000000000000000000000000000000000 DUP2 MSTORE PUSH1 0x4 ADD PUSH2 0x941 SWAP1 PUSH2 0xD1B JUMP JUMPDEST PUSH1 0x40 MLOAD DUP1 SWAP2 SUB SWAP1 REVERT JUMPDEST POP POP POP POP POP JUMP JUMPDEST PUSH1 0x0 DUP2 CALLDATALOAD SWAP1 POP PUSH2 0x960 DUP2 PUSH2 0x10CE JUMP JUMPDEST SWAP3 SWAP2 POP POP JUMP JUMPDEST PUSH1 0x0 DUP2 MLOAD SWAP1 POP PUSH2 0x975 DUP2 PUSH2 0x10E5 JUMP JUMPDEST SWAP3 SWAP2 POP POP JUMP JUMPDEST PUSH1 0x0 DUP2 CALLDATALOAD SWAP1 POP PUSH2 0x98A DUP2 PUSH2 0x10FC JUMP JUMPDEST SWAP3 SWAP2 POP POP JUMP JUMPDEST PUSH1 0x0 DUP2 MLOAD SWAP1 POP PUSH2 0x99F DUP2 PUSH2 0x10FC JUMP JUMPDEST SWAP3 SWAP2 POP POP JUMP JUMPDEST PUSH1 0x0 DUP1 PUSH1 0x0 PUSH1 0x60 DUP5 DUP7 SUB SLT ISZERO PUSH2 0x9BE JUMPI PUSH2 0x9BD PUSH2 0xF9F JUMP JUMPDEST JUMPDEST PUSH1 0x0 PUSH2 0x9CC DUP7 DUP3 DUP8 ADD PUSH2 0x951 JUMP JUMPDEST SWAP4 POP POP PUSH1 0x20 PUSH2 0x9DD DUP7 DUP3 DUP8 ADD PUSH2 0x951 JUMP JUMPDEST SWAP3 POP POP PUSH1 0x40 PUSH2 0x9EE DUP7 DUP3 DUP8 ADD PUSH2 0x97B JUMP JUMPDEST SWAP2 POP POP SWAP3 POP SWAP3 POP SWAP3 JUMP JUMPDEST PUSH1 0x0 PUSH1 0x20 DUP3 DUP5 SUB SLT ISZERO PUSH2 0xA0E JUMPI PUSH2 0xA0D PUSH2 0xF9F JUMP JUMPDEST JUMPDEST PUSH1 0x0 PUSH2 0xA1C DUP5 DUP3 DUP6 ADD PUSH2 0x966 JUMP JUMPDEST SWAP2 POP POP SWAP3 SWAP2 POP POP JUMP JUMPDEST PUSH1 0x0 PUSH1 0x20 DUP3 DUP5 SUB SLT ISZERO PUSH2 0xA3B JUMPI PUSH2 0xA3A PUSH2 0xF9F JUMP JUMPDEST JUMPDEST PUSH1 0x0 PUSH2 0xA49 DUP5 DUP3 DUP6 ADD PUSH2 0x97B JUMP JUMPDEST SWAP2 POP POP SWAP3 SWAP2 POP POP JUMP JUMPDEST PUSH1 0x0 PUSH1 0x20 DUP3 DUP5 SUB SLT ISZERO PUSH2 0xA68 JUMPI PUSH2 0xA67 PUSH2 0xF9F JUMP JUMPDEST JUMPDEST PUSH1 0x0 PUSH2 0xA76 DUP5 DUP3 DUP6 ADD PUSH2 0x990 JUMP JUMPDEST SWAP2 POP POP SWAP3 SWAP2 POP POP JUMP JUMPDEST PUSH2 0xA88 DUP2 PUSH2 0xE1D JUMP JUMPDEST DUP3 MSTORE POP POP JUMP JUMPDEST PUSH2 0xA97 DUP2 PUSH2 0xE65 JUMP JUMPDEST DUP3 MSTORE POP POP JUMP JUMPDEST PUSH2 0xAA6 DUP2 PUSH2 0xE77 JUMP JUMPDEST DUP3 MSTORE POP POP JUMP JUMPDEST PUSH1 0x0 PUSH2 0xAB7 DUP3 PUSH2 0xD76 JUMP JUMPDEST PUSH2 0xAC1 DUP2 DUP6 PUSH2 0xD81 JUMP JUMPDEST SWAP4 POP PUSH2 0xAD1 DUP2 DUP6 PUSH1 0x20 DUP7 ADD PUSH2 0xEAD JUMP JUMPDEST PUSH2 0xADA DUP2 PUSH2 0xFA4 JUMP JUMPDEST DUP5 ADD SWAP2 POP POP SWAP3 SWAP2 POP POP JUMP JUMPDEST PUSH1 0x0 PUSH2 0xAF2 PUSH1 0x37 DUP4 PUSH2 0xD81 JUMP JUMPDEST SWAP2 POP PUSH2 0xAFD DUP3 PUSH2 0xFB5 JUMP JUMPDEST PUSH1 0x40 DUP3 ADD SWAP1 POP SWAP2 SWAP1 POP JUMP JUMPDEST PUSH1 0x0 PUSH2 0xB15 PUSH1 0x34 DUP4 PUSH2 0xD81 JUMP JUMPDEST SWAP2 POP PUSH2 0xB20 DUP3 PUSH2 0x1004 JUMP JUMPDEST PUSH1 0x40 DUP3 ADD SWAP1 POP SWAP2 SWAP1 POP JUMP JUMPDEST PUSH1 0x0 PUSH2 0xB38 PUSH1 0x1F DUP4 PUSH2 0xD81 JUMP JUMPDEST SWAP2 POP PUSH2 0xB43 DUP3 PUSH2 0x1053 JUMP JUMPDEST PUSH1 0x20 DUP3 ADD SWAP1 POP SWAP2 SWAP1 POP JUMP JUMPDEST PUSH1 0x0 PUSH2 0xB5B PUSH1 0x1B DUP4 PUSH2 0xD81 JUMP JUMPDEST SWAP2 POP PUSH2 0xB66 DUP3 PUSH2 0x107C JUMP JUMPDEST PUSH1 0x20 DUP3 ADD SWAP1 POP SWAP2 SWAP1 POP JUMP JUMPDEST PUSH1 0x0 PUSH2 0xB7E PUSH1 0x18 DUP4 PUSH2 0xD81 JUMP JUMPDEST SWAP2 POP PUSH2 0xB89 DUP3 PUSH2 0x10A5 JUMP JUMPDEST PUSH1 0x20 DUP3 ADD SWAP1 POP SWAP2 SWAP1 POP JUMP JUMPDEST PUSH2 0xB9D DUP2 PUSH2 0xE5B JUMP JUMPDEST DUP3 MSTORE POP POP JUMP JUMPDEST PUSH1 0x0 PUSH1 0x20 DUP3 ADD SWAP1 POP PUSH2 0xBB8 PUSH1 0x0 DUP4 ADD DUP5 PUSH2 0xA7F JUMP JUMPDEST SWAP3 SWAP2 POP POP JUMP JUMPDEST PUSH1 0x0 PUSH1 0x60 DUP3 ADD SWAP1 POP PUSH2 0xBD3 PUSH1 0x0 DUP4 ADD DUP7 PUSH2 0xA7F JUMP JUMPDEST PUSH2 0xBE0 PUSH1 0x20 DUP4 ADD DUP6 PUSH2 0xA7F JUMP JUMPDEST PUSH2 0xBED PUSH1 0x40 DUP4 ADD DUP5 PUSH2 0xB94 JUMP JUMPDEST SWAP5 SWAP4 POP POP POP POP JUMP JUMPDEST PUSH1 0x0 PUSH1 0x80 DUP3 ADD SWAP1 POP PUSH2 0xC0A PUSH1 0x0 DUP4 ADD DUP8 PUSH2 0xA7F JUMP JUMPDEST PUSH2 0xC17 PUSH1 0x20 DUP4 ADD DUP7 PUSH2 0xA7F JUMP JUMPDEST PUSH2 0xC24 PUSH1 0x40 DUP4 ADD DUP6 PUSH2 0xB94 JUMP JUMPDEST PUSH2 0xC31 PUSH1 0x60 DUP4 ADD DUP5 PUSH2 0xB94 JUMP JUMPDEST SWAP6 SWAP5 POP POP POP POP POP JUMP JUMPDEST PUSH1 0x0 PUSH1 0x40 DUP3 ADD SWAP1 POP PUSH2 0xC4F PUSH1 0x0 DUP4 ADD DUP6 PUSH2 0xA7F JUMP JUMPDEST PUSH2 0xC5C PUSH1 0x20 DUP4 ADD DUP5 PUSH2 0xB94 JUMP JUMPDEST SWAP4 SWAP3 POP POP POP JUMP JUMPDEST PUSH1 0x0 PUSH1 0x20 DUP3 ADD SWAP1 POP PUSH2 0xC78 PUSH1 0x0 DUP4 ADD DUP5 PUSH2 0xA8E JUMP JUMPDEST SWAP3 SWAP2 POP POP JUMP JUMPDEST PUSH1 0x0 PUSH1 0x20 DUP3 ADD SWAP1 POP PUSH2 0xC93 PUSH1 0x0 DUP4 ADD DUP5 PUSH2 0xA9D JUMP JUMPDEST SWAP3 SWAP2 POP POP JUMP JUMPDEST PUSH1 0x0 PUSH1 0x20 DUP3 ADD SWAP1 POP DUP2 DUP2 SUB PUSH1 0x0 DUP4 ADD MSTORE PUSH2 0xCB3 DUP2 DUP5 PUSH2 0xAAC JUMP JUMPDEST SWAP1 POP SWAP3 SWAP2 POP POP JUMP JUMPDEST PUSH1 0x0 PUSH1 0x20 DUP3 ADD SWAP1 POP DUP2 DUP2 SUB PUSH1 0x0 DUP4 ADD MSTORE PUSH2 0xCD4 DUP2 PUSH2 0xAE5 JUMP JUMPDEST SWAP1 POP SWAP2 SWAP1 POP JUMP JUMPDEST PUSH1 0x0 PUSH1 0x20 DUP3 ADD SWAP1 POP DUP2 DUP2 SUB PUSH1 0x0 DUP4 ADD MSTORE PUSH2 0xCF4 DUP2 PUSH2 0xB08 JUMP JUMPDEST SWAP1 POP SWAP2 SWAP1 POP JUMP JUMPDEST PUSH1 0x0 PUSH1 0x20 DUP3 ADD SWAP1 POP DUP2 DUP2 SUB PUSH1 0x0 DUP4 ADD MSTORE PUSH2 0xD14 DUP2 PUSH2 0xB2B JUMP JUMPDEST SWAP1 POP SWAP2 SWAP1 POP JUMP JUMPDEST PUSH1 0x0 PUSH1 0x20 DUP3 ADD SWAP1 POP DUP2 DUP2 SUB PUSH1 0x0 DUP4 ADD MSTORE PUSH2 0xD34 DUP2 PUSH2 0xB4E JUMP JUMPDEST SWAP1 POP SWAP2 SWAP1 POP JUMP JUMPDEST PUSH1 0x0 PUSH1 0x20 DUP3 ADD SWAP1 POP DUP2 DUP2 SUB PUSH1 0x0 DUP4 ADD MSTORE PUSH2 0xD54 DUP2 PUSH2 0xB71 JUMP JUMPDEST SWAP1 POP SWAP2 SWAP1 POP JUMP JUMPDEST PUSH1 0x0 PUSH1 0x20 DUP3 ADD SWAP1 POP PUSH2 0xD70 PUSH1 0x0 DUP4 ADD DUP5 PUSH2 0xB94 JUMP JUMPDEST SWAP3 SWAP2 POP POP JUMP JUMPDEST PUSH1 0x0 DUP2 MLOAD SWAP1 POP SWAP2 SWAP1 POP JUMP JUMPDEST PUSH1 0x0 DUP3 DUP3 MSTORE PUSH1 0x20 DUP3 ADD SWAP1 POP SWAP3 SWAP2 POP POP JUMP JUMPDEST PUSH1 0x0 PUSH2 0xD9D DUP3 PUSH2 0xE5B JUMP JUMPDEST SWAP2 POP PUSH2 0xDA8 DUP4 PUSH2 0xE5B JUMP JUMPDEST SWAP3 POP DUP3 PUSH2 0xDB8 JUMPI PUSH2 0xDB7 PUSH2 0xF41 JUMP JUMPDEST JUMPDEST DUP3 DUP3 DIV SWAP1 POP SWAP3 SWAP2 POP POP JUMP JUMPDEST PUSH1 0x0 PUSH2 0xDCE DUP3 PUSH2 0xE5B JUMP JUMPDEST SWAP2 POP PUSH2 0xDD9 DUP4 PUSH2 0xE5B JUMP JUMPDEST SWAP3 POP DUP2 PUSH32 0xFFFFFFFFFFFFFFFFFFFFFFFFFFFFFFFFFFFFFFFFFFFFFFFFFFFFFFFFFFFFFFFF DIV DUP4 GT DUP3 ISZERO ISZERO AND ISZERO PUSH2 0xE12 JUMPI PUSH2 0xE11 PUSH2 0xF12 JUMP JUMPDEST JUMPDEST DUP3 DUP3 MUL SWAP1 POP SWAP3 SWAP2 POP POP JUMP JUMPDEST PUSH1 0x0 PUSH2 0xE28 DUP3 PUSH2 0xE3B JUMP JUMPDEST SWAP1 POP SWAP2 SWAP1 POP JUMP JUMPDEST PUSH1 0x0 DUP2 ISZERO ISZERO SWAP1 POP SWAP2 SWAP1 POP JUMP JUMPDEST PUSH1 0x0 PUSH20 0xFFFFFFFFFFFFFFFFFFFFFFFFFFFFFFFFFFFFFFFF DUP3 AND SWAP1 POP SWAP2 SWAP1 POP JUMP JUMPDEST PUSH1 0x0 DUP2 SWAP1 POP SWAP2 SWAP1 POP JUMP JUMPDEST PUSH1 0x0 PUSH2 0xE70 DUP3 PUSH2 0xE89 JUMP JUMPDEST SWAP1 POP SWAP2 SWAP1 POP JUMP JUMPDEST PUSH1 0x0 PUSH2 0xE82 DUP3 PUSH2 0xE89 JUMP JUMPDEST SWAP1 POP SWAP2 SWAP1 POP JUMP JUMPDEST PUSH1 0x0 PUSH2 0xE94 DUP3 PUSH2 0xE9B JUMP JUMPDEST SWAP1 POP SWAP2 SWAP1 POP JUMP JUMPDEST PUSH1 0x0 PUSH2 0xEA6 DUP3 PUSH2 0xE3B JUMP JUMPDEST SWAP1 POP SWAP2 SWAP1 POP JUMP JUMPDEST PUSH1 0x0 JUMPDEST DUP4 DUP2 LT ISZERO PUSH2 0xECB JUMPI DUP1 DUP3 ADD MLOAD DUP2 DUP5 ADD MSTORE PUSH1 0x20 DUP2 ADD SWAP1 POP PUSH2 0xEB0 JUMP JUMPDEST DUP4 DUP2 GT ISZERO PUSH2 0xEDA JUMPI PUSH1 0x0 DUP5 DUP5 ADD MSTORE JUMPDEST POP POP POP POP JUMP JUMPDEST PUSH1 0x0 PUSH1 0x2 DUP3 DIV SWAP1 POP PUSH1 0x1 DUP3 AND DUP1 PUSH2 0xEF8 JUMPI PUSH1 0x7F DUP3 AND SWAP2 POP JUMPDEST PUSH1 0x20 DUP3 LT DUP2 EQ ISZERO PUSH2 0xF0C JUMPI PUSH2 0xF0B PUSH2 0xF70 JUMP JUMPDEST JUMPDEST POP SWAP2 SWAP1 POP JUMP JUMPDEST PUSH32 0x4E487B7100000000000000000000000000000000000000000000000000000000 PUSH1 0x0 MSTORE PUSH1 0x11 PUSH1 0x4 MSTORE PUSH1 0x24 PUSH1 0x0 REVERT JUMPDEST PUSH32 0x4E487B7100000000000000000000000000000000000000000000000000000000 PUSH1 0x0 MSTORE PUSH1 0x12 PUSH1 0x4 MSTORE PUSH1 0x24 PUSH1 0x0 REVERT JUMPDEST PUSH32 0x4E487B7100000000000000000000000000000000000000000000000000000000 PUSH1 0x0 MSTORE PUSH1 0x22 PUSH1 0x4 MSTORE PUSH1 0x24 PUSH1 0x0 REVERT JUMPDEST PUSH1 0x0 DUP1 REVERT JUMPDEST PUSH1 0x0 PUSH1 0x1F NOT PUSH1 0x1F DUP4 ADD AND SWAP1 POP SWAP2 SWAP1 POP JUMP JUMPDEST PUSH32 0x5377617020636F6E747261637420646F6573206E6F74206861766520656E6F75 PUSH1 0x0 DUP3 ADD MSTORE PUSH32 0x676820617661696C61626C652045544820616D6F756E74000000000000000000 PUSH1 0x20 DUP3 ADD MSTORE POP JUMP JUMPDEST PUSH32 0x596F752063616E206E6F742073656C6C206D6F726520746F6B656E7320746861 PUSH1 0x0 DUP3 ADD MSTORE PUSH32 0x6E20796F752063757272656E746C7920686F6C64000000000000000000000000 PUSH1 0x20 DUP3 ADD MSTORE POP JUMP JUMPDEST PUSH32 0x4E6F7420656E6F75676820435A4820617661696C61626C6520746F2062757900 PUSH1 0x0 DUP3 ADD MSTORE POP JUMP JUMPDEST PUSH32 0x4E6F7420656E6F7567682066756E6473206F6E20457468537761700000000000 PUSH1 0x0 DUP3 ADD MSTORE POP JUMP JUMPDEST PUSH32 0x4E6F7420656E6F7567682066756E647320746F20737761700000000000000000 PUSH1 0x0 DUP3 ADD MSTORE POP JUMP JUMPDEST PUSH2 0x10D7 DUP2 PUSH2 0xE1D JUMP JUMPDEST DUP2 EQ PUSH2 0x10E2 JUMPI PUSH1 0x0 DUP1 REVERT JUMPDEST POP JUMP JUMPDEST PUSH2 0x10EE DUP2 PUSH2 0xE2F JUMP JUMPDEST DUP2 EQ PUSH2 0x10F9 JUMPI PUSH1 0x0 DUP1 REVERT JUMPDEST POP JUMP JUMPDEST PUSH2 0x1105 DUP2 PUSH2 0xE5B JUMP JUMPDEST DUP2 EQ PUSH2 0x1110 JUMPI PUSH1 0x0 DUP1 REVERT JUMPDEST POP JUMP INVALID LOG2 PUSH5 0x6970667358 0x22 SLT KECCAK256 0xB5 0xEB BYTE 0xA6 0xD5 0xE2 ADDMOD SWAP2 DUP3 0xE1 0xAF 0xE1 SMOD REVERT MSTORE PUSH1 0x4A DUP16 0xE8 TIMESTAMP 0x5F 0xA6 REVERT PUSH28 0xA513D42EA76BB20264736F6C63430008070033000000000000000000 "
				},
				"gasEstimates": {
					"creation": {
						"codeDepositCost": "885000",
						"executionCost": "infinite",
						"totalCost": "infinite"
					},
					"external": {
						"buyTokens()": "infinite",
						"czhRate()": "2473",
						"czhTokenBalance()": "2474",
						"lfjRate()": "2452",
						"lfjTokenBalance()": "2496",
						"name()": "infinite",
						"sellTokens(uint256)": "infinite",
						"swapTokens(address,address,uint256)": "infinite",
						"tokenCZH()": "2600",
						"tokenLFJ()": "2622"
					}
				},
				"methodIdentifiers": {
					"buyTokens()": "d0febe4c",
					"czhRate()": "a1e18e1a",
					"czhTokenBalance()": "3aa6f8fa",
					"lfjRate()": "1739fef0",
					"lfjTokenBalance()": "662b1af6",
					"name()": "06fdde03",
					"sellTokens(uint256)": "6c11bcd3",
					"swapTokens(address,address,uint256)": "ec6cc0cc",
					"tokenCZH()": "7cc1478a",
					"tokenLFJ()": "848d82eb"
				}
			},
			"storageLayout": {
				"storage": [
					{
						"astId": 187,
						"contract": "Projects/horizon/contracts/EthSwap.sol:EthSwap",
						"label": "name",
						"offset": 0,
						"slot": "0",
						"type": "t_string_storage"
					},
					{
						"astId": 190,
						"contract": "Projects/horizon/contracts/EthSwap.sol:EthSwap",
						"label": "tokenCZH",
						"offset": 0,
						"slot": "1",
						"type": "t_contract(CZH)180"
					},
					{
						"astId": 193,
						"contract": "Projects/horizon/contracts/EthSwap.sol:EthSwap",
						"label": "tokenLFJ",
						"offset": 0,
						"slot": "2",
						"type": "t_contract(LFJ)603"
					},
					{
						"astId": 196,
						"contract": "Projects/horizon/contracts/EthSwap.sol:EthSwap",
						"label": "czhRate",
						"offset": 0,
						"slot": "3",
						"type": "t_uint256"
					},
					{
						"astId": 199,
						"contract": "Projects/horizon/contracts/EthSwap.sol:EthSwap",
						"label": "lfjRate",
						"offset": 0,
						"slot": "4",
						"type": "t_uint256"
					},
					{
						"astId": 201,
						"contract": "Projects/horizon/contracts/EthSwap.sol:EthSwap",
						"label": "czhTokenBalance",
						"offset": 0,
						"slot": "5",
						"type": "t_uint256"
					},
					{
						"astId": 203,
						"contract": "Projects/horizon/contracts/EthSwap.sol:EthSwap",
						"label": "lfjTokenBalance",
						"offset": 0,
						"slot": "6",
						"type": "t_uint256"
					}
				],
				"types": {
					"t_contract(CZH)180": {
						"encoding": "inplace",
						"label": "contract CZH",
						"numberOfBytes": "20"
					},
					"t_contract(LFJ)603": {
						"encoding": "inplace",
						"label": "contract LFJ",
						"numberOfBytes": "20"
					},
					"t_string_storage": {
						"encoding": "bytes",
						"label": "string",
						"numberOfBytes": "32"
					},
					"t_uint256": {
						"encoding": "inplace",
						"label": "uint256",
						"numberOfBytes": "32"
					}
				}
			},
			"userdoc": {
				"kind": "user",
				"methods": {},
				"version": 1
			}
		}
	}
}