{
	"Projects/horizon/contracts/SwapContract.sol": {
		"SwapContract": {
			"abi": [
				{
					"inputs": [
						{
							"internalType": "address",
							"name": "_token1",
							"type": "address"
						},
						{
							"internalType": "address",
							"name": "_token2",
							"type": "address"
						}
					],
					"stateMutability": "nonpayable",
					"type": "constructor"
				},
				{
					"anonymous": false,
					"inputs": [
						{
							"indexed": false,
							"internalType": "address",
							"name": "account",
							"type": "address"
						},
						{
							"indexed": false,
							"internalType": "address",
							"name": "token",
							"type": "address"
						},
						{
							"indexed": false,
							"internalType": "uint256",
							"name": "amount",
							"type": "uint256"
						}
					],
					"name": "TokensPurchased",
					"type": "event"
				},
				{
					"anonymous": false,
					"inputs": [
						{
							"indexed": false,
							"internalType": "address",
							"name": "account",
							"type": "address"
						},
						{
							"indexed": false,
							"internalType": "address",
							"name": "token",
							"type": "address"
						},
						{
							"indexed": false,
							"internalType": "uint256",
							"name": "amount",
							"type": "uint256"
						}
					],
					"name": "TokensSold",
					"type": "event"
				},
				{
					"anonymous": false,
					"inputs": [
						{
							"indexed": false,
							"internalType": "address",
							"name": "account",
							"type": "address"
						},
						{
							"indexed": false,
							"internalType": "address",
							"name": "tokenToBuy",
							"type": "address"
						},
						{
							"indexed": false,
							"internalType": "address",
							"name": "tokenToSell",
							"type": "address"
						},
						{
							"indexed": false,
							"internalType": "uint256",
							"name": "tokenToBuyAmount",
							"type": "uint256"
						},
						{
							"indexed": false,
							"internalType": "uint256",
							"name": "tokenToSellAmount",
							"type": "uint256"
						}
					],
					"name": "TokensSwapped",
					"type": "event"
				},
				{
					"anonymous": false,
					"inputs": [
						{
							"indexed": false,
							"internalType": "address",
							"name": "_from",
							"type": "address"
						},
						{
							"indexed": false,
							"internalType": "uint256",
							"name": "_amount",
							"type": "uint256"
						}
					],
					"name": "TransferReceived",
					"type": "event"
				},
				{
					"anonymous": false,
					"inputs": [
						{
							"indexed": false,
							"internalType": "address",
							"name": "_from",
							"type": "address"
						},
						{
							"indexed": false,
							"internalType": "address",
							"name": "_destAddr",
							"type": "address"
						},
						{
							"indexed": false,
							"internalType": "uint256",
							"name": "_amount",
							"type": "uint256"
						}
					],
					"name": "TransferSent",
					"type": "event"
				},
				{
					"inputs": [],
					"name": "balance",
					"outputs": [
						{
							"internalType": "uint256",
							"name": "",
							"type": "uint256"
						}
					],
					"stateMutability": "view",
					"type": "function"
				},
				{
					"inputs": [
						{
							"internalType": "contract IERC20",
							"name": "token",
							"type": "address"
						}
					],
					"name": "buyTokens",
					"outputs": [],
					"stateMutability": "payable",
					"type": "function"
				},
				{
					"inputs": [],
					"name": "owner",
					"outputs": [
						{
							"internalType": "address",
							"name": "",
							"type": "address"
						}
					],
					"stateMutability": "view",
					"type": "function"
				},
				{
					"inputs": [
						{
							"internalType": "contract IERC20",
							"name": "token",
							"type": "address"
						}
					],
					"name": "sellTokens",
					"outputs": [],
					"stateMutability": "payable",
					"type": "function"
				},
				{
					"inputs": [
						{
							"internalType": "contract IERC20",
							"name": "tokenToBuy",
							"type": "address"
						},
						{
							"internalType": "contract IERC20",
							"name": "tokenToSell",
							"type": "address"
						},
						{
							"internalType": "uint256",
							"name": "_amountToSell",
							"type": "uint256"
						}
					],
					"name": "swapTokens",
					"outputs": [],
					"stateMutability": "payable",
					"type": "function"
				},
				{
					"inputs": [
						{
							"internalType": "address",
							"name": "",
							"type": "address"
						}
					],
					"name": "tokenAvailableBalances",
					"outputs": [
						{
							"internalType": "uint256",
							"name": "",
							"type": "uint256"
						}
					],
					"stateMutability": "view",
					"type": "function"
				},
				{
					"inputs": [
						{
							"internalType": "address",
							"name": "",
							"type": "address"
						}
					],
					"name": "tokenConversionRates",
					"outputs": [
						{
							"internalType": "uint256",
							"name": "",
							"type": "uint256"
						}
					],
					"stateMutability": "view",
					"type": "function"
				},
				{
					"inputs": [
						{
							"internalType": "contract IERC20",
							"name": "token",
							"type": "address"
						},
						{
							"internalType": "address",
							"name": "to",
							"type": "address"
						},
						{
							"internalType": "uint256",
							"name": "amount",
							"type": "uint256"
						}
					],
					"name": "transferERC20",
					"outputs": [],
					"stateMutability": "nonpayable",
					"type": "function"
				},
				{
					"inputs": [
						{
							"internalType": "address",
							"name": "token",
							"type": "address"
						},
						{
							"internalType": "uint256",
							"name": "tokenValueComparedToEth",
							"type": "uint256"
						}
					],
					"name": "updateTokenConversionRate",
					"outputs": [],
					"stateMutability": "nonpayable",
					"type": "function"
				},
				{
					"inputs": [
						{
							"internalType": "uint256",
							"name": "amount",
							"type": "uint256"
						},
						{
							"internalType": "address payable",
							"name": "destAddr",
							"type": "address"
						}
					],
					"name": "withdraw",
					"outputs": [],
					"stateMutability": "nonpayable",
					"type": "function"
				},
				{
					"stateMutability": "payable",
					"type": "receive"
				}
			],
			"devdoc": {
				"kind": "dev",
				"methods": {},
				"version": 1
			},
			"evm": {
				"assembly": "    /* \"Projects/horizon/contracts/SwapContract.sol\":115:5266  contract SwapContract {... */\n  mstore(0x40, 0x80)\n    /* \"Projects/horizon/contracts/SwapContract.sol\":774:1200  constructor(address _token1, address _token2) {... */\n  callvalue\n  dup1\n  iszero\n  tag_1\n  jumpi\n  0x00\n  dup1\n  revert\ntag_1:\n  pop\n  mload(0x40)\n  sub(codesize, bytecodeSize)\n  dup1\n  bytecodeSize\n  dup4\n  codecopy\n  dup2\n  dup2\n  add\n  0x40\n  mstore\n  dup2\n  add\n  swap1\n  tag_2\n  swap2\n  swap1\n  tag_3\n  jump\t// in\ntag_2:\n    /* \"Projects/horizon/contracts/SwapContract.sol\":838:848  msg.sender */\n  caller\n    /* \"Projects/horizon/contracts/SwapContract.sol\":830:835  owner */\n  0x00\n  dup1\n    /* \"Projects/horizon/contracts/SwapContract.sol\":830:848  owner = msg.sender */\n  0x0100\n  exp\n  dup2\n  sload\n  dup2\n  0xffffffffffffffffffffffffffffffffffffffff\n  mul\n  not\n  and\n  swap1\n  dup4\n  0xffffffffffffffffffffffffffffffffffffffff\n  and\n  mul\n  or\n  swap1\n  sstore\n  pop\n    /* \"Projects/horizon/contracts/SwapContract.sol\":858:876  uint token1Balance */\n  0x00\n    /* \"Projects/horizon/contracts/SwapContract.sol\":886:893  _token1 */\n  dup3\n    /* \"Projects/horizon/contracts/SwapContract.sol\":879:904  IERC20(_token1).balanceOf */\n  0xffffffffffffffffffffffffffffffffffffffff\n  and\n  0x70a08231\n    /* \"Projects/horizon/contracts/SwapContract.sol\":913:917  this */\n  address\n    /* \"Projects/horizon/contracts/SwapContract.sol\":879:919  IERC20(_token1).balanceOf(address(this)) */\n  mload(0x40)\n  dup3\n  0xffffffff\n  and\n  0xe0\n  shl\n  dup2\n  mstore\n  0x04\n  add\n  tag_6\n  swap2\n  swap1\n  tag_7\n  jump\t// in\ntag_6:\n  0x20\n  mload(0x40)\n  dup1\n  dup4\n  sub\n  dup2\n  dup7\n  dup1\n  extcodesize\n  iszero\n  dup1\n  iszero\n  tag_8\n  jumpi\n  0x00\n  dup1\n  revert\ntag_8:\n  pop\n  gas\n  staticcall\n  iszero\n  dup1\n  iszero\n  tag_10\n  jumpi\n  returndatasize\n  0x00\n  dup1\n  returndatacopy\n  revert(0x00, returndatasize)\ntag_10:\n  pop\n  pop\n  pop\n  pop\n  mload(0x40)\n  returndatasize\n  not(0x1f)\n  0x1f\n  dup3\n  add\n  and\n  dup3\n  add\n  dup1\n  0x40\n  mstore\n  pop\n  dup2\n  add\n  swap1\n  tag_11\n  swap2\n  swap1\n  tag_12\n  jump\t// in\ntag_11:\n    /* \"Projects/horizon/contracts/SwapContract.sol\":858:919  uint token1Balance = IERC20(_token1).balanceOf(address(this)) */\n  swap1\n  pop\n    /* \"Projects/horizon/contracts/SwapContract.sol\":929:947  uint token2Balance */\n  0x00\n    /* \"Projects/horizon/contracts/SwapContract.sol\":957:964  _token2 */\n  dup3\n    /* \"Projects/horizon/contracts/SwapContract.sol\":950:975  IERC20(_token2).balanceOf */\n  0xffffffffffffffffffffffffffffffffffffffff\n  and\n  0x70a08231\n    /* \"Projects/horizon/contracts/SwapContract.sol\":984:988  this */\n  address\n    /* \"Projects/horizon/contracts/SwapContract.sol\":950:990  IERC20(_token2).balanceOf(address(this)) */\n  mload(0x40)\n  dup3\n  0xffffffff\n  and\n  0xe0\n  shl\n  dup2\n  mstore\n  0x04\n  add\n  tag_13\n  swap2\n  swap1\n  tag_7\n  jump\t// in\ntag_13:\n  0x20\n  mload(0x40)\n  dup1\n  dup4\n  sub\n  dup2\n  dup7\n  dup1\n  extcodesize\n  iszero\n  dup1\n  iszero\n  tag_14\n  jumpi\n  0x00\n  dup1\n  revert\ntag_14:\n  pop\n  gas\n  staticcall\n  iszero\n  dup1\n  iszero\n  tag_16\n  jumpi\n  returndatasize\n  0x00\n  dup1\n  returndatacopy\n  revert(0x00, returndatasize)\ntag_16:\n  pop\n  pop\n  pop\n  pop\n  mload(0x40)\n  returndatasize\n  not(0x1f)\n  0x1f\n  dup3\n  add\n  and\n  dup3\n  add\n  dup1\n  0x40\n  mstore\n  pop\n  dup2\n  add\n  swap1\n  tag_17\n  swap2\n  swap1\n  tag_12\n  jump\t// in\ntag_17:\n    /* \"Projects/horizon/contracts/SwapContract.sol\":929:990  uint token2Balance = IERC20(_token2).balanceOf(address(this)) */\n  swap1\n  pop\n    /* \"Projects/horizon/contracts/SwapContract.sol\":1034:1047  token1Balance */\n  dup2\n    /* \"Projects/horizon/contracts/SwapContract.sol\":1000:1022  tokenAvailableBalances */\n  0x03\n    /* \"Projects/horizon/contracts/SwapContract.sol\":1000:1031  tokenAvailableBalances[_token1] */\n  0x00\n    /* \"Projects/horizon/contracts/SwapContract.sol\":1023:1030  _token1 */\n  dup7\n    /* \"Projects/horizon/contracts/SwapContract.sol\":1000:1031  tokenAvailableBalances[_token1] */\n  0xffffffffffffffffffffffffffffffffffffffff\n  and\n  0xffffffffffffffffffffffffffffffffffffffff\n  and\n  dup2\n  mstore\n  0x20\n  add\n  swap1\n  dup2\n  mstore\n  0x20\n  add\n  0x00\n  keccak256\n    /* \"Projects/horizon/contracts/SwapContract.sol\":1000:1047  tokenAvailableBalances[_token1] = token1Balance */\n  dup2\n  swap1\n  sstore\n  pop\n    /* \"Projects/horizon/contracts/SwapContract.sol\":1091:1104  token2Balance */\n  dup1\n    /* \"Projects/horizon/contracts/SwapContract.sol\":1057:1079  tokenAvailableBalances */\n  0x03\n    /* \"Projects/horizon/contracts/SwapContract.sol\":1057:1088  tokenAvailableBalances[_token2] */\n  0x00\n    /* \"Projects/horizon/contracts/SwapContract.sol\":1080:1087  _token2 */\n  dup6\n    /* \"Projects/horizon/contracts/SwapContract.sol\":1057:1088  tokenAvailableBalances[_token2] */\n  0xffffffffffffffffffffffffffffffffffffffff\n  and\n  0xffffffffffffffffffffffffffffffffffffffff\n  and\n  dup2\n  mstore\n  0x20\n  add\n  swap1\n  dup2\n  mstore\n  0x20\n  add\n  0x00\n  keccak256\n    /* \"Projects/horizon/contracts/SwapContract.sol\":1057:1104  tokenAvailableBalances[_token2] = token2Balance */\n  dup2\n  swap1\n  sstore\n  pop\n    /* \"Projects/horizon/contracts/SwapContract.sol\":1146:1149  100 */\n  0x64\n    /* \"Projects/horizon/contracts/SwapContract.sol\":1114:1134  tokenConversionRates */\n  0x02\n    /* \"Projects/horizon/contracts/SwapContract.sol\":1114:1143  tokenConversionRates[_token1] */\n  0x00\n    /* \"Projects/horizon/contracts/SwapContract.sol\":1135:1142  _token1 */\n  dup7\n    /* \"Projects/horizon/contracts/SwapContract.sol\":1114:1143  tokenConversionRates[_token1] */\n  0xffffffffffffffffffffffffffffffffffffffff\n  and\n  0xffffffffffffffffffffffffffffffffffffffff\n  and\n  dup2\n  mstore\n  0x20\n  add\n  swap1\n  dup2\n  mstore\n  0x20\n  add\n  0x00\n  keccak256\n    /* \"Projects/horizon/contracts/SwapContract.sol\":1114:1149  tokenConversionRates[_token1] = 100 */\n  dup2\n  swap1\n  sstore\n  pop\n    /* \"Projects/horizon/contracts/SwapContract.sol\":1191:1193  10 */\n  0x0a\n    /* \"Projects/horizon/contracts/SwapContract.sol\":1159:1179  tokenConversionRates */\n  0x02\n    /* \"Projects/horizon/contracts/SwapContract.sol\":1159:1188  tokenConversionRates[_token2] */\n  0x00\n    /* \"Projects/horizon/contracts/SwapContract.sol\":1180:1187  _token2 */\n  dup6\n    /* \"Projects/horizon/contracts/SwapContract.sol\":1159:1188  tokenConversionRates[_token2] */\n  0xffffffffffffffffffffffffffffffffffffffff\n  and\n  0xffffffffffffffffffffffffffffffffffffffff\n  and\n  dup2\n  mstore\n  0x20\n  add\n  swap1\n  dup2\n  mstore\n  0x20\n  add\n  0x00\n  keccak256\n    /* \"Projects/horizon/contracts/SwapContract.sol\":1159:1193  tokenConversionRates[_token2] = 10 */\n  dup2\n  swap1\n  sstore\n  pop\n    /* \"Projects/horizon/contracts/SwapContract.sol\":820:1200  {... */\n  pop\n  pop\n    /* \"Projects/horizon/contracts/SwapContract.sol\":774:1200  constructor(address _token1, address _token2) {... */\n  pop\n  pop\n    /* \"Projects/horizon/contracts/SwapContract.sol\":115:5266  contract SwapContract {... */\n  jump(tag_18)\n    /* \"#utility.yul\":7:150   */\ntag_20:\n    /* \"#utility.yul\":64:69   */\n  0x00\n    /* \"#utility.yul\":95:101   */\n  dup2\n    /* \"#utility.yul\":89:102   */\n  mload\n    /* \"#utility.yul\":80:102   */\n  swap1\n  pop\n    /* \"#utility.yul\":111:144   */\n  tag_22\n    /* \"#utility.yul\":138:143   */\n  dup2\n    /* \"#utility.yul\":111:144   */\n  tag_23\n  jump\t// in\ntag_22:\n    /* \"#utility.yul\":7:150   */\n  swap3\n  swap2\n  pop\n  pop\n  jump\t// out\n    /* \"#utility.yul\":156:299   */\ntag_24:\n    /* \"#utility.yul\":213:218   */\n  0x00\n    /* \"#utility.yul\":244:250   */\n  dup2\n    /* \"#utility.yul\":238:251   */\n  mload\n    /* \"#utility.yul\":229:251   */\n  swap1\n  pop\n    /* \"#utility.yul\":260:293   */\n  tag_26\n    /* \"#utility.yul\":287:292   */\n  dup2\n    /* \"#utility.yul\":260:293   */\n  tag_27\n  jump\t// in\ntag_26:\n    /* \"#utility.yul\":156:299   */\n  swap3\n  swap2\n  pop\n  pop\n  jump\t// out\n    /* \"#utility.yul\":305:812   */\ntag_3:\n    /* \"#utility.yul\":384:390   */\n  0x00\n    /* \"#utility.yul\":392:398   */\n  dup1\n    /* \"#utility.yul\":441:443   */\n  0x40\n    /* \"#utility.yul\":429:438   */\n  dup4\n    /* \"#utility.yul\":420:427   */\n  dup6\n    /* \"#utility.yul\":416:439   */\n  sub\n    /* \"#utility.yul\":412:444   */\n  slt\n    /* \"#utility.yul\":409:528   */\n  iszero\n  tag_29\n  jumpi\n    /* \"#utility.yul\":447:526   */\n  tag_30\n  tag_31\n  jump\t// in\ntag_30:\n    /* \"#utility.yul\":409:528   */\ntag_29:\n    /* \"#utility.yul\":567:568   */\n  0x00\n    /* \"#utility.yul\":592:656   */\n  tag_32\n    /* \"#utility.yul\":648:655   */\n  dup6\n    /* \"#utility.yul\":639:645   */\n  dup3\n    /* \"#utility.yul\":628:637   */\n  dup7\n    /* \"#utility.yul\":624:646   */\n  add\n    /* \"#utility.yul\":592:656   */\n  tag_20\n  jump\t// in\ntag_32:\n    /* \"#utility.yul\":582:656   */\n  swap3\n  pop\n    /* \"#utility.yul\":538:666   */\n  pop\n    /* \"#utility.yul\":705:707   */\n  0x20\n    /* \"#utility.yul\":731:795   */\n  tag_33\n    /* \"#utility.yul\":787:794   */\n  dup6\n    /* \"#utility.yul\":778:784   */\n  dup3\n    /* \"#utility.yul\":767:776   */\n  dup7\n    /* \"#utility.yul\":763:785   */\n  add\n    /* \"#utility.yul\":731:795   */\n  tag_20\n  jump\t// in\ntag_33:\n    /* \"#utility.yul\":721:795   */\n  swap2\n  pop\n    /* \"#utility.yul\":676:805   */\n  pop\n    /* \"#utility.yul\":305:812   */\n  swap3\n  pop\n  swap3\n  swap1\n  pop\n  jump\t// out\n    /* \"#utility.yul\":818:1169   */\ntag_12:\n    /* \"#utility.yul\":888:894   */\n  0x00\n    /* \"#utility.yul\":937:939   */\n  0x20\n    /* \"#utility.yul\":925:934   */\n  dup3\n    /* \"#utility.yul\":916:923   */\n  dup5\n    /* \"#utility.yul\":912:935   */\n  sub\n    /* \"#utility.yul\":908:940   */\n  slt\n    /* \"#utility.yul\":905:1024   */\n  iszero\n  tag_35\n  jumpi\n    /* \"#utility.yul\":943:1022   */\n  tag_36\n  tag_31\n  jump\t// in\ntag_36:\n    /* \"#utility.yul\":905:1024   */\ntag_35:\n    /* \"#utility.yul\":1063:1064   */\n  0x00\n    /* \"#utility.yul\":1088:1152   */\n  tag_37\n    /* \"#utility.yul\":1144:1151   */\n  dup5\n    /* \"#utility.yul\":1135:1141   */\n  dup3\n    /* \"#utility.yul\":1124:1133   */\n  dup6\n    /* \"#utility.yul\":1120:1142   */\n  add\n    /* \"#utility.yul\":1088:1152   */\n  tag_24\n  jump\t// in\ntag_37:\n    /* \"#utility.yul\":1078:1152   */\n  swap2\n  pop\n    /* \"#utility.yul\":1034:1162   */\n  pop\n    /* \"#utility.yul\":818:1169   */\n  swap3\n  swap2\n  pop\n  pop\n  jump\t// out\n    /* \"#utility.yul\":1175:1293   */\ntag_38:\n    /* \"#utility.yul\":1262:1286   */\n  tag_40\n    /* \"#utility.yul\":1280:1285   */\n  dup2\n    /* \"#utility.yul\":1262:1286   */\n  tag_41\n  jump\t// in\ntag_40:\n    /* \"#utility.yul\":1257:1260   */\n  dup3\n    /* \"#utility.yul\":1250:1287   */\n  mstore\n    /* \"#utility.yul\":1175:1293   */\n  pop\n  pop\n  jump\t// out\n    /* \"#utility.yul\":1299:1521   */\ntag_7:\n    /* \"#utility.yul\":1392:1396   */\n  0x00\n    /* \"#utility.yul\":1430:1432   */\n  0x20\n    /* \"#utility.yul\":1419:1428   */\n  dup3\n    /* \"#utility.yul\":1415:1433   */\n  add\n    /* \"#utility.yul\":1407:1433   */\n  swap1\n  pop\n    /* \"#utility.yul\":1443:1514   */\n  tag_43\n    /* \"#utility.yul\":1511:1512   */\n  0x00\n    /* \"#utility.yul\":1500:1509   */\n  dup4\n    /* \"#utility.yul\":1496:1513   */\n  add\n    /* \"#utility.yul\":1487:1493   */\n  dup5\n    /* \"#utility.yul\":1443:1514   */\n  tag_38\n  jump\t// in\ntag_43:\n    /* \"#utility.yul\":1299:1521   */\n  swap3\n  swap2\n  pop\n  pop\n  jump\t// out\n    /* \"#utility.yul\":1608:1704   */\ntag_41:\n    /* \"#utility.yul\":1645:1652   */\n  0x00\n    /* \"#utility.yul\":1674:1698   */\n  tag_47\n    /* \"#utility.yul\":1692:1697   */\n  dup3\n    /* \"#utility.yul\":1674:1698   */\n  tag_48\n  jump\t// in\ntag_47:\n    /* \"#utility.yul\":1663:1698   */\n  swap1\n  pop\n    /* \"#utility.yul\":1608:1704   */\n  swap2\n  swap1\n  pop\n  jump\t// out\n    /* \"#utility.yul\":1710:1836   */\ntag_48:\n    /* \"#utility.yul\":1747:1754   */\n  0x00\n    /* \"#utility.yul\":1787:1829   */\n  0xffffffffffffffffffffffffffffffffffffffff\n    /* \"#utility.yul\":1780:1785   */\n  dup3\n    /* \"#utility.yul\":1776:1830   */\n  and\n    /* \"#utility.yul\":1765:1830   */\n  swap1\n  pop\n    /* \"#utility.yul\":1710:1836   */\n  swap2\n  swap1\n  pop\n  jump\t// out\n    /* \"#utility.yul\":1842:1919   */\ntag_50:\n    /* \"#utility.yul\":1879:1886   */\n  0x00\n    /* \"#utility.yul\":1908:1913   */\n  dup2\n    /* \"#utility.yul\":1897:1913   */\n  swap1\n  pop\n    /* \"#utility.yul\":1842:1919   */\n  swap2\n  swap1\n  pop\n  jump\t// out\n    /* \"#utility.yul\":2048:2165   */\ntag_31:\n    /* \"#utility.yul\":2157:2158   */\n  0x00\n    /* \"#utility.yul\":2154:2155   */\n  dup1\n    /* \"#utility.yul\":2147:2159   */\n  revert\n    /* \"#utility.yul\":2171:2293   */\ntag_23:\n    /* \"#utility.yul\":2244:2268   */\n  tag_56\n    /* \"#utility.yul\":2262:2267   */\n  dup2\n    /* \"#utility.yul\":2244:2268   */\n  tag_41\n  jump\t// in\ntag_56:\n    /* \"#utility.yul\":2237:2242   */\n  dup2\n    /* \"#utility.yul\":2234:2269   */\n  eq\n    /* \"#utility.yul\":2224:2287   */\n  tag_57\n  jumpi\n    /* \"#utility.yul\":2283:2284   */\n  0x00\n    /* \"#utility.yul\":2280:2281   */\n  dup1\n    /* \"#utility.yul\":2273:2285   */\n  revert\n    /* \"#utility.yul\":2224:2287   */\ntag_57:\n    /* \"#utility.yul\":2171:2293   */\n  pop\n  jump\t// out\n    /* \"#utility.yul\":2299:2421   */\ntag_27:\n    /* \"#utility.yul\":2372:2396   */\n  tag_59\n    /* \"#utility.yul\":2390:2395   */\n  dup2\n    /* \"#utility.yul\":2372:2396   */\n  tag_50\n  jump\t// in\ntag_59:\n    /* \"#utility.yul\":2365:2370   */\n  dup2\n    /* \"#utility.yul\":2362:2397   */\n  eq\n    /* \"#utility.yul\":2352:2415   */\n  tag_60\n  jumpi\n    /* \"#utility.yul\":2411:2412   */\n  0x00\n    /* \"#utility.yul\":2408:2409   */\n  dup1\n    /* \"#utility.yul\":2401:2413   */\n  revert\n    /* \"#utility.yul\":2352:2415   */\ntag_60:\n    /* \"#utility.yul\":2299:2421   */\n  pop\n  jump\t// out\n    /* \"Projects/horizon/contracts/SwapContract.sol\":115:5266  contract SwapContract {... */\ntag_18:\n  dataSize(sub_0)\n  dup1\n  dataOffset(sub_0)\n  0x00\n  codecopy\n  0x00\n  return\nstop\n\nsub_0: assembly {\n        /* \"Projects/horizon/contracts/SwapContract.sol\":115:5266  contract SwapContract {... */\n      mstore(0x40, 0x80)\n      jumpi(tag_1, lt(calldatasize, 0x04))\n      shr(0xe0, calldataload(0x00))\n      dup1\n      0xdba243d3\n      gt\n      tag_13\n      jumpi\n      dup1\n      0xdba243d3\n      eq\n      tag_8\n      jumpi\n      dup1\n      0xdeff30c6\n      eq\n      tag_9\n      jumpi\n      dup1\n      0xdf680b4f\n      eq\n      tag_10\n      jumpi\n      dup1\n      0xec6cc0cc\n      eq\n      tag_11\n      jumpi\n      dup1\n      0xec8ac4d8\n      eq\n      tag_12\n      jumpi\n      jump(tag_2)\n    tag_13:\n      dup1\n      0xf714ce\n      eq\n      tag_3\n      jumpi\n      dup1\n      0x8da5cb5b\n      eq\n      tag_4\n      jumpi\n      dup1\n      0x9db5dbe4\n      eq\n      tag_5\n      jumpi\n      dup1\n      0xb69ef8a8\n      eq\n      tag_6\n      jumpi\n      dup1\n      0xc1458c09\n      eq\n      tag_7\n      jumpi\n      jump(tag_2)\n    tag_1:\n      jumpi(tag_2, calldatasize)\n        /* \"Projects/horizon/contracts/SwapContract.sol\":1258:1267  msg.value */\n      callvalue\n        /* \"Projects/horizon/contracts/SwapContract.sol\":1247:1254  balance */\n      0x01\n      0x00\n        /* \"Projects/horizon/contracts/SwapContract.sol\":1247:1267  balance += msg.value */\n      dup3\n      dup3\n      sload\n      tag_16\n      swap2\n      swap1\n      tag_17\n      jump\t// in\n    tag_16:\n      swap3\n      pop\n      pop\n      dup2\n      swap1\n      sstore\n      pop\n        /* \"Projects/horizon/contracts/SwapContract.sol\":1282:1321  TransferReceived(msg.sender, msg.value) */\n      0xf1b03f708b9c39f453fe3f0cef84164c7d6f7df836df0796e1e9c2bce6ee397e\n        /* \"Projects/horizon/contracts/SwapContract.sol\":1299:1309  msg.sender */\n      caller\n        /* \"Projects/horizon/contracts/SwapContract.sol\":1311:1320  msg.value */\n      callvalue\n        /* \"Projects/horizon/contracts/SwapContract.sol\":1282:1321  TransferReceived(msg.sender, msg.value) */\n      mload(0x40)\n      tag_18\n      swap3\n      swap2\n      swap1\n      tag_19\n      jump\t// in\n    tag_18:\n      mload(0x40)\n      dup1\n      swap2\n      sub\n      swap1\n      log1\n        /* \"Projects/horizon/contracts/SwapContract.sol\":115:5266  contract SwapContract {... */\n      stop\n    tag_2:\n      0x00\n      dup1\n      revert\n        /* \"Projects/horizon/contracts/SwapContract.sol\":1578:1907  function withdraw(uint amount, address payable destAddr) public {... */\n    tag_3:\n      callvalue\n      dup1\n      iszero\n      tag_20\n      jumpi\n      0x00\n      dup1\n      revert\n    tag_20:\n      pop\n      tag_21\n      0x04\n      dup1\n      calldatasize\n      sub\n      dup2\n      add\n      swap1\n      tag_22\n      swap2\n      swap1\n      tag_23\n      jump\t// in\n    tag_22:\n      tag_24\n      jump\t// in\n    tag_21:\n      stop\n        /* \"Projects/horizon/contracts/SwapContract.sol\":143:163  address public owner */\n    tag_4:\n      callvalue\n      dup1\n      iszero\n      tag_25\n      jumpi\n      0x00\n      dup1\n      revert\n    tag_25:\n      pop\n      tag_26\n      tag_27\n      jump\t// in\n    tag_26:\n      mload(0x40)\n      tag_28\n      swap2\n      swap1\n      tag_29\n      jump\t// in\n    tag_28:\n      mload(0x40)\n      dup1\n      swap2\n      sub\n      swap1\n      return\n        /* \"Projects/horizon/contracts/SwapContract.sol\":1917:2277  function transferERC20(IERC20 token, address to, uint256 amount) public {... */\n    tag_5:\n      callvalue\n      dup1\n      iszero\n      tag_30\n      jumpi\n      0x00\n      dup1\n      revert\n    tag_30:\n      pop\n      tag_31\n      0x04\n      dup1\n      calldatasize\n      sub\n      dup2\n      add\n      swap1\n      tag_32\n      swap2\n      swap1\n      tag_33\n      jump\t// in\n    tag_32:\n      tag_34\n      jump\t// in\n    tag_31:\n      stop\n        /* \"Projects/horizon/contracts/SwapContract.sol\":169:191  uint256 public balance */\n    tag_6:\n      callvalue\n      dup1\n      iszero\n      tag_35\n      jumpi\n      0x00\n      dup1\n      revert\n    tag_35:\n      pop\n      tag_36\n      tag_37\n      jump\t// in\n    tag_36:\n      mload(0x40)\n      tag_38\n      swap2\n      swap1\n      tag_39\n      jump\t// in\n    tag_38:\n      mload(0x40)\n      dup1\n      swap2\n      sub\n      swap1\n      return\n        /* \"Projects/horizon/contracts/SwapContract.sol\":1334:1568  function updateTokenConversionRate(address token, uint tokenValueComparedToEth) public {... */\n    tag_7:\n      callvalue\n      dup1\n      iszero\n      tag_40\n      jumpi\n      0x00\n      dup1\n      revert\n    tag_40:\n      pop\n      tag_41\n      0x04\n      dup1\n      calldatasize\n      sub\n      dup2\n      add\n      swap1\n      tag_42\n      swap2\n      swap1\n      tag_43\n      jump\t// in\n    tag_42:\n      tag_44\n      jump\t// in\n    tag_41:\n      stop\n        /* \"Projects/horizon/contracts/SwapContract.sol\":198:251  mapping (address => uint) public tokenConversionRates */\n    tag_8:\n      callvalue\n      dup1\n      iszero\n      tag_45\n      jumpi\n      0x00\n      dup1\n      revert\n    tag_45:\n      pop\n      tag_46\n      0x04\n      dup1\n      calldatasize\n      sub\n      dup2\n      add\n      swap1\n      tag_47\n      swap2\n      swap1\n      tag_48\n      jump\t// in\n    tag_47:\n      tag_49\n      jump\t// in\n    tag_46:\n      mload(0x40)\n      tag_50\n      swap2\n      swap1\n      tag_39\n      jump\t// in\n    tag_50:\n      mload(0x40)\n      dup1\n      swap2\n      sub\n      swap1\n      return\n        /* \"Projects/horizon/contracts/SwapContract.sol\":3025:3731  function sellTokens(IERC20 token) public payable {... */\n    tag_9:\n      tag_51\n      0x04\n      dup1\n      calldatasize\n      sub\n      dup2\n      add\n      swap1\n      tag_52\n      swap2\n      swap1\n      tag_53\n      jump\t// in\n    tag_52:\n      tag_54\n      jump\t// in\n    tag_51:\n      stop\n        /* \"Projects/horizon/contracts/SwapContract.sol\":257:312  mapping (address => uint) public tokenAvailableBalances */\n    tag_10:\n      callvalue\n      dup1\n      iszero\n      tag_55\n      jumpi\n      0x00\n      dup1\n      revert\n    tag_55:\n      pop\n      tag_56\n      0x04\n      dup1\n      calldatasize\n      sub\n      dup2\n      add\n      swap1\n      tag_57\n      swap2\n      swap1\n      tag_48\n      jump\t// in\n    tag_57:\n      tag_58\n      jump\t// in\n    tag_56:\n      mload(0x40)\n      tag_59\n      swap2\n      swap1\n      tag_39\n      jump\t// in\n    tag_59:\n      mload(0x40)\n      dup1\n      swap2\n      sub\n      swap1\n      return\n        /* \"Projects/horizon/contracts/SwapContract.sol\":3737:5264  function swapTokens(IERC20 tokenToBuy, IERC20 tokenToSell, uint _amountToSell) public payable {... */\n    tag_11:\n      tag_60\n      0x04\n      dup1\n      calldatasize\n      sub\n      dup2\n      add\n      swap1\n      tag_61\n      swap2\n      swap1\n      tag_62\n      jump\t// in\n    tag_61:\n      tag_63\n      jump\t// in\n    tag_60:\n      stop\n        /* \"Projects/horizon/contracts/SwapContract.sol\":2287:3019  function buyTokens(IERC20 token) public payable {... */\n    tag_12:\n      tag_64\n      0x04\n      dup1\n      calldatasize\n      sub\n      dup2\n      add\n      swap1\n      tag_65\n      swap2\n      swap1\n      tag_53\n      jump\t// in\n    tag_65:\n      tag_66\n      jump\t// in\n    tag_64:\n      stop\n        /* \"Projects/horizon/contracts/SwapContract.sol\":1578:1907  function withdraw(uint amount, address payable destAddr) public {... */\n    tag_24:\n        /* \"Projects/horizon/contracts/SwapContract.sol\":1674:1679  owner */\n      0x00\n      dup1\n      sload\n      swap1\n      0x0100\n      exp\n      swap1\n      div\n      0xffffffffffffffffffffffffffffffffffffffff\n      and\n        /* \"Projects/horizon/contracts/SwapContract.sol\":1660:1679  msg.sender == owner */\n      0xffffffffffffffffffffffffffffffffffffffff\n      and\n        /* \"Projects/horizon/contracts/SwapContract.sol\":1660:1670  msg.sender */\n      caller\n        /* \"Projects/horizon/contracts/SwapContract.sol\":1660:1679  msg.sender == owner */\n      0xffffffffffffffffffffffffffffffffffffffff\n      and\n      eq\n        /* \"Projects/horizon/contracts/SwapContract.sol\":1652:1713  require(msg.sender == owner, \"Only owner can withdraw funds\") */\n      tag_68\n      jumpi\n      mload(0x40)\n      0x08c379a000000000000000000000000000000000000000000000000000000000\n      dup2\n      mstore\n      0x04\n      add\n      tag_69\n      swap1\n      tag_70\n      jump\t// in\n    tag_69:\n      mload(0x40)\n      dup1\n      swap2\n      sub\n      swap1\n      revert\n    tag_68:\n        /* \"Projects/horizon/contracts/SwapContract.sol\":1742:1749  balance */\n      sload(0x01)\n        /* \"Projects/horizon/contracts/SwapContract.sol\":1732:1738  amount */\n      dup3\n        /* \"Projects/horizon/contracts/SwapContract.sol\":1732:1749  amount <= balance */\n      gt\n      iszero\n        /* \"Projects/horizon/contracts/SwapContract.sol\":1724:1772  require(amount <= balance, \"Insufficient funds\") */\n      tag_71\n      jumpi\n      mload(0x40)\n      0x08c379a000000000000000000000000000000000000000000000000000000000\n      dup2\n      mstore\n      0x04\n      add\n      tag_72\n      swap1\n      tag_73\n      jump\t// in\n    tag_72:\n      mload(0x40)\n      dup1\n      swap2\n      sub\n      swap1\n      revert\n    tag_71:\n        /* \"Projects/horizon/contracts/SwapContract.sol\":1791:1799  destAddr */\n      dup1\n        /* \"Projects/horizon/contracts/SwapContract.sol\":1791:1808  destAddr.transfer */\n      0xffffffffffffffffffffffffffffffffffffffff\n      and\n        /* \"Projects/horizon/contracts/SwapContract.sol\":1791:1816  destAddr.transfer(amount) */\n      0x08fc\n        /* \"Projects/horizon/contracts/SwapContract.sol\":1809:1815  amount */\n      dup4\n        /* \"Projects/horizon/contracts/SwapContract.sol\":1791:1816  destAddr.transfer(amount) */\n      swap1\n      dup2\n      iszero\n      mul\n      swap1\n      mload(0x40)\n      0x00\n      mload(0x40)\n      dup1\n      dup4\n      sub\n      dup2\n      dup6\n      dup9\n      dup9\n      call\n      swap4\n      pop\n      pop\n      pop\n      pop\n      iszero\n      dup1\n      iszero\n      tag_75\n      jumpi\n      returndatasize\n      0x00\n      dup1\n      returndatacopy\n      revert(0x00, returndatasize)\n    tag_75:\n      pop\n        /* \"Projects/horizon/contracts/SwapContract.sol\":1837:1843  amount */\n      dup2\n        /* \"Projects/horizon/contracts/SwapContract.sol\":1826:1833  balance */\n      0x01\n      0x00\n        /* \"Projects/horizon/contracts/SwapContract.sol\":1826:1843  balance -= amount */\n      dup3\n      dup3\n      sload\n      tag_76\n      swap2\n      swap1\n      tag_77\n      jump\t// in\n    tag_76:\n      swap3\n      pop\n      pop\n      dup2\n      swap1\n      sstore\n      pop\n        /* \"Projects/horizon/contracts/SwapContract.sol\":1858:1900  TransferSent(msg.sender, destAddr, amount) */\n      0xfda3a3e0e1479b43cb1c701f7576187f4c4ad80768d627387e00184302f7d88e\n        /* \"Projects/horizon/contracts/SwapContract.sol\":1871:1881  msg.sender */\n      caller\n        /* \"Projects/horizon/contracts/SwapContract.sol\":1883:1891  destAddr */\n      dup3\n        /* \"Projects/horizon/contracts/SwapContract.sol\":1893:1899  amount */\n      dup5\n        /* \"Projects/horizon/contracts/SwapContract.sol\":1858:1900  TransferSent(msg.sender, destAddr, amount) */\n      mload(0x40)\n      tag_78\n      swap4\n      swap3\n      swap2\n      swap1\n      tag_79\n      jump\t// in\n    tag_78:\n      mload(0x40)\n      dup1\n      swap2\n      sub\n      swap1\n      log1\n        /* \"Projects/horizon/contracts/SwapContract.sol\":1578:1907  function withdraw(uint amount, address payable destAddr) public {... */\n      pop\n      pop\n      jump\t// out\n        /* \"Projects/horizon/contracts/SwapContract.sol\":143:163  address public owner */\n    tag_27:\n      0x00\n      dup1\n      sload\n      swap1\n      0x0100\n      exp\n      swap1\n      div\n      0xffffffffffffffffffffffffffffffffffffffff\n      and\n      dup2\n      jump\t// out\n        /* \"Projects/horizon/contracts/SwapContract.sol\":1917:2277  function transferERC20(IERC20 token, address to, uint256 amount) public {... */\n    tag_34:\n        /* \"Projects/horizon/contracts/SwapContract.sol\":2021:2026  owner */\n      0x00\n      dup1\n      sload\n      swap1\n      0x0100\n      exp\n      swap1\n      div\n      0xffffffffffffffffffffffffffffffffffffffff\n      and\n        /* \"Projects/horizon/contracts/SwapContract.sol\":2007:2026  msg.sender == owner */\n      0xffffffffffffffffffffffffffffffffffffffff\n      and\n        /* \"Projects/horizon/contracts/SwapContract.sol\":2007:2017  msg.sender */\n      caller\n        /* \"Projects/horizon/contracts/SwapContract.sol\":2007:2026  msg.sender == owner */\n      0xffffffffffffffffffffffffffffffffffffffff\n      and\n      eq\n        /* \"Projects/horizon/contracts/SwapContract.sol\":1999:2060  require(msg.sender == owner, \"Only owner can withdraw funds\") */\n      tag_81\n      jumpi\n      mload(0x40)\n      0x08c379a000000000000000000000000000000000000000000000000000000000\n      dup2\n      mstore\n      0x04\n      add\n      tag_82\n      swap1\n      tag_70\n      jump\t// in\n    tag_82:\n      mload(0x40)\n      dup1\n      swap2\n      sub\n      swap1\n      revert\n    tag_81:\n        /* \"Projects/horizon/contracts/SwapContract.sol\":2071:2091  uint256 erc20balance */\n      0x00\n        /* \"Projects/horizon/contracts/SwapContract.sol\":2094:2099  token */\n      dup4\n        /* \"Projects/horizon/contracts/SwapContract.sol\":2094:2109  token.balanceOf */\n      0xffffffffffffffffffffffffffffffffffffffff\n      and\n      0x70a08231\n        /* \"Projects/horizon/contracts/SwapContract.sol\":2118:2122  this */\n      address\n        /* \"Projects/horizon/contracts/SwapContract.sol\":2094:2124  token.balanceOf(address(this)) */\n      mload(0x40)\n      dup3\n      0xffffffff\n      and\n      0xe0\n      shl\n      dup2\n      mstore\n      0x04\n      add\n      tag_83\n      swap2\n      swap1\n      tag_29\n      jump\t// in\n    tag_83:\n      0x20\n      mload(0x40)\n      dup1\n      dup4\n      sub\n      dup2\n      dup7\n      dup1\n      extcodesize\n      iszero\n      dup1\n      iszero\n      tag_84\n      jumpi\n      0x00\n      dup1\n      revert\n    tag_84:\n      pop\n      gas\n      staticcall\n      iszero\n      dup1\n      iszero\n      tag_86\n      jumpi\n      returndatasize\n      0x00\n      dup1\n      returndatacopy\n      revert(0x00, returndatasize)\n    tag_86:\n      pop\n      pop\n      pop\n      pop\n      mload(0x40)\n      returndatasize\n      not(0x1f)\n      0x1f\n      dup3\n      add\n      and\n      dup3\n      add\n      dup1\n      0x40\n      mstore\n      pop\n      dup2\n      add\n      swap1\n      tag_87\n      swap2\n      swap1\n      tag_88\n      jump\t// in\n    tag_87:\n        /* \"Projects/horizon/contracts/SwapContract.sol\":2071:2124  uint256 erc20balance = token.balanceOf(address(this)) */\n      swap1\n      pop\n        /* \"Projects/horizon/contracts/SwapContract.sol\":2152:2164  erc20balance */\n      dup1\n        /* \"Projects/horizon/contracts/SwapContract.sol\":2142:2148  amount */\n      dup3\n        /* \"Projects/horizon/contracts/SwapContract.sol\":2142:2164  amount <= erc20balance */\n      gt\n      iszero\n        /* \"Projects/horizon/contracts/SwapContract.sol\":2134:2183  require(amount <= erc20balance, \"balance is low\") */\n      tag_89\n      jumpi\n      mload(0x40)\n      0x08c379a000000000000000000000000000000000000000000000000000000000\n      dup2\n      mstore\n      0x04\n      add\n      tag_90\n      swap1\n      tag_91\n      jump\t// in\n    tag_90:\n      mload(0x40)\n      dup1\n      swap2\n      sub\n      swap1\n      revert\n    tag_89:\n        /* \"Projects/horizon/contracts/SwapContract.sol\":2193:2198  token */\n      dup4\n        /* \"Projects/horizon/contracts/SwapContract.sol\":2193:2207  token.transfer */\n      0xffffffffffffffffffffffffffffffffffffffff\n      and\n      0xa9059cbb\n        /* \"Projects/horizon/contracts/SwapContract.sol\":2208:2210  to */\n      dup5\n        /* \"Projects/horizon/contracts/SwapContract.sol\":2212:2218  amount */\n      dup5\n        /* \"Projects/horizon/contracts/SwapContract.sol\":2193:2219  token.transfer(to, amount) */\n      mload(0x40)\n      dup4\n      0xffffffff\n      and\n      0xe0\n      shl\n      dup2\n      mstore\n      0x04\n      add\n      tag_92\n      swap3\n      swap2\n      swap1\n      tag_19\n      jump\t// in\n    tag_92:\n      0x20\n      mload(0x40)\n      dup1\n      dup4\n      sub\n      dup2\n      0x00\n      dup8\n      dup1\n      extcodesize\n      iszero\n      dup1\n      iszero\n      tag_93\n      jumpi\n      0x00\n      dup1\n      revert\n    tag_93:\n      pop\n      gas\n      call\n      iszero\n      dup1\n      iszero\n      tag_95\n      jumpi\n      returndatasize\n      0x00\n      dup1\n      returndatacopy\n      revert(0x00, returndatasize)\n    tag_95:\n      pop\n      pop\n      pop\n      pop\n      mload(0x40)\n      returndatasize\n      not(0x1f)\n      0x1f\n      dup3\n      add\n      and\n      dup3\n      add\n      dup1\n      0x40\n      mstore\n      pop\n      dup2\n      add\n      swap1\n      tag_96\n      swap2\n      swap1\n      tag_97\n      jump\t// in\n    tag_96:\n      pop\n        /* \"Projects/horizon/contracts/SwapContract.sol\":2234:2270  TransferSent(msg.sender, to, amount) */\n      0xfda3a3e0e1479b43cb1c701f7576187f4c4ad80768d627387e00184302f7d88e\n        /* \"Projects/horizon/contracts/SwapContract.sol\":2247:2257  msg.sender */\n      caller\n        /* \"Projects/horizon/contracts/SwapContract.sol\":2259:2261  to */\n      dup5\n        /* \"Projects/horizon/contracts/SwapContract.sol\":2263:2269  amount */\n      dup5\n        /* \"Projects/horizon/contracts/SwapContract.sol\":2234:2270  TransferSent(msg.sender, to, amount) */\n      mload(0x40)\n      tag_98\n      swap4\n      swap3\n      swap2\n      swap1\n      tag_99\n      jump\t// in\n    tag_98:\n      mload(0x40)\n      dup1\n      swap2\n      sub\n      swap1\n      log1\n        /* \"Projects/horizon/contracts/SwapContract.sol\":1989:2277  {... */\n      pop\n        /* \"Projects/horizon/contracts/SwapContract.sol\":1917:2277  function transferERC20(IERC20 token, address to, uint256 amount) public {... */\n      pop\n      pop\n      pop\n      jump\t// out\n        /* \"Projects/horizon/contracts/SwapContract.sol\":169:191  uint256 public balance */\n    tag_37:\n      sload(0x01)\n      dup2\n      jump\t// out\n        /* \"Projects/horizon/contracts/SwapContract.sol\":1334:1568  function updateTokenConversionRate(address token, uint tokenValueComparedToEth) public {... */\n    tag_44:\n        /* \"Projects/horizon/contracts/SwapContract.sol\":1453:1458  owner */\n      0x00\n      dup1\n      sload\n      swap1\n      0x0100\n      exp\n      swap1\n      div\n      0xffffffffffffffffffffffffffffffffffffffff\n      and\n        /* \"Projects/horizon/contracts/SwapContract.sol\":1439:1458  msg.sender == owner */\n      0xffffffffffffffffffffffffffffffffffffffff\n      and\n        /* \"Projects/horizon/contracts/SwapContract.sol\":1439:1449  msg.sender */\n      caller\n        /* \"Projects/horizon/contracts/SwapContract.sol\":1439:1458  msg.sender == owner */\n      0xffffffffffffffffffffffffffffffffffffffff\n      and\n      eq\n        /* \"Projects/horizon/contracts/SwapContract.sol\":1431:1497  require(msg.sender == owner, \"Only owner can set conversion rate\") */\n      tag_101\n      jumpi\n      mload(0x40)\n      0x08c379a000000000000000000000000000000000000000000000000000000000\n      dup2\n      mstore\n      0x04\n      add\n      tag_102\n      swap1\n      tag_103\n      jump\t// in\n    tag_102:\n      mload(0x40)\n      dup1\n      swap2\n      sub\n      swap1\n      revert\n    tag_101:\n        /* \"Projects/horizon/contracts/SwapContract.sol\":1538:1561  tokenValueComparedToEth */\n      dup1\n        /* \"Projects/horizon/contracts/SwapContract.sol\":1508:1528  tokenConversionRates */\n      0x02\n        /* \"Projects/horizon/contracts/SwapContract.sol\":1508:1535  tokenConversionRates[token] */\n      0x00\n        /* \"Projects/horizon/contracts/SwapContract.sol\":1529:1534  token */\n      dup5\n        /* \"Projects/horizon/contracts/SwapContract.sol\":1508:1535  tokenConversionRates[token] */\n      0xffffffffffffffffffffffffffffffffffffffff\n      and\n      0xffffffffffffffffffffffffffffffffffffffff\n      and\n      dup2\n      mstore\n      0x20\n      add\n      swap1\n      dup2\n      mstore\n      0x20\n      add\n      0x00\n      keccak256\n        /* \"Projects/horizon/contracts/SwapContract.sol\":1508:1561  tokenConversionRates[token] = tokenValueComparedToEth */\n      dup2\n      swap1\n      sstore\n      pop\n        /* \"Projects/horizon/contracts/SwapContract.sol\":1334:1568  function updateTokenConversionRate(address token, uint tokenValueComparedToEth) public {... */\n      pop\n      pop\n      jump\t// out\n        /* \"Projects/horizon/contracts/SwapContract.sol\":198:251  mapping (address => uint) public tokenConversionRates */\n    tag_49:\n      mstore(0x20, 0x02)\n      dup1\n      0x00\n      mstore\n      keccak256(0x00, 0x40)\n      0x00\n      swap2\n      pop\n      swap1\n      pop\n      sload\n      dup2\n      jump\t// out\n        /* \"Projects/horizon/contracts/SwapContract.sol\":3025:3731  function sellTokens(IERC20 token) public payable {... */\n    tag_54:\n        /* \"Projects/horizon/contracts/SwapContract.sol\":3123:3132  msg.value */\n      callvalue\n        /* \"Projects/horizon/contracts/SwapContract.sol\":3092:3097  token */\n      dup2\n        /* \"Projects/horizon/contracts/SwapContract.sol\":3092:3107  token.balanceOf */\n      0xffffffffffffffffffffffffffffffffffffffff\n      and\n      0x70a08231\n        /* \"Projects/horizon/contracts/SwapContract.sol\":3108:3118  msg.sender */\n      caller\n        /* \"Projects/horizon/contracts/SwapContract.sol\":3092:3119  token.balanceOf(msg.sender) */\n      mload(0x40)\n      dup3\n      0xffffffff\n      and\n      0xe0\n      shl\n      dup2\n      mstore\n      0x04\n      add\n      tag_105\n      swap2\n      swap1\n      tag_29\n      jump\t// in\n    tag_105:\n      0x20\n      mload(0x40)\n      dup1\n      dup4\n      sub\n      dup2\n      dup7\n      dup1\n      extcodesize\n      iszero\n      dup1\n      iszero\n      tag_106\n      jumpi\n      0x00\n      dup1\n      revert\n    tag_106:\n      pop\n      gas\n      staticcall\n      iszero\n      dup1\n      iszero\n      tag_108\n      jumpi\n      returndatasize\n      0x00\n      dup1\n      returndatacopy\n      revert(0x00, returndatasize)\n    tag_108:\n      pop\n      pop\n      pop\n      pop\n      mload(0x40)\n      returndatasize\n      not(0x1f)\n      0x1f\n      dup3\n      add\n      and\n      dup3\n      add\n      dup1\n      0x40\n      mstore\n      pop\n      dup2\n      add\n      swap1\n      tag_109\n      swap2\n      swap1\n      tag_88\n      jump\t// in\n    tag_109:\n        /* \"Projects/horizon/contracts/SwapContract.sol\":3092:3132  token.balanceOf(msg.sender) >= msg.value */\n      lt\n      iszero\n        /* \"Projects/horizon/contracts/SwapContract.sol\":3084:3189  require(token.balanceOf(msg.sender) >= msg.value, \"You can not sell more tokens than you currently hold\") */\n      tag_110\n      jumpi\n      mload(0x40)\n      0x08c379a000000000000000000000000000000000000000000000000000000000\n      dup2\n      mstore\n      0x04\n      add\n      tag_111\n      swap1\n      tag_112\n      jump\t// in\n    tag_111:\n      mload(0x40)\n      dup1\n      swap2\n      sub\n      swap1\n      revert\n    tag_110:\n        /* \"Projects/horizon/contracts/SwapContract.sol\":3248:3249  0 */\n      0x00\n        /* \"Projects/horizon/contracts/SwapContract.sol\":3208:3228  tokenConversionRates */\n      0x02\n        /* \"Projects/horizon/contracts/SwapContract.sol\":3208:3244  tokenConversionRates[address(token)] */\n      0x00\n        /* \"Projects/horizon/contracts/SwapContract.sol\":3237:3242  token */\n      dup4\n        /* \"Projects/horizon/contracts/SwapContract.sol\":3208:3244  tokenConversionRates[address(token)] */\n      0xffffffffffffffffffffffffffffffffffffffff\n      and\n      0xffffffffffffffffffffffffffffffffffffffff\n      and\n      dup2\n      mstore\n      0x20\n      add\n      swap1\n      dup2\n      mstore\n      0x20\n      add\n      0x00\n      keccak256\n      sload\n        /* \"Projects/horizon/contracts/SwapContract.sol\":3208:3249  tokenConversionRates[address(token)] != 0 */\n      eq\n      iszero\n        /* \"Projects/horizon/contracts/SwapContract.sol\":3200:3294  require(tokenConversionRates[address(token)] != 0, \"Token conversion rate is not defined yet\") */\n      tag_113\n      jumpi\n      mload(0x40)\n      0x08c379a000000000000000000000000000000000000000000000000000000000\n      dup2\n      mstore\n      0x04\n      add\n      tag_114\n      swap1\n      tag_115\n      jump\t// in\n    tag_114:\n      mload(0x40)\n      dup1\n      swap2\n      sub\n      swap1\n      revert\n    tag_113:\n        /* \"Projects/horizon/contracts/SwapContract.sol\":3304:3328  uint tokenConversionRate */\n      0x00\n        /* \"Projects/horizon/contracts/SwapContract.sol\":3331:3351  tokenConversionRates */\n      0x02\n        /* \"Projects/horizon/contracts/SwapContract.sol\":3331:3367  tokenConversionRates[address(token)] */\n      0x00\n        /* \"Projects/horizon/contracts/SwapContract.sol\":3360:3365  token */\n      dup4\n        /* \"Projects/horizon/contracts/SwapContract.sol\":3331:3367  tokenConversionRates[address(token)] */\n      0xffffffffffffffffffffffffffffffffffffffff\n      and\n      0xffffffffffffffffffffffffffffffffffffffff\n      and\n      dup2\n      mstore\n      0x20\n      add\n      swap1\n      dup2\n      mstore\n      0x20\n      add\n      0x00\n      keccak256\n      sload\n        /* \"Projects/horizon/contracts/SwapContract.sol\":3304:3367  uint tokenConversionRate = tokenConversionRates[address(token)] */\n      swap1\n      pop\n        /* \"Projects/horizon/contracts/SwapContract.sol\":3377:3393  uint etherAmount */\n      0x00\n        /* \"Projects/horizon/contracts/SwapContract.sol\":3408:3427  tokenConversionRate */\n      dup2\n        /* \"Projects/horizon/contracts/SwapContract.sol\":3396:3405  msg.value */\n      callvalue\n        /* \"Projects/horizon/contracts/SwapContract.sol\":3396:3427  msg.value / tokenConversionRate */\n      tag_116\n      swap2\n      swap1\n      tag_117\n      jump\t// in\n    tag_116:\n        /* \"Projects/horizon/contracts/SwapContract.sol\":3377:3427  uint etherAmount = msg.value / tokenConversionRate */\n      swap1\n      pop\n        /* \"Projects/horizon/contracts/SwapContract.sol\":3471:3482  etherAmount */\n      dup1\n        /* \"Projects/horizon/contracts/SwapContract.sol\":3446:3467  address(this).balance */\n      selfbalance\n        /* \"Projects/horizon/contracts/SwapContract.sol\":3446:3482  address(this).balance >= etherAmount */\n      lt\n      iszero\n        /* \"Projects/horizon/contracts/SwapContract.sol\":3438:3542  require(address(this).balance >= etherAmount, \"Swap contract does not have enough available ETH amount\") */\n      tag_118\n      jumpi\n      mload(0x40)\n      0x08c379a000000000000000000000000000000000000000000000000000000000\n      dup2\n      mstore\n      0x04\n      add\n      tag_119\n      swap1\n      tag_120\n      jump\t// in\n    tag_119:\n      mload(0x40)\n      dup1\n      swap2\n      sub\n      swap1\n      revert\n    tag_118:\n        /* \"Projects/horizon/contracts/SwapContract.sol\":3553:3558  token */\n      dup3\n        /* \"Projects/horizon/contracts/SwapContract.sol\":3553:3571  token.transferFrom */\n      0xffffffffffffffffffffffffffffffffffffffff\n      and\n      0x23b872dd\n        /* \"Projects/horizon/contracts/SwapContract.sol\":3572:3582  msg.sender */\n      caller\n        /* \"Projects/horizon/contracts/SwapContract.sol\":3592:3596  this */\n      address\n        /* \"Projects/horizon/contracts/SwapContract.sol\":3599:3608  msg.value */\n      callvalue\n        /* \"Projects/horizon/contracts/SwapContract.sol\":3553:3609  token.transferFrom(msg.sender, address(this), msg.value) */\n      mload(0x40)\n      dup5\n      0xffffffff\n      and\n      0xe0\n      shl\n      dup2\n      mstore\n      0x04\n      add\n      tag_121\n      swap4\n      swap3\n      swap2\n      swap1\n      tag_99\n      jump\t// in\n    tag_121:\n      0x20\n      mload(0x40)\n      dup1\n      dup4\n      sub\n      dup2\n      0x00\n      dup8\n      dup1\n      extcodesize\n      iszero\n      dup1\n      iszero\n      tag_122\n      jumpi\n      0x00\n      dup1\n      revert\n    tag_122:\n      pop\n      gas\n      call\n      iszero\n      dup1\n      iszero\n      tag_124\n      jumpi\n      returndatasize\n      0x00\n      dup1\n      returndatacopy\n      revert(0x00, returndatasize)\n    tag_124:\n      pop\n      pop\n      pop\n      pop\n      mload(0x40)\n      returndatasize\n      not(0x1f)\n      0x1f\n      dup3\n      add\n      and\n      dup3\n      add\n      dup1\n      0x40\n      mstore\n      pop\n      dup2\n      add\n      swap1\n      tag_125\n      swap2\n      swap1\n      tag_97\n      jump\t// in\n    tag_125:\n      pop\n        /* \"Projects/horizon/contracts/SwapContract.sol\":3627:3637  msg.sender */\n      caller\n        /* \"Projects/horizon/contracts/SwapContract.sol\":3619:3647  payable(msg.sender).transfer */\n      0xffffffffffffffffffffffffffffffffffffffff\n      and\n        /* \"Projects/horizon/contracts/SwapContract.sol\":3619:3660  payable(msg.sender).transfer(etherAmount) */\n      0x08fc\n        /* \"Projects/horizon/contracts/SwapContract.sol\":3648:3659  etherAmount */\n      dup3\n        /* \"Projects/horizon/contracts/SwapContract.sol\":3619:3660  payable(msg.sender).transfer(etherAmount) */\n      swap1\n      dup2\n      iszero\n      mul\n      swap1\n      mload(0x40)\n      0x00\n      mload(0x40)\n      dup1\n      dup4\n      sub\n      dup2\n      dup6\n      dup9\n      dup9\n      call\n      swap4\n      pop\n      pop\n      pop\n      pop\n      iszero\n      dup1\n      iszero\n      tag_127\n      jumpi\n      returndatasize\n      0x00\n      dup1\n      returndatacopy\n      revert(0x00, returndatasize)\n    tag_127:\n      pop\n        /* \"Projects/horizon/contracts/SwapContract.sol\":3675:3724  TokensSold(msg.sender, address(token), msg.value) */\n      0x481809cba951bfbd752234d0504d4719277804f87f6e0da1b5b486c80d808fe4\n        /* \"Projects/horizon/contracts/SwapContract.sol\":3686:3696  msg.sender */\n      caller\n        /* \"Projects/horizon/contracts/SwapContract.sol\":3706:3711  token */\n      dup5\n        /* \"Projects/horizon/contracts/SwapContract.sol\":3714:3723  msg.value */\n      callvalue\n        /* \"Projects/horizon/contracts/SwapContract.sol\":3675:3724  TokensSold(msg.sender, address(token), msg.value) */\n      mload(0x40)\n      tag_128\n      swap4\n      swap3\n      swap2\n      swap1\n      tag_99\n      jump\t// in\n    tag_128:\n      mload(0x40)\n      dup1\n      swap2\n      sub\n      swap1\n      log1\n        /* \"Projects/horizon/contracts/SwapContract.sol\":3074:3731  {... */\n      pop\n      pop\n        /* \"Projects/horizon/contracts/SwapContract.sol\":3025:3731  function sellTokens(IERC20 token) public payable {... */\n      pop\n      jump\t// out\n        /* \"Projects/horizon/contracts/SwapContract.sol\":257:312  mapping (address => uint) public tokenAvailableBalances */\n    tag_58:\n      mstore(0x20, 0x03)\n      dup1\n      0x00\n      mstore\n      keccak256(0x00, 0x40)\n      0x00\n      swap2\n      pop\n      swap1\n      pop\n      sload\n      dup2\n      jump\t// out\n        /* \"Projects/horizon/contracts/SwapContract.sol\":3737:5264  function swapTokens(IERC20 tokenToBuy, IERC20 tokenToSell, uint _amountToSell) public payable {... */\n    tag_63:\n        /* \"Projects/horizon/contracts/SwapContract.sol\":4066:4079  _amountToSell */\n      dup1\n        /* \"Projects/horizon/contracts/SwapContract.sol\":4020:4031  tokenToSell */\n      dup3\n        /* \"Projects/horizon/contracts/SwapContract.sol\":4020:4041  tokenToSell.balanceOf */\n      0xffffffffffffffffffffffffffffffffffffffff\n      and\n      0x70a08231\n        /* \"Projects/horizon/contracts/SwapContract.sol\":4050:4060  msg.sender */\n      caller\n        /* \"Projects/horizon/contracts/SwapContract.sol\":4020:4062  tokenToSell.balanceOf(address(msg.sender)) */\n      mload(0x40)\n      dup3\n      0xffffffff\n      and\n      0xe0\n      shl\n      dup2\n      mstore\n      0x04\n      add\n      tag_130\n      swap2\n      swap1\n      tag_29\n      jump\t// in\n    tag_130:\n      0x20\n      mload(0x40)\n      dup1\n      dup4\n      sub\n      dup2\n      dup7\n      dup1\n      extcodesize\n      iszero\n      dup1\n      iszero\n      tag_131\n      jumpi\n      0x00\n      dup1\n      revert\n    tag_131:\n      pop\n      gas\n      staticcall\n      iszero\n      dup1\n      iszero\n      tag_133\n      jumpi\n      returndatasize\n      0x00\n      dup1\n      returndatacopy\n      revert(0x00, returndatasize)\n    tag_133:\n      pop\n      pop\n      pop\n      pop\n      mload(0x40)\n      returndatasize\n      not(0x1f)\n      0x1f\n      dup3\n      add\n      and\n      dup3\n      add\n      dup1\n      0x40\n      mstore\n      pop\n      dup2\n      add\n      swap1\n      tag_134\n      swap2\n      swap1\n      tag_88\n      jump\t// in\n    tag_134:\n        /* \"Projects/horizon/contracts/SwapContract.sol\":4020:4079  tokenToSell.balanceOf(address(msg.sender)) <= _amountToSell */\n      gt\n      iszero\n        /* \"Projects/horizon/contracts/SwapContract.sol\":4012:4123  require(tokenToSell.balanceOf(address(msg.sender)) <= _amountToSell, \"Not enough funds to swap on user wallet\") */\n      tag_135\n      jumpi\n      mload(0x40)\n      0x08c379a000000000000000000000000000000000000000000000000000000000\n      dup2\n      mstore\n      0x04\n      add\n      tag_136\n      swap1\n      tag_137\n      jump\t// in\n    tag_136:\n      mload(0x40)\n      dup1\n      swap2\n      sub\n      swap1\n      revert\n    tag_135:\n        /* \"Projects/horizon/contracts/SwapContract.sol\":4462:4463  0 */\n      0x00\n        /* \"Projects/horizon/contracts/SwapContract.sol\":4417:4437  tokenConversionRates */\n      0x02\n        /* \"Projects/horizon/contracts/SwapContract.sol\":4417:4458  tokenConversionRates[address(tokenToBuy)] */\n      0x00\n        /* \"Projects/horizon/contracts/SwapContract.sol\":4446:4456  tokenToBuy */\n      dup6\n        /* \"Projects/horizon/contracts/SwapContract.sol\":4417:4458  tokenConversionRates[address(tokenToBuy)] */\n      0xffffffffffffffffffffffffffffffffffffffff\n      and\n      0xffffffffffffffffffffffffffffffffffffffff\n      and\n      dup2\n      mstore\n      0x20\n      add\n      swap1\n      dup2\n      mstore\n      0x20\n      add\n      0x00\n      keccak256\n      sload\n        /* \"Projects/horizon/contracts/SwapContract.sol\":4417:4463  tokenConversionRates[address(tokenToBuy)] != 0 */\n      eq\n      iszero\n        /* \"Projects/horizon/contracts/SwapContract.sol\":4409:4522  require(tokenConversionRates[address(tokenToBuy)] != 0, \"Token which you buy conversion rate is not defined yet\") */\n      tag_138\n      jumpi\n      mload(0x40)\n      0x08c379a000000000000000000000000000000000000000000000000000000000\n      dup2\n      mstore\n      0x04\n      add\n      tag_139\n      swap1\n      tag_140\n      jump\t// in\n    tag_139:\n      mload(0x40)\n      dup1\n      swap2\n      sub\n      swap1\n      revert\n    tag_138:\n        /* \"Projects/horizon/contracts/SwapContract.sol\":4586:4587  0 */\n      0x00\n        /* \"Projects/horizon/contracts/SwapContract.sol\":4540:4560  tokenConversionRates */\n      0x02\n        /* \"Projects/horizon/contracts/SwapContract.sol\":4540:4582  tokenConversionRates[address(tokenToSell)] */\n      0x00\n        /* \"Projects/horizon/contracts/SwapContract.sol\":4569:4580  tokenToSell */\n      dup5\n        /* \"Projects/horizon/contracts/SwapContract.sol\":4540:4582  tokenConversionRates[address(tokenToSell)] */\n      0xffffffffffffffffffffffffffffffffffffffff\n      and\n      0xffffffffffffffffffffffffffffffffffffffff\n      and\n      dup2\n      mstore\n      0x20\n      add\n      swap1\n      dup2\n      mstore\n      0x20\n      add\n      0x00\n      keccak256\n      sload\n        /* \"Projects/horizon/contracts/SwapContract.sol\":4540:4587  tokenConversionRates[address(tokenToSell)] != 0 */\n      eq\n      iszero\n        /* \"Projects/horizon/contracts/SwapContract.sol\":4532:4647  require(tokenConversionRates[address(tokenToSell)] != 0, \"Token which you sell conversion rate is not defined yet\") */\n      tag_141\n      jumpi\n      mload(0x40)\n      0x08c379a000000000000000000000000000000000000000000000000000000000\n      dup2\n      mstore\n      0x04\n      add\n      tag_142\n      swap1\n      tag_143\n      jump\t// in\n    tag_142:\n      mload(0x40)\n      dup1\n      swap2\n      sub\n      swap1\n      revert\n    tag_141:\n        /* \"Projects/horizon/contracts/SwapContract.sol\":4657:4678  uint tokenToBuyAmount */\n      0x00\n        /* \"Projects/horizon/contracts/SwapContract.sol\":4742:4762  tokenConversionRates */\n      0x02\n        /* \"Projects/horizon/contracts/SwapContract.sol\":4742:4783  tokenConversionRates[address(tokenToBuy)] */\n      0x00\n        /* \"Projects/horizon/contracts/SwapContract.sol\":4771:4781  tokenToBuy */\n      dup6\n        /* \"Projects/horizon/contracts/SwapContract.sol\":4742:4783  tokenConversionRates[address(tokenToBuy)] */\n      0xffffffffffffffffffffffffffffffffffffffff\n      and\n      0xffffffffffffffffffffffffffffffffffffffff\n      and\n      dup2\n      mstore\n      0x20\n      add\n      swap1\n      dup2\n      mstore\n      0x20\n      add\n      0x00\n      keccak256\n      sload\n        /* \"Projects/horizon/contracts/SwapContract.sol\":4697:4717  tokenConversionRates */\n      0x02\n        /* \"Projects/horizon/contracts/SwapContract.sol\":4697:4739  tokenConversionRates[address(tokenToSell)] */\n      0x00\n        /* \"Projects/horizon/contracts/SwapContract.sol\":4726:4737  tokenToSell */\n      dup6\n        /* \"Projects/horizon/contracts/SwapContract.sol\":4697:4739  tokenConversionRates[address(tokenToSell)] */\n      0xffffffffffffffffffffffffffffffffffffffff\n      and\n      0xffffffffffffffffffffffffffffffffffffffff\n      and\n      dup2\n      mstore\n      0x20\n      add\n      swap1\n      dup2\n      mstore\n      0x20\n      add\n      0x00\n      keccak256\n      sload\n        /* \"Projects/horizon/contracts/SwapContract.sol\":4681:4694  _amountToSell */\n      dup4\n        /* \"Projects/horizon/contracts/SwapContract.sol\":4681:4739  _amountToSell / tokenConversionRates[address(tokenToSell)] */\n      tag_144\n      swap2\n      swap1\n      tag_117\n      jump\t// in\n    tag_144:\n        /* \"Projects/horizon/contracts/SwapContract.sol\":4681:4783  _amountToSell / tokenConversionRates[address(tokenToSell)] * tokenConversionRates[address(tokenToBuy)] */\n      tag_145\n      swap2\n      swap1\n      tag_146\n      jump\t// in\n    tag_145:\n        /* \"Projects/horizon/contracts/SwapContract.sol\":4657:4783  uint tokenToBuyAmount = _amountToSell / tokenConversionRates[address(tokenToSell)] * tokenConversionRates[address(tokenToBuy)] */\n      swap1\n      pop\n        /* \"Projects/horizon/contracts/SwapContract.sol\":4840:4856  tokenToBuyAmount */\n      dup1\n        /* \"Projects/horizon/contracts/SwapContract.sol\":4801:4811  tokenToBuy */\n      dup5\n        /* \"Projects/horizon/contracts/SwapContract.sol\":4801:4821  tokenToBuy.balanceOf */\n      0xffffffffffffffffffffffffffffffffffffffff\n      and\n      0x70a08231\n        /* \"Projects/horizon/contracts/SwapContract.sol\":4830:4834  this */\n      address\n        /* \"Projects/horizon/contracts/SwapContract.sol\":4801:4836  tokenToBuy.balanceOf(address(this)) */\n      mload(0x40)\n      dup3\n      0xffffffff\n      and\n      0xe0\n      shl\n      dup2\n      mstore\n      0x04\n      add\n      tag_147\n      swap2\n      swap1\n      tag_29\n      jump\t// in\n    tag_147:\n      0x20\n      mload(0x40)\n      dup1\n      dup4\n      sub\n      dup2\n      dup7\n      dup1\n      extcodesize\n      iszero\n      dup1\n      iszero\n      tag_148\n      jumpi\n      0x00\n      dup1\n      revert\n    tag_148:\n      pop\n      gas\n      staticcall\n      iszero\n      dup1\n      iszero\n      tag_150\n      jumpi\n      returndatasize\n      0x00\n      dup1\n      returndatacopy\n      revert(0x00, returndatasize)\n    tag_150:\n      pop\n      pop\n      pop\n      pop\n      mload(0x40)\n      returndatasize\n      not(0x1f)\n      0x1f\n      dup3\n      add\n      and\n      dup3\n      add\n      dup1\n      0x40\n      mstore\n      pop\n      dup2\n      add\n      swap1\n      tag_151\n      swap2\n      swap1\n      tag_88\n      jump\t// in\n    tag_151:\n        /* \"Projects/horizon/contracts/SwapContract.sol\":4801:4856  tokenToBuy.balanceOf(address(this)) <= tokenToBuyAmount */\n      gt\n      iszero\n        /* \"Projects/horizon/contracts/SwapContract.sol\":4793:4888  require(tokenToBuy.balanceOf(address(this)) <= tokenToBuyAmount, \"Not enough funds on EthSwap\") */\n      tag_152\n      jumpi\n      mload(0x40)\n      0x08c379a000000000000000000000000000000000000000000000000000000000\n      dup2\n      mstore\n      0x04\n      add\n      tag_153\n      swap1\n      tag_154\n      jump\t// in\n    tag_153:\n      mload(0x40)\n      dup1\n      swap2\n      sub\n      swap1\n      revert\n    tag_152:\n        /* \"Projects/horizon/contracts/SwapContract.sol\":4988:4998  tokenToBuy */\n      dup4\n        /* \"Projects/horizon/contracts/SwapContract.sol\":4988:5011  tokenToBuy.transferFrom */\n      0xffffffffffffffffffffffffffffffffffffffff\n      and\n      0x23b872dd\n        /* \"Projects/horizon/contracts/SwapContract.sol\":5020:5024  this */\n      address\n        /* \"Projects/horizon/contracts/SwapContract.sol\":5027:5037  msg.sender */\n      caller\n        /* \"Projects/horizon/contracts/SwapContract.sol\":5039:5055  tokenToBuyAmount */\n      dup5\n        /* \"Projects/horizon/contracts/SwapContract.sol\":4988:5056  tokenToBuy.transferFrom(address(this), msg.sender, tokenToBuyAmount) */\n      mload(0x40)\n      dup5\n      0xffffffff\n      and\n      0xe0\n      shl\n      dup2\n      mstore\n      0x04\n      add\n      tag_155\n      swap4\n      swap3\n      swap2\n      swap1\n      tag_99\n      jump\t// in\n    tag_155:\n      0x20\n      mload(0x40)\n      dup1\n      dup4\n      sub\n      dup2\n      0x00\n      dup8\n      dup1\n      extcodesize\n      iszero\n      dup1\n      iszero\n      tag_156\n      jumpi\n      0x00\n      dup1\n      revert\n    tag_156:\n      pop\n      gas\n      call\n      iszero\n      dup1\n      iszero\n      tag_158\n      jumpi\n      returndatasize\n      0x00\n      dup1\n      returndatacopy\n      revert(0x00, returndatasize)\n    tag_158:\n      pop\n      pop\n      pop\n      pop\n      mload(0x40)\n      returndatasize\n      not(0x1f)\n      0x1f\n      dup3\n      add\n      and\n      dup3\n      add\n      dup1\n      0x40\n      mstore\n      pop\n      dup2\n      add\n      swap1\n      tag_159\n      swap2\n      swap1\n      tag_97\n      jump\t// in\n    tag_159:\n      pop\n        /* \"Projects/horizon/contracts/SwapContract.sol\":5066:5077  tokenToSell */\n      dup3\n        /* \"Projects/horizon/contracts/SwapContract.sol\":5066:5090  tokenToSell.transferFrom */\n      0xffffffffffffffffffffffffffffffffffffffff\n      and\n      0x23b872dd\n        /* \"Projects/horizon/contracts/SwapContract.sol\":5091:5101  msg.sender */\n      caller\n        /* \"Projects/horizon/contracts/SwapContract.sol\":5111:5115  this */\n      address\n        /* \"Projects/horizon/contracts/SwapContract.sol\":5118:5131  _amountToSell */\n      dup6\n        /* \"Projects/horizon/contracts/SwapContract.sol\":5066:5132  tokenToSell.transferFrom(msg.sender, address(this), _amountToSell) */\n      mload(0x40)\n      dup5\n      0xffffffff\n      and\n      0xe0\n      shl\n      dup2\n      mstore\n      0x04\n      add\n      tag_160\n      swap4\n      swap3\n      swap2\n      swap1\n      tag_99\n      jump\t// in\n    tag_160:\n      0x20\n      mload(0x40)\n      dup1\n      dup4\n      sub\n      dup2\n      0x00\n      dup8\n      dup1\n      extcodesize\n      iszero\n      dup1\n      iszero\n      tag_161\n      jumpi\n      0x00\n      dup1\n      revert\n    tag_161:\n      pop\n      gas\n      call\n      iszero\n      dup1\n      iszero\n      tag_163\n      jumpi\n      returndatasize\n      0x00\n      dup1\n      returndatacopy\n      revert(0x00, returndatasize)\n    tag_163:\n      pop\n      pop\n      pop\n      pop\n      mload(0x40)\n      returndatasize\n      not(0x1f)\n      0x1f\n      dup3\n      add\n      and\n      dup3\n      add\n      dup1\n      0x40\n      mstore\n      pop\n      dup2\n      add\n      swap1\n      tag_164\n      swap2\n      swap1\n      tag_97\n      jump\t// in\n    tag_164:\n      pop\n        /* \"Projects/horizon/contracts/SwapContract.sol\":5156:5257  TokensSwapped(msg.sender, address(tokenToBuy), address(tokenToSell), tokenToBuyAmount, _amountToSell) */\n      0xad56699d0f375866eb895ed27203058a36a713382aaded78eb6b67da266d4332\n        /* \"Projects/horizon/contracts/SwapContract.sol\":5170:5180  msg.sender */\n      caller\n        /* \"Projects/horizon/contracts/SwapContract.sol\":5190:5200  tokenToBuy */\n      dup6\n        /* \"Projects/horizon/contracts/SwapContract.sol\":5211:5222  tokenToSell */\n      dup6\n        /* \"Projects/horizon/contracts/SwapContract.sol\":5225:5241  tokenToBuyAmount */\n      dup5\n        /* \"Projects/horizon/contracts/SwapContract.sol\":5243:5256  _amountToSell */\n      dup7\n        /* \"Projects/horizon/contracts/SwapContract.sol\":5156:5257  TokensSwapped(msg.sender, address(tokenToBuy), address(tokenToSell), tokenToBuyAmount, _amountToSell) */\n      mload(0x40)\n      tag_165\n      swap6\n      swap5\n      swap4\n      swap3\n      swap2\n      swap1\n      tag_166\n      jump\t// in\n    tag_165:\n      mload(0x40)\n      dup1\n      swap2\n      sub\n      swap1\n      log1\n        /* \"Projects/horizon/contracts/SwapContract.sol\":3831:5264  {... */\n      pop\n        /* \"Projects/horizon/contracts/SwapContract.sol\":3737:5264  function swapTokens(IERC20 tokenToBuy, IERC20 tokenToSell, uint _amountToSell) public payable {... */\n      pop\n      pop\n      pop\n      jump\t// out\n        /* \"Projects/horizon/contracts/SwapContract.sol\":2287:3019  function buyTokens(IERC20 token) public payable {... */\n    tag_66:\n        /* \"Projects/horizon/contracts/SwapContract.sol\":2505:2506  0 */\n      0x00\n        /* \"Projects/horizon/contracts/SwapContract.sol\":2465:2485  tokenConversionRates */\n      0x02\n        /* \"Projects/horizon/contracts/SwapContract.sol\":2465:2501  tokenConversionRates[address(token)] */\n      0x00\n        /* \"Projects/horizon/contracts/SwapContract.sol\":2494:2499  token */\n      dup4\n        /* \"Projects/horizon/contracts/SwapContract.sol\":2465:2501  tokenConversionRates[address(token)] */\n      0xffffffffffffffffffffffffffffffffffffffff\n      and\n      0xffffffffffffffffffffffffffffffffffffffff\n      and\n      dup2\n      mstore\n      0x20\n      add\n      swap1\n      dup2\n      mstore\n      0x20\n      add\n      0x00\n      keccak256\n      sload\n        /* \"Projects/horizon/contracts/SwapContract.sol\":2465:2506  tokenConversionRates[address(token)] != 0 */\n      eq\n      iszero\n        /* \"Projects/horizon/contracts/SwapContract.sol\":2457:2551  require(tokenConversionRates[address(token)] != 0, \"Token conversion rate is not defined yet\") */\n      tag_168\n      jumpi\n      mload(0x40)\n      0x08c379a000000000000000000000000000000000000000000000000000000000\n      dup2\n      mstore\n      0x04\n      add\n      tag_169\n      swap1\n      tag_115\n      jump\t// in\n    tag_169:\n      mload(0x40)\n      dup1\n      swap2\n      sub\n      swap1\n      revert\n    tag_168:\n        /* \"Projects/horizon/contracts/SwapContract.sol\":2561:2585  uint tokenConversionRate */\n      0x00\n        /* \"Projects/horizon/contracts/SwapContract.sol\":2588:2608  tokenConversionRates */\n      0x02\n        /* \"Projects/horizon/contracts/SwapContract.sol\":2588:2624  tokenConversionRates[address(token)] */\n      0x00\n        /* \"Projects/horizon/contracts/SwapContract.sol\":2617:2622  token */\n      dup4\n        /* \"Projects/horizon/contracts/SwapContract.sol\":2588:2624  tokenConversionRates[address(token)] */\n      0xffffffffffffffffffffffffffffffffffffffff\n      and\n      0xffffffffffffffffffffffffffffffffffffffff\n      and\n      dup2\n      mstore\n      0x20\n      add\n      swap1\n      dup2\n      mstore\n      0x20\n      add\n      0x00\n      keccak256\n      sload\n        /* \"Projects/horizon/contracts/SwapContract.sol\":2561:2624  uint tokenConversionRate = tokenConversionRates[address(token)] */\n      swap1\n      pop\n        /* \"Projects/horizon/contracts/SwapContract.sol\":2634:2650  uint tokenAmount */\n      0x00\n        /* \"Projects/horizon/contracts/SwapContract.sol\":2665:2684  tokenConversionRate */\n      dup2\n        /* \"Projects/horizon/contracts/SwapContract.sol\":2653:2662  msg.value */\n      callvalue\n        /* \"Projects/horizon/contracts/SwapContract.sol\":2653:2684  msg.value * tokenConversionRate */\n      tag_170\n      swap2\n      swap1\n      tag_146\n      jump\t// in\n    tag_170:\n        /* \"Projects/horizon/contracts/SwapContract.sol\":2634:2684  uint tokenAmount = msg.value * tokenConversionRate */\n      swap1\n      pop\n        /* \"Projects/horizon/contracts/SwapContract.sol\":2786:2797  tokenAmount */\n      dup1\n        /* \"Projects/horizon/contracts/SwapContract.sol\":2752:2757  token */\n      dup4\n        /* \"Projects/horizon/contracts/SwapContract.sol\":2752:2767  token.balanceOf */\n      0xffffffffffffffffffffffffffffffffffffffff\n      and\n      0x70a08231\n        /* \"Projects/horizon/contracts/SwapContract.sol\":2776:2780  this */\n      address\n        /* \"Projects/horizon/contracts/SwapContract.sol\":2752:2782  token.balanceOf(address(this)) */\n      mload(0x40)\n      dup3\n      0xffffffff\n      and\n      0xe0\n      shl\n      dup2\n      mstore\n      0x04\n      add\n      tag_171\n      swap2\n      swap1\n      tag_29\n      jump\t// in\n    tag_171:\n      0x20\n      mload(0x40)\n      dup1\n      dup4\n      sub\n      dup2\n      dup7\n      dup1\n      extcodesize\n      iszero\n      dup1\n      iszero\n      tag_172\n      jumpi\n      0x00\n      dup1\n      revert\n    tag_172:\n      pop\n      gas\n      staticcall\n      iszero\n      dup1\n      iszero\n      tag_174\n      jumpi\n      returndatasize\n      0x00\n      dup1\n      returndatacopy\n      revert(0x00, returndatasize)\n    tag_174:\n      pop\n      pop\n      pop\n      pop\n      mload(0x40)\n      returndatasize\n      not(0x1f)\n      0x1f\n      dup3\n      add\n      and\n      dup3\n      add\n      dup1\n      0x40\n      mstore\n      pop\n      dup2\n      add\n      swap1\n      tag_175\n      swap2\n      swap1\n      tag_88\n      jump\t// in\n    tag_175:\n        /* \"Projects/horizon/contracts/SwapContract.sol\":2752:2797  token.balanceOf(address(this)) >= tokenAmount */\n      lt\n      iszero\n        /* \"Projects/horizon/contracts/SwapContract.sol\":2744:2853  require(token.balanceOf(address(this)) >= tokenAmount, \"Not enough tokens on swap contract available to buy\") */\n      tag_176\n      jumpi\n      mload(0x40)\n      0x08c379a000000000000000000000000000000000000000000000000000000000\n      dup2\n      mstore\n      0x04\n      add\n      tag_177\n      swap1\n      tag_178\n      jump\t// in\n    tag_177:\n      mload(0x40)\n      dup1\n      swap2\n      sub\n      swap1\n      revert\n    tag_176:\n        /* \"Projects/horizon/contracts/SwapContract.sol\":2902:2907  token */\n      dup3\n        /* \"Projects/horizon/contracts/SwapContract.sol\":2902:2916  token.transfer */\n      0xffffffffffffffffffffffffffffffffffffffff\n      and\n      0xa9059cbb\n        /* \"Projects/horizon/contracts/SwapContract.sol\":2917:2927  msg.sender */\n      caller\n        /* \"Projects/horizon/contracts/SwapContract.sol\":2929:2940  tokenAmount */\n      dup4\n        /* \"Projects/horizon/contracts/SwapContract.sol\":2902:2941  token.transfer(msg.sender, tokenAmount) */\n      mload(0x40)\n      dup4\n      0xffffffff\n      and\n      0xe0\n      shl\n      dup2\n      mstore\n      0x04\n      add\n      tag_179\n      swap3\n      swap2\n      swap1\n      tag_19\n      jump\t// in\n    tag_179:\n      0x20\n      mload(0x40)\n      dup1\n      dup4\n      sub\n      dup2\n      0x00\n      dup8\n      dup1\n      extcodesize\n      iszero\n      dup1\n      iszero\n      tag_180\n      jumpi\n      0x00\n      dup1\n      revert\n    tag_180:\n      pop\n      gas\n      call\n      iszero\n      dup1\n      iszero\n      tag_182\n      jumpi\n      returndatasize\n      0x00\n      dup1\n      returndatacopy\n      revert(0x00, returndatasize)\n    tag_182:\n      pop\n      pop\n      pop\n      pop\n      mload(0x40)\n      returndatasize\n      not(0x1f)\n      0x1f\n      dup3\n      add\n      and\n      dup3\n      add\n      dup1\n      0x40\n      mstore\n      pop\n      dup2\n      add\n      swap1\n      tag_183\n      swap2\n      swap1\n      tag_97\n      jump\t// in\n    tag_183:\n      pop\n        /* \"Projects/horizon/contracts/SwapContract.sol\":2956:3012  TokensPurchased(msg.sender, address(token), tokenAmount) */\n      0xf9b4eb3e43eebbf559e9b96ceff1c786a7edab2938c7f5f80678197c2e0edba5\n        /* \"Projects/horizon/contracts/SwapContract.sol\":2972:2982  msg.sender */\n      caller\n        /* \"Projects/horizon/contracts/SwapContract.sol\":2992:2997  token */\n      dup5\n        /* \"Projects/horizon/contracts/SwapContract.sol\":3000:3011  tokenAmount */\n      dup4\n        /* \"Projects/horizon/contracts/SwapContract.sol\":2956:3012  TokensPurchased(msg.sender, address(token), tokenAmount) */\n      mload(0x40)\n      tag_184\n      swap4\n      swap3\n      swap2\n      swap1\n      tag_99\n      jump\t// in\n    tag_184:\n      mload(0x40)\n      dup1\n      swap2\n      sub\n      swap1\n      log1\n        /* \"Projects/horizon/contracts/SwapContract.sol\":2335:3019  {... */\n      pop\n      pop\n        /* \"Projects/horizon/contracts/SwapContract.sol\":2287:3019  function buyTokens(IERC20 token) public payable {... */\n      pop\n      jump\t// out\n        /* \"#utility.yul\":7:146   */\n    tag_186:\n        /* \"#utility.yul\":53:58   */\n      0x00\n        /* \"#utility.yul\":91:97   */\n      dup2\n        /* \"#utility.yul\":78:98   */\n      calldataload\n        /* \"#utility.yul\":69:98   */\n      swap1\n      pop\n        /* \"#utility.yul\":107:140   */\n      tag_188\n        /* \"#utility.yul\":134:139   */\n      dup2\n        /* \"#utility.yul\":107:140   */\n      tag_189\n      jump\t// in\n    tag_188:\n        /* \"#utility.yul\":7:146   */\n      swap3\n      swap2\n      pop\n      pop\n      jump\t// out\n        /* \"#utility.yul\":152:307   */\n    tag_190:\n        /* \"#utility.yul\":206:211   */\n      0x00\n        /* \"#utility.yul\":244:250   */\n      dup2\n        /* \"#utility.yul\":231:251   */\n      calldataload\n        /* \"#utility.yul\":222:251   */\n      swap1\n      pop\n        /* \"#utility.yul\":260:301   */\n      tag_192\n        /* \"#utility.yul\":295:300   */\n      dup2\n        /* \"#utility.yul\":260:301   */\n      tag_193\n      jump\t// in\n    tag_192:\n        /* \"#utility.yul\":152:307   */\n      swap3\n      swap2\n      pop\n      pop\n      jump\t// out\n        /* \"#utility.yul\":313:450   */\n    tag_194:\n        /* \"#utility.yul\":367:372   */\n      0x00\n        /* \"#utility.yul\":398:404   */\n      dup2\n        /* \"#utility.yul\":392:405   */\n      mload\n        /* \"#utility.yul\":383:405   */\n      swap1\n      pop\n        /* \"#utility.yul\":414:444   */\n      tag_196\n        /* \"#utility.yul\":438:443   */\n      dup2\n        /* \"#utility.yul\":414:444   */\n      tag_197\n      jump\t// in\n    tag_196:\n        /* \"#utility.yul\":313:450   */\n      swap3\n      swap2\n      pop\n      pop\n      jump\t// out\n        /* \"#utility.yul\":456:621   */\n    tag_198:\n        /* \"#utility.yul\":515:520   */\n      0x00\n        /* \"#utility.yul\":553:559   */\n      dup2\n        /* \"#utility.yul\":540:560   */\n      calldataload\n        /* \"#utility.yul\":531:560   */\n      swap1\n      pop\n        /* \"#utility.yul\":569:615   */\n      tag_200\n        /* \"#utility.yul\":609:614   */\n      dup2\n        /* \"#utility.yul\":569:615   */\n      tag_201\n      jump\t// in\n    tag_200:\n        /* \"#utility.yul\":456:621   */\n      swap3\n      swap2\n      pop\n      pop\n      jump\t// out\n        /* \"#utility.yul\":627:766   */\n    tag_202:\n        /* \"#utility.yul\":673:678   */\n      0x00\n        /* \"#utility.yul\":711:717   */\n      dup2\n        /* \"#utility.yul\":698:718   */\n      calldataload\n        /* \"#utility.yul\":689:718   */\n      swap1\n      pop\n        /* \"#utility.yul\":727:760   */\n      tag_204\n        /* \"#utility.yul\":754:759   */\n      dup2\n        /* \"#utility.yul\":727:760   */\n      tag_205\n      jump\t// in\n    tag_204:\n        /* \"#utility.yul\":627:766   */\n      swap3\n      swap2\n      pop\n      pop\n      jump\t// out\n        /* \"#utility.yul\":772:915   */\n    tag_206:\n        /* \"#utility.yul\":829:834   */\n      0x00\n        /* \"#utility.yul\":860:866   */\n      dup2\n        /* \"#utility.yul\":854:867   */\n      mload\n        /* \"#utility.yul\":845:867   */\n      swap1\n      pop\n        /* \"#utility.yul\":876:909   */\n      tag_208\n        /* \"#utility.yul\":903:908   */\n      dup2\n        /* \"#utility.yul\":876:909   */\n      tag_205\n      jump\t// in\n    tag_208:\n        /* \"#utility.yul\":772:915   */\n      swap3\n      swap2\n      pop\n      pop\n      jump\t// out\n        /* \"#utility.yul\":921:1250   */\n    tag_48:\n        /* \"#utility.yul\":980:986   */\n      0x00\n        /* \"#utility.yul\":1029:1031   */\n      0x20\n        /* \"#utility.yul\":1017:1026   */\n      dup3\n        /* \"#utility.yul\":1008:1015   */\n      dup5\n        /* \"#utility.yul\":1004:1027   */\n      sub\n        /* \"#utility.yul\":1000:1032   */\n      slt\n        /* \"#utility.yul\":997:1116   */\n      iszero\n      tag_210\n      jumpi\n        /* \"#utility.yul\":1035:1114   */\n      tag_211\n      tag_212\n      jump\t// in\n    tag_211:\n        /* \"#utility.yul\":997:1116   */\n    tag_210:\n        /* \"#utility.yul\":1155:1156   */\n      0x00\n        /* \"#utility.yul\":1180:1233   */\n      tag_213\n        /* \"#utility.yul\":1225:1232   */\n      dup5\n        /* \"#utility.yul\":1216:1222   */\n      dup3\n        /* \"#utility.yul\":1205:1214   */\n      dup6\n        /* \"#utility.yul\":1201:1223   */\n      add\n        /* \"#utility.yul\":1180:1233   */\n      tag_186\n      jump\t// in\n    tag_213:\n        /* \"#utility.yul\":1170:1233   */\n      swap2\n      pop\n        /* \"#utility.yul\":1126:1243   */\n      pop\n        /* \"#utility.yul\":921:1250   */\n      swap3\n      swap2\n      pop\n      pop\n      jump\t// out\n        /* \"#utility.yul\":1256:1730   */\n    tag_43:\n        /* \"#utility.yul\":1324:1330   */\n      0x00\n        /* \"#utility.yul\":1332:1338   */\n      dup1\n        /* \"#utility.yul\":1381:1383   */\n      0x40\n        /* \"#utility.yul\":1369:1378   */\n      dup4\n        /* \"#utility.yul\":1360:1367   */\n      dup6\n        /* \"#utility.yul\":1356:1379   */\n      sub\n        /* \"#utility.yul\":1352:1384   */\n      slt\n        /* \"#utility.yul\":1349:1468   */\n      iszero\n      tag_215\n      jumpi\n        /* \"#utility.yul\":1387:1466   */\n      tag_216\n      tag_212\n      jump\t// in\n    tag_216:\n        /* \"#utility.yul\":1349:1468   */\n    tag_215:\n        /* \"#utility.yul\":1507:1508   */\n      0x00\n        /* \"#utility.yul\":1532:1585   */\n      tag_217\n        /* \"#utility.yul\":1577:1584   */\n      dup6\n        /* \"#utility.yul\":1568:1574   */\n      dup3\n        /* \"#utility.yul\":1557:1566   */\n      dup7\n        /* \"#utility.yul\":1553:1575   */\n      add\n        /* \"#utility.yul\":1532:1585   */\n      tag_186\n      jump\t// in\n    tag_217:\n        /* \"#utility.yul\":1522:1585   */\n      swap3\n      pop\n        /* \"#utility.yul\":1478:1595   */\n      pop\n        /* \"#utility.yul\":1634:1636   */\n      0x20\n        /* \"#utility.yul\":1660:1713   */\n      tag_218\n        /* \"#utility.yul\":1705:1712   */\n      dup6\n        /* \"#utility.yul\":1696:1702   */\n      dup3\n        /* \"#utility.yul\":1685:1694   */\n      dup7\n        /* \"#utility.yul\":1681:1703   */\n      add\n        /* \"#utility.yul\":1660:1713   */\n      tag_202\n      jump\t// in\n    tag_218:\n        /* \"#utility.yul\":1650:1713   */\n      swap2\n      pop\n        /* \"#utility.yul\":1605:1723   */\n      pop\n        /* \"#utility.yul\":1256:1730   */\n      swap3\n      pop\n      swap3\n      swap1\n      pop\n      jump\t// out\n        /* \"#utility.yul\":1736:2081   */\n    tag_97:\n        /* \"#utility.yul\":1803:1809   */\n      0x00\n        /* \"#utility.yul\":1852:1854   */\n      0x20\n        /* \"#utility.yul\":1840:1849   */\n      dup3\n        /* \"#utility.yul\":1831:1838   */\n      dup5\n        /* \"#utility.yul\":1827:1850   */\n      sub\n        /* \"#utility.yul\":1823:1855   */\n      slt\n        /* \"#utility.yul\":1820:1939   */\n      iszero\n      tag_220\n      jumpi\n        /* \"#utility.yul\":1858:1937   */\n      tag_221\n      tag_212\n      jump\t// in\n    tag_221:\n        /* \"#utility.yul\":1820:1939   */\n    tag_220:\n        /* \"#utility.yul\":1978:1979   */\n      0x00\n        /* \"#utility.yul\":2003:2064   */\n      tag_222\n        /* \"#utility.yul\":2056:2063   */\n      dup5\n        /* \"#utility.yul\":2047:2053   */\n      dup3\n        /* \"#utility.yul\":2036:2045   */\n      dup6\n        /* \"#utility.yul\":2032:2054   */\n      add\n        /* \"#utility.yul\":2003:2064   */\n      tag_194\n      jump\t// in\n    tag_222:\n        /* \"#utility.yul\":1993:2064   */\n      swap2\n      pop\n        /* \"#utility.yul\":1949:2074   */\n      pop\n        /* \"#utility.yul\":1736:2081   */\n      swap3\n      swap2\n      pop\n      pop\n      jump\t// out\n        /* \"#utility.yul\":2087:2442   */\n    tag_53:\n        /* \"#utility.yul\":2159:2165   */\n      0x00\n        /* \"#utility.yul\":2208:2210   */\n      0x20\n        /* \"#utility.yul\":2196:2205   */\n      dup3\n        /* \"#utility.yul\":2187:2194   */\n      dup5\n        /* \"#utility.yul\":2183:2206   */\n      sub\n        /* \"#utility.yul\":2179:2211   */\n      slt\n        /* \"#utility.yul\":2176:2295   */\n      iszero\n      tag_224\n      jumpi\n        /* \"#utility.yul\":2214:2293   */\n      tag_225\n      tag_212\n      jump\t// in\n    tag_225:\n        /* \"#utility.yul\":2176:2295   */\n    tag_224:\n        /* \"#utility.yul\":2334:2335   */\n      0x00\n        /* \"#utility.yul\":2359:2425   */\n      tag_226\n        /* \"#utility.yul\":2417:2424   */\n      dup5\n        /* \"#utility.yul\":2408:2414   */\n      dup3\n        /* \"#utility.yul\":2397:2406   */\n      dup6\n        /* \"#utility.yul\":2393:2415   */\n      add\n        /* \"#utility.yul\":2359:2425   */\n      tag_198\n      jump\t// in\n    tag_226:\n        /* \"#utility.yul\":2349:2425   */\n      swap2\n      pop\n        /* \"#utility.yul\":2305:2435   */\n      pop\n        /* \"#utility.yul\":2087:2442   */\n      swap3\n      swap2\n      pop\n      pop\n      jump\t// out\n        /* \"#utility.yul\":2448:3093   */\n    tag_33:\n        /* \"#utility.yul\":2538:2544   */\n      0x00\n        /* \"#utility.yul\":2546:2552   */\n      dup1\n        /* \"#utility.yul\":2554:2560   */\n      0x00\n        /* \"#utility.yul\":2603:2605   */\n      0x60\n        /* \"#utility.yul\":2591:2600   */\n      dup5\n        /* \"#utility.yul\":2582:2589   */\n      dup7\n        /* \"#utility.yul\":2578:2601   */\n      sub\n        /* \"#utility.yul\":2574:2606   */\n      slt\n        /* \"#utility.yul\":2571:2690   */\n      iszero\n      tag_228\n      jumpi\n        /* \"#utility.yul\":2609:2688   */\n      tag_229\n      tag_212\n      jump\t// in\n    tag_229:\n        /* \"#utility.yul\":2571:2690   */\n    tag_228:\n        /* \"#utility.yul\":2729:2730   */\n      0x00\n        /* \"#utility.yul\":2754:2820   */\n      tag_230\n        /* \"#utility.yul\":2812:2819   */\n      dup7\n        /* \"#utility.yul\":2803:2809   */\n      dup3\n        /* \"#utility.yul\":2792:2801   */\n      dup8\n        /* \"#utility.yul\":2788:2810   */\n      add\n        /* \"#utility.yul\":2754:2820   */\n      tag_198\n      jump\t// in\n    tag_230:\n        /* \"#utility.yul\":2744:2820   */\n      swap4\n      pop\n        /* \"#utility.yul\":2700:2830   */\n      pop\n        /* \"#utility.yul\":2869:2871   */\n      0x20\n        /* \"#utility.yul\":2895:2948   */\n      tag_231\n        /* \"#utility.yul\":2940:2947   */\n      dup7\n        /* \"#utility.yul\":2931:2937   */\n      dup3\n        /* \"#utility.yul\":2920:2929   */\n      dup8\n        /* \"#utility.yul\":2916:2938   */\n      add\n        /* \"#utility.yul\":2895:2948   */\n      tag_186\n      jump\t// in\n    tag_231:\n        /* \"#utility.yul\":2885:2948   */\n      swap3\n      pop\n        /* \"#utility.yul\":2840:2958   */\n      pop\n        /* \"#utility.yul\":2997:2999   */\n      0x40\n        /* \"#utility.yul\":3023:3076   */\n      tag_232\n        /* \"#utility.yul\":3068:3075   */\n      dup7\n        /* \"#utility.yul\":3059:3065   */\n      dup3\n        /* \"#utility.yul\":3048:3057   */\n      dup8\n        /* \"#utility.yul\":3044:3066   */\n      add\n        /* \"#utility.yul\":3023:3076   */\n      tag_202\n      jump\t// in\n    tag_232:\n        /* \"#utility.yul\":3013:3076   */\n      swap2\n      pop\n        /* \"#utility.yul\":2968:3086   */\n      pop\n        /* \"#utility.yul\":2448:3093   */\n      swap3\n      pop\n      swap3\n      pop\n      swap3\n      jump\t// out\n        /* \"#utility.yul\":3099:3770   */\n    tag_62:\n        /* \"#utility.yul\":3202:3208   */\n      0x00\n        /* \"#utility.yul\":3210:3216   */\n      dup1\n        /* \"#utility.yul\":3218:3224   */\n      0x00\n        /* \"#utility.yul\":3267:3269   */\n      0x60\n        /* \"#utility.yul\":3255:3264   */\n      dup5\n        /* \"#utility.yul\":3246:3253   */\n      dup7\n        /* \"#utility.yul\":3242:3265   */\n      sub\n        /* \"#utility.yul\":3238:3270   */\n      slt\n        /* \"#utility.yul\":3235:3354   */\n      iszero\n      tag_234\n      jumpi\n        /* \"#utility.yul\":3273:3352   */\n      tag_235\n      tag_212\n      jump\t// in\n    tag_235:\n        /* \"#utility.yul\":3235:3354   */\n    tag_234:\n        /* \"#utility.yul\":3393:3394   */\n      0x00\n        /* \"#utility.yul\":3418:3484   */\n      tag_236\n        /* \"#utility.yul\":3476:3483   */\n      dup7\n        /* \"#utility.yul\":3467:3473   */\n      dup3\n        /* \"#utility.yul\":3456:3465   */\n      dup8\n        /* \"#utility.yul\":3452:3474   */\n      add\n        /* \"#utility.yul\":3418:3484   */\n      tag_198\n      jump\t// in\n    tag_236:\n        /* \"#utility.yul\":3408:3484   */\n      swap4\n      pop\n        /* \"#utility.yul\":3364:3494   */\n      pop\n        /* \"#utility.yul\":3533:3535   */\n      0x20\n        /* \"#utility.yul\":3559:3625   */\n      tag_237\n        /* \"#utility.yul\":3617:3624   */\n      dup7\n        /* \"#utility.yul\":3608:3614   */\n      dup3\n        /* \"#utility.yul\":3597:3606   */\n      dup8\n        /* \"#utility.yul\":3593:3615   */\n      add\n        /* \"#utility.yul\":3559:3625   */\n      tag_198\n      jump\t// in\n    tag_237:\n        /* \"#utility.yul\":3549:3625   */\n      swap3\n      pop\n        /* \"#utility.yul\":3504:3635   */\n      pop\n        /* \"#utility.yul\":3674:3676   */\n      0x40\n        /* \"#utility.yul\":3700:3753   */\n      tag_238\n        /* \"#utility.yul\":3745:3752   */\n      dup7\n        /* \"#utility.yul\":3736:3742   */\n      dup3\n        /* \"#utility.yul\":3725:3734   */\n      dup8\n        /* \"#utility.yul\":3721:3743   */\n      add\n        /* \"#utility.yul\":3700:3753   */\n      tag_202\n      jump\t// in\n    tag_238:\n        /* \"#utility.yul\":3690:3753   */\n      swap2\n      pop\n        /* \"#utility.yul\":3645:3763   */\n      pop\n        /* \"#utility.yul\":3099:3770   */\n      swap3\n      pop\n      swap3\n      pop\n      swap3\n      jump\t// out\n        /* \"#utility.yul\":3776:4127   */\n    tag_88:\n        /* \"#utility.yul\":3846:3852   */\n      0x00\n        /* \"#utility.yul\":3895:3897   */\n      0x20\n        /* \"#utility.yul\":3883:3892   */\n      dup3\n        /* \"#utility.yul\":3874:3881   */\n      dup5\n        /* \"#utility.yul\":3870:3893   */\n      sub\n        /* \"#utility.yul\":3866:3898   */\n      slt\n        /* \"#utility.yul\":3863:3982   */\n      iszero\n      tag_240\n      jumpi\n        /* \"#utility.yul\":3901:3980   */\n      tag_241\n      tag_212\n      jump\t// in\n    tag_241:\n        /* \"#utility.yul\":3863:3982   */\n    tag_240:\n        /* \"#utility.yul\":4021:4022   */\n      0x00\n        /* \"#utility.yul\":4046:4110   */\n      tag_242\n        /* \"#utility.yul\":4102:4109   */\n      dup5\n        /* \"#utility.yul\":4093:4099   */\n      dup3\n        /* \"#utility.yul\":4082:4091   */\n      dup6\n        /* \"#utility.yul\":4078:4100   */\n      add\n        /* \"#utility.yul\":4046:4110   */\n      tag_206\n      jump\t// in\n    tag_242:\n        /* \"#utility.yul\":4036:4110   */\n      swap2\n      pop\n        /* \"#utility.yul\":3992:4120   */\n      pop\n        /* \"#utility.yul\":3776:4127   */\n      swap3\n      swap2\n      pop\n      pop\n      jump\t// out\n        /* \"#utility.yul\":4133:4623   */\n    tag_23:\n        /* \"#utility.yul\":4209:4215   */\n      0x00\n        /* \"#utility.yul\":4217:4223   */\n      dup1\n        /* \"#utility.yul\":4266:4268   */\n      0x40\n        /* \"#utility.yul\":4254:4263   */\n      dup4\n        /* \"#utility.yul\":4245:4252   */\n      dup6\n        /* \"#utility.yul\":4241:4264   */\n      sub\n        /* \"#utility.yul\":4237:4269   */\n      slt\n        /* \"#utility.yul\":4234:4353   */\n      iszero\n      tag_244\n      jumpi\n        /* \"#utility.yul\":4272:4351   */\n      tag_245\n      tag_212\n      jump\t// in\n    tag_245:\n        /* \"#utility.yul\":4234:4353   */\n    tag_244:\n        /* \"#utility.yul\":4392:4393   */\n      0x00\n        /* \"#utility.yul\":4417:4470   */\n      tag_246\n        /* \"#utility.yul\":4462:4469   */\n      dup6\n        /* \"#utility.yul\":4453:4459   */\n      dup3\n        /* \"#utility.yul\":4442:4451   */\n      dup7\n        /* \"#utility.yul\":4438:4460   */\n      add\n        /* \"#utility.yul\":4417:4470   */\n      tag_202\n      jump\t// in\n    tag_246:\n        /* \"#utility.yul\":4407:4470   */\n      swap3\n      pop\n        /* \"#utility.yul\":4363:4480   */\n      pop\n        /* \"#utility.yul\":4519:4521   */\n      0x20\n        /* \"#utility.yul\":4545:4606   */\n      tag_247\n        /* \"#utility.yul\":4598:4605   */\n      dup6\n        /* \"#utility.yul\":4589:4595   */\n      dup3\n        /* \"#utility.yul\":4578:4587   */\n      dup7\n        /* \"#utility.yul\":4574:4596   */\n      add\n        /* \"#utility.yul\":4545:4606   */\n      tag_190\n      jump\t// in\n    tag_247:\n        /* \"#utility.yul\":4535:4606   */\n      swap2\n      pop\n        /* \"#utility.yul\":4490:4616   */\n      pop\n        /* \"#utility.yul\":4133:4623   */\n      swap3\n      pop\n      swap3\n      swap1\n      pop\n      jump\t// out\n        /* \"#utility.yul\":4629:4776   */\n    tag_248:\n        /* \"#utility.yul\":4724:4769   */\n      tag_250\n        /* \"#utility.yul\":4763:4768   */\n      dup2\n        /* \"#utility.yul\":4724:4769   */\n      tag_251\n      jump\t// in\n    tag_250:\n        /* \"#utility.yul\":4719:4722   */\n      dup3\n        /* \"#utility.yul\":4712:4770   */\n      mstore\n        /* \"#utility.yul\":4629:4776   */\n      pop\n      pop\n      jump\t// out\n        /* \"#utility.yul\":4782:4900   */\n    tag_252:\n        /* \"#utility.yul\":4869:4893   */\n      tag_254\n        /* \"#utility.yul\":4887:4892   */\n      dup2\n        /* \"#utility.yul\":4869:4893   */\n      tag_255\n      jump\t// in\n    tag_254:\n        /* \"#utility.yul\":4864:4867   */\n      dup3\n        /* \"#utility.yul\":4857:4894   */\n      mstore\n        /* \"#utility.yul\":4782:4900   */\n      pop\n      pop\n      jump\t// out\n        /* \"#utility.yul\":4906:5272   */\n    tag_256:\n        /* \"#utility.yul\":5048:5051   */\n      0x00\n        /* \"#utility.yul\":5069:5136   */\n      tag_258\n        /* \"#utility.yul\":5133:5135   */\n      0x37\n        /* \"#utility.yul\":5128:5131   */\n      dup4\n        /* \"#utility.yul\":5069:5136   */\n      tag_259\n      jump\t// in\n    tag_258:\n        /* \"#utility.yul\":5062:5136   */\n      swap2\n      pop\n        /* \"#utility.yul\":5145:5238   */\n      tag_260\n        /* \"#utility.yul\":5234:5237   */\n      dup3\n        /* \"#utility.yul\":5145:5238   */\n      tag_261\n      jump\t// in\n    tag_260:\n        /* \"#utility.yul\":5263:5265   */\n      0x40\n        /* \"#utility.yul\":5258:5261   */\n      dup3\n        /* \"#utility.yul\":5254:5266   */\n      add\n        /* \"#utility.yul\":5247:5266   */\n      swap1\n      pop\n        /* \"#utility.yul\":4906:5272   */\n      swap2\n      swap1\n      pop\n      jump\t// out\n        /* \"#utility.yul\":5278:5644   */\n    tag_262:\n        /* \"#utility.yul\":5420:5423   */\n      0x00\n        /* \"#utility.yul\":5441:5508   */\n      tag_264\n        /* \"#utility.yul\":5505:5507   */\n      0x37\n        /* \"#utility.yul\":5500:5503   */\n      dup4\n        /* \"#utility.yul\":5441:5508   */\n      tag_259\n      jump\t// in\n    tag_264:\n        /* \"#utility.yul\":5434:5508   */\n      swap2\n      pop\n        /* \"#utility.yul\":5517:5610   */\n      tag_265\n        /* \"#utility.yul\":5606:5609   */\n      dup3\n        /* \"#utility.yul\":5517:5610   */\n      tag_266\n      jump\t// in\n    tag_265:\n        /* \"#utility.yul\":5635:5637   */\n      0x40\n        /* \"#utility.yul\":5630:5633   */\n      dup3\n        /* \"#utility.yul\":5626:5638   */\n      add\n        /* \"#utility.yul\":5619:5638   */\n      swap1\n      pop\n        /* \"#utility.yul\":5278:5644   */\n      swap2\n      swap1\n      pop\n      jump\t// out\n        /* \"#utility.yul\":5650:6016   */\n    tag_267:\n        /* \"#utility.yul\":5792:5795   */\n      0x00\n        /* \"#utility.yul\":5813:5880   */\n      tag_269\n        /* \"#utility.yul\":5877:5879   */\n      0x34\n        /* \"#utility.yul\":5872:5875   */\n      dup4\n        /* \"#utility.yul\":5813:5880   */\n      tag_259\n      jump\t// in\n    tag_269:\n        /* \"#utility.yul\":5806:5880   */\n      swap2\n      pop\n        /* \"#utility.yul\":5889:5982   */\n      tag_270\n        /* \"#utility.yul\":5978:5981   */\n      dup3\n        /* \"#utility.yul\":5889:5982   */\n      tag_271\n      jump\t// in\n    tag_270:\n        /* \"#utility.yul\":6007:6009   */\n      0x40\n        /* \"#utility.yul\":6002:6005   */\n      dup3\n        /* \"#utility.yul\":5998:6010   */\n      add\n        /* \"#utility.yul\":5991:6010   */\n      swap1\n      pop\n        /* \"#utility.yul\":5650:6016   */\n      swap2\n      swap1\n      pop\n      jump\t// out\n        /* \"#utility.yul\":6022:6388   */\n    tag_272:\n        /* \"#utility.yul\":6164:6167   */\n      0x00\n        /* \"#utility.yul\":6185:6252   */\n      tag_274\n        /* \"#utility.yul\":6249:6251   */\n      0x1d\n        /* \"#utility.yul\":6244:6247   */\n      dup4\n        /* \"#utility.yul\":6185:6252   */\n      tag_259\n      jump\t// in\n    tag_274:\n        /* \"#utility.yul\":6178:6252   */\n      swap2\n      pop\n        /* \"#utility.yul\":6261:6354   */\n      tag_275\n        /* \"#utility.yul\":6350:6353   */\n      dup3\n        /* \"#utility.yul\":6261:6354   */\n      tag_276\n      jump\t// in\n    tag_275:\n        /* \"#utility.yul\":6379:6381   */\n      0x20\n        /* \"#utility.yul\":6374:6377   */\n      dup3\n        /* \"#utility.yul\":6370:6382   */\n      add\n        /* \"#utility.yul\":6363:6382   */\n      swap1\n      pop\n        /* \"#utility.yul\":6022:6388   */\n      swap2\n      swap1\n      pop\n      jump\t// out\n        /* \"#utility.yul\":6394:6760   */\n    tag_277:\n        /* \"#utility.yul\":6536:6539   */\n      0x00\n        /* \"#utility.yul\":6557:6624   */\n      tag_279\n        /* \"#utility.yul\":6621:6623   */\n      0x12\n        /* \"#utility.yul\":6616:6619   */\n      dup4\n        /* \"#utility.yul\":6557:6624   */\n      tag_259\n      jump\t// in\n    tag_279:\n        /* \"#utility.yul\":6550:6624   */\n      swap2\n      pop\n        /* \"#utility.yul\":6633:6726   */\n      tag_280\n        /* \"#utility.yul\":6722:6725   */\n      dup3\n        /* \"#utility.yul\":6633:6726   */\n      tag_281\n      jump\t// in\n    tag_280:\n        /* \"#utility.yul\":6751:6753   */\n      0x20\n        /* \"#utility.yul\":6746:6749   */\n      dup3\n        /* \"#utility.yul\":6742:6754   */\n      add\n        /* \"#utility.yul\":6735:6754   */\n      swap1\n      pop\n        /* \"#utility.yul\":6394:6760   */\n      swap2\n      swap1\n      pop\n      jump\t// out\n        /* \"#utility.yul\":6766:7132   */\n    tag_282:\n        /* \"#utility.yul\":6908:6911   */\n      0x00\n        /* \"#utility.yul\":6929:6996   */\n      tag_284\n        /* \"#utility.yul\":6993:6995   */\n      0x1b\n        /* \"#utility.yul\":6988:6991   */\n      dup4\n        /* \"#utility.yul\":6929:6996   */\n      tag_259\n      jump\t// in\n    tag_284:\n        /* \"#utility.yul\":6922:6996   */\n      swap2\n      pop\n        /* \"#utility.yul\":7005:7098   */\n      tag_285\n        /* \"#utility.yul\":7094:7097   */\n      dup3\n        /* \"#utility.yul\":7005:7098   */\n      tag_286\n      jump\t// in\n    tag_285:\n        /* \"#utility.yul\":7123:7125   */\n      0x20\n        /* \"#utility.yul\":7118:7121   */\n      dup3\n        /* \"#utility.yul\":7114:7126   */\n      add\n        /* \"#utility.yul\":7107:7126   */\n      swap1\n      pop\n        /* \"#utility.yul\":6766:7132   */\n      swap2\n      swap1\n      pop\n      jump\t// out\n        /* \"#utility.yul\":7138:7504   */\n    tag_287:\n        /* \"#utility.yul\":7280:7283   */\n      0x00\n        /* \"#utility.yul\":7301:7368   */\n      tag_289\n        /* \"#utility.yul\":7365:7367   */\n      0x36\n        /* \"#utility.yul\":7360:7363   */\n      dup4\n        /* \"#utility.yul\":7301:7368   */\n      tag_259\n      jump\t// in\n    tag_289:\n        /* \"#utility.yul\":7294:7368   */\n      swap2\n      pop\n        /* \"#utility.yul\":7377:7470   */\n      tag_290\n        /* \"#utility.yul\":7466:7469   */\n      dup3\n        /* \"#utility.yul\":7377:7470   */\n      tag_291\n      jump\t// in\n    tag_290:\n        /* \"#utility.yul\":7495:7497   */\n      0x40\n        /* \"#utility.yul\":7490:7493   */\n      dup3\n        /* \"#utility.yul\":7486:7498   */\n      add\n        /* \"#utility.yul\":7479:7498   */\n      swap1\n      pop\n        /* \"#utility.yul\":7138:7504   */\n      swap2\n      swap1\n      pop\n      jump\t// out\n        /* \"#utility.yul\":7510:7876   */\n    tag_292:\n        /* \"#utility.yul\":7652:7655   */\n      0x00\n        /* \"#utility.yul\":7673:7740   */\n      tag_294\n        /* \"#utility.yul\":7737:7739   */\n      0x0e\n        /* \"#utility.yul\":7732:7735   */\n      dup4\n        /* \"#utility.yul\":7673:7740   */\n      tag_259\n      jump\t// in\n    tag_294:\n        /* \"#utility.yul\":7666:7740   */\n      swap2\n      pop\n        /* \"#utility.yul\":7749:7842   */\n      tag_295\n        /* \"#utility.yul\":7838:7841   */\n      dup3\n        /* \"#utility.yul\":7749:7842   */\n      tag_296\n      jump\t// in\n    tag_295:\n        /* \"#utility.yul\":7867:7869   */\n      0x20\n        /* \"#utility.yul\":7862:7865   */\n      dup3\n        /* \"#utility.yul\":7858:7870   */\n      add\n        /* \"#utility.yul\":7851:7870   */\n      swap1\n      pop\n        /* \"#utility.yul\":7510:7876   */\n      swap2\n      swap1\n      pop\n      jump\t// out\n        /* \"#utility.yul\":7882:8248   */\n    tag_297:\n        /* \"#utility.yul\":8024:8027   */\n      0x00\n        /* \"#utility.yul\":8045:8112   */\n      tag_299\n        /* \"#utility.yul\":8109:8111   */\n      0x22\n        /* \"#utility.yul\":8104:8107   */\n      dup4\n        /* \"#utility.yul\":8045:8112   */\n      tag_259\n      jump\t// in\n    tag_299:\n        /* \"#utility.yul\":8038:8112   */\n      swap2\n      pop\n        /* \"#utility.yul\":8121:8214   */\n      tag_300\n        /* \"#utility.yul\":8210:8213   */\n      dup3\n        /* \"#utility.yul\":8121:8214   */\n      tag_301\n      jump\t// in\n    tag_300:\n        /* \"#utility.yul\":8239:8241   */\n      0x40\n        /* \"#utility.yul\":8234:8237   */\n      dup3\n        /* \"#utility.yul\":8230:8242   */\n      add\n        /* \"#utility.yul\":8223:8242   */\n      swap1\n      pop\n        /* \"#utility.yul\":7882:8248   */\n      swap2\n      swap1\n      pop\n      jump\t// out\n        /* \"#utility.yul\":8254:8620   */\n    tag_302:\n        /* \"#utility.yul\":8396:8399   */\n      0x00\n        /* \"#utility.yul\":8417:8484   */\n      tag_304\n        /* \"#utility.yul\":8481:8483   */\n      0x27\n        /* \"#utility.yul\":8476:8479   */\n      dup4\n        /* \"#utility.yul\":8417:8484   */\n      tag_259\n      jump\t// in\n    tag_304:\n        /* \"#utility.yul\":8410:8484   */\n      swap2\n      pop\n        /* \"#utility.yul\":8493:8586   */\n      tag_305\n        /* \"#utility.yul\":8582:8585   */\n      dup3\n        /* \"#utility.yul\":8493:8586   */\n      tag_306\n      jump\t// in\n    tag_305:\n        /* \"#utility.yul\":8611:8613   */\n      0x40\n        /* \"#utility.yul\":8606:8609   */\n      dup3\n        /* \"#utility.yul\":8602:8614   */\n      add\n        /* \"#utility.yul\":8595:8614   */\n      swap1\n      pop\n        /* \"#utility.yul\":8254:8620   */\n      swap2\n      swap1\n      pop\n      jump\t// out\n        /* \"#utility.yul\":8626:8992   */\n    tag_307:\n        /* \"#utility.yul\":8768:8771   */\n      0x00\n        /* \"#utility.yul\":8789:8856   */\n      tag_309\n        /* \"#utility.yul\":8853:8855   */\n      0x28\n        /* \"#utility.yul\":8848:8851   */\n      dup4\n        /* \"#utility.yul\":8789:8856   */\n      tag_259\n      jump\t// in\n    tag_309:\n        /* \"#utility.yul\":8782:8856   */\n      swap2\n      pop\n        /* \"#utility.yul\":8865:8958   */\n      tag_310\n        /* \"#utility.yul\":8954:8957   */\n      dup3\n        /* \"#utility.yul\":8865:8958   */\n      tag_311\n      jump\t// in\n    tag_310:\n        /* \"#utility.yul\":8983:8985   */\n      0x40\n        /* \"#utility.yul\":8978:8981   */\n      dup3\n        /* \"#utility.yul\":8974:8986   */\n      add\n        /* \"#utility.yul\":8967:8986   */\n      swap1\n      pop\n        /* \"#utility.yul\":8626:8992   */\n      swap2\n      swap1\n      pop\n      jump\t// out\n        /* \"#utility.yul\":8998:9364   */\n    tag_312:\n        /* \"#utility.yul\":9140:9143   */\n      0x00\n        /* \"#utility.yul\":9161:9228   */\n      tag_314\n        /* \"#utility.yul\":9225:9227   */\n      0x33\n        /* \"#utility.yul\":9220:9223   */\n      dup4\n        /* \"#utility.yul\":9161:9228   */\n      tag_259\n      jump\t// in\n    tag_314:\n        /* \"#utility.yul\":9154:9228   */\n      swap2\n      pop\n        /* \"#utility.yul\":9237:9330   */\n      tag_315\n        /* \"#utility.yul\":9326:9329   */\n      dup3\n        /* \"#utility.yul\":9237:9330   */\n      tag_316\n      jump\t// in\n    tag_315:\n        /* \"#utility.yul\":9355:9357   */\n      0x40\n        /* \"#utility.yul\":9350:9353   */\n      dup3\n        /* \"#utility.yul\":9346:9358   */\n      add\n        /* \"#utility.yul\":9339:9358   */\n      swap1\n      pop\n        /* \"#utility.yul\":8998:9364   */\n      swap2\n      swap1\n      pop\n      jump\t// out\n        /* \"#utility.yul\":9370:9488   */\n    tag_317:\n        /* \"#utility.yul\":9457:9481   */\n      tag_319\n        /* \"#utility.yul\":9475:9480   */\n      dup2\n        /* \"#utility.yul\":9457:9481   */\n      tag_320\n      jump\t// in\n    tag_319:\n        /* \"#utility.yul\":9452:9455   */\n      dup3\n        /* \"#utility.yul\":9445:9482   */\n      mstore\n        /* \"#utility.yul\":9370:9488   */\n      pop\n      pop\n      jump\t// out\n        /* \"#utility.yul\":9494:9716   */\n    tag_29:\n        /* \"#utility.yul\":9587:9591   */\n      0x00\n        /* \"#utility.yul\":9625:9627   */\n      0x20\n        /* \"#utility.yul\":9614:9623   */\n      dup3\n        /* \"#utility.yul\":9610:9628   */\n      add\n        /* \"#utility.yul\":9602:9628   */\n      swap1\n      pop\n        /* \"#utility.yul\":9638:9709   */\n      tag_322\n        /* \"#utility.yul\":9706:9707   */\n      0x00\n        /* \"#utility.yul\":9695:9704   */\n      dup4\n        /* \"#utility.yul\":9691:9708   */\n      add\n        /* \"#utility.yul\":9682:9688   */\n      dup5\n        /* \"#utility.yul\":9638:9709   */\n      tag_252\n      jump\t// in\n    tag_322:\n        /* \"#utility.yul\":9494:9716   */\n      swap3\n      swap2\n      pop\n      pop\n      jump\t// out\n        /* \"#utility.yul\":9722:10180   */\n    tag_79:\n        /* \"#utility.yul\":9879:9883   */\n      0x00\n        /* \"#utility.yul\":9917:9919   */\n      0x60\n        /* \"#utility.yul\":9906:9915   */\n      dup3\n        /* \"#utility.yul\":9902:9920   */\n      add\n        /* \"#utility.yul\":9894:9920   */\n      swap1\n      pop\n        /* \"#utility.yul\":9930:10001   */\n      tag_324\n        /* \"#utility.yul\":9998:9999   */\n      0x00\n        /* \"#utility.yul\":9987:9996   */\n      dup4\n        /* \"#utility.yul\":9983:10000   */\n      add\n        /* \"#utility.yul\":9974:9980   */\n      dup7\n        /* \"#utility.yul\":9930:10001   */\n      tag_252\n      jump\t// in\n    tag_324:\n        /* \"#utility.yul\":10011:10091   */\n      tag_325\n        /* \"#utility.yul\":10087:10089   */\n      0x20\n        /* \"#utility.yul\":10076:10085   */\n      dup4\n        /* \"#utility.yul\":10072:10090   */\n      add\n        /* \"#utility.yul\":10063:10069   */\n      dup6\n        /* \"#utility.yul\":10011:10091   */\n      tag_248\n      jump\t// in\n    tag_325:\n        /* \"#utility.yul\":10101:10173   */\n      tag_326\n        /* \"#utility.yul\":10169:10171   */\n      0x40\n        /* \"#utility.yul\":10158:10167   */\n      dup4\n        /* \"#utility.yul\":10154:10172   */\n      add\n        /* \"#utility.yul\":10145:10151   */\n      dup5\n        /* \"#utility.yul\":10101:10173   */\n      tag_317\n      jump\t// in\n    tag_326:\n        /* \"#utility.yul\":9722:10180   */\n      swap5\n      swap4\n      pop\n      pop\n      pop\n      pop\n      jump\t// out\n        /* \"#utility.yul\":10186:10850   */\n    tag_166:\n        /* \"#utility.yul\":10391:10395   */\n      0x00\n        /* \"#utility.yul\":10429:10432   */\n      0xa0\n        /* \"#utility.yul\":10418:10427   */\n      dup3\n        /* \"#utility.yul\":10414:10433   */\n      add\n        /* \"#utility.yul\":10406:10433   */\n      swap1\n      pop\n        /* \"#utility.yul\":10443:10514   */\n      tag_328\n        /* \"#utility.yul\":10511:10512   */\n      0x00\n        /* \"#utility.yul\":10500:10509   */\n      dup4\n        /* \"#utility.yul\":10496:10513   */\n      add\n        /* \"#utility.yul\":10487:10493   */\n      dup9\n        /* \"#utility.yul\":10443:10514   */\n      tag_252\n      jump\t// in\n    tag_328:\n        /* \"#utility.yul\":10524:10596   */\n      tag_329\n        /* \"#utility.yul\":10592:10594   */\n      0x20\n        /* \"#utility.yul\":10581:10590   */\n      dup4\n        /* \"#utility.yul\":10577:10595   */\n      add\n        /* \"#utility.yul\":10568:10574   */\n      dup8\n        /* \"#utility.yul\":10524:10596   */\n      tag_252\n      jump\t// in\n    tag_329:\n        /* \"#utility.yul\":10606:10678   */\n      tag_330\n        /* \"#utility.yul\":10674:10676   */\n      0x40\n        /* \"#utility.yul\":10663:10672   */\n      dup4\n        /* \"#utility.yul\":10659:10677   */\n      add\n        /* \"#utility.yul\":10650:10656   */\n      dup7\n        /* \"#utility.yul\":10606:10678   */\n      tag_252\n      jump\t// in\n    tag_330:\n        /* \"#utility.yul\":10688:10760   */\n      tag_331\n        /* \"#utility.yul\":10756:10758   */\n      0x60\n        /* \"#utility.yul\":10745:10754   */\n      dup4\n        /* \"#utility.yul\":10741:10759   */\n      add\n        /* \"#utility.yul\":10732:10738   */\n      dup6\n        /* \"#utility.yul\":10688:10760   */\n      tag_317\n      jump\t// in\n    tag_331:\n        /* \"#utility.yul\":10770:10843   */\n      tag_332\n        /* \"#utility.yul\":10838:10841   */\n      0x80\n        /* \"#utility.yul\":10827:10836   */\n      dup4\n        /* \"#utility.yul\":10823:10842   */\n      add\n        /* \"#utility.yul\":10814:10820   */\n      dup5\n        /* \"#utility.yul\":10770:10843   */\n      tag_317\n      jump\t// in\n    tag_332:\n        /* \"#utility.yul\":10186:10850   */\n      swap7\n      swap6\n      pop\n      pop\n      pop\n      pop\n      pop\n      pop\n      jump\t// out\n        /* \"#utility.yul\":10856:11298   */\n    tag_99:\n        /* \"#utility.yul\":11005:11009   */\n      0x00\n        /* \"#utility.yul\":11043:11045   */\n      0x60\n        /* \"#utility.yul\":11032:11041   */\n      dup3\n        /* \"#utility.yul\":11028:11046   */\n      add\n        /* \"#utility.yul\":11020:11046   */\n      swap1\n      pop\n        /* \"#utility.yul\":11056:11127   */\n      tag_334\n        /* \"#utility.yul\":11124:11125   */\n      0x00\n        /* \"#utility.yul\":11113:11122   */\n      dup4\n        /* \"#utility.yul\":11109:11126   */\n      add\n        /* \"#utility.yul\":11100:11106   */\n      dup7\n        /* \"#utility.yul\":11056:11127   */\n      tag_252\n      jump\t// in\n    tag_334:\n        /* \"#utility.yul\":11137:11209   */\n      tag_335\n        /* \"#utility.yul\":11205:11207   */\n      0x20\n        /* \"#utility.yul\":11194:11203   */\n      dup4\n        /* \"#utility.yul\":11190:11208   */\n      add\n        /* \"#utility.yul\":11181:11187   */\n      dup6\n        /* \"#utility.yul\":11137:11209   */\n      tag_252\n      jump\t// in\n    tag_335:\n        /* \"#utility.yul\":11219:11291   */\n      tag_336\n        /* \"#utility.yul\":11287:11289   */\n      0x40\n        /* \"#utility.yul\":11276:11285   */\n      dup4\n        /* \"#utility.yul\":11272:11290   */\n      add\n        /* \"#utility.yul\":11263:11269   */\n      dup5\n        /* \"#utility.yul\":11219:11291   */\n      tag_317\n      jump\t// in\n    tag_336:\n        /* \"#utility.yul\":10856:11298   */\n      swap5\n      swap4\n      pop\n      pop\n      pop\n      pop\n      jump\t// out\n        /* \"#utility.yul\":11304:11636   */\n    tag_19:\n        /* \"#utility.yul\":11425:11429   */\n      0x00\n        /* \"#utility.yul\":11463:11465   */\n      0x40\n        /* \"#utility.yul\":11452:11461   */\n      dup3\n        /* \"#utility.yul\":11448:11466   */\n      add\n        /* \"#utility.yul\":11440:11466   */\n      swap1\n      pop\n        /* \"#utility.yul\":11476:11547   */\n      tag_338\n        /* \"#utility.yul\":11544:11545   */\n      0x00\n        /* \"#utility.yul\":11533:11542   */\n      dup4\n        /* \"#utility.yul\":11529:11546   */\n      add\n        /* \"#utility.yul\":11520:11526   */\n      dup6\n        /* \"#utility.yul\":11476:11547   */\n      tag_252\n      jump\t// in\n    tag_338:\n        /* \"#utility.yul\":11557:11629   */\n      tag_339\n        /* \"#utility.yul\":11625:11627   */\n      0x20\n        /* \"#utility.yul\":11614:11623   */\n      dup4\n        /* \"#utility.yul\":11610:11628   */\n      add\n        /* \"#utility.yul\":11601:11607   */\n      dup5\n        /* \"#utility.yul\":11557:11629   */\n      tag_317\n      jump\t// in\n    tag_339:\n        /* \"#utility.yul\":11304:11636   */\n      swap4\n      swap3\n      pop\n      pop\n      pop\n      jump\t// out\n        /* \"#utility.yul\":11642:12061   */\n    tag_143:\n        /* \"#utility.yul\":11808:11812   */\n      0x00\n        /* \"#utility.yul\":11846:11848   */\n      0x20\n        /* \"#utility.yul\":11835:11844   */\n      dup3\n        /* \"#utility.yul\":11831:11849   */\n      add\n        /* \"#utility.yul\":11823:11849   */\n      swap1\n      pop\n        /* \"#utility.yul\":11895:11904   */\n      dup2\n        /* \"#utility.yul\":11889:11893   */\n      dup2\n        /* \"#utility.yul\":11885:11905   */\n      sub\n        /* \"#utility.yul\":11881:11882   */\n      0x00\n        /* \"#utility.yul\":11870:11879   */\n      dup4\n        /* \"#utility.yul\":11866:11883   */\n      add\n        /* \"#utility.yul\":11859:11906   */\n      mstore\n        /* \"#utility.yul\":11923:12054   */\n      tag_341\n        /* \"#utility.yul\":12049:12053   */\n      dup2\n        /* \"#utility.yul\":11923:12054   */\n      tag_256\n      jump\t// in\n    tag_341:\n        /* \"#utility.yul\":11915:12054   */\n      swap1\n      pop\n        /* \"#utility.yul\":11642:12061   */\n      swap2\n      swap1\n      pop\n      jump\t// out\n        /* \"#utility.yul\":12067:12486   */\n    tag_120:\n        /* \"#utility.yul\":12233:12237   */\n      0x00\n        /* \"#utility.yul\":12271:12273   */\n      0x20\n        /* \"#utility.yul\":12260:12269   */\n      dup3\n        /* \"#utility.yul\":12256:12274   */\n      add\n        /* \"#utility.yul\":12248:12274   */\n      swap1\n      pop\n        /* \"#utility.yul\":12320:12329   */\n      dup2\n        /* \"#utility.yul\":12314:12318   */\n      dup2\n        /* \"#utility.yul\":12310:12330   */\n      sub\n        /* \"#utility.yul\":12306:12307   */\n      0x00\n        /* \"#utility.yul\":12295:12304   */\n      dup4\n        /* \"#utility.yul\":12291:12308   */\n      add\n        /* \"#utility.yul\":12284:12331   */\n      mstore\n        /* \"#utility.yul\":12348:12479   */\n      tag_343\n        /* \"#utility.yul\":12474:12478   */\n      dup2\n        /* \"#utility.yul\":12348:12479   */\n      tag_262\n      jump\t// in\n    tag_343:\n        /* \"#utility.yul\":12340:12479   */\n      swap1\n      pop\n        /* \"#utility.yul\":12067:12486   */\n      swap2\n      swap1\n      pop\n      jump\t// out\n        /* \"#utility.yul\":12492:12911   */\n    tag_112:\n        /* \"#utility.yul\":12658:12662   */\n      0x00\n        /* \"#utility.yul\":12696:12698   */\n      0x20\n        /* \"#utility.yul\":12685:12694   */\n      dup3\n        /* \"#utility.yul\":12681:12699   */\n      add\n        /* \"#utility.yul\":12673:12699   */\n      swap1\n      pop\n        /* \"#utility.yul\":12745:12754   */\n      dup2\n        /* \"#utility.yul\":12739:12743   */\n      dup2\n        /* \"#utility.yul\":12735:12755   */\n      sub\n        /* \"#utility.yul\":12731:12732   */\n      0x00\n        /* \"#utility.yul\":12720:12729   */\n      dup4\n        /* \"#utility.yul\":12716:12733   */\n      add\n        /* \"#utility.yul\":12709:12756   */\n      mstore\n        /* \"#utility.yul\":12773:12904   */\n      tag_345\n        /* \"#utility.yul\":12899:12903   */\n      dup2\n        /* \"#utility.yul\":12773:12904   */\n      tag_267\n      jump\t// in\n    tag_345:\n        /* \"#utility.yul\":12765:12904   */\n      swap1\n      pop\n        /* \"#utility.yul\":12492:12911   */\n      swap2\n      swap1\n      pop\n      jump\t// out\n        /* \"#utility.yul\":12917:13336   */\n    tag_70:\n        /* \"#utility.yul\":13083:13087   */\n      0x00\n        /* \"#utility.yul\":13121:13123   */\n      0x20\n        /* \"#utility.yul\":13110:13119   */\n      dup3\n        /* \"#utility.yul\":13106:13124   */\n      add\n        /* \"#utility.yul\":13098:13124   */\n      swap1\n      pop\n        /* \"#utility.yul\":13170:13179   */\n      dup2\n        /* \"#utility.yul\":13164:13168   */\n      dup2\n        /* \"#utility.yul\":13160:13180   */\n      sub\n        /* \"#utility.yul\":13156:13157   */\n      0x00\n        /* \"#utility.yul\":13145:13154   */\n      dup4\n        /* \"#utility.yul\":13141:13158   */\n      add\n        /* \"#utility.yul\":13134:13181   */\n      mstore\n        /* \"#utility.yul\":13198:13329   */\n      tag_347\n        /* \"#utility.yul\":13324:13328   */\n      dup2\n        /* \"#utility.yul\":13198:13329   */\n      tag_272\n      jump\t// in\n    tag_347:\n        /* \"#utility.yul\":13190:13329   */\n      swap1\n      pop\n        /* \"#utility.yul\":12917:13336   */\n      swap2\n      swap1\n      pop\n      jump\t// out\n        /* \"#utility.yul\":13342:13761   */\n    tag_73:\n        /* \"#utility.yul\":13508:13512   */\n      0x00\n        /* \"#utility.yul\":13546:13548   */\n      0x20\n        /* \"#utility.yul\":13535:13544   */\n      dup3\n        /* \"#utility.yul\":13531:13549   */\n      add\n        /* \"#utility.yul\":13523:13549   */\n      swap1\n      pop\n        /* \"#utility.yul\":13595:13604   */\n      dup2\n        /* \"#utility.yul\":13589:13593   */\n      dup2\n        /* \"#utility.yul\":13585:13605   */\n      sub\n        /* \"#utility.yul\":13581:13582   */\n      0x00\n        /* \"#utility.yul\":13570:13579   */\n      dup4\n        /* \"#utility.yul\":13566:13583   */\n      add\n        /* \"#utility.yul\":13559:13606   */\n      mstore\n        /* \"#utility.yul\":13623:13754   */\n      tag_349\n        /* \"#utility.yul\":13749:13753   */\n      dup2\n        /* \"#utility.yul\":13623:13754   */\n      tag_277\n      jump\t// in\n    tag_349:\n        /* \"#utility.yul\":13615:13754   */\n      swap1\n      pop\n        /* \"#utility.yul\":13342:13761   */\n      swap2\n      swap1\n      pop\n      jump\t// out\n        /* \"#utility.yul\":13767:14186   */\n    tag_154:\n        /* \"#utility.yul\":13933:13937   */\n      0x00\n        /* \"#utility.yul\":13971:13973   */\n      0x20\n        /* \"#utility.yul\":13960:13969   */\n      dup3\n        /* \"#utility.yul\":13956:13974   */\n      add\n        /* \"#utility.yul\":13948:13974   */\n      swap1\n      pop\n        /* \"#utility.yul\":14020:14029   */\n      dup2\n        /* \"#utility.yul\":14014:14018   */\n      dup2\n        /* \"#utility.yul\":14010:14030   */\n      sub\n        /* \"#utility.yul\":14006:14007   */\n      0x00\n        /* \"#utility.yul\":13995:14004   */\n      dup4\n        /* \"#utility.yul\":13991:14008   */\n      add\n        /* \"#utility.yul\":13984:14031   */\n      mstore\n        /* \"#utility.yul\":14048:14179   */\n      tag_351\n        /* \"#utility.yul\":14174:14178   */\n      dup2\n        /* \"#utility.yul\":14048:14179   */\n      tag_282\n      jump\t// in\n    tag_351:\n        /* \"#utility.yul\":14040:14179   */\n      swap1\n      pop\n        /* \"#utility.yul\":13767:14186   */\n      swap2\n      swap1\n      pop\n      jump\t// out\n        /* \"#utility.yul\":14192:14611   */\n    tag_140:\n        /* \"#utility.yul\":14358:14362   */\n      0x00\n        /* \"#utility.yul\":14396:14398   */\n      0x20\n        /* \"#utility.yul\":14385:14394   */\n      dup3\n        /* \"#utility.yul\":14381:14399   */\n      add\n        /* \"#utility.yul\":14373:14399   */\n      swap1\n      pop\n        /* \"#utility.yul\":14445:14454   */\n      dup2\n        /* \"#utility.yul\":14439:14443   */\n      dup2\n        /* \"#utility.yul\":14435:14455   */\n      sub\n        /* \"#utility.yul\":14431:14432   */\n      0x00\n        /* \"#utility.yul\":14420:14429   */\n      dup4\n        /* \"#utility.yul\":14416:14433   */\n      add\n        /* \"#utility.yul\":14409:14456   */\n      mstore\n        /* \"#utility.yul\":14473:14604   */\n      tag_353\n        /* \"#utility.yul\":14599:14603   */\n      dup2\n        /* \"#utility.yul\":14473:14604   */\n      tag_287\n      jump\t// in\n    tag_353:\n        /* \"#utility.yul\":14465:14604   */\n      swap1\n      pop\n        /* \"#utility.yul\":14192:14611   */\n      swap2\n      swap1\n      pop\n      jump\t// out\n        /* \"#utility.yul\":14617:15036   */\n    tag_91:\n        /* \"#utility.yul\":14783:14787   */\n      0x00\n        /* \"#utility.yul\":14821:14823   */\n      0x20\n        /* \"#utility.yul\":14810:14819   */\n      dup3\n        /* \"#utility.yul\":14806:14824   */\n      add\n        /* \"#utility.yul\":14798:14824   */\n      swap1\n      pop\n        /* \"#utility.yul\":14870:14879   */\n      dup2\n        /* \"#utility.yul\":14864:14868   */\n      dup2\n        /* \"#utility.yul\":14860:14880   */\n      sub\n        /* \"#utility.yul\":14856:14857   */\n      0x00\n        /* \"#utility.yul\":14845:14854   */\n      dup4\n        /* \"#utility.yul\":14841:14858   */\n      add\n        /* \"#utility.yul\":14834:14881   */\n      mstore\n        /* \"#utility.yul\":14898:15029   */\n      tag_355\n        /* \"#utility.yul\":15024:15028   */\n      dup2\n        /* \"#utility.yul\":14898:15029   */\n      tag_292\n      jump\t// in\n    tag_355:\n        /* \"#utility.yul\":14890:15029   */\n      swap1\n      pop\n        /* \"#utility.yul\":14617:15036   */\n      swap2\n      swap1\n      pop\n      jump\t// out\n        /* \"#utility.yul\":15042:15461   */\n    tag_103:\n        /* \"#utility.yul\":15208:15212   */\n      0x00\n        /* \"#utility.yul\":15246:15248   */\n      0x20\n        /* \"#utility.yul\":15235:15244   */\n      dup3\n        /* \"#utility.yul\":15231:15249   */\n      add\n        /* \"#utility.yul\":15223:15249   */\n      swap1\n      pop\n        /* \"#utility.yul\":15295:15304   */\n      dup2\n        /* \"#utility.yul\":15289:15293   */\n      dup2\n        /* \"#utility.yul\":15285:15305   */\n      sub\n        /* \"#utility.yul\":15281:15282   */\n      0x00\n        /* \"#utility.yul\":15270:15279   */\n      dup4\n        /* \"#utility.yul\":15266:15283   */\n      add\n        /* \"#utility.yul\":15259:15306   */\n      mstore\n        /* \"#utility.yul\":15323:15454   */\n      tag_357\n        /* \"#utility.yul\":15449:15453   */\n      dup2\n        /* \"#utility.yul\":15323:15454   */\n      tag_297\n      jump\t// in\n    tag_357:\n        /* \"#utility.yul\":15315:15454   */\n      swap1\n      pop\n        /* \"#utility.yul\":15042:15461   */\n      swap2\n      swap1\n      pop\n      jump\t// out\n        /* \"#utility.yul\":15467:15886   */\n    tag_137:\n        /* \"#utility.yul\":15633:15637   */\n      0x00\n        /* \"#utility.yul\":15671:15673   */\n      0x20\n        /* \"#utility.yul\":15660:15669   */\n      dup3\n        /* \"#utility.yul\":15656:15674   */\n      add\n        /* \"#utility.yul\":15648:15674   */\n      swap1\n      pop\n        /* \"#utility.yul\":15720:15729   */\n      dup2\n        /* \"#utility.yul\":15714:15718   */\n      dup2\n        /* \"#utility.yul\":15710:15730   */\n      sub\n        /* \"#utility.yul\":15706:15707   */\n      0x00\n        /* \"#utility.yul\":15695:15704   */\n      dup4\n        /* \"#utility.yul\":15691:15708   */\n      add\n        /* \"#utility.yul\":15684:15731   */\n      mstore\n        /* \"#utility.yul\":15748:15879   */\n      tag_359\n        /* \"#utility.yul\":15874:15878   */\n      dup2\n        /* \"#utility.yul\":15748:15879   */\n      tag_302\n      jump\t// in\n    tag_359:\n        /* \"#utility.yul\":15740:15879   */\n      swap1\n      pop\n        /* \"#utility.yul\":15467:15886   */\n      swap2\n      swap1\n      pop\n      jump\t// out\n        /* \"#utility.yul\":15892:16311   */\n    tag_115:\n        /* \"#utility.yul\":16058:16062   */\n      0x00\n        /* \"#utility.yul\":16096:16098   */\n      0x20\n        /* \"#utility.yul\":16085:16094   */\n      dup3\n        /* \"#utility.yul\":16081:16099   */\n      add\n        /* \"#utility.yul\":16073:16099   */\n      swap1\n      pop\n        /* \"#utility.yul\":16145:16154   */\n      dup2\n        /* \"#utility.yul\":16139:16143   */\n      dup2\n        /* \"#utility.yul\":16135:16155   */\n      sub\n        /* \"#utility.yul\":16131:16132   */\n      0x00\n        /* \"#utility.yul\":16120:16129   */\n      dup4\n        /* \"#utility.yul\":16116:16133   */\n      add\n        /* \"#utility.yul\":16109:16156   */\n      mstore\n        /* \"#utility.yul\":16173:16304   */\n      tag_361\n        /* \"#utility.yul\":16299:16303   */\n      dup2\n        /* \"#utility.yul\":16173:16304   */\n      tag_307\n      jump\t// in\n    tag_361:\n        /* \"#utility.yul\":16165:16304   */\n      swap1\n      pop\n        /* \"#utility.yul\":15892:16311   */\n      swap2\n      swap1\n      pop\n      jump\t// out\n        /* \"#utility.yul\":16317:16736   */\n    tag_178:\n        /* \"#utility.yul\":16483:16487   */\n      0x00\n        /* \"#utility.yul\":16521:16523   */\n      0x20\n        /* \"#utility.yul\":16510:16519   */\n      dup3\n        /* \"#utility.yul\":16506:16524   */\n      add\n        /* \"#utility.yul\":16498:16524   */\n      swap1\n      pop\n        /* \"#utility.yul\":16570:16579   */\n      dup2\n        /* \"#utility.yul\":16564:16568   */\n      dup2\n        /* \"#utility.yul\":16560:16580   */\n      sub\n        /* \"#utility.yul\":16556:16557   */\n      0x00\n        /* \"#utility.yul\":16545:16554   */\n      dup4\n        /* \"#utility.yul\":16541:16558   */\n      add\n        /* \"#utility.yul\":16534:16581   */\n      mstore\n        /* \"#utility.yul\":16598:16729   */\n      tag_363\n        /* \"#utility.yul\":16724:16728   */\n      dup2\n        /* \"#utility.yul\":16598:16729   */\n      tag_312\n      jump\t// in\n    tag_363:\n        /* \"#utility.yul\":16590:16729   */\n      swap1\n      pop\n        /* \"#utility.yul\":16317:16736   */\n      swap2\n      swap1\n      pop\n      jump\t// out\n        /* \"#utility.yul\":16742:16964   */\n    tag_39:\n        /* \"#utility.yul\":16835:16839   */\n      0x00\n        /* \"#utility.yul\":16873:16875   */\n      0x20\n        /* \"#utility.yul\":16862:16871   */\n      dup3\n        /* \"#utility.yul\":16858:16876   */\n      add\n        /* \"#utility.yul\":16850:16876   */\n      swap1\n      pop\n        /* \"#utility.yul\":16886:16957   */\n      tag_365\n        /* \"#utility.yul\":16954:16955   */\n      0x00\n        /* \"#utility.yul\":16943:16952   */\n      dup4\n        /* \"#utility.yul\":16939:16956   */\n      add\n        /* \"#utility.yul\":16930:16936   */\n      dup5\n        /* \"#utility.yul\":16886:16957   */\n      tag_317\n      jump\t// in\n    tag_365:\n        /* \"#utility.yul\":16742:16964   */\n      swap3\n      swap2\n      pop\n      pop\n      jump\t// out\n        /* \"#utility.yul\":17051:17220   */\n    tag_259:\n        /* \"#utility.yul\":17135:17146   */\n      0x00\n        /* \"#utility.yul\":17169:17175   */\n      dup3\n        /* \"#utility.yul\":17164:17167   */\n      dup3\n        /* \"#utility.yul\":17157:17176   */\n      mstore\n        /* \"#utility.yul\":17209:17213   */\n      0x20\n        /* \"#utility.yul\":17204:17207   */\n      dup3\n        /* \"#utility.yul\":17200:17214   */\n      add\n        /* \"#utility.yul\":17185:17214   */\n      swap1\n      pop\n        /* \"#utility.yul\":17051:17220   */\n      swap3\n      swap2\n      pop\n      pop\n      jump\t// out\n        /* \"#utility.yul\":17226:17531   */\n    tag_17:\n        /* \"#utility.yul\":17266:17269   */\n      0x00\n        /* \"#utility.yul\":17285:17305   */\n      tag_370\n        /* \"#utility.yul\":17303:17304   */\n      dup3\n        /* \"#utility.yul\":17285:17305   */\n      tag_320\n      jump\t// in\n    tag_370:\n        /* \"#utility.yul\":17280:17305   */\n      swap2\n      pop\n        /* \"#utility.yul\":17319:17339   */\n      tag_371\n        /* \"#utility.yul\":17337:17338   */\n      dup4\n        /* \"#utility.yul\":17319:17339   */\n      tag_320\n      jump\t// in\n    tag_371:\n        /* \"#utility.yul\":17314:17339   */\n      swap3\n      pop\n        /* \"#utility.yul\":17473:17474   */\n      dup3\n        /* \"#utility.yul\":17405:17471   */\n      0xffffffffffffffffffffffffffffffffffffffffffffffffffffffffffffffff\n        /* \"#utility.yul\":17401:17475   */\n      sub\n        /* \"#utility.yul\":17398:17399   */\n      dup3\n        /* \"#utility.yul\":17395:17476   */\n      gt\n        /* \"#utility.yul\":17392:17499   */\n      iszero\n      tag_372\n      jumpi\n        /* \"#utility.yul\":17479:17497   */\n      tag_373\n      tag_374\n      jump\t// in\n    tag_373:\n        /* \"#utility.yul\":17392:17499   */\n    tag_372:\n        /* \"#utility.yul\":17523:17524   */\n      dup3\n        /* \"#utility.yul\":17520:17521   */\n      dup3\n        /* \"#utility.yul\":17516:17525   */\n      add\n        /* \"#utility.yul\":17509:17525   */\n      swap1\n      pop\n        /* \"#utility.yul\":17226:17531   */\n      swap3\n      swap2\n      pop\n      pop\n      jump\t// out\n        /* \"#utility.yul\":17537:17722   */\n    tag_117:\n        /* \"#utility.yul\":17577:17578   */\n      0x00\n        /* \"#utility.yul\":17594:17614   */\n      tag_376\n        /* \"#utility.yul\":17612:17613   */\n      dup3\n        /* \"#utility.yul\":17594:17614   */\n      tag_320\n      jump\t// in\n    tag_376:\n        /* \"#utility.yul\":17589:17614   */\n      swap2\n      pop\n        /* \"#utility.yul\":17628:17648   */\n      tag_377\n        /* \"#utility.yul\":17646:17647   */\n      dup4\n        /* \"#utility.yul\":17628:17648   */\n      tag_320\n      jump\t// in\n    tag_377:\n        /* \"#utility.yul\":17623:17648   */\n      swap3\n      pop\n        /* \"#utility.yul\":17667:17668   */\n      dup3\n        /* \"#utility.yul\":17657:17692   */\n      tag_378\n      jumpi\n        /* \"#utility.yul\":17672:17690   */\n      tag_379\n      tag_380\n      jump\t// in\n    tag_379:\n        /* \"#utility.yul\":17657:17692   */\n    tag_378:\n        /* \"#utility.yul\":17714:17715   */\n      dup3\n        /* \"#utility.yul\":17711:17712   */\n      dup3\n        /* \"#utility.yul\":17707:17716   */\n      div\n        /* \"#utility.yul\":17702:17716   */\n      swap1\n      pop\n        /* \"#utility.yul\":17537:17722   */\n      swap3\n      swap2\n      pop\n      pop\n      jump\t// out\n        /* \"#utility.yul\":17728:18076   */\n    tag_146:\n        /* \"#utility.yul\":17768:17775   */\n      0x00\n        /* \"#utility.yul\":17791:17811   */\n      tag_382\n        /* \"#utility.yul\":17809:17810   */\n      dup3\n        /* \"#utility.yul\":17791:17811   */\n      tag_320\n      jump\t// in\n    tag_382:\n        /* \"#utility.yul\":17786:17811   */\n      swap2\n      pop\n        /* \"#utility.yul\":17825:17845   */\n      tag_383\n        /* \"#utility.yul\":17843:17844   */\n      dup4\n        /* \"#utility.yul\":17825:17845   */\n      tag_320\n      jump\t// in\n    tag_383:\n        /* \"#utility.yul\":17820:17845   */\n      swap3\n      pop\n        /* \"#utility.yul\":18013:18014   */\n      dup2\n        /* \"#utility.yul\":17945:18011   */\n      0xffffffffffffffffffffffffffffffffffffffffffffffffffffffffffffffff\n        /* \"#utility.yul\":17941:18015   */\n      div\n        /* \"#utility.yul\":17938:17939   */\n      dup4\n        /* \"#utility.yul\":17935:18016   */\n      gt\n        /* \"#utility.yul\":17930:17931   */\n      dup3\n        /* \"#utility.yul\":17923:17932   */\n      iszero\n        /* \"#utility.yul\":17916:17933   */\n      iszero\n        /* \"#utility.yul\":17912:18017   */\n      and\n        /* \"#utility.yul\":17909:18040   */\n      iszero\n      tag_384\n      jumpi\n        /* \"#utility.yul\":18020:18038   */\n      tag_385\n      tag_374\n      jump\t// in\n    tag_385:\n        /* \"#utility.yul\":17909:18040   */\n    tag_384:\n        /* \"#utility.yul\":18068:18069   */\n      dup3\n        /* \"#utility.yul\":18065:18066   */\n      dup3\n        /* \"#utility.yul\":18061:18070   */\n      mul\n        /* \"#utility.yul\":18050:18070   */\n      swap1\n      pop\n        /* \"#utility.yul\":17728:18076   */\n      swap3\n      swap2\n      pop\n      pop\n      jump\t// out\n        /* \"#utility.yul\":18082:18273   */\n    tag_77:\n        /* \"#utility.yul\":18122:18126   */\n      0x00\n        /* \"#utility.yul\":18142:18162   */\n      tag_387\n        /* \"#utility.yul\":18160:18161   */\n      dup3\n        /* \"#utility.yul\":18142:18162   */\n      tag_320\n      jump\t// in\n    tag_387:\n        /* \"#utility.yul\":18137:18162   */\n      swap2\n      pop\n        /* \"#utility.yul\":18176:18196   */\n      tag_388\n        /* \"#utility.yul\":18194:18195   */\n      dup4\n        /* \"#utility.yul\":18176:18196   */\n      tag_320\n      jump\t// in\n    tag_388:\n        /* \"#utility.yul\":18171:18196   */\n      swap3\n      pop\n        /* \"#utility.yul\":18215:18216   */\n      dup3\n        /* \"#utility.yul\":18212:18213   */\n      dup3\n        /* \"#utility.yul\":18209:18217   */\n      lt\n        /* \"#utility.yul\":18206:18240   */\n      iszero\n      tag_389\n      jumpi\n        /* \"#utility.yul\":18220:18238   */\n      tag_390\n      tag_374\n      jump\t// in\n    tag_390:\n        /* \"#utility.yul\":18206:18240   */\n    tag_389:\n        /* \"#utility.yul\":18265:18266   */\n      dup3\n        /* \"#utility.yul\":18262:18263   */\n      dup3\n        /* \"#utility.yul\":18258:18267   */\n      sub\n        /* \"#utility.yul\":18250:18267   */\n      swap1\n      pop\n        /* \"#utility.yul\":18082:18273   */\n      swap3\n      swap2\n      pop\n      pop\n      jump\t// out\n        /* \"#utility.yul\":18279:18375   */\n    tag_255:\n        /* \"#utility.yul\":18316:18323   */\n      0x00\n        /* \"#utility.yul\":18345:18369   */\n      tag_392\n        /* \"#utility.yul\":18363:18368   */\n      dup3\n        /* \"#utility.yul\":18345:18369   */\n      tag_393\n      jump\t// in\n    tag_392:\n        /* \"#utility.yul\":18334:18369   */\n      swap1\n      pop\n        /* \"#utility.yul\":18279:18375   */\n      swap2\n      swap1\n      pop\n      jump\t// out\n        /* \"#utility.yul\":18381:18485   */\n    tag_394:\n        /* \"#utility.yul\":18426:18433   */\n      0x00\n        /* \"#utility.yul\":18455:18479   */\n      tag_396\n        /* \"#utility.yul\":18473:18478   */\n      dup3\n        /* \"#utility.yul\":18455:18479   */\n      tag_393\n      jump\t// in\n    tag_396:\n        /* \"#utility.yul\":18444:18479   */\n      swap1\n      pop\n        /* \"#utility.yul\":18381:18485   */\n      swap2\n      swap1\n      pop\n      jump\t// out\n        /* \"#utility.yul\":18491:18581   */\n    tag_397:\n        /* \"#utility.yul\":18525:18532   */\n      0x00\n        /* \"#utility.yul\":18568:18573   */\n      dup2\n        /* \"#utility.yul\":18561:18574   */\n      iszero\n        /* \"#utility.yul\":18554:18575   */\n      iszero\n        /* \"#utility.yul\":18543:18575   */\n      swap1\n      pop\n        /* \"#utility.yul\":18491:18581   */\n      swap2\n      swap1\n      pop\n      jump\t// out\n        /* \"#utility.yul\":18587:18696   */\n    tag_399:\n        /* \"#utility.yul\":18637:18644   */\n      0x00\n        /* \"#utility.yul\":18666:18690   */\n      tag_401\n        /* \"#utility.yul\":18684:18689   */\n      dup3\n        /* \"#utility.yul\":18666:18690   */\n      tag_255\n      jump\t// in\n    tag_401:\n        /* \"#utility.yul\":18655:18690   */\n      swap1\n      pop\n        /* \"#utility.yul\":18587:18696   */\n      swap2\n      swap1\n      pop\n      jump\t// out\n        /* \"#utility.yul\":18702:18828   */\n    tag_393:\n        /* \"#utility.yul\":18739:18746   */\n      0x00\n        /* \"#utility.yul\":18779:18821   */\n      0xffffffffffffffffffffffffffffffffffffffff\n        /* \"#utility.yul\":18772:18777   */\n      dup3\n        /* \"#utility.yul\":18768:18822   */\n      and\n        /* \"#utility.yul\":18757:18822   */\n      swap1\n      pop\n        /* \"#utility.yul\":18702:18828   */\n      swap2\n      swap1\n      pop\n      jump\t// out\n        /* \"#utility.yul\":18834:18911   */\n    tag_320:\n        /* \"#utility.yul\":18871:18878   */\n      0x00\n        /* \"#utility.yul\":18900:18905   */\n      dup2\n        /* \"#utility.yul\":18889:18905   */\n      swap1\n      pop\n        /* \"#utility.yul\":18834:18911   */\n      swap2\n      swap1\n      pop\n      jump\t// out\n        /* \"#utility.yul\":18917:19051   */\n    tag_251:\n        /* \"#utility.yul\":18975:18984   */\n      0x00\n        /* \"#utility.yul\":19008:19045   */\n      tag_405\n        /* \"#utility.yul\":19039:19044   */\n      dup3\n        /* \"#utility.yul\":19008:19045   */\n      tag_406\n      jump\t// in\n    tag_405:\n        /* \"#utility.yul\":18995:19045   */\n      swap1\n      pop\n        /* \"#utility.yul\":18917:19051   */\n      swap2\n      swap1\n      pop\n      jump\t// out\n        /* \"#utility.yul\":19057:19183   */\n    tag_406:\n        /* \"#utility.yul\":19107:19116   */\n      0x00\n        /* \"#utility.yul\":19140:19177   */\n      tag_408\n        /* \"#utility.yul\":19171:19176   */\n      dup3\n        /* \"#utility.yul\":19140:19177   */\n      tag_409\n      jump\t// in\n    tag_408:\n        /* \"#utility.yul\":19127:19177   */\n      swap1\n      pop\n        /* \"#utility.yul\":19057:19183   */\n      swap2\n      swap1\n      pop\n      jump\t// out\n        /* \"#utility.yul\":19189:19302   */\n    tag_409:\n        /* \"#utility.yul\":19239:19248   */\n      0x00\n        /* \"#utility.yul\":19272:19296   */\n      tag_411\n        /* \"#utility.yul\":19290:19295   */\n      dup3\n        /* \"#utility.yul\":19272:19296   */\n      tag_393\n      jump\t// in\n    tag_411:\n        /* \"#utility.yul\":19259:19296   */\n      swap1\n      pop\n        /* \"#utility.yul\":19189:19302   */\n      swap2\n      swap1\n      pop\n      jump\t// out\n        /* \"#utility.yul\":19308:19488   */\n    tag_374:\n        /* \"#utility.yul\":19356:19433   */\n      0x4e487b7100000000000000000000000000000000000000000000000000000000\n        /* \"#utility.yul\":19353:19354   */\n      0x00\n        /* \"#utility.yul\":19346:19434   */\n      mstore\n        /* \"#utility.yul\":19453:19457   */\n      0x11\n        /* \"#utility.yul\":19450:19451   */\n      0x04\n        /* \"#utility.yul\":19443:19458   */\n      mstore\n        /* \"#utility.yul\":19477:19481   */\n      0x24\n        /* \"#utility.yul\":19474:19475   */\n      0x00\n        /* \"#utility.yul\":19467:19482   */\n      revert\n        /* \"#utility.yul\":19494:19674   */\n    tag_380:\n        /* \"#utility.yul\":19542:19619   */\n      0x4e487b7100000000000000000000000000000000000000000000000000000000\n        /* \"#utility.yul\":19539:19540   */\n      0x00\n        /* \"#utility.yul\":19532:19620   */\n      mstore\n        /* \"#utility.yul\":19639:19643   */\n      0x12\n        /* \"#utility.yul\":19636:19637   */\n      0x04\n        /* \"#utility.yul\":19629:19644   */\n      mstore\n        /* \"#utility.yul\":19663:19667   */\n      0x24\n        /* \"#utility.yul\":19660:19661   */\n      0x00\n        /* \"#utility.yul\":19653:19668   */\n      revert\n        /* \"#utility.yul\":19803:19920   */\n    tag_212:\n        /* \"#utility.yul\":19912:19913   */\n      0x00\n        /* \"#utility.yul\":19909:19910   */\n      dup1\n        /* \"#utility.yul\":19902:19914   */\n      revert\n        /* \"#utility.yul\":19926:20168   */\n    tag_261:\n        /* \"#utility.yul\":20066:20100   */\n      0x546f6b656e20776869636820796f752073656c6c20636f6e76657273696f6e20\n        /* \"#utility.yul\":20062:20063   */\n      0x00\n        /* \"#utility.yul\":20054:20060   */\n      dup3\n        /* \"#utility.yul\":20050:20064   */\n      add\n        /* \"#utility.yul\":20043:20101   */\n      mstore\n        /* \"#utility.yul\":20135:20160   */\n      0x72617465206973206e6f7420646566696e656420796574000000000000000000\n        /* \"#utility.yul\":20130:20132   */\n      0x20\n        /* \"#utility.yul\":20122:20128   */\n      dup3\n        /* \"#utility.yul\":20118:20133   */\n      add\n        /* \"#utility.yul\":20111:20161   */\n      mstore\n        /* \"#utility.yul\":19926:20168   */\n      pop\n      jump\t// out\n        /* \"#utility.yul\":20174:20416   */\n    tag_266:\n        /* \"#utility.yul\":20314:20348   */\n      0x5377617020636f6e747261637420646f6573206e6f74206861766520656e6f75\n        /* \"#utility.yul\":20310:20311   */\n      0x00\n        /* \"#utility.yul\":20302:20308   */\n      dup3\n        /* \"#utility.yul\":20298:20312   */\n      add\n        /* \"#utility.yul\":20291:20349   */\n      mstore\n        /* \"#utility.yul\":20383:20408   */\n      0x676820617661696c61626c652045544820616d6f756e74000000000000000000\n        /* \"#utility.yul\":20378:20380   */\n      0x20\n        /* \"#utility.yul\":20370:20376   */\n      dup3\n        /* \"#utility.yul\":20366:20381   */\n      add\n        /* \"#utility.yul\":20359:20409   */\n      mstore\n        /* \"#utility.yul\":20174:20416   */\n      pop\n      jump\t// out\n        /* \"#utility.yul\":20422:20661   */\n    tag_271:\n        /* \"#utility.yul\":20562:20596   */\n      0x596f752063616e206e6f742073656c6c206d6f726520746f6b656e7320746861\n        /* \"#utility.yul\":20558:20559   */\n      0x00\n        /* \"#utility.yul\":20550:20556   */\n      dup3\n        /* \"#utility.yul\":20546:20560   */\n      add\n        /* \"#utility.yul\":20539:20597   */\n      mstore\n        /* \"#utility.yul\":20631:20653   */\n      0x6e20796f752063757272656e746c7920686f6c64000000000000000000000000\n        /* \"#utility.yul\":20626:20628   */\n      0x20\n        /* \"#utility.yul\":20618:20624   */\n      dup3\n        /* \"#utility.yul\":20614:20629   */\n      add\n        /* \"#utility.yul\":20607:20654   */\n      mstore\n        /* \"#utility.yul\":20422:20661   */\n      pop\n      jump\t// out\n        /* \"#utility.yul\":20667:20846   */\n    tag_276:\n        /* \"#utility.yul\":20807:20838   */\n      0x4f6e6c79206f776e65722063616e2077697468647261772066756e6473000000\n        /* \"#utility.yul\":20803:20804   */\n      0x00\n        /* \"#utility.yul\":20795:20801   */\n      dup3\n        /* \"#utility.yul\":20791:20805   */\n      add\n        /* \"#utility.yul\":20784:20839   */\n      mstore\n        /* \"#utility.yul\":20667:20846   */\n      pop\n      jump\t// out\n        /* \"#utility.yul\":20852:21020   */\n    tag_281:\n        /* \"#utility.yul\":20992:21012   */\n      0x496e73756666696369656e742066756e64730000000000000000000000000000\n        /* \"#utility.yul\":20988:20989   */\n      0x00\n        /* \"#utility.yul\":20980:20986   */\n      dup3\n        /* \"#utility.yul\":20976:20990   */\n      add\n        /* \"#utility.yul\":20969:21013   */\n      mstore\n        /* \"#utility.yul\":20852:21020   */\n      pop\n      jump\t// out\n        /* \"#utility.yul\":21026:21203   */\n    tag_286:\n        /* \"#utility.yul\":21166:21195   */\n      0x4e6f7420656e6f7567682066756e6473206f6e20457468537761700000000000\n        /* \"#utility.yul\":21162:21163   */\n      0x00\n        /* \"#utility.yul\":21154:21160   */\n      dup3\n        /* \"#utility.yul\":21150:21164   */\n      add\n        /* \"#utility.yul\":21143:21196   */\n      mstore\n        /* \"#utility.yul\":21026:21203   */\n      pop\n      jump\t// out\n        /* \"#utility.yul\":21209:21450   */\n    tag_291:\n        /* \"#utility.yul\":21349:21383   */\n      0x546f6b656e20776869636820796f752062757920636f6e76657273696f6e2072\n        /* \"#utility.yul\":21345:21346   */\n      0x00\n        /* \"#utility.yul\":21337:21343   */\n      dup3\n        /* \"#utility.yul\":21333:21347   */\n      add\n        /* \"#utility.yul\":21326:21384   */\n      mstore\n        /* \"#utility.yul\":21418:21442   */\n      0x617465206973206e6f7420646566696e65642079657400000000000000000000\n        /* \"#utility.yul\":21413:21415   */\n      0x20\n        /* \"#utility.yul\":21405:21411   */\n      dup3\n        /* \"#utility.yul\":21401:21416   */\n      add\n        /* \"#utility.yul\":21394:21443   */\n      mstore\n        /* \"#utility.yul\":21209:21450   */\n      pop\n      jump\t// out\n        /* \"#utility.yul\":21456:21620   */\n    tag_296:\n        /* \"#utility.yul\":21596:21612   */\n      0x62616c616e6365206973206c6f77000000000000000000000000000000000000\n        /* \"#utility.yul\":21592:21593   */\n      0x00\n        /* \"#utility.yul\":21584:21590   */\n      dup3\n        /* \"#utility.yul\":21580:21594   */\n      add\n        /* \"#utility.yul\":21573:21613   */\n      mstore\n        /* \"#utility.yul\":21456:21620   */\n      pop\n      jump\t// out\n        /* \"#utility.yul\":21626:21847   */\n    tag_301:\n        /* \"#utility.yul\":21766:21800   */\n      0x4f6e6c79206f776e65722063616e2073657420636f6e76657273696f6e207261\n        /* \"#utility.yul\":21762:21763   */\n      0x00\n        /* \"#utility.yul\":21754:21760   */\n      dup3\n        /* \"#utility.yul\":21750:21764   */\n      add\n        /* \"#utility.yul\":21743:21801   */\n      mstore\n        /* \"#utility.yul\":21835:21839   */\n      0x7465000000000000000000000000000000000000000000000000000000000000\n        /* \"#utility.yul\":21830:21832   */\n      0x20\n        /* \"#utility.yul\":21822:21828   */\n      dup3\n        /* \"#utility.yul\":21818:21833   */\n      add\n        /* \"#utility.yul\":21811:21840   */\n      mstore\n        /* \"#utility.yul\":21626:21847   */\n      pop\n      jump\t// out\n        /* \"#utility.yul\":21853:22079   */\n    tag_306:\n        /* \"#utility.yul\":21993:22027   */\n      0x4e6f7420656e6f7567682066756e647320746f2073776170206f6e2075736572\n        /* \"#utility.yul\":21989:21990   */\n      0x00\n        /* \"#utility.yul\":21981:21987   */\n      dup3\n        /* \"#utility.yul\":21977:21991   */\n      add\n        /* \"#utility.yul\":21970:22028   */\n      mstore\n        /* \"#utility.yul\":22062:22071   */\n      0x2077616c6c657400000000000000000000000000000000000000000000000000\n        /* \"#utility.yul\":22057:22059   */\n      0x20\n        /* \"#utility.yul\":22049:22055   */\n      dup3\n        /* \"#utility.yul\":22045:22060   */\n      add\n        /* \"#utility.yul\":22038:22072   */\n      mstore\n        /* \"#utility.yul\":21853:22079   */\n      pop\n      jump\t// out\n        /* \"#utility.yul\":22085:22312   */\n    tag_311:\n        /* \"#utility.yul\":22225:22259   */\n      0x546f6b656e20636f6e76657273696f6e2072617465206973206e6f7420646566\n        /* \"#utility.yul\":22221:22222   */\n      0x00\n        /* \"#utility.yul\":22213:22219   */\n      dup3\n        /* \"#utility.yul\":22209:22223   */\n      add\n        /* \"#utility.yul\":22202:22260   */\n      mstore\n        /* \"#utility.yul\":22294:22304   */\n      0x696e656420796574000000000000000000000000000000000000000000000000\n        /* \"#utility.yul\":22289:22291   */\n      0x20\n        /* \"#utility.yul\":22281:22287   */\n      dup3\n        /* \"#utility.yul\":22277:22292   */\n      add\n        /* \"#utility.yul\":22270:22305   */\n      mstore\n        /* \"#utility.yul\":22085:22312   */\n      pop\n      jump\t// out\n        /* \"#utility.yul\":22318:22556   */\n    tag_316:\n        /* \"#utility.yul\":22458:22492   */\n      0x4e6f7420656e6f75676820746f6b656e73206f6e207377617020636f6e747261\n        /* \"#utility.yul\":22454:22455   */\n      0x00\n        /* \"#utility.yul\":22446:22452   */\n      dup3\n        /* \"#utility.yul\":22442:22456   */\n      add\n        /* \"#utility.yul\":22435:22493   */\n      mstore\n        /* \"#utility.yul\":22527:22548   */\n      0x637420617661696c61626c6520746f2062757900000000000000000000000000\n        /* \"#utility.yul\":22522:22524   */\n      0x20\n        /* \"#utility.yul\":22514:22520   */\n      dup3\n        /* \"#utility.yul\":22510:22525   */\n      add\n        /* \"#utility.yul\":22503:22549   */\n      mstore\n        /* \"#utility.yul\":22318:22556   */\n      pop\n      jump\t// out\n        /* \"#utility.yul\":22562:22684   */\n    tag_189:\n        /* \"#utility.yul\":22635:22659   */\n      tag_430\n        /* \"#utility.yul\":22653:22658   */\n      dup2\n        /* \"#utility.yul\":22635:22659   */\n      tag_255\n      jump\t// in\n    tag_430:\n        /* \"#utility.yul\":22628:22633   */\n      dup2\n        /* \"#utility.yul\":22625:22660   */\n      eq\n        /* \"#utility.yul\":22615:22678   */\n      tag_431\n      jumpi\n        /* \"#utility.yul\":22674:22675   */\n      0x00\n        /* \"#utility.yul\":22671:22672   */\n      dup1\n        /* \"#utility.yul\":22664:22676   */\n      revert\n        /* \"#utility.yul\":22615:22678   */\n    tag_431:\n        /* \"#utility.yul\":22562:22684   */\n      pop\n      jump\t// out\n        /* \"#utility.yul\":22690:22828   */\n    tag_193:\n        /* \"#utility.yul\":22771:22803   */\n      tag_433\n        /* \"#utility.yul\":22797:22802   */\n      dup2\n        /* \"#utility.yul\":22771:22803   */\n      tag_394\n      jump\t// in\n    tag_433:\n        /* \"#utility.yul\":22764:22769   */\n      dup2\n        /* \"#utility.yul\":22761:22804   */\n      eq\n        /* \"#utility.yul\":22751:22822   */\n      tag_434\n      jumpi\n        /* \"#utility.yul\":22818:22819   */\n      0x00\n        /* \"#utility.yul\":22815:22816   */\n      dup1\n        /* \"#utility.yul\":22808:22820   */\n      revert\n        /* \"#utility.yul\":22751:22822   */\n    tag_434:\n        /* \"#utility.yul\":22690:22828   */\n      pop\n      jump\t// out\n        /* \"#utility.yul\":22834:22950   */\n    tag_197:\n        /* \"#utility.yul\":22904:22925   */\n      tag_436\n        /* \"#utility.yul\":22919:22924   */\n      dup2\n        /* \"#utility.yul\":22904:22925   */\n      tag_397\n      jump\t// in\n    tag_436:\n        /* \"#utility.yul\":22897:22902   */\n      dup2\n        /* \"#utility.yul\":22894:22926   */\n      eq\n        /* \"#utility.yul\":22884:22944   */\n      tag_437\n      jumpi\n        /* \"#utility.yul\":22940:22941   */\n      0x00\n        /* \"#utility.yul\":22937:22938   */\n      dup1\n        /* \"#utility.yul\":22930:22942   */\n      revert\n        /* \"#utility.yul\":22884:22944   */\n    tag_437:\n        /* \"#utility.yul\":22834:22950   */\n      pop\n      jump\t// out\n        /* \"#utility.yul\":22956:23104   */\n    tag_201:\n        /* \"#utility.yul\":23042:23079   */\n      tag_439\n        /* \"#utility.yul\":23073:23078   */\n      dup2\n        /* \"#utility.yul\":23042:23079   */\n      tag_399\n      jump\t// in\n    tag_439:\n        /* \"#utility.yul\":23035:23040   */\n      dup2\n        /* \"#utility.yul\":23032:23080   */\n      eq\n        /* \"#utility.yul\":23022:23098   */\n      tag_440\n      jumpi\n        /* \"#utility.yul\":23094:23095   */\n      0x00\n        /* \"#utility.yul\":23091:23092   */\n      dup1\n        /* \"#utility.yul\":23084:23096   */\n      revert\n        /* \"#utility.yul\":23022:23098   */\n    tag_440:\n        /* \"#utility.yul\":22956:23104   */\n      pop\n      jump\t// out\n        /* \"#utility.yul\":23110:23232   */\n    tag_205:\n        /* \"#utility.yul\":23183:23207   */\n      tag_442\n        /* \"#utility.yul\":23201:23206   */\n      dup2\n        /* \"#utility.yul\":23183:23207   */\n      tag_320\n      jump\t// in\n    tag_442:\n        /* \"#utility.yul\":23176:23181   */\n      dup2\n        /* \"#utility.yul\":23173:23208   */\n      eq\n        /* \"#utility.yul\":23163:23226   */\n      tag_443\n      jumpi\n        /* \"#utility.yul\":23222:23223   */\n      0x00\n        /* \"#utility.yul\":23219:23220   */\n      dup1\n        /* \"#utility.yul\":23212:23224   */\n      revert\n        /* \"#utility.yul\":23163:23226   */\n    tag_443:\n        /* \"#utility.yul\":23110:23232   */\n      pop\n      jump\t// out\n\n    auxdata: 0xa264697066735822122016ebd737cc1f4ae3dbf32c509091e8d45a5a85a5403b2dc7eaec13e7c5d56ca864736f6c63430008070033\n}\n",
				"bytecode": {
					"linkReferences": {},
					"object": "60806040523480156200001157600080fd5b5060405162002234380380620022348339818101604052810190620000379190620002e7565b336000806101000a81548173ffffffffffffffffffffffffffffffffffffffff021916908373ffffffffffffffffffffffffffffffffffffffff16021790555060008273ffffffffffffffffffffffffffffffffffffffff166370a08231306040518263ffffffff1660e01b8152600401620000b4919062000371565b60206040518083038186803b158015620000cd57600080fd5b505afa158015620000e2573d6000803e3d6000fd5b505050506040513d601f19601f820116820180604052508101906200010891906200032e565b905060008273ffffffffffffffffffffffffffffffffffffffff166370a08231306040518263ffffffff1660e01b815260040162000147919062000371565b60206040518083038186803b1580156200016057600080fd5b505afa15801562000175573d6000803e3d6000fd5b505050506040513d601f19601f820116820180604052508101906200019b91906200032e565b905081600360008673ffffffffffffffffffffffffffffffffffffffff1673ffffffffffffffffffffffffffffffffffffffff1681526020019081526020016000208190555080600360008573ffffffffffffffffffffffffffffffffffffffff1673ffffffffffffffffffffffffffffffffffffffff168152602001908152602001600020819055506064600260008673ffffffffffffffffffffffffffffffffffffffff1673ffffffffffffffffffffffffffffffffffffffff16815260200190815260200160002081905550600a600260008573ffffffffffffffffffffffffffffffffffffffff1673ffffffffffffffffffffffffffffffffffffffff168152602001908152602001600020819055505050505062000405565b600081519050620002ca81620003d1565b92915050565b600081519050620002e181620003eb565b92915050565b60008060408385031215620003015762000300620003cc565b5b60006200031185828601620002b9565b92505060206200032485828601620002b9565b9150509250929050565b600060208284031215620003475762000346620003cc565b5b60006200035784828501620002d0565b91505092915050565b6200036b816200038e565b82525050565b600060208201905062000388600083018462000360565b92915050565b60006200039b82620003a2565b9050919050565b600073ffffffffffffffffffffffffffffffffffffffff82169050919050565b6000819050919050565b600080fd5b620003dc816200038e565b8114620003e857600080fd5b50565b620003f681620003c2565b81146200040257600080fd5b50565b611e1f80620004156000396000f3fe6080604052600436106100945760003560e01c8063dba243d311610059578063dba243d3146101c3578063deff30c614610200578063df680b4f1461021c578063ec6cc0cc14610259578063ec8ac4d814610275576100ed565b8062f714ce146100f25780638da5cb5b1461011b5780639db5dbe414610146578063b69ef8a81461016f578063c1458c091461019a576100ed565b366100ed5734600160008282546100ab9190611840565b925050819055507ff1b03f708b9c39f453fe3f0cef84164c7d6f7df836df0796e1e9c2bce6ee397e33346040516100e392919061166b565b60405180910390a1005b600080fd5b3480156100fe57600080fd5b506101196004803603810190610114919061137e565b610291565b005b34801561012757600080fd5b50610130610403565b60405161013d919061158f565b60405180910390f35b34801561015257600080fd5b5061016d600480360381019061016891906112ab565b610427565b005b34801561017b57600080fd5b50610184610654565b6040516101919190611814565b60405180910390f35b3480156101a657600080fd5b506101c160048036038101906101bc9190611211565b61065a565b005b3480156101cf57600080fd5b506101ea60048036038101906101e591906111e4565b610730565b6040516101f79190611814565b60405180910390f35b61021a6004803603810190610215919061127e565b610748565b005b34801561022857600080fd5b50610243600480360381019061023e91906111e4565b610a44565b6040516102509190611814565b60405180910390f35b610273600480360381019061026e91906112fe565b610a5c565b005b61028f600480360381019061028a919061127e565b610ef6565b005b60008054906101000a900473ffffffffffffffffffffffffffffffffffffffff1673ffffffffffffffffffffffffffffffffffffffff163373ffffffffffffffffffffffffffffffffffffffff161461031f576040517f08c379a0000000000000000000000000000000000000000000000000000000008152600401610316906116f4565b60405180910390fd5b600154821115610364576040517f08c379a000000000000000000000000000000000000000000000000000000000815260040161035b90611714565b60405180910390fd5b8073ffffffffffffffffffffffffffffffffffffffff166108fc839081150290604051600060405180830381858888f193505050501580156103aa573d6000803e3d6000fd5b5081600160008282546103bd9190611921565b925050819055507ffda3a3e0e1479b43cb1c701f7576187f4c4ad80768d627387e00184302f7d88e3382846040516103f7939291906115aa565b60405180910390a15050565b60008054906101000a900473ffffffffffffffffffffffffffffffffffffffff1681565b60008054906101000a900473ffffffffffffffffffffffffffffffffffffffff1673ffffffffffffffffffffffffffffffffffffffff163373ffffffffffffffffffffffffffffffffffffffff16146104b5576040517f08c379a00000000000000000000000000000000000000000000000000000000081526004016104ac906116f4565b60405180910390fd5b60008373ffffffffffffffffffffffffffffffffffffffff166370a08231306040518263ffffffff1660e01b81526004016104f0919061158f565b60206040518083038186803b15801561050857600080fd5b505afa15801561051c573d6000803e3d6000fd5b505050506040513d601f19601f820116820180604052508101906105409190611351565b905080821115610585576040517f08c379a000000000000000000000000000000000000000000000000000000000815260040161057c90611774565b60405180910390fd5b8373ffffffffffffffffffffffffffffffffffffffff1663a9059cbb84846040518363ffffffff1660e01b81526004016105c092919061166b565b602060405180830381600087803b1580156105da57600080fd5b505af11580156105ee573d6000803e3d6000fd5b505050506040513d601f19601f820116820180604052508101906106129190611251565b507ffda3a3e0e1479b43cb1c701f7576187f4c4ad80768d627387e00184302f7d88e33848460405161064693929190611634565b60405180910390a150505050565b60015481565b60008054906101000a900473ffffffffffffffffffffffffffffffffffffffff1673ffffffffffffffffffffffffffffffffffffffff163373ffffffffffffffffffffffffffffffffffffffff16146106e8576040517f08c379a00000000000000000000000000000000000000000000000000000000081526004016106df90611794565b60405180910390fd5b80600260008473ffffffffffffffffffffffffffffffffffffffff1673ffffffffffffffffffffffffffffffffffffffff168152602001908152602001600020819055505050565b60026020528060005260406000206000915090505481565b348173ffffffffffffffffffffffffffffffffffffffff166370a08231336040518263ffffffff1660e01b8152600401610782919061158f565b60206040518083038186803b15801561079a57600080fd5b505afa1580156107ae573d6000803e3d6000fd5b505050506040513d601f19601f820116820180604052508101906107d29190611351565b1015610813576040517f08c379a000000000000000000000000000000000000000000000000000000000815260040161080a906116d4565b60405180910390fd5b6000600260008373ffffffffffffffffffffffffffffffffffffffff1673ffffffffffffffffffffffffffffffffffffffff168152602001908152602001600020541415610896576040517f08c379a000000000000000000000000000000000000000000000000000000000815260040161088d906117d4565b60405180910390fd5b6000600260008373ffffffffffffffffffffffffffffffffffffffff1673ffffffffffffffffffffffffffffffffffffffff168152602001908152602001600020549050600081346108e89190611896565b90508047101561092d576040517f08c379a0000000000000000000000000000000000000000000000000000000008152600401610924906116b4565b60405180910390fd5b8273ffffffffffffffffffffffffffffffffffffffff166323b872dd3330346040518463ffffffff1660e01b815260040161096a93929190611634565b602060405180830381600087803b15801561098457600080fd5b505af1158015610998573d6000803e3d6000fd5b505050506040513d601f19601f820116820180604052508101906109bc9190611251565b503373ffffffffffffffffffffffffffffffffffffffff166108fc829081150290604051600060405180830381858888f19350505050158015610a03573d6000803e3d6000fd5b507f481809cba951bfbd752234d0504d4719277804f87f6e0da1b5b486c80d808fe4338434604051610a3793929190611634565b60405180910390a1505050565b60036020528060005260406000206000915090505481565b808273ffffffffffffffffffffffffffffffffffffffff166370a08231336040518263ffffffff1660e01b8152600401610a96919061158f565b60206040518083038186803b158015610aae57600080fd5b505afa158015610ac2573d6000803e3d6000fd5b505050506040513d601f19601f82011682018060405250810190610ae69190611351565b1115610b27576040517f08c379a0000000000000000000000000000000000000000000000000000000008152600401610b1e906117b4565b60405180910390fd5b6000600260008573ffffffffffffffffffffffffffffffffffffffff1673ffffffffffffffffffffffffffffffffffffffff168152602001908152602001600020541415610baa576040517f08c379a0000000000000000000000000000000000000000000000000000000008152600401610ba190611754565b60405180910390fd5b6000600260008473ffffffffffffffffffffffffffffffffffffffff1673ffffffffffffffffffffffffffffffffffffffff168152602001908152602001600020541415610c2d576040517f08c379a0000000000000000000000000000000000000000000000000000000008152600401610c2490611694565b60405180910390fd5b6000600260008573ffffffffffffffffffffffffffffffffffffffff1673ffffffffffffffffffffffffffffffffffffffff16815260200190815260200160002054600260008573ffffffffffffffffffffffffffffffffffffffff1673ffffffffffffffffffffffffffffffffffffffff1681526020019081526020016000205483610cba9190611896565b610cc491906118c7565b9050808473ffffffffffffffffffffffffffffffffffffffff166370a08231306040518263ffffffff1660e01b8152600401610d00919061158f565b60206040518083038186803b158015610d1857600080fd5b505afa158015610d2c573d6000803e3d6000fd5b505050506040513d601f19601f82011682018060405250810190610d509190611351565b1115610d91576040517f08c379a0000000000000000000000000000000000000000000000000000000008152600401610d8890611734565b60405180910390fd5b8373ffffffffffffffffffffffffffffffffffffffff166323b872dd3033846040518463ffffffff1660e01b8152600401610dce93929190611634565b602060405180830381600087803b158015610de857600080fd5b505af1158015610dfc573d6000803e3d6000fd5b505050506040513d601f19601f82011682018060405250810190610e209190611251565b508273ffffffffffffffffffffffffffffffffffffffff166323b872dd3330856040518463ffffffff1660e01b8152600401610e5e93929190611634565b602060405180830381600087803b158015610e7857600080fd5b505af1158015610e8c573d6000803e3d6000fd5b505050506040513d601f19601f82011682018060405250810190610eb09190611251565b507fad56699d0f375866eb895ed27203058a36a713382aaded78eb6b67da266d43323385858486604051610ee89594939291906115e1565b60405180910390a150505050565b6000600260008373ffffffffffffffffffffffffffffffffffffffff1673ffffffffffffffffffffffffffffffffffffffff168152602001908152602001600020541415610f79576040517f08c379a0000000000000000000000000000000000000000000000000000000008152600401610f70906117d4565b60405180910390fd5b6000600260008373ffffffffffffffffffffffffffffffffffffffff1673ffffffffffffffffffffffffffffffffffffffff16815260200190815260200160002054905060008134610fcb91906118c7565b9050808373ffffffffffffffffffffffffffffffffffffffff166370a08231306040518263ffffffff1660e01b8152600401611007919061158f565b60206040518083038186803b15801561101f57600080fd5b505afa158015611033573d6000803e3d6000fd5b505050506040513d601f19601f820116820180604052508101906110579190611351565b1015611098576040517f08c379a000000000000000000000000000000000000000000000000000000000815260040161108f906117f4565b60405180910390fd5b8273ffffffffffffffffffffffffffffffffffffffff1663a9059cbb33836040518363ffffffff1660e01b81526004016110d392919061166b565b602060405180830381600087803b1580156110ed57600080fd5b505af1158015611101573d6000803e3d6000fd5b505050506040513d601f19601f820116820180604052508101906111259190611251565b507ff9b4eb3e43eebbf559e9b96ceff1c786a7edab2938c7f5f80678197c2e0edba533848360405161115993929190611634565b60405180910390a1505050565b60008135905061117581611d76565b92915050565b60008135905061118a81611d8d565b92915050565b60008151905061119f81611da4565b92915050565b6000813590506111b481611dbb565b92915050565b6000813590506111c981611dd2565b92915050565b6000815190506111de81611dd2565b92915050565b6000602082840312156111fa576111f9611a55565b5b600061120884828501611166565b91505092915050565b6000806040838503121561122857611227611a55565b5b600061123685828601611166565b9250506020611247858286016111ba565b9150509250929050565b60006020828403121561126757611266611a55565b5b600061127584828501611190565b91505092915050565b60006020828403121561129457611293611a55565b5b60006112a2848285016111a5565b91505092915050565b6000806000606084860312156112c4576112c3611a55565b5b60006112d2868287016111a5565b93505060206112e386828701611166565b92505060406112f4868287016111ba565b9150509250925092565b60008060006060848603121561131757611316611a55565b5b6000611325868287016111a5565b9350506020611336868287016111a5565b9250506040611347868287016111ba565b9150509250925092565b60006020828403121561136757611366611a55565b5b6000611375848285016111cf565b91505092915050565b6000806040838503121561139557611394611a55565b5b60006113a3858286016111ba565b92505060206113b48582860161117b565b9150509250929050565b6113c7816119c1565b82525050565b6113d681611955565b82525050565b60006113e960378361182f565b91506113f482611a5a565b604082019050919050565b600061140c60378361182f565b915061141782611aa9565b604082019050919050565b600061142f60348361182f565b915061143a82611af8565b604082019050919050565b6000611452601d8361182f565b915061145d82611b47565b602082019050919050565b600061147560128361182f565b915061148082611b70565b602082019050919050565b6000611498601b8361182f565b91506114a382611b99565b602082019050919050565b60006114bb60368361182f565b91506114c682611bc2565b604082019050919050565b60006114de600e8361182f565b91506114e982611c11565b602082019050919050565b600061150160228361182f565b915061150c82611c3a565b604082019050919050565b600061152460278361182f565b915061152f82611c89565b604082019050919050565b600061154760288361182f565b915061155282611cd8565b604082019050919050565b600061156a60338361182f565b915061157582611d27565b604082019050919050565b611589816119b7565b82525050565b60006020820190506115a460008301846113cd565b92915050565b60006060820190506115bf60008301866113cd565b6115cc60208301856113be565b6115d96040830184611580565b949350505050565b600060a0820190506115f660008301886113cd565b61160360208301876113cd565b61161060408301866113cd565b61161d6060830185611580565b61162a6080830184611580565b9695505050505050565b600060608201905061164960008301866113cd565b61165660208301856113cd565b6116636040830184611580565b949350505050565b600060408201905061168060008301856113cd565b61168d6020830184611580565b9392505050565b600060208201905081810360008301526116ad816113dc565b9050919050565b600060208201905081810360008301526116cd816113ff565b9050919050565b600060208201905081810360008301526116ed81611422565b9050919050565b6000602082019050818103600083015261170d81611445565b9050919050565b6000602082019050818103600083015261172d81611468565b9050919050565b6000602082019050818103600083015261174d8161148b565b9050919050565b6000602082019050818103600083015261176d816114ae565b9050919050565b6000602082019050818103600083015261178d816114d1565b9050919050565b600060208201905081810360008301526117ad816114f4565b9050919050565b600060208201905081810360008301526117cd81611517565b9050919050565b600060208201905081810360008301526117ed8161153a565b9050919050565b6000602082019050818103600083015261180d8161155d565b9050919050565b60006020820190506118296000830184611580565b92915050565b600082825260208201905092915050565b600061184b826119b7565b9150611856836119b7565b9250827fffffffffffffffffffffffffffffffffffffffffffffffffffffffffffffffff0382111561188b5761188a6119f7565b5b828201905092915050565b60006118a1826119b7565b91506118ac836119b7565b9250826118bc576118bb611a26565b5b828204905092915050565b60006118d2826119b7565b91506118dd836119b7565b9250817fffffffffffffffffffffffffffffffffffffffffffffffffffffffffffffffff0483118215151615611916576119156119f7565b5b828202905092915050565b600061192c826119b7565b9150611937836119b7565b92508282101561194a576119496119f7565b5b828203905092915050565b600061196082611997565b9050919050565b600061197282611997565b9050919050565b60008115159050919050565b600061199082611955565b9050919050565b600073ffffffffffffffffffffffffffffffffffffffff82169050919050565b6000819050919050565b60006119cc826119d3565b9050919050565b60006119de826119e5565b9050919050565b60006119f082611997565b9050919050565b7f4e487b7100000000000000000000000000000000000000000000000000000000600052601160045260246000fd5b7f4e487b7100000000000000000000000000000000000000000000000000000000600052601260045260246000fd5b600080fd5b7f546f6b656e20776869636820796f752073656c6c20636f6e76657273696f6e2060008201527f72617465206973206e6f7420646566696e656420796574000000000000000000602082015250565b7f5377617020636f6e747261637420646f6573206e6f74206861766520656e6f7560008201527f676820617661696c61626c652045544820616d6f756e74000000000000000000602082015250565b7f596f752063616e206e6f742073656c6c206d6f726520746f6b656e732074686160008201527f6e20796f752063757272656e746c7920686f6c64000000000000000000000000602082015250565b7f4f6e6c79206f776e65722063616e2077697468647261772066756e6473000000600082015250565b7f496e73756666696369656e742066756e64730000000000000000000000000000600082015250565b7f4e6f7420656e6f7567682066756e6473206f6e20457468537761700000000000600082015250565b7f546f6b656e20776869636820796f752062757920636f6e76657273696f6e207260008201527f617465206973206e6f7420646566696e65642079657400000000000000000000602082015250565b7f62616c616e6365206973206c6f77000000000000000000000000000000000000600082015250565b7f4f6e6c79206f776e65722063616e2073657420636f6e76657273696f6e20726160008201527f7465000000000000000000000000000000000000000000000000000000000000602082015250565b7f4e6f7420656e6f7567682066756e647320746f2073776170206f6e207573657260008201527f2077616c6c657400000000000000000000000000000000000000000000000000602082015250565b7f546f6b656e20636f6e76657273696f6e2072617465206973206e6f742064656660008201527f696e656420796574000000000000000000000000000000000000000000000000602082015250565b7f4e6f7420656e6f75676820746f6b656e73206f6e207377617020636f6e74726160008201527f637420617661696c61626c6520746f2062757900000000000000000000000000602082015250565b611d7f81611955565b8114611d8a57600080fd5b50565b611d9681611967565b8114611da157600080fd5b50565b611dad81611979565b8114611db857600080fd5b50565b611dc481611985565b8114611dcf57600080fd5b50565b611ddb816119b7565b8114611de657600080fd5b5056fea264697066735822122016ebd737cc1f4ae3dbf32c509091e8d45a5a85a5403b2dc7eaec13e7c5d56ca864736f6c63430008070033",
					"opcodes": "PUSH1 0x80 PUSH1 0x40 MSTORE CALLVALUE DUP1 ISZERO PUSH3 0x11 JUMPI PUSH1 0x0 DUP1 REVERT JUMPDEST POP PUSH1 0x40 MLOAD PUSH3 0x2234 CODESIZE SUB DUP1 PUSH3 0x2234 DUP4 CODECOPY DUP2 DUP2 ADD PUSH1 0x40 MSTORE DUP2 ADD SWAP1 PUSH3 0x37 SWAP2 SWAP1 PUSH3 0x2E7 JUMP JUMPDEST CALLER PUSH1 0x0 DUP1 PUSH2 0x100 EXP DUP2 SLOAD DUP2 PUSH20 0xFFFFFFFFFFFFFFFFFFFFFFFFFFFFFFFFFFFFFFFF MUL NOT AND SWAP1 DUP4 PUSH20 0xFFFFFFFFFFFFFFFFFFFFFFFFFFFFFFFFFFFFFFFF AND MUL OR SWAP1 SSTORE POP PUSH1 0x0 DUP3 PUSH20 0xFFFFFFFFFFFFFFFFFFFFFFFFFFFFFFFFFFFFFFFF AND PUSH4 0x70A08231 ADDRESS PUSH1 0x40 MLOAD DUP3 PUSH4 0xFFFFFFFF AND PUSH1 0xE0 SHL DUP2 MSTORE PUSH1 0x4 ADD PUSH3 0xB4 SWAP2 SWAP1 PUSH3 0x371 JUMP JUMPDEST PUSH1 0x20 PUSH1 0x40 MLOAD DUP1 DUP4 SUB DUP2 DUP7 DUP1 EXTCODESIZE ISZERO DUP1 ISZERO PUSH3 0xCD JUMPI PUSH1 0x0 DUP1 REVERT JUMPDEST POP GAS STATICCALL ISZERO DUP1 ISZERO PUSH3 0xE2 JUMPI RETURNDATASIZE PUSH1 0x0 DUP1 RETURNDATACOPY RETURNDATASIZE PUSH1 0x0 REVERT JUMPDEST POP POP POP POP PUSH1 0x40 MLOAD RETURNDATASIZE PUSH1 0x1F NOT PUSH1 0x1F DUP3 ADD AND DUP3 ADD DUP1 PUSH1 0x40 MSTORE POP DUP2 ADD SWAP1 PUSH3 0x108 SWAP2 SWAP1 PUSH3 0x32E JUMP JUMPDEST SWAP1 POP PUSH1 0x0 DUP3 PUSH20 0xFFFFFFFFFFFFFFFFFFFFFFFFFFFFFFFFFFFFFFFF AND PUSH4 0x70A08231 ADDRESS PUSH1 0x40 MLOAD DUP3 PUSH4 0xFFFFFFFF AND PUSH1 0xE0 SHL DUP2 MSTORE PUSH1 0x4 ADD PUSH3 0x147 SWAP2 SWAP1 PUSH3 0x371 JUMP JUMPDEST PUSH1 0x20 PUSH1 0x40 MLOAD DUP1 DUP4 SUB DUP2 DUP7 DUP1 EXTCODESIZE ISZERO DUP1 ISZERO PUSH3 0x160 JUMPI PUSH1 0x0 DUP1 REVERT JUMPDEST POP GAS STATICCALL ISZERO DUP1 ISZERO PUSH3 0x175 JUMPI RETURNDATASIZE PUSH1 0x0 DUP1 RETURNDATACOPY RETURNDATASIZE PUSH1 0x0 REVERT JUMPDEST POP POP POP POP PUSH1 0x40 MLOAD RETURNDATASIZE PUSH1 0x1F NOT PUSH1 0x1F DUP3 ADD AND DUP3 ADD DUP1 PUSH1 0x40 MSTORE POP DUP2 ADD SWAP1 PUSH3 0x19B SWAP2 SWAP1 PUSH3 0x32E JUMP JUMPDEST SWAP1 POP DUP2 PUSH1 0x3 PUSH1 0x0 DUP7 PUSH20 0xFFFFFFFFFFFFFFFFFFFFFFFFFFFFFFFFFFFFFFFF AND PUSH20 0xFFFFFFFFFFFFFFFFFFFFFFFFFFFFFFFFFFFFFFFF AND DUP2 MSTORE PUSH1 0x20 ADD SWAP1 DUP2 MSTORE PUSH1 0x20 ADD PUSH1 0x0 KECCAK256 DUP2 SWAP1 SSTORE POP DUP1 PUSH1 0x3 PUSH1 0x0 DUP6 PUSH20 0xFFFFFFFFFFFFFFFFFFFFFFFFFFFFFFFFFFFFFFFF AND PUSH20 0xFFFFFFFFFFFFFFFFFFFFFFFFFFFFFFFFFFFFFFFF AND DUP2 MSTORE PUSH1 0x20 ADD SWAP1 DUP2 MSTORE PUSH1 0x20 ADD PUSH1 0x0 KECCAK256 DUP2 SWAP1 SSTORE POP PUSH1 0x64 PUSH1 0x2 PUSH1 0x0 DUP7 PUSH20 0xFFFFFFFFFFFFFFFFFFFFFFFFFFFFFFFFFFFFFFFF AND PUSH20 0xFFFFFFFFFFFFFFFFFFFFFFFFFFFFFFFFFFFFFFFF AND DUP2 MSTORE PUSH1 0x20 ADD SWAP1 DUP2 MSTORE PUSH1 0x20 ADD PUSH1 0x0 KECCAK256 DUP2 SWAP1 SSTORE POP PUSH1 0xA PUSH1 0x2 PUSH1 0x0 DUP6 PUSH20 0xFFFFFFFFFFFFFFFFFFFFFFFFFFFFFFFFFFFFFFFF AND PUSH20 0xFFFFFFFFFFFFFFFFFFFFFFFFFFFFFFFFFFFFFFFF AND DUP2 MSTORE PUSH1 0x20 ADD SWAP1 DUP2 MSTORE PUSH1 0x20 ADD PUSH1 0x0 KECCAK256 DUP2 SWAP1 SSTORE POP POP POP POP POP PUSH3 0x405 JUMP JUMPDEST PUSH1 0x0 DUP2 MLOAD SWAP1 POP PUSH3 0x2CA DUP2 PUSH3 0x3D1 JUMP JUMPDEST SWAP3 SWAP2 POP POP JUMP JUMPDEST PUSH1 0x0 DUP2 MLOAD SWAP1 POP PUSH3 0x2E1 DUP2 PUSH3 0x3EB JUMP JUMPDEST SWAP3 SWAP2 POP POP JUMP JUMPDEST PUSH1 0x0 DUP1 PUSH1 0x40 DUP4 DUP6 SUB SLT ISZERO PUSH3 0x301 JUMPI PUSH3 0x300 PUSH3 0x3CC JUMP JUMPDEST JUMPDEST PUSH1 0x0 PUSH3 0x311 DUP6 DUP3 DUP7 ADD PUSH3 0x2B9 JUMP JUMPDEST SWAP3 POP POP PUSH1 0x20 PUSH3 0x324 DUP6 DUP3 DUP7 ADD PUSH3 0x2B9 JUMP JUMPDEST SWAP2 POP POP SWAP3 POP SWAP3 SWAP1 POP JUMP JUMPDEST PUSH1 0x0 PUSH1 0x20 DUP3 DUP5 SUB SLT ISZERO PUSH3 0x347 JUMPI PUSH3 0x346 PUSH3 0x3CC JUMP JUMPDEST JUMPDEST PUSH1 0x0 PUSH3 0x357 DUP5 DUP3 DUP6 ADD PUSH3 0x2D0 JUMP JUMPDEST SWAP2 POP POP SWAP3 SWAP2 POP POP JUMP JUMPDEST PUSH3 0x36B DUP2 PUSH3 0x38E JUMP JUMPDEST DUP3 MSTORE POP POP JUMP JUMPDEST PUSH1 0x0 PUSH1 0x20 DUP3 ADD SWAP1 POP PUSH3 0x388 PUSH1 0x0 DUP4 ADD DUP5 PUSH3 0x360 JUMP JUMPDEST SWAP3 SWAP2 POP POP JUMP JUMPDEST PUSH1 0x0 PUSH3 0x39B DUP3 PUSH3 0x3A2 JUMP JUMPDEST SWAP1 POP SWAP2 SWAP1 POP JUMP JUMPDEST PUSH1 0x0 PUSH20 0xFFFFFFFFFFFFFFFFFFFFFFFFFFFFFFFFFFFFFFFF DUP3 AND SWAP1 POP SWAP2 SWAP1 POP JUMP JUMPDEST PUSH1 0x0 DUP2 SWAP1 POP SWAP2 SWAP1 POP JUMP JUMPDEST PUSH1 0x0 DUP1 REVERT JUMPDEST PUSH3 0x3DC DUP2 PUSH3 0x38E JUMP JUMPDEST DUP2 EQ PUSH3 0x3E8 JUMPI PUSH1 0x0 DUP1 REVERT JUMPDEST POP JUMP JUMPDEST PUSH3 0x3F6 DUP2 PUSH3 0x3C2 JUMP JUMPDEST DUP2 EQ PUSH3 0x402 JUMPI PUSH1 0x0 DUP1 REVERT JUMPDEST POP JUMP JUMPDEST PUSH2 0x1E1F DUP1 PUSH3 0x415 PUSH1 0x0 CODECOPY PUSH1 0x0 RETURN INVALID PUSH1 0x80 PUSH1 0x40 MSTORE PUSH1 0x4 CALLDATASIZE LT PUSH2 0x94 JUMPI PUSH1 0x0 CALLDATALOAD PUSH1 0xE0 SHR DUP1 PUSH4 0xDBA243D3 GT PUSH2 0x59 JUMPI DUP1 PUSH4 0xDBA243D3 EQ PUSH2 0x1C3 JUMPI DUP1 PUSH4 0xDEFF30C6 EQ PUSH2 0x200 JUMPI DUP1 PUSH4 0xDF680B4F EQ PUSH2 0x21C JUMPI DUP1 PUSH4 0xEC6CC0CC EQ PUSH2 0x259 JUMPI DUP1 PUSH4 0xEC8AC4D8 EQ PUSH2 0x275 JUMPI PUSH2 0xED JUMP JUMPDEST DUP1 PUSH3 0xF714CE EQ PUSH2 0xF2 JUMPI DUP1 PUSH4 0x8DA5CB5B EQ PUSH2 0x11B JUMPI DUP1 PUSH4 0x9DB5DBE4 EQ PUSH2 0x146 JUMPI DUP1 PUSH4 0xB69EF8A8 EQ PUSH2 0x16F JUMPI DUP1 PUSH4 0xC1458C09 EQ PUSH2 0x19A JUMPI PUSH2 0xED JUMP JUMPDEST CALLDATASIZE PUSH2 0xED JUMPI CALLVALUE PUSH1 0x1 PUSH1 0x0 DUP3 DUP3 SLOAD PUSH2 0xAB SWAP2 SWAP1 PUSH2 0x1840 JUMP JUMPDEST SWAP3 POP POP DUP2 SWAP1 SSTORE POP PUSH32 0xF1B03F708B9C39F453FE3F0CEF84164C7D6F7DF836DF0796E1E9C2BCE6EE397E CALLER CALLVALUE PUSH1 0x40 MLOAD PUSH2 0xE3 SWAP3 SWAP2 SWAP1 PUSH2 0x166B JUMP JUMPDEST PUSH1 0x40 MLOAD DUP1 SWAP2 SUB SWAP1 LOG1 STOP JUMPDEST PUSH1 0x0 DUP1 REVERT JUMPDEST CALLVALUE DUP1 ISZERO PUSH2 0xFE JUMPI PUSH1 0x0 DUP1 REVERT JUMPDEST POP PUSH2 0x119 PUSH1 0x4 DUP1 CALLDATASIZE SUB DUP2 ADD SWAP1 PUSH2 0x114 SWAP2 SWAP1 PUSH2 0x137E JUMP JUMPDEST PUSH2 0x291 JUMP JUMPDEST STOP JUMPDEST CALLVALUE DUP1 ISZERO PUSH2 0x127 JUMPI PUSH1 0x0 DUP1 REVERT JUMPDEST POP PUSH2 0x130 PUSH2 0x403 JUMP JUMPDEST PUSH1 0x40 MLOAD PUSH2 0x13D SWAP2 SWAP1 PUSH2 0x158F JUMP JUMPDEST PUSH1 0x40 MLOAD DUP1 SWAP2 SUB SWAP1 RETURN JUMPDEST CALLVALUE DUP1 ISZERO PUSH2 0x152 JUMPI PUSH1 0x0 DUP1 REVERT JUMPDEST POP PUSH2 0x16D PUSH1 0x4 DUP1 CALLDATASIZE SUB DUP2 ADD SWAP1 PUSH2 0x168 SWAP2 SWAP1 PUSH2 0x12AB JUMP JUMPDEST PUSH2 0x427 JUMP JUMPDEST STOP JUMPDEST CALLVALUE DUP1 ISZERO PUSH2 0x17B JUMPI PUSH1 0x0 DUP1 REVERT JUMPDEST POP PUSH2 0x184 PUSH2 0x654 JUMP JUMPDEST PUSH1 0x40 MLOAD PUSH2 0x191 SWAP2 SWAP1 PUSH2 0x1814 JUMP JUMPDEST PUSH1 0x40 MLOAD DUP1 SWAP2 SUB SWAP1 RETURN JUMPDEST CALLVALUE DUP1 ISZERO PUSH2 0x1A6 JUMPI PUSH1 0x0 DUP1 REVERT JUMPDEST POP PUSH2 0x1C1 PUSH1 0x4 DUP1 CALLDATASIZE SUB DUP2 ADD SWAP1 PUSH2 0x1BC SWAP2 SWAP1 PUSH2 0x1211 JUMP JUMPDEST PUSH2 0x65A JUMP JUMPDEST STOP JUMPDEST CALLVALUE DUP1 ISZERO PUSH2 0x1CF JUMPI PUSH1 0x0 DUP1 REVERT JUMPDEST POP PUSH2 0x1EA PUSH1 0x4 DUP1 CALLDATASIZE SUB DUP2 ADD SWAP1 PUSH2 0x1E5 SWAP2 SWAP1 PUSH2 0x11E4 JUMP JUMPDEST PUSH2 0x730 JUMP JUMPDEST PUSH1 0x40 MLOAD PUSH2 0x1F7 SWAP2 SWAP1 PUSH2 0x1814 JUMP JUMPDEST PUSH1 0x40 MLOAD DUP1 SWAP2 SUB SWAP1 RETURN JUMPDEST PUSH2 0x21A PUSH1 0x4 DUP1 CALLDATASIZE SUB DUP2 ADD SWAP1 PUSH2 0x215 SWAP2 SWAP1 PUSH2 0x127E JUMP JUMPDEST PUSH2 0x748 JUMP JUMPDEST STOP JUMPDEST CALLVALUE DUP1 ISZERO PUSH2 0x228 JUMPI PUSH1 0x0 DUP1 REVERT JUMPDEST POP PUSH2 0x243 PUSH1 0x4 DUP1 CALLDATASIZE SUB DUP2 ADD SWAP1 PUSH2 0x23E SWAP2 SWAP1 PUSH2 0x11E4 JUMP JUMPDEST PUSH2 0xA44 JUMP JUMPDEST PUSH1 0x40 MLOAD PUSH2 0x250 SWAP2 SWAP1 PUSH2 0x1814 JUMP JUMPDEST PUSH1 0x40 MLOAD DUP1 SWAP2 SUB SWAP1 RETURN JUMPDEST PUSH2 0x273 PUSH1 0x4 DUP1 CALLDATASIZE SUB DUP2 ADD SWAP1 PUSH2 0x26E SWAP2 SWAP1 PUSH2 0x12FE JUMP JUMPDEST PUSH2 0xA5C JUMP JUMPDEST STOP JUMPDEST PUSH2 0x28F PUSH1 0x4 DUP1 CALLDATASIZE SUB DUP2 ADD SWAP1 PUSH2 0x28A SWAP2 SWAP1 PUSH2 0x127E JUMP JUMPDEST PUSH2 0xEF6 JUMP JUMPDEST STOP JUMPDEST PUSH1 0x0 DUP1 SLOAD SWAP1 PUSH2 0x100 EXP SWAP1 DIV PUSH20 0xFFFFFFFFFFFFFFFFFFFFFFFFFFFFFFFFFFFFFFFF AND PUSH20 0xFFFFFFFFFFFFFFFFFFFFFFFFFFFFFFFFFFFFFFFF AND CALLER PUSH20 0xFFFFFFFFFFFFFFFFFFFFFFFFFFFFFFFFFFFFFFFF AND EQ PUSH2 0x31F JUMPI PUSH1 0x40 MLOAD PUSH32 0x8C379A000000000000000000000000000000000000000000000000000000000 DUP2 MSTORE PUSH1 0x4 ADD PUSH2 0x316 SWAP1 PUSH2 0x16F4 JUMP JUMPDEST PUSH1 0x40 MLOAD DUP1 SWAP2 SUB SWAP1 REVERT JUMPDEST PUSH1 0x1 SLOAD DUP3 GT ISZERO PUSH2 0x364 JUMPI PUSH1 0x40 MLOAD PUSH32 0x8C379A000000000000000000000000000000000000000000000000000000000 DUP2 MSTORE PUSH1 0x4 ADD PUSH2 0x35B SWAP1 PUSH2 0x1714 JUMP JUMPDEST PUSH1 0x40 MLOAD DUP1 SWAP2 SUB SWAP1 REVERT JUMPDEST DUP1 PUSH20 0xFFFFFFFFFFFFFFFFFFFFFFFFFFFFFFFFFFFFFFFF AND PUSH2 0x8FC DUP4 SWAP1 DUP2 ISZERO MUL SWAP1 PUSH1 0x40 MLOAD PUSH1 0x0 PUSH1 0x40 MLOAD DUP1 DUP4 SUB DUP2 DUP6 DUP9 DUP9 CALL SWAP4 POP POP POP POP ISZERO DUP1 ISZERO PUSH2 0x3AA JUMPI RETURNDATASIZE PUSH1 0x0 DUP1 RETURNDATACOPY RETURNDATASIZE PUSH1 0x0 REVERT JUMPDEST POP DUP2 PUSH1 0x1 PUSH1 0x0 DUP3 DUP3 SLOAD PUSH2 0x3BD SWAP2 SWAP1 PUSH2 0x1921 JUMP JUMPDEST SWAP3 POP POP DUP2 SWAP1 SSTORE POP PUSH32 0xFDA3A3E0E1479B43CB1C701F7576187F4C4AD80768D627387E00184302F7D88E CALLER DUP3 DUP5 PUSH1 0x40 MLOAD PUSH2 0x3F7 SWAP4 SWAP3 SWAP2 SWAP1 PUSH2 0x15AA JUMP JUMPDEST PUSH1 0x40 MLOAD DUP1 SWAP2 SUB SWAP1 LOG1 POP POP JUMP JUMPDEST PUSH1 0x0 DUP1 SLOAD SWAP1 PUSH2 0x100 EXP SWAP1 DIV PUSH20 0xFFFFFFFFFFFFFFFFFFFFFFFFFFFFFFFFFFFFFFFF AND DUP2 JUMP JUMPDEST PUSH1 0x0 DUP1 SLOAD SWAP1 PUSH2 0x100 EXP SWAP1 DIV PUSH20 0xFFFFFFFFFFFFFFFFFFFFFFFFFFFFFFFFFFFFFFFF AND PUSH20 0xFFFFFFFFFFFFFFFFFFFFFFFFFFFFFFFFFFFFFFFF AND CALLER PUSH20 0xFFFFFFFFFFFFFFFFFFFFFFFFFFFFFFFFFFFFFFFF AND EQ PUSH2 0x4B5 JUMPI PUSH1 0x40 MLOAD PUSH32 0x8C379A000000000000000000000000000000000000000000000000000000000 DUP2 MSTORE PUSH1 0x4 ADD PUSH2 0x4AC SWAP1 PUSH2 0x16F4 JUMP JUMPDEST PUSH1 0x40 MLOAD DUP1 SWAP2 SUB SWAP1 REVERT JUMPDEST PUSH1 0x0 DUP4 PUSH20 0xFFFFFFFFFFFFFFFFFFFFFFFFFFFFFFFFFFFFFFFF AND PUSH4 0x70A08231 ADDRESS PUSH1 0x40 MLOAD DUP3 PUSH4 0xFFFFFFFF AND PUSH1 0xE0 SHL DUP2 MSTORE PUSH1 0x4 ADD PUSH2 0x4F0 SWAP2 SWAP1 PUSH2 0x158F JUMP JUMPDEST PUSH1 0x20 PUSH1 0x40 MLOAD DUP1 DUP4 SUB DUP2 DUP7 DUP1 EXTCODESIZE ISZERO DUP1 ISZERO PUSH2 0x508 JUMPI PUSH1 0x0 DUP1 REVERT JUMPDEST POP GAS STATICCALL ISZERO DUP1 ISZERO PUSH2 0x51C JUMPI RETURNDATASIZE PUSH1 0x0 DUP1 RETURNDATACOPY RETURNDATASIZE PUSH1 0x0 REVERT JUMPDEST POP POP POP POP PUSH1 0x40 MLOAD RETURNDATASIZE PUSH1 0x1F NOT PUSH1 0x1F DUP3 ADD AND DUP3 ADD DUP1 PUSH1 0x40 MSTORE POP DUP2 ADD SWAP1 PUSH2 0x540 SWAP2 SWAP1 PUSH2 0x1351 JUMP JUMPDEST SWAP1 POP DUP1 DUP3 GT ISZERO PUSH2 0x585 JUMPI PUSH1 0x40 MLOAD PUSH32 0x8C379A000000000000000000000000000000000000000000000000000000000 DUP2 MSTORE PUSH1 0x4 ADD PUSH2 0x57C SWAP1 PUSH2 0x1774 JUMP JUMPDEST PUSH1 0x40 MLOAD DUP1 SWAP2 SUB SWAP1 REVERT JUMPDEST DUP4 PUSH20 0xFFFFFFFFFFFFFFFFFFFFFFFFFFFFFFFFFFFFFFFF AND PUSH4 0xA9059CBB DUP5 DUP5 PUSH1 0x40 MLOAD DUP4 PUSH4 0xFFFFFFFF AND PUSH1 0xE0 SHL DUP2 MSTORE PUSH1 0x4 ADD PUSH2 0x5C0 SWAP3 SWAP2 SWAP1 PUSH2 0x166B JUMP JUMPDEST PUSH1 0x20 PUSH1 0x40 MLOAD DUP1 DUP4 SUB DUP2 PUSH1 0x0 DUP8 DUP1 EXTCODESIZE ISZERO DUP1 ISZERO PUSH2 0x5DA JUMPI PUSH1 0x0 DUP1 REVERT JUMPDEST POP GAS CALL ISZERO DUP1 ISZERO PUSH2 0x5EE JUMPI RETURNDATASIZE PUSH1 0x0 DUP1 RETURNDATACOPY RETURNDATASIZE PUSH1 0x0 REVERT JUMPDEST POP POP POP POP PUSH1 0x40 MLOAD RETURNDATASIZE PUSH1 0x1F NOT PUSH1 0x1F DUP3 ADD AND DUP3 ADD DUP1 PUSH1 0x40 MSTORE POP DUP2 ADD SWAP1 PUSH2 0x612 SWAP2 SWAP1 PUSH2 0x1251 JUMP JUMPDEST POP PUSH32 0xFDA3A3E0E1479B43CB1C701F7576187F4C4AD80768D627387E00184302F7D88E CALLER DUP5 DUP5 PUSH1 0x40 MLOAD PUSH2 0x646 SWAP4 SWAP3 SWAP2 SWAP1 PUSH2 0x1634 JUMP JUMPDEST PUSH1 0x40 MLOAD DUP1 SWAP2 SUB SWAP1 LOG1 POP POP POP POP JUMP JUMPDEST PUSH1 0x1 SLOAD DUP2 JUMP JUMPDEST PUSH1 0x0 DUP1 SLOAD SWAP1 PUSH2 0x100 EXP SWAP1 DIV PUSH20 0xFFFFFFFFFFFFFFFFFFFFFFFFFFFFFFFFFFFFFFFF AND PUSH20 0xFFFFFFFFFFFFFFFFFFFFFFFFFFFFFFFFFFFFFFFF AND CALLER PUSH20 0xFFFFFFFFFFFFFFFFFFFFFFFFFFFFFFFFFFFFFFFF AND EQ PUSH2 0x6E8 JUMPI PUSH1 0x40 MLOAD PUSH32 0x8C379A000000000000000000000000000000000000000000000000000000000 DUP2 MSTORE PUSH1 0x4 ADD PUSH2 0x6DF SWAP1 PUSH2 0x1794 JUMP JUMPDEST PUSH1 0x40 MLOAD DUP1 SWAP2 SUB SWAP1 REVERT JUMPDEST DUP1 PUSH1 0x2 PUSH1 0x0 DUP5 PUSH20 0xFFFFFFFFFFFFFFFFFFFFFFFFFFFFFFFFFFFFFFFF AND PUSH20 0xFFFFFFFFFFFFFFFFFFFFFFFFFFFFFFFFFFFFFFFF AND DUP2 MSTORE PUSH1 0x20 ADD SWAP1 DUP2 MSTORE PUSH1 0x20 ADD PUSH1 0x0 KECCAK256 DUP2 SWAP1 SSTORE POP POP POP JUMP JUMPDEST PUSH1 0x2 PUSH1 0x20 MSTORE DUP1 PUSH1 0x0 MSTORE PUSH1 0x40 PUSH1 0x0 KECCAK256 PUSH1 0x0 SWAP2 POP SWAP1 POP SLOAD DUP2 JUMP JUMPDEST CALLVALUE DUP2 PUSH20 0xFFFFFFFFFFFFFFFFFFFFFFFFFFFFFFFFFFFFFFFF AND PUSH4 0x70A08231 CALLER PUSH1 0x40 MLOAD DUP3 PUSH4 0xFFFFFFFF AND PUSH1 0xE0 SHL DUP2 MSTORE PUSH1 0x4 ADD PUSH2 0x782 SWAP2 SWAP1 PUSH2 0x158F JUMP JUMPDEST PUSH1 0x20 PUSH1 0x40 MLOAD DUP1 DUP4 SUB DUP2 DUP7 DUP1 EXTCODESIZE ISZERO DUP1 ISZERO PUSH2 0x79A JUMPI PUSH1 0x0 DUP1 REVERT JUMPDEST POP GAS STATICCALL ISZERO DUP1 ISZERO PUSH2 0x7AE JUMPI RETURNDATASIZE PUSH1 0x0 DUP1 RETURNDATACOPY RETURNDATASIZE PUSH1 0x0 REVERT JUMPDEST POP POP POP POP PUSH1 0x40 MLOAD RETURNDATASIZE PUSH1 0x1F NOT PUSH1 0x1F DUP3 ADD AND DUP3 ADD DUP1 PUSH1 0x40 MSTORE POP DUP2 ADD SWAP1 PUSH2 0x7D2 SWAP2 SWAP1 PUSH2 0x1351 JUMP JUMPDEST LT ISZERO PUSH2 0x813 JUMPI PUSH1 0x40 MLOAD PUSH32 0x8C379A000000000000000000000000000000000000000000000000000000000 DUP2 MSTORE PUSH1 0x4 ADD PUSH2 0x80A SWAP1 PUSH2 0x16D4 JUMP JUMPDEST PUSH1 0x40 MLOAD DUP1 SWAP2 SUB SWAP1 REVERT JUMPDEST PUSH1 0x0 PUSH1 0x2 PUSH1 0x0 DUP4 PUSH20 0xFFFFFFFFFFFFFFFFFFFFFFFFFFFFFFFFFFFFFFFF AND PUSH20 0xFFFFFFFFFFFFFFFFFFFFFFFFFFFFFFFFFFFFFFFF AND DUP2 MSTORE PUSH1 0x20 ADD SWAP1 DUP2 MSTORE PUSH1 0x20 ADD PUSH1 0x0 KECCAK256 SLOAD EQ ISZERO PUSH2 0x896 JUMPI PUSH1 0x40 MLOAD PUSH32 0x8C379A000000000000000000000000000000000000000000000000000000000 DUP2 MSTORE PUSH1 0x4 ADD PUSH2 0x88D SWAP1 PUSH2 0x17D4 JUMP JUMPDEST PUSH1 0x40 MLOAD DUP1 SWAP2 SUB SWAP1 REVERT JUMPDEST PUSH1 0x0 PUSH1 0x2 PUSH1 0x0 DUP4 PUSH20 0xFFFFFFFFFFFFFFFFFFFFFFFFFFFFFFFFFFFFFFFF AND PUSH20 0xFFFFFFFFFFFFFFFFFFFFFFFFFFFFFFFFFFFFFFFF AND DUP2 MSTORE PUSH1 0x20 ADD SWAP1 DUP2 MSTORE PUSH1 0x20 ADD PUSH1 0x0 KECCAK256 SLOAD SWAP1 POP PUSH1 0x0 DUP2 CALLVALUE PUSH2 0x8E8 SWAP2 SWAP1 PUSH2 0x1896 JUMP JUMPDEST SWAP1 POP DUP1 SELFBALANCE LT ISZERO PUSH2 0x92D JUMPI PUSH1 0x40 MLOAD PUSH32 0x8C379A000000000000000000000000000000000000000000000000000000000 DUP2 MSTORE PUSH1 0x4 ADD PUSH2 0x924 SWAP1 PUSH2 0x16B4 JUMP JUMPDEST PUSH1 0x40 MLOAD DUP1 SWAP2 SUB SWAP1 REVERT JUMPDEST DUP3 PUSH20 0xFFFFFFFFFFFFFFFFFFFFFFFFFFFFFFFFFFFFFFFF AND PUSH4 0x23B872DD CALLER ADDRESS CALLVALUE PUSH1 0x40 MLOAD DUP5 PUSH4 0xFFFFFFFF AND PUSH1 0xE0 SHL DUP2 MSTORE PUSH1 0x4 ADD PUSH2 0x96A SWAP4 SWAP3 SWAP2 SWAP1 PUSH2 0x1634 JUMP JUMPDEST PUSH1 0x20 PUSH1 0x40 MLOAD DUP1 DUP4 SUB DUP2 PUSH1 0x0 DUP8 DUP1 EXTCODESIZE ISZERO DUP1 ISZERO PUSH2 0x984 JUMPI PUSH1 0x0 DUP1 REVERT JUMPDEST POP GAS CALL ISZERO DUP1 ISZERO PUSH2 0x998 JUMPI RETURNDATASIZE PUSH1 0x0 DUP1 RETURNDATACOPY RETURNDATASIZE PUSH1 0x0 REVERT JUMPDEST POP POP POP POP PUSH1 0x40 MLOAD RETURNDATASIZE PUSH1 0x1F NOT PUSH1 0x1F DUP3 ADD AND DUP3 ADD DUP1 PUSH1 0x40 MSTORE POP DUP2 ADD SWAP1 PUSH2 0x9BC SWAP2 SWAP1 PUSH2 0x1251 JUMP JUMPDEST POP CALLER PUSH20 0xFFFFFFFFFFFFFFFFFFFFFFFFFFFFFFFFFFFFFFFF AND PUSH2 0x8FC DUP3 SWAP1 DUP2 ISZERO MUL SWAP1 PUSH1 0x40 MLOAD PUSH1 0x0 PUSH1 0x40 MLOAD DUP1 DUP4 SUB DUP2 DUP6 DUP9 DUP9 CALL SWAP4 POP POP POP POP ISZERO DUP1 ISZERO PUSH2 0xA03 JUMPI RETURNDATASIZE PUSH1 0x0 DUP1 RETURNDATACOPY RETURNDATASIZE PUSH1 0x0 REVERT JUMPDEST POP PUSH32 0x481809CBA951BFBD752234D0504D4719277804F87F6E0DA1B5B486C80D808FE4 CALLER DUP5 CALLVALUE PUSH1 0x40 MLOAD PUSH2 0xA37 SWAP4 SWAP3 SWAP2 SWAP1 PUSH2 0x1634 JUMP JUMPDEST PUSH1 0x40 MLOAD DUP1 SWAP2 SUB SWAP1 LOG1 POP POP POP JUMP JUMPDEST PUSH1 0x3 PUSH1 0x20 MSTORE DUP1 PUSH1 0x0 MSTORE PUSH1 0x40 PUSH1 0x0 KECCAK256 PUSH1 0x0 SWAP2 POP SWAP1 POP SLOAD DUP2 JUMP JUMPDEST DUP1 DUP3 PUSH20 0xFFFFFFFFFFFFFFFFFFFFFFFFFFFFFFFFFFFFFFFF AND PUSH4 0x70A08231 CALLER PUSH1 0x40 MLOAD DUP3 PUSH4 0xFFFFFFFF AND PUSH1 0xE0 SHL DUP2 MSTORE PUSH1 0x4 ADD PUSH2 0xA96 SWAP2 SWAP1 PUSH2 0x158F JUMP JUMPDEST PUSH1 0x20 PUSH1 0x40 MLOAD DUP1 DUP4 SUB DUP2 DUP7 DUP1 EXTCODESIZE ISZERO DUP1 ISZERO PUSH2 0xAAE JUMPI PUSH1 0x0 DUP1 REVERT JUMPDEST POP GAS STATICCALL ISZERO DUP1 ISZERO PUSH2 0xAC2 JUMPI RETURNDATASIZE PUSH1 0x0 DUP1 RETURNDATACOPY RETURNDATASIZE PUSH1 0x0 REVERT JUMPDEST POP POP POP POP PUSH1 0x40 MLOAD RETURNDATASIZE PUSH1 0x1F NOT PUSH1 0x1F DUP3 ADD AND DUP3 ADD DUP1 PUSH1 0x40 MSTORE POP DUP2 ADD SWAP1 PUSH2 0xAE6 SWAP2 SWAP1 PUSH2 0x1351 JUMP JUMPDEST GT ISZERO PUSH2 0xB27 JUMPI PUSH1 0x40 MLOAD PUSH32 0x8C379A000000000000000000000000000000000000000000000000000000000 DUP2 MSTORE PUSH1 0x4 ADD PUSH2 0xB1E SWAP1 PUSH2 0x17B4 JUMP JUMPDEST PUSH1 0x40 MLOAD DUP1 SWAP2 SUB SWAP1 REVERT JUMPDEST PUSH1 0x0 PUSH1 0x2 PUSH1 0x0 DUP6 PUSH20 0xFFFFFFFFFFFFFFFFFFFFFFFFFFFFFFFFFFFFFFFF AND PUSH20 0xFFFFFFFFFFFFFFFFFFFFFFFFFFFFFFFFFFFFFFFF AND DUP2 MSTORE PUSH1 0x20 ADD SWAP1 DUP2 MSTORE PUSH1 0x20 ADD PUSH1 0x0 KECCAK256 SLOAD EQ ISZERO PUSH2 0xBAA JUMPI PUSH1 0x40 MLOAD PUSH32 0x8C379A000000000000000000000000000000000000000000000000000000000 DUP2 MSTORE PUSH1 0x4 ADD PUSH2 0xBA1 SWAP1 PUSH2 0x1754 JUMP JUMPDEST PUSH1 0x40 MLOAD DUP1 SWAP2 SUB SWAP1 REVERT JUMPDEST PUSH1 0x0 PUSH1 0x2 PUSH1 0x0 DUP5 PUSH20 0xFFFFFFFFFFFFFFFFFFFFFFFFFFFFFFFFFFFFFFFF AND PUSH20 0xFFFFFFFFFFFFFFFFFFFFFFFFFFFFFFFFFFFFFFFF AND DUP2 MSTORE PUSH1 0x20 ADD SWAP1 DUP2 MSTORE PUSH1 0x20 ADD PUSH1 0x0 KECCAK256 SLOAD EQ ISZERO PUSH2 0xC2D JUMPI PUSH1 0x40 MLOAD PUSH32 0x8C379A000000000000000000000000000000000000000000000000000000000 DUP2 MSTORE PUSH1 0x4 ADD PUSH2 0xC24 SWAP1 PUSH2 0x1694 JUMP JUMPDEST PUSH1 0x40 MLOAD DUP1 SWAP2 SUB SWAP1 REVERT JUMPDEST PUSH1 0x0 PUSH1 0x2 PUSH1 0x0 DUP6 PUSH20 0xFFFFFFFFFFFFFFFFFFFFFFFFFFFFFFFFFFFFFFFF AND PUSH20 0xFFFFFFFFFFFFFFFFFFFFFFFFFFFFFFFFFFFFFFFF AND DUP2 MSTORE PUSH1 0x20 ADD SWAP1 DUP2 MSTORE PUSH1 0x20 ADD PUSH1 0x0 KECCAK256 SLOAD PUSH1 0x2 PUSH1 0x0 DUP6 PUSH20 0xFFFFFFFFFFFFFFFFFFFFFFFFFFFFFFFFFFFFFFFF AND PUSH20 0xFFFFFFFFFFFFFFFFFFFFFFFFFFFFFFFFFFFFFFFF AND DUP2 MSTORE PUSH1 0x20 ADD SWAP1 DUP2 MSTORE PUSH1 0x20 ADD PUSH1 0x0 KECCAK256 SLOAD DUP4 PUSH2 0xCBA SWAP2 SWAP1 PUSH2 0x1896 JUMP JUMPDEST PUSH2 0xCC4 SWAP2 SWAP1 PUSH2 0x18C7 JUMP JUMPDEST SWAP1 POP DUP1 DUP5 PUSH20 0xFFFFFFFFFFFFFFFFFFFFFFFFFFFFFFFFFFFFFFFF AND PUSH4 0x70A08231 ADDRESS PUSH1 0x40 MLOAD DUP3 PUSH4 0xFFFFFFFF AND PUSH1 0xE0 SHL DUP2 MSTORE PUSH1 0x4 ADD PUSH2 0xD00 SWAP2 SWAP1 PUSH2 0x158F JUMP JUMPDEST PUSH1 0x20 PUSH1 0x40 MLOAD DUP1 DUP4 SUB DUP2 DUP7 DUP1 EXTCODESIZE ISZERO DUP1 ISZERO PUSH2 0xD18 JUMPI PUSH1 0x0 DUP1 REVERT JUMPDEST POP GAS STATICCALL ISZERO DUP1 ISZERO PUSH2 0xD2C JUMPI RETURNDATASIZE PUSH1 0x0 DUP1 RETURNDATACOPY RETURNDATASIZE PUSH1 0x0 REVERT JUMPDEST POP POP POP POP PUSH1 0x40 MLOAD RETURNDATASIZE PUSH1 0x1F NOT PUSH1 0x1F DUP3 ADD AND DUP3 ADD DUP1 PUSH1 0x40 MSTORE POP DUP2 ADD SWAP1 PUSH2 0xD50 SWAP2 SWAP1 PUSH2 0x1351 JUMP JUMPDEST GT ISZERO PUSH2 0xD91 JUMPI PUSH1 0x40 MLOAD PUSH32 0x8C379A000000000000000000000000000000000000000000000000000000000 DUP2 MSTORE PUSH1 0x4 ADD PUSH2 0xD88 SWAP1 PUSH2 0x1734 JUMP JUMPDEST PUSH1 0x40 MLOAD DUP1 SWAP2 SUB SWAP1 REVERT JUMPDEST DUP4 PUSH20 0xFFFFFFFFFFFFFFFFFFFFFFFFFFFFFFFFFFFFFFFF AND PUSH4 0x23B872DD ADDRESS CALLER DUP5 PUSH1 0x40 MLOAD DUP5 PUSH4 0xFFFFFFFF AND PUSH1 0xE0 SHL DUP2 MSTORE PUSH1 0x4 ADD PUSH2 0xDCE SWAP4 SWAP3 SWAP2 SWAP1 PUSH2 0x1634 JUMP JUMPDEST PUSH1 0x20 PUSH1 0x40 MLOAD DUP1 DUP4 SUB DUP2 PUSH1 0x0 DUP8 DUP1 EXTCODESIZE ISZERO DUP1 ISZERO PUSH2 0xDE8 JUMPI PUSH1 0x0 DUP1 REVERT JUMPDEST POP GAS CALL ISZERO DUP1 ISZERO PUSH2 0xDFC JUMPI RETURNDATASIZE PUSH1 0x0 DUP1 RETURNDATACOPY RETURNDATASIZE PUSH1 0x0 REVERT JUMPDEST POP POP POP POP PUSH1 0x40 MLOAD RETURNDATASIZE PUSH1 0x1F NOT PUSH1 0x1F DUP3 ADD AND DUP3 ADD DUP1 PUSH1 0x40 MSTORE POP DUP2 ADD SWAP1 PUSH2 0xE20 SWAP2 SWAP1 PUSH2 0x1251 JUMP JUMPDEST POP DUP3 PUSH20 0xFFFFFFFFFFFFFFFFFFFFFFFFFFFFFFFFFFFFFFFF AND PUSH4 0x23B872DD CALLER ADDRESS DUP6 PUSH1 0x40 MLOAD DUP5 PUSH4 0xFFFFFFFF AND PUSH1 0xE0 SHL DUP2 MSTORE PUSH1 0x4 ADD PUSH2 0xE5E SWAP4 SWAP3 SWAP2 SWAP1 PUSH2 0x1634 JUMP JUMPDEST PUSH1 0x20 PUSH1 0x40 MLOAD DUP1 DUP4 SUB DUP2 PUSH1 0x0 DUP8 DUP1 EXTCODESIZE ISZERO DUP1 ISZERO PUSH2 0xE78 JUMPI PUSH1 0x0 DUP1 REVERT JUMPDEST POP GAS CALL ISZERO DUP1 ISZERO PUSH2 0xE8C JUMPI RETURNDATASIZE PUSH1 0x0 DUP1 RETURNDATACOPY RETURNDATASIZE PUSH1 0x0 REVERT JUMPDEST POP POP POP POP PUSH1 0x40 MLOAD RETURNDATASIZE PUSH1 0x1F NOT PUSH1 0x1F DUP3 ADD AND DUP3 ADD DUP1 PUSH1 0x40 MSTORE POP DUP2 ADD SWAP1 PUSH2 0xEB0 SWAP2 SWAP1 PUSH2 0x1251 JUMP JUMPDEST POP PUSH32 0xAD56699D0F375866EB895ED27203058A36A713382AADED78EB6B67DA266D4332 CALLER DUP6 DUP6 DUP5 DUP7 PUSH1 0x40 MLOAD PUSH2 0xEE8 SWAP6 SWAP5 SWAP4 SWAP3 SWAP2 SWAP1 PUSH2 0x15E1 JUMP JUMPDEST PUSH1 0x40 MLOAD DUP1 SWAP2 SUB SWAP1 LOG1 POP POP POP POP JUMP JUMPDEST PUSH1 0x0 PUSH1 0x2 PUSH1 0x0 DUP4 PUSH20 0xFFFFFFFFFFFFFFFFFFFFFFFFFFFFFFFFFFFFFFFF AND PUSH20 0xFFFFFFFFFFFFFFFFFFFFFFFFFFFFFFFFFFFFFFFF AND DUP2 MSTORE PUSH1 0x20 ADD SWAP1 DUP2 MSTORE PUSH1 0x20 ADD PUSH1 0x0 KECCAK256 SLOAD EQ ISZERO PUSH2 0xF79 JUMPI PUSH1 0x40 MLOAD PUSH32 0x8C379A000000000000000000000000000000000000000000000000000000000 DUP2 MSTORE PUSH1 0x4 ADD PUSH2 0xF70 SWAP1 PUSH2 0x17D4 JUMP JUMPDEST PUSH1 0x40 MLOAD DUP1 SWAP2 SUB SWAP1 REVERT JUMPDEST PUSH1 0x0 PUSH1 0x2 PUSH1 0x0 DUP4 PUSH20 0xFFFFFFFFFFFFFFFFFFFFFFFFFFFFFFFFFFFFFFFF AND PUSH20 0xFFFFFFFFFFFFFFFFFFFFFFFFFFFFFFFFFFFFFFFF AND DUP2 MSTORE PUSH1 0x20 ADD SWAP1 DUP2 MSTORE PUSH1 0x20 ADD PUSH1 0x0 KECCAK256 SLOAD SWAP1 POP PUSH1 0x0 DUP2 CALLVALUE PUSH2 0xFCB SWAP2 SWAP1 PUSH2 0x18C7 JUMP JUMPDEST SWAP1 POP DUP1 DUP4 PUSH20 0xFFFFFFFFFFFFFFFFFFFFFFFFFFFFFFFFFFFFFFFF AND PUSH4 0x70A08231 ADDRESS PUSH1 0x40 MLOAD DUP3 PUSH4 0xFFFFFFFF AND PUSH1 0xE0 SHL DUP2 MSTORE PUSH1 0x4 ADD PUSH2 0x1007 SWAP2 SWAP1 PUSH2 0x158F JUMP JUMPDEST PUSH1 0x20 PUSH1 0x40 MLOAD DUP1 DUP4 SUB DUP2 DUP7 DUP1 EXTCODESIZE ISZERO DUP1 ISZERO PUSH2 0x101F JUMPI PUSH1 0x0 DUP1 REVERT JUMPDEST POP GAS STATICCALL ISZERO DUP1 ISZERO PUSH2 0x1033 JUMPI RETURNDATASIZE PUSH1 0x0 DUP1 RETURNDATACOPY RETURNDATASIZE PUSH1 0x0 REVERT JUMPDEST POP POP POP POP PUSH1 0x40 MLOAD RETURNDATASIZE PUSH1 0x1F NOT PUSH1 0x1F DUP3 ADD AND DUP3 ADD DUP1 PUSH1 0x40 MSTORE POP DUP2 ADD SWAP1 PUSH2 0x1057 SWAP2 SWAP1 PUSH2 0x1351 JUMP JUMPDEST LT ISZERO PUSH2 0x1098 JUMPI PUSH1 0x40 MLOAD PUSH32 0x8C379A000000000000000000000000000000000000000000000000000000000 DUP2 MSTORE PUSH1 0x4 ADD PUSH2 0x108F SWAP1 PUSH2 0x17F4 JUMP JUMPDEST PUSH1 0x40 MLOAD DUP1 SWAP2 SUB SWAP1 REVERT JUMPDEST DUP3 PUSH20 0xFFFFFFFFFFFFFFFFFFFFFFFFFFFFFFFFFFFFFFFF AND PUSH4 0xA9059CBB CALLER DUP4 PUSH1 0x40 MLOAD DUP4 PUSH4 0xFFFFFFFF AND PUSH1 0xE0 SHL DUP2 MSTORE PUSH1 0x4 ADD PUSH2 0x10D3 SWAP3 SWAP2 SWAP1 PUSH2 0x166B JUMP JUMPDEST PUSH1 0x20 PUSH1 0x40 MLOAD DUP1 DUP4 SUB DUP2 PUSH1 0x0 DUP8 DUP1 EXTCODESIZE ISZERO DUP1 ISZERO PUSH2 0x10ED JUMPI PUSH1 0x0 DUP1 REVERT JUMPDEST POP GAS CALL ISZERO DUP1 ISZERO PUSH2 0x1101 JUMPI RETURNDATASIZE PUSH1 0x0 DUP1 RETURNDATACOPY RETURNDATASIZE PUSH1 0x0 REVERT JUMPDEST POP POP POP POP PUSH1 0x40 MLOAD RETURNDATASIZE PUSH1 0x1F NOT PUSH1 0x1F DUP3 ADD AND DUP3 ADD DUP1 PUSH1 0x40 MSTORE POP DUP2 ADD SWAP1 PUSH2 0x1125 SWAP2 SWAP1 PUSH2 0x1251 JUMP JUMPDEST POP PUSH32 0xF9B4EB3E43EEBBF559E9B96CEFF1C786A7EDAB2938C7F5F80678197C2E0EDBA5 CALLER DUP5 DUP4 PUSH1 0x40 MLOAD PUSH2 0x1159 SWAP4 SWAP3 SWAP2 SWAP1 PUSH2 0x1634 JUMP JUMPDEST PUSH1 0x40 MLOAD DUP1 SWAP2 SUB SWAP1 LOG1 POP POP POP JUMP JUMPDEST PUSH1 0x0 DUP2 CALLDATALOAD SWAP1 POP PUSH2 0x1175 DUP2 PUSH2 0x1D76 JUMP JUMPDEST SWAP3 SWAP2 POP POP JUMP JUMPDEST PUSH1 0x0 DUP2 CALLDATALOAD SWAP1 POP PUSH2 0x118A DUP2 PUSH2 0x1D8D JUMP JUMPDEST SWAP3 SWAP2 POP POP JUMP JUMPDEST PUSH1 0x0 DUP2 MLOAD SWAP1 POP PUSH2 0x119F DUP2 PUSH2 0x1DA4 JUMP JUMPDEST SWAP3 SWAP2 POP POP JUMP JUMPDEST PUSH1 0x0 DUP2 CALLDATALOAD SWAP1 POP PUSH2 0x11B4 DUP2 PUSH2 0x1DBB JUMP JUMPDEST SWAP3 SWAP2 POP POP JUMP JUMPDEST PUSH1 0x0 DUP2 CALLDATALOAD SWAP1 POP PUSH2 0x11C9 DUP2 PUSH2 0x1DD2 JUMP JUMPDEST SWAP3 SWAP2 POP POP JUMP JUMPDEST PUSH1 0x0 DUP2 MLOAD SWAP1 POP PUSH2 0x11DE DUP2 PUSH2 0x1DD2 JUMP JUMPDEST SWAP3 SWAP2 POP POP JUMP JUMPDEST PUSH1 0x0 PUSH1 0x20 DUP3 DUP5 SUB SLT ISZERO PUSH2 0x11FA JUMPI PUSH2 0x11F9 PUSH2 0x1A55 JUMP JUMPDEST JUMPDEST PUSH1 0x0 PUSH2 0x1208 DUP5 DUP3 DUP6 ADD PUSH2 0x1166 JUMP JUMPDEST SWAP2 POP POP SWAP3 SWAP2 POP POP JUMP JUMPDEST PUSH1 0x0 DUP1 PUSH1 0x40 DUP4 DUP6 SUB SLT ISZERO PUSH2 0x1228 JUMPI PUSH2 0x1227 PUSH2 0x1A55 JUMP JUMPDEST JUMPDEST PUSH1 0x0 PUSH2 0x1236 DUP6 DUP3 DUP7 ADD PUSH2 0x1166 JUMP JUMPDEST SWAP3 POP POP PUSH1 0x20 PUSH2 0x1247 DUP6 DUP3 DUP7 ADD PUSH2 0x11BA JUMP JUMPDEST SWAP2 POP POP SWAP3 POP SWAP3 SWAP1 POP JUMP JUMPDEST PUSH1 0x0 PUSH1 0x20 DUP3 DUP5 SUB SLT ISZERO PUSH2 0x1267 JUMPI PUSH2 0x1266 PUSH2 0x1A55 JUMP JUMPDEST JUMPDEST PUSH1 0x0 PUSH2 0x1275 DUP5 DUP3 DUP6 ADD PUSH2 0x1190 JUMP JUMPDEST SWAP2 POP POP SWAP3 SWAP2 POP POP JUMP JUMPDEST PUSH1 0x0 PUSH1 0x20 DUP3 DUP5 SUB SLT ISZERO PUSH2 0x1294 JUMPI PUSH2 0x1293 PUSH2 0x1A55 JUMP JUMPDEST JUMPDEST PUSH1 0x0 PUSH2 0x12A2 DUP5 DUP3 DUP6 ADD PUSH2 0x11A5 JUMP JUMPDEST SWAP2 POP POP SWAP3 SWAP2 POP POP JUMP JUMPDEST PUSH1 0x0 DUP1 PUSH1 0x0 PUSH1 0x60 DUP5 DUP7 SUB SLT ISZERO PUSH2 0x12C4 JUMPI PUSH2 0x12C3 PUSH2 0x1A55 JUMP JUMPDEST JUMPDEST PUSH1 0x0 PUSH2 0x12D2 DUP7 DUP3 DUP8 ADD PUSH2 0x11A5 JUMP JUMPDEST SWAP4 POP POP PUSH1 0x20 PUSH2 0x12E3 DUP7 DUP3 DUP8 ADD PUSH2 0x1166 JUMP JUMPDEST SWAP3 POP POP PUSH1 0x40 PUSH2 0x12F4 DUP7 DUP3 DUP8 ADD PUSH2 0x11BA JUMP JUMPDEST SWAP2 POP POP SWAP3 POP SWAP3 POP SWAP3 JUMP JUMPDEST PUSH1 0x0 DUP1 PUSH1 0x0 PUSH1 0x60 DUP5 DUP7 SUB SLT ISZERO PUSH2 0x1317 JUMPI PUSH2 0x1316 PUSH2 0x1A55 JUMP JUMPDEST JUMPDEST PUSH1 0x0 PUSH2 0x1325 DUP7 DUP3 DUP8 ADD PUSH2 0x11A5 JUMP JUMPDEST SWAP4 POP POP PUSH1 0x20 PUSH2 0x1336 DUP7 DUP3 DUP8 ADD PUSH2 0x11A5 JUMP JUMPDEST SWAP3 POP POP PUSH1 0x40 PUSH2 0x1347 DUP7 DUP3 DUP8 ADD PUSH2 0x11BA JUMP JUMPDEST SWAP2 POP POP SWAP3 POP SWAP3 POP SWAP3 JUMP JUMPDEST PUSH1 0x0 PUSH1 0x20 DUP3 DUP5 SUB SLT ISZERO PUSH2 0x1367 JUMPI PUSH2 0x1366 PUSH2 0x1A55 JUMP JUMPDEST JUMPDEST PUSH1 0x0 PUSH2 0x1375 DUP5 DUP3 DUP6 ADD PUSH2 0x11CF JUMP JUMPDEST SWAP2 POP POP SWAP3 SWAP2 POP POP JUMP JUMPDEST PUSH1 0x0 DUP1 PUSH1 0x40 DUP4 DUP6 SUB SLT ISZERO PUSH2 0x1395 JUMPI PUSH2 0x1394 PUSH2 0x1A55 JUMP JUMPDEST JUMPDEST PUSH1 0x0 PUSH2 0x13A3 DUP6 DUP3 DUP7 ADD PUSH2 0x11BA JUMP JUMPDEST SWAP3 POP POP PUSH1 0x20 PUSH2 0x13B4 DUP6 DUP3 DUP7 ADD PUSH2 0x117B JUMP JUMPDEST SWAP2 POP POP SWAP3 POP SWAP3 SWAP1 POP JUMP JUMPDEST PUSH2 0x13C7 DUP2 PUSH2 0x19C1 JUMP JUMPDEST DUP3 MSTORE POP POP JUMP JUMPDEST PUSH2 0x13D6 DUP2 PUSH2 0x1955 JUMP JUMPDEST DUP3 MSTORE POP POP JUMP JUMPDEST PUSH1 0x0 PUSH2 0x13E9 PUSH1 0x37 DUP4 PUSH2 0x182F JUMP JUMPDEST SWAP2 POP PUSH2 0x13F4 DUP3 PUSH2 0x1A5A JUMP JUMPDEST PUSH1 0x40 DUP3 ADD SWAP1 POP SWAP2 SWAP1 POP JUMP JUMPDEST PUSH1 0x0 PUSH2 0x140C PUSH1 0x37 DUP4 PUSH2 0x182F JUMP JUMPDEST SWAP2 POP PUSH2 0x1417 DUP3 PUSH2 0x1AA9 JUMP JUMPDEST PUSH1 0x40 DUP3 ADD SWAP1 POP SWAP2 SWAP1 POP JUMP JUMPDEST PUSH1 0x0 PUSH2 0x142F PUSH1 0x34 DUP4 PUSH2 0x182F JUMP JUMPDEST SWAP2 POP PUSH2 0x143A DUP3 PUSH2 0x1AF8 JUMP JUMPDEST PUSH1 0x40 DUP3 ADD SWAP1 POP SWAP2 SWAP1 POP JUMP JUMPDEST PUSH1 0x0 PUSH2 0x1452 PUSH1 0x1D DUP4 PUSH2 0x182F JUMP JUMPDEST SWAP2 POP PUSH2 0x145D DUP3 PUSH2 0x1B47 JUMP JUMPDEST PUSH1 0x20 DUP3 ADD SWAP1 POP SWAP2 SWAP1 POP JUMP JUMPDEST PUSH1 0x0 PUSH2 0x1475 PUSH1 0x12 DUP4 PUSH2 0x182F JUMP JUMPDEST SWAP2 POP PUSH2 0x1480 DUP3 PUSH2 0x1B70 JUMP JUMPDEST PUSH1 0x20 DUP3 ADD SWAP1 POP SWAP2 SWAP1 POP JUMP JUMPDEST PUSH1 0x0 PUSH2 0x1498 PUSH1 0x1B DUP4 PUSH2 0x182F JUMP JUMPDEST SWAP2 POP PUSH2 0x14A3 DUP3 PUSH2 0x1B99 JUMP JUMPDEST PUSH1 0x20 DUP3 ADD SWAP1 POP SWAP2 SWAP1 POP JUMP JUMPDEST PUSH1 0x0 PUSH2 0x14BB PUSH1 0x36 DUP4 PUSH2 0x182F JUMP JUMPDEST SWAP2 POP PUSH2 0x14C6 DUP3 PUSH2 0x1BC2 JUMP JUMPDEST PUSH1 0x40 DUP3 ADD SWAP1 POP SWAP2 SWAP1 POP JUMP JUMPDEST PUSH1 0x0 PUSH2 0x14DE PUSH1 0xE DUP4 PUSH2 0x182F JUMP JUMPDEST SWAP2 POP PUSH2 0x14E9 DUP3 PUSH2 0x1C11 JUMP JUMPDEST PUSH1 0x20 DUP3 ADD SWAP1 POP SWAP2 SWAP1 POP JUMP JUMPDEST PUSH1 0x0 PUSH2 0x1501 PUSH1 0x22 DUP4 PUSH2 0x182F JUMP JUMPDEST SWAP2 POP PUSH2 0x150C DUP3 PUSH2 0x1C3A JUMP JUMPDEST PUSH1 0x40 DUP3 ADD SWAP1 POP SWAP2 SWAP1 POP JUMP JUMPDEST PUSH1 0x0 PUSH2 0x1524 PUSH1 0x27 DUP4 PUSH2 0x182F JUMP JUMPDEST SWAP2 POP PUSH2 0x152F DUP3 PUSH2 0x1C89 JUMP JUMPDEST PUSH1 0x40 DUP3 ADD SWAP1 POP SWAP2 SWAP1 POP JUMP JUMPDEST PUSH1 0x0 PUSH2 0x1547 PUSH1 0x28 DUP4 PUSH2 0x182F JUMP JUMPDEST SWAP2 POP PUSH2 0x1552 DUP3 PUSH2 0x1CD8 JUMP JUMPDEST PUSH1 0x40 DUP3 ADD SWAP1 POP SWAP2 SWAP1 POP JUMP JUMPDEST PUSH1 0x0 PUSH2 0x156A PUSH1 0x33 DUP4 PUSH2 0x182F JUMP JUMPDEST SWAP2 POP PUSH2 0x1575 DUP3 PUSH2 0x1D27 JUMP JUMPDEST PUSH1 0x40 DUP3 ADD SWAP1 POP SWAP2 SWAP1 POP JUMP JUMPDEST PUSH2 0x1589 DUP2 PUSH2 0x19B7 JUMP JUMPDEST DUP3 MSTORE POP POP JUMP JUMPDEST PUSH1 0x0 PUSH1 0x20 DUP3 ADD SWAP1 POP PUSH2 0x15A4 PUSH1 0x0 DUP4 ADD DUP5 PUSH2 0x13CD JUMP JUMPDEST SWAP3 SWAP2 POP POP JUMP JUMPDEST PUSH1 0x0 PUSH1 0x60 DUP3 ADD SWAP1 POP PUSH2 0x15BF PUSH1 0x0 DUP4 ADD DUP7 PUSH2 0x13CD JUMP JUMPDEST PUSH2 0x15CC PUSH1 0x20 DUP4 ADD DUP6 PUSH2 0x13BE JUMP JUMPDEST PUSH2 0x15D9 PUSH1 0x40 DUP4 ADD DUP5 PUSH2 0x1580 JUMP JUMPDEST SWAP5 SWAP4 POP POP POP POP JUMP JUMPDEST PUSH1 0x0 PUSH1 0xA0 DUP3 ADD SWAP1 POP PUSH2 0x15F6 PUSH1 0x0 DUP4 ADD DUP9 PUSH2 0x13CD JUMP JUMPDEST PUSH2 0x1603 PUSH1 0x20 DUP4 ADD DUP8 PUSH2 0x13CD JUMP JUMPDEST PUSH2 0x1610 PUSH1 0x40 DUP4 ADD DUP7 PUSH2 0x13CD JUMP JUMPDEST PUSH2 0x161D PUSH1 0x60 DUP4 ADD DUP6 PUSH2 0x1580 JUMP JUMPDEST PUSH2 0x162A PUSH1 0x80 DUP4 ADD DUP5 PUSH2 0x1580 JUMP JUMPDEST SWAP7 SWAP6 POP POP POP POP POP POP JUMP JUMPDEST PUSH1 0x0 PUSH1 0x60 DUP3 ADD SWAP1 POP PUSH2 0x1649 PUSH1 0x0 DUP4 ADD DUP7 PUSH2 0x13CD JUMP JUMPDEST PUSH2 0x1656 PUSH1 0x20 DUP4 ADD DUP6 PUSH2 0x13CD JUMP JUMPDEST PUSH2 0x1663 PUSH1 0x40 DUP4 ADD DUP5 PUSH2 0x1580 JUMP JUMPDEST SWAP5 SWAP4 POP POP POP POP JUMP JUMPDEST PUSH1 0x0 PUSH1 0x40 DUP3 ADD SWAP1 POP PUSH2 0x1680 PUSH1 0x0 DUP4 ADD DUP6 PUSH2 0x13CD JUMP JUMPDEST PUSH2 0x168D PUSH1 0x20 DUP4 ADD DUP5 PUSH2 0x1580 JUMP JUMPDEST SWAP4 SWAP3 POP POP POP JUMP JUMPDEST PUSH1 0x0 PUSH1 0x20 DUP3 ADD SWAP1 POP DUP2 DUP2 SUB PUSH1 0x0 DUP4 ADD MSTORE PUSH2 0x16AD DUP2 PUSH2 0x13DC JUMP JUMPDEST SWAP1 POP SWAP2 SWAP1 POP JUMP JUMPDEST PUSH1 0x0 PUSH1 0x20 DUP3 ADD SWAP1 POP DUP2 DUP2 SUB PUSH1 0x0 DUP4 ADD MSTORE PUSH2 0x16CD DUP2 PUSH2 0x13FF JUMP JUMPDEST SWAP1 POP SWAP2 SWAP1 POP JUMP JUMPDEST PUSH1 0x0 PUSH1 0x20 DUP3 ADD SWAP1 POP DUP2 DUP2 SUB PUSH1 0x0 DUP4 ADD MSTORE PUSH2 0x16ED DUP2 PUSH2 0x1422 JUMP JUMPDEST SWAP1 POP SWAP2 SWAP1 POP JUMP JUMPDEST PUSH1 0x0 PUSH1 0x20 DUP3 ADD SWAP1 POP DUP2 DUP2 SUB PUSH1 0x0 DUP4 ADD MSTORE PUSH2 0x170D DUP2 PUSH2 0x1445 JUMP JUMPDEST SWAP1 POP SWAP2 SWAP1 POP JUMP JUMPDEST PUSH1 0x0 PUSH1 0x20 DUP3 ADD SWAP1 POP DUP2 DUP2 SUB PUSH1 0x0 DUP4 ADD MSTORE PUSH2 0x172D DUP2 PUSH2 0x1468 JUMP JUMPDEST SWAP1 POP SWAP2 SWAP1 POP JUMP JUMPDEST PUSH1 0x0 PUSH1 0x20 DUP3 ADD SWAP1 POP DUP2 DUP2 SUB PUSH1 0x0 DUP4 ADD MSTORE PUSH2 0x174D DUP2 PUSH2 0x148B JUMP JUMPDEST SWAP1 POP SWAP2 SWAP1 POP JUMP JUMPDEST PUSH1 0x0 PUSH1 0x20 DUP3 ADD SWAP1 POP DUP2 DUP2 SUB PUSH1 0x0 DUP4 ADD MSTORE PUSH2 0x176D DUP2 PUSH2 0x14AE JUMP JUMPDEST SWAP1 POP SWAP2 SWAP1 POP JUMP JUMPDEST PUSH1 0x0 PUSH1 0x20 DUP3 ADD SWAP1 POP DUP2 DUP2 SUB PUSH1 0x0 DUP4 ADD MSTORE PUSH2 0x178D DUP2 PUSH2 0x14D1 JUMP JUMPDEST SWAP1 POP SWAP2 SWAP1 POP JUMP JUMPDEST PUSH1 0x0 PUSH1 0x20 DUP3 ADD SWAP1 POP DUP2 DUP2 SUB PUSH1 0x0 DUP4 ADD MSTORE PUSH2 0x17AD DUP2 PUSH2 0x14F4 JUMP JUMPDEST SWAP1 POP SWAP2 SWAP1 POP JUMP JUMPDEST PUSH1 0x0 PUSH1 0x20 DUP3 ADD SWAP1 POP DUP2 DUP2 SUB PUSH1 0x0 DUP4 ADD MSTORE PUSH2 0x17CD DUP2 PUSH2 0x1517 JUMP JUMPDEST SWAP1 POP SWAP2 SWAP1 POP JUMP JUMPDEST PUSH1 0x0 PUSH1 0x20 DUP3 ADD SWAP1 POP DUP2 DUP2 SUB PUSH1 0x0 DUP4 ADD MSTORE PUSH2 0x17ED DUP2 PUSH2 0x153A JUMP JUMPDEST SWAP1 POP SWAP2 SWAP1 POP JUMP JUMPDEST PUSH1 0x0 PUSH1 0x20 DUP3 ADD SWAP1 POP DUP2 DUP2 SUB PUSH1 0x0 DUP4 ADD MSTORE PUSH2 0x180D DUP2 PUSH2 0x155D JUMP JUMPDEST SWAP1 POP SWAP2 SWAP1 POP JUMP JUMPDEST PUSH1 0x0 PUSH1 0x20 DUP3 ADD SWAP1 POP PUSH2 0x1829 PUSH1 0x0 DUP4 ADD DUP5 PUSH2 0x1580 JUMP JUMPDEST SWAP3 SWAP2 POP POP JUMP JUMPDEST PUSH1 0x0 DUP3 DUP3 MSTORE PUSH1 0x20 DUP3 ADD SWAP1 POP SWAP3 SWAP2 POP POP JUMP JUMPDEST PUSH1 0x0 PUSH2 0x184B DUP3 PUSH2 0x19B7 JUMP JUMPDEST SWAP2 POP PUSH2 0x1856 DUP4 PUSH2 0x19B7 JUMP JUMPDEST SWAP3 POP DUP3 PUSH32 0xFFFFFFFFFFFFFFFFFFFFFFFFFFFFFFFFFFFFFFFFFFFFFFFFFFFFFFFFFFFFFFFF SUB DUP3 GT ISZERO PUSH2 0x188B JUMPI PUSH2 0x188A PUSH2 0x19F7 JUMP JUMPDEST JUMPDEST DUP3 DUP3 ADD SWAP1 POP SWAP3 SWAP2 POP POP JUMP JUMPDEST PUSH1 0x0 PUSH2 0x18A1 DUP3 PUSH2 0x19B7 JUMP JUMPDEST SWAP2 POP PUSH2 0x18AC DUP4 PUSH2 0x19B7 JUMP JUMPDEST SWAP3 POP DUP3 PUSH2 0x18BC JUMPI PUSH2 0x18BB PUSH2 0x1A26 JUMP JUMPDEST JUMPDEST DUP3 DUP3 DIV SWAP1 POP SWAP3 SWAP2 POP POP JUMP JUMPDEST PUSH1 0x0 PUSH2 0x18D2 DUP3 PUSH2 0x19B7 JUMP JUMPDEST SWAP2 POP PUSH2 0x18DD DUP4 PUSH2 0x19B7 JUMP JUMPDEST SWAP3 POP DUP2 PUSH32 0xFFFFFFFFFFFFFFFFFFFFFFFFFFFFFFFFFFFFFFFFFFFFFFFFFFFFFFFFFFFFFFFF DIV DUP4 GT DUP3 ISZERO ISZERO AND ISZERO PUSH2 0x1916 JUMPI PUSH2 0x1915 PUSH2 0x19F7 JUMP JUMPDEST JUMPDEST DUP3 DUP3 MUL SWAP1 POP SWAP3 SWAP2 POP POP JUMP JUMPDEST PUSH1 0x0 PUSH2 0x192C DUP3 PUSH2 0x19B7 JUMP JUMPDEST SWAP2 POP PUSH2 0x1937 DUP4 PUSH2 0x19B7 JUMP JUMPDEST SWAP3 POP DUP3 DUP3 LT ISZERO PUSH2 0x194A JUMPI PUSH2 0x1949 PUSH2 0x19F7 JUMP JUMPDEST JUMPDEST DUP3 DUP3 SUB SWAP1 POP SWAP3 SWAP2 POP POP JUMP JUMPDEST PUSH1 0x0 PUSH2 0x1960 DUP3 PUSH2 0x1997 JUMP JUMPDEST SWAP1 POP SWAP2 SWAP1 POP JUMP JUMPDEST PUSH1 0x0 PUSH2 0x1972 DUP3 PUSH2 0x1997 JUMP JUMPDEST SWAP1 POP SWAP2 SWAP1 POP JUMP JUMPDEST PUSH1 0x0 DUP2 ISZERO ISZERO SWAP1 POP SWAP2 SWAP1 POP JUMP JUMPDEST PUSH1 0x0 PUSH2 0x1990 DUP3 PUSH2 0x1955 JUMP JUMPDEST SWAP1 POP SWAP2 SWAP1 POP JUMP JUMPDEST PUSH1 0x0 PUSH20 0xFFFFFFFFFFFFFFFFFFFFFFFFFFFFFFFFFFFFFFFF DUP3 AND SWAP1 POP SWAP2 SWAP1 POP JUMP JUMPDEST PUSH1 0x0 DUP2 SWAP1 POP SWAP2 SWAP1 POP JUMP JUMPDEST PUSH1 0x0 PUSH2 0x19CC DUP3 PUSH2 0x19D3 JUMP JUMPDEST SWAP1 POP SWAP2 SWAP1 POP JUMP JUMPDEST PUSH1 0x0 PUSH2 0x19DE DUP3 PUSH2 0x19E5 JUMP JUMPDEST SWAP1 POP SWAP2 SWAP1 POP JUMP JUMPDEST PUSH1 0x0 PUSH2 0x19F0 DUP3 PUSH2 0x1997 JUMP JUMPDEST SWAP1 POP SWAP2 SWAP1 POP JUMP JUMPDEST PUSH32 0x4E487B7100000000000000000000000000000000000000000000000000000000 PUSH1 0x0 MSTORE PUSH1 0x11 PUSH1 0x4 MSTORE PUSH1 0x24 PUSH1 0x0 REVERT JUMPDEST PUSH32 0x4E487B7100000000000000000000000000000000000000000000000000000000 PUSH1 0x0 MSTORE PUSH1 0x12 PUSH1 0x4 MSTORE PUSH1 0x24 PUSH1 0x0 REVERT JUMPDEST PUSH1 0x0 DUP1 REVERT JUMPDEST PUSH32 0x546F6B656E20776869636820796F752073656C6C20636F6E76657273696F6E20 PUSH1 0x0 DUP3 ADD MSTORE PUSH32 0x72617465206973206E6F7420646566696E656420796574000000000000000000 PUSH1 0x20 DUP3 ADD MSTORE POP JUMP JUMPDEST PUSH32 0x5377617020636F6E747261637420646F6573206E6F74206861766520656E6F75 PUSH1 0x0 DUP3 ADD MSTORE PUSH32 0x676820617661696C61626C652045544820616D6F756E74000000000000000000 PUSH1 0x20 DUP3 ADD MSTORE POP JUMP JUMPDEST PUSH32 0x596F752063616E206E6F742073656C6C206D6F726520746F6B656E7320746861 PUSH1 0x0 DUP3 ADD MSTORE PUSH32 0x6E20796F752063757272656E746C7920686F6C64000000000000000000000000 PUSH1 0x20 DUP3 ADD MSTORE POP JUMP JUMPDEST PUSH32 0x4F6E6C79206F776E65722063616E2077697468647261772066756E6473000000 PUSH1 0x0 DUP3 ADD MSTORE POP JUMP JUMPDEST PUSH32 0x496E73756666696369656E742066756E64730000000000000000000000000000 PUSH1 0x0 DUP3 ADD MSTORE POP JUMP JUMPDEST PUSH32 0x4E6F7420656E6F7567682066756E6473206F6E20457468537761700000000000 PUSH1 0x0 DUP3 ADD MSTORE POP JUMP JUMPDEST PUSH32 0x546F6B656E20776869636820796F752062757920636F6E76657273696F6E2072 PUSH1 0x0 DUP3 ADD MSTORE PUSH32 0x617465206973206E6F7420646566696E65642079657400000000000000000000 PUSH1 0x20 DUP3 ADD MSTORE POP JUMP JUMPDEST PUSH32 0x62616C616E6365206973206C6F77000000000000000000000000000000000000 PUSH1 0x0 DUP3 ADD MSTORE POP JUMP JUMPDEST PUSH32 0x4F6E6C79206F776E65722063616E2073657420636F6E76657273696F6E207261 PUSH1 0x0 DUP3 ADD MSTORE PUSH32 0x7465000000000000000000000000000000000000000000000000000000000000 PUSH1 0x20 DUP3 ADD MSTORE POP JUMP JUMPDEST PUSH32 0x4E6F7420656E6F7567682066756E647320746F2073776170206F6E2075736572 PUSH1 0x0 DUP3 ADD MSTORE PUSH32 0x2077616C6C657400000000000000000000000000000000000000000000000000 PUSH1 0x20 DUP3 ADD MSTORE POP JUMP JUMPDEST PUSH32 0x546F6B656E20636F6E76657273696F6E2072617465206973206E6F7420646566 PUSH1 0x0 DUP3 ADD MSTORE PUSH32 0x696E656420796574000000000000000000000000000000000000000000000000 PUSH1 0x20 DUP3 ADD MSTORE POP JUMP JUMPDEST PUSH32 0x4E6F7420656E6F75676820746F6B656E73206F6E207377617020636F6E747261 PUSH1 0x0 DUP3 ADD MSTORE PUSH32 0x637420617661696C61626C6520746F2062757900000000000000000000000000 PUSH1 0x20 DUP3 ADD MSTORE POP JUMP JUMPDEST PUSH2 0x1D7F DUP2 PUSH2 0x1955 JUMP JUMPDEST DUP2 EQ PUSH2 0x1D8A JUMPI PUSH1 0x0 DUP1 REVERT JUMPDEST POP JUMP JUMPDEST PUSH2 0x1D96 DUP2 PUSH2 0x1967 JUMP JUMPDEST DUP2 EQ PUSH2 0x1DA1 JUMPI PUSH1 0x0 DUP1 REVERT JUMPDEST POP JUMP JUMPDEST PUSH2 0x1DAD DUP2 PUSH2 0x1979 JUMP JUMPDEST DUP2 EQ PUSH2 0x1DB8 JUMPI PUSH1 0x0 DUP1 REVERT JUMPDEST POP JUMP JUMPDEST PUSH2 0x1DC4 DUP2 PUSH2 0x1985 JUMP JUMPDEST DUP2 EQ PUSH2 0x1DCF JUMPI PUSH1 0x0 DUP1 REVERT JUMPDEST POP JUMP JUMPDEST PUSH2 0x1DDB DUP2 PUSH2 0x19B7 JUMP JUMPDEST DUP2 EQ PUSH2 0x1DE6 JUMPI PUSH1 0x0 DUP1 REVERT JUMPDEST POP JUMP INVALID LOG2 PUSH5 0x6970667358 0x22 SLT KECCAK256 AND 0xEB 0xD7 CALLDATACOPY 0xCC 0x1F 0x4A 0xE3 0xDB RETURN 0x2C POP SWAP1 SWAP2 0xE8 0xD4 GAS GAS DUP6 0xA5 BLOCKHASH EXTCODESIZE 0x2D 0xC7 0xEA 0xEC SGT 0xE7 0xC5 0xD5 PUSH13 0xA864736F6C6343000807003300 "
				},
				"gasEstimates": {
					"creation": {
						"codeDepositCost": "1542200",
						"executionCost": "infinite",
						"totalCost": "infinite"
					},
					"external": {
						"balance()": "2496",
						"buyTokens(address)": "infinite",
						"owner()": "2534",
						"sellTokens(address)": "infinite",
						"swapTokens(address,address,uint256)": "infinite",
						"tokenAvailableBalances(address)": "2858",
						"tokenConversionRates(address)": "2814",
						"transferERC20(address,address,uint256)": "infinite",
						"updateTokenConversionRate(address,uint256)": "25088",
						"withdraw(uint256,address)": "infinite"
					}
				},
				"methodIdentifiers": {
					"balance()": "b69ef8a8",
					"buyTokens(address)": "ec8ac4d8",
					"owner()": "8da5cb5b",
					"sellTokens(address)": "deff30c6",
					"swapTokens(address,address,uint256)": "ec6cc0cc",
					"tokenAvailableBalances(address)": "df680b4f",
					"tokenConversionRates(address)": "dba243d3",
					"transferERC20(address,address,uint256)": "9db5dbe4",
					"updateTokenConversionRate(address,uint256)": "c1458c09",
					"withdraw(uint256,address)": "00f714ce"
				}
			},
			"storageLayout": {
				"storage": [
					{
						"astId": 82,
						"contract": "Projects/horizon/contracts/SwapContract.sol:SwapContract",
						"label": "owner",
						"offset": 0,
						"slot": "0",
						"type": "t_address"
					},
					{
						"astId": 84,
						"contract": "Projects/horizon/contracts/SwapContract.sol:SwapContract",
						"label": "balance",
						"offset": 0,
						"slot": "1",
						"type": "t_uint256"
					},
					{
						"astId": 88,
						"contract": "Projects/horizon/contracts/SwapContract.sol:SwapContract",
						"label": "tokenConversionRates",
						"offset": 0,
						"slot": "2",
						"type": "t_mapping(t_address,t_uint256)"
					},
					{
						"astId": 92,
						"contract": "Projects/horizon/contracts/SwapContract.sol:SwapContract",
						"label": "tokenAvailableBalances",
						"offset": 0,
						"slot": "3",
						"type": "t_mapping(t_address,t_uint256)"
					}
				],
				"types": {
					"t_address": {
						"encoding": "inplace",
						"label": "address",
						"numberOfBytes": "20"
					},
					"t_mapping(t_address,t_uint256)": {
						"encoding": "mapping",
						"key": "t_address",
						"label": "mapping(address => uint256)",
						"numberOfBytes": "32",
						"value": "t_uint256"
					},
					"t_uint256": {
						"encoding": "inplace",
						"label": "uint256",
						"numberOfBytes": "32"
					}
				}
			},
			"userdoc": {
				"kind": "user",
				"methods": {},
				"version": 1
			}
		}
	}
}