{
  "contractName": "EthSwap",
  "abi": [
    {
      "inputs": [
        {
          "internalType": "contract CZH",
          "name": "_token1",
          "type": "address"
        },
        {
          "internalType": "contract LFJ",
          "name": "_token2",
          "type": "address"
        }
      ],
      "stateMutability": "nonpayable",
      "type": "constructor"
    },
    {
      "anonymous": false,
      "inputs": [
        {
          "indexed": false,
          "internalType": "address",
          "name": "account",
          "type": "address"
        },
        {
          "indexed": false,
          "internalType": "address",
          "name": "token",
          "type": "address"
        },
        {
          "indexed": false,
          "internalType": "uint256",
          "name": "amount",
          "type": "uint256"
        },
        {
          "indexed": false,
          "internalType": "uint256",
          "name": "rate",
          "type": "uint256"
        }
      ],
      "name": "TokensPurchased",
      "type": "event"
    },
    {
      "anonymous": false,
      "inputs": [
        {
          "indexed": false,
          "internalType": "address",
          "name": "account",
          "type": "address"
        },
        {
          "indexed": false,
          "internalType": "address",
          "name": "token",
          "type": "address"
        },
        {
          "indexed": false,
          "internalType": "uint256",
          "name": "amount",
          "type": "uint256"
        },
        {
          "indexed": false,
          "internalType": "uint256",
          "name": "rate",
          "type": "uint256"
        }
      ],
      "name": "TokensSold",
      "type": "event"
    },
    {
      "inputs": [],
      "name": "czhTokenBalance",
      "outputs": [
        {
          "internalType": "uint256",
          "name": "",
          "type": "uint256"
        }
      ],
      "stateMutability": "view",
      "type": "function",
      "constant": true
    },
    {
      "inputs": [],
      "name": "lfjTokenBalance",
      "outputs": [
        {
          "internalType": "uint256",
          "name": "",
          "type": "uint256"
        }
      ],
      "stateMutability": "view",
      "type": "function",
      "constant": true
    },
    {
      "inputs": [],
      "name": "name",
      "outputs": [
        {
          "internalType": "string",
          "name": "",
          "type": "string"
        }
      ],
      "stateMutability": "view",
      "type": "function",
      "constant": true
    },
    {
      "inputs": [],
      "name": "rate",
      "outputs": [
        {
          "internalType": "uint256",
          "name": "",
          "type": "uint256"
        }
      ],
      "stateMutability": "view",
      "type": "function",
      "constant": true
    },
    {
      "inputs": [],
      "name": "tokenCZH",
      "outputs": [
        {
          "internalType": "contract CZH",
          "name": "",
          "type": "address"
        }
      ],
      "stateMutability": "view",
      "type": "function",
      "constant": true
    },
    {
      "inputs": [],
      "name": "tokenLFJ",
      "outputs": [
        {
          "internalType": "contract LFJ",
          "name": "",
          "type": "address"
        }
      ],
      "stateMutability": "view",
      "type": "function",
      "constant": true
    },
    {
      "inputs": [],
      "name": "buyTokens",
      "outputs": [],
      "stateMutability": "payable",
      "type": "function",
      "payable": true
    },
    {
      "inputs": [
        {
          "internalType": "uint256",
          "name": "_amount",
          "type": "uint256"
        }
      ],
      "name": "sellTokens",
      "outputs": [],
      "stateMutability": "payable",
      "type": "function",
      "payable": true
    }
  ],
  "bytecode": "0x60806040526040518060400160405280601a81526020017f457468207377617020706c6174666f726d20636f6e7472616374000000000000815250600090805190602001906200005192919062000282565b5060646003553480156200006457600080fd5b50604051620012ee380380620012ee83398181016040528101906200008a919062000377565b81600160006101000a81548173ffffffffffffffffffffffffffffffffffffffff021916908373ffffffffffffffffffffffffffffffffffffffff16021790555080600260006101000a81548173ffffffffffffffffffffffffffffffffffffffff021916908373ffffffffffffffffffffffffffffffffffffffff160217905550600160009054906101000a900473ffffffffffffffffffffffffffffffffffffffff1673ffffffffffffffffffffffffffffffffffffffff166370a08231306040518263ffffffff1660e01b8152600401620001699190620003f5565b60206040518083038186803b1580156200018257600080fd5b505afa15801562000197573d6000803e3d6000fd5b505050506040513d601f19601f82011682018060405250810190620001bd9190620003b8565b600481905550600260009054906101000a900473ffffffffffffffffffffffffffffffffffffffff1673ffffffffffffffffffffffffffffffffffffffff166370a08231306040518263ffffffff1660e01b8152600401620002209190620003f5565b60206040518083038186803b1580156200023957600080fd5b505afa1580156200024e573d6000803e3d6000fd5b505050506040513d601f19601f82011682018060405250810190620002749190620003b8565b60058190555050506200052b565b828054620002909062000478565b90600052602060002090601f016020900481019282620002b4576000855562000300565b82601f10620002cf57805160ff191683800117855562000300565b8280016001018555821562000300579182015b82811115620002ff578251825591602001919060010190620002e2565b5b5090506200030f919062000313565b5090565b5b808211156200032e57600081600090555060010162000314565b5090565b6000815190506200034381620004dd565b92915050565b6000815190506200035a81620004f7565b92915050565b600081519050620003718162000511565b92915050565b600080604083850312156200038b57600080fd5b60006200039b8582860162000332565b9250506020620003ae8582860162000349565b9150509250929050565b600060208284031215620003cb57600080fd5b6000620003db8482850162000360565b91505092915050565b620003ef8162000412565b82525050565b60006020820190506200040c6000830184620003e4565b92915050565b60006200041f826200044e565b9050919050565b6000620004338262000412565b9050919050565b6000620004478262000412565b9050919050565b600073ffffffffffffffffffffffffffffffffffffffff82169050919050565b6000819050919050565b600060028204905060018216806200049157607f821691505b60208210811415620004a857620004a7620004ae565b5b50919050565b7f4e487b7100000000000000000000000000000000000000000000000000000000600052602260045260246000fd5b620004e88162000426565b8114620004f457600080fd5b50565b62000502816200043a565b81146200050e57600080fd5b50565b6200051c816200046e565b81146200052857600080fd5b50565b610db3806200053b6000396000f3fe60806040526004361061007b5760003560e01c80636c11bcd31161004e5780636c11bcd31461012c5780637cc1478a14610148578063848d82eb14610173578063d0febe4c1461019e5761007b565b806306fdde03146100805780632c4e722e146100ab5780633aa6f8fa146100d6578063662b1af614610101575b600080fd5b34801561008c57600080fd5b506100956101a8565b6040516100a29190610a78565b60405180910390f35b3480156100b757600080fd5b506100c0610236565b6040516100cd9190610afa565b60405180910390f35b3480156100e257600080fd5b506100eb61023c565b6040516100f89190610afa565b60405180910390f35b34801561010d57600080fd5b50610116610242565b6040516101239190610afa565b60405180910390f35b610146600480360381019061014191906107af565b610248565b005b34801561015457600080fd5b5061015d6104e8565b60405161016a9190610a42565b60405180910390f35b34801561017f57600080fd5b5061018861050e565b6040516101959190610a5d565b60405180910390f35b6101a6610534565b005b600080546101b590610c7f565b80601f01602080910402602001604051908101604052809291908181526020018280546101e190610c7f565b801561022e5780601f106102035761010080835404028352916020019161022e565b820191906000526020600020905b81548152906001019060200180831161021157829003601f168201915b505050505081565b60035481565b60045481565b60055481565b80600160009054906101000a900473ffffffffffffffffffffffffffffffffffffffff1673ffffffffffffffffffffffffffffffffffffffff166370a08231336040518263ffffffff1660e01b81526004016102a49190610982565b60206040518083038186803b1580156102bc57600080fd5b505afa1580156102d0573d6000803e3d6000fd5b505050506040513d601f19601f820116820180604052508101906102f491906107d8565b1015610335576040517f08c379a000000000000000000000000000000000000000000000000000000000815260040161032c90610aba565b60405180910390fd5b6000600354826103459190610b31565b90508047101561038a576040517f08c379a000000000000000000000000000000000000000000000000000000000815260040161038190610a9a565b60405180910390fd5b600160009054906101000a900473ffffffffffffffffffffffffffffffffffffffff1673ffffffffffffffffffffffffffffffffffffffff166323b872dd3330856040518463ffffffff1660e01b81526004016103e99392919061099d565b602060405180830381600087803b15801561040357600080fd5b505af1158015610417573d6000803e3d6000fd5b505050506040513d601f19601f8201168201806040525081019061043b9190610786565b503373ffffffffffffffffffffffffffffffffffffffff166108fc829081150290604051600060405180830381858888f19350505050158015610482573d6000803e3d6000fd5b507f697c42d55a5e1fed3f464ec6f38b32546a0bd368dc8068b065c67566d73f329033600160009054906101000a900473ffffffffffffffffffffffffffffffffffffffff16846003546040516104dc94939291906109d4565b60405180910390a15050565b600160009054906101000a900473ffffffffffffffffffffffffffffffffffffffff1681565b600260009054906101000a900473ffffffffffffffffffffffffffffffffffffffff1681565b6000600354346105449190610b62565b905080600160009054906101000a900473ffffffffffffffffffffffffffffffffffffffff1673ffffffffffffffffffffffffffffffffffffffff166370a08231306040518263ffffffff1660e01b81526004016105a29190610982565b60206040518083038186803b1580156105ba57600080fd5b505afa1580156105ce573d6000803e3d6000fd5b505050506040513d601f19601f820116820180604052508101906105f291906107d8565b1015610633576040517f08c379a000000000000000000000000000000000000000000000000000000000815260040161062a90610ada565b60405180910390fd5b600160009054906101000a900473ffffffffffffffffffffffffffffffffffffffff1673ffffffffffffffffffffffffffffffffffffffff1663a9059cbb33836040518363ffffffff1660e01b8152600401610690929190610a19565b602060405180830381600087803b1580156106aa57600080fd5b505af11580156106be573d6000803e3d6000fd5b505050506040513d601f19601f820116820180604052508101906106e29190610786565b507f6faf93231a456e552dbc9961f58d9713ee4f2e69d15f1975b050ef0911053a7b33600160009054906101000a900473ffffffffffffffffffffffffffffffffffffffff168360035460405161073c94939291906109d4565b60405180910390a150565b60008151905061075681610d4f565b92915050565b60008135905061076b81610d66565b92915050565b60008151905061078081610d66565b92915050565b60006020828403121561079857600080fd5b60006107a684828501610747565b91505092915050565b6000602082840312156107c157600080fd5b60006107cf8482850161075c565b91505092915050565b6000602082840312156107ea57600080fd5b60006107f884828501610771565b91505092915050565b61080a81610bbc565b82525050565b61081981610c04565b82525050565b61082881610c28565b82525050565b600061083982610b15565b6108438185610b20565b9350610853818560208601610c4c565b61085c81610d3e565b840191505092915050565b6000610874603783610b20565b91507f5377617020636f6e747261637420646f6573206e6f74206861766520656e6f7560008301527f676820617661696c61626c652045544820616d6f756e740000000000000000006020830152604082019050919050565b60006108da603483610b20565b91507f596f752063616e206e6f742073656c6c206d6f726520746f6b656e732074686160008301527f6e20796f752063757272656e746c7920686f6c640000000000000000000000006020830152604082019050919050565b6000610940601f83610b20565b91507f4e6f7420656e6f75676820435a4820617661696c61626c6520746f20627579006000830152602082019050919050565b61097c81610bfa565b82525050565b60006020820190506109976000830184610801565b92915050565b60006060820190506109b26000830186610801565b6109bf6020830185610801565b6109cc6040830184610973565b949350505050565b60006080820190506109e96000830187610801565b6109f66020830186610801565b610a036040830185610973565b610a106060830184610973565b95945050505050565b6000604082019050610a2e6000830185610801565b610a3b6020830184610973565b9392505050565b6000602082019050610a576000830184610810565b92915050565b6000602082019050610a72600083018461081f565b92915050565b60006020820190508181036000830152610a92818461082e565b905092915050565b60006020820190508181036000830152610ab381610867565b9050919050565b60006020820190508181036000830152610ad3816108cd565b9050919050565b60006020820190508181036000830152610af381610933565b9050919050565b6000602082019050610b0f6000830184610973565b92915050565b600081519050919050565b600082825260208201905092915050565b6000610b3c82610bfa565b9150610b4783610bfa565b925082610b5757610b56610ce0565b5b828204905092915050565b6000610b6d82610bfa565b9150610b7883610bfa565b9250817fffffffffffffffffffffffffffffffffffffffffffffffffffffffffffffffff0483118215151615610bb157610bb0610cb1565b5b828202905092915050565b6000610bc782610bda565b9050919050565b60008115159050919050565b600073ffffffffffffffffffffffffffffffffffffffff82169050919050565b6000819050919050565b6000610c0f82610c16565b9050919050565b6000610c2182610bda565b9050919050565b6000610c3382610c3a565b9050919050565b6000610c4582610bda565b9050919050565b60005b83811015610c6a578082015181840152602081019050610c4f565b83811115610c79576000848401525b50505050565b60006002820490506001821680610c9757607f821691505b60208210811415610cab57610caa610d0f565b5b50919050565b7f4e487b7100000000000000000000000000000000000000000000000000000000600052601160045260246000fd5b7f4e487b7100000000000000000000000000000000000000000000000000000000600052601260045260246000fd5b7f4e487b7100000000000000000000000000000000000000000000000000000000600052602260045260246000fd5b6000601f19601f8301169050919050565b610d5881610bce565b8114610d6357600080fd5b50565b610d6f81610bfa565b8114610d7a57600080fd5b5056fea264697066735822122037a068ad17d8ba07e3a1f764033d556ff2d060a7cfdf1345a588c899fc053ffe64736f6c63430008000033",
  "immutableReferences": {},
  "source": "// SPDX-License-Identifier: GPL-3.0\npragma solidity >=0.4.16 < 0.9.0;\n\nimport \"./CZH.sol\";\nimport \"./LFJ.sol\";\n\ncontract EthSwap {\n    string public name = \"Eth swap platform contract\";\n    CZH public tokenCZH;\n    LFJ public tokenLFJ;\n    uint public rate = 100; // 100 CZH = 1 ETH\n    uint public czhTokenBalance;\n    uint public lfjTokenBalance;\n\n    event TokensPurchased(\n        address account,\n        address token,\n        uint amount,\n        uint rate\n    );\n\n    event TokensSold(\n        address account,\n        address token,\n        uint amount,\n        uint rate\n    );\n\n    constructor(CZH _token1, LFJ _token2) {\n        tokenCZH = _token1;\n        tokenLFJ = _token2;\n        czhTokenBalance = tokenCZH.balanceOf(address(this));\n        lfjTokenBalance = tokenLFJ.balanceOf(address(this));\n    }\n\n    function buyTokens() public payable {\n        // Calculate the number of tokens to buy\n        uint tokenAmount = msg.value * rate;\n\n        // Require that EthSwap has enough tokens\n        require(tokenCZH.balanceOf(address(this)) >= tokenAmount, \"Not enough CZH available to buy\");\n\n        // Transfer tokens to the user\n        tokenCZH.transfer(msg.sender, tokenAmount);\n\n        // Emit an event\n        emit TokensPurchased(msg.sender, address(tokenCZH), tokenAmount, rate);\n    }\n\n    function sellTokens(uint _amount) public payable {\n        // User can't sell more tokens than they have\n        require(tokenCZH.balanceOf(msg.sender) >= _amount, \"You can not sell more tokens than you currently hold\");\n\n        // Calculate the amount of Ether to redeem\n        uint etherAmount = _amount / rate;\n\n        // Require that EthSwap has enough Ether\n        require(address(this).balance >= etherAmount, \"Swap contract does not have enough available ETH amount\");\n\n        // Perform sale\n        tokenCZH.transferFrom(msg.sender, address(this), _amount);\n        payable(msg.sender).transfer(etherAmount);\n\n        // Emit an event\n        emit TokensSold(msg.sender, address(tokenCZH), _amount, rate);\n    }\n\n}\n",
  "sourcePath": "/Users/denischizh/Projects/horizon/contracts/EthSwap.sol",
  "compiler": {
    "name": "solc",
    "version": "0.8.0+commit.c7dfd78e.Emscripten.clang"
  },
  "schemaVersion": "3.4.4",
  "updatedAt": "2022-05-15T15:13:34.789Z",
  "networkType": "ethereum",
  "devdoc": {
    "kind": "dev",
    "methods": {},
    "version": 1
  },
  "userdoc": {
    "kind": "user",
    "methods": {},
    "version": 1
  }
}