{
  "contractName": "SwapContract",
  "abi": [
    {
      "inputs": [
        {
          "internalType": "address",
          "name": "_token1",
          "type": "address"
        },
        {
          "internalType": "address",
          "name": "_token2",
          "type": "address"
        }
      ],
      "stateMutability": "nonpayable",
      "type": "constructor"
    },
    {
      "anonymous": false,
      "inputs": [
        {
          "indexed": false,
          "internalType": "address",
          "name": "account",
          "type": "address"
        },
        {
          "indexed": false,
          "internalType": "address",
          "name": "token",
          "type": "address"
        },
        {
          "indexed": false,
          "internalType": "uint256",
          "name": "amount",
          "type": "uint256"
        }
      ],
      "name": "TokensPurchased",
      "type": "event"
    },
    {
      "anonymous": false,
      "inputs": [
        {
          "indexed": false,
          "internalType": "address",
          "name": "account",
          "type": "address"
        },
        {
          "indexed": false,
          "internalType": "address",
          "name": "token",
          "type": "address"
        },
        {
          "indexed": false,
          "internalType": "uint256",
          "name": "amount",
          "type": "uint256"
        }
      ],
      "name": "TokensSold",
      "type": "event"
    },
    {
      "anonymous": false,
      "inputs": [
        {
          "indexed": false,
          "internalType": "address",
          "name": "account",
          "type": "address"
        },
        {
          "indexed": false,
          "internalType": "address",
          "name": "tokenToBuy",
          "type": "address"
        },
        {
          "indexed": false,
          "internalType": "address",
          "name": "tokenToSell",
          "type": "address"
        },
        {
          "indexed": false,
          "internalType": "uint256",
          "name": "tokenToBuyAmount",
          "type": "uint256"
        },
        {
          "indexed": false,
          "internalType": "uint256",
          "name": "tokenToSellAmount",
          "type": "uint256"
        }
      ],
      "name": "TokensSwapped",
      "type": "event"
    },
    {
      "anonymous": false,
      "inputs": [
        {
          "indexed": false,
          "internalType": "address",
          "name": "_from",
          "type": "address"
        },
        {
          "indexed": false,
          "internalType": "uint256",
          "name": "_amount",
          "type": "uint256"
        }
      ],
      "name": "TransferReceived",
      "type": "event"
    },
    {
      "anonymous": false,
      "inputs": [
        {
          "indexed": false,
          "internalType": "address",
          "name": "_from",
          "type": "address"
        },
        {
          "indexed": false,
          "internalType": "address",
          "name": "_destAddr",
          "type": "address"
        },
        {
          "indexed": false,
          "internalType": "uint256",
          "name": "_amount",
          "type": "uint256"
        }
      ],
      "name": "TransferSent",
      "type": "event"
    },
    {
      "inputs": [],
      "name": "balance",
      "outputs": [
        {
          "internalType": "uint256",
          "name": "",
          "type": "uint256"
        }
      ],
      "stateMutability": "view",
      "type": "function",
      "constant": true
    },
    {
      "inputs": [],
      "name": "owner",
      "outputs": [
        {
          "internalType": "address",
          "name": "",
          "type": "address"
        }
      ],
      "stateMutability": "view",
      "type": "function",
      "constant": true
    },
    {
      "inputs": [
        {
          "internalType": "address",
          "name": "",
          "type": "address"
        }
      ],
      "name": "tokenAvailableBalances",
      "outputs": [
        {
          "internalType": "uint256",
          "name": "",
          "type": "uint256"
        }
      ],
      "stateMutability": "view",
      "type": "function",
      "constant": true
    },
    {
      "inputs": [
        {
          "internalType": "address",
          "name": "",
          "type": "address"
        }
      ],
      "name": "tokenConversionRates",
      "outputs": [
        {
          "internalType": "uint256",
          "name": "",
          "type": "uint256"
        }
      ],
      "stateMutability": "view",
      "type": "function",
      "constant": true
    },
    {
      "stateMutability": "payable",
      "type": "receive",
      "payable": true
    },
    {
      "inputs": [
        {
          "internalType": "address",
          "name": "token",
          "type": "address"
        }
      ],
      "name": "getTokenConversionRate",
      "outputs": [
        {
          "internalType": "uint256",
          "name": "",
          "type": "uint256"
        }
      ],
      "stateMutability": "view",
      "type": "function",
      "constant": true
    },
    {
      "inputs": [
        {
          "internalType": "address",
          "name": "token",
          "type": "address"
        },
        {
          "internalType": "uint256",
          "name": "tokenValueComparedToEth",
          "type": "uint256"
        }
      ],
      "name": "updateTokenConversionRate",
      "outputs": [],
      "stateMutability": "nonpayable",
      "type": "function"
    },
    {
      "inputs": [
        {
          "internalType": "uint256",
          "name": "amount",
          "type": "uint256"
        },
        {
          "internalType": "address payable",
          "name": "destAddr",
          "type": "address"
        }
      ],
      "name": "withdraw",
      "outputs": [],
      "stateMutability": "nonpayable",
      "type": "function"
    },
    {
      "inputs": [
        {
          "internalType": "contract IERC20",
          "name": "token",
          "type": "address"
        },
        {
          "internalType": "address",
          "name": "to",
          "type": "address"
        },
        {
          "internalType": "uint256",
          "name": "amount",
          "type": "uint256"
        }
      ],
      "name": "transferERC20",
      "outputs": [],
      "stateMutability": "nonpayable",
      "type": "function"
    },
    {
      "inputs": [
        {
          "internalType": "contract IERC20",
          "name": "token",
          "type": "address"
        }
      ],
      "name": "buyTokens",
      "outputs": [],
      "stateMutability": "payable",
      "type": "function",
      "payable": true
    },
    {
      "inputs": [
        {
          "internalType": "contract IERC20",
          "name": "token",
          "type": "address"
        },
        {
          "internalType": "uint256",
          "name": "_amount",
          "type": "uint256"
        }
      ],
      "name": "sellTokens",
      "outputs": [],
      "stateMutability": "payable",
      "type": "function",
      "payable": true
    },
    {
      "inputs": [
        {
          "internalType": "contract IERC20",
          "name": "tokenToBuy",
          "type": "address"
        },
        {
          "internalType": "contract IERC20",
          "name": "tokenToSell",
          "type": "address"
        },
        {
          "internalType": "uint256",
          "name": "_amountToSell",
          "type": "uint256"
        }
      ],
      "name": "swapTokens",
      "outputs": [],
      "stateMutability": "payable",
      "type": "function",
      "payable": true
    }
  ],
  "bytecode": "0x60806040523480156200001157600080fd5b5060405162002304380380620023048339818101604052810190620000379190620002e7565b336000806101000a81548173ffffffffffffffffffffffffffffffffffffffff021916908373ffffffffffffffffffffffffffffffffffffffff16021790555060008273ffffffffffffffffffffffffffffffffffffffff166370a08231306040518263ffffffff1660e01b8152600401620000b4919062000371565b60206040518083038186803b158015620000cd57600080fd5b505afa158015620000e2573d6000803e3d6000fd5b505050506040513d601f19601f820116820180604052508101906200010891906200032e565b905060008273ffffffffffffffffffffffffffffffffffffffff166370a08231306040518263ffffffff1660e01b815260040162000147919062000371565b60206040518083038186803b1580156200016057600080fd5b505afa15801562000175573d6000803e3d6000fd5b505050506040513d601f19601f820116820180604052508101906200019b91906200032e565b905081600360008673ffffffffffffffffffffffffffffffffffffffff1673ffffffffffffffffffffffffffffffffffffffff1681526020019081526020016000208190555080600360008573ffffffffffffffffffffffffffffffffffffffff1673ffffffffffffffffffffffffffffffffffffffff168152602001908152602001600020819055506064600260008673ffffffffffffffffffffffffffffffffffffffff1673ffffffffffffffffffffffffffffffffffffffff16815260200190815260200160002081905550600a600260008573ffffffffffffffffffffffffffffffffffffffff1673ffffffffffffffffffffffffffffffffffffffff168152602001908152602001600020819055505050505062000405565b600081519050620002ca81620003d1565b92915050565b600081519050620002e181620003eb565b92915050565b60008060408385031215620003015762000300620003cc565b5b60006200031185828601620002b9565b92505060206200032485828601620002b9565b9150509250929050565b600060208284031215620003475762000346620003cc565b5b60006200035784828501620002d0565b91505092915050565b6200036b816200038e565b82525050565b600060208201905062000388600083018462000360565b92915050565b60006200039b82620003a2565b9050919050565b600073ffffffffffffffffffffffffffffffffffffffff82169050919050565b6000819050919050565b600080fd5b620003dc816200038e565b8114620003e857600080fd5b50565b620003f681620003c2565b81146200040257600080fd5b50565b611eef80620004156000396000f3fe60806040526004361061009f5760003560e01c8063c1458c0911610064578063c1458c09146101e2578063c464fe651461020b578063dba243d314610227578063df680b4f14610264578063ec6cc0cc146102a1578063ec8ac4d8146102bd576100f8565b8062f714ce146100fd57806340cea4f6146101265780638da5cb5b146101635780639db5dbe41461018e578063b69ef8a8146101b7576100f8565b366100f85734600160008282546100b69190611910565b925050819055507ff1b03f708b9c39f453fe3f0cef84164c7d6f7df836df0796e1e9c2bce6ee397e33346040516100ee92919061173b565b60405180910390a1005b600080fd5b34801561010957600080fd5b50610124600480360381019061011f919061144e565b6102d9565b005b34801561013257600080fd5b5061014d60048036038101906101489190611274565b61044b565b60405161015a91906118e4565b60405180910390f35b34801561016f57600080fd5b50610178610494565b604051610185919061165f565b60405180910390f35b34801561019a57600080fd5b506101b560048036038101906101b0919061133b565b6104b8565b005b3480156101c357600080fd5b506101cc6106e5565b6040516101d991906118e4565b60405180910390f35b3480156101ee57600080fd5b50610209600480360381019061020491906112a1565b6106eb565b005b610225600480360381019061022091906113e1565b6107c1565b005b34801561023357600080fd5b5061024e60048036038101906102499190611274565b610abe565b60405161025b91906118e4565b60405180910390f35b34801561027057600080fd5b5061028b60048036038101906102869190611274565b610ad6565b60405161029891906118e4565b60405180910390f35b6102bb60048036038101906102b6919061138e565b610aee565b005b6102d760048036038101906102d2919061130e565b610f86565b005b60008054906101000a900473ffffffffffffffffffffffffffffffffffffffff1673ffffffffffffffffffffffffffffffffffffffff163373ffffffffffffffffffffffffffffffffffffffff1614610367576040517f08c379a000000000000000000000000000000000000000000000000000000000815260040161035e906117c4565b60405180910390fd5b6001548211156103ac576040517f08c379a00000000000000000000000000000000000000000000000000000000081526004016103a3906117e4565b60405180910390fd5b8073ffffffffffffffffffffffffffffffffffffffff166108fc839081150290604051600060405180830381858888f193505050501580156103f2573d6000803e3d6000fd5b50816001600082825461040591906119f1565b925050819055507ffda3a3e0e1479b43cb1c701f7576187f4c4ad80768d627387e00184302f7d88e33828460405161043f9392919061167a565b60405180910390a15050565b6000600260008373ffffffffffffffffffffffffffffffffffffffff1673ffffffffffffffffffffffffffffffffffffffff168152602001908152602001600020549050919050565b60008054906101000a900473ffffffffffffffffffffffffffffffffffffffff1681565b60008054906101000a900473ffffffffffffffffffffffffffffffffffffffff1673ffffffffffffffffffffffffffffffffffffffff163373ffffffffffffffffffffffffffffffffffffffff1614610546576040517f08c379a000000000000000000000000000000000000000000000000000000000815260040161053d906117c4565b60405180910390fd5b60008373ffffffffffffffffffffffffffffffffffffffff166370a08231306040518263ffffffff1660e01b8152600401610581919061165f565b60206040518083038186803b15801561059957600080fd5b505afa1580156105ad573d6000803e3d6000fd5b505050506040513d601f19601f820116820180604052508101906105d19190611421565b905080821115610616576040517f08c379a000000000000000000000000000000000000000000000000000000000815260040161060d90611844565b60405180910390fd5b8373ffffffffffffffffffffffffffffffffffffffff1663a9059cbb84846040518363ffffffff1660e01b815260040161065192919061173b565b602060405180830381600087803b15801561066b57600080fd5b505af115801561067f573d6000803e3d6000fd5b505050506040513d601f19601f820116820180604052508101906106a391906112e1565b507ffda3a3e0e1479b43cb1c701f7576187f4c4ad80768d627387e00184302f7d88e3384846040516106d793929190611704565b60405180910390a150505050565b60015481565b60008054906101000a900473ffffffffffffffffffffffffffffffffffffffff1673ffffffffffffffffffffffffffffffffffffffff163373ffffffffffffffffffffffffffffffffffffffff1614610779576040517f08c379a000000000000000000000000000000000000000000000000000000000815260040161077090611864565b60405180910390fd5b80600260008473ffffffffffffffffffffffffffffffffffffffff1673ffffffffffffffffffffffffffffffffffffffff168152602001908152602001600020819055505050565b808273ffffffffffffffffffffffffffffffffffffffff166370a08231336040518263ffffffff1660e01b81526004016107fb919061165f565b60206040518083038186803b15801561081357600080fd5b505afa158015610827573d6000803e3d6000fd5b505050506040513d601f19601f8201168201806040525081019061084b9190611421565b101561088c576040517f08c379a0000000000000000000000000000000000000000000000000000000008152600401610883906117a4565b60405180910390fd5b6000600260008473ffffffffffffffffffffffffffffffffffffffff1673ffffffffffffffffffffffffffffffffffffffff16815260200190815260200160002054141561090f576040517f08c379a0000000000000000000000000000000000000000000000000000000008152600401610906906118a4565b60405180910390fd5b6000600260008473ffffffffffffffffffffffffffffffffffffffff1673ffffffffffffffffffffffffffffffffffffffff168152602001908152602001600020549050600081836109619190611966565b9050804710156109a6576040517f08c379a000000000000000000000000000000000000000000000000000000000815260040161099d90611784565b60405180910390fd5b8373ffffffffffffffffffffffffffffffffffffffff166323b872dd3330866040518463ffffffff1660e01b81526004016109e393929190611704565b602060405180830381600087803b1580156109fd57600080fd5b505af1158015610a11573d6000803e3d6000fd5b505050506040513d601f19601f82011682018060405250810190610a3591906112e1565b503373ffffffffffffffffffffffffffffffffffffffff166108fc829081150290604051600060405180830381858888f19350505050158015610a7c573d6000803e3d6000fd5b507f481809cba951bfbd752234d0504d4719277804f87f6e0da1b5b486c80d808fe4338585604051610ab093929190611704565b60405180910390a150505050565b60026020528060005260406000206000915090505481565b60036020528060005260406000206000915090505481565b808273ffffffffffffffffffffffffffffffffffffffff166370a08231336040518263ffffffff1660e01b8152600401610b28919061165f565b60206040518083038186803b158015610b4057600080fd5b505afa158015610b54573d6000803e3d6000fd5b505050506040513d601f19601f82011682018060405250810190610b789190611421565b1015610bb9576040517f08c379a0000000000000000000000000000000000000000000000000000000008152600401610bb090611884565b60405180910390fd5b6000600260008573ffffffffffffffffffffffffffffffffffffffff1673ffffffffffffffffffffffffffffffffffffffff168152602001908152602001600020541415610c3c576040517f08c379a0000000000000000000000000000000000000000000000000000000008152600401610c3390611824565b60405180910390fd5b6000600260008473ffffffffffffffffffffffffffffffffffffffff1673ffffffffffffffffffffffffffffffffffffffff168152602001908152602001600020541415610cbf576040517f08c379a0000000000000000000000000000000000000000000000000000000008152600401610cb690611764565b60405180910390fd5b6000600260008573ffffffffffffffffffffffffffffffffffffffff1673ffffffffffffffffffffffffffffffffffffffff16815260200190815260200160002054600260008573ffffffffffffffffffffffffffffffffffffffff1673ffffffffffffffffffffffffffffffffffffffff1681526020019081526020016000205483610d4c9190611966565b610d569190611997565b9050808473ffffffffffffffffffffffffffffffffffffffff166370a08231306040518263ffffffff1660e01b8152600401610d92919061165f565b60206040518083038186803b158015610daa57600080fd5b505afa158015610dbe573d6000803e3d6000fd5b505050506040513d601f19601f82011682018060405250810190610de29190611421565b1015610e23576040517f08c379a0000000000000000000000000000000000000000000000000000000008152600401610e1a90611804565b60405180910390fd5b8273ffffffffffffffffffffffffffffffffffffffff166323b872dd3330856040518463ffffffff1660e01b8152600401610e6093929190611704565b602060405180830381600087803b158015610e7a57600080fd5b505af1158015610e8e573d6000803e3d6000fd5b505050506040513d601f19601f82011682018060405250810190610eb291906112e1565b508373ffffffffffffffffffffffffffffffffffffffff1663a9059cbb33836040518363ffffffff1660e01b8152600401610eee92919061173b565b602060405180830381600087803b158015610f0857600080fd5b505af1158015610f1c573d6000803e3d6000fd5b505050506040513d601f19601f82011682018060405250810190610f4091906112e1565b507fad56699d0f375866eb895ed27203058a36a713382aaded78eb6b67da266d43323385858486604051610f789594939291906116b1565b60405180910390a150505050565b6000600260008373ffffffffffffffffffffffffffffffffffffffff1673ffffffffffffffffffffffffffffffffffffffff168152602001908152602001600020541415611009576040517f08c379a0000000000000000000000000000000000000000000000000000000008152600401611000906118a4565b60405180910390fd5b6000600260008373ffffffffffffffffffffffffffffffffffffffff1673ffffffffffffffffffffffffffffffffffffffff1681526020019081526020016000205490506000813461105b9190611997565b9050808373ffffffffffffffffffffffffffffffffffffffff166370a08231306040518263ffffffff1660e01b8152600401611097919061165f565b60206040518083038186803b1580156110af57600080fd5b505afa1580156110c3573d6000803e3d6000fd5b505050506040513d601f19601f820116820180604052508101906110e79190611421565b1015611128576040517f08c379a000000000000000000000000000000000000000000000000000000000815260040161111f906118c4565b60405180910390fd5b8273ffffffffffffffffffffffffffffffffffffffff1663a9059cbb33836040518363ffffffff1660e01b815260040161116392919061173b565b602060405180830381600087803b15801561117d57600080fd5b505af1158015611191573d6000803e3d6000fd5b505050506040513d601f19601f820116820180604052508101906111b591906112e1565b507ff9b4eb3e43eebbf559e9b96ceff1c786a7edab2938c7f5f80678197c2e0edba53384836040516111e993929190611704565b60405180910390a1505050565b60008135905061120581611e46565b92915050565b60008135905061121a81611e5d565b92915050565b60008151905061122f81611e74565b92915050565b60008135905061124481611e8b565b92915050565b60008135905061125981611ea2565b92915050565b60008151905061126e81611ea2565b92915050565b60006020828403121561128a57611289611b25565b5b6000611298848285016111f6565b91505092915050565b600080604083850312156112b8576112b7611b25565b5b60006112c6858286016111f6565b92505060206112d78582860161124a565b9150509250929050565b6000602082840312156112f7576112f6611b25565b5b600061130584828501611220565b91505092915050565b60006020828403121561132457611323611b25565b5b600061133284828501611235565b91505092915050565b60008060006060848603121561135457611353611b25565b5b600061136286828701611235565b9350506020611373868287016111f6565b92505060406113848682870161124a565b9150509250925092565b6000806000606084860312156113a7576113a6611b25565b5b60006113b586828701611235565b93505060206113c686828701611235565b92505060406113d78682870161124a565b9150509250925092565b600080604083850312156113f8576113f7611b25565b5b600061140685828601611235565b92505060206114178582860161124a565b9150509250929050565b60006020828403121561143757611436611b25565b5b60006114458482850161125f565b91505092915050565b6000806040838503121561146557611464611b25565b5b60006114738582860161124a565b92505060206114848582860161120b565b9150509250929050565b61149781611a91565b82525050565b6114a681611a25565b82525050565b60006114b96037836118ff565b91506114c482611b2a565b604082019050919050565b60006114dc6037836118ff565b91506114e782611b79565b604082019050919050565b60006114ff6034836118ff565b915061150a82611bc8565b604082019050919050565b6000611522601d836118ff565b915061152d82611c17565b602082019050919050565b60006115456012836118ff565b915061155082611c40565b602082019050919050565b6000611568601b836118ff565b915061157382611c69565b602082019050919050565b600061158b6036836118ff565b915061159682611c92565b604082019050919050565b60006115ae600e836118ff565b91506115b982611ce1565b602082019050919050565b60006115d16022836118ff565b91506115dc82611d0a565b604082019050919050565b60006115f46027836118ff565b91506115ff82611d59565b604082019050919050565b60006116176028836118ff565b915061162282611da8565b604082019050919050565b600061163a6033836118ff565b915061164582611df7565b604082019050919050565b61165981611a87565b82525050565b6000602082019050611674600083018461149d565b92915050565b600060608201905061168f600083018661149d565b61169c602083018561148e565b6116a96040830184611650565b949350505050565b600060a0820190506116c6600083018861149d565b6116d3602083018761149d565b6116e0604083018661149d565b6116ed6060830185611650565b6116fa6080830184611650565b9695505050505050565b6000606082019050611719600083018661149d565b611726602083018561149d565b6117336040830184611650565b949350505050565b6000604082019050611750600083018561149d565b61175d6020830184611650565b9392505050565b6000602082019050818103600083015261177d816114ac565b9050919050565b6000602082019050818103600083015261179d816114cf565b9050919050565b600060208201905081810360008301526117bd816114f2565b9050919050565b600060208201905081810360008301526117dd81611515565b9050919050565b600060208201905081810360008301526117fd81611538565b9050919050565b6000602082019050818103600083015261181d8161155b565b9050919050565b6000602082019050818103600083015261183d8161157e565b9050919050565b6000602082019050818103600083015261185d816115a1565b9050919050565b6000602082019050818103600083015261187d816115c4565b9050919050565b6000602082019050818103600083015261189d816115e7565b9050919050565b600060208201905081810360008301526118bd8161160a565b9050919050565b600060208201905081810360008301526118dd8161162d565b9050919050565b60006020820190506118f96000830184611650565b92915050565b600082825260208201905092915050565b600061191b82611a87565b915061192683611a87565b9250827fffffffffffffffffffffffffffffffffffffffffffffffffffffffffffffffff0382111561195b5761195a611ac7565b5b828201905092915050565b600061197182611a87565b915061197c83611a87565b92508261198c5761198b611af6565b5b828204905092915050565b60006119a282611a87565b91506119ad83611a87565b9250817fffffffffffffffffffffffffffffffffffffffffffffffffffffffffffffffff04831182151516156119e6576119e5611ac7565b5b828202905092915050565b60006119fc82611a87565b9150611a0783611a87565b925082821015611a1a57611a19611ac7565b5b828203905092915050565b6000611a3082611a67565b9050919050565b6000611a4282611a67565b9050919050565b60008115159050919050565b6000611a6082611a25565b9050919050565b600073ffffffffffffffffffffffffffffffffffffffff82169050919050565b6000819050919050565b6000611a9c82611aa3565b9050919050565b6000611aae82611ab5565b9050919050565b6000611ac082611a67565b9050919050565b7f4e487b7100000000000000000000000000000000000000000000000000000000600052601160045260246000fd5b7f4e487b7100000000000000000000000000000000000000000000000000000000600052601260045260246000fd5b600080fd5b7f546f6b656e20776869636820796f752073656c6c20636f6e76657273696f6e2060008201527f72617465206973206e6f7420646566696e656420796574000000000000000000602082015250565b7f5377617020636f6e747261637420646f6573206e6f74206861766520656e6f7560008201527f676820617661696c61626c652045544820616d6f756e74000000000000000000602082015250565b7f596f752063616e206e6f742073656c6c206d6f726520746f6b656e732074686160008201527f6e20796f752063757272656e746c7920686f6c64000000000000000000000000602082015250565b7f4f6e6c79206f776e65722063616e2077697468647261772066756e6473000000600082015250565b7f496e73756666696369656e742066756e64730000000000000000000000000000600082015250565b7f4e6f7420656e6f7567682066756e6473206f6e20457468537761700000000000600082015250565b7f546f6b656e20776869636820796f752062757920636f6e76657273696f6e207260008201527f617465206973206e6f7420646566696e65642079657400000000000000000000602082015250565b7f62616c616e6365206973206c6f77000000000000000000000000000000000000600082015250565b7f4f6e6c79206f776e65722063616e2073657420636f6e76657273696f6e20726160008201527f7465000000000000000000000000000000000000000000000000000000000000602082015250565b7f4e6f7420656e6f7567682066756e647320746f2073776170206f6e207573657260008201527f2077616c6c657400000000000000000000000000000000000000000000000000602082015250565b7f546f6b656e20636f6e76657273696f6e2072617465206973206e6f742064656660008201527f696e656420796574000000000000000000000000000000000000000000000000602082015250565b7f4e6f7420656e6f75676820746f6b656e73206f6e207377617020636f6e74726160008201527f637420617661696c61626c6520746f2062757900000000000000000000000000602082015250565b611e4f81611a25565b8114611e5a57600080fd5b50565b611e6681611a37565b8114611e7157600080fd5b50565b611e7d81611a49565b8114611e8857600080fd5b50565b611e9481611a55565b8114611e9f57600080fd5b50565b611eab81611a87565b8114611eb657600080fd5b5056fea264697066735822122035e2ba04860c70fb3dde2d2a7a869eeeabf43a73aeb573d4f41a4ea19e8b6e3064736f6c63430008070033",
  "immutableReferences": {},
  "source": "pragma solidity ^0.8.7;\n// SPDX-License-Identifier: MIT\n\nimport \"@openzeppelin/contracts/token/ERC20/IERC20.sol\";\n\ncontract SwapContract {\n    address public owner;\n    uint256 public balance;\n\n    mapping (address => uint) public tokenConversionRates;\n    mapping (address => uint) public tokenAvailableBalances;\n    \n    event TransferReceived(address _from, uint _amount);\n    event TransferSent(address _from, address _destAddr, uint _amount);\n\n    event TokensPurchased(address account, address token, uint amount);\n    event TokensSold(address account, address token, uint amount);\n\n    event TokensSwapped(\n        address account, \n        address tokenToBuy, \n        address tokenToSell, \n        uint tokenToBuyAmount, \n        uint tokenToSellAmount\n    );\n\n    constructor(address _token1, address _token2) {\n        owner = msg.sender;\n        uint token1Balance = IERC20(_token1).balanceOf(address(this));\n        uint token2Balance = IERC20(_token2).balanceOf(address(this));\n        tokenAvailableBalances[_token1] = token1Balance;\n        tokenAvailableBalances[_token2] = token2Balance;\n        tokenConversionRates[_token1] = 100;\n        tokenConversionRates[_token2] = 10;\n    }\n    \n    receive() payable external {\n        balance += msg.value;\n        emit TransferReceived(msg.sender, msg.value);\n    }\n\n    function getTokenConversionRate(address token) public view returns(uint) {\n        return tokenConversionRates[token];\n    }\n\n    function updateTokenConversionRate(address token, uint tokenValueComparedToEth) public {\n        require(msg.sender == owner, \"Only owner can set conversion rate\"); \n        tokenConversionRates[token] = tokenValueComparedToEth;\n    }\n    \n    function withdraw(uint amount, address payable destAddr) public {\n        require(msg.sender == owner, \"Only owner can withdraw funds\"); \n        require(amount <= balance, \"Insufficient funds\");\n        \n        destAddr.transfer(amount);\n        balance -= amount;\n        emit TransferSent(msg.sender, destAddr, amount);\n    }\n    \n    function transferERC20(IERC20 token, address to, uint256 amount) public {\n        require(msg.sender == owner, \"Only owner can withdraw funds\"); \n        uint256 erc20balance = token.balanceOf(address(this));\n        require(amount <= erc20balance, \"balance is low\");\n        token.transfer(to, amount);\n        emit TransferSent(msg.sender, to, amount);\n    }    \n\n    function buyTokens(IERC20 token) public payable {\n        // IERC20 token arg = address of token type of IERC20\n\n        // Calculate the number of tokens to buy\n        require(tokenConversionRates[address(token)] != 0, \"Token conversion rate is not defined yet\");\n        uint tokenConversionRate = tokenConversionRates[address(token)];\n        uint tokenAmount = msg.value * tokenConversionRate;\n        // Require that EthSwap has enough tokens\n        require(token.balanceOf(address(this)) >= tokenAmount, \"Not enough tokens on swap contract available to buy\");\n        // Transfer tokens to the user\n        token.transfer(msg.sender, tokenAmount);\n        emit TokensPurchased(msg.sender, address(token), tokenAmount);\n    }\n\n    function sellTokens(IERC20 token, uint _amount) public payable {\n        require(token.balanceOf(msg.sender) >= _amount, \"You can not sell more tokens than you currently hold\");\n\n        require(tokenConversionRates[address(token)] != 0, \"Token conversion rate is not defined yet\");\n        uint tokenConversionRate = tokenConversionRates[address(token)];\n        uint etherAmount = _amount / tokenConversionRate;\n\n        require(address(this).balance >= etherAmount, \"Swap contract does not have enough available ETH amount\");\n\n        token.transferFrom(msg.sender, address(this), _amount);\n        payable(msg.sender).transfer(etherAmount);\n        emit TokensSold(msg.sender, address(token), _amount);\n    }\n\n    function swapTokens(IERC20 tokenToBuy, IERC20 tokenToSell, uint _amountToSell) public payable {\n        //    msg.sender         _tokenToSell * conversionRate\n        require(tokenToSell.balanceOf(address(msg.sender)) >= _amountToSell, \"Not enough funds to swap on user wallet\");\n        //       -     \n        //           \n        require(tokenConversionRates[address(tokenToBuy)] != 0, \"Token which you buy conversion rate is not defined yet\");\n        require(tokenConversionRates[address(tokenToSell)] != 0, \"Token which you sell conversion rate is not defined yet\");\n        uint tokenToBuyAmount = _amountToSell / tokenConversionRates[address(tokenToSell)] * tokenConversionRates[address(tokenToBuy)];\n        require(tokenToBuy.balanceOf(address(this)) >= tokenToBuyAmount, \"Not enough funds on EthSwap\");\n        //  transferFrom  addressFrom  \n        // tokenToBuy.transferFrom(address(this), msg.sender, tokenToBuyAmount);\n        tokenToSell.transferFrom(msg.sender, address(this), _amountToSell);\n        tokenToBuy.transfer(msg.sender, tokenToBuyAmount);\n        \n        emit TokensSwapped(msg.sender, address(tokenToBuy), address(tokenToSell), tokenToBuyAmount, _amountToSell);\n    }\n}",
  "sourcePath": "/Users/denischizh/Projects/horizon/contracts/SwapContract.sol",
  "compiler": {
    "name": "solc",
    "version": "0.8.7+commit.e28d00a7.Emscripten.clang"
  },
  "schemaVersion": "3.4.4",
  "updatedAt": "2022-12-12T09:54:38.996Z",
  "networkType": "ethereum",
  "devdoc": {
    "kind": "dev",
    "methods": {},
    "version": 1
  },
  "userdoc": {
    "kind": "user",
    "methods": {},
    "version": 1
  }
}